{
    "contractName": "TreeAuction",
    "abi": [
        {
            "anonymous": false,
            "inputs": [
                {
                    "indexed": false,
                    "internalType": "uint256",
                    "name": "aucionId",
                    "type": "uint256"
                },
                {
                    "indexed": false,
                    "internalType": "uint256",
                    "name": "treeId",
                    "type": "uint256"
                },
                {
                    "indexed": false,
                    "internalType": "address",
                    "name": "winner",
                    "type": "address"
                },
                {
                    "indexed": false,
                    "internalType": "uint256",
                    "name": "amount",
                    "type": "uint256"
                }
            ],
            "name": "AuctionEnded",
            "type": "event"
        },
        {
            "anonymous": false,
            "inputs": [
                {
                    "indexed": false,
                    "internalType": "address",
                    "name": "bidder",
                    "type": "address"
                },
                {
                    "indexed": false,
                    "internalType": "uint256",
                    "name": "amount",
                    "type": "uint256"
                }
            ],
            "name": "HighestBidIncreased",
            "type": "event"
        },
        {
            "inputs": [],
            "name": "accessRestriction",
            "outputs": [
                {
                    "internalType": "contract IAccessRestriction",
                    "name": "",
                    "type": "address"
                }
            ],
            "stateMutability": "view",
            "type": "function"
        },
        {
            "inputs": [
                {
                    "internalType": "uint256",
                    "name": "_auctionId",
                    "type": "uint256"
                }
            ],
            "name": "auctionEnd",
            "outputs": [],
            "stateMutability": "nonpayable",
            "type": "function"
        },
        {
            "inputs": [
                {
                    "internalType": "uint256",
                    "name": "_auctionId",
                    "type": "uint256"
                }
            ],
            "name": "bid",
            "outputs": [],
            "stateMutability": "payable",
            "type": "function"
        },
        {
            "inputs": [
                {
                    "internalType": "uint256",
                    "name": "_treeId",
                    "type": "uint256"
                },
                {
                    "internalType": "address payable",
                    "name": "_bider",
                    "type": "address"
                },
                {
                    "internalType": "uint64",
                    "name": "_startDate",
                    "type": "uint64"
                },
                {
                    "internalType": "uint64",
                    "name": "_endDate",
                    "type": "uint64"
                },
                {
                    "internalType": "uint256",
                    "name": "_highestBid",
                    "type": "uint256"
                },
                {
                    "internalType": "uint256",
                    "name": "_intialPrice",
                    "type": "uint256"
                },
                {
                    "internalType": "uint256",
                    "name": "_bidInterval",
                    "type": "uint256"
                }
            ],
            "name": "createBid",
            "outputs": [],
            "stateMutability": "nonpayable",
            "type": "function"
        },
        {
            "inputs": [
                {
                    "internalType": "address",
                    "name": "_accessRestrictionAddress",
                    "type": "address"
                }
            ],
            "name": "initialize",
            "outputs": [],
            "stateMutability": "nonpayable",
            "type": "function"
        },
        {
            "inputs": [],
            "name": "manualWithdraw",
            "outputs": [
                {
                    "internalType": "bool",
                    "name": "",
                    "type": "bool"
                }
            ],
            "stateMutability": "nonpayable",
            "type": "function"
        },
        {
            "inputs": [
                {
                    "internalType": "address",
                    "name": "_address",
                    "type": "address"
                }
            ],
            "name": "setGenesisTreeAddress",
            "outputs": [],
            "stateMutability": "nonpayable",
            "type": "function"
        },
        {
            "inputs": [
                {
                    "internalType": "address",
                    "name": "_address",
                    "type": "address"
                }
            ],
            "name": "setGenesisTreeFundAddress",
            "outputs": [],
            "stateMutability": "nonpayable",
            "type": "function"
        },
        {
            "inputs": [
                {
                    "internalType": "address payable",
                    "name": "_treasuryAddress",
                    "type": "address"
                }
            ],
            "name": "setTreasuryAddress",
            "outputs": [],
            "stateMutability": "nonpayable",
            "type": "function"
        }
    ],
    "bytecode": "608060405234801561001057600080fd5b50610b37806100206000396000f3fe6080604052600436106100865760003560e01c80636605bfda116100595780636605bfda146101305780636bb154da14610163578063881be7b61461008b578063c4d66de8146101c8578063d6762c4a146101fb57610086565b8063130bd34c1461008b57806332246e9f146100c0578063454a2ab3146100ea57806362e546f914610107575b600080fd5b34801561009757600080fd5b506100be600480360360208110156100ae57600080fd5b50356001600160a01b031661022c565b005b3480156100cc57600080fd5b506100be600480360360208110156100e357600080fd5b503561022f565b6100be6004803603602081101561010057600080fd5b5035610491565b34801561011357600080fd5b5061011c610649565b604080519115158252519081900360200190f35b34801561013c57600080fd5b506100be6004803603602081101561015357600080fd5b50356001600160a01b03166106b0565b34801561016f57600080fd5b506100be600480360360e081101561018657600080fd5b508035906001600160a01b036020820135169067ffffffffffffffff604082013581169160608101359091169060808101359060a08101359060c0013561073f565b3480156101d457600080fd5b506100be600480360360208110156101eb57600080fd5b50356001600160a01b03166108dc565b34801561020757600080fd5b50610210610a12565b604080516001600160a01b039092168252519081900360200190f35b50565b6004805460408051632104fb0560e21b81523393810193909352516001600160a01b0390911691638413ec14916024808301926000929190829003018186803b15801561027b57600080fd5b505afa15801561028f573d6000803e3d6000fd5b50505060008281526002602052604090206003810154909150600160401b900467ffffffffffffffff16421015610306576040805162461bcd60e51b815260206004820152601660248201527520bab1ba34b7b7103737ba103cb2ba1032b73232b21760511b604482015290519081900360640190fd5b6040805162195b9960ea1b6020808301919091528251808303820181528284018452805190820120600285015460608085019190915284518085039091018152608090930190935281519101201461038f5760405162461bcd60e51b8152600401808060200182810382526023815260200180610ab16023913960400191505060405180910390fd5b60018101546001600160a01b03166103e4576040805162461bcd60e51b81526020600482015260136024820152722737903932b332b9103a379030bab1ba34b7b760691b604482015290519081900360640190fd5b62195b9960ea1b60028201558054600182015460048301546040805186815260208101949094526001600160a01b03909216838301526060830152517f2b2b6e4d2c04cd042f5fb49ebe25d9518176619265c44683e96df259893213629181900360800190a1600080546004830154604051620100009092046001600160a01b0316926108fc8215029290818181858888f1935050505015801561048c573d6000803e3d6000fd5b505050565b600081815260026020526040902060058101543410156104f8576040805162461bcd60e51b815260206004820152601f60248201527f6d757374206265206d6f7265207468616e20696e697461696c2076616c756500604482015290519081900360640190fd5b806004015481600601540134101561050f57600080fd5b6003810154600160401b900467ffffffffffffffff16421115610572576040805162461bcd60e51b815260206004820152601660248201527520bab1ba34b7b71030b63932b0b23c9032b73232b21760511b604482015290519081900360640190fd5b600381015467ffffffffffffffff1642116105cb576040805162461bcd60e51b815260206004820152601460248201527320bab1ba34b7b7103737ba1039ba30b93a32b21760611b604482015290519081900360640190fd5b600180820180546004840180543491829055336001600160a01b03198416811790945560408051948552602085019290925281516001600160a01b039093169390927ff4757a49b326036464bec6fe419a4ae38c8a02ce3e68bf0809674f6aab8ad300929181900390910190a16106428183610a21565b5050505050565b3360009081526003602052604081205480156106a757336000818152600360205260408082208290555183156108fc0291849190818181858888f193505050506106a7573360009081526003602052604081209190915590506106ad565b60019150505b90565b6004805460408051632104fb0560e21b81523393810193909352516001600160a01b0390911691638413ec14916024808301926000929190829003018186803b1580156106fc57600080fd5b505afa158015610710573d6000803e3d6000fd5b5050600080546001600160a01b03909416620100000262010000600160b01b0319909416939093179092555050565b6004805460408051632104fb0560e21b81523393810193909352516001600160a01b0390911691638413ec14916024808301926000929190829003018186803b15801561078b57600080fd5b505afa15801561079f573d6000803e3d6000fd5b505050506107ad6001610a9d565b6005604051806101000160405280898152602001886001600160a01b03168152602001661cdd185c9d195960ca1b81526020018767ffffffffffffffff1681526020018667ffffffffffffffff168152602001858152602001848152602001838152506002600061081e6001610aa6565b8152602080820192909252604090810160002083518155918301516001830180546001600160a01b0319166001600160a01b0390921691909117905582015160028201556060820151600382018054608085015167ffffffffffffffff1990911667ffffffffffffffff938416176fffffffffffffffff00000000000000001916600160401b939091169290920291909117905560a0820151600482015560c0820151600582015560e0909101516006909101555050505050505050565b600054610100900460ff16806108f557506108f5610aaa565b80610903575060005460ff16155b61093e5760405162461bcd60e51b815260040180806020018281038252602e815260200180610ad4602e913960400191505060405180910390fd5b600054610100900460ff16158015610969576000805460ff1961ff0019909116610100171660011790555b6000829050806001600160a01b031663ba84fd696040518163ffffffff1660e01b815260040160206040518083038186803b1580156109a757600080fd5b505afa1580156109bb573d6000803e3d6000fd5b505050506040513d60208110156109d157600080fd5b50516109dc57600080fd5b600480546001600160a01b0319166001600160a01b03929092169190911790558015610a0e576000805461ff00191690555b5050565b6004546001600160a01b031681565b803b63ffffffff811615610a52576001600160a01b038216600090815260036020526040902080548401905561048c565b6040516001600160a01b0383169084156108fc029085906000818181858888f1935050505061048c57506001600160a01b031660009081526003602052604090208054919091019055565b80546001019055565b5490565b303b159056fe61756374696f6e456e642068617320616c7265616479206265656e2063616c6c65642e496e697469616c697a61626c653a20636f6e747261637420697320616c726561647920696e697469616c697a6564a2646970667358221220da8a9947c5310f15cb7dbfdc070c461e74336e29553b251cf8da33aa286c659c64736f6c634300060a0033",
    "sourcePath": "/home/smuggler/x1/contract/contracts/auction/TreeAuction.sol",
    "compiler": {
        "name": "solc",
        "version": "0.6.10+commit.00c0fcaf"
    },
    "functionHashes": {
        "accessRestriction()": "d6762c4a",
        "auctionEnd(uint256)": "32246e9f",
        "bid(uint256)": "454a2ab3",
        "createBid(uint256,address,uint64,uint64,uint256,uint256,uint256)": "6bb154da",
        "initialize(address)": "c4d66de8",
        "manualWithdraw()": "62e546f9",
        "setGenesisTreeAddress(address)": "130bd34c",
        "setGenesisTreeFundAddress(address)": "881be7b6",
        "setTreasuryAddress(address)": "6605bfda"
    },
    "gasEstimates": {
        "creation": {
            "codeDepositCost": "574200",
            "executionCost": "606",
            "totalCost": "574806"
        },
        "external": {
            "accessRestriction()": "1125",
            "auctionEnd(uint256)": "infinite",
            "bid(uint256)": "infinite",
            "createBid(uint256,address,uint64,uint64,uint256,uint256,uint256)": "infinite",
            "initialize(address)": "infinite",
            "manualWithdraw()": "infinite",
            "setGenesisTreeAddress(address)": "207",
            "setGenesisTreeFundAddress(address)": "250",
            "setTreasuryAddress(address)": "infinite"
        },
        "internal": {
            "_withdraw(uint256,address payable)": "infinite"
        }
    }
}