{
    "contractName": "TreeAuction",
    "abi": [
        {
            "anonymous": false,
            "inputs": [
                {
                    "indexed": false,
                    "internalType": "address",
                    "name": "winner",
                    "type": "address"
                },
                {
                    "indexed": false,
                    "internalType": "uint256",
                    "name": "amount",
                    "type": "uint256"
                }
            ],
            "name": "AuctionEnded",
            "type": "event"
        },
        {
            "anonymous": false,
            "inputs": [
                {
                    "indexed": false,
                    "internalType": "address",
                    "name": "bidder",
                    "type": "address"
                },
                {
                    "indexed": false,
                    "internalType": "uint256",
                    "name": "amount",
                    "type": "uint256"
                }
            ],
            "name": "HighestBidIncreased",
            "type": "event"
        },
        {
            "inputs": [],
            "name": "accessRestriction",
            "outputs": [
                {
                    "internalType": "contract IAccessRestriction",
                    "name": "",
                    "type": "address"
                }
            ],
            "stateMutability": "view",
            "type": "function"
        },
        {
            "inputs": [
                {
                    "internalType": "uint256",
                    "name": "_auctionId",
                    "type": "uint256"
                }
            ],
            "name": "bid",
            "outputs": [],
            "stateMutability": "payable",
            "type": "function"
        },
        {
            "inputs": [
                {
                    "internalType": "uint256",
                    "name": "_treeId",
                    "type": "uint256"
                },
                {
                    "internalType": "address payable",
                    "name": "_bider",
                    "type": "address"
                },
                {
                    "internalType": "bytes32",
                    "name": "_status",
                    "type": "bytes32"
                },
                {
                    "internalType": "uint64",
                    "name": "_startDate",
                    "type": "uint64"
                },
                {
                    "internalType": "uint64",
                    "name": "_endDate",
                    "type": "uint64"
                },
                {
                    "internalType": "uint64",
                    "name": "_highestBid",
                    "type": "uint64"
                },
                {
                    "internalType": "uint32",
                    "name": "_intialPrice",
                    "type": "uint32"
                },
                {
                    "internalType": "uint32",
                    "name": "_bidInterval",
                    "type": "uint32"
                }
            ],
            "name": "createBid",
            "outputs": [],
            "stateMutability": "nonpayable",
            "type": "function"
        },
        {
            "inputs": [
                {
                    "internalType": "address",
                    "name": "_accessRestrictionAddress",
                    "type": "address"
                }
            ],
            "name": "initialize",
            "outputs": [],
            "stateMutability": "nonpayable",
            "type": "function"
        }
    ],
    "bytecode": "608060405234801561001057600080fd5b50610667806100206000396000f3fe60806040526004361061003f5760003560e01c8063454a2ab3146100445780636ca0361314610063578063c4d66de8146100d7578063d6762c4a1461010a575b600080fd5b6100616004803603602081101561005a57600080fd5b503561013b565b005b34801561006f57600080fd5b50610061600480360361010081101561008757600080fd5b508035906001600160a01b036020820135169060408101359067ffffffffffffffff6060820135811691608081013582169160a0820135169063ffffffff60c082013581169160e001351661024f565b3480156100e357600080fd5b50610061600480360360208110156100fa57600080fd5b50356001600160a01b0316610438565b34801561011657600080fd5b5061011f61056e565b604080516001600160a01b039092168252519081900360200190f35b60008181526002602052604090206003810154600160801b810467ffffffffffffffff169061017690600160e01b900463ffffffff1661057d565b0167ffffffffffffffff1634101561018d57600080fd5b60018082015460038301546001600160a01b0390911690600160801b900467ffffffffffffffff166101be3461057d565b60038501805467ffffffffffffffff92909216600160801b0267ffffffffffffffff60801b199092169190911790556001840180546001600160a01b031916339081179091556040805191825234602083015280517ff4757a49b326036464bec6fe419a4ae38c8a02ce3e68bf0809674f6aab8ad3009281900390910190a16102488582846105c5565b5050505050565b6004805460408051632104fb0560e21b81523393810193909352516001600160a01b0390911691638413ec14916024808301926000929190829003018186803b15801561029b57600080fd5b505afa1580156102af573d6000803e3d6000fd5b505050506102bd60016105ca565b60056040518061010001604052808a8152602001896001600160a01b031681526020018881526020018767ffffffffffffffff1681526020018667ffffffffffffffff1681526020018567ffffffffffffffff1681526020018463ffffffff1681526020018363ffffffff168152506002600061033a60016105d3565b8152602080820192909252604090810160002083518155918301516001830180546001600160a01b0319166001600160a01b039092169190911790558201516002820155606082015160039091018054608084015160a085015160c086015160e09096015167ffffffffffffffff1990931667ffffffffffffffff958616176fffffffffffffffff00000000000000001916600160401b928616929092029190911767ffffffffffffffff60801b1916600160801b94909116939093029290921763ffffffff60c01b1916600160c01b63ffffffff94851602176001600160e01b0316600160e01b9390921692909202179055505050505050505050565b600054610100900460ff168061045157506104516105d7565b8061045f575060005460ff16155b61049a5760405162461bcd60e51b815260040180806020018281038252602e8152602001806105de602e913960400191505060405180910390fd5b600054610100900460ff161580156104c5576000805460ff1961ff0019909116610100171660011790555b6000829050806001600160a01b031663ba84fd696040518163ffffffff1660e01b815260040160206040518083038186803b15801561050357600080fd5b505afa158015610517573d6000803e3d6000fd5b505050506040513d602081101561052d57600080fd5b505161053857600080fd5b600480546001600160a01b0319166001600160a01b0392909216919091179055801561056a576000805461ff00191690555b5050565b6004546001600160a01b031681565b6000600160401b82106105c15760405162461bcd60e51b815260040180806020018281038252602681526020018061060c6026913960400191505060405180910390fd5b5090565b505050565b80546001019055565b5490565b303b159056fe496e697469616c697a61626c653a20636f6e747261637420697320616c726561647920696e697469616c697a656453616665436173743a2076616c756520646f65736e27742066697420696e2036342062697473a2646970667358221220850f1502cd0471667aa20a0062e6e943fe1833a2506ee59e75826db30a67b0d664736f6c63430006090033",
    "sourcePath": "/home/ali/Desktop/treejer/contract/contracts/auction/TreeAuction.sol",
    "compiler": {
        "name": "solc",
        "version": "0.6.9+commit.3e3065ac"
    },
    "functionHashes": {
        "accessRestriction()": "d6762c4a",
        "bid(uint256)": "454a2ab3",
        "createBid(uint256,address,bytes32,uint64,uint64,uint64,uint32,uint32)": "6ca03613",
        "initialize(address)": "c4d66de8"
    },
    "gasEstimates": {
        "creation": {
            "codeDepositCost": "327800",
            "executionCost": "368",
            "totalCost": "328168"
        },
        "external": {
            "accessRestriction()": "1081",
            "bid(uint256)": "infinite",
            "createBid(uint256,address,bytes32,uint64,uint64,uint64,uint32,uint32)": "infinite",
            "initialize(address)": "infinite"
        },
        "internal": {
            "withdraw(uint256,uint256,address payable)": "15"
        }
    }
}