{
    "contractName": "TreeAuction",
    "abi": [
        {
            "anonymous": false,
            "inputs": [
                {
                    "indexed": false,
                    "internalType": "uint256",
                    "name": "aucionId",
                    "type": "uint256"
                },
                {
                    "indexed": false,
                    "internalType": "uint256",
                    "name": "treeId",
                    "type": "uint256"
                },
                {
                    "indexed": false,
                    "internalType": "address",
                    "name": "winner",
                    "type": "address"
                },
                {
                    "indexed": false,
                    "internalType": "uint256",
                    "name": "amount",
                    "type": "uint256"
                }
            ],
            "name": "AuctionEnded",
            "type": "event"
        },
        {
            "anonymous": false,
            "inputs": [
                {
                    "indexed": false,
                    "internalType": "address",
                    "name": "bidder",
                    "type": "address"
                },
                {
                    "indexed": false,
                    "internalType": "uint256",
                    "name": "amount",
                    "type": "uint256"
                }
            ],
            "name": "HighestBidIncreased",
            "type": "event"
        },
        {
            "inputs": [],
            "name": "accessRestriction",
            "outputs": [
                {
                    "internalType": "contract IAccessRestriction",
                    "name": "",
                    "type": "address"
                }
            ],
            "stateMutability": "view",
            "type": "function"
        },
        {
            "inputs": [
                {
                    "internalType": "uint256",
                    "name": "_auctionId",
                    "type": "uint256"
                }
            ],
            "name": "auctionEnd",
            "outputs": [],
            "stateMutability": "nonpayable",
            "type": "function"
        },
        {
            "inputs": [
                {
                    "internalType": "uint256",
                    "name": "_auctionId",
                    "type": "uint256"
                }
            ],
            "name": "bid",
            "outputs": [],
            "stateMutability": "payable",
            "type": "function"
        },
        {
            "inputs": [
                {
                    "internalType": "uint256",
                    "name": "_treeId",
                    "type": "uint256"
                },
                {
                    "internalType": "address payable",
                    "name": "_bider",
                    "type": "address"
                },
                {
                    "internalType": "bytes32",
                    "name": "_status",
                    "type": "bytes32"
                },
                {
                    "internalType": "uint64",
                    "name": "_startDate",
                    "type": "uint64"
                },
                {
                    "internalType": "uint64",
                    "name": "_endDate",
                    "type": "uint64"
                },
                {
                    "internalType": "uint256",
                    "name": "_highestBid",
                    "type": "uint256"
                },
                {
                    "internalType": "uint256",
                    "name": "_intialPrice",
                    "type": "uint256"
                },
                {
                    "internalType": "uint256",
                    "name": "_bidInterval",
                    "type": "uint256"
                }
            ],
            "name": "createBid",
            "outputs": [],
            "stateMutability": "nonpayable",
            "type": "function"
        },
        {
            "inputs": [
                {
                    "internalType": "address",
                    "name": "_accessRestrictionAddress",
                    "type": "address"
                }
            ],
            "name": "initialize",
            "outputs": [],
            "stateMutability": "nonpayable",
            "type": "function"
        },
        {
            "inputs": [],
            "name": "manualWithdraw",
            "outputs": [
                {
                    "internalType": "bool",
                    "name": "",
                    "type": "bool"
                }
            ],
            "stateMutability": "nonpayable",
            "type": "function"
        },
        {
            "inputs": [
                {
                    "internalType": "address",
                    "name": "_address",
                    "type": "address"
                }
            ],
            "name": "setGenesisTreeAddress",
            "outputs": [],
            "stateMutability": "nonpayable",
            "type": "function"
        },
        {
            "inputs": [
                {
                    "internalType": "address",
                    "name": "_address",
                    "type": "address"
                }
            ],
            "name": "setGenesisTreeFundAddress",
            "outputs": [],
            "stateMutability": "nonpayable",
            "type": "function"
        },
        {
            "inputs": [
                {
                    "internalType": "address payable",
                    "name": "_treasuryAddress",
                    "type": "address"
                }
            ],
            "name": "setTreasuryAddress",
            "outputs": [],
            "stateMutability": "nonpayable",
            "type": "function"
        }
    ],
    "bytecode": "608060405234801561001057600080fd5b50610a20806100206000396000f3fe6080604052600436106100865760003560e01c80636605bfda116100595780636605bfda14610130578063881be7b61461008b578063979e521714610163578063c4d66de8146101cf578063d6762c4a1461020257610086565b8063130bd34c1461008b57806332246e9f146100c0578063454a2ab3146100ea57806362e546f914610107575b600080fd5b34801561009757600080fd5b506100be600480360360208110156100ae57600080fd5b50356001600160a01b0316610233565b005b3480156100cc57600080fd5b506100be600480360360208110156100e357600080fd5b5035610236565b6100be6004803603602081101561010057600080fd5b5035610498565b34801561011357600080fd5b5061011c61053b565b604080519115158252519081900360200190f35b34801561013c57600080fd5b506100be6004803603602081101561015357600080fd5b50356001600160a01b03166105a2565b34801561016f57600080fd5b506100be600480360361010081101561018757600080fd5b508035906001600160a01b036020820135169060408101359067ffffffffffffffff606082013581169160808101359091169060a08101359060c08101359060e00135610631565b3480156101db57600080fd5b506100be600480360360208110156101f257600080fd5b50356001600160a01b03166107c5565b34801561020e57600080fd5b506102176108fb565b604080516001600160a01b039092168252519081900360200190f35b50565b6004805460408051632104fb0560e21b81523393810193909352516001600160a01b0390911691638413ec14916024808301926000929190829003018186803b15801561028257600080fd5b505afa158015610296573d6000803e3d6000fd5b50505060008281526002602052604090206003810154909150600160401b900467ffffffffffffffff1642101561030d576040805162461bcd60e51b815260206004820152601660248201527520bab1ba34b7b7103737ba103cb2ba1032b73232b21760511b604482015290519081900360640190fd5b6040805162195b9960ea1b602080830191909152825180830382018152828401845280519082012060028501546060808501919091528451808503909101815260809093019093528151910120146103965760405162461bcd60e51b815260040180806020018281038252602381526020018061099a6023913960400191505060405180910390fd5b60018101546001600160a01b03166103eb576040805162461bcd60e51b81526020600482015260136024820152722737903932b332b9103a379030bab1ba34b7b760691b604482015290519081900360640190fd5b62195b9960ea1b60028201558054600182015460048301546040805186815260208101949094526001600160a01b03909216838301526060830152517f2b2b6e4d2c04cd042f5fb49ebe25d9518176619265c44683e96df259893213629181900360800190a1600080546004830154604051620100009092046001600160a01b0316926108fc8215029290818181858888f19350505050158015610493573d6000803e3d6000fd5b505050565b600081815260026020526040902060048101546006820154013410156104bd57600080fd5b600180820180546004840180543491829055336001600160a01b03198416811790945560408051948552602085019290925281516001600160a01b039093169390927ff4757a49b326036464bec6fe419a4ae38c8a02ce3e68bf0809674f6aab8ad300929181900390910190a1610534818361090a565b5050505050565b33600090815260036020526040812054801561059957336000818152600360205260408082208290555183156108fc0291849190818181858888f193505050506105995733600090815260036020526040812091909155905061059f565b60019150505b90565b6004805460408051632104fb0560e21b81523393810193909352516001600160a01b0390911691638413ec14916024808301926000929190829003018186803b1580156105ee57600080fd5b505afa158015610602573d6000803e3d6000fd5b5050600080546001600160a01b03909416620100000262010000600160b01b0319909416939093179092555050565b6004805460408051632104fb0560e21b81523393810193909352516001600160a01b0390911691638413ec14916024808301926000929190829003018186803b15801561067d57600080fd5b505afa158015610691573d6000803e3d6000fd5b5050505061069f6001610986565b60056040518061010001604052808a8152602001896001600160a01b031681526020018881526020018767ffffffffffffffff1681526020018667ffffffffffffffff1681526020018581526020018481526020018381525060026000610706600161098f565b8152602080820192909252604090810160002083518155918301516001830180546001600160a01b0319166001600160a01b0390921691909117905582015160028201556060820151600382018054608085015167ffffffffffffffff1990911667ffffffffffffffff938416176fffffffffffffffff00000000000000001916600160401b939091169290920291909117905560a0820151600482015560c0820151600582015560e090910151600690910155505050505050505050565b600054610100900460ff16806107de57506107de610993565b806107ec575060005460ff16155b6108275760405162461bcd60e51b815260040180806020018281038252602e8152602001806109bd602e913960400191505060405180910390fd5b600054610100900460ff16158015610852576000805460ff1961ff0019909116610100171660011790555b6000829050806001600160a01b031663ba84fd696040518163ffffffff1660e01b815260040160206040518083038186803b15801561089057600080fd5b505afa1580156108a4573d6000803e3d6000fd5b505050506040513d60208110156108ba57600080fd5b50516108c557600080fd5b600480546001600160a01b0319166001600160a01b039290921691909117905580156108f7576000805461ff00191690555b5050565b6004546001600160a01b031681565b803b63ffffffff81161561093b576001600160a01b0382166000908152600360205260409020805484019055610493565b6040516001600160a01b0383169084156108fc029085906000818181858888f1935050505061049357506001600160a01b031660009081526003602052604090208054919091019055565b80546001019055565b5490565b303b159056fe61756374696f6e456e642068617320616c7265616479206265656e2063616c6c65642e496e697469616c697a61626c653a20636f6e747261637420697320616c726561647920696e697469616c697a6564a2646970667358221220255aae9aab66e94132e88be0f66a28e227b842111a04c6e90ef1df85670d547e64736f6c634300060a0033",
    "sourcePath": "/home/smuggler/x1/contract/contracts/auction/TreeAuction.sol",
    "compiler": {
        "name": "solc",
        "version": "0.6.10+commit.00c0fcaf"
    },
    "functionHashes": {
        "accessRestriction()": "d6762c4a",
        "auctionEnd(uint256)": "32246e9f",
        "bid(uint256)": "454a2ab3",
        "createBid(uint256,address,bytes32,uint64,uint64,uint256,uint256,uint256)": "979e5217",
        "initialize(address)": "c4d66de8",
        "manualWithdraw()": "62e546f9",
        "setGenesisTreeAddress(address)": "130bd34c",
        "setGenesisTreeFundAddress(address)": "881be7b6",
        "setTreasuryAddress(address)": "6605bfda"
    },
    "gasEstimates": {
        "creation": {
            "codeDepositCost": "518400",
            "executionCost": "549",
            "totalCost": "518949"
        },
        "external": {
            "accessRestriction()": "1125",
            "auctionEnd(uint256)": "infinite",
            "bid(uint256)": "infinite",
            "createBid(uint256,address,bytes32,uint64,uint64,uint256,uint256,uint256)": "infinite",
            "initialize(address)": "infinite",
            "manualWithdraw()": "infinite",
            "setGenesisTreeAddress(address)": "207",
            "setGenesisTreeFundAddress(address)": "228",
            "setTreasuryAddress(address)": "infinite"
        },
        "internal": {
            "_withdraw(uint256,address payable)": "infinite"
        }
    }
}