{
    "contractName": "TreeAuction",
    "abi": [
        {
            "anonymous": false,
            "inputs": [
                {
                    "indexed": false,
                    "internalType": "address",
                    "name": "winner",
                    "type": "address"
                },
                {
                    "indexed": false,
                    "internalType": "uint256",
                    "name": "amount",
                    "type": "uint256"
                }
            ],
            "name": "AuctionEnded",
            "type": "event"
        },
        {
            "anonymous": false,
            "inputs": [
                {
                    "indexed": false,
                    "internalType": "address",
                    "name": "bidder",
                    "type": "address"
                },
                {
                    "indexed": false,
                    "internalType": "uint256",
                    "name": "amount",
                    "type": "uint256"
                }
            ],
            "name": "HighestBidIncreased",
            "type": "event"
        },
        {
            "inputs": [],
            "name": "accessRestriction",
            "outputs": [
                {
                    "internalType": "contract IAccessRestriction",
                    "name": "",
                    "type": "address"
                }
            ],
            "stateMutability": "view",
            "type": "function"
        },
        {
            "inputs": [
                {
                    "internalType": "uint256",
                    "name": "_auctionId",
                    "type": "uint256"
                }
            ],
            "name": "auctionEnd",
            "outputs": [],
            "stateMutability": "nonpayable",
            "type": "function"
        },
        {
            "inputs": [
                {
                    "internalType": "uint256",
                    "name": "_auctionId",
                    "type": "uint256"
                }
            ],
            "name": "bid",
            "outputs": [],
            "stateMutability": "payable",
            "type": "function"
        },
        {
            "inputs": [
                {
                    "internalType": "uint256",
                    "name": "_treeId",
                    "type": "uint256"
                },
                {
                    "internalType": "address payable",
                    "name": "_bider",
                    "type": "address"
                },
                {
                    "internalType": "bytes32",
                    "name": "_status",
                    "type": "bytes32"
                },
                {
                    "internalType": "uint64",
                    "name": "_startDate",
                    "type": "uint64"
                },
                {
                    "internalType": "uint64",
                    "name": "_endDate",
                    "type": "uint64"
                },
                {
                    "internalType": "uint64",
                    "name": "_highestBid",
                    "type": "uint64"
                },
                {
                    "internalType": "uint32",
                    "name": "_intialPrice",
                    "type": "uint32"
                },
                {
                    "internalType": "uint32",
                    "name": "_bidInterval",
                    "type": "uint32"
                }
            ],
            "name": "createBid",
            "outputs": [],
            "stateMutability": "nonpayable",
            "type": "function"
        },
        {
            "inputs": [
                {
                    "internalType": "address",
                    "name": "_accessRestrictionAddress",
                    "type": "address"
                }
            ],
            "name": "initialize",
            "outputs": [],
            "stateMutability": "nonpayable",
            "type": "function"
        },
        {
            "inputs": [],
            "name": "manualWithdraw",
            "outputs": [
                {
                    "internalType": "bool",
                    "name": "",
                    "type": "bool"
                }
            ],
            "stateMutability": "nonpayable",
            "type": "function"
        }
    ],
    "bytecode": "608060405234801561001057600080fd5b50610ac7806100206000396000f3fe6080604052600436106100555760003560e01c806332246e9f1461005a578063454a2ab31461008657806362e546f9146100a35780636ca03613146100cc578063c4d66de81461013f578063d6762c4a14610172575b600080fd5b34801561006657600080fd5b506100846004803603602081101561007d57600080fd5b50356101a3565b005b6100846004803603602081101561009c57600080fd5b50356103be565b3480156100af57600080fd5b506100b86104ce565b604080519115158252519081900360200190f35b3480156100d857600080fd5b5061008460048036036101008110156100f057600080fd5b508035906001600160a01b03602082013516906040810135906001600160401b036060820135811691608081013582169160a0820135169063ffffffff60c082013581169160e001351661057a565b34801561014b57600080fd5b506100846004803603602081101561016257600080fd5b50356001600160a01b031661075f565b34801561017e57600080fd5b50610187610895565b604080516001600160a01b039092168252519081900360200190f35b6004805460408051632104fb0560e21b81523393810193909352516001600160a01b0390911691638413ec14916024808301926000929190829003018186803b1580156101ef57600080fd5b505afa158015610203573d6000803e3d6000fd5b50505060008281526002602052604090206003810154909150600160401b90046001600160401b0316421015610279576040805162461bcd60e51b815260206004820152601660248201527520bab1ba34b7b7103737ba103cb2ba1032b73232b21760511b604482015290519081900360640190fd5b6040805162195b9960ea1b602080830191909152825180830382018152828401845280519082012060028501546060808501919091528451808503909101815260809093019093528151910120146103025760405162461bcd60e51b8152600401808060200182810382526023815260200180610a1b6023913960400191505060405180910390fd5b60018101546001600160a01b0316610357576040805162461bcd60e51b81526020600482015260136024820152722737903932b332b9103a379030bab1ba34b7b760691b604482015290519081900360640190fd5b62195b9960ea1b6002820155600080546003830154604051620100009092046001600160a01b0316926108fc600160801b9092046001600160401b03168015929092029290818181858888f193505050501580156103b9573d6000803e3d6000fd5b505050565b60008181526002602052604090206003810154600160801b81046001600160401b0316906103f890600160e01b900463ffffffff166108a4565b016001600160401b031634101561040e57600080fd5b60018082015460038301546001600160a01b0390911690600160801b90046001600160401b031661043e346108a4565b6003850180546001600160401b0392909216600160801b0267ffffffffffffffff60801b199092169190911790556001840180546001600160a01b031916339081179091556040805191825234602083015280517ff4757a49b326036464bec6fe419a4ae38c8a02ce3e68bf0809674f6aab8ad3009281900390910190a16104c78582846108ec565b5050505050565b336000908152600360205260408120546001600160401b0316801561057157336000818152600360205260409020805467ffffffffffffffff191690556108fc6105206001600160401b0384166109b0565b6040518115909202916000818181858888f1935050505061057157336000908152600360205260408120805467ffffffffffffffff19166001600160401b0393909316929092179091559050610577565b60019150505b90565b6004805460408051632104fb0560e21b81523393810193909352516001600160a01b0390911691638413ec14916024808301926000929190829003018186803b1580156105c657600080fd5b505afa1580156105da573d6000803e3d6000fd5b505050506105e86001610a07565b60056040518061010001604052808a8152602001896001600160a01b03168152602001888152602001876001600160401b03168152602001866001600160401b03168152602001856001600160401b031681526020018463ffffffff1681526020018363ffffffff16815250600260006106626001610a10565b8152602080820192909252604090810160002083518155918301516001830180546001600160a01b0319166001600160a01b039092169190911790558201516002820155606082015160039091018054608084015160a085015160c086015160e09096015167ffffffffffffffff199093166001600160401b03958616176fffffffffffffffff00000000000000001916600160401b928616929092029190911767ffffffffffffffff60801b1916600160801b94909116939093029290921763ffffffff60c01b1916600160c01b63ffffffff94851602176001600160e01b0316600160e01b9390921692909202179055505050505050505050565b600054610100900460ff16806107785750610778610a14565b80610786575060005460ff16155b6107c15760405162461bcd60e51b815260040180806020018281038252602e815260200180610a3e602e913960400191505060405180910390fd5b600054610100900460ff161580156107ec576000805460ff1961ff0019909116610100171660011790555b6000829050806001600160a01b031663ba84fd696040518163ffffffff1660e01b815260040160206040518083038186803b15801561082a57600080fd5b505afa15801561083e573d6000803e3d6000fd5b505050506040513d602081101561085457600080fd5b505161085f57600080fd5b600480546001600160a01b0319166001600160a01b03929092169190911790558015610891576000805461ff00191690555b5050565b6004546001600160a01b031681565b6000600160401b82106108e85760405162461bcd60e51b8152600401808060200182810382526026815260200180610a6c6026913960400191505060405180910390fd5b5090565b803b63ffffffff811615610937576001600160a01b038216600090815260036020526040902080546001600160401b0380821686011667ffffffffffffffff199091161790556109aa565b816001600160a01b03166108fc610956856001600160401b03166109b0565b6040518115909202916000818181858888f193505050506109aa576001600160a01b038216600090815260036020526040902080546001600160401b0380821686011667ffffffffffffffff199091161790555b50505050565b6000808212156108e8576040805162461bcd60e51b815260206004820181905260248201527f53616665436173743a2076616c7565206d75737420626520706f736974697665604482015290519081900360640190fd5b80546001019055565b5490565b303b159056fe61756374696f6e456e642068617320616c7265616479206265656e2063616c6c65642e496e697469616c697a61626c653a20636f6e747261637420697320616c726561647920696e697469616c697a656453616665436173743a2076616c756520646f65736e27742066697420696e2036342062697473a2646970667358221220c465cd26fab6c35454c49d61eb11fe173194bc591a0d1661437e97ceacd6cd9d64736f6c63430006090033",
    "sourcePath": "/home/ali/Desktop/treejer/contract/contracts/auction/TreeAuction.sol",
    "compiler": {
        "name": "solc",
        "version": "0.6.9+commit.3e3065ac"
    },
    "functionHashes": {
        "accessRestriction()": "d6762c4a",
        "auctionEnd(uint256)": "32246e9f",
        "bid(uint256)": "454a2ab3",
        "createBid(uint256,address,bytes32,uint64,uint64,uint64,uint32,uint32)": "6ca03613",
        "initialize(address)": "c4d66de8",
        "manualWithdraw()": "62e546f9"
    },
    "gasEstimates": {
        "creation": {
            "codeDepositCost": "551800",
            "executionCost": "587",
            "totalCost": "552387"
        },
        "external": {
            "accessRestriction()": "1125",
            "auctionEnd(uint256)": "infinite",
            "bid(uint256)": "infinite",
            "createBid(uint256,address,bytes32,uint64,uint64,uint64,uint32,uint32)": "infinite",
            "initialize(address)": "infinite",
            "manualWithdraw()": "infinite"
        },
        "internal": {
            "_withdraw(uint256,uint64,address payable)": "infinite"
        }
    }
}