{
  "contractName": "AccessRestriction",
  "abi": [
    {
      "anonymous": false,
      "inputs": [
        {
          "indexed": false,
          "internalType": "address",
          "name": "account",
          "type": "address"
        }
      ],
      "name": "Paused",
      "type": "event"
    },
    {
      "anonymous": false,
      "inputs": [
        {
          "indexed": true,
          "internalType": "bytes32",
          "name": "role",
          "type": "bytes32"
        },
        {
          "indexed": true,
          "internalType": "bytes32",
          "name": "previousAdminRole",
          "type": "bytes32"
        },
        {
          "indexed": true,
          "internalType": "bytes32",
          "name": "newAdminRole",
          "type": "bytes32"
        }
      ],
      "name": "RoleAdminChanged",
      "type": "event"
    },
    {
      "anonymous": false,
      "inputs": [
        {
          "indexed": true,
          "internalType": "bytes32",
          "name": "role",
          "type": "bytes32"
        },
        {
          "indexed": true,
          "internalType": "address",
          "name": "account",
          "type": "address"
        },
        {
          "indexed": true,
          "internalType": "address",
          "name": "sender",
          "type": "address"
        }
      ],
      "name": "RoleGranted",
      "type": "event"
    },
    {
      "anonymous": false,
      "inputs": [
        {
          "indexed": true,
          "internalType": "bytes32",
          "name": "role",
          "type": "bytes32"
        },
        {
          "indexed": true,
          "internalType": "address",
          "name": "account",
          "type": "address"
        },
        {
          "indexed": true,
          "internalType": "address",
          "name": "sender",
          "type": "address"
        }
      ],
      "name": "RoleRevoked",
      "type": "event"
    },
    {
      "anonymous": false,
      "inputs": [
        {
          "indexed": false,
          "internalType": "address",
          "name": "account",
          "type": "address"
        }
      ],
      "name": "Unpaused",
      "type": "event"
    },
    {
      "inputs": [],
      "name": "BUYER_RANK_ROLE",
      "outputs": [
        {
          "internalType": "bytes32",
          "name": "",
          "type": "bytes32"
        }
      ],
      "stateMutability": "view",
      "type": "function"
    },
    {
      "inputs": [],
      "name": "DATA_MANAGER_ROLE",
      "outputs": [
        {
          "internalType": "bytes32",
          "name": "",
          "type": "bytes32"
        }
      ],
      "stateMutability": "view",
      "type": "function"
    },
    {
      "inputs": [],
      "name": "DEFAULT_ADMIN_ROLE",
      "outputs": [
        {
          "internalType": "bytes32",
          "name": "",
          "type": "bytes32"
        }
      ],
      "stateMutability": "view",
      "type": "function"
    },
    {
      "inputs": [],
      "name": "PLANTER_ROLE",
      "outputs": [
        {
          "internalType": "bytes32",
          "name": "",
          "type": "bytes32"
        }
      ],
      "stateMutability": "view",
      "type": "function"
    },
    {
      "inputs": [],
      "name": "TREEJER_CONTRACT_ROLE",
      "outputs": [
        {
          "internalType": "bytes32",
          "name": "",
          "type": "bytes32"
        }
      ],
      "stateMutability": "view",
      "type": "function"
    },
    {
      "inputs": [
        {
          "internalType": "bytes32",
          "name": "role",
          "type": "bytes32"
        }
      ],
      "name": "getRoleAdmin",
      "outputs": [
        {
          "internalType": "bytes32",
          "name": "",
          "type": "bytes32"
        }
      ],
      "stateMutability": "view",
      "type": "function"
    },
    {
      "inputs": [
        {
          "internalType": "bytes32",
          "name": "role",
          "type": "bytes32"
        },
        {
          "internalType": "address",
          "name": "account",
          "type": "address"
        }
      ],
      "name": "grantRole",
      "outputs": [],
      "stateMutability": "nonpayable",
      "type": "function"
    },
    {
      "inputs": [
        {
          "internalType": "bytes32",
          "name": "role",
          "type": "bytes32"
        },
        {
          "internalType": "address",
          "name": "account",
          "type": "address"
        }
      ],
      "name": "hasRole",
      "outputs": [
        {
          "internalType": "bool",
          "name": "",
          "type": "bool"
        }
      ],
      "stateMutability": "view",
      "type": "function"
    },
    {
      "inputs": [],
      "name": "isAccessRestriction",
      "outputs": [
        {
          "internalType": "bool",
          "name": "",
          "type": "bool"
        }
      ],
      "stateMutability": "view",
      "type": "function"
    },
    {
      "inputs": [],
      "name": "paused",
      "outputs": [
        {
          "internalType": "bool",
          "name": "",
          "type": "bool"
        }
      ],
      "stateMutability": "view",
      "type": "function"
    },
    {
      "inputs": [
        {
          "internalType": "bytes32",
          "name": "role",
          "type": "bytes32"
        },
        {
          "internalType": "address",
          "name": "account",
          "type": "address"
        }
      ],
      "name": "renounceRole",
      "outputs": [],
      "stateMutability": "nonpayable",
      "type": "function"
    },
    {
      "inputs": [
        {
          "internalType": "bytes32",
          "name": "role",
          "type": "bytes32"
        },
        {
          "internalType": "address",
          "name": "account",
          "type": "address"
        }
      ],
      "name": "revokeRole",
      "outputs": [],
      "stateMutability": "nonpayable",
      "type": "function"
    },
    {
      "inputs": [
        {
          "internalType": "bytes4",
          "name": "interfaceId",
          "type": "bytes4"
        }
      ],
      "name": "supportsInterface",
      "outputs": [
        {
          "internalType": "bool",
          "name": "",
          "type": "bool"
        }
      ],
      "stateMutability": "view",
      "type": "function"
    },
    {
      "inputs": [
        {
          "internalType": "bytes32",
          "name": "c__0x1040b2e3",
          "type": "bytes32"
        }
      ],
      "name": "c_0x1040b2e3",
      "outputs": [],
      "stateMutability": "pure",
      "type": "function"
    },
    {
      "inputs": [
        {
          "internalType": "address",
          "name": "_deployer",
          "type": "address"
        }
      ],
      "name": "initialize",
      "outputs": [],
      "stateMutability": "nonpayable",
      "type": "function"
    },
    {
      "inputs": [
        {
          "internalType": "address",
          "name": "_address",
          "type": "address"
        }
      ],
      "name": "ifPlanter",
      "outputs": [],
      "stateMutability": "view",
      "type": "function"
    },
    {
      "inputs": [
        {
          "internalType": "address",
          "name": "_address",
          "type": "address"
        }
      ],
      "name": "isPlanter",
      "outputs": [
        {
          "internalType": "bool",
          "name": "",
          "type": "bool"
        }
      ],
      "stateMutability": "view",
      "type": "function"
    },
    {
      "inputs": [
        {
          "internalType": "address",
          "name": "_address",
          "type": "address"
        }
      ],
      "name": "ifAdmin",
      "outputs": [],
      "stateMutability": "view",
      "type": "function"
    },
    {
      "inputs": [
        {
          "internalType": "address",
          "name": "_address",
          "type": "address"
        }
      ],
      "name": "isAdmin",
      "outputs": [
        {
          "internalType": "bool",
          "name": "",
          "type": "bool"
        }
      ],
      "stateMutability": "view",
      "type": "function"
    },
    {
      "inputs": [],
      "name": "ifNotPaused",
      "outputs": [],
      "stateMutability": "view",
      "type": "function"
    },
    {
      "inputs": [],
      "name": "ifPaused",
      "outputs": [],
      "stateMutability": "view",
      "type": "function"
    },
    {
      "inputs": [],
      "name": "pause",
      "outputs": [],
      "stateMutability": "nonpayable",
      "type": "function"
    },
    {
      "inputs": [],
      "name": "unpause",
      "outputs": [],
      "stateMutability": "nonpayable",
      "type": "function"
    },
    {
      "inputs": [
        {
          "internalType": "address",
          "name": "_address",
          "type": "address"
        }
      ],
      "name": "ifTreejerContract",
      "outputs": [],
      "stateMutability": "view",
      "type": "function"
    },
    {
      "inputs": [
        {
          "internalType": "address",
          "name": "_address",
          "type": "address"
        }
      ],
      "name": "isTreejerContract",
      "outputs": [
        {
          "internalType": "bool",
          "name": "",
          "type": "bool"
        }
      ],
      "stateMutability": "view",
      "type": "function"
    },
    {
      "inputs": [
        {
          "internalType": "address",
          "name": "_address",
          "type": "address"
        }
      ],
      "name": "ifDataManager",
      "outputs": [],
      "stateMutability": "view",
      "type": "function"
    },
    {
      "inputs": [
        {
          "internalType": "address",
          "name": "_address",
          "type": "address"
        }
      ],
      "name": "isDataManager",
      "outputs": [
        {
          "internalType": "bool",
          "name": "",
          "type": "bool"
        }
      ],
      "stateMutability": "view",
      "type": "function"
    },
    {
      "inputs": [
        {
          "internalType": "address",
          "name": "_address",
          "type": "address"
        }
      ],
      "name": "ifBuyerRank",
      "outputs": [],
      "stateMutability": "view",
      "type": "function"
    },
    {
      "inputs": [
        {
          "internalType": "address",
          "name": "_address",
          "type": "address"
        }
      ],
      "name": "isBuyerRank",
      "outputs": [
        {
          "internalType": "bool",
          "name": "",
          "type": "bool"
        }
      ],
      "stateMutability": "view",
      "type": "function"
    },
    {
      "inputs": [
        {
          "internalType": "address",
          "name": "_address",
          "type": "address"
        }
      ],
      "name": "ifDataManagerOrTreejerContract",
      "outputs": [],
      "stateMutability": "view",
      "type": "function"
    }
  ],
  "bytecode": "0x608060405234801561001057600080fd5b50613291806100206000396000f3fe608060405234801561001057600080fd5b50600436106101da5760003560e01c80637c1ef5c411610104578063a217fddf116100a2578063c4d66de811610071578063c4d66de81461051b578063d547741f14610537578063ebe6a6f314610553578063f29bbde81461056f576101da565b8063a217fddf146104a7578063b6215a18146104c5578063ba84fd69146104e1578063c4d2a31b146104ff576101da565b80638456cb59116100de5780638456cb591461041f5780638b78f4a4146104295780638e184d4b1461044757806391d1485414610477576101da565b80637c1ef5c4146103c95780638097d4d6146103e75780638413ec1414610403576101da565b8063393320c01161017c5780635a65c75b1161014b5780635a65c75b146103415780635c975abb1461035f5780636dc1ccab1461037d5780637aa153b414610399576101da565b8063393320c0146102f35780633f4ba83a146103235780634d868f981461032d5780635590f60114610337576101da565b806324f9e45f116101b857806324f9e45f1461026f5780632ea8de7f1461028b5780632f2ff15d146102bb57806336568abe146102d7576101da565b806301ffc9a7146101df578063248a9ca31461020f57806324d7806c1461023f575b600080fd5b6101f960048036038101906101f491906128a2565b61058d565b6040516102069190612b82565b60405180910390f35b61022960048036038101906102249190612835565b610607565b6040516102369190612b9d565b60405180910390f35b61025960048036038101906102549190612808565b610627565b6040516102669190612b82565b60405180910390f35b61028960048036038101906102849190612808565b6106c1565b005b6102a560048036038101906102a09190612808565b6107f8565b6040516102b29190612b82565b60405180910390f35b6102d560048036038101906102d09190612862565b6108af565b005b6102f160048036038101906102ec9190612862565b6108d8565b005b61030d60048036038101906103089190612808565b61095b565b60405161031a9190612b82565b60405180910390f35b61032b610a12565b005b610335610bf4565b005b61033f610d1a565b005b610349610e3f565b6040516103569190612b9d565b60405180910390f35b610367610e63565b6040516103749190612b82565b60405180910390f35b61039760048036038101906103929190612808565b610e7a565b005b6103b360048036038101906103ae9190612808565b610fa1565b6040516103c09190612b82565b60405180910390f35b6103d1611058565b6040516103de9190612b9d565b60405180910390f35b61040160048036038101906103fc9190612808565b61107c565b005b61041d60048036038101906104189190612808565b6111a3565b005b6104276112ca565b005b6104316114ac565b60405161043e9190612b9d565b60405180910390f35b610461600480360381019061045c9190612808565b6114d0565b60405161046e9190612b82565b60405180910390f35b610491600480360381019061048c9190612862565b611587565b60405161049e9190612b82565b60405180910390f35b6104af6115f2565b6040516104bc9190612b9d565b60405180910390f35b6104df60048036038101906104da9190612835565b6115f9565b005b6104e96115fc565b6040516104f69190612b82565b60405180910390f35b61051960048036038101906105149190612808565b61160f565b005b61053560048036038101906105309190612808565b611736565b005b610551600480360381019061054c9190612862565b611a9b565b005b61056d60048036038101906105689190612808565b611ac4565b005b610577611beb565b6040516105849190612b9d565b60405180910390f35b60007f7965db0b000000000000000000000000000000000000000000000000000000007bffffffffffffffffffffffffffffffffffffffffffffffffffffffff1916827bffffffffffffffffffffffffffffffffffffffffffffffffffffffff1916148061060057506105ff82611c0f565b5b9050919050565b600060656000838152602001908152602001600020600101549050919050565b60006106557f6cdea5f34714a66d6e013548fa9adf9425c263b0c640525ffcc59c8d7cd99b7360001b6115f9565b6106817f1ff1797797849e67e72a8b90d1a129ada75d39866196cd56992942a23e15f3a960001b6115f9565b6106ad7f4be40b6beba871b2c3075c74ff7c3341223436df72b406e39d999883d24ec56960001b6115f9565b6106ba6000801b83611587565b9050919050565b6106ed7fb50960c46195e8a556abc9639370dcb4e612d58b841674224145cc9f3a6470b860001b6115f9565b6107197fc8d56cfd8e242a79048b3aff101e0c5bc4892c88c42484ca8cda02635537d50060001b6115f9565b6107457f4a08298456718d41c046ff7f56549e5860b326c57a247c0b3a85083fbd973bdb60001b6115f9565b6107717f695dfbf0b6b59ee19877fb8b428c77bcf2e24f1c2712621961fbe1fc80913bb360001b6115f9565b61077a81610fa1565b8061078a5750610789816114d0565b5b6107c9576040517f08c379a00000000000000000000000000000000000000000000000000000000081526004016107c090612c5a565b60405180910390fd5b6107f57fd8c57be192a50e5c9338d6f0e15543195eb42488c8d51436fe4796cbc356fc7260001b6115f9565b50565b60006108267f473b0b37efd6fe37c22a21951aa308f586dd55f12dce3ad0ae2195044a08a4d760001b6115f9565b6108527fecc2376ad846034715426681b1e9ab378ec0c42d903d26f338434125014c31ba60001b6115f9565b61087e7fd360df30db42469b37450fdfa34178d5dab36488e1e051b777df394c3cb0fdf860001b6115f9565b6108a87f61d7aa1fb0c6989ceddd273d02e982ddc4445762b9b2dd886d67e5cabfed50cd83611587565b9050919050565b6108b882610607565b6108c9816108c4611c79565b611c81565b6108d38383611d1e565b505050565b6108e0611c79565b73ffffffffffffffffffffffffffffffffffffffff168173ffffffffffffffffffffffffffffffffffffffff161461094d576040517f08c379a000000000000000000000000000000000000000000000000000000000815260040161094490612d1a565b60405180910390fd5b6109578282611dff565b5050565b60006109897f52a8c20e120be74f05df614209115ba08d3986b8ad5d703962f531354745aba460001b6115f9565b6109b57f57eedb24e3734fd0ad9249c3653e1954ca78c1b06286b20c068b51b913f23c2960001b6115f9565b6109e17f415e3ded09ebcfc026e74538be01574eeca3aae63b3581f44305d2b615541ef960001b6115f9565b610a0b7fd05e50a2bf6ee731303c67428c1423979c1f674a62a1dde018a14e5d33fcfaa583611587565b9050919050565b610a3e7f928b33f1cae6cd3b43a06496659439ecf0472bdca6eb8abc9af204de5327f17160001b6115f9565b610a6a7f30e8d875d9f1dcadcb29b606cf6a20574780f7b02861b13d2ba515cd50570c0860001b6115f9565b610a967fcb216dfe95c67051fc52801afaf71f66268641078f348c3c4de03cb735ee210e60001b6115f9565b610ac27f3c8b2ef3d9db556ce5dfdd6b77f96c39d31359ee088e091e537ffc1a8dcc4edf60001b6115f9565b610acf6000801b33611587565b610b0e576040517f08c379a0000000000000000000000000000000000000000000000000000000008152600401610b0590612cba565b60405180910390fd5b610b3a7f278f17e68de7eed8fbec355914de843971fa746adcc9c76cc34e3cab3ce2347960001b6115f9565b610b667fcc89ee7058d366baf93342c354e91472e7720352d2e051599a2b96c67e492e8260001b6115f9565b610b927f111216741baf912a8cf908edc594759d6802ce32fc1548790c64bfd399b97a8060001b6115f9565b610bbe7f056a6b506086ae06d497fe20ebf3e03cd6a8608a2f6697324ea5a2ffecbd8e1160001b6115f9565b610bea7fde0f0bbdc7f2a23b84699bb693ab9abf6b87757b4becc290d0661e5ae60ef9c660001b6115f9565b610bf2611ee1565b565b610c207f2e950f6c322b4e274be20365dce774b1a9d7e49a2db9312524eb498e3987086660001b6115f9565b610c4c7ff00c4d9a1002146c714314180f20d80fb01edeaa6059640b5e9343cbc99ccbaf60001b6115f9565b610c787f0f7205ff7f0b59b2d1208dde789619e082ebcbfe701588bfd282adac7124cf3460001b6115f9565b610ca47f7010b80d0a54fcf084f2d5f0aa9b9c3adc278f04c7a765de4bafb4973acb787360001b6115f9565b610cac610e63565b15610cec576040517f08c379a0000000000000000000000000000000000000000000000000000000008152600401610ce390612c7a565b60405180910390fd5b610d187f0132ed1bbe9b2d063bdad822083c113c51366014b91efab637ca6707aa9ce01c60001b6115f9565b565b610d467f642942a1e0790757b0ae2d1a078d8153217b4e83e495c6a1fbc6d8bf82fecc0460001b6115f9565b610d727f9ef42a0d2bace9d910854b66aaa596a1c2bde88ac520af1e381f74a1f86e771b60001b6115f9565b610d9e7f7147021eaf0000acf349a719cc99a75df8551296cbffdd7af062bc17aabd9f7260001b6115f9565b610dca7f0c5a3e66c55120f3a6f8a348fe892ae81b797c1bb6b6997b357a640173ee45da60001b6115f9565b610dd2610e63565b610e11576040517f08c379a0000000000000000000000000000000000000000000000000000000008152600401610e0890612bfa565b60405180910390fd5b610e3d7f98b5801de899df9dc77807bf8a118940382da2ecb23a070253c6e04c8b3f423c60001b6115f9565b565b7f131c8106ea131078b770bb7fc1d4cf9e6f5b49a778783372c0c724707d982e1581565b6000609760009054906101000a900460ff16905090565b610ea67f85276447fb7d5c8c0b15a1df2667542debef16560f282c9b27ad4571f3cef19d60001b6115f9565b610ed27f2a4aa2fa54061a2e3f8925a42195117ebddd900b428b306d853517169c3bd4cc60001b6115f9565b610efe7f8d44637029e5a69ddc46e058e3a106c0c7a85bf82693b07a3016e7a0a2d0fecd60001b6115f9565b610f2a7f26d445a7882057ee6ce39a4a91ed9eff39a7c0d9c681c29f79f866c4e4dc28dd60001b6115f9565b610f33816107f8565b610f72576040517f08c379a0000000000000000000000000000000000000000000000000000000008152600401610f6990612cfa565b60405180910390fd5b610f9e7ff3d2721b0e27bcc4be09ee78e7b207129f88c4bbb418f1e9bc86a54c9e9dda3f60001b6115f9565b50565b6000610fcf7fc54b3e56d8d3462c2519d987cb01f023439b71a9e2d48f7185cb9ff1cc449ce560001b6115f9565b610ffb7f67fb175ae40a46c976364b46a410bad7cf2709a490424c4003338ea83ad3137960001b6115f9565b6110277f4a2126e5ebf1130bde941a3913ea928cb8e32804ed1ed8e033719d053c06924960001b6115f9565b6110517f2cb697566d4fae71a9e65e4dac853bf1e0e88a4957a11bb62814a78d165bb6bb83611587565b9050919050565b7fd05e50a2bf6ee731303c67428c1423979c1f674a62a1dde018a14e5d33fcfaa581565b6110a87f98d6e7e01668b35ee79d53b74da521239e075720a2564e5f28fc74887855c2b060001b6115f9565b6110d47fe2b5288153adce0862ff3373b4c7d242fe50c414b819005a40387d14e5a209cd60001b6115f9565b6111007f57e4a2fe0ce1ab86ef4f804ccfc42a74b373b0b94af10ebe2e64ba5ca541388860001b6115f9565b61112c7ff28e39b634dcd36d022824d124fcbf458d9d985526ca2707b8bea9db3c8f5c2f60001b6115f9565b6111358161095b565b611174576040517f08c379a000000000000000000000000000000000000000000000000000000000815260040161116b90612c1a565b60405180910390fd5b6111a07fe86c201f280383d3d74ac21cf0aaa7e6943cfacd632927caf80012e13690a8b760001b6115f9565b50565b6111cf7f458717a363f0ac3ead6883edbfdc1b5631019e85e9ae94399e0293557947204260001b6115f9565b6111fb7f9c4e6cd9930cdd98bd8752b92c945d10d6502ce7f493b5f8b271046be7165ad260001b6115f9565b6112277f12c26521da8a53567e3425791e8cf7a88b16491c1233b82afc4dacc10bf8055660001b6115f9565b6112537ff4caa6ebe2f14225032c1b90ba89cebcfe97b4a610043706317bf1c28f772cc960001b6115f9565b61125c81610627565b61129b576040517f08c379a000000000000000000000000000000000000000000000000000000000815260040161129290612cba565b60405180910390fd5b6112c77f44bb39ef6b7e09ed71fe3bafb97439c5342df8549bcb5fbf95a578081241d03e60001b6115f9565b50565b6112f67f928b33f1cae6cd3b43a06496659439ecf0472bdca6eb8abc9af204de5327f17160001b6115f9565b6113227f30e8d875d9f1dcadcb29b606cf6a20574780f7b02861b13d2ba515cd50570c0860001b6115f9565b61134e7fcb216dfe95c67051fc52801afaf71f66268641078f348c3c4de03cb735ee210e60001b6115f9565b61137a7f3c8b2ef3d9db556ce5dfdd6b77f96c39d31359ee088e091e537ffc1a8dcc4edf60001b6115f9565b6113876000801b33611587565b6113c6576040517f08c379a00000000000000000000000000000000000000000000000000000000081526004016113bd90612cba565b60405180910390fd5b6113f27f278f17e68de7eed8fbec355914de843971fa746adcc9c76cc34e3cab3ce2347960001b6115f9565b61141e7fcc89ee7058d366baf93342c354e91472e7720352d2e051599a2b96c67e492e8260001b6115f9565b61144a7fc40dfb43a9fce6db98d9a1e1bd11c66bff779f59d11f6c7f51bd5deba00a27f460001b6115f9565b6114767f9fc1718247ff09d07e0f767910210ffc9984b75c34f4799e3913aa318d283e9360001b6115f9565b6114a27fc51ffe1a74b21117444775207c1c360f1dd266a16ec2eaae4dad16f8067a5b7760001b6115f9565b6114aa611f83565b565b7f2cb697566d4fae71a9e65e4dac853bf1e0e88a4957a11bb62814a78d165bb6bb81565b60006114fe7f958714ef19eb677eaa4eb291ffd690ea30f7b04cb1d0d416d2978af93b140c5760001b6115f9565b61152a7fa667b479c72fa86eee2f5f30c0e9554059272ed0426ac19a7fb9fc27fa5ee75060001b6115f9565b6115567f628df16c669e16e1658ccd3921928e66689ccb7653c88f1be8036f559b43343d60001b6115f9565b6115807f131c8106ea131078b770bb7fc1d4cf9e6f5b49a778783372c0c724707d982e1583611587565b9050919050565b60006065600084815260200190815260200160002060000160008373ffffffffffffffffffffffffffffffffffffffff1673ffffffffffffffffffffffffffffffffffffffff16815260200190815260200160002060009054906101000a900460ff16905092915050565b6000801b81565b50565b60c960009054906101000a900460ff1681565b61163b7feb2f558caa9fffdf27fcc6e8897f49f8b03dd7bce888db6d34c685d2360f8a7960001b6115f9565b6116677fae84247444d0585633b869697d9099e721a25547537cffd95b6bb0f61383a3b660001b6115f9565b6116937f91e64e3328f94c3eb942155067d25a56b8a43171eb9217b393fbdde341c6963060001b6115f9565b6116bf7fa76becb85a7e8486372ba37535a3868917a48ca2e097b05f897dd56b627cc48660001b6115f9565b6116c881610fa1565b611707576040517f08c379a00000000000000000000000000000000000000000000000000000000081526004016116fe90612c3a565b60405180910390fd5b6117337f93d96054bd6a26b6be9f2c9a19ef66ff5187ba1f3b6ce018433297cdfa249fff60001b6115f9565b50565b600060019054906101000a900460ff168061175c575060008054906101000a900460ff16155b61179b576040517f08c379a000000000000000000000000000000000000000000000000000000000815260040161179290612c9a565b60405180910390fd5b60008060019054906101000a900460ff1615905080156117eb576001600060016101000a81548160ff02191690831515021790555060016000806101000a81548160ff0219169083151502179055505b6118177fc20d0354ac98c1922d3e3a414d8e24d997e0a2d2f80e9d8d62a1fa3df5751ec760001b6115f9565b6118437f49670a5e18a3f8539a13a5aa7adc565b719c825bf8186398c788878c6f62774960001b6115f9565b61186f7f623a37f8c8fdab7115dab882d480cb26e309ed6b5b997ead5fa321527cbfa0c760001b6115f9565b611877612026565b6118a37fb776f8c9ff0debd7b70e041d4b4a6f492bb12080ebd5e1cf9957f5ad586bf4b660001b6115f9565b6118cf7f02176240fe2023088066702b3de2b50ede3e29efa7b5c0ebf7107c5ff2addcee60001b6115f9565b6118d7612117565b6119037f6945e58089d7311bd987732728025573644716c4cfef6d6132ef0f2f6da2b8f060001b6115f9565b61192f7fb915aa9afd4e9b1475d4bff4a0239360f05065c2a39a9475f9fc501eb91b3eda60001b6115f9565b600160c960006101000a81548160ff0219169083151502179055506119767f8895f04460036023c0ec1f42d20853bd033aa3d29686587243504fc507a46fa460001b6115f9565b6119a27f67e8d8e3b5859982087ab1b5af547c801966000cde606025b1d4e4bcf9b8ca5960001b6115f9565b6119af6000801b83611587565b611a49576119df7f09dd60a64f05a2208ca067f031e6394ff69c7dc8058a7bc3f57d4a366180ec1660001b6115f9565b611a0b7fc9943c368ed2acec8844f8f34e65a22962c39c77651f5a5a36948f4bbe70681460001b6115f9565b611a377f32b2e0d5f8e9b9670491ffbd74f20a66addd59375c51c2fb04483d568149737160001b6115f9565b611a446000801b83612200565b611a76565b611a757fd3b1159ffe075f18d4587ee360388ffb75c5d0a3e26e910743ce67a1ecc5008e60001b6115f9565b5b8015611a975760008060016101000a81548160ff0219169083151502179055505b5050565b611aa482610607565b611ab581611ab0611c79565b611c81565b611abf8383611dff565b505050565b611af07faf394e9b308b77ff9578225f463115cfec473bd2be69d96811a99d8c2918971a60001b6115f9565b611b1c7f48aa70ce78c43370fd7f98eeedd54a02693f8529a12194e1b4821abc962ec2cc60001b6115f9565b611b487f3b251863c74498476ed2687aff8c0e6819b3222471c956ee232ef751e8b36f5960001b6115f9565b611b747f54226bd9a06cbd44adc648f805b6845b385b7f8088cd9b0ff326281eaf4b3d5660001b6115f9565b611b7d816114d0565b611bbc576040517f08c379a0000000000000000000000000000000000000000000000000000000008152600401611bb390612cda565b60405180910390fd5b611be87f20f2237d44ffd4b6f7d0f4b352b6b42697019aa0a793f22799b6024e5be616b460001b6115f9565b50565b7f61d7aa1fb0c6989ceddd273d02e982ddc4445762b9b2dd886d67e5cabfed50cd81565b60007f01ffc9a7000000000000000000000000000000000000000000000000000000007bffffffffffffffffffffffffffffffffffffffffffffffffffffffff1916827bffffffffffffffffffffffffffffffffffffffffffffffffffffffff1916149050919050565b600033905090565b611c8b8282611587565b611d1a57611cb08173ffffffffffffffffffffffffffffffffffffffff16601461220e565b611cbe8360001c602061220e565b604051602001611ccf929190612b2d565b6040516020818303038152906040526040517f08c379a0000000000000000000000000000000000000000000000000000000008152600401611d119190612bb8565b60405180910390fd5b5050565b611d288282611587565b611dfb5760016065600084815260200190815260200160002060000160008373ffffffffffffffffffffffffffffffffffffffff1673ffffffffffffffffffffffffffffffffffffffff16815260200190815260200160002060006101000a81548160ff021916908315150217905550611da0611c79565b73ffffffffffffffffffffffffffffffffffffffff168173ffffffffffffffffffffffffffffffffffffffff16837f2f8788117e7eff1d82e926ec794901d17c78024a50270940304540a733656f0d60405160405180910390a45b5050565b611e098282611587565b15611edd5760006065600084815260200190815260200160002060000160008373ffffffffffffffffffffffffffffffffffffffff1673ffffffffffffffffffffffffffffffffffffffff16815260200190815260200160002060006101000a81548160ff021916908315150217905550611e82611c79565b73ffffffffffffffffffffffffffffffffffffffff168173ffffffffffffffffffffffffffffffffffffffff16837ff6391f5c32d9c69d2a47ea670b442974b53935d1edc7fd64eb21e047a839171b60405160405180910390a45b5050565b611ee9610e63565b611f28576040517f08c379a0000000000000000000000000000000000000000000000000000000008152600401611f1f90612bfa565b60405180910390fd5b6000609760006101000a81548160ff0219169083151502179055507f5db9ee0a495bf2e6ff9c91a7834c1ba4fdd244a5e8aa4e537bd38aeae4b073aa611f6c611c79565b604051611f799190612b67565b60405180910390a1565b611f8b610e63565b15611fcb576040517f08c379a0000000000000000000000000000000000000000000000000000000008152600401611fc290612c7a565b60405180910390fd5b6001609760006101000a81548160ff0219169083151502179055507f62e78cea01bee320cd4e420270b5ea74000d11b0c9f74754ebdbfc544b05a25861200f611c79565b60405161201c9190612b67565b60405180910390a1565b600060019054906101000a900460ff168061204c575060008054906101000a900460ff16155b61208b576040517f08c379a000000000000000000000000000000000000000000000000000000000815260040161208290612c9a565b60405180910390fd5b60008060019054906101000a900460ff1615905080156120db576001600060016101000a81548160ff02191690831515021790555060016000806101000a81548160ff0219169083151502179055505b6120e361244a565b6120eb612523565b6120f36125fc565b80156121145760008060016101000a81548160ff0219169083151502179055505b50565b600060019054906101000a900460ff168061213d575060008054906101000a900460ff16155b61217c576040517f08c379a000000000000000000000000000000000000000000000000000000000815260040161217390612c9a565b60405180910390fd5b60008060019054906101000a900460ff1615905080156121cc576001600060016101000a81548160ff02191690831515021790555060016000806101000a81548160ff0219169083151502179055505b6121d461244a565b6121dc6126d5565b80156121fd5760008060016101000a81548160ff0219169083151502179055505b50565b61220a8282611d1e565b5050565b6060600060028360026122219190612db7565b61222b9190612d61565b67ffffffffffffffff81111561224457612243612f4a565b5b6040519080825280601f01601f1916602001820160405280156122765781602001600182028036833780820191505090505b5090507f3000000000000000000000000000000000000000000000000000000000000000816000815181106122ae576122ad612f1b565b5b60200101907effffffffffffffffffffffffffffffffffffffffffffffffffffffffffffff1916908160001a9053507f78000000000000000000000000000000000000000000000000000000000000008160018151811061231257612311612f1b565b5b60200101907effffffffffffffffffffffffffffffffffffffffffffffffffffffffffffff1916908160001a905350600060018460026123529190612db7565b61235c9190612d61565b90505b60018111156123fc577f3031323334353637383961626364656600000000000000000000000000000000600f86166010811061239e5761239d612f1b565b5b1a60f81b8282815181106123b5576123b4612f1b565b5b60200101907effffffffffffffffffffffffffffffffffffffffffffffffffffffffffffff1916908160001a905350600485901c9450806123f590612ec2565b905061235f565b5060008414612440576040517f08c379a000000000000000000000000000000000000000000000000000000000815260040161243790612bda565b60405180910390fd5b8091505092915050565b600060019054906101000a900460ff1680612470575060008054906101000a900460ff16155b6124af576040517f08c379a00000000000000000000000000000000000000000000000000000000081526004016124a690612c9a565b60405180910390fd5b60008060019054906101000a900460ff1615905080156124ff576001600060016101000a81548160ff02191690831515021790555060016000806101000a81548160ff0219169083151502179055505b80156125205760008060016101000a81548160ff0219169083151502179055505b50565b600060019054906101000a900460ff1680612549575060008054906101000a900460ff16155b612588576040517f08c379a000000000000000000000000000000000000000000000000000000000815260040161257f90612c9a565b60405180910390fd5b60008060019054906101000a900460ff1615905080156125d8576001600060016101000a81548160ff02191690831515021790555060016000806101000a81548160ff0219169083151502179055505b80156125f95760008060016101000a81548160ff0219169083151502179055505b50565b600060019054906101000a900460ff1680612622575060008054906101000a900460ff16155b612661576040517f08c379a000000000000000000000000000000000000000000000000000000000815260040161265890612c9a565b60405180910390fd5b60008060019054906101000a900460ff1615905080156126b1576001600060016101000a81548160ff02191690831515021790555060016000806101000a81548160ff0219169083151502179055505b80156126d25760008060016101000a81548160ff0219169083151502179055505b50565b600060019054906101000a900460ff16806126fb575060008054906101000a900460ff16155b61273a576040517f08c379a000000000000000000000000000000000000000000000000000000000815260040161273190612c9a565b60405180910390fd5b60008060019054906101000a900460ff16159050801561278a576001600060016101000a81548160ff02191690831515021790555060016000806101000a81548160ff0219169083151502179055505b6000609760006101000a81548160ff02191690831515021790555080156127c65760008060016101000a81548160ff0219169083151502179055505b50565b6000813590506127d881613216565b92915050565b6000813590506127ed8161322d565b92915050565b60008135905061280281613244565b92915050565b60006020828403121561281e5761281d612f79565b5b600061282c848285016127c9565b91505092915050565b60006020828403121561284b5761284a612f79565b5b6000612859848285016127de565b91505092915050565b6000806040838503121561287957612878612f79565b5b6000612887858286016127de565b9250506020612898858286016127c9565b9150509250929050565b6000602082840312156128b8576128b7612f79565b5b60006128c6848285016127f3565b91505092915050565b6128d881612e11565b82525050565b6128e781612e23565b82525050565b6128f681612e2f565b82525050565b600061290782612d3a565b6129118185612d45565b9350612921818560208601612e8f565b61292a81612f7e565b840191505092915050565b600061294082612d3a565b61294a8185612d56565b935061295a818560208601612e8f565b80840191505092915050565b6000612973602083612d45565b915061297e82612f8f565b602082019050919050565b6000612996601483612d45565b91506129a182612fb8565b602082019050919050565b60006129b9601883612d45565b91506129c482612fe1565b602082019050919050565b60006129dc601a83612d45565b91506129e78261300a565b602082019050919050565b60006129ff602483612d45565b9150612a0a82613033565b604082019050919050565b6000612a22601083612d45565b9150612a2d82613082565b602082019050919050565b6000612a45602e83612d45565b9150612a50826130ab565b604082019050919050565b6000612a68601383612d45565b9150612a73826130fa565b602082019050919050565b6000612a8b601e83612d45565b9150612a9682613123565b602082019050919050565b6000612aae601783612d56565b9150612ab98261314c565b601782019050919050565b6000612ad1601783612d45565b9150612adc82613175565b602082019050919050565b6000612af4601183612d56565b9150612aff8261319e565b601182019050919050565b6000612b17602f83612d45565b9150612b22826131c7565b604082019050919050565b6000612b3882612aa1565b9150612b448285612935565b9150612b4f82612ae7565b9150612b5b8284612935565b91508190509392505050565b6000602082019050612b7c60008301846128cf565b92915050565b6000602082019050612b9760008301846128de565b92915050565b6000602082019050612bb260008301846128ed565b92915050565b60006020820190508181036000830152612bd281846128fc565b905092915050565b60006020820190508181036000830152612bf381612966565b9050919050565b60006020820190508181036000830152612c1381612989565b9050919050565b60006020820190508181036000830152612c33816129ac565b9050919050565b60006020820190508181036000830152612c53816129cf565b9050919050565b60006020820190508181036000830152612c73816129f2565b9050919050565b60006020820190508181036000830152612c9381612a15565b9050919050565b60006020820190508181036000830152612cb381612a38565b9050919050565b60006020820190508181036000830152612cd381612a5b565b9050919050565b60006020820190508181036000830152612cf381612a7e565b9050919050565b60006020820190508181036000830152612d1381612ac4565b9050919050565b60006020820190508181036000830152612d3381612b0a565b9050919050565b600081519050919050565b600082825260208201905092915050565b600081905092915050565b6000612d6c82612e85565b9150612d7783612e85565b9250827fffffffffffffffffffffffffffffffffffffffffffffffffffffffffffffffff03821115612dac57612dab612eec565b5b828201905092915050565b6000612dc282612e85565b9150612dcd83612e85565b9250817fffffffffffffffffffffffffffffffffffffffffffffffffffffffffffffffff0483118215151615612e0657612e05612eec565b5b828202905092915050565b6000612e1c82612e65565b9050919050565b60008115159050919050565b6000819050919050565b60007fffffffff0000000000000000000000000000000000000000000000000000000082169050919050565b600073ffffffffffffffffffffffffffffffffffffffff82169050919050565b6000819050919050565b60005b83811015612ead578082015181840152602081019050612e92565b83811115612ebc576000848401525b50505050565b6000612ecd82612e85565b91506000821415612ee157612ee0612eec565b5b600182039050919050565b7f4e487b7100000000000000000000000000000000000000000000000000000000600052601160045260246000fd5b7f4e487b7100000000000000000000000000000000000000000000000000000000600052603260045260246000fd5b7f4e487b7100000000000000000000000000000000000000000000000000000000600052604160045260246000fd5b600080fd5b6000601f19601f8301169050919050565b7f537472696e67733a20686578206c656e67746820696e73756666696369656e74600082015250565b7f5061757361626c653a206e6f7420706175736564000000000000000000000000600082015250565b7f63616c6c6572206973206e6f742062757965722072616e6b0000000000000000600082015250565b7f63616c6c6572206973206e6f742064617461206d616e61676572000000000000600082015250565b7f6e6f742044617461204d616e61676572206f7220547265656a657220436f6e7460008201527f7261637400000000000000000000000000000000000000000000000000000000602082015250565b7f5061757361626c653a2070617573656400000000000000000000000000000000600082015250565b7f496e697469616c697a61626c653a20636f6e747261637420697320616c72656160008201527f647920696e697469616c697a6564000000000000000000000000000000000000602082015250565b7f43616c6c6572206973206e6f742061646d696e00000000000000000000000000600082015250565b7f63616c6c6572206973206e6f7420747265656a657220636f6e74726163740000600082015250565b7f416363657373436f6e74726f6c3a206163636f756e7420000000000000000000600082015250565b7f43616c6c6572206973206e6f74206120706c616e746572000000000000000000600082015250565b7f206973206d697373696e6720726f6c6520000000000000000000000000000000600082015250565b7f416363657373436f6e74726f6c3a2063616e206f6e6c792072656e6f756e636560008201527f20726f6c657320666f722073656c660000000000000000000000000000000000602082015250565b61321f81612e11565b811461322a57600080fd5b50565b61323681612e2f565b811461324157600080fd5b50565b61324d81612e39565b811461325857600080fd5b5056fea26469706673582212209c6d3d06cc5339940ab60968cd45d901c72341b5545c508e4946b6f4925e539164736f6c63430008060033",
  "immutableReferences": {},
  "source": "// SPDX-License-Identifier: GPL-3.0\n\npragma solidity ^0.8.6;\nfunction c_0x48bbb7fd(bytes32 c__0x48bbb7fd) pure {}\n\n\nimport \"@openzeppelin/contracts-upgradeable/access/AccessControlUpgradeable.sol\";\nimport \"@openzeppelin/contracts-upgradeable/security/PausableUpgradeable.sol\";\n\n/** @title AccessRestriction contract */\n\ncontract AccessRestriction is AccessControlUpgradeable, PausableUpgradeable {\nfunction c_0x1040b2e3(bytes32 c__0x1040b2e3) public pure {}\n\n    bytes32 public constant PLANTER_ROLE = keccak256(\"PLANTER_ROLE\");\n    bytes32 public constant TREEJER_CONTRACT_ROLE =\n        keccak256(\"TREEJER_CONTRACT_ROLE\");\n    bytes32 public constant DATA_MANAGER_ROLE = keccak256(\"DATA_MANAGER_ROLE\");\n    bytes32 public constant BUYER_RANK_ROLE = keccak256(\"BUYER_RANK_ROLE\");\n\n    /** NOTE {isAccessRestriction} set inside the initialize to {true} */\n    bool public isAccessRestriction;\n\n    /**\n     * @dev initialize accessRestriction contract and set true for {isAccessRestriction}\n     * @param _deployer address of the deployer that DEFAULT_ADMIN_ROLE set to it\n     */\n    function initialize(address _deployer) external initializer {c_0x1040b2e3(0xc20d0354ac98c1922d3e3a414d8e24d997e0a2d2f80e9d8d62a1fa3df5751ec7); /* function */ \n\nc_0x1040b2e3(0x49670a5e18a3f8539a13a5aa7adc565b719c825bf8186398c788878c6f627749); /* line */ \n        c_0x1040b2e3(0x623a37f8c8fdab7115dab882d480cb26e309ed6b5b997ead5fa321527cbfa0c7); /* statement */ \nAccessControlUpgradeable.__AccessControl_init();\nc_0x1040b2e3(0xb776f8c9ff0debd7b70e041d4b4a6f492bb12080ebd5e1cf9957f5ad586bf4b6); /* line */ \n        c_0x1040b2e3(0x02176240fe2023088066702b3de2b50ede3e29efa7b5c0ebf7107c5ff2addcee); /* statement */ \nPausableUpgradeable.__Pausable_init();\n\nc_0x1040b2e3(0x6945e58089d7311bd987732728025573644716c4cfef6d6132ef0f2f6da2b8f0); /* line */ \n        c_0x1040b2e3(0xb915aa9afd4e9b1475d4bff4a0239360f05065c2a39a9475f9fc501eb91b3eda); /* statement */ \nisAccessRestriction = true;\n\nc_0x1040b2e3(0x8895f04460036023c0ec1f42d20853bd033aa3d29686587243504fc507a46fa4); /* line */ \n        c_0x1040b2e3(0x67e8d8e3b5859982087ab1b5af547c801966000cde606025b1d4e4bcf9b8ca59); /* statement */ \nif (!hasRole(DEFAULT_ADMIN_ROLE, _deployer)) {c_0x1040b2e3(0x09dd60a64f05a2208ca067f031e6394ff69c7dc8058a7bc3f57d4a366180ec16); /* branch */ \n\nc_0x1040b2e3(0xc9943c368ed2acec8844f8f34e65a22962c39c77651f5a5a36948f4bbe706814); /* line */ \n            c_0x1040b2e3(0x32b2e0d5f8e9b9670491ffbd74f20a66addd59375c51c2fb04483d5681497371); /* statement */ \n_setupRole(DEFAULT_ADMIN_ROLE, _deployer);\n        }else { c_0x1040b2e3(0xd3b1159ffe075f18d4587ee360388ffb75c5d0a3e26e910743ce67a1ecc5008e); /* branch */ \n}\n    }\n\n    /** NOTE modifier to check msg.sender has admin role */\n    modifier onlyAdmin() {c_0x1040b2e3(0x928b33f1cae6cd3b43a06496659439ecf0472bdca6eb8abc9af204de5327f171); /* function */ \n\nc_0x1040b2e3(0x30e8d875d9f1dcadcb29b606cf6a20574780f7b02861b13d2ba515cd50570c08); /* line */ \n        c_0x1040b2e3(0xcb216dfe95c67051fc52801afaf71f66268641078f348c3c4de03cb735ee210e); /* requirePre */ \nc_0x1040b2e3(0x3c8b2ef3d9db556ce5dfdd6b77f96c39d31359ee088e091e537ffc1a8dcc4edf); /* statement */ \nrequire(hasRole(DEFAULT_ADMIN_ROLE, msg.sender), \"Caller is not admin\");c_0x1040b2e3(0x278f17e68de7eed8fbec355914de843971fa746adcc9c76cc34e3cab3ce23479); /* requirePost */ \n\nc_0x1040b2e3(0xcc89ee7058d366baf93342c354e91472e7720352d2e051599a2b96c67e492e82); /* line */ \n        _;\n    }\n\n    /**\n     * @dev check if given address is planter\n     * @param _address input address\n     */\n    function ifPlanter(address _address) external view {c_0x1040b2e3(0x85276447fb7d5c8c0b15a1df2667542debef16560f282c9b27ad4571f3cef19d); /* function */ \n\nc_0x1040b2e3(0x2a4aa2fa54061a2e3f8925a42195117ebddd900b428b306d853517169c3bd4cc); /* line */ \n        c_0x1040b2e3(0x8d44637029e5a69ddc46e058e3a106c0c7a85bf82693b07a3016e7a0a2d0fecd); /* requirePre */ \nc_0x1040b2e3(0x26d445a7882057ee6ce39a4a91ed9eff39a7c0d9c681c29f79f866c4e4dc28dd); /* statement */ \nrequire(isPlanter(_address), \"Caller is not a planter\");c_0x1040b2e3(0xf3d2721b0e27bcc4be09ee78e7b207129f88c4bbb418f1e9bc86a54c9e9dda3f); /* requirePost */ \n\n    }\n\n    /**\n     * @dev check if given address has planter role\n     * @param _address input address\n     * @return if given address has planter role\n     */\n    function isPlanter(address _address) public view returns (bool) {c_0x1040b2e3(0x473b0b37efd6fe37c22a21951aa308f586dd55f12dce3ad0ae2195044a08a4d7); /* function */ \n\nc_0x1040b2e3(0xecc2376ad846034715426681b1e9ab378ec0c42d903d26f338434125014c31ba); /* line */ \n        c_0x1040b2e3(0xd360df30db42469b37450fdfa34178d5dab36488e1e051b777df394c3cb0fdf8); /* statement */ \nreturn hasRole(PLANTER_ROLE, _address);\n    }\n\n    /**\n     * @dev check if given address is admin\n     * @param _address input address\n     */\n    function ifAdmin(address _address) external view {c_0x1040b2e3(0x458717a363f0ac3ead6883edbfdc1b5631019e85e9ae94399e02935579472042); /* function */ \n\nc_0x1040b2e3(0x9c4e6cd9930cdd98bd8752b92c945d10d6502ce7f493b5f8b271046be7165ad2); /* line */ \n        c_0x1040b2e3(0x12c26521da8a53567e3425791e8cf7a88b16491c1233b82afc4dacc10bf80556); /* requirePre */ \nc_0x1040b2e3(0xf4caa6ebe2f14225032c1b90ba89cebcfe97b4a610043706317bf1c28f772cc9); /* statement */ \nrequire(isAdmin(_address), \"Caller is not admin\");c_0x1040b2e3(0x44bb39ef6b7e09ed71fe3bafb97439c5342df8549bcb5fbf95a578081241d03e); /* requirePost */ \n\n    }\n\n    /**\n     * @dev check if given address has admin role\n     * @param _address input address\n     * @return if given address has admin role\n     */\n    function isAdmin(address _address) public view returns (bool) {c_0x1040b2e3(0x6cdea5f34714a66d6e013548fa9adf9425c263b0c640525ffcc59c8d7cd99b73); /* function */ \n\nc_0x1040b2e3(0x1ff1797797849e67e72a8b90d1a129ada75d39866196cd56992942a23e15f3a9); /* line */ \n        c_0x1040b2e3(0x4be40b6beba871b2c3075c74ff7c3341223436df72b406e39d999883d24ec569); /* statement */ \nreturn hasRole(DEFAULT_ADMIN_ROLE, _address);\n    }\n\n    /** @dev check if functionality is not puased */\n    function ifNotPaused() external view {c_0x1040b2e3(0x2e950f6c322b4e274be20365dce774b1a9d7e49a2db9312524eb498e39870866); /* function */ \n\nc_0x1040b2e3(0xf00c4d9a1002146c714314180f20d80fb01edeaa6059640b5e9343cbc99ccbaf); /* line */ \n        c_0x1040b2e3(0x0f7205ff7f0b59b2d1208dde789619e082ebcbfe701588bfd282adac7124cf34); /* requirePre */ \nc_0x1040b2e3(0x7010b80d0a54fcf084f2d5f0aa9b9c3adc278f04c7a765de4bafb4973acb7873); /* statement */ \nrequire(!paused(), \"Pausable: paused\");c_0x1040b2e3(0x0132ed1bbe9b2d063bdad822083c113c51366014b91efab637ca6707aa9ce01c); /* requirePost */ \n\n    }\n\n    /** @dev check if functionality is puased */\n    function ifPaused() external view {c_0x1040b2e3(0x642942a1e0790757b0ae2d1a078d8153217b4e83e495c6a1fbc6d8bf82fecc04); /* function */ \n\nc_0x1040b2e3(0x9ef42a0d2bace9d910854b66aaa596a1c2bde88ac520af1e381f74a1f86e771b); /* line */ \n        c_0x1040b2e3(0x7147021eaf0000acf349a719cc99a75df8551296cbffdd7af062bc17aabd9f72); /* requirePre */ \nc_0x1040b2e3(0x0c5a3e66c55120f3a6f8a348fe892ae81b797c1bb6b6997b357a640173ee45da); /* statement */ \nrequire(paused(), \"Pausable: not paused\");c_0x1040b2e3(0x98b5801de899df9dc77807bf8a118940382da2ecb23a070253c6e04c8b3f423c); /* requirePost */ \n\n    }\n\n    /** @dev pause functionality */\n    function pause() external onlyAdmin {c_0x1040b2e3(0xc40dfb43a9fce6db98d9a1e1bd11c66bff779f59d11f6c7f51bd5deba00a27f4); /* function */ \n\nc_0x1040b2e3(0x9fc1718247ff09d07e0f767910210ffc9984b75c34f4799e3913aa318d283e93); /* line */ \n        c_0x1040b2e3(0xc51ffe1a74b21117444775207c1c360f1dd266a16ec2eaae4dad16f8067a5b77); /* statement */ \n_pause();\n    }\n\n    /** @dev unpause functionality */\n    function unpause() external onlyAdmin {c_0x1040b2e3(0x111216741baf912a8cf908edc594759d6802ce32fc1548790c64bfd399b97a80); /* function */ \n\nc_0x1040b2e3(0x056a6b506086ae06d497fe20ebf3e03cd6a8608a2f6697324ea5a2ffecbd8e11); /* line */ \n        c_0x1040b2e3(0xde0f0bbdc7f2a23b84699bb693ab9abf6b87757b4becc290d0661e5ae60ef9c6); /* statement */ \n_unpause();\n    }\n\n    /**\n     * @dev check if given address is Treejer contract\n     * @param _address input address\n     */\n    function ifTreejerContract(address _address) external view {c_0x1040b2e3(0xaf394e9b308b77ff9578225f463115cfec473bd2be69d96811a99d8c2918971a); /* function */ \n\nc_0x1040b2e3(0x48aa70ce78c43370fd7f98eeedd54a02693f8529a12194e1b4821abc962ec2cc); /* line */ \n        c_0x1040b2e3(0x3b251863c74498476ed2687aff8c0e6819b3222471c956ee232ef751e8b36f59); /* requirePre */ \nc_0x1040b2e3(0x54226bd9a06cbd44adc648f805b6845b385b7f8088cd9b0ff326281eaf4b3d56); /* statement */ \nrequire(isTreejerContract(_address), \"caller is not treejer contract\");c_0x1040b2e3(0x20f2237d44ffd4b6f7d0f4b352b6b42697019aa0a793f22799b6024e5be616b4); /* requirePost */ \n\n    }\n\n    /**\n     * @dev check if given address has Treejer contract role\n     * @param _address input address\n     * @return if given address has Treejer contract role\n     */\n    function isTreejerContract(address _address) public view returns (bool) {c_0x1040b2e3(0x958714ef19eb677eaa4eb291ffd690ea30f7b04cb1d0d416d2978af93b140c57); /* function */ \n\nc_0x1040b2e3(0xa667b479c72fa86eee2f5f30c0e9554059272ed0426ac19a7fb9fc27fa5ee750); /* line */ \n        c_0x1040b2e3(0x628df16c669e16e1658ccd3921928e66689ccb7653c88f1be8036f559b43343d); /* statement */ \nreturn hasRole(TREEJER_CONTRACT_ROLE, _address);\n    }\n\n    /**\n     * @dev check if given address is data manager\n     * @param _address input address\n     */\n    function ifDataManager(address _address) external view {c_0x1040b2e3(0xeb2f558caa9fffdf27fcc6e8897f49f8b03dd7bce888db6d34c685d2360f8a79); /* function */ \n\nc_0x1040b2e3(0xae84247444d0585633b869697d9099e721a25547537cffd95b6bb0f61383a3b6); /* line */ \n        c_0x1040b2e3(0x91e64e3328f94c3eb942155067d25a56b8a43171eb9217b393fbdde341c69630); /* requirePre */ \nc_0x1040b2e3(0xa76becb85a7e8486372ba37535a3868917a48ca2e097b05f897dd56b627cc486); /* statement */ \nrequire(isDataManager(_address), \"caller is not data manager\");c_0x1040b2e3(0x93d96054bd6a26b6be9f2c9a19ef66ff5187ba1f3b6ce018433297cdfa249fff); /* requirePost */ \n\n    }\n\n    /**\n     * @dev check if given address has data manager role\n     * @param _address input address\n     * @return if given address has data manager role\n     */\n    function isDataManager(address _address) public view returns (bool) {c_0x1040b2e3(0xc54b3e56d8d3462c2519d987cb01f023439b71a9e2d48f7185cb9ff1cc449ce5); /* function */ \n\nc_0x1040b2e3(0x67fb175ae40a46c976364b46a410bad7cf2709a490424c4003338ea83ad31379); /* line */ \n        c_0x1040b2e3(0x4a2126e5ebf1130bde941a3913ea928cb8e32804ed1ed8e033719d053c069249); /* statement */ \nreturn hasRole(DATA_MANAGER_ROLE, _address);\n    }\n\n    /**\n     * @dev check if given address is buyer rank\n     * @param _address input address\n     */\n    function ifBuyerRank(address _address) external view {c_0x1040b2e3(0x98d6e7e01668b35ee79d53b74da521239e075720a2564e5f28fc74887855c2b0); /* function */ \n\nc_0x1040b2e3(0xe2b5288153adce0862ff3373b4c7d242fe50c414b819005a40387d14e5a209cd); /* line */ \n        c_0x1040b2e3(0x57e4a2fe0ce1ab86ef4f804ccfc42a74b373b0b94af10ebe2e64ba5ca5413888); /* requirePre */ \nc_0x1040b2e3(0xf28e39b634dcd36d022824d124fcbf458d9d985526ca2707b8bea9db3c8f5c2f); /* statement */ \nrequire(isBuyerRank(_address), \"caller is not buyer rank\");c_0x1040b2e3(0xe86c201f280383d3d74ac21cf0aaa7e6943cfacd632927caf80012e13690a8b7); /* requirePost */ \n\n    }\n\n    /**\n     * @dev check if given address has buyer rank role\n     * @param _address input address\n     * @return if given address has buyer rank role\n     */\n    function isBuyerRank(address _address) public view returns (bool) {c_0x1040b2e3(0x52a8c20e120be74f05df614209115ba08d3986b8ad5d703962f531354745aba4); /* function */ \n\nc_0x1040b2e3(0x57eedb24e3734fd0ad9249c3653e1954ca78c1b06286b20c068b51b913f23c29); /* line */ \n        c_0x1040b2e3(0x415e3ded09ebcfc026e74538be01574eeca3aae63b3581f44305d2b615541ef9); /* statement */ \nreturn hasRole(BUYER_RANK_ROLE, _address);\n    }\n\n    /**\n     * @dev check if given address is DataManager or Treejer contract\n     * @param _address input address\n     */\n    function ifDataManagerOrTreejerContract(address _address) external view {c_0x1040b2e3(0xb50960c46195e8a556abc9639370dcb4e612d58b841674224145cc9f3a6470b8); /* function */ \n\nc_0x1040b2e3(0xc8d56cfd8e242a79048b3aff101e0c5bc4892c88c42484ca8cda02635537d500); /* line */ \n        c_0x1040b2e3(0x4a08298456718d41c046ff7f56549e5860b326c57a247c0b3a85083fbd973bdb); /* requirePre */ \nc_0x1040b2e3(0x695dfbf0b6b59ee19877fb8b428c77bcf2e24f1c2712621961fbe1fc80913bb3); /* statement */ \nrequire(\n            isDataManager(_address) || isTreejerContract(_address),\n            \"not Data Manager or Treejer Contract\"\n        );c_0x1040b2e3(0xd8c57be192a50e5c9338d6f0e15543195eb42488c8d51436fe4796cbc356fc72); /* requirePost */ \n\n    }\n}\n",
  "sourcePath": "/home/smuggler/contract/.coverage_contracts/access/AccessRestriction.sol",
  "compiler": {
    "name": "solc",
    "version": "0.8.6+commit.11564f7e.Emscripten.clang"
  },
  "schemaVersion": "3.4.1",
  "updatedAt": "2021-08-31T13:33:31.194Z",
  "devdoc": {
    "kind": "dev",
    "methods": {
      "getRoleAdmin(bytes32)": {
        "details": "Returns the admin role that controls `role`. See {grantRole} and {revokeRole}. To change a role's admin, use {_setRoleAdmin}."
      },
      "grantRole(bytes32,address)": {
        "details": "Grants `role` to `account`. If `account` had not been already granted `role`, emits a {RoleGranted} event. Requirements: - the caller must have ``role``'s admin role."
      },
      "hasRole(bytes32,address)": {
        "details": "Returns `true` if `account` has been granted `role`."
      },
      "ifAdmin(address)": {
        "details": "check if given address is admin",
        "params": {
          "_address": "input address"
        }
      },
      "ifBuyerRank(address)": {
        "details": "check if given address is buyer rank",
        "params": {
          "_address": "input address"
        }
      },
      "ifDataManager(address)": {
        "details": "check if given address is data manager",
        "params": {
          "_address": "input address"
        }
      },
      "ifDataManagerOrTreejerContract(address)": {
        "details": "check if given address is DataManager or Treejer contract",
        "params": {
          "_address": "input address"
        }
      },
      "ifNotPaused()": {
        "details": "check if functionality is not puased "
      },
      "ifPaused()": {
        "details": "check if functionality is puased "
      },
      "ifPlanter(address)": {
        "details": "check if given address is planter",
        "params": {
          "_address": "input address"
        }
      },
      "ifTreejerContract(address)": {
        "details": "check if given address is Treejer contract",
        "params": {
          "_address": "input address"
        }
      },
      "initialize(address)": {
        "details": "initialize accessRestriction contract and set true for {isAccessRestriction}",
        "params": {
          "_deployer": "address of the deployer that DEFAULT_ADMIN_ROLE set to it"
        }
      },
      "isAdmin(address)": {
        "details": "check if given address has admin role",
        "params": {
          "_address": "input address"
        },
        "returns": {
          "_0": "if given address has admin role"
        }
      },
      "isBuyerRank(address)": {
        "details": "check if given address has buyer rank role",
        "params": {
          "_address": "input address"
        },
        "returns": {
          "_0": "if given address has buyer rank role"
        }
      },
      "isDataManager(address)": {
        "details": "check if given address has data manager role",
        "params": {
          "_address": "input address"
        },
        "returns": {
          "_0": "if given address has data manager role"
        }
      },
      "isPlanter(address)": {
        "details": "check if given address has planter role",
        "params": {
          "_address": "input address"
        },
        "returns": {
          "_0": "if given address has planter role"
        }
      },
      "isTreejerContract(address)": {
        "details": "check if given address has Treejer contract role",
        "params": {
          "_address": "input address"
        },
        "returns": {
          "_0": "if given address has Treejer contract role"
        }
      },
      "pause()": {
        "details": "pause functionality "
      },
      "paused()": {
        "details": "Returns true if the contract is paused, and false otherwise."
      },
      "renounceRole(bytes32,address)": {
        "details": "Revokes `role` from the calling account. Roles are often managed via {grantRole} and {revokeRole}: this function's purpose is to provide a mechanism for accounts to lose their privileges if they are compromised (such as when a trusted device is misplaced). If the calling account had been granted `role`, emits a {RoleRevoked} event. Requirements: - the caller must be `account`."
      },
      "revokeRole(bytes32,address)": {
        "details": "Revokes `role` from `account`. If `account` had been granted `role`, emits a {RoleRevoked} event. Requirements: - the caller must have ``role``'s admin role."
      },
      "supportsInterface(bytes4)": {
        "details": "See {IERC165-supportsInterface}."
      },
      "unpause()": {
        "details": "unpause functionality "
      }
    },
    "title": "AccessRestriction contract ",
    "version": 1
  },
  "userdoc": {
    "kind": "user",
    "methods": {
      "isAccessRestriction()": {
        "notice": "NOTE {isAccessRestriction} set inside the initialize to {true} "
      }
    },
    "version": 1
  }
}