{
  "contractName": "CommunityGifts",
  "abi": [
    {
      "anonymous": false,
      "inputs": [],
      "name": "CommuintyGiftSet",
      "type": "event"
    },
    {
      "anonymous": false,
      "inputs": [
        {
          "indexed": false,
          "internalType": "uint256",
          "name": "planterFund",
          "type": "uint256"
        },
        {
          "indexed": false,
          "internalType": "uint256",
          "name": "referralFund",
          "type": "uint256"
        }
      ],
      "name": "CommunityGiftPlanterFund",
      "type": "event"
    },
    {
      "anonymous": false,
      "inputs": [
        {
          "indexed": false,
          "internalType": "address",
          "name": "giftee",
          "type": "address"
        }
      ],
      "name": "GifteeUpdated",
      "type": "event"
    },
    {
      "anonymous": false,
      "inputs": [
        {
          "indexed": false,
          "internalType": "uint256",
          "name": "treeId",
          "type": "uint256"
        }
      ],
      "name": "TreeClaimed",
      "type": "event"
    },
    {
      "anonymous": false,
      "inputs": [
        {
          "indexed": false,
          "internalType": "uint256",
          "name": "treeId",
          "type": "uint256"
        }
      ],
      "name": "TreeTransfered",
      "type": "event"
    },
    {
      "inputs": [],
      "name": "accessRestriction",
      "outputs": [
        {
          "internalType": "contract IAccessRestriction",
          "name": "",
          "type": "address"
        }
      ],
      "stateMutability": "view",
      "type": "function"
    },
    {
      "inputs": [
        {
          "internalType": "bytes32",
          "name": "c__0x07853504",
          "type": "bytes32"
        }
      ],
      "name": "c_0x07853504",
      "outputs": [],
      "stateMutability": "pure",
      "type": "function"
    },
    {
      "inputs": [
        {
          "internalType": "address",
          "name": "",
          "type": "address"
        }
      ],
      "name": "communityGifts",
      "outputs": [
        {
          "internalType": "uint32",
          "name": "symbol",
          "type": "uint32"
        },
        {
          "internalType": "bool",
          "name": "claimed",
          "type": "bool"
        },
        {
          "internalType": "bool",
          "name": "exist",
          "type": "bool"
        }
      ],
      "stateMutability": "view",
      "type": "function"
    },
    {
      "inputs": [],
      "name": "daiToken",
      "outputs": [
        {
          "internalType": "contract IERC20Upgradeable",
          "name": "",
          "type": "address"
        }
      ],
      "stateMutability": "view",
      "type": "function"
    },
    {
      "inputs": [],
      "name": "expireDate",
      "outputs": [
        {
          "internalType": "uint256",
          "name": "",
          "type": "uint256"
        }
      ],
      "stateMutability": "view",
      "type": "function"
    },
    {
      "inputs": [],
      "name": "giftCount",
      "outputs": [
        {
          "internalType": "uint256",
          "name": "",
          "type": "uint256"
        }
      ],
      "stateMutability": "view",
      "type": "function"
    },
    {
      "inputs": [],
      "name": "isCommunityGifts",
      "outputs": [
        {
          "internalType": "bool",
          "name": "",
          "type": "bool"
        }
      ],
      "stateMutability": "view",
      "type": "function"
    },
    {
      "inputs": [
        {
          "internalType": "address",
          "name": "forwarder",
          "type": "address"
        }
      ],
      "name": "isTrustedForwarder",
      "outputs": [
        {
          "internalType": "bool",
          "name": "",
          "type": "bool"
        }
      ],
      "stateMutability": "view",
      "type": "function"
    },
    {
      "inputs": [],
      "name": "maxGiftCount",
      "outputs": [
        {
          "internalType": "uint256",
          "name": "",
          "type": "uint256"
        }
      ],
      "stateMutability": "view",
      "type": "function"
    },
    {
      "inputs": [],
      "name": "planterFund",
      "outputs": [
        {
          "internalType": "uint256",
          "name": "",
          "type": "uint256"
        }
      ],
      "stateMutability": "view",
      "type": "function"
    },
    {
      "inputs": [],
      "name": "planterFundContract",
      "outputs": [
        {
          "internalType": "contract IPlanterFund",
          "name": "",
          "type": "address"
        }
      ],
      "stateMutability": "view",
      "type": "function"
    },
    {
      "inputs": [],
      "name": "referralFund",
      "outputs": [
        {
          "internalType": "uint256",
          "name": "",
          "type": "uint256"
        }
      ],
      "stateMutability": "view",
      "type": "function"
    },
    {
      "inputs": [],
      "name": "toClaim",
      "outputs": [
        {
          "internalType": "uint256",
          "name": "",
          "type": "uint256"
        }
      ],
      "stateMutability": "view",
      "type": "function"
    },
    {
      "inputs": [],
      "name": "treeAttribute",
      "outputs": [
        {
          "internalType": "contract ITreeAttribute",
          "name": "",
          "type": "address"
        }
      ],
      "stateMutability": "view",
      "type": "function"
    },
    {
      "inputs": [],
      "name": "treeFactory",
      "outputs": [
        {
          "internalType": "contract ITreeFactory",
          "name": "",
          "type": "address"
        }
      ],
      "stateMutability": "view",
      "type": "function"
    },
    {
      "inputs": [],
      "name": "trustedForwarder",
      "outputs": [
        {
          "internalType": "address",
          "name": "",
          "type": "address"
        }
      ],
      "stateMutability": "view",
      "type": "function"
    },
    {
      "inputs": [],
      "name": "upTo",
      "outputs": [
        {
          "internalType": "uint256",
          "name": "",
          "type": "uint256"
        }
      ],
      "stateMutability": "view",
      "type": "function"
    },
    {
      "inputs": [],
      "name": "versionRecipient",
      "outputs": [
        {
          "internalType": "string",
          "name": "",
          "type": "string"
        }
      ],
      "stateMutability": "pure",
      "type": "function"
    },
    {
      "inputs": [
        {
          "internalType": "bytes32",
          "name": "c__0xc722df10",
          "type": "bytes32"
        }
      ],
      "name": "c_0xc722df10",
      "outputs": [],
      "stateMutability": "pure",
      "type": "function"
    },
    {
      "inputs": [
        {
          "internalType": "address",
          "name": "_accessRestrictionAddress",
          "type": "address"
        },
        {
          "internalType": "uint256",
          "name": "_expireDate",
          "type": "uint256"
        },
        {
          "internalType": "uint256",
          "name": "_planterFund",
          "type": "uint256"
        },
        {
          "internalType": "uint256",
          "name": "_referralFund",
          "type": "uint256"
        }
      ],
      "name": "initialize",
      "outputs": [],
      "stateMutability": "nonpayable",
      "type": "function"
    },
    {
      "inputs": [
        {
          "internalType": "address",
          "name": "_address",
          "type": "address"
        }
      ],
      "name": "setTrustedForwarder",
      "outputs": [],
      "stateMutability": "nonpayable",
      "type": "function"
    },
    {
      "inputs": [
        {
          "internalType": "address",
          "name": "_daiTokenAddress",
          "type": "address"
        }
      ],
      "name": "setDaiTokenAddress",
      "outputs": [],
      "stateMutability": "nonpayable",
      "type": "function"
    },
    {
      "inputs": [
        {
          "internalType": "address",
          "name": "_address",
          "type": "address"
        }
      ],
      "name": "setTreeAttributesAddress",
      "outputs": [],
      "stateMutability": "nonpayable",
      "type": "function"
    },
    {
      "inputs": [
        {
          "internalType": "address",
          "name": "_address",
          "type": "address"
        }
      ],
      "name": "setTreeFactoryAddress",
      "outputs": [],
      "stateMutability": "nonpayable",
      "type": "function"
    },
    {
      "inputs": [
        {
          "internalType": "address",
          "name": "_address",
          "type": "address"
        }
      ],
      "name": "setPlanterFundAddress",
      "outputs": [],
      "stateMutability": "nonpayable",
      "type": "function"
    },
    {
      "inputs": [
        {
          "internalType": "uint256",
          "name": "_startTreeId",
          "type": "uint256"
        },
        {
          "internalType": "uint256",
          "name": "_endTreeId",
          "type": "uint256"
        },
        {
          "internalType": "uint256",
          "name": "_planterFund",
          "type": "uint256"
        },
        {
          "internalType": "uint256",
          "name": "_referralFund",
          "type": "uint256"
        },
        {
          "internalType": "uint64",
          "name": "_expireDate",
          "type": "uint64"
        },
        {
          "internalType": "address",
          "name": "_adminWalletAddress",
          "type": "address"
        }
      ],
      "name": "setGiftsRange",
      "outputs": [],
      "stateMutability": "nonpayable",
      "type": "function"
    },
    {
      "inputs": [
        {
          "internalType": "address",
          "name": "_giftee",
          "type": "address"
        },
        {
          "internalType": "uint32",
          "name": "_symbol",
          "type": "uint32"
        }
      ],
      "name": "updateGiftees",
      "outputs": [],
      "stateMutability": "nonpayable",
      "type": "function"
    },
    {
      "inputs": [],
      "name": "claimTree",
      "outputs": [],
      "stateMutability": "nonpayable",
      "type": "function"
    },
    {
      "inputs": [
        {
          "internalType": "uint256",
          "name": "_expireDate",
          "type": "uint256"
        }
      ],
      "name": "setExpireDate",
      "outputs": [],
      "stateMutability": "nonpayable",
      "type": "function"
    },
    {
      "inputs": [
        {
          "internalType": "address",
          "name": "_giftee",
          "type": "address"
        },
        {
          "internalType": "uint32",
          "name": "_symbol",
          "type": "uint32"
        }
      ],
      "name": "transferTree",
      "outputs": [],
      "stateMutability": "nonpayable",
      "type": "function"
    },
    {
      "inputs": [
        {
          "internalType": "uint256",
          "name": "_planterFund",
          "type": "uint256"
        },
        {
          "internalType": "uint256",
          "name": "_referralFund",
          "type": "uint256"
        }
      ],
      "name": "setPrice",
      "outputs": [],
      "stateMutability": "nonpayable",
      "type": "function"
    }
  ],
  "bytecode": "0x608060405234801561001057600080fd5b5061580780620000216000396000f3fe608060405234801561001057600080fd5b50600436106101e55760003560e01c80637d95d6b41161010f578063c788c255116100a2578063efeb674611610071578063efeb674614610512578063f10eff161461052e578063f1326b151461054c578063f7d9757714610568576101e5565b8063c788c2551461049c578063d6762c4a146104ba578063da742228146104d8578063ed700374146104f4576101e5565b80639bcc7f8e116100de5780639bcc7f8e14610410578063b6b380691461042e578063b8a67c3c14610460578063be22f5461461047e576101e5565b80637d95d6b41461039c5780637da0a877146103b857806380d663ea146103d65780638576e4be146103f4576101e5565b80633e1ce339116101875780634ad07f9e116101565780634ad07f9e146103165780634ec81af114610332578063572b6c051461034e5780636d0ed29a1461037e576101e5565b80633e1ce339146102a0578063421ef6d4146102be5780634296c961146102dc578063486ff0cd146102f8576101e5565b8063207b1c07116101c3578063207b1c071461022c5780632f6fb8a914610248578063357ae81d146102665780633891577f14610282576101e5565b80630bf351f8146101ea5780630dcf407d146102065780630e1fbe9114610210575b600080fd5b61020460048036038101906101ff9190614926565b610584565b005b61020e610923565b005b61022a60048036038101906102259190614a27565b611225565b005b610246600480360381019061024191906149ba565b611228565b005b610250611ac9565b60405161025d9190615090565b60405180910390f35b610280600480360381019061027b9190614926565b611acf565b005b61028a611e6e565b6040516102979190615090565b60405180910390f35b6102a8611e74565b6040516102b59190614eb8565b60405180910390f35b6102c6611e9a565b6040516102d39190614ed3565b60405180910390f35b6102f660048036038101906102f19190614ac1565b611ec0565b005b610300612836565b60405161030d9190614eee565b60405180910390f35b610330600480360381019061032b9190614926565b6128f7565b005b61034c60048036038101906103479190614953565b612c96565b005b61036860048036038101906103639190614926565b61315d565b6040516103759190614e4c565b60405180910390f35b6103866131b6565b6040516103939190615090565b60405180910390f35b6103b660048036038101906103b19190614a54565b6131bc565b005b6103c0613480565b6040516103cd9190614ddf565b60405180910390f35b6103de6134a6565b6040516103eb9190614e9d565b60405180910390f35b61040e60048036038101906104099190614a27565b6134cc565b005b6104186134cf565b6040516104259190615090565b60405180910390f35b61044860048036038101906104439190614926565b6134d5565b604051610457939291906151f4565b60405180910390f35b610468613529565b6040516104759190615090565b60405180910390f35b61048661352f565b6040516104939190614e82565b60405180910390f35b6104a4613555565b6040516104b19190615090565b60405180910390f35b6104c261355b565b6040516104cf9190614e67565b60405180910390f35b6104f260048036038101906104ed9190614926565b613581565b005b6104fc613905565b6040516105099190615090565b60405180910390f35b61052c600480360381019061052791906149ba565b61390b565b005b6105366141b6565b6040516105439190614e4c565b60405180910390f35b61056660048036038101906105619190614926565b6141c9565b005b610582600480360381019061057d9190614a81565b6145ab565b005b6105b07fbab0609464fe14b484602a7401e8503ca3cd9e483e869f5eafa100695f9f2a0f60001b611225565b6105dc7f82f4246d915a89adcbd7c2a68bc30cf7447b7c45b9acc87d380b9059ec31d9c660001b611225565b6106087fbca00994f81c597de38f325ce8580481854e9df66834f59ef673fad9b5b59f7f60001b611225565b600360009054906101000a900473ffffffffffffffffffffffffffffffffffffffff1673ffffffffffffffffffffffffffffffffffffffff16638413ec1461064e61486c565b6040518263ffffffff1660e01b815260040161066a9190614dfa565b60006040518083038186803b15801561068257600080fd5b505afa158015610696573d6000803e3d6000fd5b505050506106c67f93add002d9ae4bf84c3340a6a82d4916c358010378dd3383d4dbf81e863a1d2260001b611225565b6106f27fb46ccbb03f31d12465a89ca6b5d0a92c45f2e30af147b4392ff072b09fb5856b60001b611225565b61071e7fbd86a3aaafb94bbde01302b112ff8e260873cd1b5e5b1ded2a6ced34e3a9a18d60001b611225565b61074a7fec0aea92ceb7f292259588aff9b26b798687369de9df59b16c960a411618235060001b611225565b600081905061077b7fe94e298ce810314f27aa83359c2d434742ab74095d659bb8fdf067a0a4ec052e60001b611225565b6107a77f28ab05fb8c53abbdac77fca005f19e7ead50a2b14701e9e37342b92d13c0fae560001b611225565b6107d37f8ceae8f7197e9f5241e227b4285c1db7ace246573268983dac1bbe602aef4ee260001b611225565b8073ffffffffffffffffffffffffffffffffffffffff1663e0eb4eb96040518163ffffffff1660e01b815260040160206040518083038186803b15801561081957600080fd5b505afa15801561082d573d6000803e3d6000fd5b505050506040513d601f19601f8201168201806040525081019061085191906149fa565b61085a57600080fd5b6108867f441a5784d73dfbe4180a6f102d9ae173a91d612203d2b97b6032e1b81afd420060001b611225565b6108b27f5d2c57a95ff3ddc87576fcd7bea262fcf8ddd6ce84b72c539f47216f13d17ad160001b611225565b6108de7feea7429a2a339c3b6638ac5dcf5b6c6bd0785d535bc28452db575479f6ca43d860001b611225565b80600460006101000a81548173ffffffffffffffffffffffffffffffffffffffff021916908373ffffffffffffffffffffffffffffffffffffffff1602179055505050565b61094f7f5a0a99b8551a32b5b5199497fcda10105cc6d88e6f19c21d9348ce9d7b6bbeb460001b611225565b61097b7f5d4154197e818daa84d2f33c17b2e4e9a2dc9a08572c1ef94b9d3bb8f66d374360001b611225565b6109a77fb2bb9d88816582ac91ffe487dc462619362ef2588a499776e48c013b5078e66360001b611225565b6000600860006109b561486c565b73ffffffffffffffffffffffffffffffffffffffff1673ffffffffffffffffffffffffffffffffffffffff1681526020019081526020016000209050610a1d7f3a64989d9625aff2f085a3102cc5e9df709a475d52bb77115a8970150d330a7660001b611225565b610a497fcb5fc4753a645896689b779350038162383994c5f9343a72d6ba8f6e7d63552760001b611225565b610a757fb713f80cb69115fa16005c5a8b4847188353f445217bdb35c86b151fca832bec60001b611225565b600954421115610aba576040517f08c379a0000000000000000000000000000000000000000000000000000000008152600401610ab190614ff0565b60405180910390fd5b610ae67f8b9e3ccc544df704b595838dbcf8022d3818517e1a7aef2ac9fb3a9f459db4fa60001b611225565b610b127f01aa74311cf770ce4c5d36434da3dbdeacc4c4ad3e9ac8e80401e168aecc315f60001b611225565b610b3e7fe66fd7544d6e3dbbb8e36d09691317ee67756477a9abf64bd91dc626d72fe1d160001b611225565b610b6a7f0b29ccc0d8354a116a031c866afd846d2f8366171e269297e5342aadc745c61e60001b611225565b60086000610b7661486c565b73ffffffffffffffffffffffffffffffffffffffff1673ffffffffffffffffffffffffffffffffffffffff16815260200190815260200160002060000160059054906101000a900460ff16610c00576040517f08c379a0000000000000000000000000000000000000000000000000000000008152600401610bf790614fd0565b60405180910390fd5b610c2c7f72e847ba80b2e7592a7ff5fc808eb79c3e5f4afc9303e6af2884d5c0c023bade60001b611225565b610c587f2105c1186001358e09012fd7cf99f5ba425a3f6663f75a93cd4d8fa0e3c1576860001b611225565b610c847fcea48eb5ab70bfdccb0b5f5486c1fc9c0e90ba8454e37154635c42a34de8dca760001b611225565b610cb07f3a12e572d24345bc92c994698cc30ff3b3a5032caff678fb8b91a18e8ddabce960001b611225565b60086000610cbc61486c565b73ffffffffffffffffffffffffffffffffffffffff1673ffffffffffffffffffffffffffffffffffffffff16815260200190815260200160002060000160049054906101000a900460ff1615610d47576040517f08c379a0000000000000000000000000000000000000000000000000000000008152600401610d3e90615030565b60405180910390fd5b610d737ff717d2570007fb1a2d67fc20a79aaee3d23614850ec4bd5dfe7a9437da3ea0ae60001b611225565b610d9f7fb7db88e8bfb29f3c705acfa8b5af15c489b4ca3fc7568ba53c7e385e5ba0831760001b611225565b610dcb7f3e50347dbd873f7517c3d989ec6b2b0d8e980a392aba6063fc57340ff756e59e60001b611225565b6000600c549050610dfe7f928dbfc9582b01e6002f60e82b1762adc1c11f3a169fa51e01f2e7e647fc412760001b611225565b610e2a7f33c4de82cb44252be5657c20cd6303747e741b9a171f31242bf714920029d0c660001b611225565b6001600c6000828254610e3d9190615247565b92505081905550610e707fee50b871774f3831a9ff13d3b4285c0d00b9819c3a8d91febcfd7b05a249fd2860001b611225565b610e9c7f0d7bfb773df7078f2a912a9145c9e512823d91ae421da0c89e674a12b65f58a160001b611225565b60018260000160046101000a81548160ff021916908315150217905550610ee57f73d014324bdaa4b055bfcbbdc11182f22948d6b7e0f5ff37120073be367f4a4760001b611225565b610f117fdc49b4916395aba66eef292afa69ee651b3f9cf050bcb84a7a7cf6a90addd5f560001b611225565b600660009054906101000a900473ffffffffffffffffffffffffffffffffffffffff1673ffffffffffffffffffffffffffffffffffffffff16632a4ddf6d828460000160009054906101000a900463ffffffff166040518363ffffffff1660e01b8152600401610f829291906151b0565b600060405180830381600087803b158015610f9c57600080fd5b505af1158015610fb0573d6000803e3d6000fd5b50505050610fe07f15342ff2b3748861f72f328152525b780cce042d2ecb55845bc98cdd6a2b6ee660001b611225565b61100c7fcec50dcd6211b523c66d3e2fb947db185eed55f6385b2cb5034cbdaa264029b760001b611225565b600560009054906101000a900473ffffffffffffffffffffffffffffffffffffffff1673ffffffffffffffffffffffffffffffffffffffff16633ad7c33b826001546002546040518463ffffffff1660e01b815260040161106f93929190615179565b600060405180830381600087803b15801561108957600080fd5b505af115801561109d573d6000803e3d6000fd5b505050506110cd7f950278851506ad5957ddc65b4f8fc3818fd6834d18212ed517f1c923eb57582d60001b611225565b6110f97ffe47d0369e0b73d072d510f58efcd18a8e708681f445c12ffb2680454e20c3c360001b611225565b600460009054906101000a900473ffffffffffffffffffffffffffffffffffffffff1673ffffffffffffffffffffffffffffffffffffffff1663b225afcb8261114061486c565b60036040518463ffffffff1660e01b8152600401611160939291906150ab565b600060405180830381600087803b15801561117a57600080fd5b505af115801561118e573d6000803e3d6000fd5b505050506111be7f1041adb7bc34ec417a826af9b163e4197023df3e461bca00dd8f42ff483801ab60001b611225565b6111ea7f7cdc1a97e6421df5ebceb037b57bd8d4feeceb128311793114edfe9106ae9cc760001b611225565b7f9207234e8877dd545506380a905b8f6bf7239e5ee9cdb570e084ae29e2fd70db816040516112199190615090565b60405180910390a15050565b50565b6112547fb0244bd1f6f21296804392d873422dd2f6c23ef8057348efcaf354cb3a3398e160001b611225565b6112807f66af75ec17a1edf1b9d0520a77b13ec6d9c580a74c8071d197c07872e2a7076c60001b611225565b6112ac7f24402b3859ec870cf454498886fd9320fd068b78fd1fb9ff1a988ea83277c34b60001b611225565b600360009054906101000a900473ffffffffffffffffffffffffffffffffffffffff1673ffffffffffffffffffffffffffffffffffffffff1663c4d2a31b6112f261486c565b6040518263ffffffff1660e01b815260040161130e9190614dfa565b60006040518083038186803b15801561132657600080fd5b505afa15801561133a573d6000803e3d6000fd5b5050505061136a7f967677bc542d5f3bcf7189ad698903307b7060e74358d9b1189beff35552424c60001b611225565b6113967f253e7132d960502923a9aec3a86ffe9661f2046111647b29785cd4d3cbd2234060001b611225565b6113c27febc91b7b8201f9f861b16cd6e9019b21807e1ec842d5433aa9cd947e46a9f2a260001b611225565b6113ee7fc80c9b78c615e37a2f9a69a95737a0cf7effb2455826e5719dfb1f5f138035ad60001b611225565b6000600860008473ffffffffffffffffffffffffffffffffffffffff1673ffffffffffffffffffffffffffffffffffffffff168152602001908152602001600020905061145d7f99176f4d7ee64f6aed09fbcae3d62ee7da1e59f0556c04f9586fb6c2d87616a460001b611225565b6114897fef5f2e917faf5c46903542d7668707c7f228beb94b807ddda95fecb52106cce860001b611225565b6114b57f984b1308318421a5e1c260156653725382dc2eb463a9dd816a30c85ba0d837c560001b611225565b8060000160049054906101000a900460ff1615611507576040517f08c379a00000000000000000000000000000000000000000000000000000000081526004016114fe90615030565b60405180910390fd5b6115337fa27873d2797353f07fe5054a87def95d45faf989827605f5de5265c92a9a8c2260001b611225565b61155f7f73fef7676712e8eec731486d426a5111f930e73ef9db35b8a601cf47ed80f20b60001b611225565b61158b7f1e0b312af5998c53edc2443c734d42be8450b25f4452b0f20be8245ccda37f6360001b611225565b8060000160059054906101000a900460ff166117af576115cd7f7fddf147913b018f25fc0020da6e59c17a72c0ad05263579e70c86ecd861d39c60001b611225565b6115f97ffb9409f9a1fd215712b1412c47480f266101fde0ddbc5d04707246981878e5e760001b611225565b6116257f262365ee036087a3361446861de9c85dfbcfa2b13181f8a47cb8d3a63be9208160001b611225565b6116517f3250a82e3f834a105b5a55f48408cf7d057ef14b7bbee20f99e99144e8fcb5a860001b611225565b600b54600a5410611697576040517f08c379a000000000000000000000000000000000000000000000000000000000815260040161168e90614f30565b60405180910390fd5b6116c37f74a12c7b83cc5736b310726ca98ac398917d7aa44ddef0f354f3ced6a005a31760001b611225565b6116ef7fd08b99393119b1bbff440a8aaabb122b065c7f76cea8243c5cb8c3fb4769b1cb60001b611225565b61171b7f17e15da83b982eb62c6de6e1cc5e2a9f65d3e9c48c3eac8c9ad6d8b3642ee30260001b611225565b6001600a600082825461172e9190615247565b925050819055506117617fed80c5c8a4f9a11f5fa2093304fb683c2e141a246d4cc6f9d2a92430f517f12360001b611225565b61178d7fc83b4e2a26a4179e3f2841f5c64f9b4fa4ff3eb9ac406ba5f230eaa7e2c21d0d60001b611225565b60018160000160056101000a81548160ff0219169083151502179055506118d5565b6117db7f80ee0c8232f5dc08158c3c7fdc1933f0c8cb042fee0b63e3bac5c8fe47ba163b60001b611225565b6118077f325816fd7d548357e21e6f9017a5f2ad30edaffae15401a1436fca38a78ade7460001b611225565b6118337fac4253e5b64d797c4db9967abd44a010c190fcd750c9f1d0481486c86ae85e8760001b611225565b600660009054906101000a900473ffffffffffffffffffffffffffffffffffffffff1673ffffffffffffffffffffffffffffffffffffffff1663297692538260000160009054906101000a900463ffffffff166040518263ffffffff1660e01b81526004016118a291906151d9565b600060405180830381600087803b1580156118bc57600080fd5b505af11580156118d0573d6000803e3d6000fd5b505050505b6119017f3aac5e7bf4b339ce12222f525663445dbaa847fa9215f06be51dff9ecf90a8f260001b611225565b61192d7fe74798ab03c0134b41c6ec937486c2b075f850c5657edf565e2b264ce1a8989660001b611225565b600660009054906101000a900473ffffffffffffffffffffffffffffffffffffffff1673ffffffffffffffffffffffffffffffffffffffff166389e2af18836040518263ffffffff1660e01b815260040161198891906151d9565b600060405180830381600087803b1580156119a257600080fd5b505af11580156119b6573d6000803e3d6000fd5b505050506119e67fc07d3c8d7bba6cf4894c6811fa4c00245cb2be83cf27e087bca9c44153cf6cc360001b611225565b611a127f4463cde9d2d05f2daa8228b6e99ba9199965faf216fdbef4a14651f0f93f13da60001b611225565b818160000160006101000a81548163ffffffff021916908363ffffffff160217905550611a617fbf9b2e67cb3550b14d23af25d31ab5bf1e2846b652267c6dd7fade6c7b53e3ae60001b611225565b611a8d7fa6f54ebc370a46b854bd2613a3284e364fe758e0ad27b8b6ff827b76bec5fc6060001b611225565b7f43d1f4adac0a624fbbcfcb8661ceb6217a1aab74829533a11199165e2d7cb2f783604051611abc9190614ddf565b60405180910390a1505050565b600b5481565b611afb7fbab0609464fe14b484602a7401e8503ca3cd9e483e869f5eafa100695f9f2a0f60001b611225565b611b277f82f4246d915a89adcbd7c2a68bc30cf7447b7c45b9acc87d380b9059ec31d9c660001b611225565b611b537fbca00994f81c597de38f325ce8580481854e9df66834f59ef673fad9b5b59f7f60001b611225565b600360009054906101000a900473ffffffffffffffffffffffffffffffffffffffff1673ffffffffffffffffffffffffffffffffffffffff16638413ec14611b9961486c565b6040518263ffffffff1660e01b8152600401611bb59190614dfa565b60006040518083038186803b158015611bcd57600080fd5b505afa158015611be1573d6000803e3d6000fd5b50505050611c117f93add002d9ae4bf84c3340a6a82d4916c358010378dd3383d4dbf81e863a1d2260001b611225565b611c3d7fbc09d9f7ffbe1bebc9405e8da8dbb579a0a1f20dc3bd0a49de910e5cfa14a16b60001b611225565b611c697f8d4584a37ddd17af9260775c14b1236184c60dbd8c736998b0ffd75ed6df564f60001b611225565b611c957fee82027e23d6521cfe09e6c325a118ba9d2b11410b0a3a165f1a172f0f2769ad60001b611225565b6000819050611cc67fdc9e742b52e69e477ba1544d872c812c45a995a7bc5d00ea26e8fd1735a520d060001b611225565b611cf27f5a726c5ffecede44c60d65b683af13959afb4e95320b08794e552ffa90c8b6ca60001b611225565b611d1e7feee84a1adae5654102a4fe0b89ed43e020098251882dc612a793acb73ed8f86860001b611225565b8073ffffffffffffffffffffffffffffffffffffffff166346efcdc16040518163ffffffff1660e01b815260040160206040518083038186803b158015611d6457600080fd5b505afa158015611d78573d6000803e3d6000fd5b505050506040513d601f19601f82011682018060405250810190611d9c91906149fa565b611da557600080fd5b611dd17fd221e4dd11b2f507faac91a2a069d1525b367374adc58516baedf3c30a81ddc360001b611225565b611dfd7f14d46883cc1918531ef0a0a81d94e572a822f07aa24dad371a8de61ff2ae0a9d60001b611225565b611e297f051f319377a3c40b107e7078736c2ece133453d210007a3be1fb20f212eec23960001b611225565b80600660006101000a81548173ffffffffffffffffffffffffffffffffffffffff021916908373ffffffffffffffffffffffffffffffffffffffff1602179055505050565b60015481565b600660009054906101000a900473ffffffffffffffffffffffffffffffffffffffff1681565b600460009054906101000a900473ffffffffffffffffffffffffffffffffffffffff1681565b611eec7fb0244bd1f6f21296804392d873422dd2f6c23ef8057348efcaf354cb3a3398e160001b611225565b611f187f66af75ec17a1edf1b9d0520a77b13ec6d9c580a74c8071d197c07872e2a7076c60001b611225565b611f447f24402b3859ec870cf454498886fd9320fd068b78fd1fb9ff1a988ea83277c34b60001b611225565b600360009054906101000a900473ffffffffffffffffffffffffffffffffffffffff1673ffffffffffffffffffffffffffffffffffffffff1663c4d2a31b611f8a61486c565b6040518263ffffffff1660e01b8152600401611fa69190614dfa565b60006040518083038186803b158015611fbe57600080fd5b505afa158015611fd2573d6000803e3d6000fd5b505050506120027f967677bc542d5f3bcf7189ad698903307b7060e74358d9b1189beff35552424c60001b611225565b61202e7fec639007c11ce0c60466767e6071073aeb3314a8b2d1611d40232379ba382be060001b611225565b61205a7fe7f9363c545cb44fd0df371f1c69731db4b0db7f9410a38cf7dbea3b6409ba8460001b611225565b6120867f94c4f06e2912c577110d0b2fb435fd282391585138420bae311539410b4938e360001b611225565b6120b27f0bd317efd5b58abaaa5f587cd41ff23ea303d885a39b99843d88589c58a92ab760001b611225565b8585116120f4576040517f08c379a00000000000000000000000000000000000000000000000000000000081526004016120eb90615070565b60405180910390fd5b6121207f29491f70555f1ab4e9142d6cd0faa4fd5cebaddc610e37e8b9dc425910fdd90a60001b611225565b61214c7fcc8274cf549b36e7055b5fe07897e30843d2c3f7813cad495696a8fce8a732ce60001b611225565b6121787fec6fd96b1629355c6924637ba30e762694cba64c78f8e5c048a4b769b159c4e660001b611225565b6000600460009054906101000a900473ffffffffffffffffffffffffffffffffffffffff1673ffffffffffffffffffffffffffffffffffffffff1663bc3af822888860056040518463ffffffff1660e01b81526004016121da93929190615142565b602060405180830381600087803b1580156121f457600080fd5b505af1158015612208573d6000803e3d6000fd5b505050506040513d601f19601f8201168201806040525081019061222c91906149fa565b905061225a7f95c331e535b6bdc4f9ee0670dcbe861c7ab627e5b1dd156e5d678050c6625f7960001b611225565b6122867fd474b7a6011601fba8274492ed04362280a5111047c99a189a82bf35954990d160001b611225565b6122b27f5cc3a098ee32b595c4d35141813d77531a470b4e032b4db4c67012849c8a0cf960001b611225565b806122f2576040517f08c379a00000000000000000000000000000000000000000000000000000000081526004016122e990614f70565b60405180910390fd5b61231e7f6150ec058061aabfebc52811ccd657fe7b303ca0a09953bad521ae7eaaf045fe60001b611225565b61234a7f7c74af6a8b0bc7daf06f4534150c2831326caf12076e2bc077f380d23e86f11060001b611225565b6123767fcd4a3c54fdaf3222606612e2bb4380bcabf78c460ce1667e506abac8112b075360001b611225565b846001819055506123a97f49cdd005cec0fd9f025679d57efedd94a342c0347d3ccd5d238049567e1574d460001b611225565b6123d57f238a232f45c2fac2db4db591f4384daee221c30bebe183b35e069c2cb85055ac60001b611225565b836002819055506124087f3f7b146c61c228ca83e3545f7e761f64184b9d4d0c9d92679fc64cf6fd72c67e60001b611225565b6124347fba60f02724d161d2a87cad3ebe0926750a87f9db90e2ec12517c904adc916d7e60001b611225565b8267ffffffffffffffff166009819055506124717fb43fc504cab3fe90e52f16dcf0a74992c304cdf845ab2b0dc3ed6e25f5d0f13f60001b611225565b61249d7fc5d0fac5cdadcae0894d2d64e080ce68b7dc1332ae1f088d4aa0a06e687f07ce60001b611225565b86866124a991906152f7565b600b819055506124db7fd2cb2e3e5423476e1305be016e2789407a98fb5847ea0e01714794455c88ca4260001b611225565b6125077f386898671961894091d375ef7ff015a2f6bf5587228333924947786fc919716160001b611225565b86600c8190555061253a7fa18d0c844e72db54326e34434fb0f4aaec91548e295782beaba746cb5b0017cf60001b611225565b6125667f43efbff99b08857bae22c400789c2632c46102fb6a26fe6c4e2477f2035ee13c60001b611225565b85600d819055506125997f6aebcf053cdc1108e35c6a35e1ee93f0a62ccac96c6a6b54d120e07f02fbc1a360001b611225565b6125c57f51b84feb096a9669e3833a6865317d4db03b59adcaa563e9e90dbe1b245075af60001b611225565b6000600760009054906101000a900473ffffffffffffffffffffffffffffffffffffffff1673ffffffffffffffffffffffffffffffffffffffff166323b872dd84600560009054906101000a900473ffffffffffffffffffffffffffffffffffffffff166002546001546126399190615247565b600b54612646919061529d565b6040518463ffffffff1660e01b815260040161266493929190614e15565b602060405180830381600087803b15801561267e57600080fd5b505af1158015612692573d6000803e3d6000fd5b505050506040513d601f19601f820116820180604052508101906126b691906149fa565b90506126e47fb4eca6162043097e11ac1655fa737bf74223ea8aa4d23939e968c5265693e2fc60001b611225565b6127107fe11e37d49fbbe072a1be5ed02101773f1e67290fbf7d4063fcd6bc6401de161760001b611225565b61273c7f92b2483f9e18b1450c1c9b9bacede089a72c417d04b1c4c7333efeceae5f65b760001b611225565b8061277c576040517f08c379a000000000000000000000000000000000000000000000000000000000815260040161277390614f50565b60405180910390fd5b6127a87f736c23e9b0a4f199d88815194e25021fd5f76b9c1342ade093c62ca4432010d860001b611225565b6127d47f3e3b4c64bdda7f76aecfec887e4f968efa6ecae371adde5219631ff42185b69e60001b611225565b6128007f77f125262423499375fbd8d6841364baa7e6ccbc5b2c971245312a7d9f24946060001b611225565b7f81417e8b10b6a3974e74197ed963066ed68b403ba25d5cf414d4a5f3463133fd60405160405180910390a15050505050505050565b60606128647f11dd98d6809ebd8463693ae2b3f048590b2cbe0b5871346e00a0b4c3c541174a60001b6134cc565b6128907f8ba796393678d90e1644972b2432ed6c109dbd204df8ff14546d9632bbedffc560001b6134cc565b6128bc7f5759cbc9a7bcad7b45c102beff6e42b49f3a61f90ec5bc06dbe3a1747ad6d10d60001b6134cc565b6040518060400160405280601d81526020017f322e322e302b747265656a65722e6972656c6179726563697069656e74000000815250905090565b6129237fbab0609464fe14b484602a7401e8503ca3cd9e483e869f5eafa100695f9f2a0f60001b611225565b61294f7f82f4246d915a89adcbd7c2a68bc30cf7447b7c45b9acc87d380b9059ec31d9c660001b611225565b61297b7fbca00994f81c597de38f325ce8580481854e9df66834f59ef673fad9b5b59f7f60001b611225565b600360009054906101000a900473ffffffffffffffffffffffffffffffffffffffff1673ffffffffffffffffffffffffffffffffffffffff16638413ec146129c161486c565b6040518263ffffffff1660e01b81526004016129dd9190614dfa565b60006040518083038186803b1580156129f557600080fd5b505afa158015612a09573d6000803e3d6000fd5b50505050612a397f93add002d9ae4bf84c3340a6a82d4916c358010378dd3383d4dbf81e863a1d2260001b611225565b612a657fd824d13a1e7d128d0e18131f3e73e341addd2f292b41e6ff9792a40733833a2360001b611225565b612a917fd001be045a37a02d11e9557e9769d74a21d3a08bc62dd3fef987e2f7cbf7195760001b611225565b612abd7fa25723d03d7e7ea3fb3aef18fba904fa0e19c163b68d6895fd9c6524143d839160001b611225565b6000819050612aee7f0f8ab00cd003bba060c6f58206ebcb235e194a6a6b8ea478e4461b9be27143bd60001b611225565b612b1a7f15a37de9e18a806e5032921393716b66cbe8b4749e60bb26dcc170dc10f3e6ac60001b611225565b612b467f3f2c43d1f4b714293f987b31be5b3504780ad2410db4ce17b9a508f906da0dae60001b611225565b8073ffffffffffffffffffffffffffffffffffffffff1663349904da6040518163ffffffff1660e01b815260040160206040518083038186803b158015612b8c57600080fd5b505afa158015612ba0573d6000803e3d6000fd5b505050506040513d601f19601f82011682018060405250810190612bc491906149fa565b612bcd57600080fd5b612bf97f663c4661f928280c976bf7879f412ce9cff073e83aa4514c2d350df6c54cea5660001b611225565b612c257f4b0dcba22f2d86bde7c78a555862c9fd46b91ded3a2daa9ef378a1fdfa2f4f5760001b611225565b612c517ffbbd267f57320151a4ef1c286a501c0c740d06e7ef311aa8a3644543476bab6b60001b611225565b80600560006101000a81548173ffffffffffffffffffffffffffffffffffffffff021916908373ffffffffffffffffffffffffffffffffffffffff1602179055505050565b600060019054906101000a900460ff1680612cbc575060008054906101000a900460ff16155b612cfb576040517f08c379a0000000000000000000000000000000000000000000000000000000008152600401612cf290614fb0565b60405180910390fd5b60008060019054906101000a900460ff161590508015612d4b576001600060016101000a81548160ff02191690831515021790555060016000806101000a81548160ff0219169083151502179055505b612d777f065fa28efa95f173a20a6f1bc18ceeac0613cf701201de77ed67976583e5796560001b611225565b612da37f2b51b8cbe4b53147861903dd4b271dcf03f3267a1bcf2c162308597c3a6a2c4560001b611225565b612dcf7f0b5e09bdc9e877826a19d1b92331a1198fa08de3f0c5e11a8ddc397d98e0eb0460001b611225565b6000859050612e007f36e0e2ffe87d0df6738b26fb75d07d393e12a8c98b072ec6e10447984a6199c760001b611225565b612e2c7fb08b4ff12157ae02e591fb5d3d978f1d8d4ecb75986b334e3c91ae90b7ac881660001b611225565b612e587f693599d5fd2bcb83346b35abf9610dfbd0bf3e342a6a7806186f065854da698d60001b611225565b8073ffffffffffffffffffffffffffffffffffffffff1663ba84fd696040518163ffffffff1660e01b815260040160206040518083038186803b158015612e9e57600080fd5b505afa158015612eb2573d6000803e3d6000fd5b505050506040513d601f19601f82011682018060405250810190612ed691906149fa565b612edf57600080fd5b612f0b7f2fa52bb3be972c66abdaf9ab45d309ca0c500181d354c3605245550508a246d060001b611225565b612f377fd9c1bd986edbeabbff42eaee22066a0e8359e3c94f8da6e0d2819b5cc2bb3d6b60001b611225565b612f637f8bc193964dc448aa156008c203381fba2f5168f61072a26c069c461c5ccb4ea060001b611225565b6001600060166101000a81548160ff021916908315150217905550612faa7f5f318b225017a5ecc626284a8de80fa9b8bf4aef477ec3af4265cbbbafc868ac60001b611225565b612fd67f2158ba8d7e1e45afe912cf062a61c09ba0bc5a8a660eb654fcc6f549ff17580760001b611225565b80600360006101000a81548173ffffffffffffffffffffffffffffffffffffffff021916908373ffffffffffffffffffffffffffffffffffffffff1602179055506130437f0addd276f447982b5cf9a5c64a976cfda14981371b6502e7844c0e3c53fc07cf60001b611225565b61306f7fc4288f350b81268d01116a8e24be883af9787cba14d641b33e3483861df0d7d760001b611225565b846009819055506130a27fc6ce2a5298da9a8b242a9997a495b12437cd16640497953f3af9220f920c0e4560001b611225565b6130ce7f7b2d4b41ec468c2f7b6ccde076a135a313767e70f935524ee4185d941f125fa560001b611225565b836001819055506131017fe4c1e812521f12f8ea84894ca532e614d5b2e559b8aab568af3e48c98959cb8760001b611225565b61312d7ff1dbf00a2ef9e4dc1c1c087cfd04147d0e161acf783512f55b53382d90683cb760001b611225565b826002819055505080156131565760008060016101000a81548160ff0219169083151502179055505b5050505050565b60008060029054906101000a900473ffffffffffffffffffffffffffffffffffffffff1673ffffffffffffffffffffffffffffffffffffffff168273ffffffffffffffffffffffffffffffffffffffff16149050919050565b60025481565b6131e87fb0244bd1f6f21296804392d873422dd2f6c23ef8057348efcaf354cb3a3398e160001b611225565b6132147f66af75ec17a1edf1b9d0520a77b13ec6d9c580a74c8071d197c07872e2a7076c60001b611225565b6132407f24402b3859ec870cf454498886fd9320fd068b78fd1fb9ff1a988ea83277c34b60001b611225565b600360009054906101000a900473ffffffffffffffffffffffffffffffffffffffff1673ffffffffffffffffffffffffffffffffffffffff1663c4d2a31b61328661486c565b6040518263ffffffff1660e01b81526004016132a29190614dfa565b60006040518083038186803b1580156132ba57600080fd5b505afa1580156132ce573d6000803e3d6000fd5b505050506132fe7f967677bc542d5f3bcf7189ad698903307b7060e74358d9b1189beff35552424c60001b611225565b61332a7f6ce7b56124256ad88d0f71a9407166b984e66e461e3f1ba95c973409302313f060001b611225565b6133567f3f6a1453779b0102ab5e2ca497c694b521afc7a599f5336a22257b6873878a3960001b611225565b6133827f1e355f6ea2f6bbf30cb6a5258ca19f690618caf9a89b2d17f07810cbfbba04b860001b611225565b6133ae7f441e70f40c7aab8fc7c0634fbf47f5825abc46d3672b1b428c6f24562f7c52d760001b611225565b60095442106133f2576040517f08c379a00000000000000000000000000000000000000000000000000000000081526004016133e990614f10565b60405180910390fd5b61341e7f941720dbfbde957b3ad1b8bee6d10fc3696d3f497d36e3964f174a8e445a024f60001b611225565b61344a7f97f7c2c8d6a3be40bd66c84c76dc6ee162f5de447b69df9521491d3334af506c60001b611225565b6134767fff79eb3e9c2ee01ad17e908dfb30844e927fc0441ee75c1efc4743875687970860001b611225565b8060098190555050565b600060029054906101000a900473ffffffffffffffffffffffffffffffffffffffff1681565b600560009054906101000a900473ffffffffffffffffffffffffffffffffffffffff1681565b50565b600d5481565b60086020528060005260406000206000915090508060000160009054906101000a900463ffffffff16908060000160049054906101000a900460ff16908060000160059054906101000a900460ff16905083565b60095481565b600760009054906101000a900473ffffffffffffffffffffffffffffffffffffffff1681565b600c5481565b600360009054906101000a900473ffffffffffffffffffffffffffffffffffffffff1681565b6135ad7fbab0609464fe14b484602a7401e8503ca3cd9e483e869f5eafa100695f9f2a0f60001b611225565b6135d97f82f4246d915a89adcbd7c2a68bc30cf7447b7c45b9acc87d380b9059ec31d9c660001b611225565b6136057fbca00994f81c597de38f325ce8580481854e9df66834f59ef673fad9b5b59f7f60001b611225565b600360009054906101000a900473ffffffffffffffffffffffffffffffffffffffff1673ffffffffffffffffffffffffffffffffffffffff16638413ec1461364b61486c565b6040518263ffffffff1660e01b81526004016136679190614dfa565b60006040518083038186803b15801561367f57600080fd5b505afa158015613693573d6000803e3d6000fd5b505050506136c37f93add002d9ae4bf84c3340a6a82d4916c358010378dd3383d4dbf81e863a1d2260001b611225565b806136f07f32d401f415956a7837b51dd32311c5aed0ae29bc641f92727d8361022c2fde5460001b611225565b61371c7f6f01f4ff4bfaf5a75702e0abf347bff583a038e507e1a01f97456862a084aa2f60001b611225565b6137487fdf090e960c17931de24cb0d0e001d0777ed7a3f5e392aa4cf90c8f3bd40216d960001b611225565b6137747fe319b404b1657abf097296c76e362c9be68a8f523817f6be11e8d4424a5c520360001b611225565b600073ffffffffffffffffffffffffffffffffffffffff168173ffffffffffffffffffffffffffffffffffffffff1614156137e4576040517f08c379a00000000000000000000000000000000000000000000000000000000081526004016137db90614f90565b60405180910390fd5b6138107f788cc48a58367c9bd4dc849e4e3b3a2d2736ffafe7f469ccf48e055427f6e3b460001b611225565b61383c7f2ece79b567f3abb4c04b6fb1d598df3e055f0f93b302fe1f91f7827967a0603060001b611225565b6138687faea0cc434acb5f477af1069ba3bf9e071ddc475152ffc9142fad6b53e2b34d7660001b611225565b6138947f83cafe65f7eb4b7ba1525699055c4cddc45b3587a896fdd04992376f5175a47b60001b611225565b6138c07fa8b946bd7d6cdca1deccc15a47b992d98694eaabab560123d76947b7584cf1cc60001b611225565b81600060026101000a81548173ffffffffffffffffffffffffffffffffffffffff021916908373ffffffffffffffffffffffffffffffffffffffff1602179055505050565b600a5481565b6139377fc4157f6dc1ca01ca3990d9f4f4008e0a64acd280a6a46d755fe1cc75e456fc9f60001b611225565b6139637ffcc72c57094ede92037cd52b3dc6403ecbcd13436a12a880460b5c30334b709560001b611225565b61398f7fde60e977129956c4f00607b41f773de7a1802f62f4132d509e021539432dcaef60001b611225565b600360009054906101000a900473ffffffffffffffffffffffffffffffffffffffff1673ffffffffffffffffffffffffffffffffffffffff16634d868f986040518163ffffffff1660e01b815260040160006040518083038186803b1580156139f757600080fd5b505afa158015613a0b573d6000803e3d6000fd5b50505050613a3b7ff39f171b17f23c7e02e98505c406d500a3ee7be31d6c2942d504c595b03f427760001b611225565b613a677fb0244bd1f6f21296804392d873422dd2f6c23ef8057348efcaf354cb3a3398e160001b611225565b613a937f66af75ec17a1edf1b9d0520a77b13ec6d9c580a74c8071d197c07872e2a7076c60001b611225565b613abf7f24402b3859ec870cf454498886fd9320fd068b78fd1fb9ff1a988ea83277c34b60001b611225565b600360009054906101000a900473ffffffffffffffffffffffffffffffffffffffff1673ffffffffffffffffffffffffffffffffffffffff1663c4d2a31b613b0561486c565b6040518263ffffffff1660e01b8152600401613b219190614dfa565b60006040518083038186803b158015613b3957600080fd5b505afa158015613b4d573d6000803e3d6000fd5b50505050613b7d7f967677bc542d5f3bcf7189ad698903307b7060e74358d9b1189beff35552424c60001b611225565b613ba97fd759818caf7b290b55df78f8e80f7e24b5da5703c986cbf9c28d51ccce5e6b7260001b611225565b613bd57f6a76c6f7e4283a56815d26d9a09087bd4cc19ad70d359bbd464cbb4cdd4348e360001b611225565b613c017f877d1af192894576f8600975b1559df956c7d371251b6dfaa2104825b89ec07260001b611225565b613c2d7f818c51a4f8a39380c8484953e3ce81cb3321a1696eabbda322a89a671181236b60001b611225565b6009544211613c71576040517f08c379a0000000000000000000000000000000000000000000000000000000008152600401613c6890615050565b60405180910390fd5b613c9d7f386a79680ac255e7ce7d0a47bbe0665fd06528578e11462e7d6ac75494fec5d860001b611225565b613cc97f85b3f646e4639292db009df88c588b5288a31728eee68764effb77625e028aac60001b611225565b613cf57fc3b8dfe1390ccb4b4ff47ece4132ecac4c30191237e256402593e276ce6b53e360001b611225565b613d217f08cc3621cef955ba891c11d26fee2a162a40bc64fc663e1a55503c4c65fed85760001b611225565b600d54600c5410613d67576040517f08c379a0000000000000000000000000000000000000000000000000000000008152600401613d5e90615010565b60405180910390fd5b613d937fe8537230791d6a07e8ceca6eaf2cce75e3852f4462c9984d62242b22d864c9a660001b611225565b613dbf7fe7782dbc8e133318feaebe75f77b7a61a1d05be264badb9b7407e64e1459871560001b611225565b613deb7fb38cf5d6bd7dd6ff259004f06c3f50bf5dd96e4c778bc8a692fa00cff08d3b0860001b611225565b6000600c549050613e1e7f7a9be75dd8b7c90fe5fa8ffa1773b1785baf482b33f68c28c23d458eb053309a60001b611225565b613e4a7fd13ee656addc627339832284640efb58b242f0492a1b3b64d66abe4a6462aa1660001b611225565b6001600c6000828254613e5d9190615247565b92505081905550613e907f224bf7762fbbc9113b55b8ae01223a77da15eb8d5c643f73bd8765f3166b2dac60001b611225565b613ebc7f4445faca135b8c0f72112bbb487d2e7217c514cfb684b29ddabdc11ca7e5d7c560001b611225565b600660009054906101000a900473ffffffffffffffffffffffffffffffffffffffff1673ffffffffffffffffffffffffffffffffffffffff16632a4ddf6d82846040518363ffffffff1660e01b8152600401613f199291906151b0565b600060405180830381600087803b158015613f3357600080fd5b505af1158015613f47573d6000803e3d6000fd5b50505050613f777fa75f20416f3fba413bb1467acf4a7e916d4e2e944d11152158a5788eb016c44e60001b611225565b613fa37f25a1c5f536f4a9ca6a73f01a236052f2a649a25f0241b8e1768af14a26e50ebf60001b611225565b600560009054906101000a900473ffffffffffffffffffffffffffffffffffffffff1673ffffffffffffffffffffffffffffffffffffffff16633ad7c33b826001546002546040518463ffffffff1660e01b815260040161400693929190615179565b600060405180830381600087803b15801561402057600080fd5b505af1158015614034573d6000803e3d6000fd5b505050506140647f9d1d96717b1cc247889ddd609b3c390e3eda1c41b0d4f9316f00a3fb0b05ad0260001b611225565b6140907f8154c7aba335c50740c1ad92b9b235199c15af9a1ea68a801b1b3d0d3f231a0a60001b611225565b600460009054906101000a900473ffffffffffffffffffffffffffffffffffffffff1673ffffffffffffffffffffffffffffffffffffffff1663b225afcb828560036040518463ffffffff1660e01b81526004016140f0939291906150e2565b600060405180830381600087803b15801561410a57600080fd5b505af115801561411e573d6000803e3d6000fd5b5050505061414e7f7edb829450f5b313fd81cc3569e7a2b4743afba4af113efab2b009fd3ed81e1e60001b611225565b61417a7f804bd3eeffcd6eaf34b8984aab7d96b66d2104733f45982af1016655b1ca139860001b611225565b7f858ed50bbd89d6eed4b861a6636ef3b02765d6e1c60d7393ec2e26caba12f11f816040516141a99190615090565b60405180910390a1505050565b600060169054906101000a900460ff1681565b6141f57fbab0609464fe14b484602a7401e8503ca3cd9e483e869f5eafa100695f9f2a0f60001b611225565b6142217f82f4246d915a89adcbd7c2a68bc30cf7447b7c45b9acc87d380b9059ec31d9c660001b611225565b61424d7fbca00994f81c597de38f325ce8580481854e9df66834f59ef673fad9b5b59f7f60001b611225565b600360009054906101000a900473ffffffffffffffffffffffffffffffffffffffff1673ffffffffffffffffffffffffffffffffffffffff16638413ec1461429361486c565b6040518263ffffffff1660e01b81526004016142af9190614dfa565b60006040518083038186803b1580156142c757600080fd5b505afa1580156142db573d6000803e3d6000fd5b5050505061430b7f93add002d9ae4bf84c3340a6a82d4916c358010378dd3383d4dbf81e863a1d2260001b611225565b806143387f32d401f415956a7837b51dd32311c5aed0ae29bc641f92727d8361022c2fde5460001b611225565b6143647f6f01f4ff4bfaf5a75702e0abf347bff583a038e507e1a01f97456862a084aa2f60001b611225565b6143907fdf090e960c17931de24cb0d0e001d0777ed7a3f5e392aa4cf90c8f3bd40216d960001b611225565b6143bc7fe319b404b1657abf097296c76e362c9be68a8f523817f6be11e8d4424a5c520360001b611225565b600073ffffffffffffffffffffffffffffffffffffffff168173ffffffffffffffffffffffffffffffffffffffff16141561442c576040517f08c379a000000000000000000000000000000000000000000000000000000000815260040161442390614f90565b60405180910390fd5b6144587f788cc48a58367c9bd4dc849e4e3b3a2d2736ffafe7f469ccf48e055427f6e3b460001b611225565b6144847f2ece79b567f3abb4c04b6fb1d598df3e055f0f93b302fe1f91f7827967a0603060001b611225565b6144b07ff03da04a7d55abb476be4b00bf8208b4a01b013c02d86fa013550a5909feda6560001b611225565b6144dc7ff70027016d7535c1f20a4939caa7ceefb7906fc86980acedbf26c7ad209e3cbb60001b611225565b6145087f936a903996f6c012856db49e6008905de4c3ebbc6c64091f7f9aad6e1af269b160001b611225565b60008290506145397f224fb3b7406a062c4aff7592d610af1f3d138b0b3ef2f87258368d0410fc182260001b611225565b6145657fc7cffb3ad100a63a6d23de7185a41fb6557dbc03e9db321006978e771df27ef060001b611225565b80600760006101000a81548173ffffffffffffffffffffffffffffffffffffffff021916908373ffffffffffffffffffffffffffffffffffffffff160217905550505050565b6145d77fb0244bd1f6f21296804392d873422dd2f6c23ef8057348efcaf354cb3a3398e160001b611225565b6146037f66af75ec17a1edf1b9d0520a77b13ec6d9c580a74c8071d197c07872e2a7076c60001b611225565b61462f7f24402b3859ec870cf454498886fd9320fd068b78fd1fb9ff1a988ea83277c34b60001b611225565b600360009054906101000a900473ffffffffffffffffffffffffffffffffffffffff1673ffffffffffffffffffffffffffffffffffffffff1663c4d2a31b61467561486c565b6040518263ffffffff1660e01b81526004016146919190614dfa565b60006040518083038186803b1580156146a957600080fd5b505afa1580156146bd573d6000803e3d6000fd5b505050506146ed7f967677bc542d5f3bcf7189ad698903307b7060e74358d9b1189beff35552424c60001b611225565b6147197f11b80aa7e377445662dae9142b7882ba0740c2b4bdb3af15fa74f2570d124c8660001b611225565b6147457fcda3428087d0ab5bf179e25879e2d30b36a6158d62a282488d6a09ca5d68e0e260001b611225565b6147717f6a27289f56718a77e2ba641791eccd39dd54c50b7178ae00b002e3c515cfb6c760001b611225565b816001819055506147a47f845babfd7bae50d467739fc4d8dd8b57e00cfcbea16b3fe8e96fc4f0c108644e60001b611225565b6147d07fbeec4b87b83eb869c0c5dbd9f6efd022081e6fde1e3a396e42d2b4377e170e3660001b611225565b806002819055506148037f8c79af59d5572db1e935f5bd9e955e5e99e7f3f7835fc5d422f9a550cc1a6a8560001b611225565b61482f7fd8b18d624515e8a0f57186afab822e7fade259a4aac90ac9510bb66cc846d82f60001b611225565b7f647f0371b4671c24031008c8b12e6b34356ffc6c06279ddb07f4baa9c3eb2c5f8282604051614860929190615119565b60405180910390a15050565b6000601460003690501015801561488857506148873361315d565b5b1561489c57601436033560601c90506148a4565b3390506148a5565b5b90565b6000813590506148b781615747565b92915050565b6000815190506148cc8161575e565b92915050565b6000813590506148e181615775565b92915050565b6000813590506148f68161578c565b92915050565b60008135905061490b816157a3565b92915050565b600081359050614920816157ba565b92915050565b60006020828403121561493c5761493b61551f565b5b600061494a848285016148a8565b91505092915050565b6000806000806080858703121561496d5761496c61551f565b5b600061497b878288016148a8565b945050602061498c878288016148e7565b935050604061499d878288016148e7565b92505060606149ae878288016148e7565b91505092959194509250565b600080604083850312156149d1576149d061551f565b5b60006149df858286016148a8565b92505060206149f0858286016148fc565b9150509250929050565b600060208284031215614a1057614a0f61551f565b5b6000614a1e848285016148bd565b91505092915050565b600060208284031215614a3d57614a3c61551f565b5b6000614a4b848285016148d2565b91505092915050565b600060208284031215614a6a57614a6961551f565b5b6000614a78848285016148e7565b91505092915050565b60008060408385031215614a9857614a9761551f565b5b6000614aa6858286016148e7565b9250506020614ab7858286016148e7565b9150509250929050565b60008060008060008060c08789031215614ade57614add61551f565b5b6000614aec89828a016148e7565b9650506020614afd89828a016148e7565b9550506040614b0e89828a016148e7565b9450506060614b1f89828a016148e7565b9350506080614b3089828a01614911565b92505060a0614b4189828a016148a8565b9150509295509295509295565b614b57816153af565b82525050565b614b668161532b565b82525050565b614b758161533d565b82525050565b614b84816153c1565b82525050565b614b93816153e5565b82525050565b614ba281615409565b82525050565b614bb18161542d565b82525050565b614bc081615451565b82525050565b614bcf81615475565b82525050565b614bde81615487565b82525050565b6000614bef8261522b565b614bf98185615236565b9350614c098185602086016154bd565b614c1281615524565b840191505092915050565b6000614c2a601a83615236565b9150614c3582615535565b602082019050919050565b6000614c4d601583615236565b9150614c588261555e565b602082019050919050565b6000614c70601583615236565b9150614c7b82615587565b602082019050919050565b6000614c93601783615236565b9150614c9e826155b0565b602082019050919050565b6000614cb6600f83615236565b9150614cc1826155d9565b602082019050919050565b6000614cd9602e83615236565b9150614ce482615602565b604082019050919050565b6000614cfc600e83615236565b9150614d0782615651565b602082019050919050565b6000614d1f601383615236565b9150614d2a8261567a565b602082019050919050565b6000614d42601e83615236565b9150614d4d826156a3565b602082019050919050565b6000614d65600e83615236565b9150614d70826156cc565b602082019050919050565b6000614d88602083615236565b9150614d93826156f5565b602082019050919050565b6000614dab600d83615236565b9150614db68261571e565b602082019050919050565b614dca81615381565b82525050565b614dd98161538b565b82525050565b6000602082019050614df46000830184614b5d565b92915050565b6000602082019050614e0f6000830184614b4e565b92915050565b6000606082019050614e2a6000830186614b5d565b614e376020830185614b5d565b614e446040830184614dc1565b949350505050565b6000602082019050614e616000830184614b6c565b92915050565b6000602082019050614e7c6000830184614b7b565b92915050565b6000602082019050614e976000830184614b8a565b92915050565b6000602082019050614eb26000830184614b99565b92915050565b6000602082019050614ecd6000830184614ba8565b92915050565b6000602082019050614ee86000830184614bb7565b92915050565b60006020820190508181036000830152614f088184614be4565b905092915050565b60006020820190508181036000830152614f2981614c1d565b9050919050565b60006020820190508181036000830152614f4981614c40565b9050919050565b60006020820190508181036000830152614f6981614c63565b9050919050565b60006020820190508181036000830152614f8981614c86565b9050919050565b60006020820190508181036000830152614fa981614ca9565b9050919050565b60006020820190508181036000830152614fc981614ccc565b9050919050565b60006020820190508181036000830152614fe981614cef565b9050919050565b6000602082019050818103600083015261500981614d12565b9050919050565b6000602082019050818103600083015261502981614d35565b9050919050565b6000602082019050818103600083015261504981614d58565b9050919050565b6000602082019050818103600083015261506981614d7b565b9050919050565b6000602082019050818103600083015261508981614d9e565b9050919050565b60006020820190506150a56000830184614dc1565b92915050565b60006060820190506150c06000830186614dc1565b6150cd6020830185614b4e565b6150da6040830184614bc6565b949350505050565b60006060820190506150f76000830186614dc1565b6151046020830185614b5d565b6151116040830184614bc6565b949350505050565b600060408201905061512e6000830185614dc1565b61513b6020830184614dc1565b9392505050565b60006060820190506151576000830186614dc1565b6151646020830185614dc1565b6151716040830184614bd5565b949350505050565b600060608201905061518e6000830186614dc1565b61519b6020830185614dc1565b6151a86040830184614dc1565b949350505050565b60006040820190506151c56000830185614dc1565b6151d26020830184614dd0565b9392505050565b60006020820190506151ee6000830184614dd0565b92915050565b60006060820190506152096000830186614dd0565b6152166020830185614b6c565b6152236040830184614b6c565b949350505050565b600081519050919050565b600082825260208201905092915050565b600061525282615381565b915061525d83615381565b9250827fffffffffffffffffffffffffffffffffffffffffffffffffffffffffffffffff03821115615292576152916154f0565b5b828201905092915050565b60006152a882615381565b91506152b383615381565b9250817fffffffffffffffffffffffffffffffffffffffffffffffffffffffffffffffff04831182151516156152ec576152eb6154f0565b5b828202905092915050565b600061530282615381565b915061530d83615381565b9250828210156153205761531f6154f0565b5b828203905092915050565b600061533682615361565b9050919050565b60008115159050919050565b6000819050919050565b600061ffff82169050919050565b600073ffffffffffffffffffffffffffffffffffffffff82169050919050565b6000819050919050565b600063ffffffff82169050919050565b600067ffffffffffffffff82169050919050565b60006153ba82615499565b9050919050565b60006153cc826153d3565b9050919050565b60006153de82615361565b9050919050565b60006153f0826153f7565b9050919050565b600061540282615361565b9050919050565b60006154148261541b565b9050919050565b600061542682615361565b9050919050565b60006154388261543f565b9050919050565b600061544a82615361565b9050919050565b600061545c82615463565b9050919050565b600061546e82615361565b9050919050565b600061548082615353565b9050919050565b60006154928261538b565b9050919050565b60006154a4826154ab565b9050919050565b60006154b682615361565b9050919050565b60005b838110156154db5780820151818401526020810190506154c0565b838111156154ea576000848401525b50505050565b7f4e487b7100000000000000000000000000000000000000000000000000000000600052601160045260246000fd5b600080fd5b6000601f19601f8301169050919050565b7f63616e206e6f7420757064617465206578706972652064617465000000000000600082015250565b7f6d61782067696674436f756e7420726561636865640000000000000000000000600082015250565b7f756e7375636365737366756c207472616e736665720000000000000000000000600082015250565b7f747265657320617265206e6f7420617661696c61626c65000000000000000000600082015250565b7f696e76616c696420616464726573730000000000000000000000000000000000600082015250565b7f496e697469616c697a61626c653a20636f6e747261637420697320616c72656160008201527f647920696e697469616c697a6564000000000000000000000000000000000000602082015250565b7f55736572206e6f74206578697374000000000000000000000000000000000000600082015250565b7f436f6d6d756e6974794769667420656e64656400000000000000000000000000600082015250565b7f74726565206973206e6f7420666f7220636f6d6d756e69747920676966740000600082015250565b7f436c61696d6564206265666f7265000000000000000000000000000000000000600082015250565b7f436f6d6d756e697479476966742054696d65206e6f742079657420656e646564600082015250565b7f696e76616c69642072616e676500000000000000000000000000000000000000600082015250565b6157508161532b565b811461575b57600080fd5b50565b6157678161533d565b811461577257600080fd5b50565b61577e81615349565b811461578957600080fd5b50565b61579581615381565b81146157a057600080fd5b50565b6157ac8161538b565b81146157b757600080fd5b50565b6157c38161539b565b81146157ce57600080fd5b5056fea26469706673582212204775cd6d87e4b06dc702bdb85162876ce47ee0a6cad3a02b167a66c7d76fc36f64736f6c63430008060033",
  "immutableReferences": {},
  "source": "// // SPDX-License-Identifier: MIT\n\npragma solidity ^0.8.6;\nfunction c_0x1bf47d92(bytes32 c__0x1bf47d92) pure {}\n\n\nimport \"@openzeppelin/contracts-upgradeable/proxy/utils/Initializable.sol\";\nimport \"@openzeppelin/contracts-upgradeable/token/ERC20/IERC20Upgradeable.sol\";\nimport \"../access/IAccessRestriction.sol\";\nimport \"../tree/ITreeFactory.sol\";\nimport \"../tree/ITreeAttribute.sol\";\nimport \"../treasury/IPlanterFund.sol\";\nimport \"../gsn/RelayRecipient.sol\";\n\n/** @title CommunityGifts */\n\ncontract CommunityGifts is Initializable, RelayRecipient {\nfunction c_0xc722df10(bytes32 c__0xc722df10) public pure {}\n\n    /** NOTE {isCommunityGifts} set inside the initialize to {true} */\n    bool public isCommunityGifts;\n\n    /**NOTE {planterFund} is share of plater when a tree claimed or transfered to someone*/\n    uint256 public planterFund;\n\n    /**NOTE {referralFund} is share of referral when a tree claimed or transfered to someone*/\n\n    uint256 public referralFund;\n\n    IAccessRestriction public accessRestriction;\n    ITreeFactory public treeFactory;\n    IPlanterFund public planterFundContract;\n    ITreeAttribute public treeAttribute;\n    IERC20Upgradeable public daiToken;\n\n    struct CommunityGift {\n        uint32 symbol;\n        bool claimed;\n        bool exist;\n    }\n\n    /** NOTE mapping of giftee address to CommunityGift struct */\n    mapping(address => CommunityGift) public communityGifts;\n\n    /**NOTE {expireDate} is the maximum time that giftee can claim tree */\n    uint256 public expireDate;\n\n    /**NOTE {giftCount} is total number of trees that are gifted to someone */\n    uint256 public giftCount;\n\n    /**NOTE maximum amount of gift trees*/\n    uint256 public maxGiftCount;\n    /**NOTE id of tree to claim */\n    uint256 public toClaim;\n    /**NOTE maximum id of trees can be claimed up to it */\n    uint256 public upTo;\n\n    ////////////////////////////////////////////////\n    event GifteeUpdated(address giftee);\n    event TreeClaimed(uint256 treeId);\n    event TreeTransfered(uint256 treeId);\n    event CommunityGiftPlanterFund(uint256 planterFund, uint256 referralFund);\n    event CommuintyGiftSet();\n\n    /** NOTE modifier to check msg.sender has admin role */\n    modifier onlyAdmin() {c_0xc722df10(0xbab0609464fe14b484602a7401e8503ca3cd9e483e869f5eafa100695f9f2a0f); /* function */ \n\nc_0xc722df10(0x82f4246d915a89adcbd7c2a68bc30cf7447b7c45b9acc87d380b9059ec31d9c6); /* line */ \n        c_0xc722df10(0xbca00994f81c597de38f325ce8580481854e9df66834f59ef673fad9b5b59f7f); /* statement */ \naccessRestriction.ifAdmin(_msgSender());\nc_0xc722df10(0x93add002d9ae4bf84c3340a6a82d4916c358010378dd3383d4dbf81e863a1d22); /* line */ \n        _;\n    }\n\n    /** NOTE modifier to check msg.sender has data manager role */\n    modifier onlyDataManager() {c_0xc722df10(0xb0244bd1f6f21296804392d873422dd2f6c23ef8057348efcaf354cb3a3398e1); /* function */ \n\nc_0xc722df10(0x66af75ec17a1edf1b9d0520a77b13ec6d9c580a74c8071d197c07872e2a7076c); /* line */ \n        c_0xc722df10(0x24402b3859ec870cf454498886fd9320fd068b78fd1fb9ff1a988ea83277c34b); /* statement */ \naccessRestriction.ifDataManager(_msgSender());\nc_0xc722df10(0x967677bc542d5f3bcf7189ad698903307b7060e74358d9b1189beff35552424c); /* line */ \n        _;\n    }\n\n    /** NOTE modifier for check if function is not paused*/\n    modifier ifNotPaused() {c_0xc722df10(0xc4157f6dc1ca01ca3990d9f4f4008e0a64acd280a6a46d755fe1cc75e456fc9f); /* function */ \n\nc_0xc722df10(0xfcc72c57094ede92037cd52b3dc6403ecbcd13436a12a880460b5c30334b7095); /* line */ \n        c_0xc722df10(0xde60e977129956c4f00607b41f773de7a1802f62f4132d509e021539432dcaef); /* statement */ \naccessRestriction.ifNotPaused();\nc_0xc722df10(0xf39f171b17f23c7e02e98505c406d500a3ee7be31d6c2942d504c595b03f4277); /* line */ \n        _;\n    }\n\n    /** NOTE modifier for check valid address */\n    modifier validAddress(address _address) {c_0xc722df10(0x32d401f415956a7837b51dd32311c5aed0ae29bc641f92727d8361022c2fde54); /* function */ \n\nc_0xc722df10(0x6f01f4ff4bfaf5a75702e0abf347bff583a038e507e1a01f97456862a084aa2f); /* line */ \n        c_0xc722df10(0xdf090e960c17931de24cb0d0e001d0777ed7a3f5e392aa4cf90c8f3bd40216d9); /* requirePre */ \nc_0xc722df10(0xe319b404b1657abf097296c76e362c9be68a8f523817f6be11e8d4424a5c5203); /* statement */ \nrequire(_address != address(0), \"invalid address\");c_0xc722df10(0x788cc48a58367c9bd4dc849e4e3b3a2d2736ffafe7f469ccf48e055427f6e3b4); /* requirePost */ \n\nc_0xc722df10(0x2ece79b567f3abb4c04b6fb1d598df3e055f0f93b302fe1f91f7827967a06030); /* line */ \n        _;\n    }\n\n    /**\n     * @dev initialize accessRestriction contract and set true for isCommunityGifts\n     * set expire date and planterFund and referralFund initial value\n     * @param _accessRestrictionAddress set to the address of accessRestriction contract\n     * @param _expireDate initial expire date\n     * @param _planterFund initial planter fund\n     * @param _referralFund initial referral fund\n     */\n    function initialize(\n        address _accessRestrictionAddress,\n        uint256 _expireDate,\n        uint256 _planterFund,\n        uint256 _referralFund\n    ) external initializer {c_0xc722df10(0x065fa28efa95f173a20a6f1bc18ceeac0613cf701201de77ed67976583e57965); /* function */ \n\nc_0xc722df10(0x2b51b8cbe4b53147861903dd4b271dcf03f3267a1bcf2c162308597c3a6a2c45); /* line */ \n        c_0xc722df10(0x0b5e09bdc9e877826a19d1b92331a1198fa08de3f0c5e11a8ddc397d98e0eb04); /* statement */ \nIAccessRestriction candidateContract = IAccessRestriction(\n            _accessRestrictionAddress\n        );\n\nc_0xc722df10(0x36e0e2ffe87d0df6738b26fb75d07d393e12a8c98b072ec6e10447984a6199c7); /* line */ \n        c_0xc722df10(0xb08b4ff12157ae02e591fb5d3d978f1d8d4ecb75986b334e3c91ae90b7ac8816); /* requirePre */ \nc_0xc722df10(0x693599d5fd2bcb83346b35abf9610dfbd0bf3e342a6a7806186f065854da698d); /* statement */ \nrequire(candidateContract.isAccessRestriction());c_0xc722df10(0x2fa52bb3be972c66abdaf9ab45d309ca0c500181d354c3605245550508a246d0); /* requirePost */ \n\n\nc_0xc722df10(0xd9c1bd986edbeabbff42eaee22066a0e8359e3c94f8da6e0d2819b5cc2bb3d6b); /* line */ \n        c_0xc722df10(0x8bc193964dc448aa156008c203381fba2f5168f61072a26c069c461c5ccb4ea0); /* statement */ \nisCommunityGifts = true;\nc_0xc722df10(0x5f318b225017a5ecc626284a8de80fa9b8bf4aef477ec3af4265cbbbafc868ac); /* line */ \n        c_0xc722df10(0x2158ba8d7e1e45afe912cf062a61c09ba0bc5a8a660eb654fcc6f549ff175807); /* statement */ \naccessRestriction = candidateContract;\n\nc_0xc722df10(0x0addd276f447982b5cf9a5c64a976cfda14981371b6502e7844c0e3c53fc07cf); /* line */ \n        c_0xc722df10(0xc4288f350b81268d01116a8e24be883af9787cba14d641b33e3483861df0d7d7); /* statement */ \nexpireDate = _expireDate;\nc_0xc722df10(0xc6ce2a5298da9a8b242a9997a495b12437cd16640497953f3af9220f920c0e45); /* line */ \n        c_0xc722df10(0x7b2d4b41ec468c2f7b6ccde076a135a313767e70f935524ee4185d941f125fa5); /* statement */ \nplanterFund = _planterFund;\nc_0xc722df10(0xe4c1e812521f12f8ea84894ca532e614d5b2e559b8aab568af3e48c98959cb87); /* line */ \n        c_0xc722df10(0xf1dbf00a2ef9e4dc1c1c087cfd04147d0e161acf783512f55b53382d90683cb7); /* statement */ \nreferralFund = _referralFund;\n    }\n\n    /**\n     * @dev admin set the trustedForwarder adress\n     * @param _address is the address of trusted forwarder\n     */\n\n    function setTrustedForwarder(address _address)\n        external\n        onlyAdmin\n        validAddress(_address)\n    {c_0xc722df10(0xaea0cc434acb5f477af1069ba3bf9e071ddc475152ffc9142fad6b53e2b34d76); /* function */ \n\nc_0xc722df10(0x83cafe65f7eb4b7ba1525699055c4cddc45b3587a896fdd04992376f5175a47b); /* line */ \n        c_0xc722df10(0xa8b946bd7d6cdca1deccc15a47b992d98694eaabab560123d76947b7584cf1cc); /* statement */ \ntrustedForwarder = _address;\n    }\n\n    /**\n     * @dev admin set DaiToken address\n     * @param _daiTokenAddress set to the address of DaiToken\n     */\n    function setDaiTokenAddress(address _daiTokenAddress)\n        external\n        onlyAdmin\n        validAddress(_daiTokenAddress)\n    {c_0xc722df10(0xf03da04a7d55abb476be4b00bf8208b4a01b013c02d86fa013550a5909feda65); /* function */ \n\nc_0xc722df10(0xf70027016d7535c1f20a4939caa7ceefb7906fc86980acedbf26c7ad209e3cbb); /* line */ \n        c_0xc722df10(0x936a903996f6c012856db49e6008905de4c3ebbc6c64091f7f9aad6e1af269b1); /* statement */ \nIERC20Upgradeable candidateContract = IERC20Upgradeable(\n            _daiTokenAddress\n        );\nc_0xc722df10(0x224fb3b7406a062c4aff7592d610af1f3d138b0b3ef2f87258368d0410fc1822); /* line */ \n        c_0xc722df10(0xc7cffb3ad100a63a6d23de7185a41fb6557dbc03e9db321006978e771df27ef0); /* statement */ \ndaiToken = candidateContract;\n    }\n\n    /**\n     * @dev admin set TreeAttributesAddress\n     * @param _address set to the address of treeAttribute\n     */\n\n    function setTreeAttributesAddress(address _address) external onlyAdmin {c_0xc722df10(0xbc09d9f7ffbe1bebc9405e8da8dbb579a0a1f20dc3bd0a49de910e5cfa14a16b); /* function */ \n\nc_0xc722df10(0x8d4584a37ddd17af9260775c14b1236184c60dbd8c736998b0ffd75ed6df564f); /* line */ \n        c_0xc722df10(0xee82027e23d6521cfe09e6c325a118ba9d2b11410b0a3a165f1a172f0f2769ad); /* statement */ \nITreeAttribute candidateContract = ITreeAttribute(_address);\nc_0xc722df10(0xdc9e742b52e69e477ba1544d872c812c45a995a7bc5d00ea26e8fd1735a520d0); /* line */ \n        c_0xc722df10(0x5a726c5ffecede44c60d65b683af13959afb4e95320b08794e552ffa90c8b6ca); /* requirePre */ \nc_0xc722df10(0xeee84a1adae5654102a4fe0b89ed43e020098251882dc612a793acb73ed8f868); /* statement */ \nrequire(candidateContract.isTreeAttribute());c_0xc722df10(0xd221e4dd11b2f507faac91a2a069d1525b367374adc58516baedf3c30a81ddc3); /* requirePost */ \n\nc_0xc722df10(0x14d46883cc1918531ef0a0a81d94e572a822f07aa24dad371a8de61ff2ae0a9d); /* line */ \n        c_0xc722df10(0x051f319377a3c40b107e7078736c2ece133453d210007a3be1fb20f212eec239); /* statement */ \ntreeAttribute = candidateContract;\n    }\n\n    /**\n     * @dev admin set TreeFactoryAddress\n     * @param _address set to the address of treeFactory\n     */\n\n    function setTreeFactoryAddress(address _address) external onlyAdmin {c_0xc722df10(0xb46ccbb03f31d12465a89ca6b5d0a92c45f2e30af147b4392ff072b09fb5856b); /* function */ \n\nc_0xc722df10(0xbd86a3aaafb94bbde01302b112ff8e260873cd1b5e5b1ded2a6ced34e3a9a18d); /* line */ \n        c_0xc722df10(0xec0aea92ceb7f292259588aff9b26b798687369de9df59b16c960a4116182350); /* statement */ \nITreeFactory candidateContract = ITreeFactory(_address);\nc_0xc722df10(0xe94e298ce810314f27aa83359c2d434742ab74095d659bb8fdf067a0a4ec052e); /* line */ \n        c_0xc722df10(0x28ab05fb8c53abbdac77fca005f19e7ead50a2b14701e9e37342b92d13c0fae5); /* requirePre */ \nc_0xc722df10(0x8ceae8f7197e9f5241e227b4285c1db7ace246573268983dac1bbe602aef4ee2); /* statement */ \nrequire(candidateContract.isTreeFactory());c_0xc722df10(0x441a5784d73dfbe4180a6f102d9ae173a91d612203d2b97b6032e1b81afd4200); /* requirePost */ \n\nc_0xc722df10(0x5d2c57a95ff3ddc87576fcd7bea262fcf8ddd6ce84b72c539f47216f13d17ad1); /* line */ \n        c_0xc722df10(0xeea7429a2a339c3b6638ac5dcf5b6c6bd0785d535bc28452db575479f6ca43d8); /* statement */ \ntreeFactory = candidateContract;\n    }\n\n    /**\n     * @dev admin set PlanterFundAddress\n     * @param _address set to the address of PlanterFund\n     */\n\n    function setPlanterFundAddress(address _address) external onlyAdmin {c_0xc722df10(0xd824d13a1e7d128d0e18131f3e73e341addd2f292b41e6ff9792a40733833a23); /* function */ \n\nc_0xc722df10(0xd001be045a37a02d11e9557e9769d74a21d3a08bc62dd3fef987e2f7cbf71957); /* line */ \n        c_0xc722df10(0xa25723d03d7e7ea3fb3aef18fba904fa0e19c163b68d6895fd9c6524143d8391); /* statement */ \nIPlanterFund candidateContract = IPlanterFund(_address);\nc_0xc722df10(0x0f8ab00cd003bba060c6f58206ebcb235e194a6a6b8ea478e4461b9be27143bd); /* line */ \n        c_0xc722df10(0x15a37de9e18a806e5032921393716b66cbe8b4749e60bb26dcc170dc10f3e6ac); /* requirePre */ \nc_0xc722df10(0x3f2c43d1f4b714293f987b31be5b3504780ad2410db4ce17b9a508f906da0dae); /* statement */ \nrequire(candidateContract.isPlanterFund());c_0xc722df10(0x663c4661f928280c976bf7879f412ce9cff073e83aa4514c2d350df6c54cea56); /* requirePost */ \n\nc_0xc722df10(0x4b0dcba22f2d86bde7c78a555862c9fd46b91ded3a2daa9ef378a1fdfa2f4f57); /* line */ \n        c_0xc722df10(0xfbbd267f57320151a4ef1c286a501c0c740d06e7ef311aa8a3644543476bab6b); /* statement */ \nplanterFundContract = candidateContract;\n    }\n\n    /** @dev admin set the gift range from {_startTreeId} to {_endTreeId}\n     * with planter fund amount {_planterFund} and referral fund amount {_referralFund}\n     * NOTE community gift ends at {_expireDate} and giftees can claim gifts until {_expireDate}\n     * NOTE when a community gift set {_adminWalletAddress} transfer total value of trees\n     * calculated based on planter and referral funds and number of gifted trees to\n     * planterFund contract\n     * @param _startTreeId stating tree id for gifts range\n     * @param _endTreeId ending tree id for gifts range\n     * @param _planterFund planter fund amount\n     * @param _referralFund referral fund amount\n     * @param _expireDate expire date of community gift\n     * @param _adminWalletAddress address of the admin wallet\n     */\n    function setGiftsRange(\n        uint256 _startTreeId,\n        uint256 _endTreeId,\n        uint256 _planterFund,\n        uint256 _referralFund,\n        uint64 _expireDate,\n        address _adminWalletAddress\n    ) external onlyDataManager {c_0xc722df10(0xec639007c11ce0c60466767e6071073aeb3314a8b2d1611d40232379ba382be0); /* function */ \n\nc_0xc722df10(0xe7f9363c545cb44fd0df371f1c69731db4b0db7f9410a38cf7dbea3b6409ba84); /* line */ \n        c_0xc722df10(0x94c4f06e2912c577110d0b2fb435fd282391585138420bae311539410b4938e3); /* requirePre */ \nc_0xc722df10(0x0bd317efd5b58abaaa5f587cd41ff23ea303d885a39b99843d88589c58a92ab7); /* statement */ \nrequire(_endTreeId > _startTreeId, \"invalid range\");c_0xc722df10(0x29491f70555f1ab4e9142d6cd0faa4fd5cebaddc610e37e8b9dc425910fdd90a); /* requirePost */ \n\n\nc_0xc722df10(0xcc8274cf549b36e7055b5fe07897e30843d2c3f7813cad495696a8fce8a732ce); /* line */ \n        c_0xc722df10(0xec6fd96b1629355c6924637ba30e762694cba64c78f8e5c048a4b769b159c4e6); /* statement */ \nbool check = treeFactory.manageProvideStatus(\n            _startTreeId,\n            _endTreeId,\n            5\n        );\n\nc_0xc722df10(0x95c331e535b6bdc4f9ee0670dcbe861c7ab627e5b1dd156e5d678050c6625f79); /* line */ \n        c_0xc722df10(0xd474b7a6011601fba8274492ed04362280a5111047c99a189a82bf35954990d1); /* requirePre */ \nc_0xc722df10(0x5cc3a098ee32b595c4d35141813d77531a470b4e032b4db4c67012849c8a0cf9); /* statement */ \nrequire(check, \"trees are not available\");c_0xc722df10(0x6150ec058061aabfebc52811ccd657fe7b303ca0a09953bad521ae7eaaf045fe); /* requirePost */ \n\n\nc_0xc722df10(0x7c74af6a8b0bc7daf06f4534150c2831326caf12076e2bc077f380d23e86f110); /* line */ \n        c_0xc722df10(0xcd4a3c54fdaf3222606612e2bb4380bcabf78c460ce1667e506abac8112b0753); /* statement */ \nplanterFund = _planterFund;\nc_0xc722df10(0x49cdd005cec0fd9f025679d57efedd94a342c0347d3ccd5d238049567e1574d4); /* line */ \n        c_0xc722df10(0x238a232f45c2fac2db4db591f4384daee221c30bebe183b35e069c2cb85055ac); /* statement */ \nreferralFund = _referralFund;\nc_0xc722df10(0x3f7b146c61c228ca83e3545f7e761f64184b9d4d0c9d92679fc64cf6fd72c67e); /* line */ \n        c_0xc722df10(0xba60f02724d161d2a87cad3ebe0926750a87f9db90e2ec12517c904adc916d7e); /* statement */ \nexpireDate = _expireDate;\nc_0xc722df10(0xb43fc504cab3fe90e52f16dcf0a74992c304cdf845ab2b0dc3ed6e25f5d0f13f); /* line */ \n        c_0xc722df10(0xc5d0fac5cdadcae0894d2d64e080ce68b7dc1332ae1f088d4aa0a06e687f07ce); /* statement */ \nmaxGiftCount = _endTreeId - _startTreeId;\nc_0xc722df10(0xd2cb2e3e5423476e1305be016e2789407a98fb5847ea0e01714794455c88ca42); /* line */ \n        c_0xc722df10(0x386898671961894091d375ef7ff015a2f6bf5587228333924947786fc9197161); /* statement */ \ntoClaim = _startTreeId;\nc_0xc722df10(0xa18d0c844e72db54326e34434fb0f4aaec91548e295782beaba746cb5b0017cf); /* line */ \n        c_0xc722df10(0x43efbff99b08857bae22c400789c2632c46102fb6a26fe6c4e2477f2035ee13c); /* statement */ \nupTo = _endTreeId;\n\nc_0xc722df10(0x6aebcf053cdc1108e35c6a35e1ee93f0a62ccac96c6a6b54d120e07f02fbc1a3); /* line */ \n        c_0xc722df10(0x51b84feb096a9669e3833a6865317d4db03b59adcaa563e9e90dbe1b245075af); /* statement */ \nbool success = daiToken.transferFrom(\n            _adminWalletAddress,\n            address(planterFundContract),\n            maxGiftCount * (planterFund + referralFund)\n        );\n\nc_0xc722df10(0xb4eca6162043097e11ac1655fa737bf74223ea8aa4d23939e968c5265693e2fc); /* line */ \n        c_0xc722df10(0xe11e37d49fbbe072a1be5ed02101773f1e67290fbf7d4063fcd6bc6401de1617); /* requirePre */ \nc_0xc722df10(0x92b2483f9e18b1450c1c9b9bacede089a72c417d04b1c4c7333efeceae5f65b7); /* statement */ \nrequire(success, \"unsuccessful transfer\");c_0xc722df10(0x736c23e9b0a4f199d88815194e25021fd5f76b9c1342ade093c62ca4432010d8); /* requirePost */ \n\n\nc_0xc722df10(0x3e3b4c64bdda7f76aecfec887e4f968efa6ecae371adde5219631ff42185b69e); /* line */ \n        c_0xc722df10(0x77f125262423499375fbd8d6841364baa7e6ccbc5b2c971245312a7d9f249460); /* statement */ \nemit CommuintyGiftSet();\n    }\n\n    /** @dev admin assign an unique symbol to a giftee\n     * @param _giftee address of giftee\n     * @param _symbol unique symbol assigned to a giftee\n     */\n    function updateGiftees(address _giftee, uint32 _symbol)\n        external\n        onlyDataManager\n    {c_0xc722df10(0x253e7132d960502923a9aec3a86ffe9661f2046111647b29785cd4d3cbd22340); /* function */ \n\nc_0xc722df10(0xebc91b7b8201f9f861b16cd6e9019b21807e1ec842d5433aa9cd947e46a9f2a2); /* line */ \n        c_0xc722df10(0xc80c9b78c615e37a2f9a69a95737a0cf7effb2455826e5719dfb1f5f138035ad); /* statement */ \nCommunityGift storage communityGift = communityGifts[_giftee];\n\nc_0xc722df10(0x99176f4d7ee64f6aed09fbcae3d62ee7da1e59f0556c04f9586fb6c2d87616a4); /* line */ \n        c_0xc722df10(0xef5f2e917faf5c46903542d7668707c7f228beb94b807ddda95fecb52106cce8); /* requirePre */ \nc_0xc722df10(0x984b1308318421a5e1c260156653725382dc2eb463a9dd816a30c85ba0d837c5); /* statement */ \nrequire(!communityGift.claimed, \"Claimed before\");c_0xc722df10(0xa27873d2797353f07fe5054a87def95d45faf989827605f5de5265c92a9a8c22); /* requirePost */ \n\n\nc_0xc722df10(0x73fef7676712e8eec731486d426a5111f930e73ef9db35b8a601cf47ed80f20b); /* line */ \n        c_0xc722df10(0x1e0b312af5998c53edc2443c734d42be8450b25f4452b0f20be8245ccda37f63); /* statement */ \nif (!communityGift.exist) {c_0xc722df10(0x7fddf147913b018f25fc0020da6e59c17a72c0ad05263579e70c86ecd861d39c); /* branch */ \n\nc_0xc722df10(0xfb9409f9a1fd215712b1412c47480f266101fde0ddbc5d04707246981878e5e7); /* line */ \n            c_0xc722df10(0x262365ee036087a3361446861de9c85dfbcfa2b13181f8a47cb8d3a63be92081); /* requirePre */ \nc_0xc722df10(0x3250a82e3f834a105b5a55f48408cf7d057ef14b7bbee20f99e99144e8fcb5a8); /* statement */ \nrequire(giftCount < maxGiftCount, \"max giftCount reached\");c_0xc722df10(0x74a12c7b83cc5736b310726ca98ac398917d7aa44ddef0f354f3ced6a005a317); /* requirePost */ \n\nc_0xc722df10(0xd08b99393119b1bbff440a8aaabb122b065c7f76cea8243c5cb8c3fb4769b1cb); /* line */ \n            c_0xc722df10(0x17e15da83b982eb62c6de6e1cc5e2a9f65d3e9c48c3eac8c9ad6d8b3642ee302); /* statement */ \ngiftCount += 1;\nc_0xc722df10(0xed80c5c8a4f9a11f5fa2093304fb683c2e141a246d4cc6f9d2a92430f517f123); /* line */ \n            c_0xc722df10(0xc83b4e2a26a4179e3f2841f5c64f9b4fa4ff3eb9ac406ba5f230eaa7e2c21d0d); /* statement */ \ncommunityGift.exist = true;\n        } else {c_0xc722df10(0x80ee0c8232f5dc08158c3c7fdc1933f0c8cb042fee0b63e3bac5c8fe47ba163b); /* branch */ \n\nc_0xc722df10(0x325816fd7d548357e21e6f9017a5f2ad30edaffae15401a1436fca38a78ade74); /* line */ \n            c_0xc722df10(0xac4253e5b64d797c4db9967abd44a010c190fcd750c9f1d0481486c86ae85e87); /* statement */ \ntreeAttribute.freeReserveTreeAttributes(communityGift.symbol);\n        }\n\nc_0xc722df10(0x3aac5e7bf4b339ce12222f525663445dbaa847fa9215f06be51dff9ecf90a8f2); /* line */ \n        c_0xc722df10(0xe74798ab03c0134b41c6ec937486c2b075f850c5657edf565e2b264ce1a89896); /* statement */ \ntreeAttribute.reserveTreeAttributes(_symbol);\n\nc_0xc722df10(0xc07d3c8d7bba6cf4894c6811fa4c00245cb2be83cf27e087bca9c44153cf6cc3); /* line */ \n        c_0xc722df10(0x4463cde9d2d05f2daa8228b6e99ba9199965faf216fdbef4a14651f0f93f13da); /* statement */ \ncommunityGift.symbol = _symbol;\n\nc_0xc722df10(0xbf9b2e67cb3550b14d23af25d31ab5bf1e2846b652267c6dd7fade6c7b53e3ae); /* line */ \n        c_0xc722df10(0xa6f54ebc370a46b854bd2613a3284e364fe758e0ad27b8b6ff827b76bec5fc60); /* statement */ \nemit GifteeUpdated(_giftee);\n    }\n\n    /** @dev giftee can claim assigned tree before communityGift expireDate\n     * and ownership of tree transfered to giftee\n     * NOTE giftees that claim their gift soon get low tree id\n     * NOTE planterFund and referralFund of tree updated in planterFund contract\n     */\n    function claimTree() external {c_0xc722df10(0x5a0a99b8551a32b5b5199497fcda10105cc6d88e6f19c21d9348ce9d7b6bbeb4); /* function */ \n\nc_0xc722df10(0x5d4154197e818daa84d2f33c17b2e4e9a2dc9a08572c1ef94b9d3bb8f66d3743); /* line */ \n        c_0xc722df10(0xb2bb9d88816582ac91ffe487dc462619362ef2588a499776e48c013b5078e663); /* statement */ \nCommunityGift storage communityGift = communityGifts[_msgSender()];\n\nc_0xc722df10(0x3a64989d9625aff2f085a3102cc5e9df709a475d52bb77115a8970150d330a76); /* line */ \n        c_0xc722df10(0xcb5fc4753a645896689b779350038162383994c5f9343a72d6ba8f6e7d635527); /* requirePre */ \nc_0xc722df10(0xb713f80cb69115fa16005c5a8b4847188353f445217bdb35c86b151fca832bec); /* statement */ \nrequire(block.timestamp <= expireDate, \"CommunityGift ended\");c_0xc722df10(0x8b9e3ccc544df704b595838dbcf8022d3818517e1a7aef2ac9fb3a9f459db4fa); /* requirePost */ \n\nc_0xc722df10(0x01aa74311cf770ce4c5d36434da3dbdeacc4c4ad3e9ac8e80401e168aecc315f); /* line */ \n        c_0xc722df10(0xe66fd7544d6e3dbbb8e36d09691317ee67756477a9abf64bd91dc626d72fe1d1); /* requirePre */ \nc_0xc722df10(0x0b29ccc0d8354a116a031c866afd846d2f8366171e269297e5342aadc745c61e); /* statement */ \nrequire(communityGifts[_msgSender()].exist, \"User not exist\");c_0xc722df10(0x72e847ba80b2e7592a7ff5fc808eb79c3e5f4afc9303e6af2884d5c0c023bade); /* requirePost */ \n\nc_0xc722df10(0x2105c1186001358e09012fd7cf99f5ba425a3f6663f75a93cd4d8fa0e3c15768); /* line */ \n        c_0xc722df10(0xcea48eb5ab70bfdccb0b5f5486c1fc9c0e90ba8454e37154635c42a34de8dca7); /* requirePre */ \nc_0xc722df10(0x3a12e572d24345bc92c994698cc30ff3b3a5032caff678fb8b91a18e8ddabce9); /* statement */ \nrequire(!communityGifts[_msgSender()].claimed, \"Claimed before\");c_0xc722df10(0xf717d2570007fb1a2d67fc20a79aaee3d23614850ec4bd5dfe7a9437da3ea0ae); /* requirePost */ \n\n\nc_0xc722df10(0xb7db88e8bfb29f3c705acfa8b5af15c489b4ca3fc7568ba53c7e385e5ba08317); /* line */ \n        c_0xc722df10(0x3e50347dbd873f7517c3d989ec6b2b0d8e980a392aba6063fc57340ff756e59e); /* statement */ \nuint256 treeId = toClaim;\nc_0xc722df10(0x928dbfc9582b01e6002f60e82b1762adc1c11f3a169fa51e01f2e7e647fc4127); /* line */ \n        c_0xc722df10(0x33c4de82cb44252be5657c20cd6303747e741b9a171f31242bf714920029d0c6); /* statement */ \ntoClaim += 1;\n\nc_0xc722df10(0xee50b871774f3831a9ff13d3b4285c0d00b9819c3a8d91febcfd7b05a249fd28); /* line */ \n        c_0xc722df10(0x0d7bfb773df7078f2a912a9145c9e512823d91ae421da0c89e674a12b65f58a1); /* statement */ \ncommunityGift.claimed = true;\n\nc_0xc722df10(0x73d014324bdaa4b055bfcbbdc11182f22948d6b7e0f5ff37120073be367f4a47); /* line */ \n        c_0xc722df10(0xdc49b4916395aba66eef292afa69ee651b3f9cf050bcb84a7a7cf6a90addd5f5); /* statement */ \ntreeAttribute.setTreeAttributesByAdmin(treeId, communityGift.symbol);\n\nc_0xc722df10(0x15342ff2b3748861f72f328152525b780cce042d2ecb55845bc98cdd6a2b6ee6); /* line */ \n        c_0xc722df10(0xcec50dcd6211b523c66d3e2fb947db185eed55f6385b2cb5034cbdaa264029b7); /* statement */ \nplanterFundContract.setPlanterFunds(treeId, planterFund, referralFund);\n\nc_0xc722df10(0x950278851506ad5957ddc65b4f8fc3818fd6834d18212ed517f1c923eb57582d); /* line */ \n        c_0xc722df10(0xfe47d0369e0b73d072d510f58efcd18a8e708681f445c12ffb2680454e20c3c3); /* statement */ \ntreeFactory.updateOwner(treeId, _msgSender(), 3);\n\nc_0xc722df10(0x1041adb7bc34ec417a826af9b163e4197023df3e461bca00dd8f42ff483801ab); /* line */ \n        c_0xc722df10(0x7cdc1a97e6421df5ebceb037b57bd8d4feeceb128311793114edfe9106ae9cc7); /* statement */ \nemit TreeClaimed(treeId);\n    }\n\n    /** @dev admin can set the maximum time that giftees can claim their gift before\n     * expire date of community gift reach\n     * @param _expireDate is the maximum time to claim tree\n     */\n    function setExpireDate(uint256 _expireDate) external onlyDataManager {c_0xc722df10(0x6ce7b56124256ad88d0f71a9407166b984e66e461e3f1ba95c973409302313f0); /* function */ \n\nc_0xc722df10(0x3f6a1453779b0102ab5e2ca497c694b521afc7a599f5336a22257b6873878a39); /* line */ \n        c_0xc722df10(0x1e355f6ea2f6bbf30cb6a5258ca19f690618caf9a89b2d17f07810cbfbba04b8); /* requirePre */ \nc_0xc722df10(0x441e70f40c7aab8fc7c0634fbf47f5825abc46d3672b1b428c6f24562f7c52d7); /* statement */ \nrequire(block.timestamp < expireDate, \"can not update expire date\");c_0xc722df10(0x941720dbfbde957b3ad1b8bee6d10fc3696d3f497d36e3964f174a8e445a024f); /* requirePost */ \n\nc_0xc722df10(0x97f7c2c8d6a3be40bd66c84c76dc6ee162f5de447b69df9521491d3334af506c); /* line */ \n        c_0xc722df10(0xff79eb3e9c2ee01ad17e908dfb30844e927fc0441ee75c1efc47438756879708); /* statement */ \nexpireDate = _expireDate;\n    }\n\n    /** @dev if giftee did not claim gift, admin can transfer reserved symbol to\n     * a giftee\n     * @param _giftee is the address of giftee to transfer gift\n     * @param _symbol is the reserved symbol is transfering to giftee\n     * NOTE ownership of tree transfer to giftee\n     * NOTE planterFund and referralFund of tree updated in planterFund contract\n     */\n\n    function transferTree(address _giftee, uint32 _symbol)\n        external\n        ifNotPaused\n        onlyDataManager\n    {c_0xc722df10(0xd759818caf7b290b55df78f8e80f7e24b5da5703c986cbf9c28d51ccce5e6b72); /* function */ \n\nc_0xc722df10(0x6a76c6f7e4283a56815d26d9a09087bd4cc19ad70d359bbd464cbb4cdd4348e3); /* line */ \n        c_0xc722df10(0x877d1af192894576f8600975b1559df956c7d371251b6dfaa2104825b89ec072); /* requirePre */ \nc_0xc722df10(0x818c51a4f8a39380c8484953e3ce81cb3321a1696eabbda322a89a671181236b); /* statement */ \nrequire(\n            block.timestamp > expireDate,\n            \"CommunityGift Time not yet ended\"\n        );c_0xc722df10(0x386a79680ac255e7ce7d0a47bbe0665fd06528578e11462e7d6ac75494fec5d8); /* requirePost */ \n\n\nc_0xc722df10(0x85b3f646e4639292db009df88c588b5288a31728eee68764effb77625e028aac); /* line */ \n        c_0xc722df10(0xc3b8dfe1390ccb4b4ff47ece4132ecac4c30191237e256402593e276ce6b53e3); /* requirePre */ \nc_0xc722df10(0x08cc3621cef955ba891c11d26fee2a162a40bc64fc663e1a55503c4c65fed857); /* statement */ \nrequire(toClaim < upTo, \"tree is not for community gift\");c_0xc722df10(0xe8537230791d6a07e8ceca6eaf2cce75e3852f4462c9984d62242b22d864c9a6); /* requirePost */ \n\n\nc_0xc722df10(0xe7782dbc8e133318feaebe75f77b7a61a1d05be264badb9b7407e64e14598715); /* line */ \n        c_0xc722df10(0xb38cf5d6bd7dd6ff259004f06c3f50bf5dd96e4c778bc8a692fa00cff08d3b08); /* statement */ \nuint256 treeId = toClaim;\n\nc_0xc722df10(0x7a9be75dd8b7c90fe5fa8ffa1773b1785baf482b33f68c28c23d458eb053309a); /* line */ \n        c_0xc722df10(0xd13ee656addc627339832284640efb58b242f0492a1b3b64d66abe4a6462aa16); /* statement */ \ntoClaim += 1;\n\nc_0xc722df10(0x224bf7762fbbc9113b55b8ae01223a77da15eb8d5c643f73bd8765f3166b2dac); /* line */ \n        c_0xc722df10(0x4445faca135b8c0f72112bbb487d2e7217c514cfb684b29ddabdc11ca7e5d7c5); /* statement */ \ntreeAttribute.setTreeAttributesByAdmin(treeId, _symbol);\n\nc_0xc722df10(0xa75f20416f3fba413bb1467acf4a7e916d4e2e944d11152158a5788eb016c44e); /* line */ \n        c_0xc722df10(0x25a1c5f536f4a9ca6a73f01a236052f2a649a25f0241b8e1768af14a26e50ebf); /* statement */ \nplanterFundContract.setPlanterFunds(treeId, planterFund, referralFund);\n\nc_0xc722df10(0x9d1d96717b1cc247889ddd609b3c390e3eda1c41b0d4f9316f00a3fb0b05ad02); /* line */ \n        c_0xc722df10(0x8154c7aba335c50740c1ad92b9b235199c15af9a1ea68a801b1b3d0d3f231a0a); /* statement */ \ntreeFactory.updateOwner(treeId, _giftee, 3);\n\nc_0xc722df10(0x7edb829450f5b313fd81cc3569e7a2b4743afba4af113efab2b009fd3ed81e1e); /* line */ \n        c_0xc722df10(0x804bd3eeffcd6eaf34b8984aab7d96b66d2104733f45982af1016655b1ca1398); /* statement */ \nemit TreeTransfered(treeId);\n    }\n\n    /** @dev admin can set planter and referral funds amount\n     * @param _planterFund is the planter fund amount\n     * @param _referralFund is the referral fund amount\n     */\n\n    function setPrice(uint256 _planterFund, uint256 _referralFund)\n        external\n        onlyDataManager\n    {c_0xc722df10(0x11b80aa7e377445662dae9142b7882ba0740c2b4bdb3af15fa74f2570d124c86); /* function */ \n\nc_0xc722df10(0xcda3428087d0ab5bf179e25879e2d30b36a6158d62a282488d6a09ca5d68e0e2); /* line */ \n        c_0xc722df10(0x6a27289f56718a77e2ba641791eccd39dd54c50b7178ae00b002e3c515cfb6c7); /* statement */ \nplanterFund = _planterFund;\nc_0xc722df10(0x845babfd7bae50d467739fc4d8dd8b57e00cfcbea16b3fe8e96fc4f0c108644e); /* line */ \n        c_0xc722df10(0xbeec4b87b83eb869c0c5dbd9f6efd022081e6fde1e3a396e42d2b4377e170e36); /* statement */ \nreferralFund = _referralFund;\n\nc_0xc722df10(0x8c79af59d5572db1e935f5bd9e955e5e99e7f3f7835fc5d422f9a550cc1a6a85); /* line */ \n        c_0xc722df10(0xd8b18d624515e8a0f57186afab822e7fade259a4aac90ac9510bb66cc846d82f); /* statement */ \nemit CommunityGiftPlanterFund(_planterFund, _referralFund);\n    }\n}\n",
  "sourcePath": "/home/smuggler/contract/.coverage_contracts/communityGifts/CommunityGifts.sol",
  "compiler": {
    "name": "solc",
    "version": "0.8.6+commit.11564f7e.Emscripten.clang"
  },
  "schemaVersion": "3.4.1",
  "updatedAt": "2021-08-31T13:33:31.239Z",
  "devdoc": {
    "kind": "dev",
    "methods": {
      "claimTree()": {
        "details": "giftee can claim assigned tree before communityGift expireDate and ownership of tree transfered to giftee NOTE giftees that claim their gift soon get low tree id NOTE planterFund and referralFund of tree updated in planterFund contract"
      },
      "initialize(address,uint256,uint256,uint256)": {
        "details": "initialize accessRestriction contract and set true for isCommunityGifts set expire date and planterFund and referralFund initial value",
        "params": {
          "_accessRestrictionAddress": "set to the address of accessRestriction contract",
          "_expireDate": "initial expire date",
          "_planterFund": "initial planter fund",
          "_referralFund": "initial referral fund"
        }
      },
      "setDaiTokenAddress(address)": {
        "details": "admin set DaiToken address",
        "params": {
          "_daiTokenAddress": "set to the address of DaiToken"
        }
      },
      "setExpireDate(uint256)": {
        "details": "admin can set the maximum time that giftees can claim their gift before expire date of community gift reach",
        "params": {
          "_expireDate": "is the maximum time to claim tree"
        }
      },
      "setGiftsRange(uint256,uint256,uint256,uint256,uint64,address)": {
        "details": "admin set the gift range from {_startTreeId} to {_endTreeId} with planter fund amount {_planterFund} and referral fund amount {_referralFund} NOTE community gift ends at {_expireDate} and giftees can claim gifts until {_expireDate} NOTE when a community gift set {_adminWalletAddress} transfer total value of trees calculated based on planter and referral funds and number of gifted trees to planterFund contract",
        "params": {
          "_adminWalletAddress": "address of the admin wallet",
          "_endTreeId": "ending tree id for gifts range",
          "_expireDate": "expire date of community gift",
          "_planterFund": "planter fund amount",
          "_referralFund": "referral fund amount",
          "_startTreeId": "stating tree id for gifts range"
        }
      },
      "setPlanterFundAddress(address)": {
        "details": "admin set PlanterFundAddress",
        "params": {
          "_address": "set to the address of PlanterFund"
        }
      },
      "setPrice(uint256,uint256)": {
        "details": "admin can set planter and referral funds amount",
        "params": {
          "_planterFund": "is the planter fund amount",
          "_referralFund": "is the referral fund amount"
        }
      },
      "setTreeAttributesAddress(address)": {
        "details": "admin set TreeAttributesAddress",
        "params": {
          "_address": "set to the address of treeAttribute"
        }
      },
      "setTreeFactoryAddress(address)": {
        "details": "admin set TreeFactoryAddress",
        "params": {
          "_address": "set to the address of treeFactory"
        }
      },
      "setTrustedForwarder(address)": {
        "details": "admin set the trustedForwarder adress",
        "params": {
          "_address": "is the address of trusted forwarder"
        }
      },
      "transferTree(address,uint32)": {
        "details": "if giftee did not claim gift, admin can transfer reserved symbol to a giftee",
        "params": {
          "_giftee": "is the address of giftee to transfer gift",
          "_symbol": "is the reserved symbol is transfering to giftee NOTE ownership of tree transfer to giftee NOTE planterFund and referralFund of tree updated in planterFund contract"
        }
      },
      "updateGiftees(address,uint32)": {
        "details": "admin assign an unique symbol to a giftee",
        "params": {
          "_giftee": "address of giftee",
          "_symbol": "unique symbol assigned to a giftee"
        }
      },
      "versionRecipient()": {
        "details": "return version recipient "
      }
    },
    "title": "CommunityGifts ",
    "version": 1
  },
  "userdoc": {
    "kind": "user",
    "methods": {
      "communityGifts(address)": {
        "notice": "NOTE mapping of giftee address to CommunityGift struct "
      },
      "expireDate()": {
        "notice": "NOTE {expireDate} is the maximum time that giftee can claim tree "
      },
      "giftCount()": {
        "notice": "NOTE {giftCount} is total number of trees that are gifted to someone "
      },
      "isCommunityGifts()": {
        "notice": "NOTE {isCommunityGifts} set inside the initialize to {true} "
      },
      "isTrustedForwarder(address)": {
        "notice": "return if the forwarder is trusted to forward relayed transactions to us. the forwarder is required to verify the sender's signature, and verify the call is not a replay."
      },
      "maxGiftCount()": {
        "notice": "NOTE maximum amount of gift trees"
      },
      "planterFund()": {
        "notice": "NOTE {planterFund} is share of plater when a tree claimed or transfered to someone"
      },
      "referralFund()": {
        "notice": "NOTE {referralFund} is share of referral when a tree claimed or transfered to someone"
      },
      "toClaim()": {
        "notice": "NOTE id of tree to claim "
      },
      "upTo()": {
        "notice": "NOTE maximum id of trees can be claimed up to it "
      }
    },
    "version": 1
  }
}