{
  "contractName": "DaiFunds",
  "abi": [
    {
      "anonymous": false,
      "inputs": [
        {
          "indexed": false,
          "internalType": "uint256",
          "name": "amount",
          "type": "uint256"
        },
        {
          "indexed": false,
          "internalType": "address",
          "name": "account",
          "type": "address"
        },
        {
          "indexed": false,
          "internalType": "string",
          "name": "reason",
          "type": "string"
        }
      ],
      "name": "LocalDevelopBalanceWithdrawn",
      "type": "event"
    },
    {
      "anonymous": false,
      "inputs": [
        {
          "indexed": false,
          "internalType": "uint256",
          "name": "amount",
          "type": "uint256"
        },
        {
          "indexed": false,
          "internalType": "address",
          "name": "account",
          "type": "address"
        },
        {
          "indexed": false,
          "internalType": "string",
          "name": "reason",
          "type": "string"
        }
      ],
      "name": "RescueBalanceWithdrawn",
      "type": "event"
    },
    {
      "anonymous": false,
      "inputs": [
        {
          "indexed": false,
          "internalType": "uint256",
          "name": "amount",
          "type": "uint256"
        },
        {
          "indexed": false,
          "internalType": "address",
          "name": "account",
          "type": "address"
        },
        {
          "indexed": false,
          "internalType": "string",
          "name": "reason",
          "type": "string"
        }
      ],
      "name": "ReserveBalanceWithdrawn1",
      "type": "event"
    },
    {
      "anonymous": false,
      "inputs": [
        {
          "indexed": false,
          "internalType": "uint256",
          "name": "amount",
          "type": "uint256"
        },
        {
          "indexed": false,
          "internalType": "address",
          "name": "account",
          "type": "address"
        },
        {
          "indexed": false,
          "internalType": "string",
          "name": "reason",
          "type": "string"
        }
      ],
      "name": "ReserveBalanceWithdrawn2",
      "type": "event"
    },
    {
      "anonymous": false,
      "inputs": [
        {
          "indexed": false,
          "internalType": "uint256",
          "name": "treeId",
          "type": "uint256"
        },
        {
          "indexed": false,
          "internalType": "uint256",
          "name": "amount",
          "type": "uint256"
        },
        {
          "indexed": false,
          "internalType": "uint256",
          "name": "planterPart",
          "type": "uint256"
        }
      ],
      "name": "TreeFunded",
      "type": "event"
    },
    {
      "anonymous": false,
      "inputs": [
        {
          "indexed": false,
          "internalType": "uint256",
          "name": "amount",
          "type": "uint256"
        },
        {
          "indexed": false,
          "internalType": "address",
          "name": "account",
          "type": "address"
        },
        {
          "indexed": false,
          "internalType": "string",
          "name": "reason",
          "type": "string"
        }
      ],
      "name": "TreeResearchBalanceWithdrawn",
      "type": "event"
    },
    {
      "anonymous": false,
      "inputs": [
        {
          "indexed": false,
          "internalType": "uint256",
          "name": "amount",
          "type": "uint256"
        },
        {
          "indexed": false,
          "internalType": "address",
          "name": "account",
          "type": "address"
        },
        {
          "indexed": false,
          "internalType": "string",
          "name": "reason",
          "type": "string"
        }
      ],
      "name": "TreejerDevelopBalanceWithdrawn",
      "type": "event"
    },
    {
      "inputs": [],
      "name": "accessRestriction",
      "outputs": [
        {
          "internalType": "contract IAccessRestriction",
          "name": "",
          "type": "address"
        }
      ],
      "stateMutability": "view",
      "type": "function"
    },
    {
      "inputs": [],
      "name": "daiToken",
      "outputs": [
        {
          "internalType": "contract IERC20Upgradeable",
          "name": "",
          "type": "address"
        }
      ],
      "stateMutability": "view",
      "type": "function"
    },
    {
      "inputs": [],
      "name": "isDaiFunds",
      "outputs": [
        {
          "internalType": "bool",
          "name": "",
          "type": "bool"
        }
      ],
      "stateMutability": "view",
      "type": "function"
    },
    {
      "inputs": [],
      "name": "localDevelopAddress",
      "outputs": [
        {
          "internalType": "address",
          "name": "",
          "type": "address"
        }
      ],
      "stateMutability": "view",
      "type": "function"
    },
    {
      "inputs": [],
      "name": "planterFundContract",
      "outputs": [
        {
          "internalType": "contract IPlanterFund",
          "name": "",
          "type": "address"
        }
      ],
      "stateMutability": "view",
      "type": "function"
    },
    {
      "inputs": [],
      "name": "rescueFundAddress",
      "outputs": [
        {
          "internalType": "address",
          "name": "",
          "type": "address"
        }
      ],
      "stateMutability": "view",
      "type": "function"
    },
    {
      "inputs": [],
      "name": "reserveFundAddress1",
      "outputs": [
        {
          "internalType": "address",
          "name": "",
          "type": "address"
        }
      ],
      "stateMutability": "view",
      "type": "function"
    },
    {
      "inputs": [],
      "name": "reserveFundAddress2",
      "outputs": [
        {
          "internalType": "address",
          "name": "",
          "type": "address"
        }
      ],
      "stateMutability": "view",
      "type": "function"
    },
    {
      "inputs": [],
      "name": "totalFunds",
      "outputs": [
        {
          "internalType": "uint256",
          "name": "treeResearch",
          "type": "uint256"
        },
        {
          "internalType": "uint256",
          "name": "localDevelop",
          "type": "uint256"
        },
        {
          "internalType": "uint256",
          "name": "rescueFund",
          "type": "uint256"
        },
        {
          "internalType": "uint256",
          "name": "treejerDevelop",
          "type": "uint256"
        },
        {
          "internalType": "uint256",
          "name": "reserveFund1",
          "type": "uint256"
        },
        {
          "internalType": "uint256",
          "name": "reserveFund2",
          "type": "uint256"
        }
      ],
      "stateMutability": "view",
      "type": "function"
    },
    {
      "inputs": [],
      "name": "treeResearchAddress",
      "outputs": [
        {
          "internalType": "address",
          "name": "",
          "type": "address"
        }
      ],
      "stateMutability": "view",
      "type": "function"
    },
    {
      "inputs": [],
      "name": "treejerDevelopAddress",
      "outputs": [
        {
          "internalType": "address",
          "name": "",
          "type": "address"
        }
      ],
      "stateMutability": "view",
      "type": "function"
    },
    {
      "inputs": [
        {
          "internalType": "bytes32",
          "name": "c__0x934e0368",
          "type": "bytes32"
        }
      ],
      "name": "c_0x934e0368",
      "outputs": [],
      "stateMutability": "pure",
      "type": "function"
    },
    {
      "inputs": [
        {
          "internalType": "address",
          "name": "_accessRestrictionAddress",
          "type": "address"
        }
      ],
      "name": "initialize",
      "outputs": [],
      "stateMutability": "nonpayable",
      "type": "function"
    },
    {
      "inputs": [
        {
          "internalType": "address",
          "name": "_daiTokenAddress",
          "type": "address"
        }
      ],
      "name": "setDaiTokenAddress",
      "outputs": [],
      "stateMutability": "nonpayable",
      "type": "function"
    },
    {
      "inputs": [
        {
          "internalType": "address",
          "name": "_address",
          "type": "address"
        }
      ],
      "name": "setPlanterFundContractAddress",
      "outputs": [],
      "stateMutability": "nonpayable",
      "type": "function"
    },
    {
      "inputs": [
        {
          "internalType": "address payable",
          "name": "_address",
          "type": "address"
        }
      ],
      "name": "setTreeResearchAddress",
      "outputs": [],
      "stateMutability": "nonpayable",
      "type": "function"
    },
    {
      "inputs": [
        {
          "internalType": "address payable",
          "name": "_address",
          "type": "address"
        }
      ],
      "name": "setLocalDevelopAddress",
      "outputs": [],
      "stateMutability": "nonpayable",
      "type": "function"
    },
    {
      "inputs": [
        {
          "internalType": "address payable",
          "name": "_address",
          "type": "address"
        }
      ],
      "name": "setRescueFundAddress",
      "outputs": [],
      "stateMutability": "nonpayable",
      "type": "function"
    },
    {
      "inputs": [
        {
          "internalType": "address payable",
          "name": "_address",
          "type": "address"
        }
      ],
      "name": "setTreejerDevelopAddress",
      "outputs": [],
      "stateMutability": "nonpayable",
      "type": "function"
    },
    {
      "inputs": [
        {
          "internalType": "address payable",
          "name": "_address",
          "type": "address"
        }
      ],
      "name": "setReserveFund1Address",
      "outputs": [],
      "stateMutability": "nonpayable",
      "type": "function"
    },
    {
      "inputs": [
        {
          "internalType": "address payable",
          "name": "_address",
          "type": "address"
        }
      ],
      "name": "setReserveFund2Address",
      "outputs": [],
      "stateMutability": "nonpayable",
      "type": "function"
    },
    {
      "inputs": [
        {
          "internalType": "uint256",
          "name": "_treeId",
          "type": "uint256"
        },
        {
          "internalType": "uint256",
          "name": "_amount",
          "type": "uint256"
        },
        {
          "internalType": "uint16",
          "name": "_planterFund",
          "type": "uint16"
        },
        {
          "internalType": "uint16",
          "name": "_referralFund",
          "type": "uint16"
        },
        {
          "internalType": "uint16",
          "name": "_treeResearch",
          "type": "uint16"
        },
        {
          "internalType": "uint16",
          "name": "_localDevelop",
          "type": "uint16"
        },
        {
          "internalType": "uint16",
          "name": "_rescueFund",
          "type": "uint16"
        },
        {
          "internalType": "uint16",
          "name": "_treejerDevelop",
          "type": "uint16"
        },
        {
          "internalType": "uint16",
          "name": "_reserveFund1",
          "type": "uint16"
        },
        {
          "internalType": "uint16",
          "name": "_reserveFund2",
          "type": "uint16"
        }
      ],
      "name": "fundTree",
      "outputs": [],
      "stateMutability": "nonpayable",
      "type": "function"
    },
    {
      "inputs": [
        {
          "internalType": "uint256",
          "name": "_amount",
          "type": "uint256"
        },
        {
          "internalType": "string",
          "name": "_reason",
          "type": "string"
        }
      ],
      "name": "withdrawTreeResearch",
      "outputs": [],
      "stateMutability": "nonpayable",
      "type": "function"
    },
    {
      "inputs": [
        {
          "internalType": "uint256",
          "name": "_amount",
          "type": "uint256"
        },
        {
          "internalType": "string",
          "name": "_reason",
          "type": "string"
        }
      ],
      "name": "withdrawLocalDevelop",
      "outputs": [],
      "stateMutability": "nonpayable",
      "type": "function"
    },
    {
      "inputs": [
        {
          "internalType": "uint256",
          "name": "_amount",
          "type": "uint256"
        },
        {
          "internalType": "string",
          "name": "_reason",
          "type": "string"
        }
      ],
      "name": "withdrawRescueFund",
      "outputs": [],
      "stateMutability": "nonpayable",
      "type": "function"
    },
    {
      "inputs": [
        {
          "internalType": "uint256",
          "name": "_amount",
          "type": "uint256"
        },
        {
          "internalType": "string",
          "name": "_reason",
          "type": "string"
        }
      ],
      "name": "withdrawTreejerDevelop",
      "outputs": [],
      "stateMutability": "nonpayable",
      "type": "function"
    },
    {
      "inputs": [
        {
          "internalType": "uint256",
          "name": "_amount",
          "type": "uint256"
        },
        {
          "internalType": "string",
          "name": "_reason",
          "type": "string"
        }
      ],
      "name": "withdrawReserveFund1",
      "outputs": [],
      "stateMutability": "nonpayable",
      "type": "function"
    },
    {
      "inputs": [
        {
          "internalType": "uint256",
          "name": "_amount",
          "type": "uint256"
        },
        {
          "internalType": "string",
          "name": "_reason",
          "type": "string"
        }
      ],
      "name": "withdrawReserveFund2",
      "outputs": [],
      "stateMutability": "nonpayable",
      "type": "function"
    }
  ],
  "bytecode": "0x608060405234801561001057600080fd5b50616d2a80620000216000396000f3fe608060405234801561001057600080fd5b50600436106101c45760003560e01c806399fece40116100f9578063c4d66de811610097578063e5356a6511610071578063e5356a6514610482578063ed3b0a001461049e578063f1326b15146104bc578063ff4eb8bb146104d8576101c4565b8063c4d66de81461042c578063cb13011c14610448578063d6762c4a14610464576101c4565b8063a47fddb0116100d3578063a47fddb0146103b8578063b3675832146103d6578063ba6138a5146103f2578063be22f5461461040e576101c4565b806399fece40146103625780639e6454aa1461037e578063a037edcc1461039a576101c4565b80635f335a931161016657806380d663ea1161014057806380d663ea146102e95780638194b85b1461030757806384457b6314610323578063968ed6001461033f576101c4565b80635f335a9314610291578063673dba21146102af5780637a876fd8146102cb576101c4565b806347c7d737116101a257806347c7d737146102215780634fe496741461023d578063536ad73a146102595780635773780d14610275576101c4565b80630a43649a146101c9578063233ac7aa146101e7578063310f6dec14610203575b600080fd5b6101d16104f4565b6040516101de91906166fd565b60405180910390f35b61020160048036038101906101fc9190616424565b61051a565b005b61020b610897565b60405161021891906166fd565b60405180910390f35b61023b6004803603810190610236919061647e565b6108bd565b005b61025760048036038101906102529190616424565b6108c0565b005b610273600480360381019061026e91906164ab565b610c3d565b005b61028f600480360381019061028a91906163f7565b6114c1565b005b610299611859565b6040516102a691906166fd565b60405180910390f35b6102c960048036038101906102c491906164ab565b61187f565b005b6102d3612102565b6040516102e091906166fd565b60405180910390f35b6102f1612128565b6040516102fe9190616792565b60405180910390f35b610321600480360381019061031c9190616424565b61214e565b005b61033d60048036038101906103389190616424565b6124cb565b005b610347612848565b604051610359969594939291906168a4565b60405180910390f35b61037c600480360381019061037791906164ab565b612872565b005b61039860048036038101906103939190616424565b6130f7565b005b6103a2613474565b6040516103af91906166fd565b60405180910390f35b6103c061349a565b6040516103cd91906166fd565b60405180910390f35b6103f060048036038101906103eb919061650b565b6134c0565b005b61040c600480360381019061040791906164ab565b613e36565b005b6104166146bb565b6040516104239190616777565b60405180910390f35b610446600480360381019061044191906163f7565b6146e1565b005b610462600480360381019061045d9190616424565b614a88565b005b61046c614e05565b604051610479919061675c565b60405180910390f35b61049c600480360381019061049791906164ab565b614e2b565b005b6104a66156b0565b6040516104b39190616741565b60405180910390f35b6104d660048036038101906104d191906163f7565b6156c3565b005b6104f260048036038101906104ed91906164ab565b615a9e565b005b600a60009054906101000a900473ffffffffffffffffffffffffffffffffffffffff1681565b6105467fc31d46b57eb60fe22a7ffc4714b9a0f8368eafe91b7e4efe75f87720878cb1b860001b6108bd565b6105727f6204c12cc5ee9e6f9a9230820ccd67023c838b66f3e89ca1f421451ad70b105360001b6108bd565b61059e7f70a9674d9e18c33a20cce8f5c0247a06a9a327dd22b4c9f97e516a03554dc77b60001b6108bd565b600060039054906101000a900473ffffffffffffffffffffffffffffffffffffffff1673ffffffffffffffffffffffffffffffffffffffff16638413ec14336040518263ffffffff1660e01b81526004016105f991906166fd565b60006040518083038186803b15801561061157600080fd5b505afa158015610625573d6000803e3d6000fd5b505050506106557febcedd155137746292a6767ec80da696547d45bb4aa2aaa12490fd26cb4d81f460001b6108bd565b806106827f795a63b1ec044e9998eb5be4e4863c3aaa67da02ebefc0ecd780fe31b7cb268660001b6108bd565b6106ae7f8542d49a5c0b8ac9c936e3b4bb9684b4ca156ac0a8ff1daba4dba27c7b8de99360001b6108bd565b6106da7fae1505d7f387e6dfb5217bfb5f220a97d1f999454f26b0be8ef533321ac4bd9160001b6108bd565b6107067f3b8e2174a8dbcd4bb9e9db43f5cfcbe5c98abe64a29e3903c051e272892dd91e60001b6108bd565b600073ffffffffffffffffffffffffffffffffffffffff168173ffffffffffffffffffffffffffffffffffffffff161415610776576040517f08c379a000000000000000000000000000000000000000000000000000000000815260040161076d906167ed565b60405180910390fd5b6107a27f1e4f64cc94b43caa66f1ab11a502122e440b4ba1148e708304939f7ac23a456060001b6108bd565b6107ce7f9b82f95c59152ce05cfb57016352b45011c30555f344ee5c87c7ba5c773e900660001b6108bd565b6107fa7f1416a5534c1178e2d848d37cb8514a147c0d87d8c6738fcb640f38d515c7384060001b6108bd565b6108267fde788727ca9fdd70891cef288edef51306774250f561ca2b0c7384968f2e9faa60001b6108bd565b6108527f3b1afc6a18b2b9899c7ec12508117fcaff419ec80eb101af28ddb260e28fc0b860001b6108bd565b81600c60006101000a81548173ffffffffffffffffffffffffffffffffffffffff021916908373ffffffffffffffffffffffffffffffffffffffff1602179055505050565b600b60009054906101000a900473ffffffffffffffffffffffffffffffffffffffff1681565b50565b6108ec7fc31d46b57eb60fe22a7ffc4714b9a0f8368eafe91b7e4efe75f87720878cb1b860001b6108bd565b6109187f6204c12cc5ee9e6f9a9230820ccd67023c838b66f3e89ca1f421451ad70b105360001b6108bd565b6109447f70a9674d9e18c33a20cce8f5c0247a06a9a327dd22b4c9f97e516a03554dc77b60001b6108bd565b600060039054906101000a900473ffffffffffffffffffffffffffffffffffffffff1673ffffffffffffffffffffffffffffffffffffffff16638413ec14336040518263ffffffff1660e01b815260040161099f91906166fd565b60006040518083038186803b1580156109b757600080fd5b505afa1580156109cb573d6000803e3d6000fd5b505050506109fb7febcedd155137746292a6767ec80da696547d45bb4aa2aaa12490fd26cb4d81f460001b6108bd565b80610a287f795a63b1ec044e9998eb5be4e4863c3aaa67da02ebefc0ecd780fe31b7cb268660001b6108bd565b610a547f8542d49a5c0b8ac9c936e3b4bb9684b4ca156ac0a8ff1daba4dba27c7b8de99360001b6108bd565b610a807fae1505d7f387e6dfb5217bfb5f220a97d1f999454f26b0be8ef533321ac4bd9160001b6108bd565b610aac7f3b8e2174a8dbcd4bb9e9db43f5cfcbe5c98abe64a29e3903c051e272892dd91e60001b6108bd565b600073ffffffffffffffffffffffffffffffffffffffff168173ffffffffffffffffffffffffffffffffffffffff161415610b1c576040517f08c379a0000000000000000000000000000000000000000000000000000000008152600401610b13906167ed565b60405180910390fd5b610b487f1e4f64cc94b43caa66f1ab11a502122e440b4ba1148e708304939f7ac23a456060001b6108bd565b610b747f9b82f95c59152ce05cfb57016352b45011c30555f344ee5c87c7ba5c773e900660001b6108bd565b610ba07fc7768577dfdc2398494a4a19b671dd75e4e3108c8aca286f4548592f0684458560001b6108bd565b610bcc7fe53487ae4069c6eea160028204502e12b211f7d068b4405fe474a2f8bf5ca34d60001b6108bd565b610bf87f254bb23029f5031d8f75c0146eac8083d00663ae7d2144caecfd5bf2848c002560001b6108bd565b81600e60006101000a81548173ffffffffffffffffffffffffffffffffffffffff021916908373ffffffffffffffffffffffffffffffffffffffff1602179055505050565b610c697f98481d4b14c9ee1049089f59021689b1e1de3256a92f12615bb25d1cf5add60560001b6108bd565b610c957f86181bdb24a510163e8083ff642036739d9acde225660b9debbaf75d57cae4d160001b6108bd565b610cc17f7ee9eec84fdc014278ae6a07e0f7193d1574299394b4f91dc4c0a3fa49271ae960001b6108bd565b600060039054906101000a900473ffffffffffffffffffffffffffffffffffffffff1673ffffffffffffffffffffffffffffffffffffffff16634d868f986040518163ffffffff1660e01b815260040160006040518083038186803b158015610d2957600080fd5b505afa158015610d3d573d6000803e3d6000fd5b50505050610d6d7fd0d9828d3a2c6f1997571326755747ea31de71a4e398a6c9cbffde09552aca3160001b6108bd565b610d997fc31d46b57eb60fe22a7ffc4714b9a0f8368eafe91b7e4efe75f87720878cb1b860001b6108bd565b610dc57f6204c12cc5ee9e6f9a9230820ccd67023c838b66f3e89ca1f421451ad70b105360001b6108bd565b610df17f70a9674d9e18c33a20cce8f5c0247a06a9a327dd22b4c9f97e516a03554dc77b60001b6108bd565b600060039054906101000a900473ffffffffffffffffffffffffffffffffffffffff1673ffffffffffffffffffffffffffffffffffffffff16638413ec14336040518263ffffffff1660e01b8152600401610e4c91906166fd565b60006040518083038186803b158015610e6457600080fd5b505afa158015610e78573d6000803e3d6000fd5b50505050610ea87febcedd155137746292a6767ec80da696547d45bb4aa2aaa12490fd26cb4d81f460001b6108bd565b600b60009054906101000a900473ffffffffffffffffffffffffffffffffffffffff16610ef77f795a63b1ec044e9998eb5be4e4863c3aaa67da02ebefc0ecd780fe31b7cb268660001b6108bd565b610f237f8542d49a5c0b8ac9c936e3b4bb9684b4ca156ac0a8ff1daba4dba27c7b8de99360001b6108bd565b610f4f7fae1505d7f387e6dfb5217bfb5f220a97d1f999454f26b0be8ef533321ac4bd9160001b6108bd565b610f7b7f3b8e2174a8dbcd4bb9e9db43f5cfcbe5c98abe64a29e3903c051e272892dd91e60001b6108bd565b600073ffffffffffffffffffffffffffffffffffffffff168173ffffffffffffffffffffffffffffffffffffffff161415610feb576040517f08c379a0000000000000000000000000000000000000000000000000000000008152600401610fe2906167ed565b60405180910390fd5b6110177f1e4f64cc94b43caa66f1ab11a502122e440b4ba1148e708304939f7ac23a456060001b6108bd565b6110437f9b82f95c59152ce05cfb57016352b45011c30555f344ee5c87c7ba5c773e900660001b6108bd565b61106f7f9870edffc2d6af6b9180eb9fce9d3fffce835d9952554f43c0aa24ec8d1b1e1f60001b6108bd565b61109b7f78635f8db00743f1708f144e4e87fba8d3052380ad2492b186de970d802edf5a60001b6108bd565b6110c77f2fd613aae2144a350385241aace5ae3dac06da5ae46afabfcfd8f11b4d5d877760001b6108bd565b6110f37fef15aef8e18154e6784584ea3d3d470527fadcd94a8d257dc3e652766e66ce1360001b6108bd565b60036002015484111580156111085750600084115b611147576040517f08c379a000000000000000000000000000000000000000000000000000000000815260040161113e906167ad565b60405180910390fd5b6111737feb1ccf3afd8d10d93b3be055de5c42228c1775df8feda6b777d0b95ca496ae7660001b6108bd565b61119f7fe10812c5bc064a8de3593285996f774a10e398dabc3b5c88df2e5c6ab6edbb7b60001b6108bd565b6111cb7f0a014fe76289476b8526dfff4273d93afb051327b5cdd55669dba3d2cfd11d4360001b6108bd565b83600360020160008282546111e091906169f7565b925050819055506112137f7279f04da3727458ed1b149dd792073a02c97e4706c01bf3c45ca1aa59fcd2d260001b6108bd565b61123f7fca601e9469d244ea71d09ba37ba60ecb50655ff0f96058399bc57e76199255da60001b6108bd565b6000600260009054906101000a900473ffffffffffffffffffffffffffffffffffffffff1673ffffffffffffffffffffffffffffffffffffffff1663a9059cbb600b60009054906101000a900473ffffffffffffffffffffffffffffffffffffffff16876040518363ffffffff1660e01b81526004016112c0929190616718565b602060405180830381600087803b1580156112da57600080fd5b505af11580156112ee573d6000803e3d6000fd5b505050506040513d601f19601f820116820180604052508101906113129190616451565b90506113407f8fd65cd37e833ec854d54dc08cc4f42801cd3113fe3b3218ff7dd4860891bd7960001b6108bd565b61136c7f7f4f4b15411d4f12d3666960bb555a76371fe35fb2d8d4796376b3e792f6f7f060001b6108bd565b6113987fde47418640c83ba480c1946cd9ee294edb1d2dc088e0c9dcfbfb8d980d09b55160001b6108bd565b806113d8576040517f08c379a00000000000000000000000000000000000000000000000000000000081526004016113cf906167cd565b60405180910390fd5b6114047fc57419e8c01065ee066377233c33544a419a2cc85e00395e1736cc2103a7eb8060001b6108bd565b61142f7e7da7533d6869d148863879dd2fa3d0966d7c2f6b5e0f5fe1aa81ed0c8e60e760001b6108bd565b61145b7f7609f829ebe33276a1d3c13d9f6d890512fea3ef6f606336016f1d194e996d7860001b6108bd565b7f85700b57d5ec89a15f491812de22a34a5bdca335fc68880dbab357cf81151fab85600b60009054906101000a900473ffffffffffffffffffffffffffffffffffffffff1686866040516114b2949392919061682d565b60405180910390a15050505050565b6114ed7fc31d46b57eb60fe22a7ffc4714b9a0f8368eafe91b7e4efe75f87720878cb1b860001b6108bd565b6115197f6204c12cc5ee9e6f9a9230820ccd67023c838b66f3e89ca1f421451ad70b105360001b6108bd565b6115457f70a9674d9e18c33a20cce8f5c0247a06a9a327dd22b4c9f97e516a03554dc77b60001b6108bd565b600060039054906101000a900473ffffffffffffffffffffffffffffffffffffffff1673ffffffffffffffffffffffffffffffffffffffff16638413ec14336040518263ffffffff1660e01b81526004016115a091906166fd565b60006040518083038186803b1580156115b857600080fd5b505afa1580156115cc573d6000803e3d6000fd5b505050506115fc7febcedd155137746292a6767ec80da696547d45bb4aa2aaa12490fd26cb4d81f460001b6108bd565b6116287f9c61e34f27eaeedc2e21044024bfe99fe714856976e324c4a5bc140053a6a29060001b6108bd565b6116547f36fa425e5afb9976daa03a0105b8fef3608a704d1c9af2b3f1c46245142e4cca60001b6108bd565b6116807f097809fec9d05a272945e9b60561d3921ee67d5c98e547a3d724f91758ab193d60001b6108bd565b60008190506116b17f4d0ef0096542120e0a6d3419348cc4e897b7fc2fafde488e9b3318fe4abe684d60001b6108bd565b6116dd7f1aac4b71ad4eae3cd73cdf38d44700aa5eaf39fd134a0579d6cc297e5d1080a960001b6108bd565b6117097f380360ea48fe1da4e9086ebdae806816ba32db4b52a721458481f683f4cd2f7b60001b6108bd565b8073ffffffffffffffffffffffffffffffffffffffff1663349904da6040518163ffffffff1660e01b815260040160206040518083038186803b15801561174f57600080fd5b505afa158015611763573d6000803e3d6000fd5b505050506040513d601f19601f820116820180604052508101906117879190616451565b61179057600080fd5b6117bc7f28ed7b68672aaa7892abd155ad9ddfdc6330c8d8da922f5686e5b55dc669e15160001b6108bd565b6117e87fa470205c6a4e2c322472bec90b6b6cd3db40ff1af3765999d0daa6d0c360b39360001b6108bd565b6118147fe380d3351f8f0ae0c9875b54588f9b0fa71578b8929070de4255e41183181cfc60001b6108bd565b80600160006101000a81548173ffffffffffffffffffffffffffffffffffffffff021916908373ffffffffffffffffffffffffffffffffffffffff1602179055505050565b600e60009054906101000a900473ffffffffffffffffffffffffffffffffffffffff1681565b6118ab7f98481d4b14c9ee1049089f59021689b1e1de3256a92f12615bb25d1cf5add60560001b6108bd565b6118d77f86181bdb24a510163e8083ff642036739d9acde225660b9debbaf75d57cae4d160001b6108bd565b6119037f7ee9eec84fdc014278ae6a07e0f7193d1574299394b4f91dc4c0a3fa49271ae960001b6108bd565b600060039054906101000a900473ffffffffffffffffffffffffffffffffffffffff1673ffffffffffffffffffffffffffffffffffffffff16634d868f986040518163ffffffff1660e01b815260040160006040518083038186803b15801561196b57600080fd5b505afa15801561197f573d6000803e3d6000fd5b505050506119af7fd0d9828d3a2c6f1997571326755747ea31de71a4e398a6c9cbffde09552aca3160001b6108bd565b6119db7fc31d46b57eb60fe22a7ffc4714b9a0f8368eafe91b7e4efe75f87720878cb1b860001b6108bd565b611a077f6204c12cc5ee9e6f9a9230820ccd67023c838b66f3e89ca1f421451ad70b105360001b6108bd565b611a337f70a9674d9e18c33a20cce8f5c0247a06a9a327dd22b4c9f97e516a03554dc77b60001b6108bd565b600060039054906101000a900473ffffffffffffffffffffffffffffffffffffffff1673ffffffffffffffffffffffffffffffffffffffff16638413ec14336040518263ffffffff1660e01b8152600401611a8e91906166fd565b60006040518083038186803b158015611aa657600080fd5b505afa158015611aba573d6000803e3d6000fd5b50505050611aea7febcedd155137746292a6767ec80da696547d45bb4aa2aaa12490fd26cb4d81f460001b6108bd565b600c60009054906101000a900473ffffffffffffffffffffffffffffffffffffffff16611b397f795a63b1ec044e9998eb5be4e4863c3aaa67da02ebefc0ecd780fe31b7cb268660001b6108bd565b611b657f8542d49a5c0b8ac9c936e3b4bb9684b4ca156ac0a8ff1daba4dba27c7b8de99360001b6108bd565b611b917fae1505d7f387e6dfb5217bfb5f220a97d1f999454f26b0be8ef533321ac4bd9160001b6108bd565b611bbd7f3b8e2174a8dbcd4bb9e9db43f5cfcbe5c98abe64a29e3903c051e272892dd91e60001b6108bd565b600073ffffffffffffffffffffffffffffffffffffffff168173ffffffffffffffffffffffffffffffffffffffff161415611c2d576040517f08c379a0000000000000000000000000000000000000000000000000000000008152600401611c24906167ed565b60405180910390fd5b611c597f1e4f64cc94b43caa66f1ab11a502122e440b4ba1148e708304939f7ac23a456060001b6108bd565b611c857f9b82f95c59152ce05cfb57016352b45011c30555f344ee5c87c7ba5c773e900660001b6108bd565b611cb17f33d18b9d58fef9090b708ccb05825a8a5ad29a8dff06e03e4cef09d07dd89d7060001b6108bd565b611cdd7f27ea03ab35e439f79cc008e80c2db4ad1754d6d64b65646e71ef6cb400e5e37a60001b6108bd565b611d097fefaac22c11e5359fc76c7bad416243ded8aa6435a759b2e1d8df0f38aecaeb9460001b6108bd565b611d357feeaba98e6f46e92ab69b47e2c9ca88cc53ecf35234d3de83386c7bf5871d73f260001b6108bd565b60038001548411158015611d495750600084115b611d88576040517f08c379a0000000000000000000000000000000000000000000000000000000008152600401611d7f906167ad565b60405180910390fd5b611db47fde0d434d5a559a0f89d0250ccc95bc21a2bef637f626078ea6e1083d196398eb60001b6108bd565b611de07f01858a6d606e304d8ab0d3a2ef603c749fa988a09653d05e015b25df6d89f41060001b6108bd565b611e0c7f3ede5d870aab882b5b59c3854007336e62899c97f91c8432e0134722b225e3a860001b6108bd565b83600380016000828254611e2091906169f7565b92505081905550611e537f7572b89ba4db164d4d5fed73aaaed0b74e6c4b139eb22bb40e18731bf10b7ec360001b6108bd565b611e7f7f8b60f69c8d8b2a46f6e6024fe787260b72072593babb04e49204a4121692ba7160001b6108bd565b6000600260009054906101000a900473ffffffffffffffffffffffffffffffffffffffff1673ffffffffffffffffffffffffffffffffffffffff1663a9059cbb600c60009054906101000a900473ffffffffffffffffffffffffffffffffffffffff16876040518363ffffffff1660e01b8152600401611f00929190616718565b602060405180830381600087803b158015611f1a57600080fd5b505af1158015611f2e573d6000803e3d6000fd5b505050506040513d601f19601f82011682018060405250810190611f529190616451565b9050611f807f76095280a25aa803d6e4c5dea71c49f0afb372b50d79bb5745ba9dd111ddea7660001b6108bd565b611fac7f3b36b189134f7c982d5b79521ee907939acbab5534dafe69143d0fe15ccc782060001b6108bd565b611fd87fd53951464b9d29e3e77150f2e944119083e1c0a7e38f83d306d3ecaf77a5f3d460001b6108bd565b80612018576040517f08c379a000000000000000000000000000000000000000000000000000000000815260040161200f906167cd565b60405180910390fd5b6120447fbe9e7a1faf46aaf8fd2d7fcf81af03ce04bb94942effc5da7020c0ee675c4a3e60001b6108bd565b6120707f9f6867972599125cb2424929c7c49312fd7120a379ced38b88072fb33227a8db60001b6108bd565b61209c7fce80e3ac128b19658b3225cc20cb826cf7633f5554b49a06bd26ac8f757a0f9660001b6108bd565b7f174f34055ef4d06c26032b349f20281a6e7b69b17352d03a658bb3c02561367b85600c60009054906101000a900473ffffffffffffffffffffffffffffffffffffffff1686866040516120f3949392919061682d565b60405180910390a15050505050565b600d60009054906101000a900473ffffffffffffffffffffffffffffffffffffffff1681565b600160009054906101000a900473ffffffffffffffffffffffffffffffffffffffff1681565b61217a7fc31d46b57eb60fe22a7ffc4714b9a0f8368eafe91b7e4efe75f87720878cb1b860001b6108bd565b6121a67f6204c12cc5ee9e6f9a9230820ccd67023c838b66f3e89ca1f421451ad70b105360001b6108bd565b6121d27f70a9674d9e18c33a20cce8f5c0247a06a9a327dd22b4c9f97e516a03554dc77b60001b6108bd565b600060039054906101000a900473ffffffffffffffffffffffffffffffffffffffff1673ffffffffffffffffffffffffffffffffffffffff16638413ec14336040518263ffffffff1660e01b815260040161222d91906166fd565b60006040518083038186803b15801561224557600080fd5b505afa158015612259573d6000803e3d6000fd5b505050506122897febcedd155137746292a6767ec80da696547d45bb4aa2aaa12490fd26cb4d81f460001b6108bd565b806122b67f795a63b1ec044e9998eb5be4e4863c3aaa67da02ebefc0ecd780fe31b7cb268660001b6108bd565b6122e27f8542d49a5c0b8ac9c936e3b4bb9684b4ca156ac0a8ff1daba4dba27c7b8de99360001b6108bd565b61230e7fae1505d7f387e6dfb5217bfb5f220a97d1f999454f26b0be8ef533321ac4bd9160001b6108bd565b61233a7f3b8e2174a8dbcd4bb9e9db43f5cfcbe5c98abe64a29e3903c051e272892dd91e60001b6108bd565b600073ffffffffffffffffffffffffffffffffffffffff168173ffffffffffffffffffffffffffffffffffffffff1614156123aa576040517f08c379a00000000000000000000000000000000000000000000000000000000081526004016123a1906167ed565b60405180910390fd5b6123d67f1e4f64cc94b43caa66f1ab11a502122e440b4ba1148e708304939f7ac23a456060001b6108bd565b6124027f9b82f95c59152ce05cfb57016352b45011c30555f344ee5c87c7ba5c773e900660001b6108bd565b61242e7f43734623298fb4755e3efaeb7a5cb6db9a75d9aea8dcb987c8050518c835e6fa60001b6108bd565b61245a7fd99cbe689188a782d658e8448e5a5e1562ce69ad563204751b2e537ee671037e60001b6108bd565b6124867f8f4a670e376528a4e976c8e2e613fdec225d5b5ebf613ab982a9177b49f4e7d560001b6108bd565b81600960006101000a81548173ffffffffffffffffffffffffffffffffffffffff021916908373ffffffffffffffffffffffffffffffffffffffff1602179055505050565b6124f77fc31d46b57eb60fe22a7ffc4714b9a0f8368eafe91b7e4efe75f87720878cb1b860001b6108bd565b6125237f6204c12cc5ee9e6f9a9230820ccd67023c838b66f3e89ca1f421451ad70b105360001b6108bd565b61254f7f70a9674d9e18c33a20cce8f5c0247a06a9a327dd22b4c9f97e516a03554dc77b60001b6108bd565b600060039054906101000a900473ffffffffffffffffffffffffffffffffffffffff1673ffffffffffffffffffffffffffffffffffffffff16638413ec14336040518263ffffffff1660e01b81526004016125aa91906166fd565b60006040518083038186803b1580156125c257600080fd5b505afa1580156125d6573d6000803e3d6000fd5b505050506126067febcedd155137746292a6767ec80da696547d45bb4aa2aaa12490fd26cb4d81f460001b6108bd565b806126337f795a63b1ec044e9998eb5be4e4863c3aaa67da02ebefc0ecd780fe31b7cb268660001b6108bd565b61265f7f8542d49a5c0b8ac9c936e3b4bb9684b4ca156ac0a8ff1daba4dba27c7b8de99360001b6108bd565b61268b7fae1505d7f387e6dfb5217bfb5f220a97d1f999454f26b0be8ef533321ac4bd9160001b6108bd565b6126b77f3b8e2174a8dbcd4bb9e9db43f5cfcbe5c98abe64a29e3903c051e272892dd91e60001b6108bd565b600073ffffffffffffffffffffffffffffffffffffffff168173ffffffffffffffffffffffffffffffffffffffff161415612727576040517f08c379a000000000000000000000000000000000000000000000000000000000815260040161271e906167ed565b60405180910390fd5b6127537f1e4f64cc94b43caa66f1ab11a502122e440b4ba1148e708304939f7ac23a456060001b6108bd565b61277f7f9b82f95c59152ce05cfb57016352b45011c30555f344ee5c87c7ba5c773e900660001b6108bd565b6127ab7f882f955370f05bca384d14adc7469ed3eadfe5fcbeb6e267a06ddb98702f2b8260001b6108bd565b6127d77f99526ea96b49d4b255a5eff98cee784bb954f5b28d1881c444d505ce687886c560001b6108bd565b6128037fade463d95f5219ca2ea4d54e9b8ad32410e0a576287805758457feb0a8927e5060001b6108bd565b81600d60006101000a81548173ffffffffffffffffffffffffffffffffffffffff021916908373ffffffffffffffffffffffffffffffffffffffff1602179055505050565b60038060000154908060010154908060020154908060030154908060040154908060050154905086565b61289e7f98481d4b14c9ee1049089f59021689b1e1de3256a92f12615bb25d1cf5add60560001b6108bd565b6128ca7f86181bdb24a510163e8083ff642036739d9acde225660b9debbaf75d57cae4d160001b6108bd565b6128f67f7ee9eec84fdc014278ae6a07e0f7193d1574299394b4f91dc4c0a3fa49271ae960001b6108bd565b600060039054906101000a900473ffffffffffffffffffffffffffffffffffffffff1673ffffffffffffffffffffffffffffffffffffffff16634d868f986040518163ffffffff1660e01b815260040160006040518083038186803b15801561295e57600080fd5b505afa158015612972573d6000803e3d6000fd5b505050506129a27fd0d9828d3a2c6f1997571326755747ea31de71a4e398a6c9cbffde09552aca3160001b6108bd565b6129ce7fc31d46b57eb60fe22a7ffc4714b9a0f8368eafe91b7e4efe75f87720878cb1b860001b6108bd565b6129fa7f6204c12cc5ee9e6f9a9230820ccd67023c838b66f3e89ca1f421451ad70b105360001b6108bd565b612a267f70a9674d9e18c33a20cce8f5c0247a06a9a327dd22b4c9f97e516a03554dc77b60001b6108bd565b600060039054906101000a900473ffffffffffffffffffffffffffffffffffffffff1673ffffffffffffffffffffffffffffffffffffffff16638413ec14336040518263ffffffff1660e01b8152600401612a8191906166fd565b60006040518083038186803b158015612a9957600080fd5b505afa158015612aad573d6000803e3d6000fd5b50505050612add7febcedd155137746292a6767ec80da696547d45bb4aa2aaa12490fd26cb4d81f460001b6108bd565b600a60009054906101000a900473ffffffffffffffffffffffffffffffffffffffff16612b2c7f795a63b1ec044e9998eb5be4e4863c3aaa67da02ebefc0ecd780fe31b7cb268660001b6108bd565b612b587f8542d49a5c0b8ac9c936e3b4bb9684b4ca156ac0a8ff1daba4dba27c7b8de99360001b6108bd565b612b847fae1505d7f387e6dfb5217bfb5f220a97d1f999454f26b0be8ef533321ac4bd9160001b6108bd565b612bb07f3b8e2174a8dbcd4bb9e9db43f5cfcbe5c98abe64a29e3903c051e272892dd91e60001b6108bd565b600073ffffffffffffffffffffffffffffffffffffffff168173ffffffffffffffffffffffffffffffffffffffff161415612c20576040517f08c379a0000000000000000000000000000000000000000000000000000000008152600401612c17906167ed565b60405180910390fd5b612c4c7f1e4f64cc94b43caa66f1ab11a502122e440b4ba1148e708304939f7ac23a456060001b6108bd565b612c787f9b82f95c59152ce05cfb57016352b45011c30555f344ee5c87c7ba5c773e900660001b6108bd565b612ca47f42ba810ff5992dd869a17253d7bb7d6967962a026c2ff553437f2c5fe800911c60001b6108bd565b612cd07fc989a9d50977ceab06564ce12b240bb3c3f67b225706c24c2b825525a4583ac560001b6108bd565b612cfc7fc5e85340acd69061f310b092d68c366ded6d94a3c916bd1b4b2eec51483dda8d60001b6108bd565b612d287fe193b7a6d25840529fbd5cc0ac511153a0deddbb8ffe0f39a9b176ab01590cbe60001b6108bd565b6003600101548411158015612d3d5750600084115b612d7c576040517f08c379a0000000000000000000000000000000000000000000000000000000008152600401612d73906167ad565b60405180910390fd5b612da87f0ab2913511a8dbf3b7bca93d5a6ea38383aa43f6229f611cc88f99614a03057160001b6108bd565b612dd47fc8e2542018115fc93640965cfd61f65b56ead235f4f3720ede820b734ae238d160001b6108bd565b612e007f0461f77c73283637ea94e5d248d03997d14bd34fc510008b3ba35c8ea95b67af60001b6108bd565b8360036001016000828254612e1591906169f7565b92505081905550612e487fa225701f6fe9cd4fcfa3cc98c09e2d3d173cc450b72243a238a31ab7be47eb7560001b6108bd565b612e747f73e3743a60c26b9af731d0a383350940f9c99ffa0a43418ae542ae5aab69197560001b6108bd565b6000600260009054906101000a900473ffffffffffffffffffffffffffffffffffffffff1673ffffffffffffffffffffffffffffffffffffffff1663a9059cbb600a60009054906101000a900473ffffffffffffffffffffffffffffffffffffffff16876040518363ffffffff1660e01b8152600401612ef5929190616718565b602060405180830381600087803b158015612f0f57600080fd5b505af1158015612f23573d6000803e3d6000fd5b505050506040513d601f19601f82011682018060405250810190612f479190616451565b9050612f757ffa80989cf2648b2de6e7ea5d32596223f811a3abce8012f4ff4e682137b83aff60001b6108bd565b612fa17fc9a1c80665efe9823b4e9761f6aaec97107c94c76f318e1ad5f3eacbc523dbc960001b6108bd565b612fcd7f60d11805fe22a454b14f45d7740d7351291f77a867466d7facafdf1e00cd66c360001b6108bd565b8061300d576040517f08c379a0000000000000000000000000000000000000000000000000000000008152600401613004906167cd565b60405180910390fd5b6130397f230c0ee33465de6d481fcf07c8b895e65ba02ac96555524c9da9fd78c3a7a07060001b6108bd565b6130657fb0c79f29f84befa4881c308c75e18b3f4c86e8166a0f57760f137ad9906be55660001b6108bd565b6130917fc77084f5df579472c51879be13564ce89a5ceb46e1caf8a33d4fed0ab1f1d1b360001b6108bd565b7ff55afe4fbf5e2382822e10e484a70ef4849c01a0e4764cfb653bdeea7e47e72885600a60009054906101000a900473ffffffffffffffffffffffffffffffffffffffff1686866040516130e8949392919061682d565b60405180910390a15050505050565b6131237fc31d46b57eb60fe22a7ffc4714b9a0f8368eafe91b7e4efe75f87720878cb1b860001b6108bd565b61314f7f6204c12cc5ee9e6f9a9230820ccd67023c838b66f3e89ca1f421451ad70b105360001b6108bd565b61317b7f70a9674d9e18c33a20cce8f5c0247a06a9a327dd22b4c9f97e516a03554dc77b60001b6108bd565b600060039054906101000a900473ffffffffffffffffffffffffffffffffffffffff1673ffffffffffffffffffffffffffffffffffffffff16638413ec14336040518263ffffffff1660e01b81526004016131d691906166fd565b60006040518083038186803b1580156131ee57600080fd5b505afa158015613202573d6000803e3d6000fd5b505050506132327febcedd155137746292a6767ec80da696547d45bb4aa2aaa12490fd26cb4d81f460001b6108bd565b8061325f7f795a63b1ec044e9998eb5be4e4863c3aaa67da02ebefc0ecd780fe31b7cb268660001b6108bd565b61328b7f8542d49a5c0b8ac9c936e3b4bb9684b4ca156ac0a8ff1daba4dba27c7b8de99360001b6108bd565b6132b77fae1505d7f387e6dfb5217bfb5f220a97d1f999454f26b0be8ef533321ac4bd9160001b6108bd565b6132e37f3b8e2174a8dbcd4bb9e9db43f5cfcbe5c98abe64a29e3903c051e272892dd91e60001b6108bd565b600073ffffffffffffffffffffffffffffffffffffffff168173ffffffffffffffffffffffffffffffffffffffff161415613353576040517f08c379a000000000000000000000000000000000000000000000000000000000815260040161334a906167ed565b60405180910390fd5b61337f7f1e4f64cc94b43caa66f1ab11a502122e440b4ba1148e708304939f7ac23a456060001b6108bd565b6133ab7f9b82f95c59152ce05cfb57016352b45011c30555f344ee5c87c7ba5c773e900660001b6108bd565b6133d77f5fbd38fd97209b9d4ca5ff5ab0c85e9dbbc5a6a7d953a7691ef217a7e843676c60001b6108bd565b6134037f3c37b606c67fda1a22679edf8f008334b7219005106fe8bb1da01bea96d651bd60001b6108bd565b61342f7f63a080af692e3ec8b07a9c6c28f8b0be7c190a7c7511bba6c4ec8eb98766c53560001b6108bd565b81600a60006101000a81548173ffffffffffffffffffffffffffffffffffffffff021916908373ffffffffffffffffffffffffffffffffffffffff1602179055505050565b600960009054906101000a900473ffffffffffffffffffffffffffffffffffffffff1681565b600c60009054906101000a900473ffffffffffffffffffffffffffffffffffffffff1681565b6134ec7f8bc592f2b40fc57064d918ff235b1f18966c57b811836c8b4a90e5da812e3e5a60001b6108bd565b6135187fc6f0b3188a640c6b69bc043f6653e0c32e65646ec2c47876386637adaf77e9ec60001b6108bd565b6135447f2c605fde5a9b2b458c5462748521edd88ee23452599d42c5022c26bd39c31ef260001b6108bd565b600060039054906101000a900473ffffffffffffffffffffffffffffffffffffffff1673ffffffffffffffffffffffffffffffffffffffff1663ebe6a6f3336040518263ffffffff1660e01b815260040161359f91906166fd565b60006040518083038186803b1580156135b757600080fd5b505afa1580156135cb573d6000803e3d6000fd5b505050506135fb7f4b2abd658db62583f04491613a4df8f7de1a6785e68fbdb1e695b8d259e2a82860001b6108bd565b6136277f2ed76a5ce696d6d6076712250d4c0c6911fe7e34e36c55ccd09e6cfc67d5710960001b6108bd565b6136537f3ca3c91e9186ce4034f714b2c6a452da2019b36049c01cd04f37da052bcabea160001b6108bd565b61367f7f1f33c502cc3503e156bb400e25663d931553e008acc047d8d304822fe271220060001b6108bd565b6127108461ffff168a613692919061699d565b61369c919061696c565b600360020160008282546136b09190616916565b925050819055506136e37ffcb47ef51e903d326cad0bd831faed5894f50f16d20948f399cdef232fbd40b260001b6108bd565b61370f7fcf87ec521ad235ca2c706faece077816fea99703cd70e7581f0ac4d44dede84f60001b6108bd565b6127108561ffff168a613722919061699d565b61372c919061696c565b600360010160008282546137409190616916565b925050819055506137737f47a316a223a014e5542e64889003bff795c697761226670c327d8c2f748fe74160001b6108bd565b61379f7feffb86cb51a6b5fe0d434aada40b3baf2407c82e98d6bbe35cfb11a5259c732060001b6108bd565b6127108261ffff168a6137b2919061699d565b6137bc919061696c565b600360040160008282546137d09190616916565b925050819055506138037f8532447fdb57c9ed1524b83561bbe3c4bdd93ddee25ed9fe1274714da3f7026960001b6108bd565b61382f7f5cddce1905ae889bc1e6abe7ab6141754dc42ba69e7c62c20bf3104d19f97ba960001b6108bd565b6127108161ffff168a613842919061699d565b61384c919061696c565b600360050160008282546138609190616916565b925050819055506138937fafaaf103f0eb35910dc3c714c4f126935a0c06810799728cd5f9f76666f39a6f60001b6108bd565b6138bf7f2d05fae5c14cd9a3d408f718d87d84846062613fb2fb087ae7863e19c3043f2060001b6108bd565b6127108361ffff168a6138d2919061699d565b6138dc919061696c565b6003800160008282546138ef9190616916565b925050819055506139227f9f884bfdb5317339ff861915d264feafedad4ada31b5f80537f572668701e15960001b6108bd565b61394e7fffddf728789ecccfb0d359215eb2890176b66afd2a5e6ced11012be5ab1aeb7360001b6108bd565b6127108661ffff168a613961919061699d565b61396b919061696c565b6003600001600082825461397f9190616916565b925050819055506139b27f9f2050528fe5d9b94cdeffc089e0890a6e5708574979bd266cb54e634e5194a260001b6108bd565b6139de7feaa2ee97da558fe3c48e22978258ef5b8e49e84d13ec659a392ff6678fa6385c60001b6108bd565b60006127108961ffff168b6139f3919061699d565b6139fd919061696c565b9050613a2b7fbd1ceba56d121e413e55b56b6164b47a213d05330a1f9d37eff007e8d8ec1e5560001b6108bd565b613a577f82d7bd9733052e43ec04dbc8bb434602a10b6464ffda670c1f013e444847dad960001b6108bd565b60006127108961ffff168c613a6c919061699d565b613a76919061696c565b9050613aa47fd3c4f7dc50c1e9e12a532d9c0bd7fa3303662593f83bed00f6131d3ae7042cff60001b6108bd565b613ad07f4a50077e294f8dc4a71fb6e85cff00c829a12f51c6fdeaa60974937b400819c760001b6108bd565b6000600260009054906101000a900473ffffffffffffffffffffffffffffffffffffffff1673ffffffffffffffffffffffffffffffffffffffff1663a9059cbb600160009054906101000a900473ffffffffffffffffffffffffffffffffffffffff168486613b3f9190616916565b6040518363ffffffff1660e01b8152600401613b5c929190616718565b602060405180830381600087803b158015613b7657600080fd5b505af1158015613b8a573d6000803e3d6000fd5b505050506040513d601f19601f82011682018060405250810190613bae9190616451565b9050613bdc7fb800be0907bad3c5d2d7378b7f1cf2c8efa2cc5b63f75f964f168bb460c8c1c360001b6108bd565b613c087fefd1a343678069b7f0cce3de33926b1522d5f74097fb3c45338a6fe6822b370560001b6108bd565b613c347f4488db6ba938fe6d96f0459567dbfbb06e8d9467574f73594ba046efaec1bcaf60001b6108bd565b80613c74576040517f08c379a0000000000000000000000000000000000000000000000000000000008152600401613c6b906167cd565b60405180910390fd5b613ca07f67e02f65277cbee6df861ad5fa894b95ff0d672dfa800a4a4c9ada7385f7a86d60001b6108bd565b613ccc7f918e63df830bb54b492ababfde10bb37a2cb8c707fe063e565b371bdfed7587360001b6108bd565b613cf87ff3de76551ac25f907d7ebaa04f8218d65267757917a603a17429082bedfdf35b60001b6108bd565b600160009054906101000a900473ffffffffffffffffffffffffffffffffffffffff1673ffffffffffffffffffffffffffffffffffffffff16633ad7c33b8e85856040518463ffffffff1660e01b8152600401613d579392919061686d565b600060405180830381600087803b158015613d7157600080fd5b505af1158015613d85573d6000803e3d6000fd5b50505050613db57f9d96c52637aff349ce9107752df644e6f5d5c99ef3f23e0b739dc5a8ab720bd460001b6108bd565b613de17f9c29dcfacd8702961d2b3f133ed10865ffa40b5eb547fa1becc7fbfd0dc21cdc60001b6108bd565b7f347f488d341632b8f0297fc353e08cc384d9a8c7bb93600a7ede83515b56b9948d8d8486613e109190616916565b604051613e1f9392919061686d565b60405180910390a150505050505050505050505050565b613e627f98481d4b14c9ee1049089f59021689b1e1de3256a92f12615bb25d1cf5add60560001b6108bd565b613e8e7f86181bdb24a510163e8083ff642036739d9acde225660b9debbaf75d57cae4d160001b6108bd565b613eba7f7ee9eec84fdc014278ae6a07e0f7193d1574299394b4f91dc4c0a3fa49271ae960001b6108bd565b600060039054906101000a900473ffffffffffffffffffffffffffffffffffffffff1673ffffffffffffffffffffffffffffffffffffffff16634d868f986040518163ffffffff1660e01b815260040160006040518083038186803b158015613f2257600080fd5b505afa158015613f36573d6000803e3d6000fd5b50505050613f667fd0d9828d3a2c6f1997571326755747ea31de71a4e398a6c9cbffde09552aca3160001b6108bd565b613f927fc31d46b57eb60fe22a7ffc4714b9a0f8368eafe91b7e4efe75f87720878cb1b860001b6108bd565b613fbe7f6204c12cc5ee9e6f9a9230820ccd67023c838b66f3e89ca1f421451ad70b105360001b6108bd565b613fea7f70a9674d9e18c33a20cce8f5c0247a06a9a327dd22b4c9f97e516a03554dc77b60001b6108bd565b600060039054906101000a900473ffffffffffffffffffffffffffffffffffffffff1673ffffffffffffffffffffffffffffffffffffffff16638413ec14336040518263ffffffff1660e01b815260040161404591906166fd565b60006040518083038186803b15801561405d57600080fd5b505afa158015614071573d6000803e3d6000fd5b505050506140a17febcedd155137746292a6767ec80da696547d45bb4aa2aaa12490fd26cb4d81f460001b6108bd565b600d60009054906101000a900473ffffffffffffffffffffffffffffffffffffffff166140f07f795a63b1ec044e9998eb5be4e4863c3aaa67da02ebefc0ecd780fe31b7cb268660001b6108bd565b61411c7f8542d49a5c0b8ac9c936e3b4bb9684b4ca156ac0a8ff1daba4dba27c7b8de99360001b6108bd565b6141487fae1505d7f387e6dfb5217bfb5f220a97d1f999454f26b0be8ef533321ac4bd9160001b6108bd565b6141747f3b8e2174a8dbcd4bb9e9db43f5cfcbe5c98abe64a29e3903c051e272892dd91e60001b6108bd565b600073ffffffffffffffffffffffffffffffffffffffff168173ffffffffffffffffffffffffffffffffffffffff1614156141e4576040517f08c379a00000000000000000000000000000000000000000000000000000000081526004016141db906167ed565b60405180910390fd5b6142107f1e4f64cc94b43caa66f1ab11a502122e440b4ba1148e708304939f7ac23a456060001b6108bd565b61423c7f9b82f95c59152ce05cfb57016352b45011c30555f344ee5c87c7ba5c773e900660001b6108bd565b6142687f055c44030e8a30b0904bc30afe61bc6c57129a4fdb8c3be338dec4fb5a0f022060001b6108bd565b6142947f385206bd52cd707e9a0fbd42616514a857902645d73365fb87d130dadd2ec33d60001b6108bd565b6142c07fb9e5ae3f852d184868c9fc941d0de4e5a16d9c1842a3abbb3c1eacc12145d6c060001b6108bd565b6142ec7f21cbe5e9b69891f7683825499bafdd40c27222e698b9cbd697ab5f7fbcc022f360001b6108bd565b60036004015484111580156143015750600084115b614340576040517f08c379a0000000000000000000000000000000000000000000000000000000008152600401614337906167ad565b60405180910390fd5b61436c7feafcf628b8aa5689424a89d99b343dfa4ac7947d816a11c7d22d6718e300615c60001b6108bd565b6143987fbc989c9b5e3c381c7d074ad162039fcf6456f567aa5b07e9edc606e451f7dcce60001b6108bd565b6143c47f57863ddc262bc11b1876533bba55fdfbbef900a3be5e440c732da5870e5f363960001b6108bd565b83600360040160008282546143d991906169f7565b9250508190555061440c7f2cfcc1a93fd85c31d7677148913e8edbd98f8544ee7f0706c2264613a76b9e1f60001b6108bd565b6144387fbef62b0ff10d5c022203cd8a93d918ff3d544e1dd2a4657e3b20aa269e45cd0860001b6108bd565b6000600260009054906101000a900473ffffffffffffffffffffffffffffffffffffffff1673ffffffffffffffffffffffffffffffffffffffff1663a9059cbb600d60009054906101000a900473ffffffffffffffffffffffffffffffffffffffff16876040518363ffffffff1660e01b81526004016144b9929190616718565b602060405180830381600087803b1580156144d357600080fd5b505af11580156144e7573d6000803e3d6000fd5b505050506040513d601f19601f8201168201806040525081019061450b9190616451565b90506145397f39e74ddf0d2c45a22a653fa270c02bcccfc2006df1dde90af292a25abcbae31960001b6108bd565b6145657fec759c2925977e52a434748925fb03f3f82ad23255daef335d12382f089be21660001b6108bd565b6145917fcbd71d6dee40e3ab39e2312e462f61a4cfe742217baae1ef257929c5820bf74a60001b6108bd565b806145d1576040517f08c379a00000000000000000000000000000000000000000000000000000000081526004016145c8906167cd565b60405180910390fd5b6145fd7f444137795c9404f0141e8ae22a9ed6d2462ba624eeebcf7329e71053884800e760001b6108bd565b6146297ffc4d408097acbfa972edc1e7590f8f9445839db346634084e7565baddfbede4060001b6108bd565b6146557fddfb495d512c788a6a0f4e384d82817c55e9c26116a92be463a0435c5227ce1a60001b6108bd565b7f7933fc59a1b4f8879978109694db0c56041b5c494a007cd879877f579f10df1c85600d60009054906101000a900473ffffffffffffffffffffffffffffffffffffffff1686866040516146ac949392919061682d565b60405180910390a15050505050565b600260009054906101000a900473ffffffffffffffffffffffffffffffffffffffff1681565b600060019054906101000a900460ff1680614707575060008054906101000a900460ff16155b614746576040517f08c379a000000000000000000000000000000000000000000000000000000000815260040161473d9061680d565b60405180910390fd5b60008060019054906101000a900460ff161590508015614796576001600060016101000a81548160ff02191690831515021790555060016000806101000a81548160ff0219169083151502179055505b6147c27f0ca8db56d41871062143e4d16caaaf511f27f9e1af35f9ba324eaa103e34b96860001b6108bd565b6147ee7fe509116e7b431247230b4644717e00f67c4297eb8e75243091789bb27f319ad860001b6108bd565b61481a7f41004ef000ced070f888919dcb0a4b14b2b75dc2811b18cfd7d73c90428bfcdc60001b6108bd565b600082905061484b7f810cb93d719a4c7f31ae610b699961f00387a4eb2a08de1fe0931e5f0ccd645760001b6108bd565b6148777f795d86c03d372dca6eec400cb90d25d8b0f37ee8247769837d5db8e0e1ebff0f60001b6108bd565b6148a37f5a64421644ff8ac627be2a420f5e6de3721388f3278f5b5c16f454f5f62eb09b60001b6108bd565b8073ffffffffffffffffffffffffffffffffffffffff1663ba84fd696040518163ffffffff1660e01b815260040160206040518083038186803b1580156148e957600080fd5b505afa1580156148fd573d6000803e3d6000fd5b505050506040513d601f19601f820116820180604052508101906149219190616451565b61492a57600080fd5b6149567f13bc44d487fadc69212f244c633fba90cccdff4c260a5d327409ca71808cdd2160001b6108bd565b6149827f37b37fd4d0e11743e07c08870268931ef8622c0af1dc57ab8e39418e1b5d554b60001b6108bd565b6149ae7f0b6b2e26e322a4312e239883640f6fc881b7f68d951f5beadf4f54290abbe92860001b6108bd565b6001600060026101000a81548160ff0219169083151502179055506149f57fab33e51a32cb148437544ddf26ab2154c3deeeb2998f01dc778c6a5b1061a0ab60001b6108bd565b614a217f43dc75edb132f0856806070bc8e4c74a4246b7ddbf95713359e5c1dd65b0c1d360001b6108bd565b80600060036101000a81548173ffffffffffffffffffffffffffffffffffffffff021916908373ffffffffffffffffffffffffffffffffffffffff160217905550508015614a845760008060016101000a81548160ff0219169083151502179055505b5050565b614ab47fc31d46b57eb60fe22a7ffc4714b9a0f8368eafe91b7e4efe75f87720878cb1b860001b6108bd565b614ae07f6204c12cc5ee9e6f9a9230820ccd67023c838b66f3e89ca1f421451ad70b105360001b6108bd565b614b0c7f70a9674d9e18c33a20cce8f5c0247a06a9a327dd22b4c9f97e516a03554dc77b60001b6108bd565b600060039054906101000a900473ffffffffffffffffffffffffffffffffffffffff1673ffffffffffffffffffffffffffffffffffffffff16638413ec14336040518263ffffffff1660e01b8152600401614b6791906166fd565b60006040518083038186803b158015614b7f57600080fd5b505afa158015614b93573d6000803e3d6000fd5b50505050614bc37febcedd155137746292a6767ec80da696547d45bb4aa2aaa12490fd26cb4d81f460001b6108bd565b80614bf07f795a63b1ec044e9998eb5be4e4863c3aaa67da02ebefc0ecd780fe31b7cb268660001b6108bd565b614c1c7f8542d49a5c0b8ac9c936e3b4bb9684b4ca156ac0a8ff1daba4dba27c7b8de99360001b6108bd565b614c487fae1505d7f387e6dfb5217bfb5f220a97d1f999454f26b0be8ef533321ac4bd9160001b6108bd565b614c747f3b8e2174a8dbcd4bb9e9db43f5cfcbe5c98abe64a29e3903c051e272892dd91e60001b6108bd565b600073ffffffffffffffffffffffffffffffffffffffff168173ffffffffffffffffffffffffffffffffffffffff161415614ce4576040517f08c379a0000000000000000000000000000000000000000000000000000000008152600401614cdb906167ed565b60405180910390fd5b614d107f1e4f64cc94b43caa66f1ab11a502122e440b4ba1148e708304939f7ac23a456060001b6108bd565b614d3c7f9b82f95c59152ce05cfb57016352b45011c30555f344ee5c87c7ba5c773e900660001b6108bd565b614d687fcd9743756450f4a8889f4c9c3b34cfd563b896901e20d08b33f51513d09a2fae60001b6108bd565b614d947fb47ad127bb9130c2f000b100a0ed08239afd453e631e7a42307f1c7c513f1b3060001b6108bd565b614dc07fdcbcd632d06e66d546f3fd8c0827cc6e8606d1852f98280a3feaee58fec96c7060001b6108bd565b81600b60006101000a81548173ffffffffffffffffffffffffffffffffffffffff021916908373ffffffffffffffffffffffffffffffffffffffff1602179055505050565b600060039054906101000a900473ffffffffffffffffffffffffffffffffffffffff1681565b614e577f98481d4b14c9ee1049089f59021689b1e1de3256a92f12615bb25d1cf5add60560001b6108bd565b614e837f86181bdb24a510163e8083ff642036739d9acde225660b9debbaf75d57cae4d160001b6108bd565b614eaf7f7ee9eec84fdc014278ae6a07e0f7193d1574299394b4f91dc4c0a3fa49271ae960001b6108bd565b600060039054906101000a900473ffffffffffffffffffffffffffffffffffffffff1673ffffffffffffffffffffffffffffffffffffffff16634d868f986040518163ffffffff1660e01b815260040160006040518083038186803b158015614f1757600080fd5b505afa158015614f2b573d6000803e3d6000fd5b50505050614f5b7fd0d9828d3a2c6f1997571326755747ea31de71a4e398a6c9cbffde09552aca3160001b6108bd565b614f877fc31d46b57eb60fe22a7ffc4714b9a0f8368eafe91b7e4efe75f87720878cb1b860001b6108bd565b614fb37f6204c12cc5ee9e6f9a9230820ccd67023c838b66f3e89ca1f421451ad70b105360001b6108bd565b614fdf7f70a9674d9e18c33a20cce8f5c0247a06a9a327dd22b4c9f97e516a03554dc77b60001b6108bd565b600060039054906101000a900473ffffffffffffffffffffffffffffffffffffffff1673ffffffffffffffffffffffffffffffffffffffff16638413ec14336040518263ffffffff1660e01b815260040161503a91906166fd565b60006040518083038186803b15801561505257600080fd5b505afa158015615066573d6000803e3d6000fd5b505050506150967febcedd155137746292a6767ec80da696547d45bb4aa2aaa12490fd26cb4d81f460001b6108bd565b600e60009054906101000a900473ffffffffffffffffffffffffffffffffffffffff166150e57f795a63b1ec044e9998eb5be4e4863c3aaa67da02ebefc0ecd780fe31b7cb268660001b6108bd565b6151117f8542d49a5c0b8ac9c936e3b4bb9684b4ca156ac0a8ff1daba4dba27c7b8de99360001b6108bd565b61513d7fae1505d7f387e6dfb5217bfb5f220a97d1f999454f26b0be8ef533321ac4bd9160001b6108bd565b6151697f3b8e2174a8dbcd4bb9e9db43f5cfcbe5c98abe64a29e3903c051e272892dd91e60001b6108bd565b600073ffffffffffffffffffffffffffffffffffffffff168173ffffffffffffffffffffffffffffffffffffffff1614156151d9576040517f08c379a00000000000000000000000000000000000000000000000000000000081526004016151d0906167ed565b60405180910390fd5b6152057f1e4f64cc94b43caa66f1ab11a502122e440b4ba1148e708304939f7ac23a456060001b6108bd565b6152317f9b82f95c59152ce05cfb57016352b45011c30555f344ee5c87c7ba5c773e900660001b6108bd565b61525d7f65db9ada780298f8de481f94c49bfd220ad1db755a172ca150183073186c5ade60001b6108bd565b6152897f19b1da17696b08a83b8c8b2873a8b8805bdcbc4cd99c3319771717e8474d876d60001b6108bd565b6152b57f4684d6fc6d49f7de55181942366053531d7dc6ac9e1b71bdef351dadf2b7d49a60001b6108bd565b6152e17fa55e3753b0a9c7f2db97bbc4167f643d7e56a815481cf06315d5c21e9270fc1c60001b6108bd565b60036005015484111580156152f65750600084115b615335576040517f08c379a000000000000000000000000000000000000000000000000000000000815260040161532c906167ad565b60405180910390fd5b6153617fd9468cb16f2982689131ff4048385f47d01f2900c7ef79348cf9bfc632b03c0260001b6108bd565b61538d7ffcc917a8a459b26d6e9104b53ddbfe8513b4e3c4932a019ed72c5afe909dfcd960001b6108bd565b6153b97f7eaf62437f8eceb201b54b1dd783de4210e6d6886d42cdab6d8f6c3e25d4d6fc60001b6108bd565b83600360050160008282546153ce91906169f7565b925050819055506154017f0c08b1e25782d769ecd4c085edb6c842bb5164e6e47257b50b733368945da36f60001b6108bd565b61542d7f680d194fbd886d75e4cb8a936d05f7d5cce9d6ffbfa43dbaaf071c2d2003894360001b6108bd565b6000600260009054906101000a900473ffffffffffffffffffffffffffffffffffffffff1673ffffffffffffffffffffffffffffffffffffffff1663a9059cbb600e60009054906101000a900473ffffffffffffffffffffffffffffffffffffffff16876040518363ffffffff1660e01b81526004016154ae929190616718565b602060405180830381600087803b1580156154c857600080fd5b505af11580156154dc573d6000803e3d6000fd5b505050506040513d601f19601f820116820180604052508101906155009190616451565b905061552e7fe00186071db1145aa18c619416e636a81ea72f5804c946d38da8e109e03e6c1660001b6108bd565b61555a7f291c72860f31662ecd660c1e0f7e5dd1862a2cb54a71436f5a3c0073a94e67f160001b6108bd565b6155867f03ee1b6a7a8230451a9561578e744cacb4c8d7ae2951578e83c8db58f65506b560001b6108bd565b806155c6576040517f08c379a00000000000000000000000000000000000000000000000000000000081526004016155bd906167cd565b60405180910390fd5b6155f27f0a8f1d90e5f3872f341775bd33be057b0b8f888d47cbf28c783fee6d7330bc5860001b6108bd565b61561e7fdc4ed1ade9dc16638efe2b2f808478c20b8272bb38703b294d1a4673dfdebe5b60001b6108bd565b61564a7f03312c2013aa9000d59402df15e4a5d4ae32a8bd06b0df3871beb74bbd95606060001b6108bd565b7fdc46bdffd23b840770c065a6e6fb55e8f31ed7ba8a073048e4b13c947b4701ea85600e60009054906101000a900473ffffffffffffffffffffffffffffffffffffffff1686866040516156a1949392919061682d565b60405180910390a15050505050565b600060029054906101000a900460ff1681565b6156ef7fc31d46b57eb60fe22a7ffc4714b9a0f8368eafe91b7e4efe75f87720878cb1b860001b6108bd565b61571b7f6204c12cc5ee9e6f9a9230820ccd67023c838b66f3e89ca1f421451ad70b105360001b6108bd565b6157477f70a9674d9e18c33a20cce8f5c0247a06a9a327dd22b4c9f97e516a03554dc77b60001b6108bd565b600060039054906101000a900473ffffffffffffffffffffffffffffffffffffffff1673ffffffffffffffffffffffffffffffffffffffff16638413ec14336040518263ffffffff1660e01b81526004016157a291906166fd565b60006040518083038186803b1580156157ba57600080fd5b505afa1580156157ce573d6000803e3d6000fd5b505050506157fe7febcedd155137746292a6767ec80da696547d45bb4aa2aaa12490fd26cb4d81f460001b6108bd565b8061582b7f795a63b1ec044e9998eb5be4e4863c3aaa67da02ebefc0ecd780fe31b7cb268660001b6108bd565b6158577f8542d49a5c0b8ac9c936e3b4bb9684b4ca156ac0a8ff1daba4dba27c7b8de99360001b6108bd565b6158837fae1505d7f387e6dfb5217bfb5f220a97d1f999454f26b0be8ef533321ac4bd9160001b6108bd565b6158af7f3b8e2174a8dbcd4bb9e9db43f5cfcbe5c98abe64a29e3903c051e272892dd91e60001b6108bd565b600073ffffffffffffffffffffffffffffffffffffffff168173ffffffffffffffffffffffffffffffffffffffff16141561591f576040517f08c379a0000000000000000000000000000000000000000000000000000000008152600401615916906167ed565b60405180910390fd5b61594b7f1e4f64cc94b43caa66f1ab11a502122e440b4ba1148e708304939f7ac23a456060001b6108bd565b6159777f9b82f95c59152ce05cfb57016352b45011c30555f344ee5c87c7ba5c773e900660001b6108bd565b6159a37fadd414661f725aa9bad102a8509dc6cf3ad922620d9736be22bb1ee51d3c149760001b6108bd565b6159cf7fc6f57f8a6c201cff239a82dbb6d982f8300b70e126a7ba84c6150266b085189f60001b6108bd565b6159fb7f0d182a2311b93807dee85df6224f497768fd3938e36469cd74556f2fd5c0c63160001b6108bd565b6000829050615a2c7f1af691aa28dcd79b5eac031b3f05c974ca9dbefd447b40be81beb651e79ea7d260001b6108bd565b615a587fa0e56e6bc97b3da4c92bf030702704bf4204f964e22d35c2945de06b28fbea2960001b6108bd565b80600260006101000a81548173ffffffffffffffffffffffffffffffffffffffff021916908373ffffffffffffffffffffffffffffffffffffffff160217905550505050565b615aca7f98481d4b14c9ee1049089f59021689b1e1de3256a92f12615bb25d1cf5add60560001b6108bd565b615af67f86181bdb24a510163e8083ff642036739d9acde225660b9debbaf75d57cae4d160001b6108bd565b615b227f7ee9eec84fdc014278ae6a07e0f7193d1574299394b4f91dc4c0a3fa49271ae960001b6108bd565b600060039054906101000a900473ffffffffffffffffffffffffffffffffffffffff1673ffffffffffffffffffffffffffffffffffffffff16634d868f986040518163ffffffff1660e01b815260040160006040518083038186803b158015615b8a57600080fd5b505afa158015615b9e573d6000803e3d6000fd5b50505050615bce7fd0d9828d3a2c6f1997571326755747ea31de71a4e398a6c9cbffde09552aca3160001b6108bd565b615bfa7fc31d46b57eb60fe22a7ffc4714b9a0f8368eafe91b7e4efe75f87720878cb1b860001b6108bd565b615c267f6204c12cc5ee9e6f9a9230820ccd67023c838b66f3e89ca1f421451ad70b105360001b6108bd565b615c527f70a9674d9e18c33a20cce8f5c0247a06a9a327dd22b4c9f97e516a03554dc77b60001b6108bd565b600060039054906101000a900473ffffffffffffffffffffffffffffffffffffffff1673ffffffffffffffffffffffffffffffffffffffff16638413ec14336040518263ffffffff1660e01b8152600401615cad91906166fd565b60006040518083038186803b158015615cc557600080fd5b505afa158015615cd9573d6000803e3d6000fd5b50505050615d097febcedd155137746292a6767ec80da696547d45bb4aa2aaa12490fd26cb4d81f460001b6108bd565b600960009054906101000a900473ffffffffffffffffffffffffffffffffffffffff16615d587f795a63b1ec044e9998eb5be4e4863c3aaa67da02ebefc0ecd780fe31b7cb268660001b6108bd565b615d847f8542d49a5c0b8ac9c936e3b4bb9684b4ca156ac0a8ff1daba4dba27c7b8de99360001b6108bd565b615db07fae1505d7f387e6dfb5217bfb5f220a97d1f999454f26b0be8ef533321ac4bd9160001b6108bd565b615ddc7f3b8e2174a8dbcd4bb9e9db43f5cfcbe5c98abe64a29e3903c051e272892dd91e60001b6108bd565b600073ffffffffffffffffffffffffffffffffffffffff168173ffffffffffffffffffffffffffffffffffffffff161415615e4c576040517f08c379a0000000000000000000000000000000000000000000000000000000008152600401615e43906167ed565b60405180910390fd5b615e787f1e4f64cc94b43caa66f1ab11a502122e440b4ba1148e708304939f7ac23a456060001b6108bd565b615ea47f9b82f95c59152ce05cfb57016352b45011c30555f344ee5c87c7ba5c773e900660001b6108bd565b615ed07f9f05dff9c986729351ba863ade4a20eb1364d33732bd2404e933944c87df256e60001b6108bd565b615efc7f414371f05d3f728aff488959dba88cd170505066f540741eed905c2dcbc8256160001b6108bd565b615f287f7ec6e2dd0744ed545d1e8c3337896419126bdb43106f12d6c6a6ed7db21c1e2e60001b6108bd565b615f547f107c624f38a719ae552c8b9c196c687bd1edc4aaf20cebbbc740647ecc473e3260001b6108bd565b6003600001548411158015615f695750600084115b615fa8576040517f08c379a0000000000000000000000000000000000000000000000000000000008152600401615f9f906167ad565b60405180910390fd5b615fd47feb4bbd13195722077478365b8361b627580900bed8d856b9d1a9d94b6710dfee60001b6108bd565b6160007f5b3e1525fd1568c27e7d15fabe057893f4c9016e05637849221abb8c7e0b93c560001b6108bd565b61602c7ffe2868a8055dfa69fe94ac43c80c4a1dacad24b652321968f96ac4893e39806e60001b6108bd565b836003600001600082825461604191906169f7565b925050819055506160747fc6ce591a29d723a75ffcb486b8f12eb83ccb2b360593cd1128c9d84f4c75479760001b6108bd565b6160a07f6a7538e63b88020194cdb319c5048f1f509264cec569f9fd92308ba182e5b79760001b6108bd565b6000600260009054906101000a900473ffffffffffffffffffffffffffffffffffffffff1673ffffffffffffffffffffffffffffffffffffffff1663a9059cbb600960009054906101000a900473ffffffffffffffffffffffffffffffffffffffff16876040518363ffffffff1660e01b8152600401616121929190616718565b602060405180830381600087803b15801561613b57600080fd5b505af115801561614f573d6000803e3d6000fd5b505050506040513d601f19601f820116820180604052508101906161739190616451565b90506161a17f14701be919c252dabdf9092d9386f9a553fdd613ed2493c766f010fa1785461560001b6108bd565b6161cd7f900d91a7946c2dfbf6e6ad8fe7fc75d5e45566077b52c5e55afa575dfa7b499960001b6108bd565b6161f97f2fd595ce190930dbf8e73d116f3bede5bd17eb8e23135cef24a5b3950fc046de60001b6108bd565b80616239576040517f08c379a0000000000000000000000000000000000000000000000000000000008152600401616230906167cd565b60405180910390fd5b6162657f1cf1d690e27d8f4d8d210c691623f4394c733656a2179ea8a1f269a884e26b6260001b6108bd565b6162917f867ad47a166630dfc790cde0a10a373f4ec26a169ec344f812f004186259832660001b6108bd565b6162bd7f60fa0a7ff5df630b753f8fb1a21ae03db6bafc2fd61c11f92d9a62f7f91b1e4a60001b6108bd565b7f346dd4608342f0849c2ae92a528abcdbde8cf41ca01d05ed0855ad4a3fe38bb585600960009054906101000a900473ffffffffffffffffffffffffffffffffffffffff168686604051616314949392919061682d565b60405180910390a15050505050565b60008135905061633281616c6a565b92915050565b60008135905061634781616c81565b92915050565b60008151905061635c81616c98565b92915050565b60008135905061637181616caf565b92915050565b60008083601f84011261638d5761638c616b7b565b5b8235905067ffffffffffffffff8111156163aa576163a9616b76565b5b6020830191508360018202830111156163c6576163c5616b80565b5b9250929050565b6000813590506163dc81616cc6565b92915050565b6000813590506163f181616cdd565b92915050565b60006020828403121561640d5761640c616b8a565b5b600061641b84828501616323565b91505092915050565b60006020828403121561643a57616439616b8a565b5b600061644884828501616338565b91505092915050565b60006020828403121561646757616466616b8a565b5b60006164758482850161634d565b91505092915050565b60006020828403121561649457616493616b8a565b5b60006164a284828501616362565b91505092915050565b6000806000604084860312156164c4576164c3616b8a565b5b60006164d2868287016163e2565b935050602084013567ffffffffffffffff8111156164f3576164f2616b85565b5b6164ff86828701616377565b92509250509250925092565b6000806000806000806000806000806101408b8d03121561652f5761652e616b8a565b5b600061653d8d828e016163e2565b9a5050602061654e8d828e016163e2565b995050604061655f8d828e016163cd565b98505060606165708d828e016163cd565b97505060806165818d828e016163cd565b96505060a06165928d828e016163cd565b95505060c06165a38d828e016163cd565b94505060e06165b48d828e016163cd565b9350506101006165c68d828e016163cd565b9250506101206165d88d828e016163cd565b9150509295989b9194979a5092959850565b6165f381616a2b565b82525050565b61660281616a4f565b82525050565b61661181616a9d565b82525050565b61662081616ac1565b82525050565b61662f81616ae5565b82525050565b60006166418385616905565b935061664e838584616b09565b61665783616b8f565b840190509392505050565b600061666f601383616905565b915061667a82616ba0565b602082019050919050565b6000616692601583616905565b915061669d82616bc9565b602082019050919050565b60006166b5600f83616905565b91506166c082616bf2565b602082019050919050565b60006166d8602e83616905565b91506166e382616c1b565b604082019050919050565b6166f781616a93565b82525050565b600060208201905061671260008301846165ea565b92915050565b600060408201905061672d60008301856165ea565b61673a60208301846166ee565b9392505050565b600060208201905061675660008301846165f9565b92915050565b60006020820190506167716000830184616608565b92915050565b600060208201905061678c6000830184616617565b92915050565b60006020820190506167a76000830184616626565b92915050565b600060208201905081810360008301526167c681616662565b9050919050565b600060208201905081810360008301526167e681616685565b9050919050565b60006020820190508181036000830152616806816166a8565b9050919050565b60006020820190508181036000830152616826816166cb565b9050919050565b600060608201905061684260008301876166ee565b61684f60208301866165ea565b8181036040830152616862818486616635565b905095945050505050565b600060608201905061688260008301866166ee565b61688f60208301856166ee565b61689c60408301846166ee565b949350505050565b600060c0820190506168b960008301896166ee565b6168c660208301886166ee565b6168d360408301876166ee565b6168e060608301866166ee565b6168ed60808301856166ee565b6168fa60a08301846166ee565b979650505050505050565b600082825260208201905092915050565b600061692182616a93565b915061692c83616a93565b9250827fffffffffffffffffffffffffffffffffffffffffffffffffffffffffffffffff0382111561696157616960616b18565b5b828201905092915050565b600061697782616a93565b915061698283616a93565b92508261699257616991616b47565b5b828204905092915050565b60006169a882616a93565b91506169b383616a93565b9250817fffffffffffffffffffffffffffffffffffffffffffffffffffffffffffffffff04831182151516156169ec576169eb616b18565b5b828202905092915050565b6000616a0282616a93565b9150616a0d83616a93565b925082821015616a2057616a1f616b18565b5b828203905092915050565b6000616a3682616a73565b9050919050565b6000616a4882616a73565b9050919050565b60008115159050919050565b6000819050919050565b600061ffff82169050919050565b600073ffffffffffffffffffffffffffffffffffffffff82169050919050565b6000819050919050565b6000616aa882616aaf565b9050919050565b6000616aba82616a73565b9050919050565b6000616acc82616ad3565b9050919050565b6000616ade82616a73565b9050919050565b6000616af082616af7565b9050919050565b6000616b0282616a73565b9050919050565b82818337600083830152505050565b7f4e487b7100000000000000000000000000000000000000000000000000000000600052601160045260246000fd5b7f4e487b7100000000000000000000000000000000000000000000000000000000600052601260045260246000fd5b600080fd5b600080fd5b600080fd5b600080fd5b600080fd5b6000601f19601f8301169050919050565b7f696e73756666696369656e7420616d6f756e7400000000000000000000000000600082015250565b7f756e7375636365737366756c207472616e736665720000000000000000000000600082015250565b7f696e76616c696420616464726573730000000000000000000000000000000000600082015250565b7f496e697469616c697a61626c653a20636f6e747261637420697320616c72656160008201527f647920696e697469616c697a6564000000000000000000000000000000000000602082015250565b616c7381616a2b565b8114616c7e57600080fd5b50565b616c8a81616a3d565b8114616c9557600080fd5b50565b616ca181616a4f565b8114616cac57600080fd5b50565b616cb881616a5b565b8114616cc357600080fd5b50565b616ccf81616a65565b8114616cda57600080fd5b50565b616ce681616a93565b8114616cf157600080fd5b5056fea2646970667358221220f0ed25fda619857ed5b7a6a1a173865c9ec97e96558520ee4cd0b48e0bc09e0164736f6c63430008060033",
  "immutableReferences": {},
  "source": "// SPDX-License-Identifier: MIT\n\npragma solidity ^0.8.6;\nfunction c_0x7bf6b72b(bytes32 c__0x7bf6b72b) pure {}\n\n\nimport \"@openzeppelin/contracts-upgradeable/utils/CountersUpgradeable.sol\";\nimport \"@openzeppelin/contracts-upgradeable/proxy/utils/Initializable.sol\";\nimport \"@openzeppelin/contracts-upgradeable/token/ERC20/IERC20Upgradeable.sol\";\nimport \"../access/IAccessRestriction.sol\";\nimport \"./IPlanterFund.sol\";\n\n/** @title DaiFunds Contract */\ncontract DaiFunds is Initializable {\nfunction c_0x934e0368(bytes32 c__0x934e0368) public pure {}\n\n    /** NOTE {isDaiFunds} set inside the initialize to {true} */\n    bool public isDaiFunds;\n\n    IAccessRestriction public accessRestriction;\n    IPlanterFund public planterFundContract;\n    IERC20Upgradeable public daiToken;\n\n    /** NOTE {totalFunds} is struct of TotalFund that keep total share of\n     * treeResearch, localDevelop,rescueFund,treejerDeveop,reserveFund1\n     * and reserveFund2\n     */\n    TotalFunds public totalFunds;\n\n    address public treeResearchAddress;\n    address public localDevelopAddress;\n    address public rescueFundAddress;\n    address public treejerDevelopAddress;\n    address public reserveFundAddress1;\n    address public reserveFundAddress2;\n\n    struct TotalFunds {\n        uint256 treeResearch;\n        uint256 localDevelop;\n        uint256 rescueFund;\n        uint256 treejerDevelop;\n        uint256 reserveFund1;\n        uint256 reserveFund2;\n    }\n\n    event TreeResearchBalanceWithdrawn(\n        uint256 amount,\n        address account,\n        string reason\n    );\n    event LocalDevelopBalanceWithdrawn(\n        uint256 amount,\n        address account,\n        string reason\n    );\n    event RescueBalanceWithdrawn(\n        uint256 amount,\n        address account,\n        string reason\n    );\n    event TreejerDevelopBalanceWithdrawn(\n        uint256 amount,\n        address account,\n        string reason\n    );\n    event ReserveBalanceWithdrawn1(\n        uint256 amount,\n        address account,\n        string reason\n    );\n    event ReserveBalanceWithdrawn2(\n        uint256 amount,\n        address account,\n        string reason\n    );\n\n    event TreeFunded(uint256 treeId, uint256 amount, uint256 planterPart);\n\n    /** NOTE modifier to check msg.sender has admin role */\n    modifier onlyAdmin() {c_0x934e0368(0xc31d46b57eb60fe22a7ffc4714b9a0f8368eafe91b7e4efe75f87720878cb1b8); /* function */ \n\nc_0x934e0368(0x6204c12cc5ee9e6f9a9230820ccd67023c838b66f3e89ca1f421451ad70b1053); /* line */ \n        c_0x934e0368(0x70a9674d9e18c33a20cce8f5c0247a06a9a327dd22b4c9f97e516a03554dc77b); /* statement */ \naccessRestriction.ifAdmin(msg.sender);\nc_0x934e0368(0xebcedd155137746292a6767ec80da696547d45bb4aa2aaa12490fd26cb4d81f4); /* line */ \n        _;\n    }\n\n    /** NOTE modifier for check if function is not paused*/\n    modifier ifNotPaused() {c_0x934e0368(0x98481d4b14c9ee1049089f59021689b1e1de3256a92f12615bb25d1cf5add605); /* function */ \n\nc_0x934e0368(0x86181bdb24a510163e8083ff642036739d9acde225660b9debbaf75d57cae4d1); /* line */ \n        c_0x934e0368(0x7ee9eec84fdc014278ae6a07e0f7193d1574299394b4f91dc4c0a3fa49271ae9); /* statement */ \naccessRestriction.ifNotPaused();\nc_0x934e0368(0xd0d9828d3a2c6f1997571326755747ea31de71a4e398a6c9cbffde09552aca31); /* line */ \n        _;\n    }\n\n    /** NOTE modifier for check msg.sender has TreejerContract role */\n    modifier onlyTreejerContract() {c_0x934e0368(0x8bc592f2b40fc57064d918ff235b1f18966c57b811836c8b4a90e5da812e3e5a); /* function */ \n\nc_0x934e0368(0xc6f0b3188a640c6b69bc043f6653e0c32e65646ec2c47876386637adaf77e9ec); /* line */ \n        c_0x934e0368(0x2c605fde5a9b2b458c5462748521edd88ee23452599d42c5022c26bd39c31ef2); /* statement */ \naccessRestriction.ifTreejerContract(msg.sender);\nc_0x934e0368(0x4b2abd658db62583f04491613a4df8f7de1a6785e68fbdb1e695b8d259e2a828); /* line */ \n        _;\n    }\n    /** NOTE modifier for check valid address */\n    modifier validAddress(address _address) {c_0x934e0368(0x795a63b1ec044e9998eb5be4e4863c3aaa67da02ebefc0ecd780fe31b7cb2686); /* function */ \n\nc_0x934e0368(0x8542d49a5c0b8ac9c936e3b4bb9684b4ca156ac0a8ff1daba4dba27c7b8de993); /* line */ \n        c_0x934e0368(0xae1505d7f387e6dfb5217bfb5f220a97d1f999454f26b0be8ef533321ac4bd91); /* requirePre */ \nc_0x934e0368(0x3b8e2174a8dbcd4bb9e9db43f5cfcbe5c98abe64a29e3903c051e272892dd91e); /* statement */ \nrequire(_address != address(0), \"invalid address\");c_0x934e0368(0x1e4f64cc94b43caa66f1ab11a502122e440b4ba1148e708304939f7ac23a4560); /* requirePost */ \n\nc_0x934e0368(0x9b82f95c59152ce05cfb57016352b45011c30555f344ee5c87c7ba5c773e9006); /* line */ \n        _;\n    }\n\n    /**\n     * @dev initialize accessRestriction contract and set true for isDaiFunds\n     * @param _accessRestrictionAddress set to the address of accessRestriction contract\n     */\n    function initialize(address _accessRestrictionAddress)\n        external\n        initializer\n    {c_0x934e0368(0x0ca8db56d41871062143e4d16caaaf511f27f9e1af35f9ba324eaa103e34b968); /* function */ \n\nc_0x934e0368(0xe509116e7b431247230b4644717e00f67c4297eb8e75243091789bb27f319ad8); /* line */ \n        c_0x934e0368(0x41004ef000ced070f888919dcb0a4b14b2b75dc2811b18cfd7d73c90428bfcdc); /* statement */ \nIAccessRestriction candidateContract = IAccessRestriction(\n            _accessRestrictionAddress\n        );\n\nc_0x934e0368(0x810cb93d719a4c7f31ae610b699961f00387a4eb2a08de1fe0931e5f0ccd6457); /* line */ \n        c_0x934e0368(0x795d86c03d372dca6eec400cb90d25d8b0f37ee8247769837d5db8e0e1ebff0f); /* requirePre */ \nc_0x934e0368(0x5a64421644ff8ac627be2a420f5e6de3721388f3278f5b5c16f454f5f62eb09b); /* statement */ \nrequire(candidateContract.isAccessRestriction());c_0x934e0368(0x13bc44d487fadc69212f244c633fba90cccdff4c260a5d327409ca71808cdd21); /* requirePost */ \n\n\nc_0x934e0368(0x37b37fd4d0e11743e07c08870268931ef8622c0af1dc57ab8e39418e1b5d554b); /* line */ \n        c_0x934e0368(0x0b6b2e26e322a4312e239883640f6fc881b7f68d951f5beadf4f54290abbe928); /* statement */ \nisDaiFunds = true;\nc_0x934e0368(0xab33e51a32cb148437544ddf26ab2154c3deeeb2998f01dc778c6a5b1061a0ab); /* line */ \n        c_0x934e0368(0x43dc75edb132f0856806070bc8e4c74a4246b7ddbf95713359e5c1dd65b0c1d3); /* statement */ \naccessRestriction = candidateContract;\n    }\n\n    /**\n     * @dev admin set DaiToken address\n     * @param _daiTokenAddress set to the address of DaiToken\n     */\n    function setDaiTokenAddress(address _daiTokenAddress)\n        external\n        onlyAdmin\n        validAddress(_daiTokenAddress)\n    {c_0x934e0368(0xadd414661f725aa9bad102a8509dc6cf3ad922620d9736be22bb1ee51d3c1497); /* function */ \n\nc_0x934e0368(0xc6f57f8a6c201cff239a82dbb6d982f8300b70e126a7ba84c6150266b085189f); /* line */ \n        c_0x934e0368(0x0d182a2311b93807dee85df6224f497768fd3938e36469cd74556f2fd5c0c631); /* statement */ \nIERC20Upgradeable candidateContract = IERC20Upgradeable(\n            _daiTokenAddress\n        );\nc_0x934e0368(0x1af691aa28dcd79b5eac031b3f05c974ca9dbefd447b40be81beb651e79ea7d2); /* line */ \n        c_0x934e0368(0xa0e56e6bc97b3da4c92bf030702704bf4204f964e22d35c2945de06b28fbea29); /* statement */ \ndaiToken = candidateContract;\n    }\n\n    /**\n     * @dev admin set PlanterFund address\n     * @param _address set to the address of PlanterFund\n     */\n    function setPlanterFundContractAddress(address _address)\n        external\n        onlyAdmin\n    {c_0x934e0368(0x9c61e34f27eaeedc2e21044024bfe99fe714856976e324c4a5bc140053a6a290); /* function */ \n\nc_0x934e0368(0x36fa425e5afb9976daa03a0105b8fef3608a704d1c9af2b3f1c46245142e4cca); /* line */ \n        c_0x934e0368(0x097809fec9d05a272945e9b60561d3921ee67d5c98e547a3d724f91758ab193d); /* statement */ \nIPlanterFund candidateContract = IPlanterFund(_address);\nc_0x934e0368(0x4d0ef0096542120e0a6d3419348cc4e897b7fc2fafde488e9b3318fe4abe684d); /* line */ \n        c_0x934e0368(0x1aac4b71ad4eae3cd73cdf38d44700aa5eaf39fd134a0579d6cc297e5d1080a9); /* requirePre */ \nc_0x934e0368(0x380360ea48fe1da4e9086ebdae806816ba32db4b52a721458481f683f4cd2f7b); /* statement */ \nrequire(candidateContract.isPlanterFund());c_0x934e0368(0x28ed7b68672aaa7892abd155ad9ddfdc6330c8d8da922f5686e5b55dc669e151); /* requirePost */ \n\nc_0x934e0368(0xa470205c6a4e2c322472bec90b6b6cd3db40ff1af3765999d0daa6d0c360b393); /* line */ \n        c_0x934e0368(0xe380d3351f8f0ae0c9875b54588f9b0fa71578b8929070de4255e41183181cfc); /* statement */ \nplanterFundContract = candidateContract;\n    }\n\n    /**\n     * @dev admin set treeResearch address to fund\n     * @param _address tree research address\n     */\n    function setTreeResearchAddress(address payable _address)\n        external\n        onlyAdmin\n        validAddress(_address)\n    {c_0x934e0368(0x43734623298fb4755e3efaeb7a5cb6db9a75d9aea8dcb987c8050518c835e6fa); /* function */ \n\nc_0x934e0368(0xd99cbe689188a782d658e8448e5a5e1562ce69ad563204751b2e537ee671037e); /* line */ \n        c_0x934e0368(0x8f4a670e376528a4e976c8e2e613fdec225d5b5ebf613ab982a9177b49f4e7d5); /* statement */ \ntreeResearchAddress = _address;\n    }\n\n    /**\n     * @dev admin set localDevelop address to fund\n     * @param _address local develop address\n     */\n    function setLocalDevelopAddress(address payable _address)\n        external\n        onlyAdmin\n        validAddress(_address)\n    {c_0x934e0368(0x5fbd38fd97209b9d4ca5ff5ab0c85e9dbbc5a6a7d953a7691ef217a7e843676c); /* function */ \n\nc_0x934e0368(0x3c37b606c67fda1a22679edf8f008334b7219005106fe8bb1da01bea96d651bd); /* line */ \n        c_0x934e0368(0x63a080af692e3ec8b07a9c6c28f8b0be7c190a7c7511bba6c4ec8eb98766c535); /* statement */ \nlocalDevelopAddress = _address;\n    }\n\n    /**\n     * @dev admin set rescue address to fund\n     * @param _address rescue fund address\n     */\n    function setRescueFundAddress(address payable _address)\n        external\n        onlyAdmin\n        validAddress(_address)\n    {c_0x934e0368(0xcd9743756450f4a8889f4c9c3b34cfd563b896901e20d08b33f51513d09a2fae); /* function */ \n\nc_0x934e0368(0xb47ad127bb9130c2f000b100a0ed08239afd453e631e7a42307f1c7c513f1b30); /* line */ \n        c_0x934e0368(0xdcbcd632d06e66d546f3fd8c0827cc6e8606d1852f98280a3feaee58fec96c70); /* statement */ \nrescueFundAddress = _address;\n    }\n\n    /**\n     * @dev admin set treejerDevelop address to fund\n     * @param _address treejer develop address\n     */\n    function setTreejerDevelopAddress(address payable _address)\n        external\n        onlyAdmin\n        validAddress(_address)\n    {c_0x934e0368(0x1416a5534c1178e2d848d37cb8514a147c0d87d8c6738fcb640f38d515c73840); /* function */ \n\nc_0x934e0368(0xde788727ca9fdd70891cef288edef51306774250f561ca2b0c7384968f2e9faa); /* line */ \n        c_0x934e0368(0x3b1afc6a18b2b9899c7ec12508117fcaff419ec80eb101af28ddb260e28fc0b8); /* statement */ \ntreejerDevelopAddress = _address;\n    }\n\n    /**\n     * @dev admin set reserveFund1 address to fund\n     * @param _address reserveFund1 address\n     */\n    function setReserveFund1Address(address payable _address)\n        external\n        onlyAdmin\n        validAddress(_address)\n    {c_0x934e0368(0x882f955370f05bca384d14adc7469ed3eadfe5fcbeb6e267a06ddb98702f2b82); /* function */ \n\nc_0x934e0368(0x99526ea96b49d4b255a5eff98cee784bb954f5b28d1881c444d505ce687886c5); /* line */ \n        c_0x934e0368(0xade463d95f5219ca2ea4d54e9b8ad32410e0a576287805758457feb0a8927e50); /* statement */ \nreserveFundAddress1 = _address;\n    }\n\n    /**\n     * @dev admin set reserveFund2 address to fund\n     * @param _address reserveFund2 address\n     */\n    function setReserveFund2Address(address payable _address)\n        external\n        onlyAdmin\n        validAddress(_address)\n    {c_0x934e0368(0xc7768577dfdc2398494a4a19b671dd75e4e3108c8aca286f4548592f06844585); /* function */ \n\nc_0x934e0368(0xe53487ae4069c6eea160028204502e12b211f7d068b4405fe474a2f8bf5ca34d); /* line */ \n        c_0x934e0368(0x254bb23029f5031d8f75c0146eac8083d00663ae7d2144caecfd5bf2848c0025); /* statement */ \nreserveFundAddress2 = _address;\n    }\n\n    /**\n     * @dev fund a tree by RegularSell contract and based on distribution\n     * model of tree, shares divide beetwen (planter, referral, treeResearch,\n     * localDevelop, rescueFund, treejerDevelop, reserveFund1 and reserveFund2)\n     * and added to the totalFunds of each part,\n     * @param _treeId id of a tree to fund\n     * NOTE planterFund and referralFund share transfer to PlanterFund contract\n     * and add to totalFund section there\n     */\n    function fundTree(\n        uint256 _treeId,\n        uint256 _amount,\n        uint16 _planterFund,\n        uint16 _referralFund,\n        uint16 _treeResearch,\n        uint16 _localDevelop,\n        uint16 _rescueFund,\n        uint16 _treejerDevelop,\n        uint16 _reserveFund1,\n        uint16 _reserveFund2\n    ) external onlyTreejerContract {c_0x934e0368(0x2ed76a5ce696d6d6076712250d4c0c6911fe7e34e36c55ccd09e6cfc67d57109); /* function */ \n\nc_0x934e0368(0x3ca3c91e9186ce4034f714b2c6a452da2019b36049c01cd04f37da052bcabea1); /* line */ \n        c_0x934e0368(0x1f33c502cc3503e156bb400e25663d931553e008acc047d8d304822fe2712200); /* statement */ \ntotalFunds.rescueFund += (_amount * _rescueFund) / 10000;\n\nc_0x934e0368(0xfcb47ef51e903d326cad0bd831faed5894f50f16d20948f399cdef232fbd40b2); /* line */ \n        c_0x934e0368(0xcf87ec521ad235ca2c706faece077816fea99703cd70e7581f0ac4d44dede84f); /* statement */ \ntotalFunds.localDevelop += (_amount * _localDevelop) / 10000;\n\nc_0x934e0368(0x47a316a223a014e5542e64889003bff795c697761226670c327d8c2f748fe741); /* line */ \n        c_0x934e0368(0xeffb86cb51a6b5fe0d434aada40b3baf2407c82e98d6bbe35cfb11a5259c7320); /* statement */ \ntotalFunds.reserveFund1 += (_amount * _reserveFund1) / 10000;\n\nc_0x934e0368(0x8532447fdb57c9ed1524b83561bbe3c4bdd93ddee25ed9fe1274714da3f70269); /* line */ \n        c_0x934e0368(0x5cddce1905ae889bc1e6abe7ab6141754dc42ba69e7c62c20bf3104d19f97ba9); /* statement */ \ntotalFunds.reserveFund2 += (_amount * _reserveFund2) / 10000;\n\nc_0x934e0368(0xafaaf103f0eb35910dc3c714c4f126935a0c06810799728cd5f9f76666f39a6f); /* line */ \n        c_0x934e0368(0x2d05fae5c14cd9a3d408f718d87d84846062613fb2fb087ae7863e19c3043f20); /* statement */ \ntotalFunds.treejerDevelop += (_amount * _treejerDevelop) / 10000;\n\nc_0x934e0368(0x9f884bfdb5317339ff861915d264feafedad4ada31b5f80537f572668701e159); /* line */ \n        c_0x934e0368(0xffddf728789ecccfb0d359215eb2890176b66afd2a5e6ced11012be5ab1aeb73); /* statement */ \ntotalFunds.treeResearch += (_amount * _treeResearch) / 10000;\n\nc_0x934e0368(0x9f2050528fe5d9b94cdeffc089e0890a6e5708574979bd266cb54e634e5194a2); /* line */ \n        c_0x934e0368(0xeaa2ee97da558fe3c48e22978258ef5b8e49e84d13ec659a392ff6678fa6385c); /* statement */ \nuint256 planterFund = (_amount * _planterFund) / 10000;\nc_0x934e0368(0xbd1ceba56d121e413e55b56b6164b47a213d05330a1f9d37eff007e8d8ec1e55); /* line */ \n        c_0x934e0368(0x82d7bd9733052e43ec04dbc8bb434602a10b6464ffda670c1f013e444847dad9); /* statement */ \nuint256 referralFund = (_amount * _referralFund) / 10000;\n\nc_0x934e0368(0xd3c4f7dc50c1e9e12a532d9c0bd7fa3303662593f83bed00f6131d3ae7042cff); /* line */ \n        c_0x934e0368(0x4a50077e294f8dc4a71fb6e85cff00c829a12f51c6fdeaa60974937b400819c7); /* statement */ \nbool success = daiToken.transfer(\n            address(planterFundContract),\n            planterFund + referralFund\n        );\n\nc_0x934e0368(0xb800be0907bad3c5d2d7378b7f1cf2c8efa2cc5b63f75f964f168bb460c8c1c3); /* line */ \n        c_0x934e0368(0xefd1a343678069b7f0cce3de33926b1522d5f74097fb3c45338a6fe6822b3705); /* requirePre */ \nc_0x934e0368(0x4488db6ba938fe6d96f0459567dbfbb06e8d9467574f73594ba046efaec1bcaf); /* statement */ \nrequire(success, \"unsuccessful transfer\");c_0x934e0368(0x67e02f65277cbee6df861ad5fa894b95ff0d672dfa800a4a4c9ada7385f7a86d); /* requirePost */ \n\n\nc_0x934e0368(0x918e63df830bb54b492ababfde10bb37a2cb8c707fe063e565b371bdfed75873); /* line */ \n        c_0x934e0368(0xf3de76551ac25f907d7ebaa04f8218d65267757917a603a17429082bedfdf35b); /* statement */ \nplanterFundContract.setPlanterFunds(_treeId, planterFund, referralFund);\n\nc_0x934e0368(0x9d96c52637aff349ce9107752df644e6f5d5c99ef3f23e0b739dc5a8ab720bd4); /* line */ \n        c_0x934e0368(0x9c29dcfacd8702961d2b3f133ed10865ffa40b5eb547fa1becc7fbfd0dc21cdc); /* statement */ \nemit TreeFunded(_treeId, _amount, planterFund + referralFund);\n    }\n\n    /**\n     * @dev admin withdraw {_amount} from treeResearch totalFund in case of\n     * valid {_amount}  and daiToken transfer to {treeResearchAddress}\n     * @param _amount amount to withdraw\n     * @param _reason reason to withdraw\n     */\n    function withdrawTreeResearch(uint256 _amount, string calldata _reason)\n        external\n        ifNotPaused\n        onlyAdmin\n        validAddress(treeResearchAddress)\n    {c_0x934e0368(0x9f05dff9c986729351ba863ade4a20eb1364d33732bd2404e933944c87df256e); /* function */ \n\nc_0x934e0368(0x414371f05d3f728aff488959dba88cd170505066f540741eed905c2dcbc82561); /* line */ \n        c_0x934e0368(0x7ec6e2dd0744ed545d1e8c3337896419126bdb43106f12d6c6a6ed7db21c1e2e); /* requirePre */ \nc_0x934e0368(0x107c624f38a719ae552c8b9c196c687bd1edc4aaf20cebbbc740647ecc473e32); /* statement */ \nrequire(\n            _amount <= totalFunds.treeResearch && _amount > 0,\n            \"insufficient amount\"\n        );c_0x934e0368(0xeb4bbd13195722077478365b8361b627580900bed8d856b9d1a9d94b6710dfee); /* requirePost */ \n\n\nc_0x934e0368(0x5b3e1525fd1568c27e7d15fabe057893f4c9016e05637849221abb8c7e0b93c5); /* line */ \n        c_0x934e0368(0xfe2868a8055dfa69fe94ac43c80c4a1dacad24b652321968f96ac4893e39806e); /* statement */ \ntotalFunds.treeResearch -= _amount;\n\nc_0x934e0368(0xc6ce591a29d723a75ffcb486b8f12eb83ccb2b360593cd1128c9d84f4c754797); /* line */ \n        c_0x934e0368(0x6a7538e63b88020194cdb319c5048f1f509264cec569f9fd92308ba182e5b797); /* statement */ \nbool success = daiToken.transfer(treeResearchAddress, _amount);\n\nc_0x934e0368(0x14701be919c252dabdf9092d9386f9a553fdd613ed2493c766f010fa17854615); /* line */ \n        c_0x934e0368(0x900d91a7946c2dfbf6e6ad8fe7fc75d5e45566077b52c5e55afa575dfa7b4999); /* requirePre */ \nc_0x934e0368(0x2fd595ce190930dbf8e73d116f3bede5bd17eb8e23135cef24a5b3950fc046de); /* statement */ \nrequire(success, \"unsuccessful transfer\");c_0x934e0368(0x1cf1d690e27d8f4d8d210c691623f4394c733656a2179ea8a1f269a884e26b62); /* requirePost */ \n\n\nc_0x934e0368(0x867ad47a166630dfc790cde0a10a373f4ec26a169ec344f812f0041862598326); /* line */ \n        c_0x934e0368(0x60fa0a7ff5df630b753f8fb1a21ae03db6bafc2fd61c11f92d9a62f7f91b1e4a); /* statement */ \nemit TreeResearchBalanceWithdrawn(\n            _amount,\n            treeResearchAddress,\n            _reason\n        );\n    }\n\n    /**\n     * @dev admin withdraw {_amount} from localDevelop totalFund in case of\n     * valid {_amount} and daiToken transfer to {localDevelopAddress}\n     * @param _amount amount to withdraw\n     * @param _reason reason to withdraw\n     */\n    function withdrawLocalDevelop(uint256 _amount, string calldata _reason)\n        external\n        ifNotPaused\n        onlyAdmin\n        validAddress(localDevelopAddress)\n    {c_0x934e0368(0x42ba810ff5992dd869a17253d7bb7d6967962a026c2ff553437f2c5fe800911c); /* function */ \n\nc_0x934e0368(0xc989a9d50977ceab06564ce12b240bb3c3f67b225706c24c2b825525a4583ac5); /* line */ \n        c_0x934e0368(0xc5e85340acd69061f310b092d68c366ded6d94a3c916bd1b4b2eec51483dda8d); /* requirePre */ \nc_0x934e0368(0xe193b7a6d25840529fbd5cc0ac511153a0deddbb8ffe0f39a9b176ab01590cbe); /* statement */ \nrequire(\n            _amount <= totalFunds.localDevelop && _amount > 0,\n            \"insufficient amount\"\n        );c_0x934e0368(0x0ab2913511a8dbf3b7bca93d5a6ea38383aa43f6229f611cc88f99614a030571); /* requirePost */ \n\n\nc_0x934e0368(0xc8e2542018115fc93640965cfd61f65b56ead235f4f3720ede820b734ae238d1); /* line */ \n        c_0x934e0368(0x0461f77c73283637ea94e5d248d03997d14bd34fc510008b3ba35c8ea95b67af); /* statement */ \ntotalFunds.localDevelop -= _amount;\n\nc_0x934e0368(0xa225701f6fe9cd4fcfa3cc98c09e2d3d173cc450b72243a238a31ab7be47eb75); /* line */ \n        c_0x934e0368(0x73e3743a60c26b9af731d0a383350940f9c99ffa0a43418ae542ae5aab691975); /* statement */ \nbool success = daiToken.transfer(localDevelopAddress, _amount);\n\nc_0x934e0368(0xfa80989cf2648b2de6e7ea5d32596223f811a3abce8012f4ff4e682137b83aff); /* line */ \n        c_0x934e0368(0xc9a1c80665efe9823b4e9761f6aaec97107c94c76f318e1ad5f3eacbc523dbc9); /* requirePre */ \nc_0x934e0368(0x60d11805fe22a454b14f45d7740d7351291f77a867466d7facafdf1e00cd66c3); /* statement */ \nrequire(success, \"unsuccessful transfer\");c_0x934e0368(0x230c0ee33465de6d481fcf07c8b895e65ba02ac96555524c9da9fd78c3a7a070); /* requirePost */ \n\n\nc_0x934e0368(0xb0c79f29f84befa4881c308c75e18b3f4c86e8166a0f57760f137ad9906be556); /* line */ \n        c_0x934e0368(0xc77084f5df579472c51879be13564ce89a5ceb46e1caf8a33d4fed0ab1f1d1b3); /* statement */ \nemit LocalDevelopBalanceWithdrawn(\n            _amount,\n            localDevelopAddress,\n            _reason\n        );\n    }\n\n    /**\n     * @dev admin withdraw {_amount} from rescueFund totalFund in case of\n     * valid {_amount} and daiToken transfer to {rescueFundAddress}\n     * @param _amount amount to withdraw\n     * @param _reason reason to withdraw\n     */\n    function withdrawRescueFund(uint256 _amount, string calldata _reason)\n        external\n        ifNotPaused\n        onlyAdmin\n        validAddress(rescueFundAddress)\n    {c_0x934e0368(0x9870edffc2d6af6b9180eb9fce9d3fffce835d9952554f43c0aa24ec8d1b1e1f); /* function */ \n\nc_0x934e0368(0x78635f8db00743f1708f144e4e87fba8d3052380ad2492b186de970d802edf5a); /* line */ \n        c_0x934e0368(0x2fd613aae2144a350385241aace5ae3dac06da5ae46afabfcfd8f11b4d5d8777); /* requirePre */ \nc_0x934e0368(0xef15aef8e18154e6784584ea3d3d470527fadcd94a8d257dc3e652766e66ce13); /* statement */ \nrequire(\n            _amount <= totalFunds.rescueFund && _amount > 0,\n            \"insufficient amount\"\n        );c_0x934e0368(0xeb1ccf3afd8d10d93b3be055de5c42228c1775df8feda6b777d0b95ca496ae76); /* requirePost */ \n\n\nc_0x934e0368(0xe10812c5bc064a8de3593285996f774a10e398dabc3b5c88df2e5c6ab6edbb7b); /* line */ \n        c_0x934e0368(0x0a014fe76289476b8526dfff4273d93afb051327b5cdd55669dba3d2cfd11d43); /* statement */ \ntotalFunds.rescueFund -= _amount;\n\nc_0x934e0368(0x7279f04da3727458ed1b149dd792073a02c97e4706c01bf3c45ca1aa59fcd2d2); /* line */ \n        c_0x934e0368(0xca601e9469d244ea71d09ba37ba60ecb50655ff0f96058399bc57e76199255da); /* statement */ \nbool success = daiToken.transfer(rescueFundAddress, _amount);\n\nc_0x934e0368(0x8fd65cd37e833ec854d54dc08cc4f42801cd3113fe3b3218ff7dd4860891bd79); /* line */ \n        c_0x934e0368(0x7f4f4b15411d4f12d3666960bb555a76371fe35fb2d8d4796376b3e792f6f7f0); /* requirePre */ \nc_0x934e0368(0xde47418640c83ba480c1946cd9ee294edb1d2dc088e0c9dcfbfb8d980d09b551); /* statement */ \nrequire(success, \"unsuccessful transfer\");c_0x934e0368(0xc57419e8c01065ee066377233c33544a419a2cc85e00395e1736cc2103a7eb80); /* requirePost */ \n\n\nc_0x934e0368(0x007da7533d6869d148863879dd2fa3d0966d7c2f6b5e0f5fe1aa81ed0c8e60e7); /* line */ \n        c_0x934e0368(0x7609f829ebe33276a1d3c13d9f6d890512fea3ef6f606336016f1d194e996d78); /* statement */ \nemit RescueBalanceWithdrawn(_amount, rescueFundAddress, _reason);\n    }\n\n    /**\n     * @dev admin withdraw {_amount} from treejerDevelop totalFund in case of\n     * valid {_amount} and daiToken transfer to {treejerDevelopAddress}\n     * @param _amount amount to withdraw\n     * @param _reason reason to withdraw\n     */\n    function withdrawTreejerDevelop(uint256 _amount, string calldata _reason)\n        external\n        ifNotPaused\n        onlyAdmin\n        validAddress(treejerDevelopAddress)\n    {c_0x934e0368(0x33d18b9d58fef9090b708ccb05825a8a5ad29a8dff06e03e4cef09d07dd89d70); /* function */ \n\nc_0x934e0368(0x27ea03ab35e439f79cc008e80c2db4ad1754d6d64b65646e71ef6cb400e5e37a); /* line */ \n        c_0x934e0368(0xefaac22c11e5359fc76c7bad416243ded8aa6435a759b2e1d8df0f38aecaeb94); /* requirePre */ \nc_0x934e0368(0xeeaba98e6f46e92ab69b47e2c9ca88cc53ecf35234d3de83386c7bf5871d73f2); /* statement */ \nrequire(\n            _amount <= totalFunds.treejerDevelop && _amount > 0,\n            \"insufficient amount\"\n        );c_0x934e0368(0xde0d434d5a559a0f89d0250ccc95bc21a2bef637f626078ea6e1083d196398eb); /* requirePost */ \n\n\nc_0x934e0368(0x01858a6d606e304d8ab0d3a2ef603c749fa988a09653d05e015b25df6d89f410); /* line */ \n        c_0x934e0368(0x3ede5d870aab882b5b59c3854007336e62899c97f91c8432e0134722b225e3a8); /* statement */ \ntotalFunds.treejerDevelop -= _amount;\n\nc_0x934e0368(0x7572b89ba4db164d4d5fed73aaaed0b74e6c4b139eb22bb40e18731bf10b7ec3); /* line */ \n        c_0x934e0368(0x8b60f69c8d8b2a46f6e6024fe787260b72072593babb04e49204a4121692ba71); /* statement */ \nbool success = daiToken.transfer(treejerDevelopAddress, _amount);\n\nc_0x934e0368(0x76095280a25aa803d6e4c5dea71c49f0afb372b50d79bb5745ba9dd111ddea76); /* line */ \n        c_0x934e0368(0x3b36b189134f7c982d5b79521ee907939acbab5534dafe69143d0fe15ccc7820); /* requirePre */ \nc_0x934e0368(0xd53951464b9d29e3e77150f2e944119083e1c0a7e38f83d306d3ecaf77a5f3d4); /* statement */ \nrequire(success, \"unsuccessful transfer\");c_0x934e0368(0xbe9e7a1faf46aaf8fd2d7fcf81af03ce04bb94942effc5da7020c0ee675c4a3e); /* requirePost */ \n\n\nc_0x934e0368(0x9f6867972599125cb2424929c7c49312fd7120a379ced38b88072fb33227a8db); /* line */ \n        c_0x934e0368(0xce80e3ac128b19658b3225cc20cb826cf7633f5554b49a06bd26ac8f757a0f96); /* statement */ \nemit TreejerDevelopBalanceWithdrawn(\n            _amount,\n            treejerDevelopAddress,\n            _reason\n        );\n    }\n\n    /**\n     * @dev admin withdraw {_amount} from reserveFund1 totalFund in case of\n     * valid {_amount} and daiToken transfer to {reserveFundAddress1}\n     * @param _amount amount to withdraw\n     * @param _reason reason to withdraw\n     */\n    function withdrawReserveFund1(uint256 _amount, string calldata _reason)\n        external\n        ifNotPaused\n        onlyAdmin\n        validAddress(reserveFundAddress1)\n    {c_0x934e0368(0x055c44030e8a30b0904bc30afe61bc6c57129a4fdb8c3be338dec4fb5a0f0220); /* function */ \n\nc_0x934e0368(0x385206bd52cd707e9a0fbd42616514a857902645d73365fb87d130dadd2ec33d); /* line */ \n        c_0x934e0368(0xb9e5ae3f852d184868c9fc941d0de4e5a16d9c1842a3abbb3c1eacc12145d6c0); /* requirePre */ \nc_0x934e0368(0x21cbe5e9b69891f7683825499bafdd40c27222e698b9cbd697ab5f7fbcc022f3); /* statement */ \nrequire(\n            _amount <= totalFunds.reserveFund1 && _amount > 0,\n            \"insufficient amount\"\n        );c_0x934e0368(0xeafcf628b8aa5689424a89d99b343dfa4ac7947d816a11c7d22d6718e300615c); /* requirePost */ \n\n\nc_0x934e0368(0xbc989c9b5e3c381c7d074ad162039fcf6456f567aa5b07e9edc606e451f7dcce); /* line */ \n        c_0x934e0368(0x57863ddc262bc11b1876533bba55fdfbbef900a3be5e440c732da5870e5f3639); /* statement */ \ntotalFunds.reserveFund1 -= _amount;\n\nc_0x934e0368(0x2cfcc1a93fd85c31d7677148913e8edbd98f8544ee7f0706c2264613a76b9e1f); /* line */ \n        c_0x934e0368(0xbef62b0ff10d5c022203cd8a93d918ff3d544e1dd2a4657e3b20aa269e45cd08); /* statement */ \nbool success = daiToken.transfer(reserveFundAddress1, _amount);\n\nc_0x934e0368(0x39e74ddf0d2c45a22a653fa270c02bcccfc2006df1dde90af292a25abcbae319); /* line */ \n        c_0x934e0368(0xec759c2925977e52a434748925fb03f3f82ad23255daef335d12382f089be216); /* requirePre */ \nc_0x934e0368(0xcbd71d6dee40e3ab39e2312e462f61a4cfe742217baae1ef257929c5820bf74a); /* statement */ \nrequire(success, \"unsuccessful transfer\");c_0x934e0368(0x444137795c9404f0141e8ae22a9ed6d2462ba624eeebcf7329e71053884800e7); /* requirePost */ \n\n\nc_0x934e0368(0xfc4d408097acbfa972edc1e7590f8f9445839db346634084e7565baddfbede40); /* line */ \n        c_0x934e0368(0xddfb495d512c788a6a0f4e384d82817c55e9c26116a92be463a0435c5227ce1a); /* statement */ \nemit ReserveBalanceWithdrawn1(_amount, reserveFundAddress1, _reason);\n    }\n\n    /**\n     * @dev admin withdraw {_amount} from reserveFund2 totalFund in case of\n     * valid {_amount} and daiToken transfer to {reserveFundAddress2}\n     * @param _amount amount to withdraw\n     * @param _reason reason to withdraw\n     */\n    function withdrawReserveFund2(uint256 _amount, string calldata _reason)\n        external\n        ifNotPaused\n        onlyAdmin\n        validAddress(reserveFundAddress2)\n    {c_0x934e0368(0x65db9ada780298f8de481f94c49bfd220ad1db755a172ca150183073186c5ade); /* function */ \n\nc_0x934e0368(0x19b1da17696b08a83b8c8b2873a8b8805bdcbc4cd99c3319771717e8474d876d); /* line */ \n        c_0x934e0368(0x4684d6fc6d49f7de55181942366053531d7dc6ac9e1b71bdef351dadf2b7d49a); /* requirePre */ \nc_0x934e0368(0xa55e3753b0a9c7f2db97bbc4167f643d7e56a815481cf06315d5c21e9270fc1c); /* statement */ \nrequire(\n            _amount <= totalFunds.reserveFund2 && _amount > 0,\n            \"insufficient amount\"\n        );c_0x934e0368(0xd9468cb16f2982689131ff4048385f47d01f2900c7ef79348cf9bfc632b03c02); /* requirePost */ \n\n\nc_0x934e0368(0xfcc917a8a459b26d6e9104b53ddbfe8513b4e3c4932a019ed72c5afe909dfcd9); /* line */ \n        c_0x934e0368(0x7eaf62437f8eceb201b54b1dd783de4210e6d6886d42cdab6d8f6c3e25d4d6fc); /* statement */ \ntotalFunds.reserveFund2 -= _amount;\n\nc_0x934e0368(0x0c08b1e25782d769ecd4c085edb6c842bb5164e6e47257b50b733368945da36f); /* line */ \n        c_0x934e0368(0x680d194fbd886d75e4cb8a936d05f7d5cce9d6ffbfa43dbaaf071c2d20038943); /* statement */ \nbool success = daiToken.transfer(reserveFundAddress2, _amount);\n\nc_0x934e0368(0xe00186071db1145aa18c619416e636a81ea72f5804c946d38da8e109e03e6c16); /* line */ \n        c_0x934e0368(0x291c72860f31662ecd660c1e0f7e5dd1862a2cb54a71436f5a3c0073a94e67f1); /* requirePre */ \nc_0x934e0368(0x03ee1b6a7a8230451a9561578e744cacb4c8d7ae2951578e83c8db58f65506b5); /* statement */ \nrequire(success, \"unsuccessful transfer\");c_0x934e0368(0x0a8f1d90e5f3872f341775bd33be057b0b8f888d47cbf28c783fee6d7330bc58); /* requirePost */ \n\n\nc_0x934e0368(0xdc4ed1ade9dc16638efe2b2f808478c20b8272bb38703b294d1a4673dfdebe5b); /* line */ \n        c_0x934e0368(0x03312c2013aa9000d59402df15e4a5d4ae32a8bd06b0df3871beb74bbd956060); /* statement */ \nemit ReserveBalanceWithdrawn2(_amount, reserveFundAddress2, _reason);\n    }\n}\n",
  "sourcePath": "/home/smuggler/contract/.coverage_contracts/treasury/DaiFunds.sol",
  "compiler": {
    "name": "solc",
    "version": "0.8.6+commit.11564f7e.Emscripten.clang"
  },
  "schemaVersion": "3.4.1",
  "updatedAt": "2021-08-31T13:33:31.621Z",
  "devdoc": {
    "kind": "dev",
    "methods": {
      "fundTree(uint256,uint256,uint16,uint16,uint16,uint16,uint16,uint16,uint16,uint16)": {
        "details": "fund a tree by RegularSell contract and based on distribution model of tree, shares divide beetwen (planter, referral, treeResearch, localDevelop, rescueFund, treejerDevelop, reserveFund1 and reserveFund2) and added to the totalFunds of each part,",
        "params": {
          "_treeId": "id of a tree to fund NOTE planterFund and referralFund share transfer to PlanterFund contract and add to totalFund section there"
        }
      },
      "initialize(address)": {
        "details": "initialize accessRestriction contract and set true for isDaiFunds",
        "params": {
          "_accessRestrictionAddress": "set to the address of accessRestriction contract"
        }
      },
      "setDaiTokenAddress(address)": {
        "details": "admin set DaiToken address",
        "params": {
          "_daiTokenAddress": "set to the address of DaiToken"
        }
      },
      "setLocalDevelopAddress(address)": {
        "details": "admin set localDevelop address to fund",
        "params": {
          "_address": "local develop address"
        }
      },
      "setPlanterFundContractAddress(address)": {
        "details": "admin set PlanterFund address",
        "params": {
          "_address": "set to the address of PlanterFund"
        }
      },
      "setRescueFundAddress(address)": {
        "details": "admin set rescue address to fund",
        "params": {
          "_address": "rescue fund address"
        }
      },
      "setReserveFund1Address(address)": {
        "details": "admin set reserveFund1 address to fund",
        "params": {
          "_address": "reserveFund1 address"
        }
      },
      "setReserveFund2Address(address)": {
        "details": "admin set reserveFund2 address to fund",
        "params": {
          "_address": "reserveFund2 address"
        }
      },
      "setTreeResearchAddress(address)": {
        "details": "admin set treeResearch address to fund",
        "params": {
          "_address": "tree research address"
        }
      },
      "setTreejerDevelopAddress(address)": {
        "details": "admin set treejerDevelop address to fund",
        "params": {
          "_address": "treejer develop address"
        }
      },
      "withdrawLocalDevelop(uint256,string)": {
        "details": "admin withdraw {_amount} from localDevelop totalFund in case of valid {_amount} and daiToken transfer to {localDevelopAddress}",
        "params": {
          "_amount": "amount to withdraw",
          "_reason": "reason to withdraw"
        }
      },
      "withdrawRescueFund(uint256,string)": {
        "details": "admin withdraw {_amount} from rescueFund totalFund in case of valid {_amount} and daiToken transfer to {rescueFundAddress}",
        "params": {
          "_amount": "amount to withdraw",
          "_reason": "reason to withdraw"
        }
      },
      "withdrawReserveFund1(uint256,string)": {
        "details": "admin withdraw {_amount} from reserveFund1 totalFund in case of valid {_amount} and daiToken transfer to {reserveFundAddress1}",
        "params": {
          "_amount": "amount to withdraw",
          "_reason": "reason to withdraw"
        }
      },
      "withdrawReserveFund2(uint256,string)": {
        "details": "admin withdraw {_amount} from reserveFund2 totalFund in case of valid {_amount} and daiToken transfer to {reserveFundAddress2}",
        "params": {
          "_amount": "amount to withdraw",
          "_reason": "reason to withdraw"
        }
      },
      "withdrawTreeResearch(uint256,string)": {
        "details": "admin withdraw {_amount} from treeResearch totalFund in case of valid {_amount}  and daiToken transfer to {treeResearchAddress}",
        "params": {
          "_amount": "amount to withdraw",
          "_reason": "reason to withdraw"
        }
      },
      "withdrawTreejerDevelop(uint256,string)": {
        "details": "admin withdraw {_amount} from treejerDevelop totalFund in case of valid {_amount} and daiToken transfer to {treejerDevelopAddress}",
        "params": {
          "_amount": "amount to withdraw",
          "_reason": "reason to withdraw"
        }
      }
    },
    "title": "DaiFunds Contract ",
    "version": 1
  },
  "userdoc": {
    "kind": "user",
    "methods": {
      "isDaiFunds()": {
        "notice": "NOTE {isDaiFunds} set inside the initialize to {true} "
      },
      "totalFunds()": {
        "notice": "NOTE {totalFunds} is struct of TotalFund that keep total share of treeResearch, localDevelop,rescueFund,treejerDeveop,reserveFund1 and reserveFund2"
      }
    },
    "version": 1
  }
}