{
  "contractName": "FinancialModel",
  "abi": [
    {
      "anonymous": false,
      "inputs": [
        {
          "indexed": false,
          "internalType": "uint256",
          "name": "modelId",
          "type": "uint256"
        }
      ],
      "name": "DistributionModelAdded",
      "type": "event"
    },
    {
      "anonymous": false,
      "inputs": [
        {
          "indexed": false,
          "internalType": "uint256",
          "name": "assignModelsLength",
          "type": "uint256"
        }
      ],
      "name": "FundDistributionModelAssigned",
      "type": "event"
    },
    {
      "inputs": [],
      "name": "accessRestriction",
      "outputs": [
        {
          "internalType": "contract IAccessRestriction",
          "name": "",
          "type": "address"
        }
      ],
      "stateMutability": "view",
      "type": "function"
    },
    {
      "inputs": [
        {
          "internalType": "uint256",
          "name": "",
          "type": "uint256"
        }
      ],
      "name": "assignModels",
      "outputs": [
        {
          "internalType": "uint256",
          "name": "startingTreeId",
          "type": "uint256"
        },
        {
          "internalType": "uint256",
          "name": "distributionModelId",
          "type": "uint256"
        }
      ],
      "stateMutability": "view",
      "type": "function"
    },
    {
      "inputs": [
        {
          "internalType": "uint256",
          "name": "",
          "type": "uint256"
        }
      ],
      "name": "fundDistributions",
      "outputs": [
        {
          "internalType": "uint16",
          "name": "planterFund",
          "type": "uint16"
        },
        {
          "internalType": "uint16",
          "name": "referralFund",
          "type": "uint16"
        },
        {
          "internalType": "uint16",
          "name": "treeResearch",
          "type": "uint16"
        },
        {
          "internalType": "uint16",
          "name": "localDevelop",
          "type": "uint16"
        },
        {
          "internalType": "uint16",
          "name": "rescueFund",
          "type": "uint16"
        },
        {
          "internalType": "uint16",
          "name": "treejerDevelop",
          "type": "uint16"
        },
        {
          "internalType": "uint16",
          "name": "reserveFund1",
          "type": "uint16"
        },
        {
          "internalType": "uint16",
          "name": "reserveFund2",
          "type": "uint16"
        },
        {
          "internalType": "uint16",
          "name": "exists",
          "type": "uint16"
        }
      ],
      "stateMutability": "view",
      "type": "function"
    },
    {
      "inputs": [],
      "name": "isFinancialModel",
      "outputs": [
        {
          "internalType": "bool",
          "name": "",
          "type": "bool"
        }
      ],
      "stateMutability": "view",
      "type": "function"
    },
    {
      "inputs": [],
      "name": "maxAssignedIndex",
      "outputs": [
        {
          "internalType": "uint256",
          "name": "",
          "type": "uint256"
        }
      ],
      "stateMutability": "view",
      "type": "function"
    },
    {
      "inputs": [
        {
          "internalType": "bytes32",
          "name": "c__0xf991ed3a",
          "type": "bytes32"
        }
      ],
      "name": "c_0xf991ed3a",
      "outputs": [],
      "stateMutability": "pure",
      "type": "function"
    },
    {
      "inputs": [
        {
          "internalType": "address",
          "name": "_accessRestrictionAddress",
          "type": "address"
        }
      ],
      "name": "initialize",
      "outputs": [],
      "stateMutability": "nonpayable",
      "type": "function"
    },
    {
      "inputs": [
        {
          "internalType": "uint16",
          "name": "_planter",
          "type": "uint16"
        },
        {
          "internalType": "uint16",
          "name": "_referral",
          "type": "uint16"
        },
        {
          "internalType": "uint16",
          "name": "_treeResearch",
          "type": "uint16"
        },
        {
          "internalType": "uint16",
          "name": "_localDevelop",
          "type": "uint16"
        },
        {
          "internalType": "uint16",
          "name": "_rescueFund",
          "type": "uint16"
        },
        {
          "internalType": "uint16",
          "name": "_treejerDevelop",
          "type": "uint16"
        },
        {
          "internalType": "uint16",
          "name": "_reserveFund1",
          "type": "uint16"
        },
        {
          "internalType": "uint16",
          "name": "_reserveFund2",
          "type": "uint16"
        }
      ],
      "name": "addFundDistributionModel",
      "outputs": [],
      "stateMutability": "nonpayable",
      "type": "function"
    },
    {
      "inputs": [
        {
          "internalType": "uint256",
          "name": "_startTreeId",
          "type": "uint256"
        },
        {
          "internalType": "uint256",
          "name": "_endTreeId",
          "type": "uint256"
        },
        {
          "internalType": "uint256",
          "name": "_distributionModelId",
          "type": "uint256"
        }
      ],
      "name": "assignTreeFundDistributionModel",
      "outputs": [],
      "stateMutability": "nonpayable",
      "type": "function"
    },
    {
      "inputs": [
        {
          "internalType": "uint256",
          "name": "_treeId",
          "type": "uint256"
        }
      ],
      "name": "distributionModelExistance",
      "outputs": [
        {
          "internalType": "bool",
          "name": "",
          "type": "bool"
        }
      ],
      "stateMutability": "view",
      "type": "function"
    },
    {
      "inputs": [
        {
          "internalType": "uint256",
          "name": "_treeId",
          "type": "uint256"
        }
      ],
      "name": "findTreeDistribution",
      "outputs": [
        {
          "internalType": "uint16",
          "name": "planterFund",
          "type": "uint16"
        },
        {
          "internalType": "uint16",
          "name": "referralFund",
          "type": "uint16"
        },
        {
          "internalType": "uint16",
          "name": "treeResearch",
          "type": "uint16"
        },
        {
          "internalType": "uint16",
          "name": "localDevelop",
          "type": "uint16"
        },
        {
          "internalType": "uint16",
          "name": "rescueFund",
          "type": "uint16"
        },
        {
          "internalType": "uint16",
          "name": "treejerDevelop",
          "type": "uint16"
        },
        {
          "internalType": "uint16",
          "name": "reserveFund1",
          "type": "uint16"
        },
        {
          "internalType": "uint16",
          "name": "reserveFund2",
          "type": "uint16"
        }
      ],
      "stateMutability": "view",
      "type": "function"
    },
    {
      "inputs": [
        {
          "internalType": "uint256",
          "name": "_treeId",
          "type": "uint256"
        }
      ],
      "name": "getFindDistributionModelId",
      "outputs": [
        {
          "internalType": "uint256",
          "name": "",
          "type": "uint256"
        }
      ],
      "stateMutability": "view",
      "type": "function"
    }
  ],
  "bytecode": "0x608060405234801561001057600080fd5b506139f8806100206000396000f3fe608060405234801561001057600080fd5b50600436106100b45760003560e01c8063985710ab11610071578063985710ab1461019c578063c4d66de8146101b8578063cb7fc3bb146101d4578063cb8b5da314610204578063d6762c4a14610234578063ebf209da14610252576100b4565b80631087a2fe146100b95780635944d7b4146100f1578063723439511461010f578063891b30581461012b5780638c8ed70014610162578063966da5fb1461017e575b600080fd5b6100d360048036038101906100ce919061330b565b610283565b6040516100e8999897969594939291906135b1565b60405180910390f35b6100f961034f565b604051610106919061363e565b60405180910390f35b61012960048036038101906101249190613338565b610355565b005b6101456004803603810190610140919061330b565b6118de565b604051610159989796959493929190613533565b60405180910390f35b61017c60048036038101906101779190613228565b612057565b005b61018661205a565b604051610193919061347d565b60405180910390f35b6101b660048036038101906101b19190613255565b61206d565b005b6101d260048036038101906101cd91906131ce565b612635565b005b6101ee60048036038101906101e9919061330b565b6129dc565b6040516101fb919061363e565b60405180910390f35b61021e6004803603810190610219919061330b565b612ec5565b60405161022b919061347d565b60405180910390f35b61023c61309c565b6040516102499190613498565b60405180910390f35b61026c6004803603810190610267919061330b565b6130c2565b60405161027a929190613659565b60405180910390f35b60066020528060005260406000206000915090508060000160009054906101000a900461ffff16908060000160029054906101000a900461ffff16908060000160049054906101000a900461ffff16908060000160069054906101000a900461ffff16908060000160089054906101000a900461ffff169080600001600a9054906101000a900461ffff169080600001600c9054906101000a900461ffff169080600001600e9054906101000a900461ffff16908060000160109054906101000a900461ffff16905089565b60035481565b6103817f0f05bf5f16383dc4d52bbd2ee8cb10649455d46be9b318dd01d04f5dfd6243cf60001b612057565b6103ad7f3c5a5f1f687399b667679893474fc19cfa51be60a0b49a5a530f126550386d4460001b612057565b6103d97f9bac25dbf04f99f2271cc6fd83e43163032911c4de7bd46a852447b2987d337b60001b612057565b600460009054906101000a900473ffffffffffffffffffffffffffffffffffffffff1673ffffffffffffffffffffffffffffffffffffffff1663c4d2a31b336040518263ffffffff1660e01b81526004016104349190613462565b60006040518083038186803b15801561044c57600080fd5b505afa158015610460573d6000803e3d6000fd5b505050506104907f05c46a7e0a7c56ad643a3518e325fae1aa07c4879340ef4aa26567cd90168f7d60001b612057565b6104bc7fa9effabe67ab3d7976a3ce6c252bd5f8fdc4cf410acfb197e7a1303c713f30fb60001b612057565b6104e87f1d39f6f0af6a505c71aca735cc6534385e2a24e6c5385070c94e0f70cd56d3fa60001b612057565b6105147f0b8635847ec34c8e4b2ffbd082987806a0771da1b0a89d4ddbb49a984810122760001b612057565b6105407f761d3bacc9b891c55501abf1d3d655878425178da533d38b4327d98b29c10a0b60001b612057565b60006006600083815260200190815260200160002060000160109054906101000a900461ffff1661ffff16116105ab576040517f08c379a00000000000000000000000000000000000000000000000000000000081526004016105a2906134b3565b60405180910390fd5b6105d77f9a69359db544948a572a8ac690f3741a207dfc73d06c8980cc1ba9d4d57a2d3f60001b612057565b6106037f3a1fc73dd0ca462206808cafe321763b05512f2455699b08c36e5498b60d387560001b612057565b61062f7f020141f97eca87bc47040cc0c30af5fde02e6a66f2781e24ebb77532dbd80ca760001b612057565b60006005805480602002602001604051908101604052809291908181526020016000905b8282101561069957838290600052602060002090600202016040518060400160405290816000820154815260200160018201548152505081526020019060010190610653565b5050505090506106cb7f297ce7fafa56387499b4ca0f394fd2ad3c542d307bf64c60887b0c6a0a480dde60001b612057565b600560006106d9919061311a565b6107057f6ac16eba467de35c4e1aba712ec7b7c68355a70c8294e5e5d1507113a03b678560001b612057565b6107317f39fd4f24a9d4e4b46397ed55ed80e2ce0ebd5c3520c0ff23e519c9db4138281460001b612057565b600061075f7f460ca0ad11fb28831784373a3b389335bf3c7526524a017d96cec7371ebe661860001b612057565b61078b7f5f67d88317c61d441b29a71fc1ccd6a4c3088fedc7b0afbc2da5a431aa5aba2260001b612057565b60005b82518110156110bc576107c37f86b8d58b4564dc38e6cee7be429cd14566e378c0b80e304d524c8f81865435b960001b612057565b6107ef7fc1d24f493da5ae512e405201799d27a0fdb4ff6c9855be2c88e7b4e49be7494a60001b612057565b8583828151811061080357610802613851565b5b60200260200101516000015110156108fa576108417f5812cdaa95d8afeda0ce79f4d0c197c376c8482194d400fcaa2bcddf8c18cc6860001b612057565b61086d7f34dd07213eefe3a5b5ccb557b23b8b2d57a9c46fd4eabc1bb2ba253c2536790460001b612057565b6108997f4c8d720a77cae2ffd34885843baa3e3f29b08626e859021c3cc4ec741112f59760001b612057565b60058382815181106108ae576108ad613851565b5b60200260200101519080600181540180825580915050600190039060005260206000209060020201600090919091909150600082015181600001556020820151816001015550506110a9565b6109267f28727ec88aa587f702bf2d5a8e95b01b147dffa1fa86e881c63df100382fa6be60001b612057565b6109527f465167d83fdcb49658bcab3585c8feefd970bba30d0cd90a0998922cc2b8ee1860001b612057565b61097e7f1428fb8c95213f92467fe73dff08d883003954bd903f719f1122a183d952aac160001b612057565b6000821415610ac2576109b37f02f5822da6c678a493c872b0704aabc9b902c8798ce1f5b85557c206de6cdf2860001b612057565b6109df7f5e5f20d15bc2c2c198e8b2eb0bb6c6073cd8ae402a5fe37eab3b5921347bca9e60001b612057565b610a0b7f3949889ff81c9759e7cd1feb65883405e8c0a95a444237d0723fb4be1be8e96a60001b612057565b6005604051806040016040528088815260200186815250908060018154018082558091505060019003906000526020600020906002020160009091909190915060008201518160000155602082015181600101555050610a8d7fe670a73a4f978a9c752c7de920ac2e1f7ab69b09d540f330409fa4235fe57ac960001b612057565b610ab97fdb656f5c5dc7df0ccd147c602d571cf2d94f365ef651d20d4b33d022663d6de460001b612057565b60019150610aef565b610aee7f924325008b1bcd86882a6fee9d0fea32532c6c07c1828784a606ad922c34f3f260001b612057565b5b610b1b7f7f0c7c235e20a9b758812b29aa6e65acef6e62ab6b2d30e8d8f4c814c201433860001b612057565b610b477facc96a4577626ad24d695ad57747945077b602ff24b82bae24fccd6d26cb47ea60001b612057565b6001821415610f0857610b7c7fd3ac56a8da3467084596e91caeae6baf9d77ba3e23ff9fc9bc1ebf0b0ff4fbc560001b612057565b610ba87fc916e610ac685933a156bc0018db0b468e5d0a2abaa27de63c3fdcc1b228b5e860001b612057565b610bd47fd66e574a4b02c0e269363db4a881c13a97f07bebb43a8997bc1ff85f6e9acd9660001b612057565b600085148015610be5575060008614155b15610ca357610c167f39fd1b8e5cf5003b4df59cc21447ef823daa3622cf5bcd0103e183ba5e2edb2c60001b612057565b610c427ff4f872601728c3e0cda1d8f5ca6c67fc6117647c459a6cc55b0447d9f41c383f60001b612057565b610c6e7f2814f49cf205ade19b32bbb9d1da32cd30dc722f2a78385e83a44fbfb6aae93960001b612057565b60059150610c9e7f5487173d896ea864897fce71979c474c324512c8f7a4ad114614ea929b2d6c5f60001b612057565b6110bc565b610ccf7feb636923c9aa4841d6241ecdfc662a66c7add0e2597cce69741d218de2b8a15e60001b612057565b610cfb7fc3abb56250ff18200a2aa5a59b8aaaf244d90d17c3b1ba32c804c6cfd1ddf6fc60001b612057565b610d277fde15d37f557cea497ca973b7cb0134cacf19e8299042cd96a3127af11327336160001b612057565b600081118015610d605750828181518110610d4557610d44613851565b5b602002602001015160000151600186610d5e91906136cb565b105b15610ed657610d917f19895cf6b7e4213102b93901be06e5b11f742be3c24d992518a5c2c71b69d70560001b612057565b610dbd7fb242b39da981e3f049d844266134516f17cf6cc66e0f76c23d83e21af0314e6260001b612057565b610de97fc81254a5f785648f2cf5f4d4f51010029fe726e8567f7c3df7de52ba1a7f1e6360001b612057565b60056040518060400160405280600188610e0391906136cb565b815260200185600185610e169190613721565b81518110610e2757610e26613851565b5b602002602001015160200151815250908060018154018082558091505060019003906000526020600020906002020160009091909190915060008201518160000155602082015181600101555050610ea17fc86b04753a8689f500c856231cfe9af1ac6cb2cc81eb9d178973dc3da8820af860001b612057565b610ecd7f906b7d1d57ecd4dc0981a40610c5b011be912a24a680472e5a5667e48d8f78c960001b612057565b60029150610f03565b610f027f696e58168eaa8054dfca746470415b0692f343c92d71fe19bb36fa8abf514bf460001b612057565b5b610f35565b610f347fd041f4d16b7267bbfef2986fd5966e9df43491721f88d35dc70e694c815dd0ea60001b612057565b5b610f617fe46bab13e6600361711ec126f4bb56c541a9d3433a770e10daba83396bdd334e60001b612057565b610f8d7fbc5f3edc4ed94abdb314301bc79276225b873d61624afa70db7e6bf2a8525e8360001b612057565b600282141561107b57610fc27f2f1df288b98dcf6145e5e14bd3cd3c7c404a4c9b6005ee8c068deef3f78d7cb860001b612057565b610fee7f5db0d4dcde64fec39ddfffe222da07b7a67cf35ece3781ddb071c44f7175867460001b612057565b61101a7f32d2316a8a152d399b0aa52fb3283cd761f208b838bfc688e44fe19df4e587db60001b612057565b600583828151811061102f5761102e613851565b5b60200260200101519080600181540180825580915050600190039060005260206000209060020201600090919091909150600082015181600001556020820151816001015550506110a8565b6110a77fc65a9c6794f4484a1399fccd5a5126930d3eade25eaac745693575db46f8f8f260001b612057565b5b5b80806110b4906137d9565b91505061078e565b506110e97f29910ff246226faa52c4833e33b913549d0401130e3a3b5bc4ff44e424f177c760001b612057565b6111157f1008809c4ca7e6e5a4b3eecaac8f63c4ff9eabcaa14033cf5ff2e684eb4c977960001b612057565b60008114156113815761114a7fb21487c13e3a140fc4dd01b368075881ab62dc7acbdc49f826d3a60c416c62f660001b612057565b6111767f15eec76ae10e4af8cca49a928415ae28ca80e08b7b962b1f154ce2e98084fcfa60001b612057565b6111a27fd8da713b53ecd768760ccc563be65eed4e2df12a403f806a0f48190c203e6c9760001b612057565b60056040518060400160405280878152602001858152509080600181540180825580915050600190039060005260206000209060020201600090919091909150600082015181600001556020820151816001015550506112247f982b5a894fb2a6f3e4ca159fed7258708d269c97447695601d53accb4afe390460001b612057565b6112507f488b1ab040ebd4d95cd2fe6d3ee27333b7971f0ba91684eb16f27d3dd7cc185960001b612057565b600084148015611261575060008514155b156112f3576112927f411964b957895ccd5df8687f4352f6cb92ad3755ba6407f365fe4b7066555f4160001b612057565b6112be7f913136e1e3e04742df672966c58ec4f39ecb331c9c11d3409dd65c1be9908bbc60001b612057565b6112ea7fccf87b2f3198cbef4b47739abde782dc9ef99826acb679d9889081c69a09721360001b612057565b6005905061137c565b61131f7fc7dfa72b4ec3f56d26a4c850ecbe5b0be1e81ee72039114f1d3ee8a8cd53cdef60001b612057565b61134b7f3978c1ffe0e248ede7e28a041b6292ab34ff046887e0f5f271a13a8da4a787ec60001b612057565b6113777f86b96de4aa1f26d87fb0af3a8178cb5acb425d981b7ae1186a9ced0453f5a77a60001b612057565b600190505b6113ae565b6113ad7f436f5ec53790cf6b719049b2a807ca1de78950a3a7f8554db30e11139552a7af60001b612057565b5b6113da7f34f7c585d92ae008657ddbc7860a8ca8987dfd4d27ad9c8838e026b246cf0efe60001b612057565b6114067f9f558b16c3b4593e698d0249ae740748af75491761eb8835711ac63aafbc0f5460001b612057565b60058114156114bf5761143b7fc072a2eecc4f0671db483464ed07eecea8e365744723b7043962e83d7efa298760001b612057565b6114677fc37bd1dc17ce72130dd789beac99b3915b029ad9af09fd9761d65a37463e20c460001b612057565b6114937f6d0a2411ff2cf3f13b74ee050db489070ac7e564aa58a67694cea1958313b52660001b612057565b7fffffffffffffffffffffffffffffffffffffffffffffffffffffffffffffffff6003819055506114ec565b6114eb7faa609869bb7b1bf331acdfff2c372093c3bdcce32c367b8b2ad45768f5ef2afa60001b612057565b5b6115187feb20c6efff4ee1cdf041025ebe13b7b33502af60d5425ec6be7858aec30f5d7860001b612057565b6115447fb7152c38466bce39fecc89ef74c4ea13a2bf11186041356f34af53e141940b6960001b612057565b6001811415611816576115797fc42bebc124da757593ead6597d8ec24e55f621ce1a68af773d36ea336aada7db60001b612057565b6115a57fd32349984e00f072c31f8997063c958f19ed555ced86229792512cc5387da42e60001b612057565b6115d17f56424dcbfc692071724eb9b47afbe64fed779dead504b94af44af70ae3d1afae60001b612057565b83600354101561166b576116077f55253c23c0be8f369c7f27c2dd893d7f5f710bf2cfa4221d4aa90ef511e9efb760001b612057565b6116337fdb723f17f3cc83a9e130c291e114599f1ca57498d94db2a95168ee53270c28a360001b612057565b61165f7fbccb4371c57a5520923bf5c91230f593d5f1c16463dae208dbb1dd7e62bff42060001b612057565b83600381905550611811565b6116977ff7a8ee1268ad492b476c154a4ad8417c51f620bd07b9ed9815a92fbe843cd59460001b612057565b6116c37f7efb4a8523fd64bf3993169d66785d6c50f61a8c0c6dea940d1f980ee160d74d60001b612057565b6000825111156117e3576116f97ff4682f0f0a5a484ce2784d1203670ddf956d7e2f824a39cea95e57394bd3936260001b612057565b6117257fa650deba8727a8bd036611eefca194ffeac6da56530f6ef199b09fee91c85c2360001b612057565b6117517f6b8feaea9facc7c5474ff2e80b702d4874d87aad2c9c6b2707764125ee81333760001b612057565b6005604051806040016040528060018761176b91906136cb565b8152602001846001865161177f9190613721565b815181106117905761178f613851565b5b602002602001015160200151815250908060018154018082558091505060019003906000526020600020906002020160009091909190915060008201518160000155602082015181600101555050611810565b61180f7fe64e85a219d96d839348334f4662886f2f705cdf2e3488929765135715831d7160001b612057565b5b5b611843565b6118427fc00ff6f8653f42c8a29423b6b074589aab8eeb60b85b581333c9c6cad79cca5560001b612057565b5b61186f7fad912370b3efbadcd065736846a64799d7c545dd0356abc27e25e11b8e9d703860001b612057565b61189b7f59cd0c2fe0f5af1ac21b2fb16a4322efb17450936e70833b6c3021968c52c74b60001b612057565b7f885b369e4f42858dc2eb9b82cac72e90418660b79ee83de45677f077f62111526005805490506040516118cf919061363e565b60405180910390a15050505050565b6000806000806000806000806119167fbe90e19f4a33ff5b84aaad82507b7d05c378cf97e617166f6caa883690a30c5a60001b612057565b6119427f744557769e9df4c0679d97e3ec57e6703d7664dcba5d2a336d6e8006ecd545eb60001b612057565b61196e7fd21e344fef46df41b7d0469b4e31e6e6c401cc7dcaf59755062b12e24d47b49860001b612057565b600061199c7f590af388b78a40e7708d3fd016b7ba32d91d2a49258f2515a8447cb8abd4243e60001b612057565b6119c87f382fec2dde3379f26892e141a509b926cfee10475b6007310bdfe48a059ededc60001b612057565b60006119f67f12f9fb4155f9ada6d0514ee0c63cac53d9b557cc90572c10fcf1c3c726fdd2da60001b612057565b611a227fb28556414cb480cedfb7562220b1e285275aff9df5179cdcd80198b451c50d5060001b612057565b5b600580549050821015611db857611a5c7f8131c8b9bd34bd760ba1ad8b2c2d6e3bea44c27e515fbf07ddb9b81b7d276bc960001b612057565b611a887f78c03bc50d8324beffae099a36c299beeb9acf297e59ca5188e5a85da2bfba1360001b612057565b8a60058381548110611a9d57611a9c613851565b5b9060005260206000209060020201600001541115611d7957611ae17f91945d0b28c98db525618a1e4cd0036819bc0a1a9f211a1bf9611ed5e1205ec560001b612057565b611b0d7faedc767c92d46283ef02657ae87514925712c4e5b51aa1fd9bb192ccc61ab87e60001b612057565b611b397f16e27fcc228f33674cfb9d1cbe9914e2e344f1e4433c8d1acd5564008d5a58c160001b612057565b611b657f67fc88afaf107abfd15027f8c79878852bdea712c1a55de123adc1029c3714c460001b612057565b60008211611ba8576040517f08c379a0000000000000000000000000000000000000000000000000000000008152600401611b9f906134d3565b60405180910390fd5b611bd47ffb9b22cf88df75d192ccc7af5cd46fa36bc83c5f8df3f7cb70b60faa276b696b60001b612057565b611c007f8c85c91cc4eb7915ee11c7f8819d9e7daddf26629daa3376dea1b088261c3d7a60001b612057565b611c2c7f12249c5435876c4725a5aace787a46c469b1232bf48aeb739b19407e66c37b3a60001b612057565b600660006005600185611c3f9190613721565b81548110611c5057611c4f613851565b5b90600052602060002090600202016001015481526020019081526020016000209050611c9e7f8ef004bfd1bd04d5abeecf3a4616224dfba3f9652e2213356d245d9a509def1a60001b612057565b611cca7f82b5fd39f1ed19a28f11f6d74bb16f19886ac3dcc1f7fdb388193ffcabfe8b6a60001b612057565b8060000160009054906101000a900461ffff168160000160029054906101000a900461ffff168260000160049054906101000a900461ffff168360000160069054906101000a900461ffff168460000160089054906101000a900461ffff1685600001600a9054906101000a900461ffff1686600001600c9054906101000a900461ffff1687600001600e9054906101000a900461ffff1699509950995099509950995099509950505061204c565b611da57f5b0ec733fb310a8fec6e358ff496df0f58b264de9412ba159cec70fed0246d6c60001b612057565b8180611db0906137d9565b925050611a23565b611de47fe90b044c320c7ef23930b6cb7582702fddab19b4377f5d8402b55ac2a1948bd360001b612057565b611e107fe351fa0e8f2571cfe6cb34db6179bc91396f38f47dd2d621c3884e120e39250d60001b612057565b611e3c7fd90e452006a6252303cf61c2373c07fb7472115ec53bf1342e34190f717fdf2260001b612057565b60008211611e7f576040517f08c379a0000000000000000000000000000000000000000000000000000000008152600401611e76906134d3565b60405180910390fd5b611eab7f791afcaecadb8f12ac47a12846ead214ed2a8fe4eb38c7b5bc0aa4fe3c58ec5560001b612057565b611ed77fafce02be55fb8a5b65e10662dc4b5116044db1673e2263dc1b1ebfbf220617ff60001b612057565b611f037f66752f8fdc8d02c7c66b13e5fdb58c649e19c3ad5f80b88faf72481c1631109760001b612057565b600660006005600185611f169190613721565b81548110611f2757611f26613851565b5b90600052602060002090600202016001015481526020019081526020016000209050611f757fbf86a3df5445ed4bda232528199b4471ff7550b3073111535b7268ac4f2f8df060001b612057565b611fa17feb9dc3eb7f7076d00d5cdafc03744ec4cc0e8b845cd94c58b5b78d68f29e3d8b60001b612057565b8060000160009054906101000a900461ffff168160000160029054906101000a900461ffff168260000160049054906101000a900461ffff168360000160069054906101000a900461ffff168460000160089054906101000a900461ffff1685600001600a9054906101000a900461ffff1686600001600c9054906101000a900461ffff1687600001600e9054906101000a900461ffff169950995099509950995099509950995050505b919395975091939597565b50565b600260009054906101000a900460ff1681565b6120997f0f05bf5f16383dc4d52bbd2ee8cb10649455d46be9b318dd01d04f5dfd6243cf60001b612057565b6120c57f3c5a5f1f687399b667679893474fc19cfa51be60a0b49a5a530f126550386d4460001b612057565b6120f17f9bac25dbf04f99f2271cc6fd83e43163032911c4de7bd46a852447b2987d337b60001b612057565b600460009054906101000a900473ffffffffffffffffffffffffffffffffffffffff1673ffffffffffffffffffffffffffffffffffffffff1663c4d2a31b336040518263ffffffff1660e01b815260040161214c9190613462565b60006040518083038186803b15801561216457600080fd5b505afa158015612178573d6000803e3d6000fd5b505050506121a87f05c46a7e0a7c56ad643a3518e325fae1aa07c4879340ef4aa26567cd90168f7d60001b612057565b6121d47fb7cd2106e391417ec2c37ccfecd65640bc24347dfd6ecb6d3461475af173207260001b612057565b6122007f120b29fa073ab483101b7ad272283ca193c5389760d84cf88de0470d80b0b8e960001b612057565b61222c7f8c84ee81e6d4b668c834e51955201a9df76afc4edf5c4b4f47c182399acaa1e360001b612057565b6122587fb1777693137177286fcb1f24ddcb37a94756752d9a0e804e67d1a45bbf17a43760001b612057565b61271081838587898b8d8f61226d9190613693565b6122779190613693565b6122819190613693565b61228b9190613693565b6122959190613693565b61229f9190613693565b6122a99190613693565b61ffff16146122ed576040517f08c379a00000000000000000000000000000000000000000000000000000000081526004016122e490613513565b60405180910390fd5b6123197f4f5e3a2ddfae63bd735d0f193478ad9b26a3816cf552e7809ab603a7a55f733660001b612057565b6123457ff69164bc9d541836d2c3e5445eee387ce176504544e9b996e931b507e3111dbb60001b612057565b6123717fdd21ca3bc739f10c4dec0e654e8590ad1c87dddca845615b01f1cb0c587ca20f60001b612057565b6040518061012001604052808961ffff1681526020018861ffff1681526020018761ffff1681526020018661ffff1681526020018561ffff1681526020018461ffff1681526020018361ffff1681526020018261ffff168152602001600161ffff16815250600660006123e460016130f6565b815260200190815260200160002060008201518160000160006101000a81548161ffff021916908361ffff16021790555060208201518160000160026101000a81548161ffff021916908361ffff16021790555060408201518160000160046101000a81548161ffff021916908361ffff16021790555060608201518160000160066101000a81548161ffff021916908361ffff16021790555060808201518160000160086101000a81548161ffff021916908361ffff16021790555060a082015181600001600a6101000a81548161ffff021916908361ffff16021790555060c082015181600001600c6101000a81548161ffff021916908361ffff16021790555060e082015181600001600e6101000a81548161ffff021916908361ffff1602179055506101008201518160000160106101000a81548161ffff021916908361ffff16021790555090505061255d7fad8d58fb6122c2ff78b2b65e7cc313fdc73d26773f09a3458f051d7de4c50add60001b612057565b6125897fc11f18111096d0540e1d65660d2fbcf184c120f87a0bd7ae102efcd1d09b79e860001b612057565b7f975f988e4cd4650c59647f68faa40ecfd2c0c6d63a30bcf5745b11955a0a09be6125b460016130f6565b6040516125c1919061363e565b60405180910390a16125f57ff425e38728c758a141f758a3fabb5363b7b5c30463d070396820484114c0d7f860001b612057565b6126217f58939c0c8255fac72f71a3823da147a67146dbc9753b8a30e23de758447cddee60001b612057565b61262b6001613104565b5050505050505050565b600060019054906101000a900460ff168061265b575060008054906101000a900460ff16155b61269a576040517f08c379a0000000000000000000000000000000000000000000000000000000008152600401612691906134f3565b60405180910390fd5b60008060019054906101000a900460ff1615905080156126ea576001600060016101000a81548160ff02191690831515021790555060016000806101000a81548160ff0219169083151502179055505b6127167f598e625d2104d0c16d69fefe61b13a39f46320c2a381e2c31433d8bdd040a4f460001b612057565b6127427f01fb27db870bd440c3ae28236ece0294840b53cf6a02dfcda796720d19ecbd7860001b612057565b61276e7f4b178e3386a09c537700fd7c9b44e8586a02b524939e6120d0b940910e1a8c7d60001b612057565b600082905061279f7f905a614b7f3cd22de4bca0dcece9e90a442c7038b7c683a22fb2f1c46cb6bee760001b612057565b6127cb7f1d52f38dd704f2404bee57bcf5d002e951937ba8b3b6f075b7c4bf040be53a7260001b612057565b6127f77f805f00cf6f9f55dc87336dffb3a4cafcc30ba4d634c7711c1d045c46f7788b6f60001b612057565b8073ffffffffffffffffffffffffffffffffffffffff1663ba84fd696040518163ffffffff1660e01b815260040160206040518083038186803b15801561283d57600080fd5b505afa158015612851573d6000803e3d6000fd5b505050506040513d601f19601f8201168201806040525081019061287591906131fb565b61287e57600080fd5b6128aa7f72027101570746687a8399598292f8b701f0e7bcaba32bc2850482eb6888a70a60001b612057565b6128d67f323710def96f1db41e103b92696e04f4db5f3f2f1feb449dcb1d802bf9aaa33a60001b612057565b6129027fe1d20a72660006c1d8b2d6869d288c7b84fee66b7525979eb37415e6cd9caff160001b612057565b6001600260006101000a81548160ff0219169083151502179055506129497f7143c968f0b7f4e803dd4e5c5b6f80295877d87b685895ebd025771d8456280160001b612057565b6129757f24f4ad4687c6a863b8d89d195b5b0fd71ad98754adbebb26f8c6b563863c1a3260001b612057565b80600460006101000a81548173ffffffffffffffffffffffffffffffffffffffff021916908373ffffffffffffffffffffffffffffffffffffffff1602179055505080156129d85760008060016101000a81548160ff0219169083151502179055505b5050565b6000612a0a7fd625ced62e63bb55071ab8b8f5aa857736ec76bab8f7230fe5eda6081317daa560001b612057565b612a367f0762de3e32a57be60140cc9f32ae72f2f9e369a046a1cb7948e2ca84521f7b7560001b612057565b612a627f8773f1730dc65732ab0a68a70316aeb768f7eca2e3329ac4763a288a6e9feb7e60001b612057565b6000612a907ff7c890f2e6b82703bf230878a90b7af828dec80bccf1575fde40cc548bd9b88b60001b612057565b612abc7f8bfddef96879cc22d337a510b330c3f92a7122649865850e9c2f6640142fada760001b612057565b5b600580549050811015612d3f57612af67f7e8d5ba0cd0b5b25ac15dbcee611f587dfd388a7e2c29107a51e1b980b90ab2c60001b612057565b612b227f9d7dcaa63c42650794e93b1dc75340dea25408941c85b9725b7861ac2ee86e7c60001b612057565b8260058281548110612b3757612b36613851565b5b9060005260206000209060020201600001541115612d0057612b7b7f5d97a6eea7ba9ef086ee7774e52ae16d25285e67bd4afa5738920e78c83cf7bb60001b612057565b612ba77f8a14bede62fb845dd07e4b043e57866dfb805d0178021767778aa23c44a16a3360001b612057565b612bd37fe3996362754335f603fb0a01939e1af7ebfa965f17c7a14ec5df5bc58732547a60001b612057565b612bff7fc03c1f34f1c236df1b9613bd72ac2f24939880f91539e88cfd4fabeb635bcabf60001b612057565b60008111612c42576040517f08c379a0000000000000000000000000000000000000000000000000000000008152600401612c39906134d3565b60405180910390fd5b612c6e7fa0f624de931e03cca7cca092d317ec6864e9cfca6d5568328561a59dbbe044b460001b612057565b612c9a7f559630913bad54e96ba524202ed7d5bfce0e6e172db683ea18a985b7e888cb2760001b612057565b612cc67fc4de203e228ce7410c0a60042077695ef11e77f21199c4fe182ca5fc3db8539e60001b612057565b6005600182612cd59190613721565b81548110612ce657612ce5613851565b5b906000526020600020906002020160010154915050612ec0565b612d2c7f32035a13cdee1cbdf30c3aa5b8a5cd694ab2e52da88a3f10c0deca727bac206c60001b612057565b8080612d37906137d9565b915050612abd565b612d6b7f5662274be9134b7e600a95ea5b601bc06022e51bee18db5aa9b3ac6aab267fc660001b612057565b612d977f92ee761c61ca388f18d45c12ca9754d1a4460a23e47596633149a96de8fd8f9760001b612057565b612dc37f09b087a55227d006fa609b58ae6fa0619ff82d17eb13594408871468ef2fa74b60001b612057565b60008111612e06576040517f08c379a0000000000000000000000000000000000000000000000000000000008152600401612dfd906134d3565b60405180910390fd5b612e327ff85e776c5952260b208573ee1d31176ccc1a506aaa9fc1a81d5a1df411ca676960001b612057565b612e5e7facfdeb990fcd24d61d7b4049dc16e04aadaaf9c45c129f43ba2b049c349fde9f60001b612057565b612e8a7fc51f1fe62109fe026b99725882bc202d3932fdb87537bbff2c89ea6c9ca9c5ac60001b612057565b6005600182612e999190613721565b81548110612eaa57612ea9613851565b5b9060005260206000209060020201600101549150505b919050565b6000612ef37f55aab49204a5a3e2ddbc23df625d30ead41f4c54f607be78fa6635a479a04d1a60001b612057565b612f1f7f409a813effd84d88eb7744d9c637f3aade61e3cd5d24e7c9562d5bade3f3065e60001b612057565b612f4b7f0466914c5c56543aabdd91a0ed6d8f1e2fe9b8b4b4e36c92b7c90a3f5478730760001b612057565b60006005805490501415612fe657612f857f92ffb7fd6b1b5a27ef9452e76ea9166e781799c05e0f4aa03049b86a5d2b1fad60001b612057565b612fb17f94cb7d02cb6a707003fe2072e8d76a10c4a6638a7ef4ca0967fd45018843c9e460001b612057565b612fdd7f310143797a662f9013604e7042ee1164eafbaf756f0a9b1a570d731d93139ae260001b612057565b60009050613097565b6130127fa611fa2c56e99b3869813a3022998974d4b0bf7f2298e66df9ab4baa5b8a317660001b612057565b61303e7f0b4e6a34eb6610200a163a0725b422f61239d269b9cc741567befd4b76799c6b60001b612057565b61306a7f9a8ebb4dd1c5b491556a644ceebe83a6bbf903a85d8ddc777bbd3bfb6c0c4ca360001b612057565b600560008154811061307f5761307e613851565b5b90600052602060002090600202016000015482101590505b919050565b600460009054906101000a900473ffffffffffffffffffffffffffffffffffffffff1681565b600581815481106130d257600080fd5b90600052602060002090600202016000915090508060000154908060010154905082565b600081600001549050919050565b6001816000016000828254019250508190555050565b508054600082556002029060005260206000209081019061313b919061313e565b50565b5b808211156131615760008082016000905560018201600090555060020161313f565b5090565b6000813590506131748161394f565b92915050565b60008151905061318981613966565b92915050565b60008135905061319e8161397d565b92915050565b6000813590506131b381613994565b92915050565b6000813590506131c8816139ab565b92915050565b6000602082840312156131e4576131e3613880565b5b60006131f284828501613165565b91505092915050565b60006020828403121561321157613210613880565b5b600061321f8482850161317a565b91505092915050565b60006020828403121561323e5761323d613880565b5b600061324c8482850161318f565b91505092915050565b600080600080600080600080610100898b03121561327657613275613880565b5b60006132848b828c016131a4565b98505060206132958b828c016131a4565b97505060406132a68b828c016131a4565b96505060606132b78b828c016131a4565b95505060806132c88b828c016131a4565b94505060a06132d98b828c016131a4565b93505060c06132ea8b828c016131a4565b92505060e06132fb8b828c016131a4565b9150509295985092959890939650565b60006020828403121561332157613320613880565b5b600061332f848285016131b9565b91505092915050565b60008060006060848603121561335157613350613880565b5b600061335f868287016131b9565b9350506020613370868287016131b9565b9250506040613381868287016131b9565b9150509250925092565b61339481613755565b82525050565b6133a381613767565b82525050565b6133b2816137b5565b82525050565b60006133c5601c83613682565b91506133d082613885565b602082019050919050565b60006133e8601283613682565b91506133f3826138ae565b602082019050919050565b600061340b602e83613682565b9150613416826138d7565b604082019050919050565b600061342e601183613682565b915061343982613926565b602082019050919050565b61344d8161377d565b82525050565b61345c816137ab565b82525050565b6000602082019050613477600083018461338b565b92915050565b6000602082019050613492600083018461339a565b92915050565b60006020820190506134ad60008301846133a9565b92915050565b600060208201905081810360008301526134cc816133b8565b9050919050565b600060208201905081810360008301526134ec816133db565b9050919050565b6000602082019050818103600083015261350c816133fe565b9050919050565b6000602082019050818103600083015261352c81613421565b9050919050565b600061010082019050613549600083018b613444565b613556602083018a613444565b6135636040830189613444565b6135706060830188613444565b61357d6080830187613444565b61358a60a0830186613444565b61359760c0830185613444565b6135a460e0830184613444565b9998505050505050505050565b6000610120820190506135c7600083018c613444565b6135d4602083018b613444565b6135e1604083018a613444565b6135ee6060830189613444565b6135fb6080830188613444565b61360860a0830187613444565b61361560c0830186613444565b61362260e0830185613444565b613630610100830184613444565b9a9950505050505050505050565b60006020820190506136536000830184613453565b92915050565b600060408201905061366e6000830185613453565b61367b6020830184613453565b9392505050565b600082825260208201905092915050565b600061369e8261377d565b91506136a98361377d565b92508261ffff038211156136c0576136bf613822565b5b828201905092915050565b60006136d6826137ab565b91506136e1836137ab565b9250827fffffffffffffffffffffffffffffffffffffffffffffffffffffffffffffffff0382111561371657613715613822565b5b828201905092915050565b600061372c826137ab565b9150613737836137ab565b92508282101561374a57613749613822565b5b828203905092915050565b60006137608261378b565b9050919050565b60008115159050919050565b6000819050919050565b600061ffff82169050919050565b600073ffffffffffffffffffffffffffffffffffffffff82169050919050565b6000819050919050565b60006137c0826137c7565b9050919050565b60006137d28261378b565b9050919050565b60006137e4826137ab565b91507fffffffffffffffffffffffffffffffffffffffffffffffffffffffffffffffff82141561381757613816613822565b5b600182019050919050565b7f4e487b7100000000000000000000000000000000000000000000000000000000600052601160045260246000fd5b7f4e487b7100000000000000000000000000000000000000000000000000000000600052603260045260246000fd5b600080fd5b7f446973747269627574696f6e206d6f64656c206e6f7420666f756e6400000000600082015250565b7f696e76616c69642066756e64206d6f64656c0000000000000000000000000000600082015250565b7f496e697469616c697a61626c653a20636f6e747261637420697320616c72656160008201527f647920696e697469616c697a6564000000000000000000000000000000000000602082015250565b7f73756d206d757374206265203130303030000000000000000000000000000000600082015250565b61395881613755565b811461396357600080fd5b50565b61396f81613767565b811461397a57600080fd5b50565b61398681613773565b811461399157600080fd5b50565b61399d8161377d565b81146139a857600080fd5b50565b6139b4816137ab565b81146139bf57600080fd5b5056fea2646970667358221220a841cff8092feebec4f4ee3a5cfedfd75f491529259954782d7c1c6496943d5d64736f6c63430008060033",
  "immutableReferences": {},
  "source": "// SPDX-License-Identifier: MIT\n\npragma solidity ^0.8.6;\nfunction c_0x9bed025a(bytes32 c__0x9bed025a) pure {}\n\n\nimport \"@openzeppelin/contracts-upgradeable/utils/CountersUpgradeable.sol\";\nimport \"@openzeppelin/contracts-upgradeable/proxy/utils/Initializable.sol\";\nimport \"../access/IAccessRestriction.sol\";\n\npragma abicoder v2;\n\n/** @title FinancialModel Contract */\n\ncontract FinancialModel is Initializable {\nfunction c_0xf991ed3a(bytes32 c__0xf991ed3a) public pure {}\n\n    using CountersUpgradeable for CountersUpgradeable.Counter;\n\n    CountersUpgradeable.Counter private fundDistributionCount;\n\n    uint256 constant MAX_UINT256 = type(uint256).max;\n\n    /** NOTE {isFinancialModel} set inside the initialize to {true} */\n    bool public isFinancialModel;\n\n    uint256 public maxAssignedIndex;\n\n    IAccessRestriction public accessRestriction;\n\n    struct FundDistribution {\n        uint16 planterFund;\n        uint16 referralFund;\n        uint16 treeResearch;\n        uint16 localDevelop;\n        uint16 rescueFund;\n        uint16 treejerDevelop;\n        uint16 reserveFund1;\n        uint16 reserveFund2;\n        uint16 exists;\n    }\n\n    struct AssignModel {\n        uint256 startingTreeId;\n        uint256 distributionModelId;\n    }\n\n    AssignModel[] public assignModels;\n\n    /** NOTE mapping of model id to FundDistribution*/\n    mapping(uint256 => FundDistribution) public fundDistributions;\n\n    event DistributionModelAdded(uint256 modelId);\n\n    event FundDistributionModelAssigned(uint256 assignModelsLength);\n\n    /** NOTE modifier to check msg.sender has data manager role */\n    modifier onlyDataManager() {c_0xf991ed3a(0x0f05bf5f16383dc4d52bbd2ee8cb10649455d46be9b318dd01d04f5dfd6243cf); /* function */ \n\nc_0xf991ed3a(0x3c5a5f1f687399b667679893474fc19cfa51be60a0b49a5a530f126550386d44); /* line */ \n        c_0xf991ed3a(0x9bac25dbf04f99f2271cc6fd83e43163032911c4de7bd46a852447b2987d337b); /* statement */ \naccessRestriction.ifDataManager(msg.sender);\nc_0xf991ed3a(0x05c46a7e0a7c56ad643a3518e325fae1aa07c4879340ef4aa26567cd90168f7d); /* line */ \n        _;\n    }\n\n    /**\n     * @dev initialize accessRestriction contract and set true for isFinancialModel\n     * @param _accessRestrictionAddress set to the address of accessRestriction contract\n     */\n    function initialize(address _accessRestrictionAddress)\n        external\n        initializer\n    {c_0xf991ed3a(0x598e625d2104d0c16d69fefe61b13a39f46320c2a381e2c31433d8bdd040a4f4); /* function */ \n\nc_0xf991ed3a(0x01fb27db870bd440c3ae28236ece0294840b53cf6a02dfcda796720d19ecbd78); /* line */ \n        c_0xf991ed3a(0x4b178e3386a09c537700fd7c9b44e8586a02b524939e6120d0b940910e1a8c7d); /* statement */ \nIAccessRestriction candidateContract = IAccessRestriction(\n            _accessRestrictionAddress\n        );\n\nc_0xf991ed3a(0x905a614b7f3cd22de4bca0dcece9e90a442c7038b7c683a22fb2f1c46cb6bee7); /* line */ \n        c_0xf991ed3a(0x1d52f38dd704f2404bee57bcf5d002e951937ba8b3b6f075b7c4bf040be53a72); /* requirePre */ \nc_0xf991ed3a(0x805f00cf6f9f55dc87336dffb3a4cafcc30ba4d634c7711c1d045c46f7788b6f); /* statement */ \nrequire(candidateContract.isAccessRestriction());c_0xf991ed3a(0x72027101570746687a8399598292f8b701f0e7bcaba32bc2850482eb6888a70a); /* requirePost */ \n\n\nc_0xf991ed3a(0x323710def96f1db41e103b92696e04f4db5f3f2f1feb449dcb1d802bf9aaa33a); /* line */ \n        c_0xf991ed3a(0xe1d20a72660006c1d8b2d6869d288c7b84fee66b7525979eb37415e6cd9caff1); /* statement */ \nisFinancialModel = true;\nc_0xf991ed3a(0x7143c968f0b7f4e803dd4e5c5b6f80295877d87b685895ebd025771d84562801); /* line */ \n        c_0xf991ed3a(0x24f4ad4687c6a863b8d89d195b5b0fd71ad98754adbebb26f8c6b563863c1a32); /* statement */ \naccessRestriction = candidateContract;\n    }\n\n    /**\n     * @dev admin add a model for funding distribution that sum of the\n     * inputs must be 10000\n     * @param _planter planter share\n     * @param _referral referral share\n     * @param _treeResearch tree research share\n     * @param _localDevelop local develop share\n     * @param _rescueFund rescue share\n     * @param _treejerDevelop treejer develop share\n     * @param _reserveFund1 reserve fund1 share\n     * @param _reserveFund2 reserve fund2 share\n     */\n    function addFundDistributionModel(\n        uint16 _planter,\n        uint16 _referral,\n        uint16 _treeResearch,\n        uint16 _localDevelop,\n        uint16 _rescueFund,\n        uint16 _treejerDevelop,\n        uint16 _reserveFund1,\n        uint16 _reserveFund2\n    ) external onlyDataManager {c_0xf991ed3a(0xb7cd2106e391417ec2c37ccfecd65640bc24347dfd6ecb6d3461475af1732072); /* function */ \n\nc_0xf991ed3a(0x120b29fa073ab483101b7ad272283ca193c5389760d84cf88de0470d80b0b8e9); /* line */ \n        c_0xf991ed3a(0x8c84ee81e6d4b668c834e51955201a9df76afc4edf5c4b4f47c182399acaa1e3); /* requirePre */ \nc_0xf991ed3a(0xb1777693137177286fcb1f24ddcb37a94756752d9a0e804e67d1a45bbf17a437); /* statement */ \nrequire(\n            _planter +\n                _referral +\n                _treeResearch +\n                _localDevelop +\n                _rescueFund +\n                _treejerDevelop +\n                _reserveFund1 +\n                _reserveFund2 ==\n                10000,\n            \"sum must be 10000\"\n        );c_0xf991ed3a(0x4f5e3a2ddfae63bd735d0f193478ad9b26a3816cf552e7809ab603a7a55f7336); /* requirePost */ \n\n\nc_0xf991ed3a(0xf69164bc9d541836d2c3e5445eee387ce176504544e9b996e931b507e3111dbb); /* line */ \n        c_0xf991ed3a(0xdd21ca3bc739f10c4dec0e654e8590ad1c87dddca845615b01f1cb0c587ca20f); /* statement */ \nfundDistributions[fundDistributionCount.current()] = FundDistribution(\n            _planter,\n            _referral,\n            _treeResearch,\n            _localDevelop,\n            _rescueFund,\n            _treejerDevelop,\n            _reserveFund1,\n            _reserveFund2,\n            1\n        );\n\nc_0xf991ed3a(0xad8d58fb6122c2ff78b2b65e7cc313fdc73d26773f09a3458f051d7de4c50add); /* line */ \n        c_0xf991ed3a(0xc11f18111096d0540e1d65660d2fbcf184c120f87a0bd7ae102efcd1d09b79e8); /* statement */ \nemit DistributionModelAdded(fundDistributionCount.current());\n\nc_0xf991ed3a(0xf425e38728c758a141f758a3fabb5363b7b5c30463d070396820484114c0d7f8); /* line */ \n        c_0xf991ed3a(0x58939c0c8255fac72f71a3823da147a67146dbc9753b8a30e23de758447cddee); /* statement */ \nfundDistributionCount.increment();\n    }\n\n    /**\n     * @dev admin assign a funding distribution model to trees starting from\n     * {_startTreeId} and end at {_endTreeId}\n     * @param _startTreeId strating tree id to assign distribution model to\n     * @param _endTreeId ending tree id to assign distribution model to\n     * @param _distributionModelId distribution model id to assign\n     */\n    function assignTreeFundDistributionModel(\n        uint256 _startTreeId,\n        uint256 _endTreeId,\n        uint256 _distributionModelId\n    ) external onlyDataManager {c_0xf991ed3a(0xa9effabe67ab3d7976a3ce6c252bd5f8fdc4cf410acfb197e7a1303c713f30fb); /* function */ \n\nc_0xf991ed3a(0x1d39f6f0af6a505c71aca735cc6534385e2a24e6c5385070c94e0f70cd56d3fa); /* line */ \n        c_0xf991ed3a(0x0b8635847ec34c8e4b2ffbd082987806a0771da1b0a89d4ddbb49a9848101227); /* requirePre */ \nc_0xf991ed3a(0x761d3bacc9b891c55501abf1d3d655878425178da533d38b4327d98b29c10a0b); /* statement */ \nrequire(\n            fundDistributions[_distributionModelId].exists > 0,\n            \"Distribution model not found\"\n        );c_0xf991ed3a(0x9a69359db544948a572a8ac690f3741a207dfc73d06c8980cc1ba9d4d57a2d3f); /* requirePost */ \n\n\nc_0xf991ed3a(0x3a1fc73dd0ca462206808cafe321763b05512f2455699b08c36e5498b60d3875); /* line */ \n        c_0xf991ed3a(0x020141f97eca87bc47040cc0c30af5fde02e6a66f2781e24ebb77532dbd80ca7); /* statement */ \nAssignModel[] memory localAssigns = assignModels;\n\nc_0xf991ed3a(0x297ce7fafa56387499b4ca0f394fd2ad3c542d307bf64c60887b0c6a0a480dde); /* line */ \n        delete assignModels;\n\nc_0xf991ed3a(0x6ac16eba467de35c4e1aba712ec7b7c68355a70c8294e5e5d1507113a03b6785); /* line */ \n        c_0xf991ed3a(0x39fd4f24a9d4e4b46397ed55ed80e2ce0ebd5c3520c0ff23e519c9db41382814); /* statement */ \nuint256 checkFlag = 0;\n\nc_0xf991ed3a(0x460ca0ad11fb28831784373a3b389335bf3c7526524a017d96cec7371ebe6618); /* line */ \n        c_0xf991ed3a(0x5f67d88317c61d441b29a71fc1ccd6a4c3088fedc7b0afbc2da5a431aa5aba22); /* statement */ \nfor (uint256 i = 0; i < localAssigns.length; i++) {\nc_0xf991ed3a(0x86b8d58b4564dc38e6cee7be429cd14566e378c0b80e304d524c8f81865435b9); /* line */ \n            c_0xf991ed3a(0xc1d24f493da5ae512e405201799d27a0fdb4ff6c9855be2c88e7b4e49be7494a); /* statement */ \nif (localAssigns[i].startingTreeId < _startTreeId) {c_0xf991ed3a(0x5812cdaa95d8afeda0ce79f4d0c197c376c8482194d400fcaa2bcddf8c18cc68); /* branch */ \n\nc_0xf991ed3a(0x34dd07213eefe3a5b5ccb557b23b8b2d57a9c46fd4eabc1bb2ba253c25367904); /* line */ \n                c_0xf991ed3a(0x4c8d720a77cae2ffd34885843baa3e3f29b08626e859021c3cc4ec741112f597); /* statement */ \nassignModels.push(localAssigns[i]);\n            } else {c_0xf991ed3a(0x28727ec88aa587f702bf2d5a8e95b01b147dffa1fa86e881c63df100382fa6be); /* branch */ \n\nc_0xf991ed3a(0x465167d83fdcb49658bcab3585c8feefd970bba30d0cd90a0998922cc2b8ee18); /* line */ \n                c_0xf991ed3a(0x1428fb8c95213f92467fe73dff08d883003954bd903f719f1122a183d952aac1); /* statement */ \nif (checkFlag == 0) {c_0xf991ed3a(0x02f5822da6c678a493c872b0704aabc9b902c8798ce1f5b85557c206de6cdf28); /* branch */ \n\nc_0xf991ed3a(0x5e5f20d15bc2c2c198e8b2eb0bb6c6073cd8ae402a5fe37eab3b5921347bca9e); /* line */ \n                    c_0xf991ed3a(0x3949889ff81c9759e7cd1feb65883405e8c0a95a444237d0723fb4be1be8e96a); /* statement */ \nassignModels.push(\n                        AssignModel(_startTreeId, _distributionModelId)\n                    );\nc_0xf991ed3a(0xe670a73a4f978a9c752c7de920ac2e1f7ab69b09d540f330409fa4235fe57ac9); /* line */ \n                    c_0xf991ed3a(0xdb656f5c5dc7df0ccd147c602d571cf2d94f365ef651d20d4b33d022663d6de4); /* statement */ \ncheckFlag = 1;\n                }else { c_0xf991ed3a(0x924325008b1bcd86882a6fee9d0fea32532c6c07c1828784a606ad922c34f3f2); /* branch */ \n}\nc_0xf991ed3a(0x7f0c7c235e20a9b758812b29aa6e65acef6e62ab6b2d30e8d8f4c814c2014338); /* line */ \n                c_0xf991ed3a(0xacc96a4577626ad24d695ad57747945077b602ff24b82bae24fccd6d26cb47ea); /* statement */ \nif (checkFlag == 1) {c_0xf991ed3a(0xd3ac56a8da3467084596e91caeae6baf9d77ba3e23ff9fc9bc1ebf0b0ff4fbc5); /* branch */ \n\nc_0xf991ed3a(0xc916e610ac685933a156bc0018db0b468e5d0a2abaa27de63c3fdcc1b228b5e8); /* line */ \n                    c_0xf991ed3a(0xd66e574a4b02c0e269363db4a881c13a97f07bebb43a8997bc1ff85f6e9acd96); /* statement */ \nif (_endTreeId == 0 && _startTreeId != 0) {c_0xf991ed3a(0x39fd1b8e5cf5003b4df59cc21447ef823daa3622cf5bcd0103e183ba5e2edb2c); /* branch */ \n\nc_0xf991ed3a(0xf4f872601728c3e0cda1d8f5ca6c67fc6117647c459a6cc55b0447d9f41c383f); /* line */ \n                        c_0xf991ed3a(0x2814f49cf205ade19b32bbb9d1da32cd30dc722f2a78385e83a44fbfb6aae939); /* statement */ \ncheckFlag = 5;\nc_0xf991ed3a(0x5487173d896ea864897fce71979c474c324512c8f7a4ad114614ea929b2d6c5f); /* line */ \n                        break;\n                    }else { c_0xf991ed3a(0xeb636923c9aa4841d6241ecdfc662a66c7add0e2597cce69741d218de2b8a15e); /* branch */ \n}\nc_0xf991ed3a(0xc3abb56250ff18200a2aa5a59b8aaaf244d90d17c3b1ba32c804c6cfd1ddf6fc); /* line */ \n                    c_0xf991ed3a(0xde15d37f557cea497ca973b7cb0134cacf19e8299042cd96a3127af113273361); /* statement */ \nif (\n                        i > 0 && _endTreeId + 1 < localAssigns[i].startingTreeId\n                    ) {c_0xf991ed3a(0x19895cf6b7e4213102b93901be06e5b11f742be3c24d992518a5c2c71b69d705); /* branch */ \n\nc_0xf991ed3a(0xb242b39da981e3f049d844266134516f17cf6cc66e0f76c23d83e21af0314e62); /* line */ \n                        c_0xf991ed3a(0xc81254a5f785648f2cf5f4d4f51010029fe726e8567f7c3df7de52ba1a7f1e63); /* statement */ \nassignModels.push(\n                            AssignModel(\n                                _endTreeId + 1,\n                                localAssigns[i - 1].distributionModelId\n                            )\n                        );\nc_0xf991ed3a(0xc86b04753a8689f500c856231cfe9af1ac6cb2cc81eb9d178973dc3da8820af8); /* line */ \n                        c_0xf991ed3a(0x906b7d1d57ecd4dc0981a40610c5b011be912a24a680472e5a5667e48d8f78c9); /* statement */ \ncheckFlag = 2;\n                    }else { c_0xf991ed3a(0x696e58168eaa8054dfca746470415b0692f343c92d71fe19bb36fa8abf514bf4); /* branch */ \n}\n                }else { c_0xf991ed3a(0xd041f4d16b7267bbfef2986fd5966e9df43491721f88d35dc70e694c815dd0ea); /* branch */ \n}\nc_0xf991ed3a(0xe46bab13e6600361711ec126f4bb56c541a9d3433a770e10daba83396bdd334e); /* line */ \n                c_0xf991ed3a(0xbc5f3edc4ed94abdb314301bc79276225b873d61624afa70db7e6bf2a8525e83); /* statement */ \nif (checkFlag == 2) {c_0xf991ed3a(0x2f1df288b98dcf6145e5e14bd3cd3c7c404a4c9b6005ee8c068deef3f78d7cb8); /* branch */ \n\nc_0xf991ed3a(0x5db0d4dcde64fec39ddfffe222da07b7a67cf35ece3781ddb071c44f71758674); /* line */ \n                    c_0xf991ed3a(0x32d2316a8a152d399b0aa52fb3283cd761f208b838bfc688e44fe19df4e587db); /* statement */ \nassignModels.push(localAssigns[i]);\n                }else { c_0xf991ed3a(0xc65a9c6794f4484a1399fccd5a5126930d3eade25eaac745693575db46f8f8f2); /* branch */ \n}\n            }\n        }\n\nc_0xf991ed3a(0x29910ff246226faa52c4833e33b913549d0401130e3a3b5bc4ff44e424f177c7); /* line */ \n        c_0xf991ed3a(0x1008809c4ca7e6e5a4b3eecaac8f63c4ff9eabcaa14033cf5ff2e684eb4c9779); /* statement */ \nif (checkFlag == 0) {c_0xf991ed3a(0xb21487c13e3a140fc4dd01b368075881ab62dc7acbdc49f826d3a60c416c62f6); /* branch */ \n\nc_0xf991ed3a(0x15eec76ae10e4af8cca49a928415ae28ca80e08b7b962b1f154ce2e98084fcfa); /* line */ \n            c_0xf991ed3a(0xd8da713b53ecd768760ccc563be65eed4e2df12a403f806a0f48190c203e6c97); /* statement */ \nassignModels.push(AssignModel(_startTreeId, _distributionModelId));\nc_0xf991ed3a(0x982b5a894fb2a6f3e4ca159fed7258708d269c97447695601d53accb4afe3904); /* line */ \n            c_0xf991ed3a(0x488b1ab040ebd4d95cd2fe6d3ee27333b7971f0ba91684eb16f27d3dd7cc1859); /* statement */ \nif (_endTreeId == 0 && _startTreeId != 0) {c_0xf991ed3a(0x411964b957895ccd5df8687f4352f6cb92ad3755ba6407f365fe4b7066555f41); /* branch */ \n\nc_0xf991ed3a(0x913136e1e3e04742df672966c58ec4f39ecb331c9c11d3409dd65c1be9908bbc); /* line */ \n                c_0xf991ed3a(0xccf87b2f3198cbef4b47739abde782dc9ef99826acb679d9889081c69a097213); /* statement */ \ncheckFlag = 5;\n            } else {c_0xf991ed3a(0xc7dfa72b4ec3f56d26a4c850ecbe5b0be1e81ee72039114f1d3ee8a8cd53cdef); /* branch */ \n\nc_0xf991ed3a(0x3978c1ffe0e248ede7e28a041b6292ab34ff046887e0f5f271a13a8da4a787ec); /* line */ \n                c_0xf991ed3a(0x86b96de4aa1f26d87fb0af3a8178cb5acb425d981b7ae1186a9ced0453f5a77a); /* statement */ \ncheckFlag = 1;\n            }\n        }else { c_0xf991ed3a(0x436f5ec53790cf6b719049b2a807ca1de78950a3a7f8554db30e11139552a7af); /* branch */ \n}\n\nc_0xf991ed3a(0x34f7c585d92ae008657ddbc7860a8ca8987dfd4d27ad9c8838e026b246cf0efe); /* line */ \n        c_0xf991ed3a(0x9f558b16c3b4593e698d0249ae740748af75491761eb8835711ac63aafbc0f54); /* statement */ \nif (checkFlag == 5) {c_0xf991ed3a(0xc072a2eecc4f0671db483464ed07eecea8e365744723b7043962e83d7efa2987); /* branch */ \n\nc_0xf991ed3a(0xc37bd1dc17ce72130dd789beac99b3915b029ad9af09fd9761d65a37463e20c4); /* line */ \n            c_0xf991ed3a(0x6d0a2411ff2cf3f13b74ee050db489070ac7e564aa58a67694cea1958313b526); /* statement */ \nmaxAssignedIndex = MAX_UINT256;\n        }else { c_0xf991ed3a(0xaa609869bb7b1bf331acdfff2c372093c3bdcce32c367b8b2ad45768f5ef2afa); /* branch */ \n}\n\nc_0xf991ed3a(0xeb20c6efff4ee1cdf041025ebe13b7b33502af60d5425ec6be7858aec30f5d78); /* line */ \n        c_0xf991ed3a(0xb7152c38466bce39fecc89ef74c4ea13a2bf11186041356f34af53e141940b69); /* statement */ \nif (checkFlag == 1) {c_0xf991ed3a(0xc42bebc124da757593ead6597d8ec24e55f621ce1a68af773d36ea336aada7db); /* branch */ \n\nc_0xf991ed3a(0xd32349984e00f072c31f8997063c958f19ed555ced86229792512cc5387da42e); /* line */ \n            c_0xf991ed3a(0x56424dcbfc692071724eb9b47afbe64fed779dead504b94af44af70ae3d1afae); /* statement */ \nif (maxAssignedIndex < _endTreeId) {c_0xf991ed3a(0x55253c23c0be8f369c7f27c2dd893d7f5f710bf2cfa4221d4aa90ef511e9efb7); /* branch */ \n\nc_0xf991ed3a(0xdb723f17f3cc83a9e130c291e114599f1ca57498d94db2a95168ee53270c28a3); /* line */ \n                c_0xf991ed3a(0xbccb4371c57a5520923bf5c91230f593d5f1c16463dae208dbb1dd7e62bff420); /* statement */ \nmaxAssignedIndex = _endTreeId;\n            } else {c_0xf991ed3a(0xf7a8ee1268ad492b476c154a4ad8417c51f620bd07b9ed9815a92fbe843cd594); /* statement */ \nc_0xf991ed3a(0x7efb4a8523fd64bf3993169d66785d6c50f61a8c0c6dea940d1f980ee160d74d); /* branch */ \nif (localAssigns.length > 0) {c_0xf991ed3a(0xf4682f0f0a5a484ce2784d1203670ddf956d7e2f824a39cea95e57394bd39362); /* branch */ \n\nc_0xf991ed3a(0xa650deba8727a8bd036611eefca194ffeac6da56530f6ef199b09fee91c85c23); /* line */ \n                c_0xf991ed3a(0x6b8feaea9facc7c5474ff2e80b702d4874d87aad2c9c6b2707764125ee813337); /* statement */ \nassignModels.push(\n                    AssignModel(\n                        _endTreeId + 1,\n                        localAssigns[localAssigns.length - 1]\n                            .distributionModelId\n                    )\n                );\n            }else { c_0xf991ed3a(0xe64e85a219d96d839348334f4662886f2f705cdf2e3488929765135715831d71); /* branch */ \n}}\n        }else { c_0xf991ed3a(0xc00ff6f8653f42c8a29423b6b074589aab8eeb60b85b581333c9c6cad79cca55); /* branch */ \n}\n\nc_0xf991ed3a(0xad912370b3efbadcd065736846a64799d7c545dd0356abc27e25e11b8e9d7038); /* line */ \n        c_0xf991ed3a(0x59cd0c2fe0f5af1ac21b2fb16a4322efb17450936e70833b6c3021968c52c74b); /* statement */ \nemit FundDistributionModelAssigned(assignModels.length);\n    }\n\n    /**\n     * @dev check if there is distribution model for {_treeId} or not\n     * @param _treeId id of a tree to check if there is a distributionModel\n     * @return true in case of distributionModel existance for {_treeId} and false otherwise\n     */\n\n    function distributionModelExistance(uint256 _treeId)\n        external\n        view\n        returns (bool)\n    {c_0xf991ed3a(0x55aab49204a5a3e2ddbc23df625d30ead41f4c54f607be78fa6635a479a04d1a); /* function */ \n\nc_0xf991ed3a(0x409a813effd84d88eb7744d9c637f3aade61e3cd5d24e7c9562d5bade3f3065e); /* line */ \n        c_0xf991ed3a(0x0466914c5c56543aabdd91a0ed6d8f1e2fe9b8b4b4e36c92b7c90a3f54787307); /* statement */ \nif (assignModels.length == 0) {c_0xf991ed3a(0x92ffb7fd6b1b5a27ef9452e76ea9166e781799c05e0f4aa03049b86a5d2b1fad); /* branch */ \n\nc_0xf991ed3a(0x94cb7d02cb6a707003fe2072e8d76a10c4a6638a7ef4ca0967fd45018843c9e4); /* line */ \n            c_0xf991ed3a(0x310143797a662f9013604e7042ee1164eafbaf756f0a9b1a570d731d93139ae2); /* statement */ \nreturn false;\n        }else { c_0xf991ed3a(0xa611fa2c56e99b3869813a3022998974d4b0bf7f2298e66df9ab4baa5b8a3176); /* branch */ \n}\n\nc_0xf991ed3a(0x0b4e6a34eb6610200a163a0725b422f61239d269b9cc741567befd4b76799c6b); /* line */ \n        c_0xf991ed3a(0x9a8ebb4dd1c5b491556a644ceebe83a6bbf903a85d8ddc777bbd3bfb6c0c4ca3); /* statement */ \nreturn _treeId >= assignModels[0].startingTreeId;\n    }\n\n    /**\n     * @dev return fundDistribution data of {_treeId}\n     * @param _treeId id of tree to find fundDistribution data\n     * @return planterFund share\n     * @return referralFund share\n     * @return treeResearch share\n     * @return localDevelop share\n     * @return rescueFund share\n     * @return treejerDevelop share\n     * @return reserveFund1 share\n     * @return reserveFund2 share\n     */\n    function findTreeDistribution(uint256 _treeId)\n        external\n        view\n        returns (\n            uint16 planterFund,\n            uint16 referralFund,\n            uint16 treeResearch,\n            uint16 localDevelop,\n            uint16 rescueFund,\n            uint16 treejerDevelop,\n            uint16 reserveFund1,\n            uint16 reserveFund2\n        )\n    {c_0xf991ed3a(0xbe90e19f4a33ff5b84aaad82507b7d05c378cf97e617166f6caa883690a30c5a); /* function */ \n\nc_0xf991ed3a(0x744557769e9df4c0679d97e3ec57e6703d7664dcba5d2a336d6e8006ecd545eb); /* line */ \n        c_0xf991ed3a(0xd21e344fef46df41b7d0469b4e31e6e6c401cc7dcaf59755062b12e24d47b498); /* statement */ \nuint256 i = 0;\n\nc_0xf991ed3a(0x590af388b78a40e7708d3fd016b7ba32d91d2a49258f2515a8447cb8abd4243e); /* line */ \n        c_0xf991ed3a(0x382fec2dde3379f26892e141a509b926cfee10475b6007310bdfe48a059ededc); /* statement */ \nFundDistribution storage fundDistribution;\n\nc_0xf991ed3a(0x12f9fb4155f9ada6d0514ee0c63cac53d9b557cc90572c10fcf1c3c726fdd2da); /* line */ \n        c_0xf991ed3a(0xb28556414cb480cedfb7562220b1e285275aff9df5179cdcd80198b451c50d50); /* statement */ \nfor (i; i < assignModels.length; i++) {\nc_0xf991ed3a(0x8131c8b9bd34bd760ba1ad8b2c2d6e3bea44c27e515fbf07ddb9b81b7d276bc9); /* line */ \n            c_0xf991ed3a(0x78c03bc50d8324beffae099a36c299beeb9acf297e59ca5188e5a85da2bfba13); /* statement */ \nif (assignModels[i].startingTreeId > _treeId) {c_0xf991ed3a(0x91945d0b28c98db525618a1e4cd0036819bc0a1a9f211a1bf9611ed5e1205ec5); /* branch */ \n\nc_0xf991ed3a(0xaedc767c92d46283ef02657ae87514925712c4e5b51aa1fd9bb192ccc61ab87e); /* line */ \n                c_0xf991ed3a(0x16e27fcc228f33674cfb9d1cbe9914e2e344f1e4433c8d1acd5564008d5a58c1); /* requirePre */ \nc_0xf991ed3a(0x67fc88afaf107abfd15027f8c79878852bdea712c1a55de123adc1029c3714c4); /* statement */ \nrequire(i > 0, \"invalid fund model\");c_0xf991ed3a(0xfb9b22cf88df75d192ccc7af5cd46fa36bc83c5f8df3f7cb70b60faa276b696b); /* requirePost */ \n\n\nc_0xf991ed3a(0x8c85c91cc4eb7915ee11c7f8819d9e7daddf26629daa3376dea1b088261c3d7a); /* line */ \n                c_0xf991ed3a(0x12249c5435876c4725a5aace787a46c469b1232bf48aeb739b19407e66c37b3a); /* statement */ \nfundDistribution = fundDistributions[\n                    assignModels[i - 1].distributionModelId\n                ];\n\nc_0xf991ed3a(0x8ef004bfd1bd04d5abeecf3a4616224dfba3f9652e2213356d245d9a509def1a); /* line */ \n                c_0xf991ed3a(0x82b5fd39f1ed19a28f11f6d74bb16f19886ac3dcc1f7fdb388193ffcabfe8b6a); /* statement */ \nreturn (\n                    fundDistribution.planterFund,\n                    fundDistribution.referralFund,\n                    fundDistribution.treeResearch,\n                    fundDistribution.localDevelop,\n                    fundDistribution.rescueFund,\n                    fundDistribution.treejerDevelop,\n                    fundDistribution.reserveFund1,\n                    fundDistribution.reserveFund2\n                );\n            }else { c_0xf991ed3a(0x5b0ec733fb310a8fec6e358ff496df0f58b264de9412ba159cec70fed0246d6c); /* branch */ \n}\n        }\n\nc_0xf991ed3a(0xe90b044c320c7ef23930b6cb7582702fddab19b4377f5d8402b55ac2a1948bd3); /* line */ \n        c_0xf991ed3a(0xe351fa0e8f2571cfe6cb34db6179bc91396f38f47dd2d621c3884e120e39250d); /* requirePre */ \nc_0xf991ed3a(0xd90e452006a6252303cf61c2373c07fb7472115ec53bf1342e34190f717fdf22); /* statement */ \nrequire(i > 0, \"invalid fund model\");c_0xf991ed3a(0x791afcaecadb8f12ac47a12846ead214ed2a8fe4eb38c7b5bc0aa4fe3c58ec55); /* requirePost */ \n\n\nc_0xf991ed3a(0xafce02be55fb8a5b65e10662dc4b5116044db1673e2263dc1b1ebfbf220617ff); /* line */ \n        c_0xf991ed3a(0x66752f8fdc8d02c7c66b13e5fdb58c649e19c3ad5f80b88faf72481c16311097); /* statement */ \nfundDistribution = fundDistributions[\n            assignModels[i - 1].distributionModelId\n        ];\n\nc_0xf991ed3a(0xbf86a3df5445ed4bda232528199b4471ff7550b3073111535b7268ac4f2f8df0); /* line */ \n        c_0xf991ed3a(0xeb9dc3eb7f7076d00d5cdafc03744ec4cc0e8b845cd94c58b5b78d68f29e3d8b); /* statement */ \nreturn (\n            fundDistribution.planterFund,\n            fundDistribution.referralFund,\n            fundDistribution.treeResearch,\n            fundDistribution.localDevelop,\n            fundDistribution.rescueFund,\n            fundDistribution.treejerDevelop,\n            fundDistribution.reserveFund1,\n            fundDistribution.reserveFund2\n        );\n    }\n\n    /**\n     * @dev return fundDistribution id of {_treeId}\n     * @param _treeId id of tree to find assignModels of it\n     * @return id of fundDistiubution\n     */\n    function getFindDistributionModelId(uint256 _treeId)\n        external\n        view\n        returns (uint256)\n    {c_0xf991ed3a(0xd625ced62e63bb55071ab8b8f5aa857736ec76bab8f7230fe5eda6081317daa5); /* function */ \n\nc_0xf991ed3a(0x0762de3e32a57be60140cc9f32ae72f2f9e369a046a1cb7948e2ca84521f7b75); /* line */ \n        c_0xf991ed3a(0x8773f1730dc65732ab0a68a70316aeb768f7eca2e3329ac4763a288a6e9feb7e); /* statement */ \nuint256 i = 0;\n\nc_0xf991ed3a(0xf7c890f2e6b82703bf230878a90b7af828dec80bccf1575fde40cc548bd9b88b); /* line */ \n        c_0xf991ed3a(0x8bfddef96879cc22d337a510b330c3f92a7122649865850e9c2f6640142fada7); /* statement */ \nfor (i; i < assignModels.length; i++) {\nc_0xf991ed3a(0x7e8d5ba0cd0b5b25ac15dbcee611f587dfd388a7e2c29107a51e1b980b90ab2c); /* line */ \n            c_0xf991ed3a(0x9d7dcaa63c42650794e93b1dc75340dea25408941c85b9725b7861ac2ee86e7c); /* statement */ \nif (assignModels[i].startingTreeId > _treeId) {c_0xf991ed3a(0x5d97a6eea7ba9ef086ee7774e52ae16d25285e67bd4afa5738920e78c83cf7bb); /* branch */ \n\nc_0xf991ed3a(0x8a14bede62fb845dd07e4b043e57866dfb805d0178021767778aa23c44a16a33); /* line */ \n                c_0xf991ed3a(0xe3996362754335f603fb0a01939e1af7ebfa965f17c7a14ec5df5bc58732547a); /* requirePre */ \nc_0xf991ed3a(0xc03c1f34f1c236df1b9613bd72ac2f24939880f91539e88cfd4fabeb635bcabf); /* statement */ \nrequire(i > 0, \"invalid fund model\");c_0xf991ed3a(0xa0f624de931e03cca7cca092d317ec6864e9cfca6d5568328561a59dbbe044b4); /* requirePost */ \n\nc_0xf991ed3a(0x559630913bad54e96ba524202ed7d5bfce0e6e172db683ea18a985b7e888cb27); /* line */ \n                c_0xf991ed3a(0xc4de203e228ce7410c0a60042077695ef11e77f21199c4fe182ca5fc3db8539e); /* statement */ \nreturn (assignModels[i - 1].distributionModelId);\n            }else { c_0xf991ed3a(0x32035a13cdee1cbdf30c3aa5b8a5cd694ab2e52da88a3f10c0deca727bac206c); /* branch */ \n}\n        }\n\nc_0xf991ed3a(0x5662274be9134b7e600a95ea5b601bc06022e51bee18db5aa9b3ac6aab267fc6); /* line */ \n        c_0xf991ed3a(0x92ee761c61ca388f18d45c12ca9754d1a4460a23e47596633149a96de8fd8f97); /* requirePre */ \nc_0xf991ed3a(0x09b087a55227d006fa609b58ae6fa0619ff82d17eb13594408871468ef2fa74b); /* statement */ \nrequire(i > 0, \"invalid fund model\");c_0xf991ed3a(0xf85e776c5952260b208573ee1d31176ccc1a506aaa9fc1a81d5a1df411ca6769); /* requirePost */ \n\n\nc_0xf991ed3a(0xacfdeb990fcd24d61d7b4049dc16e04aadaaf9c45c129f43ba2b049c349fde9f); /* line */ \n        c_0xf991ed3a(0xc51f1fe62109fe026b99725882bc202d3932fdb87537bbff2c89ea6c9ca9c5ac); /* statement */ \nreturn (assignModels[i - 1].distributionModelId);\n    }\n}\n",
  "sourcePath": "/home/smuggler/contract/.coverage_contracts/treasury/FinancialModel.sol",
  "compiler": {
    "name": "solc",
    "version": "0.8.6+commit.11564f7e.Emscripten.clang"
  },
  "schemaVersion": "3.4.1",
  "updatedAt": "2021-08-31T13:33:31.647Z",
  "devdoc": {
    "kind": "dev",
    "methods": {
      "addFundDistributionModel(uint16,uint16,uint16,uint16,uint16,uint16,uint16,uint16)": {
        "details": "admin add a model for funding distribution that sum of the inputs must be 10000",
        "params": {
          "_localDevelop": "local develop share",
          "_planter": "planter share",
          "_referral": "referral share",
          "_rescueFund": "rescue share",
          "_reserveFund1": "reserve fund1 share",
          "_reserveFund2": "reserve fund2 share",
          "_treeResearch": "tree research share",
          "_treejerDevelop": "treejer develop share"
        }
      },
      "assignTreeFundDistributionModel(uint256,uint256,uint256)": {
        "details": "admin assign a funding distribution model to trees starting from {_startTreeId} and end at {_endTreeId}",
        "params": {
          "_distributionModelId": "distribution model id to assign",
          "_endTreeId": "ending tree id to assign distribution model to",
          "_startTreeId": "strating tree id to assign distribution model to"
        }
      },
      "distributionModelExistance(uint256)": {
        "details": "check if there is distribution model for {_treeId} or not",
        "params": {
          "_treeId": "id of a tree to check if there is a distributionModel"
        },
        "returns": {
          "_0": "true in case of distributionModel existance for {_treeId} and false otherwise"
        }
      },
      "findTreeDistribution(uint256)": {
        "details": "return fundDistribution data of {_treeId}",
        "params": {
          "_treeId": "id of tree to find fundDistribution data"
        },
        "returns": {
          "localDevelop": "share",
          "planterFund": "share",
          "referralFund": "share",
          "rescueFund": "share",
          "reserveFund1": "share",
          "reserveFund2": "share",
          "treeResearch": "share",
          "treejerDevelop": "share"
        }
      },
      "getFindDistributionModelId(uint256)": {
        "details": "return fundDistribution id of {_treeId}",
        "params": {
          "_treeId": "id of tree to find assignModels of it"
        },
        "returns": {
          "_0": "id of fundDistiubution"
        }
      },
      "initialize(address)": {
        "details": "initialize accessRestriction contract and set true for isFinancialModel",
        "params": {
          "_accessRestrictionAddress": "set to the address of accessRestriction contract"
        }
      }
    },
    "title": "FinancialModel Contract ",
    "version": 1
  },
  "userdoc": {
    "kind": "user",
    "methods": {
      "fundDistributions(uint256)": {
        "notice": "NOTE mapping of model id to FundDistribution"
      },
      "isFinancialModel()": {
        "notice": "NOTE {isFinancialModel} set inside the initialize to {true} "
      }
    },
    "version": 1
  }
}