{
  "contractName": "GsnEip712Library",
  "abi": [
    {
      "inputs": [],
      "name": "EIP712DOMAIN_TYPEHASH",
      "outputs": [
        {
          "internalType": "bytes32",
          "name": "",
          "type": "bytes32"
        }
      ],
      "stateMutability": "view",
      "type": "function"
    },
    {
      "inputs": [],
      "name": "GENERIC_PARAMS",
      "outputs": [
        {
          "internalType": "string",
          "name": "",
          "type": "string"
        }
      ],
      "stateMutability": "view",
      "type": "function"
    },
    {
      "inputs": [],
      "name": "RELAYDATA_TYPE",
      "outputs": [
        {
          "internalType": "bytes",
          "name": "",
          "type": "bytes"
        }
      ],
      "stateMutability": "view",
      "type": "function"
    },
    {
      "inputs": [],
      "name": "RELAYDATA_TYPEHASH",
      "outputs": [
        {
          "internalType": "bytes32",
          "name": "",
          "type": "bytes32"
        }
      ],
      "stateMutability": "view",
      "type": "function"
    },
    {
      "inputs": [],
      "name": "RELAY_REQUEST_NAME",
      "outputs": [
        {
          "internalType": "string",
          "name": "",
          "type": "string"
        }
      ],
      "stateMutability": "view",
      "type": "function"
    },
    {
      "inputs": [],
      "name": "RELAY_REQUEST_SUFFIX",
      "outputs": [
        {
          "internalType": "string",
          "name": "",
          "type": "string"
        }
      ],
      "stateMutability": "view",
      "type": "function"
    },
    {
      "inputs": [],
      "name": "RELAY_REQUEST_TYPE",
      "outputs": [
        {
          "internalType": "bytes",
          "name": "",
          "type": "bytes"
        }
      ],
      "stateMutability": "view",
      "type": "function"
    },
    {
      "inputs": [],
      "name": "RELAY_REQUEST_TYPEHASH",
      "outputs": [
        {
          "internalType": "bytes32",
          "name": "",
          "type": "bytes32"
        }
      ],
      "stateMutability": "view",
      "type": "function"
    }
  ],
  "bytecode": "0x610836610053600b82828239805160001a607314610046577f4e487b7100000000000000000000000000000000000000000000000000000000600052600060045260246000fd5b30600052607381538281f3fe73000000000000000000000000000000000000000030146080604052600436106100925760003560e01c8063abf0d3f411610065578063abf0d3f41461010f578063c46cf83f1461012d578063c49f91d31461014b578063cc0c62b21461016957610092565b8063066a310c146100975780636225e61b146100b5578063931cd38f146100d3578063987673f7146100f1575b600080fd5b61009f610187565b6040516100ac91906105c9565b60405180910390f35b6100bd6101a3565b6040516100ca91906105a7565b60405180910390f35b6100db61024e565b6040516100e891906105c9565b60405180910390f35b6100f9610289565b60405161010691906105c9565b60405180910390f35b6101176102c2565b604051610124919061058c565b60405180910390f35b610135610374565b60405161014291906105a7565b60405180910390f35b610153610390565b604051610160919061058c565b60405180910390f35b6101716103b4565b60405161017e919061058c565b60405180910390f35b6040518060800160405280605d8152602001610703605d913981565b6040518060400160405280600c81526020017f52656c61795265717565737400000000000000000000000000000000000000008152506040518060800160405280605d8152602001610703605d91396040518060e0016040528060a1815260200161076060a1913960405160200161021b919061056a565b60405160208183030381529060405260405160200161023c93929190610523565b60405160208183030381529060405281565b6040518060e0016040528060a1815260200161076060a19139604051602001610277919061056a565b60405160208183030381529060405281565b6040518060400160405280600c81526020017f52656c617952657175657374000000000000000000000000000000000000000081525081565b6040518060400160405280600c81526020017f52656c61795265717565737400000000000000000000000000000000000000008152506040518060800160405280605d8152602001610703605d91396040518060e0016040528060a1815260200161076060a1913960405160200161033a919061056a565b60405160208183030381529060405260405160200161035b93929190610523565b6040516020818303038152906040528051906020012081565b6040518060e0016040528060a1815260200161076060a1913981565b7f8b73c3c69bb8fe3d512ecc4cf759cc79239f7b179b0ffacaa9a75d522b39400f81565b6040518060e0016040528060a1815260200161076060a191398051906020012081565b6103e081610639565b82525050565b60006103f1826105eb565b6103fb8185610601565b935061040b818560208601610643565b61041481610676565b840191505092915050565b600061042a826105eb565b6104348185610612565b9350610444818560208601610643565b80840191505092915050565b600061045b826105f6565b610465818561061d565b9350610475818560208601610643565b61047e81610676565b840191505092915050565b6000610494826105f6565b61049e818561062e565b93506104ae818560208601610643565b80840191505092915050565b60006104c760018361062e565b91506104d282610687565b600182019050919050565b60006104ea60148361062e565b91506104f5826106b0565b601482019050919050565b600061050d60018361062e565b9150610518826106d9565b600182019050919050565b600061052f8286610489565b915061053a82610500565b91506105468285610489565b9150610551826104ba565b915061055d8284610489565b9150819050949350505050565b6000610575826104dd565b9150610581828461041f565b915081905092915050565b60006020820190506105a160008301846103d7565b92915050565b600060208201905081810360008301526105c181846103e6565b905092915050565b600060208201905081810360008301526105e38184610450565b905092915050565b600081519050919050565b600081519050919050565b600082825260208201905092915050565b600081905092915050565b600082825260208201905092915050565b600081905092915050565b6000819050919050565b60005b83811015610661578082015181840152602081019050610646565b83811115610670576000848401525b50505050565b6000601f19601f8301169050919050565b7f2c00000000000000000000000000000000000000000000000000000000000000600082015250565b7f52656c6179446174612072656c61794461746129000000000000000000000000600082015250565b7f280000000000000000000000000000000000000000000000000000000000000060008201525056fe616464726573732066726f6d2c6164647265737320746f2c75696e743235362076616c75652c75696e74323536206761732c75696e74323536206e6f6e63652c627974657320646174612c75696e743235362076616c6964556e74696c52656c6179446174612875696e743235362067617350726963652c75696e743235362070637452656c61794665652c75696e74323536206261736552656c61794665652c616464726573732072656c6179576f726b65722c61646472657373207061796d61737465722c6164647265737320666f727761726465722c6279746573207061796d6173746572446174612c75696e7432353620636c69656e74496429a26469706673582212200479a8869cf8946618133a450b599fa3c33f023e4d924250e37f1873347448f964736f6c63430008060033",
  "immutableReferences": {},
  "source": "// SPDX-License-Identifier: GPL-3.0-only\npragma solidity >=0.7.6;\npragma abicoder v2;\n\nimport \"../utils/GsnTypes.sol\";\nimport \"../interfaces/IRelayRecipient.sol\";\nimport \"../forwarder/IForwarder.sol\";\n\nimport \"./GsnUtils.sol\";\n\n/**\n * Bridge Library to map GSN RelayRequest into a call of a Forwarder\n */\nlibrary GsnEip712Library {\n    // maximum length of return value/revert reason for 'execute' method. Will truncate result if exceeded.\n    uint256 private constant MAX_RETURN_SIZE = 1024;\n\n    //copied from Forwarder (can't reference string constants even from another library)\n    string public constant GENERIC_PARAMS =\n        \"address from,address to,uint256 value,uint256 gas,uint256 nonce,bytes data,uint256 validUntil\";\n\n    bytes public constant RELAYDATA_TYPE =\n        \"RelayData(uint256 gasPrice,uint256 pctRelayFee,uint256 baseRelayFee,address relayWorker,address paymaster,address forwarder,bytes paymasterData,uint256 clientId)\";\n\n    string public constant RELAY_REQUEST_NAME = \"RelayRequest\";\n    string public constant RELAY_REQUEST_SUFFIX =\n        string(abi.encodePacked(\"RelayData relayData)\", RELAYDATA_TYPE));\n\n    bytes public constant RELAY_REQUEST_TYPE =\n        abi.encodePacked(\n            RELAY_REQUEST_NAME,\n            \"(\",\n            GENERIC_PARAMS,\n            \",\",\n            RELAY_REQUEST_SUFFIX\n        );\n\n    bytes32 public constant RELAYDATA_TYPEHASH = keccak256(RELAYDATA_TYPE);\n    bytes32 public constant RELAY_REQUEST_TYPEHASH =\n        keccak256(RELAY_REQUEST_TYPE);\n\n    struct EIP712Domain {\n        string name;\n        string version;\n        uint256 chainId;\n        address verifyingContract;\n    }\n\n    bytes32 public constant EIP712DOMAIN_TYPEHASH =\n        keccak256(\n            \"EIP712Domain(string name,string version,uint256 chainId,address verifyingContract)\"\n        );\n\n    function splitRequest(GsnTypes.RelayRequest calldata req)\n        internal\n        pure\n        returns (bytes memory suffixData)\n    {\n        suffixData = abi.encode(hashRelayData(req.relayData));\n    }\n\n    //verify that the recipient trusts the given forwarder\n    // MUST be called by paymaster\n    function verifyForwarderTrusted(GsnTypes.RelayRequest calldata relayRequest)\n        internal\n        view\n    {\n        (bool success, bytes memory ret) = relayRequest.request.to.staticcall(\n            abi.encodeWithSelector(\n                IRelayRecipient.isTrustedForwarder.selector,\n                relayRequest.relayData.forwarder\n            )\n        );\n        require(success, \"isTrustedForwarder: reverted\");\n        require(ret.length == 32, \"isTrustedForwarder: bad response\");\n        require(abi.decode(ret, (bool)), \"invalid forwarder for recipient\");\n    }\n\n    function verifySignature(\n        GsnTypes.RelayRequest calldata relayRequest,\n        bytes calldata signature\n    ) internal view {\n        bytes memory suffixData = splitRequest(relayRequest);\n        bytes32 _domainSeparator = domainSeparator(\n            relayRequest.relayData.forwarder\n        );\n        IForwarder forwarder = IForwarder(\n            payable(relayRequest.relayData.forwarder)\n        );\n        forwarder.verify(\n            relayRequest.request,\n            _domainSeparator,\n            RELAY_REQUEST_TYPEHASH,\n            suffixData,\n            signature\n        );\n    }\n\n    function verify(\n        GsnTypes.RelayRequest calldata relayRequest,\n        bytes calldata signature\n    ) internal view {\n        verifyForwarderTrusted(relayRequest);\n        verifySignature(relayRequest, signature);\n    }\n\n    function execute(\n        GsnTypes.RelayRequest calldata relayRequest,\n        bytes calldata signature\n    )\n        internal\n        returns (\n            bool forwarderSuccess,\n            bool callSuccess,\n            bytes memory ret\n        )\n    {\n        bytes memory suffixData = splitRequest(relayRequest);\n        bytes32 _domainSeparator = domainSeparator(\n            relayRequest.relayData.forwarder\n        );\n        /* solhint-disable-next-line avoid-low-level-calls */\n        (forwarderSuccess, ret) = relayRequest.relayData.forwarder.call(\n            abi.encodeWithSelector(\n                IForwarder.execute.selector,\n                relayRequest.request,\n                _domainSeparator,\n                RELAY_REQUEST_TYPEHASH,\n                suffixData,\n                signature\n            )\n        );\n        if (forwarderSuccess) {\n            //decode return value of execute:\n            (callSuccess, ret) = abi.decode(ret, (bool, bytes));\n        }\n        truncateInPlace(ret);\n    }\n\n    //truncate the given parameter (in-place) if its length is above the given maximum length\n    // do nothing otherwise.\n    //NOTE: solidity warns unless the method is marked \"pure\", but it DOES modify its parameter.\n    function truncateInPlace(bytes memory data) internal pure {\n        MinLibBytes.truncateInPlace(data, MAX_RETURN_SIZE);\n    }\n\n    function domainSeparator(address forwarder)\n        internal\n        view\n        returns (bytes32)\n    {\n        return\n            hashDomain(\n                EIP712Domain({\n                    name: \"GSN Relayed Transaction\",\n                    version: \"2\",\n                    chainId: getChainID(),\n                    verifyingContract: forwarder\n                })\n            );\n    }\n\n    function getChainID() internal view returns (uint256 id) {\n        /* solhint-disable no-inline-assembly */\n        assembly {\n            id := chainid()\n        }\n    }\n\n    function hashDomain(EIP712Domain memory req)\n        internal\n        pure\n        returns (bytes32)\n    {\n        return\n            keccak256(\n                abi.encode(\n                    EIP712DOMAIN_TYPEHASH,\n                    keccak256(bytes(req.name)),\n                    keccak256(bytes(req.version)),\n                    req.chainId,\n                    req.verifyingContract\n                )\n            );\n    }\n\n    function hashRelayData(GsnTypes.RelayData calldata req)\n        internal\n        pure\n        returns (bytes32)\n    {\n        return\n            keccak256(\n                abi.encode(\n                    RELAYDATA_TYPEHASH,\n                    req.gasPrice,\n                    req.pctRelayFee,\n                    req.baseRelayFee,\n                    req.relayWorker,\n                    req.paymaster,\n                    req.forwarder,\n                    keccak256(req.paymasterData),\n                    req.clientId\n                )\n            );\n    }\n}\n",
  "sourcePath": "/home/smuggler/contract/.coverage_contracts/external/gsn/utils/GsnEip712Library.sol",
  "compiler": {
    "name": "solc",
    "version": "0.8.6+commit.11564f7e.Emscripten.clang"
  },
  "schemaVersion": "3.4.1",
  "updatedAt": "2021-08-31T13:33:31.283Z",
  "devdoc": {
    "kind": "dev",
    "methods": {},
    "version": 1
  },
  "userdoc": {
    "kind": "user",
    "methods": {},
    "notice": "Bridge Library to map GSN RelayRequest into a call of a Forwarder",
    "version": 1
  }
}