{
  "contractName": "IncrementalSell",
  "abi": [
    {
      "anonymous": false,
      "inputs": [],
      "name": "IncrementalRatesUpdated",
      "type": "event"
    },
    {
      "anonymous": false,
      "inputs": [],
      "name": "IncrementalSellUpdated",
      "type": "event"
    },
    {
      "anonymous": false,
      "inputs": [
        {
          "indexed": false,
          "internalType": "uint256",
          "name": "treeId",
          "type": "uint256"
        },
        {
          "indexed": false,
          "internalType": "address",
          "name": "buyer",
          "type": "address"
        },
        {
          "indexed": false,
          "internalType": "uint256",
          "name": "amount",
          "type": "uint256"
        }
      ],
      "name": "IncrementalTreeSold",
      "type": "event"
    },
    {
      "inputs": [],
      "name": "accessRestriction",
      "outputs": [
        {
          "internalType": "contract IAccessRestriction",
          "name": "",
          "type": "address"
        }
      ],
      "stateMutability": "view",
      "type": "function"
    },
    {
      "inputs": [
        {
          "internalType": "bytes32",
          "name": "c__0x07853504",
          "type": "bytes32"
        }
      ],
      "name": "c_0x07853504",
      "outputs": [],
      "stateMutability": "pure",
      "type": "function"
    },
    {
      "inputs": [],
      "name": "financialModel",
      "outputs": [
        {
          "internalType": "contract IFinancialModel",
          "name": "",
          "type": "address"
        }
      ],
      "stateMutability": "view",
      "type": "function"
    },
    {
      "inputs": [],
      "name": "incrementalPrice",
      "outputs": [
        {
          "internalType": "uint256",
          "name": "startTree",
          "type": "uint256"
        },
        {
          "internalType": "uint256",
          "name": "endTree",
          "type": "uint256"
        },
        {
          "internalType": "uint256",
          "name": "initialPrice",
          "type": "uint256"
        },
        {
          "internalType": "uint64",
          "name": "increaseStep",
          "type": "uint64"
        },
        {
          "internalType": "uint64",
          "name": "increaseRatio",
          "type": "uint64"
        }
      ],
      "stateMutability": "view",
      "type": "function"
    },
    {
      "inputs": [],
      "name": "isIncrementalSell",
      "outputs": [
        {
          "internalType": "bool",
          "name": "",
          "type": "bool"
        }
      ],
      "stateMutability": "view",
      "type": "function"
    },
    {
      "inputs": [
        {
          "internalType": "address",
          "name": "forwarder",
          "type": "address"
        }
      ],
      "name": "isTrustedForwarder",
      "outputs": [
        {
          "internalType": "bool",
          "name": "",
          "type": "bool"
        }
      ],
      "stateMutability": "view",
      "type": "function"
    },
    {
      "inputs": [
        {
          "internalType": "address",
          "name": "",
          "type": "address"
        }
      ],
      "name": "lastBuy",
      "outputs": [
        {
          "internalType": "uint256",
          "name": "",
          "type": "uint256"
        }
      ],
      "stateMutability": "view",
      "type": "function"
    },
    {
      "inputs": [],
      "name": "treeFactory",
      "outputs": [
        {
          "internalType": "contract ITreeFactory",
          "name": "",
          "type": "address"
        }
      ],
      "stateMutability": "view",
      "type": "function"
    },
    {
      "inputs": [],
      "name": "trustedForwarder",
      "outputs": [
        {
          "internalType": "address",
          "name": "",
          "type": "address"
        }
      ],
      "stateMutability": "view",
      "type": "function"
    },
    {
      "inputs": [],
      "name": "versionRecipient",
      "outputs": [
        {
          "internalType": "string",
          "name": "",
          "type": "string"
        }
      ],
      "stateMutability": "pure",
      "type": "function"
    },
    {
      "inputs": [],
      "name": "wethFunds",
      "outputs": [
        {
          "internalType": "contract IWethFunds",
          "name": "",
          "type": "address"
        }
      ],
      "stateMutability": "view",
      "type": "function"
    },
    {
      "inputs": [],
      "name": "wethToken",
      "outputs": [
        {
          "internalType": "contract IERC20Upgradeable",
          "name": "",
          "type": "address"
        }
      ],
      "stateMutability": "view",
      "type": "function"
    },
    {
      "inputs": [
        {
          "internalType": "bytes32",
          "name": "c__0xbcb12c3d",
          "type": "bytes32"
        }
      ],
      "name": "c_0xbcb12c3d",
      "outputs": [],
      "stateMutability": "pure",
      "type": "function"
    },
    {
      "inputs": [
        {
          "internalType": "address",
          "name": "_accessRestrictionAddress",
          "type": "address"
        }
      ],
      "name": "initialize",
      "outputs": [],
      "stateMutability": "nonpayable",
      "type": "function"
    },
    {
      "inputs": [
        {
          "internalType": "address",
          "name": "_address",
          "type": "address"
        }
      ],
      "name": "setTrustedForwarder",
      "outputs": [],
      "stateMutability": "nonpayable",
      "type": "function"
    },
    {
      "inputs": [
        {
          "internalType": "address",
          "name": "_address",
          "type": "address"
        }
      ],
      "name": "setTreeFactoryAddress",
      "outputs": [],
      "stateMutability": "nonpayable",
      "type": "function"
    },
    {
      "inputs": [
        {
          "internalType": "address",
          "name": "_address",
          "type": "address"
        }
      ],
      "name": "setWethFundsAddress",
      "outputs": [],
      "stateMutability": "nonpayable",
      "type": "function"
    },
    {
      "inputs": [
        {
          "internalType": "address",
          "name": "_address",
          "type": "address"
        }
      ],
      "name": "setWethTokenAddress",
      "outputs": [],
      "stateMutability": "nonpayable",
      "type": "function"
    },
    {
      "inputs": [
        {
          "internalType": "address",
          "name": "_address",
          "type": "address"
        }
      ],
      "name": "setFinancialModelAddress",
      "outputs": [],
      "stateMutability": "nonpayable",
      "type": "function"
    },
    {
      "inputs": [
        {
          "internalType": "uint256",
          "name": "_count",
          "type": "uint256"
        }
      ],
      "name": "freeIncrementalSell",
      "outputs": [],
      "stateMutability": "nonpayable",
      "type": "function"
    },
    {
      "inputs": [
        {
          "internalType": "uint256",
          "name": "_startTree",
          "type": "uint256"
        },
        {
          "internalType": "uint256",
          "name": "_initialPrice",
          "type": "uint256"
        },
        {
          "internalType": "uint64",
          "name": "_treeCount",
          "type": "uint64"
        },
        {
          "internalType": "uint64",
          "name": "_steps",
          "type": "uint64"
        },
        {
          "internalType": "uint64",
          "name": "_increaseRatio",
          "type": "uint64"
        }
      ],
      "name": "addTreeSells",
      "outputs": [],
      "stateMutability": "nonpayable",
      "type": "function"
    },
    {
      "inputs": [
        {
          "internalType": "uint256",
          "name": "_treeCount",
          "type": "uint256"
        }
      ],
      "name": "updateIncrementalEnd",
      "outputs": [],
      "stateMutability": "nonpayable",
      "type": "function"
    },
    {
      "inputs": [
        {
          "internalType": "uint256",
          "name": "_treeId",
          "type": "uint256"
        }
      ],
      "name": "buyTree",
      "outputs": [],
      "stateMutability": "nonpayable",
      "type": "function"
    },
    {
      "inputs": [
        {
          "internalType": "uint256",
          "name": "_initialPrice",
          "type": "uint256"
        },
        {
          "internalType": "uint64",
          "name": "_increaseStep",
          "type": "uint64"
        },
        {
          "internalType": "uint64",
          "name": "_increaseRatio",
          "type": "uint64"
        }
      ],
      "name": "updateIncrementalRates",
      "outputs": [],
      "stateMutability": "nonpayable",
      "type": "function"
    }
  ],
  "bytecode": "0x608060405234801561001057600080fd5b50615b8680620000216000396000f3fe608060405234801561001057600080fd5b50600436106101585760003560e01c80637da0a877116100c3578063c4d66de81161007c578063c4d66de81461038f578063c67a9b94146103ab578063ca24138f146103c7578063d6762c4a146103e3578063da74222814610401578063e787d40e1461041d57610158565b80637da0a877146102cf5780638576e4be146102ed578063909a1ffc1461030957806395b6460314610325578063c1adf7bc14610343578063c314dbcc1461037357610158565b8063421ef6d411610115578063421ef6d41461020d578063486ff0cd1461022b5780634b57b0be146102495780634fe044c414610267578063572b6c05146102835780636acc9777146102b357610158565b80630bf351f81461015d5780630f5f2fbb146101795780631c4722a31461019b5780631de07982146101b75780632aad7f76146101d55780633820661a146101f1575b600080fd5b61017760048036038101906101729190614bdc565b61043b565b005b6101816107da565b6040516101929594939291906154d4565b60405180910390f35b6101b560048036038101906101b09190614d73565b610826565b005b6101bf6114c9565b6040516101cc919061512b565b60405180910390f35b6101ef60048036038101906101ea9190614bdc565b6114dc565b005b61020b60048036038101906102069190614d19565b61187b565b005b610215611e08565b6040516102229190615197565b60405180910390f35b610233611e2e565b60405161024091906151cd565b60405180910390f35b610251611eef565b60405161025e9190615161565b60405180910390f35b610281600480360381019061027c9190614bdc565b611f15565b005b61029d60048036038101906102989190614bdc565b6122b4565b6040516102aa919061512b565b60405180910390f35b6102cd60048036038101906102c89190614bdc565b61230d565b005b6102d76126ee565b6040516102e491906150be565b60405180910390f35b61030760048036038101906103029190614c36565b612714565b005b610323600480360381019061031e9190614d19565b612717565b005b61032d612bc5565b60405161033a919061517c565b60405180910390f35b61035d60048036038101906103589190614bdc565b612beb565b60405161036a919061534f565b60405180910390f35b61038d60048036038101906103889190614c36565b612c03565b005b6103a960048036038101906103a49190614bdc565b612c06565b005b6103c560048036038101906103c09190614dee565b612fad565b005b6103e160048036038101906103dc9190614d19565b613467565b005b6103eb61473e565b6040516103f89190615146565b60405180910390f35b61041b60048036038101906104169190614bdc565b614764565b005b610425614ae7565b60405161043291906151b2565b60405180910390f35b6104677faada80870ce7e2633d57f08df1a6c60aef9542f2aa745dfec479001a46091db060001b612c03565b6104937f4c4803b67c4d0ee1d862d0b7eb6433b1000105cd9f0e788c0dc06422d8b0f21b60001b612c03565b6104bf7f30ad38ed2a7ecf2295cfc514c5e1ba86c8534a0ab9e7af2617da334ed4899b4d60001b612c03565b600160009054906101000a900473ffffffffffffffffffffffffffffffffffffffff1673ffffffffffffffffffffffffffffffffffffffff16638413ec14610505614b0d565b6040518263ffffffff1660e01b815260040161052191906150d9565b60006040518083038186803b15801561053957600080fd5b505afa15801561054d573d6000803e3d6000fd5b5050505061057d7f1bac2a6b07434fc84ea9d5361fc9ec3142d9b3a5b4d300a5cdcd00d29f58b41b60001b612c03565b6105a97ff6df6f78e7fec90fc16413b5a8b0dcf0d9bddd9775570228dae08b46d36ed3a160001b612c03565b6105d57f195f63bc3ef00784407ac18b9cc5ce7fd0190c616ec24e5775a05e46e6a551d060001b612c03565b6106017fd5173e7683da6f524b40eff6c570d391bffc1739b14124f166e66661e949241260001b612c03565b60008190506106327f95370af9a42452fe87f3bd0b932f3ac01c43fcf3b1ef6ef51f8ef3e57085b53860001b612c03565b61065e7f1f19992f1cf9eab092b1d45dee6f7ceb3d0f35ec56df0583e109eb9ccbe0ddf660001b612c03565b61068a7ffe93f43f747f079d5b238ed5fd6c6e73a79d01ac6b7870d0aaf1114d99d29bfe60001b612c03565b8073ffffffffffffffffffffffffffffffffffffffff1663e0eb4eb96040518163ffffffff1660e01b815260040160206040518083038186803b1580156106d057600080fd5b505afa1580156106e4573d6000803e3d6000fd5b505050506040513d601f19601f820116820180604052508101906107089190614c09565b61071157600080fd5b61073d7f7650bc5291d8cdc1110488b834bfa2dc4a02bc31e53b9dfc2680344ba2f1b53e60001b612c03565b6107697f36dcd80041039b508aa07f717e2d802d25613ec63a73406be60c2b5fe4e7e73e60001b612c03565b6107957f10082b3d807a63dca5e0c40235d2b6886ba6ac53334dcafc882647f1c43ac79860001b612c03565b80600260006101000a81548173ffffffffffffffffffffffffffffffffffffffff021916908373ffffffffffffffffffffffffffffffffffffffff1602179055505050565b60068060000154908060010154908060020154908060030160009054906101000a900467ffffffffffffffff16908060030160089054906101000a900467ffffffffffffffff16905085565b6108527f8733183129ca3dee788da1e9b5d3f53954816fad8619b36ccf83dd88e87cd50960001b612c03565b61087e7fdf8635e0ce2660d02fe0a54ee78a688097de5c9b5892826be4d83e7f4af56aae60001b612c03565b6108aa7f51eb648a07af791e5d8b4708d6eebc5f03a070a65cdb61e630e3a61cb8b417cb60001b612c03565b600160009054906101000a900473ffffffffffffffffffffffffffffffffffffffff1673ffffffffffffffffffffffffffffffffffffffff1663c4d2a31b6108f0614b0d565b6040518263ffffffff1660e01b815260040161090c91906150d9565b60006040518083038186803b15801561092457600080fd5b505afa158015610938573d6000803e3d6000fd5b505050506109687fce37193b1a3e7701cb1883cab77d656f256f1f688844417283b7e75c8460830960001b612c03565b6109947fae53db4d574505ccfd40793d541dbf770fab5ed86a058ff5d82ba24601dc2bc460001b612c03565b6109c07f0a870e30109cc7d5ccabf76bf651706740b0416b7e6cc90a45d3f747fe4de37760001b612c03565b6109ec7f1cd7046d94d6b6d70cc320caf3636c7401cc2efaf3e10f6d95994ce4a0db0bf960001b612c03565b610a187f80571faab9c3e45736575dadf1e2761050b56b11e2616da69747e2b27a97338760001b612c03565b60008367ffffffffffffffff1611610a65576040517f08c379a0000000000000000000000000000000000000000000000000000000008152600401610a5c906152ef565b60405180910390fd5b610a917f0ac6427279fa549f7954c29b2fbca6078e75704421dd50a79c3cdb1ed61289a760001b612c03565b610abd7f82ccbc904dd0983c65530d3634f1915501eed726c4e6758431c3344a7a275fa160001b612c03565b610ae97f57099590c9919220df60cd66664876467d2cd020552ae767613eb0d62c3cf21b60001b612c03565b610b157fe0b75ec4769d4e7c04da54fd965e4faf3340d31dc26d72b4e35984a8c1e897a160001b612c03565b60648511610b58576040517f08c379a0000000000000000000000000000000000000000000000000000000008152600401610b4f906152cf565b60405180910390fd5b610b847fdb3c3315a87c8290e90b0fc4267a845510012bec9107522d6726e66f0c78f49260001b612c03565b610bb07f47529ed53e0b27f9ef8406678593c2d1515f5f6e9d4b6ed858b3c8b21122285660001b612c03565b610bdc7f06289637d8d9418d7b339c44b029c7e07f645b95ce8ad62032b7cb928a6e70a460001b612c03565b610c087f77b70b227938e1020069b380edbb64c91b088d084b931f7590a0dc31897da14960001b612c03565b60008267ffffffffffffffff1611610c55576040517f08c379a0000000000000000000000000000000000000000000000000000000008152600401610c4c9061530f565b60405180910390fd5b610c817f8c7fdd4790a06299fa52425e56737f9bdaad3d57731f01338c958824e30d49be60001b612c03565b610cad7fbc449b8f43f2ccf34cac71efccf84aae9c6e45c00005f0e7b9877435d470472060001b612c03565b610cd97fe6740be671fbf188c0d8f67660d0f2aeef18f398a1a7c7efbdb9a6dc37d0307860001b612c03565b610d057f982e6dd864ed258daf3a49ba7dc4c8ac23ace9727aebf509f2b54107e9885e9e60001b612c03565b600460009054906101000a900473ffffffffffffffffffffffffffffffffffffffff1673ffffffffffffffffffffffffffffffffffffffff1663cb8b5da3866040518263ffffffff1660e01b8152600401610d60919061534f565b60206040518083038186803b158015610d7857600080fd5b505afa158015610d8c573d6000803e3d6000fd5b505050506040513d601f19601f82011682018060405250810190610db09190614c09565b610def576040517f08c379a0000000000000000000000000000000000000000000000000000000008152600401610de69061532f565b60405180910390fd5b610e1b7f4325db3372b8b06cdcb9c3234af6451cfd3011bd8304c9bc972abb04af5e120260001b612c03565b610e477ffe17c093a58932689008f9646f75fe59ef9dbcdd8e73cb0ef372d023ffd339ce60001b612c03565b610e737f1ca32f842505921574e823066898b40884cfec720f606c667a0b725e71ea848160001b612c03565b600060069050610ea57f92476bc71da0798c07261b911b029ff56d6019673057056f93a72b2bd74eb67160001b612c03565b610ed17facd2122248112094b54c0d4249c34c7ba6de356959eebbed3f6526328b11e8e360001b612c03565b60008160030160009054906101000a900467ffffffffffffffff1667ffffffffffffffff16111561101c57610f287fb604e0c6af46f7566f18882cb3e78a8a0a56d9b233b2beabe2cdd9febb35064c60001b612c03565b610f547fd71c9d136b8b95a2fb6b4a28c86a948fd3c9957ed3c277579f7592694e78518960001b612c03565b610f807f6c8e8a22eab9a5eeff94a6fd8295f5259671af9dd85f2c3997bcc3c8ff53b11360001b612c03565b600260009054906101000a900473ffffffffffffffffffffffffffffffffffffffff1673ffffffffffffffffffffffffffffffffffffffff16635c8bbd2f826000015483600101546040518363ffffffff1660e01b8152600401610fe59291906153d8565b600060405180830381600087803b158015610fff57600080fd5b505af1158015611013573d6000803e3d6000fd5b50505050611049565b6110487f780a3da562011940ef03efecb89013a867793e1b4d2a8f72f756f68fa56d913960001b612c03565b5b6110757f06ce25ee4064b870833908b40b8419db62d5567163eec994c0ee94e6576cf97e60001b612c03565b6110a17fcee5069cd40b94ead001bf1cf193990b987bc4a13c25d34d381279999acbcde760001b612c03565b6110cd7f5b265d0dba3b8dc8a7e30f17e7c4b8014e76075f93bc2387696717577e34416e60001b612c03565b600260009054906101000a900473ffffffffffffffffffffffffffffffffffffffff1673ffffffffffffffffffffffffffffffffffffffff1663bc3af822878667ffffffffffffffff16896111229190615543565b60026040518463ffffffff1660e01b815260040161114293929190615401565b602060405180830381600087803b15801561115c57600080fd5b505af1158015611170573d6000803e3d6000fd5b505050506040513d601f19601f820116820180604052508101906111949190614c09565b6111d3576040517f08c379a00000000000000000000000000000000000000000000000000000000081526004016111ca9061526f565b60405180910390fd5b6111ff7f82b519c1d95d1242d40fec0ff804b89667e5037f4a71a791efc1add0f4a08aa760001b612c03565b61122b7faa200341afaaf799ff5599aaae54206553468c310dd8d4d733fc803e7d8057e760001b612c03565b6112577f9c9c1ac9e6d48683383e52ecc34434a8ea00af71a77df24715500bd97c1a786760001b612c03565b85816000018190555061128c7f7da691b69cb4212278305b11667c110add20fe5e7610e6af6da318ac9790dbd960001b612c03565b6112b87f675ca40613c96b3bb3d829c276c7a21252cc58abbae8f6cc40515e21ce3df0e660001b612c03565b8367ffffffffffffffff16866112ce9190615543565b81600101819055506113027faa920462e94fcf818a75d17e32fa463bcc61198bb5e249635b25ee38c2d06c3160001b612c03565b61132e7fc0302dd2cd7b4d155b8c64aab6abe4ce3579817b9334ea5b18890efa8b1e7d4260001b612c03565b8481600201819055506113637f3fa44f4adfcc706c7d3bb0f424eed61e0117b7419fb707079a8855eeb516b1e460001b612c03565b61138f7ffb1ee0066dc4f51adc32373b07fb3ad61868926368045a5f92e3614651dcd79460001b612c03565b828160030160006101000a81548167ffffffffffffffff021916908367ffffffffffffffff1602179055506113e67fd457bdaf0fba2bdc3aa8782c1150302131211fb111f4207b66b5e14d9945253160001b612c03565b6114127f9818904d2fd3053fb41efba923190248a67a84b86243081611f66fc6e23cc38860001b612c03565b818160030160086101000a81548167ffffffffffffffff021916908367ffffffffffffffff1602179055506114697ff4080d8a55343d9106e945e7c6280377b16926d63c86c199708be9ed3b6f4cf860001b612c03565b6114957fdb1b8595ea6f65ebc814d54fc2e786f684cf412677fbf924352b751a2c8923b560001b612c03565b7f5618d1d2c644be58b1467e0209c0b0131da97c67e05fbc102b4d2cceaa59975060405160405180910390a1505050505050565b600060169054906101000a900460ff1681565b6115087faada80870ce7e2633d57f08df1a6c60aef9542f2aa745dfec479001a46091db060001b612c03565b6115347f4c4803b67c4d0ee1d862d0b7eb6433b1000105cd9f0e788c0dc06422d8b0f21b60001b612c03565b6115607f30ad38ed2a7ecf2295cfc514c5e1ba86c8534a0ab9e7af2617da334ed4899b4d60001b612c03565b600160009054906101000a900473ffffffffffffffffffffffffffffffffffffffff1673ffffffffffffffffffffffffffffffffffffffff16638413ec146115a6614b0d565b6040518263ffffffff1660e01b81526004016115c291906150d9565b60006040518083038186803b1580156115da57600080fd5b505afa1580156115ee573d6000803e3d6000fd5b5050505061161e7f1bac2a6b07434fc84ea9d5361fc9ec3142d9b3a5b4d300a5cdcd00d29f58b41b60001b612c03565b61164a7f9785209bf1a47dbfdd9cbca6fd3f76bf08b9244dbef832262ac3ac9080b7138060001b612c03565b6116767f6b6003cc79a3ffffb27a903a2e8041a32b0e16a5bc65f9414a8e674443fc803660001b612c03565b6116a27fb657482cac71b94310ce700a9304b08b0a1559cb21747e49b4efe24be776f4a360001b612c03565b60008190506116d37ffec38d38bac79a831f05ffa14b79c180335a777f3e8087b3f65528eb0ae8d8b360001b612c03565b6116ff7fc8ab4f96d8168afa5c436b4fe28ae0edcc5e981ba189114efea8875e61d20a2c60001b612c03565b61172b7fffdc8b816e25c0b0f0252ba4a7934b7082dcb68c2212facaabb334cb42e7865f60001b612c03565b8073ffffffffffffffffffffffffffffffffffffffff1663313b39376040518163ffffffff1660e01b815260040160206040518083038186803b15801561177157600080fd5b505afa158015611785573d6000803e3d6000fd5b505050506040513d601f19601f820116820180604052508101906117a99190614c09565b6117b257600080fd5b6117de7f9b6dc5be02fbbc89155553862874062d538570c474724a8d17e420ffe4b2a24360001b612c03565b61180a7f551b50636da46c730fbaa95020997a1ca9dbc6075e7619d68b9b08259ca8bd5460001b612c03565b6118367f83041128b80d1bd192d672a3282605d6e48f92fe6d8f0c2696214157d471898260001b612c03565b80600360006101000a81548173ffffffffffffffffffffffffffffffffffffffff021916908373ffffffffffffffffffffffffffffffffffffffff1602179055505050565b6118a77f8733183129ca3dee788da1e9b5d3f53954816fad8619b36ccf83dd88e87cd50960001b612c03565b6118d37fdf8635e0ce2660d02fe0a54ee78a688097de5c9b5892826be4d83e7f4af56aae60001b612c03565b6118ff7f51eb648a07af791e5d8b4708d6eebc5f03a070a65cdb61e630e3a61cb8b417cb60001b612c03565b600160009054906101000a900473ffffffffffffffffffffffffffffffffffffffff1673ffffffffffffffffffffffffffffffffffffffff1663c4d2a31b611945614b0d565b6040518263ffffffff1660e01b815260040161196191906150d9565b60006040518083038186803b15801561197957600080fd5b505afa15801561198d573d6000803e3d6000fd5b505050506119bd7fce37193b1a3e7701cb1883cab77d656f256f1f688844417283b7e75c8460830960001b612c03565b6119e97f17de9bd3fd0a045f79977aca9bc372389be7ee052a9ff4c019082c444541771e60001b612c03565b611a157f7c8f3a16eafdb85d5ce66585d4755b1406355c636e69799f78d0fccbd03181d460001b612c03565b611a417f8eb8eefe83e8992a805a21eaee4b9e5aa0f02a43089d6c4bf3b93ff8e45434cb60001b612c03565b600060069050611a737f8345b64d858e89e33eddde6490a018b05a05c9f704d55507b653ee4ddede009f60001b612c03565b611a9f7feeb80696bb31d07435a1703cde82a1d4601c2b9b5abedad7e8f7890fe0d1cbe060001b612c03565b611acb7f0e0834334edafec6347fe12f732e7f13bcd6c56b021c911b3f66ef8cb331144360001b612c03565b60008160030160009054906101000a900467ffffffffffffffff1667ffffffffffffffff1611611b30576040517f08c379a0000000000000000000000000000000000000000000000000000000008152600401611b279061530f565b60405180910390fd5b611b5c7f7487d8519bf033781792e379affabdd9965f5b725aeaf9120701a2ffd43faaeb60001b612c03565b611b887f88612b3005951a917fb5a123f2c237645f06217b72d5e4aab60be848a16bb36160001b612c03565b611bb47f8c287a01f626f9d6cd2172a6e3391349547857e977d86b3a2d9511cde6aaf25160001b612c03565b611be07ffd6eaa1b09a1ee59ae74d156eb034f0d5fb5aac68b65cb21bb9cf6a08090ad7660001b612c03565b600260009054906101000a900473ffffffffffffffffffffffffffffffffffffffff1673ffffffffffffffffffffffffffffffffffffffff1663bc3af8228260010154848460010154611c339190615543565b60026040518463ffffffff1660e01b8152600401611c5393929190615401565b602060405180830381600087803b158015611c6d57600080fd5b505af1158015611c81573d6000803e3d6000fd5b505050506040513d601f19601f82011682018060405250810190611ca59190614c09565b611ce4576040517f08c379a0000000000000000000000000000000000000000000000000000000008152600401611cdb9061526f565b60405180910390fd5b611d107f21eeea3ff934fa153229a56bcbd8ab9fd9c1581abf37ae8dd9b3debb2108465e60001b612c03565b611d3c7f9668f09f3e454aa6a136e86f9c983807b7519d91eb5a8768544e0cc4fd4780cb60001b612c03565b611d687f365386b8185e31151a959bf84a1c8b7103e3c89651f782ec50718779df2d33db60001b612c03565b818160010154611d789190615543565b8160010181905550611dac7ff6370c463db74dc47af556edf65ba7ae888497d9ff72e88b1a0bf62bbe68597860001b612c03565b611dd87f35f29b66270cc6961b947fb1ef44a8c82c0e73252d675d844aa03fd083f8551560001b612c03565b7f5618d1d2c644be58b1467e0209c0b0131da97c67e05fbc102b4d2cceaa59975060405160405180910390a15050565b600260009054906101000a900473ffffffffffffffffffffffffffffffffffffffff1681565b6060611e5c7f11dd98d6809ebd8463693ae2b3f048590b2cbe0b5871346e00a0b4c3c541174a60001b612714565b611e887f8ba796393678d90e1644972b2432ed6c109dbd204df8ff14546d9632bbedffc560001b612714565b611eb47f5759cbc9a7bcad7b45c102beff6e42b49f3a61f90ec5bc06dbe3a1747ad6d10d60001b612714565b6040518060400160405280601d81526020017f322e322e302b747265656a65722e6972656c6179726563697069656e74000000815250905090565b600560009054906101000a900473ffffffffffffffffffffffffffffffffffffffff1681565b611f417faada80870ce7e2633d57f08df1a6c60aef9542f2aa745dfec479001a46091db060001b612c03565b611f6d7f4c4803b67c4d0ee1d862d0b7eb6433b1000105cd9f0e788c0dc06422d8b0f21b60001b612c03565b611f997f30ad38ed2a7ecf2295cfc514c5e1ba86c8534a0ab9e7af2617da334ed4899b4d60001b612c03565b600160009054906101000a900473ffffffffffffffffffffffffffffffffffffffff1673ffffffffffffffffffffffffffffffffffffffff16638413ec14611fdf614b0d565b6040518263ffffffff1660e01b8152600401611ffb91906150d9565b60006040518083038186803b15801561201357600080fd5b505afa158015612027573d6000803e3d6000fd5b505050506120577f1bac2a6b07434fc84ea9d5361fc9ec3142d9b3a5b4d300a5cdcd00d29f58b41b60001b612c03565b6120837f40e7f4f1564e7b487467e3615e24d517d78c277e3216ab2f19442e171f9e486460001b612c03565b6120af7fe18dc59b9d4e25f62f48b7340195f7d604a4c1a25fd3aeaa39fa3c1f40826e6460001b612c03565b6120db7ff09aa85ca5fe0b30651a14878ef3b3c39519d4e2664f1d3db9fa7f9cf3f7ff9360001b612c03565b600081905061210c7f0b17dd96e7da731b8dff990c5ffc2f15b7c695bae0616275ee07e5a5e9078e7260001b612c03565b6121387fe7645a8320e046a6e6c09432d93e50541091e2ef2ea21dd88b87aaeca576f61a60001b612c03565b6121647f43615e516fe47a9a86e6a9b9bbe73f873b387e9e53226334b7709e770c1c2d8a60001b612c03565b8073ffffffffffffffffffffffffffffffffffffffff1663966da5fb6040518163ffffffff1660e01b815260040160206040518083038186803b1580156121aa57600080fd5b505afa1580156121be573d6000803e3d6000fd5b505050506040513d601f19601f820116820180604052508101906121e29190614c09565b6121eb57600080fd5b6122177f59974876dcc6befb0108e458c37c5cd8a96ea9fdb7389863e5cf684e042f0d0860001b612c03565b6122437ffcb6e708581f76e6ba4cd8fa3893f723f833d17ce060ca86eaf43084acf9e4a660001b612c03565b61226f7f9c2f98b18b3fbfd0c04e829b8a497d74ce76b8122a91a1a3a4678736254cb38860001b612c03565b80600460006101000a81548173ffffffffffffffffffffffffffffffffffffffff021916908373ffffffffffffffffffffffffffffffffffffffff1602179055505050565b60008060029054906101000a900473ffffffffffffffffffffffffffffffffffffffff1673ffffffffffffffffffffffffffffffffffffffff168273ffffffffffffffffffffffffffffffffffffffff16149050919050565b6123397faada80870ce7e2633d57f08df1a6c60aef9542f2aa745dfec479001a46091db060001b612c03565b6123657f4c4803b67c4d0ee1d862d0b7eb6433b1000105cd9f0e788c0dc06422d8b0f21b60001b612c03565b6123917f30ad38ed2a7ecf2295cfc514c5e1ba86c8534a0ab9e7af2617da334ed4899b4d60001b612c03565b600160009054906101000a900473ffffffffffffffffffffffffffffffffffffffff1673ffffffffffffffffffffffffffffffffffffffff16638413ec146123d7614b0d565b6040518263ffffffff1660e01b81526004016123f391906150d9565b60006040518083038186803b15801561240b57600080fd5b505afa15801561241f573d6000803e3d6000fd5b5050505061244f7f1bac2a6b07434fc84ea9d5361fc9ec3142d9b3a5b4d300a5cdcd00d29f58b41b60001b612c03565b8061247c7fa09c05a895fce26eb918729a551f8633dc3963841d782921987dccdf1073765c60001b612c03565b6124a87f6de33c1b741a0aaa6311c8aa6dd58da996b170c19101aec4de17af7e5ecbdbad60001b612c03565b6124d47f614efaa266ebcc561c59e6dec33adb3d730cf5ff8901cdf82ee779e13f322c4060001b612c03565b6124ff7e7a29eb780ba27dd1b7e48569c74ff4c12a4a0def15c0ee45f1a653c18e7a5b60001b612c03565b600073ffffffffffffffffffffffffffffffffffffffff168173ffffffffffffffffffffffffffffffffffffffff16141561256f576040517f08c379a00000000000000000000000000000000000000000000000000000000081526004016125669061522f565b60405180910390fd5b61259b7f49eeecaf4e82170982b0d04433779d9328537929c8d1ed6c69d3495a955aea8660001b612c03565b6125c77fc461c849c5c14eba736b12f5b69e3d2a884e84f0b48ff0d2c651788415245c8b60001b612c03565b6125f37f6512a49c2dac6ede155d52f882b32a434a1c7ffc5e7689a2fcceeb4e9a79c8e260001b612c03565b61261f7f03c7010c05c491649fca8b6c37ac35cfe628a862a2fd7a7fc5d0f8f95b497f7860001b612c03565b61264b7f1c2bfdf90ff0614727fbda0742e659ac23530af904ba6c46587e4fa4185a816560001b612c03565b600082905061267c7f7bb6ecade7d4104b3c97a8b603c9d287da339f4e3f67af7ebd2a4d64b794e94560001b612c03565b6126a87f9e07788c776aec1e595d95f0ee4648988e28b5e6c15761dbd915916421ecc34860001b612c03565b80600560006101000a81548173ffffffffffffffffffffffffffffffffffffffff021916908373ffffffffffffffffffffffffffffffffffffffff160217905550505050565b600060029054906101000a900473ffffffffffffffffffffffffffffffffffffffff1681565b50565b6127437f8733183129ca3dee788da1e9b5d3f53954816fad8619b36ccf83dd88e87cd50960001b612c03565b61276f7fdf8635e0ce2660d02fe0a54ee78a688097de5c9b5892826be4d83e7f4af56aae60001b612c03565b61279b7f51eb648a07af791e5d8b4708d6eebc5f03a070a65cdb61e630e3a61cb8b417cb60001b612c03565b600160009054906101000a900473ffffffffffffffffffffffffffffffffffffffff1673ffffffffffffffffffffffffffffffffffffffff1663c4d2a31b6127e1614b0d565b6040518263ffffffff1660e01b81526004016127fd91906150d9565b60006040518083038186803b15801561281557600080fd5b505afa158015612829573d6000803e3d6000fd5b505050506128597fce37193b1a3e7701cb1883cab77d656f256f1f688844417283b7e75c8460830960001b612c03565b6128857f95b094e99c9f39ebcb6fbe9dd4ba188fdad016ea9e86b3ff6141d7879f34bb7960001b612c03565b6128b17f3e83fc123057d27e87c5072a6320ecb9a1256fcb1a3e8744f0cd6ea2c3fafce760001b612c03565b6128dd7f929a74012101d0bfbf8456f6803f567ed68b9b5b78079a4508782e4302519e5360001b612c03565b60006006905061290f7fdf83ab8b48583f8129a8fbc1bb1a24ac009960d3c2a9df6588a2efa61e279dc560001b612c03565b61293b7f718bbc4d6e2101a642618b009d6fc52da17f8ac5e2288050fde40de85b1966b360001b612c03565b600082826000015461294d9190615543565b905061297b7fbc1d224c99b8b0446223921041809361e77275b5890705eb60176f696b0e025060001b612c03565b6129a77fb8eddd559b1c380710c9c8c7148d1b92ab33b8b1e6af8e6627803f93af139f0c60001b612c03565b6129d37f0c08a6fe43ce5726f3ff1d13e4038753a6e60883513dbad87f3498ee800de0c960001b612c03565b60008260030160009054906101000a900467ffffffffffffffff1667ffffffffffffffff16118015612a09575081600101548111155b612a48576040517f08c379a0000000000000000000000000000000000000000000000000000000008152600401612a3f906152af565b60405180910390fd5b612a747fb08cac53438689a1c5830fffdc332a783c3cebf8357f074641863521c5936be560001b612c03565b612aa07f5cdfeb07954f72d1101492fb02e6b83a1c1c41711b69bf1ba7acee9f71cba92e60001b612c03565b612acc7f789be83bdcc19d13592cec39c860ea3c5b76e695b5cdcfacdc158d631defdba460001b612c03565b600260009054906101000a900473ffffffffffffffffffffffffffffffffffffffff1673ffffffffffffffffffffffffffffffffffffffff16635c8bbd2f8360000154836040518363ffffffff1660e01b8152600401612b2d9291906153d8565b600060405180830381600087803b158015612b4757600080fd5b505af1158015612b5b573d6000803e3d6000fd5b50505050612b8b7f53f6d3582d054085b0818ff1b98fecdb7a3b6aaacbdeba877476fcc6da81b52d60001b612c03565b612bb77f0214afce7a9e6cf04e7a9a0fd71bee5890d809f0672c753b7ab709e528cab40d60001b612c03565b808260000181905550505050565b600460009054906101000a900473ffffffffffffffffffffffffffffffffffffffff1681565b600a6020528060005260406000206000915090505481565b50565b600060019054906101000a900460ff1680612c2c575060008054906101000a900460ff16155b612c6b576040517f08c379a0000000000000000000000000000000000000000000000000000000008152600401612c629061524f565b60405180910390fd5b60008060019054906101000a900460ff161590508015612cbb576001600060016101000a81548160ff02191690831515021790555060016000806101000a81548160ff0219169083151502179055505b612ce77f148ce58fc95d109074bb2caca72ac3f7b3241f69ea49d63e1c97e4f3a2e8d31a60001b612c03565b612d137fdfba84e166564960abffc68b40a58b738d23994fed3cedfa7267d009ce7d8b3c60001b612c03565b612d3f7fccb993e5e29f022ea17f0b3f287da3dbf0cdacaa59a14e7cf18bc045646bd72060001b612c03565b6000829050612d707fcb562b90e8e68a78efd553820036b2c4db6142c3f33c3b8fb812ebf192d9fa7f60001b612c03565b612d9c7f503fc8c62e1fd150976dec52a9de94f201b838a0f793c088d20ebc494c37fe8560001b612c03565b612dc87f8bc9723af42ac80ed0bd572b6fe80273a1f404bc0995d236f8ddf2c875eb840160001b612c03565b8073ffffffffffffffffffffffffffffffffffffffff1663ba84fd696040518163ffffffff1660e01b815260040160206040518083038186803b158015612e0e57600080fd5b505afa158015612e22573d6000803e3d6000fd5b505050506040513d601f19601f82011682018060405250810190612e469190614c09565b612e4f57600080fd5b612e7b7fe69d7266076e89b294464fe26bd8c7e11790016c50537796584ba436323d7cd960001b612c03565b612ea77fdb784f496a4f742c31b7071097d3cab07837e29fd0fc950f606c82b463d9758d60001b612c03565b612ed37faaa22a37dc63b8ca374d3b9449f20b54c0af8855d56dfb0870435739c483398660001b612c03565b6001600060166101000a81548160ff021916908315150217905550612f1a7f3720eab7762d7f07fc803e81281f45b49bca776e3144ecacc573d57dc571757360001b612c03565b612f467fa5b96aba713b851133c65b6331fdf3ef6414237bf6c027e450dc976bfd7d0b5660001b612c03565b80600160006101000a81548173ffffffffffffffffffffffffffffffffffffffff021916908373ffffffffffffffffffffffffffffffffffffffff160217905550508015612fa95760008060016101000a81548160ff0219169083151502179055505b5050565b612fd97f8733183129ca3dee788da1e9b5d3f53954816fad8619b36ccf83dd88e87cd50960001b612c03565b6130057fdf8635e0ce2660d02fe0a54ee78a688097de5c9b5892826be4d83e7f4af56aae60001b612c03565b6130317f51eb648a07af791e5d8b4708d6eebc5f03a070a65cdb61e630e3a61cb8b417cb60001b612c03565b600160009054906101000a900473ffffffffffffffffffffffffffffffffffffffff1673ffffffffffffffffffffffffffffffffffffffff1663c4d2a31b613077614b0d565b6040518263ffffffff1660e01b815260040161309391906150d9565b60006040518083038186803b1580156130ab57600080fd5b505afa1580156130bf573d6000803e3d6000fd5b505050506130ef7fce37193b1a3e7701cb1883cab77d656f256f1f688844417283b7e75c8460830960001b612c03565b61311b7f7d88f209a7d6f227af6580a37ce144f323c7aad4ae44c5b7213f38f771d4324f60001b612c03565b6131477f647abc4c28dfe2144d2d8c3c22799aeae8f785e2da0fa73e4388f13fe467234660001b612c03565b6131737f17bc339145f63150138251684704f2cff11e27efccc4a1a3443f02ed4f60ffd760001b612c03565b61319f7fd85c20ae87b882837298e140716ce61a9b15e32d6b301c6f77285b750dced1d560001b612c03565b60008267ffffffffffffffff16116131ec576040517f08c379a00000000000000000000000000000000000000000000000000000000081526004016131e39061530f565b60405180910390fd5b6132187f1163962ab5dac80418b37210b56f35adb2297c25174e1aa33f48cd0ac7aa755c60001b612c03565b6132447fe1b8963100d13144c3c539ac87e37c2d5c280518f37f4375630d08ede501bb9f60001b612c03565b6132707f4d5a5fccda9507415e5dde6f394506c3b451bda0049bad2b37a8a258630ec53360001b612c03565b6000600690506132a27f19d3f49802f732b4476aaecf194e1dfe5ca5b641c61b25082c91345b579444e760001b612c03565b6132ce7f1a54ffabf299e6a3e92271c5bda0c87213d48162a56d2df6ea3657d2668f357e60001b612c03565b8381600201819055506133037f329b910480db7dc280ecce9d984ec9194f7d627b49011b6156d9dc1a6de0e9be60001b612c03565b61332f7f60413a09a89f8a5f00812ef3cb8754bf1992b5b2722bea574e0f940232267a2460001b612c03565b828160030160006101000a81548167ffffffffffffffff021916908367ffffffffffffffff1602179055506133867f6d3bb0683a51be8a10ece93b6e45f32556fc52a8f05d491e227401c82d04362360001b612c03565b6133b27f2441e79576674321dd2a00c3f314612a1fa350d864838042393fb78ed8a8ba3060001b612c03565b818160030160086101000a81548167ffffffffffffffff021916908367ffffffffffffffff1602179055506134097f52164299fc8e7a45eeaf1c639d2f45229c9a87e347e7bd842cf967599892531d60001b612c03565b6134357f0afb3bae1293600963a22988d7a0db2dd272676f5a90a810c424633c19a641d360001b612c03565b7f0c999c85bde898881705cca324b5c5ea05b53a9a5611bf88f20a740589101e9e60405160405180910390a150505050565b6134937ff064592dbcbb3e79202d430cda3092f535bb7c7a68337a9ee37fb81b0f29cd4660001b612c03565b6134bf7fa4733e8b5da85323a6441fa6c1427231ec13faab77fdf5ce8ce315d615c4a00e60001b612c03565b6134eb7f0e6d46292e51a1b4c4562ccbce6e6b006725ee2f1caac9be9570b29c959e1d9660001b612c03565b600160009054906101000a900473ffffffffffffffffffffffffffffffffffffffff1673ffffffffffffffffffffffffffffffffffffffff16634d868f986040518163ffffffff1660e01b815260040160006040518083038186803b15801561355357600080fd5b505afa158015613567573d6000803e3d6000fd5b505050506135977f25b0c97ab84b844e63ec1787ac2c3c6ea755c1b8bfcca017d5b752ff150f785e60001b612c03565b6135c37f796b8f1c59f841fabcc3a4208cb4159dae87da025b4291638a42698fea1ca0ea60001b612c03565b6135ef7f09166debc31b0769242f124fb8a81db3cefbc26e66d8389e7204596f0dc1ae9460001b612c03565b61361b7f51b7393109a775f4ee73b953b8297ce3a078df9291ca50423c4e2d3eddd3b73360001b612c03565b60006006905061364d7faddb2294fde395b10e6a96a262f7ec5bdf07ca2479c787e55f67507071692c0460001b612c03565b6136797f8d56640be6008358a999e86fe03941746fdf8a0d7bbae47af6ab7c8549dd790360001b612c03565b6136a57f896ce34a6e287caa90e09afbc4a07f3016ca162076033328b85243722d9c93a660001b612c03565b8060010154821080156136bc575080600001548210155b6136fb576040517f08c379a00000000000000000000000000000000000000000000000000000000081526004016136f2906151ef565b60405180910390fd5b6137277fb6f30a7470b0356d5795655d8cce7090ba9222cbf99809e144db7c7bed0ce50160001b612c03565b6137537fb985e3aaf2c170616e941d0d1ac6bbed4879f8aeb984e24b53962df66d9ff27b60001b612c03565b61377f7fd52f70c09daf3f603f9d5e72c66aa97abdeb39406ec400077b51015ef652d56660001b612c03565b60008160030160009054906101000a900467ffffffffffffffff1667ffffffffffffffff168260000154846137b49190615624565b6137be9190615599565b90506137ec7f8d47799470ca6a47f73b283b3d61f08e0fead1d61f54260acdd3acb5b27dd33860001b612c03565b6138187feeacd2fabd89f2bcc84b440f83ea9b136247c7d1961fab3adcae134b622e3dd860001b612c03565b60006127108360030160089054906101000a900467ffffffffffffffff1667ffffffffffffffff1684600201548461385091906155ca565b61385a91906155ca565b6138649190615599565b83600201546138739190615543565b90506138a17faf992f4ed8826800ea4c535ea8f35611cc8aedcb8d46de07e27c5d43d5e7a4b060001b612c03565b6138cd7f39c0b3daee8260460e37aa388fe33dea4675f63c5d82c053334e520a03fb795260001b612c03565b60006138fb7fa7d7f61d0171e724abb045be5d442e5fd1c51bc5aff9d79216507c1d35c1972160001b612c03565b6139277f9dee280bfbd368bcb78f28e0929132d8622cd6d89ace59a7dc6f005ab31e3dd960001b612c03565b6102bc426139359190615624565b600a6000613941614b0d565b73ffffffffffffffffffffffffffffffffffffffff1673ffffffffffffffffffffffffffffffffffffffff168152602001908152602001600020541115613e95576139ae7fd1a2e460856e624ca456a7bd07ea528cda2a33cf3d4dd7b2c367c60221567e9060001b612c03565b6139da7f523b1a755c322b7d61767455a23db95f06173bf34065bea328ba464d9fcf1b8460001b612c03565b613a067f8c7178e412306a1c02798a9b8ad137d4c01ab0f32dc9fa8e305c465adbc40da960001b612c03565b6064605a83613a1591906155ca565b613a1f9190615599565b9050613a4d7fac774c4845d93f210e05652778d193a64c0c7bbbefb1b633610072c2ca1cfbff60001b612c03565b613a797f2769ba206ef9517b3ab4fa8aa594c4d34b62ee634bca43e7f9c0d566c1f713f160001b612c03565b613aa57f934fc91b0fc50cc63e93dc714b0ed7c9d24ae6968a4bd212484595cd1f97578360001b612c03565b80600560009054906101000a900473ffffffffffffffffffffffffffffffffffffffff1673ffffffffffffffffffffffffffffffffffffffff166370a08231613aec614b0d565b6040518263ffffffff1660e01b8152600401613b0891906150d9565b60206040518083038186803b158015613b2057600080fd5b505afa158015613b34573d6000803e3d6000fd5b505050506040513d601f19601f82011682018060405250810190613b589190614d46565b1015613b99576040517f08c379a0000000000000000000000000000000000000000000000000000000008152600401613b909061528f565b60405180910390fd5b613bc57fc2e5b9b4895a8560bff0119bc0a4ce7fcd5f4af5e163f798df92265f0f28154160001b612c03565b613bf17f1dfcd080e5897336be1def0464810a3c6636cc988e0652ea1ecb7597b8d463b060001b612c03565b613c1d7f1926cbce494fd2769c16ec1dc05d24b7b39c09a7c55431f6830789ceb1016f0e60001b612c03565b6000600560009054906101000a900473ffffffffffffffffffffffffffffffffffffffff1673ffffffffffffffffffffffffffffffffffffffff166323b872dd613c65614b0d565b600360009054906101000a900473ffffffffffffffffffffffffffffffffffffffff16856040518463ffffffff1660e01b8152600401613ca7939291906150f4565b602060405180830381600087803b158015613cc157600080fd5b505af1158015613cd5573d6000803e3d6000fd5b505050506040513d601f19601f82011682018060405250810190613cf99190614c09565b9050613d277f55f0e015e76ace2ff95beeb07a4a6e102fc1f8d1a961cf52a192f100833a19a560001b612c03565b613d537ff011e088aebbbe65fdb01a52879178f5e3443eb57eda9e4bc47ca615c352d17f60001b612c03565b613d7f7f3d90e89c96a61ac81fe9eb93fc46ed7f976e1852cce41710229320abec6945d460001b612c03565b80613dbf576040517f08c379a0000000000000000000000000000000000000000000000000000000008152600401613db69061520f565b60405180910390fd5b613deb7fe635924601546b7c16e6ec6c86fdeb42aa5356a7a16515af23c01a16ae8fdb5760001b612c03565b613e177f5b440eb75b851fd8c5cd25cfae2a29336349c8c0a2dee315acd722d887021d9860001b612c03565b613e437f67085aada20f26dffc125ada4e674b7d12cf42d939ef474bbf3f42563048d5bb60001b612c03565b6000600a6000613e51614b0d565b73ffffffffffffffffffffffffffffffffffffffff1673ffffffffffffffffffffffffffffffffffffffff168152602001908152602001600020819055505061438b565b613ec17f537261e4e331000f8b1df7bdbe68ff39f303779dedaa091952e1f793c1bdd99460001b612c03565b613eed7fabda7420f9668157eea588411111c40758df9a44fe199eeaed18e8db2f3c5f1560001b612c03565b613f197f070c583713d24ef87661a044026b6262f92ffc6edabbbf8a0324985d536bbf1260001b612c03565b819050613f487fb444ade96b5f65a600fd2fdef42a65c50cf0a99a67b6b363c89c3cecb42b634d60001b612c03565b613f747fb32f86fdfafde8dd0200dc33bab3d2b736598d6c635f5a42896e68de1f53b3cd60001b612c03565b613fa07f498863c0379fce6c8a7d0810020c1f933773398f0cd5582f40cf56f27d2293a960001b612c03565b80600560009054906101000a900473ffffffffffffffffffffffffffffffffffffffff1673ffffffffffffffffffffffffffffffffffffffff166370a08231613fe7614b0d565b6040518263ffffffff1660e01b815260040161400391906150d9565b60206040518083038186803b15801561401b57600080fd5b505afa15801561402f573d6000803e3d6000fd5b505050506040513d601f19601f820116820180604052508101906140539190614d46565b1015614094576040517f08c379a000000000000000000000000000000000000000000000000000000000815260040161408b9061528f565b60405180910390fd5b6140c07fc0a8870f05efbc8f5853ed8f93104a7a37e335b470cfa6d4ff7b5092e117ace360001b612c03565b6140ec7fdec26e5667ae06f88bd1e1c4e4e600a751d05cde32305d460d3a2da0b7bd9c1060001b612c03565b6141187febae6932d8f6330f561c0288cf3e5b354f04d9725950d9b88a873fe7fc988c6160001b612c03565b6000600560009054906101000a900473ffffffffffffffffffffffffffffffffffffffff1673ffffffffffffffffffffffffffffffffffffffff166323b872dd614160614b0d565b600360009054906101000a900473ffffffffffffffffffffffffffffffffffffffff16856040518463ffffffff1660e01b81526004016141a2939291906150f4565b602060405180830381600087803b1580156141bc57600080fd5b505af11580156141d0573d6000803e3d6000fd5b505050506040513d601f19601f820116820180604052508101906141f49190614c09565b90506142227f36fe540dbd85517ca5d4872293c387ec9baa9841e0dfdc8b496ad1d308a1c54260001b612c03565b61424e7f9184f3f4299dfc63526a132911c3fab686981c1dc8c18409978548193d22567d60001b612c03565b61427a7faabc91aa9472bfa2fa27beaa96ea38d22877cdbea26c97e60e2f25743e6b8daf60001b612c03565b806142ba576040517f08c379a00000000000000000000000000000000000000000000000000000000081526004016142b19061520f565b60405180910390fd5b6142e67f0323ae09580e2874117365c3b4b6b3407234fa4cf1e0557d88d9222076a598c260001b612c03565b6143127fca88606d7a342d1d3280d2d9baf439a28763e003faa3d1791667de32ceaf137e60001b612c03565b61433e7fc4c2f02b5cfe71018bdbe86db31e286dd938988f68690531ad78bf5740c0e98b60001b612c03565b42600a600061434b614b0d565b73ffffffffffffffffffffffffffffffffffffffff1673ffffffffffffffffffffffffffffffffffffffff16815260200190815260200160002081905550505b6143b77fe55aaacc054346130dccb641f83d980ce682a9e6bcb2fc16585c526ce2e6d77f60001b612c03565b6143e37f7e1326a08c69d1b8c16fb44bb19df29c29e5457241d2c912d2ac2655ff95bce360001b612c03565b600080600080600080600080600460009054906101000a900473ffffffffffffffffffffffffffffffffffffffff1673ffffffffffffffffffffffffffffffffffffffff1663891b30588e6040518263ffffffff1660e01b815260040161444a919061534f565b61010060405180830381600087803b15801561446557600080fd5b505af1158015614479573d6000803e3d6000fd5b505050506040513d601f19601f8201168201806040525081019061449d9190614c63565b975097509750975097509750975097506144d97f7a8667275bc7cd192fdfa5bfa376d96b468b01ab0a42efa77507dd3c341d024860001b612c03565b6145057f944d157f81e011f86445757b05fefd4893a7ef4bd265d45ef7b4e9efb17ce7e060001b612c03565b600360009054906101000a900473ffffffffffffffffffffffffffffffffffffffff1673ffffffffffffffffffffffffffffffffffffffff1663b36758328e8b8b8b8b8b8b8b8b8b6040518b63ffffffff1660e01b81526004016145729a99989796959493929190615438565b600060405180830381600087803b15801561458c57600080fd5b505af11580156145a0573d6000803e3d6000fd5b505050506145d07f35f3d87757a6cce85acd32dc01cb7451d02dc8e1f7d152c4f4d59267ec65731e60001b612c03565b6145fc7fabf0ff0b7f8cc168d4894ea4b5d9edf9d9d99833b29d5250ff18af6468b5952d60001b612c03565b600260009054906101000a900473ffffffffffffffffffffffffffffffffffffffff1673ffffffffffffffffffffffffffffffffffffffff1663b225afcb8e614643614b0d565b60016040518463ffffffff1660e01b81526004016146639392919061536a565b600060405180830381600087803b15801561467d57600080fd5b505af1158015614691573d6000803e3d6000fd5b505050506146c17f7a76171af686bd5be2ec0f39ecd2862a7698ea23ab063fc6aeb35a11b22a0e8460001b612c03565b6146ed7f7ee2debc343d8fda76838591d83e4f7ce3111cbe0f78041a0baf141ad8212f0e60001b612c03565b7fb55ff93e2d19c0774a8734020459e420f60fdcf9216f639f37af01b856cef9568d614717614b0d565b8b604051614727939291906153a1565b60405180910390a150505050505050505050505050565b600160009054906101000a900473ffffffffffffffffffffffffffffffffffffffff1681565b6147907faada80870ce7e2633d57f08df1a6c60aef9542f2aa745dfec479001a46091db060001b612c03565b6147bc7f4c4803b67c4d0ee1d862d0b7eb6433b1000105cd9f0e788c0dc06422d8b0f21b60001b612c03565b6147e87f30ad38ed2a7ecf2295cfc514c5e1ba86c8534a0ab9e7af2617da334ed4899b4d60001b612c03565b600160009054906101000a900473ffffffffffffffffffffffffffffffffffffffff1673ffffffffffffffffffffffffffffffffffffffff16638413ec1461482e614b0d565b6040518263ffffffff1660e01b815260040161484a91906150d9565b60006040518083038186803b15801561486257600080fd5b505afa158015614876573d6000803e3d6000fd5b505050506148a67f1bac2a6b07434fc84ea9d5361fc9ec3142d9b3a5b4d300a5cdcd00d29f58b41b60001b612c03565b806148d37fa09c05a895fce26eb918729a551f8633dc3963841d782921987dccdf1073765c60001b612c03565b6148ff7f6de33c1b741a0aaa6311c8aa6dd58da996b170c19101aec4de17af7e5ecbdbad60001b612c03565b61492b7f614efaa266ebcc561c59e6dec33adb3d730cf5ff8901cdf82ee779e13f322c4060001b612c03565b6149567e7a29eb780ba27dd1b7e48569c74ff4c12a4a0def15c0ee45f1a653c18e7a5b60001b612c03565b600073ffffffffffffffffffffffffffffffffffffffff168173ffffffffffffffffffffffffffffffffffffffff1614156149c6576040517f08c379a00000000000000000000000000000000000000000000000000000000081526004016149bd9061522f565b60405180910390fd5b6149f27f49eeecaf4e82170982b0d04433779d9328537929c8d1ed6c69d3495a955aea8660001b612c03565b614a1e7fc461c849c5c14eba736b12f5b69e3d2a884e84f0b48ff0d2c651788415245c8b60001b612c03565b614a4a7fcbc524f9dc94fca7857b75ddd76589825eebf866165f2186bdc03e6c4b6c46d760001b612c03565b614a767fbbdedd790560ab4ab3f157b896d50cb5f9519cc9ccd9850d29096a5c4a373c2660001b612c03565b614aa27fefb9e3d2201e9cc2ed578d05a681a7bc62a946a4295cecb203f19b24bb722c4e60001b612c03565b81600060026101000a81548173ffffffffffffffffffffffffffffffffffffffff021916908373ffffffffffffffffffffffffffffffffffffffff1602179055505050565b600360009054906101000a900473ffffffffffffffffffffffffffffffffffffffff1681565b60006014600036905010158015614b295750614b28336122b4565b5b15614b3d57601436033560601c9050614b45565b339050614b46565b5b90565b600081359050614b5881615ac6565b92915050565b600081519050614b6d81615add565b92915050565b600081359050614b8281615af4565b92915050565b600081519050614b9781615b0b565b92915050565b600081359050614bac81615b22565b92915050565b600081519050614bc181615b22565b92915050565b600081359050614bd681615b39565b92915050565b600060208284031215614bf257614bf161587b565b5b6000614c0084828501614b49565b91505092915050565b600060208284031215614c1f57614c1e61587b565b5b6000614c2d84828501614b5e565b91505092915050565b600060208284031215614c4c57614c4b61587b565b5b6000614c5a84828501614b73565b91505092915050565b600080600080600080600080610100898b031215614c8457614c8361587b565b5b6000614c928b828c01614b88565b9850506020614ca38b828c01614b88565b9750506040614cb48b828c01614b88565b9650506060614cc58b828c01614b88565b9550506080614cd68b828c01614b88565b94505060a0614ce78b828c01614b88565b93505060c0614cf88b828c01614b88565b92505060e0614d098b828c01614b88565b9150509295985092959890939650565b600060208284031215614d2f57614d2e61587b565b5b6000614d3d84828501614b9d565b91505092915050565b600060208284031215614d5c57614d5b61587b565b5b6000614d6a84828501614bb2565b91505092915050565b600080600080600060a08688031215614d8f57614d8e61587b565b5b6000614d9d88828901614b9d565b9550506020614dae88828901614b9d565b9450506040614dbf88828901614bc7565b9350506060614dd088828901614bc7565b9250506080614de188828901614bc7565b9150509295509295909350565b600080600060608486031215614e0757614e0661587b565b5b6000614e1586828701614b9d565b9350506020614e2686828701614bc7565b9250506040614e3786828701614bc7565b9150509250925092565b614e4a816156dc565b82525050565b614e5981615658565b82525050565b614e688161566a565b82525050565b614e77816156ee565b82525050565b614e8681615712565b82525050565b614e9581615736565b82525050565b614ea48161575a565b82525050565b614eb38161577e565b82525050565b614ec2816157a2565b82525050565b614ed1816157b4565b82525050565b6000614ee282615527565b614eec8185615532565b9350614efc8185602086016157ea565b614f0581615880565b840191505092915050565b6000614f1d601f83615532565b9150614f2882615891565b602082019050919050565b6000614f40601583615532565b9150614f4b826158ba565b602082019050919050565b6000614f63600f83615532565b9150614f6e826158e3565b602082019050919050565b6000614f86602e83615532565b9150614f918261590c565b604082019050919050565b6000614fa9602083615532565b9150614fb48261595b565b602082019050919050565b6000614fcc600e83615532565b9150614fd782615984565b602082019050919050565b6000614fef603583615532565b9150614ffa826159ad565b604082019050919050565b6000615012601783615532565b915061501d826159fc565b602082019050919050565b6000615035601883615532565b915061504082615a25565b602082019050919050565b6000615058602583615532565b915061506382615a4e565b604082019050919050565b600061507b602083615532565b915061508682615a9d565b602082019050919050565b61509a81615680565b82525050565b6150a9816156ae565b82525050565b6150b8816156c8565b82525050565b60006020820190506150d36000830184614e50565b92915050565b60006020820190506150ee6000830184614e41565b92915050565b60006060820190506151096000830186614e41565b6151166020830185614e50565b61512360408301846150a0565b949350505050565b60006020820190506151406000830184614e5f565b92915050565b600060208201905061515b6000830184614e6e565b92915050565b60006020820190506151766000830184614e7d565b92915050565b60006020820190506151916000830184614e8c565b92915050565b60006020820190506151ac6000830184614e9b565b92915050565b60006020820190506151c76000830184614eaa565b92915050565b600060208201905081810360008301526151e78184614ed7565b905092915050565b6000602082019050818103600083015261520881614f10565b9050919050565b6000602082019050818103600083015261522881614f33565b9050919050565b6000602082019050818103600083015261524881614f56565b9050919050565b6000602082019050818103600083015261526881614f79565b9050919050565b6000602082019050818103600083015261528881614f9c565b9050919050565b600060208201905081810360008301526152a881614fbf565b9050919050565b600060208201905081810360008301526152c881614fe2565b9050919050565b600060208201905081810360008301526152e881615005565b9050919050565b6000602082019050818103600083015261530881615028565b9050919050565b600060208201905081810360008301526153288161504b565b9050919050565b600060208201905081810360008301526153488161506e565b9050919050565b600060208201905061536460008301846150a0565b92915050565b600060608201905061537f60008301866150a0565b61538c6020830185614e41565b6153996040830184614eb9565b949350505050565b60006060820190506153b660008301866150a0565b6153c36020830185614e41565b6153d060408301846150a0565b949350505050565b60006040820190506153ed60008301856150a0565b6153fa60208301846150a0565b9392505050565b600060608201905061541660008301866150a0565b61542360208301856150a0565b6154306040830184614ec8565b949350505050565b60006101408201905061544e600083018d6150a0565b61545b602083018c6150a0565b615468604083018b615091565b615475606083018a615091565b6154826080830189615091565b61548f60a0830188615091565b61549c60c0830187615091565b6154a960e0830186615091565b6154b7610100830185615091565b6154c5610120830184615091565b9b9a5050505050505050505050565b600060a0820190506154e960008301886150a0565b6154f660208301876150a0565b61550360408301866150a0565b61551060608301856150af565b61551d60808301846150af565b9695505050505050565b600081519050919050565b600082825260208201905092915050565b600061554e826156ae565b9150615559836156ae565b9250827fffffffffffffffffffffffffffffffffffffffffffffffffffffffffffffffff0382111561558e5761558d61581d565b5b828201905092915050565b60006155a4826156ae565b91506155af836156ae565b9250826155bf576155be61584c565b5b828204905092915050565b60006155d5826156ae565b91506155e0836156ae565b9250817fffffffffffffffffffffffffffffffffffffffffffffffffffffffffffffffff04831182151516156156195761561861581d565b5b828202905092915050565b600061562f826156ae565b915061563a836156ae565b92508282101561564d5761564c61581d565b5b828203905092915050565b60006156638261568e565b9050919050565b60008115159050919050565b6000819050919050565b600061ffff82169050919050565b600073ffffffffffffffffffffffffffffffffffffffff82169050919050565b6000819050919050565b600063ffffffff82169050919050565b600067ffffffffffffffff82169050919050565b60006156e7826157c6565b9050919050565b60006156f982615700565b9050919050565b600061570b8261568e565b9050919050565b600061571d82615724565b9050919050565b600061572f8261568e565b9050919050565b600061574182615748565b9050919050565b60006157538261568e565b9050919050565b60006157658261576c565b9050919050565b60006157778261568e565b9050919050565b600061578982615790565b9050919050565b600061579b8261568e565b9050919050565b60006157ad82615680565b9050919050565b60006157bf826156b8565b9050919050565b60006157d1826157d8565b9050919050565b60006157e38261568e565b9050919050565b60005b838110156158085780820151818401526020810190506157ed565b83811115615817576000848401525b50505050565b7f4e487b7100000000000000000000000000000000000000000000000000000000600052601160045260246000fd5b7f4e487b7100000000000000000000000000000000000000000000000000000000600052601260045260246000fd5b600080fd5b6000601f19601f8301169050919050565b7f74726565206973206e6f7420696e20696e6372656d656e74616c2073656c6c00600082015250565b7f756e7375636365737366756c207472616e736665720000000000000000000000600082015250565b7f696e76616c696420616464726573730000000000000000000000000000000000600082015250565b7f496e697469616c697a61626c653a20636f6e747261637420697320616c72656160008201527f647920696e697469616c697a6564000000000000000000000000000000000000602082015250565b7f747265657320617265206e6f7420617661696c61626c6520666f722073656c6c600082015250565b7f6c6f772070726963652070616964000000000000000000000000000000000000600082015250565b7f496e6372656d656e74616c53656c6c206e6f74206578697374206f7220636f7560008201527f6e74206d757374206265206c7420656e64547265650000000000000000000000602082015250565b7f74726565732061726520756e6465722041756374696f6e000000000000000000600082015250565b7f61737369676e206174206c65617374206f6e6520747265650000000000000000600082015250565b7f696e6372656d656e74616c20706572696f642073686f756c6420626520706f7360008201527f6974697665000000000000000000000000000000000000000000000000000000602082015250565b7f6571756976616c616e742066756e64204d6f64656c206e6f7420657869737473600082015250565b615acf81615658565b8114615ada57600080fd5b50565b615ae68161566a565b8114615af157600080fd5b50565b615afd81615676565b8114615b0857600080fd5b50565b615b1481615680565b8114615b1f57600080fd5b50565b615b2b816156ae565b8114615b3657600080fd5b50565b615b42816156c8565b8114615b4d57600080fd5b5056fea2646970667358221220e5977f78233d961e12d3a278f64c49107ad07a40900a1e85d3c1417583fdb4e864736f6c63430008060033",
  "immutableReferences": {},
  "source": "// // SPDX-License-Identifier: MIT\npragma solidity ^0.8.6;\nfunction c_0xf07fbe48(bytes32 c__0xf07fbe48) pure {}\n\n\nimport \"@openzeppelin/contracts-upgradeable/proxy/utils/Initializable.sol\";\nimport \"@openzeppelin/contracts-upgradeable/token/ERC20/IERC20Upgradeable.sol\";\nimport \"../access/IAccessRestriction.sol\";\nimport \"../tree/ITreeFactory.sol\";\nimport \"../treasury/IWethFunds.sol\";\nimport \"../treasury/IFinancialModel.sol\";\nimport \"../gsn/RelayRecipient.sol\";\n\ncontract IncrementalSell is Initializable, RelayRecipient {\nfunction c_0xbcb12c3d(bytes32 c__0xbcb12c3d) public pure {}\n\n    /** NOTE {isIncrementalSell} set inside the initialize to {true} */\n    bool public isIncrementalSell;\n\n    IAccessRestriction public accessRestriction;\n    ITreeFactory public treeFactory;\n    IWethFunds public wethFunds;\n    IFinancialModel public financialModel;\n    IERC20Upgradeable public wethToken;\n\n    struct IncrementalPrice {\n        uint256 startTree;\n        uint256 endTree;\n        uint256 initialPrice;\n        uint64 increaseStep;\n        uint64 increaseRatio;\n    }\n\n    /** NOTE {incrementalPrice} is struct of IncrementalPrice that store\n     * startTree, endTree, initialPrice, increaseStep, increaseRatio values\n     */\n    IncrementalPrice public incrementalPrice;\n\n    /** NOTE mapping of buyer address to lastBuy time */\n    mapping(address => uint256) public lastBuy;\n\n    event IncrementalTreeSold(uint256 treeId, address buyer, uint256 amount);\n    event IncrementalSellUpdated();\n    event IncrementalRatesUpdated();\n\n    /** NOTE modifier to check msg.sender has admin role */\n    modifier onlyAdmin() {c_0xbcb12c3d(0xaada80870ce7e2633d57f08df1a6c60aef9542f2aa745dfec479001a46091db0); /* function */ \n\nc_0xbcb12c3d(0x4c4803b67c4d0ee1d862d0b7eb6433b1000105cd9f0e788c0dc06422d8b0f21b); /* line */ \n        c_0xbcb12c3d(0x30ad38ed2a7ecf2295cfc514c5e1ba86c8534a0ab9e7af2617da334ed4899b4d); /* statement */ \naccessRestriction.ifAdmin(_msgSender());\nc_0xbcb12c3d(0x1bac2a6b07434fc84ea9d5361fc9ec3142d9b3a5b4d300a5cdcd00d29f58b41b); /* line */ \n        _;\n    }\n\n    /** NOTE modifier to check msg.sender has data manager role */\n    modifier onlyDataManager() {c_0xbcb12c3d(0x8733183129ca3dee788da1e9b5d3f53954816fad8619b36ccf83dd88e87cd509); /* function */ \n\nc_0xbcb12c3d(0xdf8635e0ce2660d02fe0a54ee78a688097de5c9b5892826be4d83e7f4af56aae); /* line */ \n        c_0xbcb12c3d(0x51eb648a07af791e5d8b4708d6eebc5f03a070a65cdb61e630e3a61cb8b417cb); /* statement */ \naccessRestriction.ifDataManager(_msgSender());\nc_0xbcb12c3d(0xce37193b1a3e7701cb1883cab77d656f256f1f688844417283b7e75c84608309); /* line */ \n        _;\n    }\n\n    /** NOTE modifier for check if function is not paused*/\n    modifier ifNotPaused() {c_0xbcb12c3d(0xf064592dbcbb3e79202d430cda3092f535bb7c7a68337a9ee37fb81b0f29cd46); /* function */ \n\nc_0xbcb12c3d(0xa4733e8b5da85323a6441fa6c1427231ec13faab77fdf5ce8ce315d615c4a00e); /* line */ \n        c_0xbcb12c3d(0x0e6d46292e51a1b4c4562ccbce6e6b006725ee2f1caac9be9570b29c959e1d96); /* statement */ \naccessRestriction.ifNotPaused();\nc_0xbcb12c3d(0x25b0c97ab84b844e63ec1787ac2c3c6ea755c1b8bfcca017d5b752ff150f785e); /* line */ \n        _;\n    }\n\n    /** NOTE modifier for check valid address */\n    modifier validAddress(address _address) {c_0xbcb12c3d(0xa09c05a895fce26eb918729a551f8633dc3963841d782921987dccdf1073765c); /* function */ \n\nc_0xbcb12c3d(0x6de33c1b741a0aaa6311c8aa6dd58da996b170c19101aec4de17af7e5ecbdbad); /* line */ \n        c_0xbcb12c3d(0x614efaa266ebcc561c59e6dec33adb3d730cf5ff8901cdf82ee779e13f322c40); /* requirePre */ \nc_0xbcb12c3d(0x007a29eb780ba27dd1b7e48569c74ff4c12a4a0def15c0ee45f1a653c18e7a5b); /* statement */ \nrequire(_address != address(0), \"invalid address\");c_0xbcb12c3d(0x49eeecaf4e82170982b0d04433779d9328537929c8d1ed6c69d3495a955aea86); /* requirePost */ \n\nc_0xbcb12c3d(0xc461c849c5c14eba736b12f5b69e3d2a884e84f0b48ff0d2c651788415245c8b); /* line */ \n        _;\n    }\n\n    /**\n     * @dev initialize accessRestriction contract and set true for isIncrementalSell\n     * @param _accessRestrictionAddress set to the address of accessRestriction contract\n     */\n    function initialize(address _accessRestrictionAddress)\n        external\n        initializer\n    {c_0xbcb12c3d(0x148ce58fc95d109074bb2caca72ac3f7b3241f69ea49d63e1c97e4f3a2e8d31a); /* function */ \n\nc_0xbcb12c3d(0xdfba84e166564960abffc68b40a58b738d23994fed3cedfa7267d009ce7d8b3c); /* line */ \n        c_0xbcb12c3d(0xccb993e5e29f022ea17f0b3f287da3dbf0cdacaa59a14e7cf18bc045646bd720); /* statement */ \nIAccessRestriction candidateContract = IAccessRestriction(\n            _accessRestrictionAddress\n        );\nc_0xbcb12c3d(0xcb562b90e8e68a78efd553820036b2c4db6142c3f33c3b8fb812ebf192d9fa7f); /* line */ \n        c_0xbcb12c3d(0x503fc8c62e1fd150976dec52a9de94f201b838a0f793c088d20ebc494c37fe85); /* requirePre */ \nc_0xbcb12c3d(0x8bc9723af42ac80ed0bd572b6fe80273a1f404bc0995d236f8ddf2c875eb8401); /* statement */ \nrequire(candidateContract.isAccessRestriction());c_0xbcb12c3d(0xe69d7266076e89b294464fe26bd8c7e11790016c50537796584ba436323d7cd9); /* requirePost */ \n\nc_0xbcb12c3d(0xdb784f496a4f742c31b7071097d3cab07837e29fd0fc950f606c82b463d9758d); /* line */ \n        c_0xbcb12c3d(0xaaa22a37dc63b8ca374d3b9449f20b54c0af8855d56dfb0870435739c4833986); /* statement */ \nisIncrementalSell = true;\nc_0xbcb12c3d(0x3720eab7762d7f07fc803e81281f45b49bca776e3144ecacc573d57dc5717573); /* line */ \n        c_0xbcb12c3d(0xa5b96aba713b851133c65b6331fdf3ef6414237bf6c027e450dc976bfd7d0b56); /* statement */ \naccessRestriction = candidateContract;\n    }\n\n    /**\n     * @dev admin set trusted forwarder address\n     * @param _address set to {trustedForwarder}\n     */\n    function setTrustedForwarder(address _address)\n        external\n        onlyAdmin\n        validAddress(_address)\n    {c_0xbcb12c3d(0xcbc524f9dc94fca7857b75ddd76589825eebf866165f2186bdc03e6c4b6c46d7); /* function */ \n\nc_0xbcb12c3d(0xbbdedd790560ab4ab3f157b896d50cb5f9519cc9ccd9850d29096a5c4a373c26); /* line */ \n        c_0xbcb12c3d(0xefb9e3d2201e9cc2ed578d05a681a7bc62a946a4295cecb203f19b24bb722c4e); /* statement */ \ntrustedForwarder = _address;\n    }\n\n    /** @dev admin set TreeFactory contract address\n     * @param _address TreeFactory contract address\n     */\n    function setTreeFactoryAddress(address _address) external onlyAdmin {c_0xbcb12c3d(0xf6df6f78e7fec90fc16413b5a8b0dcf0d9bddd9775570228dae08b46d36ed3a1); /* function */ \n\nc_0xbcb12c3d(0x195f63bc3ef00784407ac18b9cc5ce7fd0190c616ec24e5775a05e46e6a551d0); /* line */ \n        c_0xbcb12c3d(0xd5173e7683da6f524b40eff6c570d391bffc1739b14124f166e66661e9492412); /* statement */ \nITreeFactory candidateContract = ITreeFactory(_address);\nc_0xbcb12c3d(0x95370af9a42452fe87f3bd0b932f3ac01c43fcf3b1ef6ef51f8ef3e57085b538); /* line */ \n        c_0xbcb12c3d(0x1f19992f1cf9eab092b1d45dee6f7ceb3d0f35ec56df0583e109eb9ccbe0ddf6); /* requirePre */ \nc_0xbcb12c3d(0xfe93f43f747f079d5b238ed5fd6c6e73a79d01ac6b7870d0aaf1114d99d29bfe); /* statement */ \nrequire(candidateContract.isTreeFactory());c_0xbcb12c3d(0x7650bc5291d8cdc1110488b834bfa2dc4a02bc31e53b9dfc2680344ba2f1b53e); /* requirePost */ \n\nc_0xbcb12c3d(0x36dcd80041039b508aa07f717e2d802d25613ec63a73406be60c2b5fe4e7e73e); /* line */ \n        c_0xbcb12c3d(0x10082b3d807a63dca5e0c40235d2b6886ba6ac53334dcafc882647f1c43ac798); /* statement */ \ntreeFactory = candidateContract;\n    }\n\n    /** @dev admin set wethFunds contract address\n     * @param _address wethFunds contract address\n     */\n    function setWethFundsAddress(address _address) external onlyAdmin {c_0xbcb12c3d(0x9785209bf1a47dbfdd9cbca6fd3f76bf08b9244dbef832262ac3ac9080b71380); /* function */ \n\nc_0xbcb12c3d(0x6b6003cc79a3ffffb27a903a2e8041a32b0e16a5bc65f9414a8e674443fc8036); /* line */ \n        c_0xbcb12c3d(0xb657482cac71b94310ce700a9304b08b0a1559cb21747e49b4efe24be776f4a3); /* statement */ \nIWethFunds candidateContract = IWethFunds(_address);\n\nc_0xbcb12c3d(0xfec38d38bac79a831f05ffa14b79c180335a777f3e8087b3f65528eb0ae8d8b3); /* line */ \n        c_0xbcb12c3d(0xc8ab4f96d8168afa5c436b4fe28ae0edcc5e981ba189114efea8875e61d20a2c); /* requirePre */ \nc_0xbcb12c3d(0xffdc8b816e25c0b0f0252ba4a7934b7082dcb68c2212facaabb334cb42e7865f); /* statement */ \nrequire(candidateContract.isWethFunds());c_0xbcb12c3d(0x9b6dc5be02fbbc89155553862874062d538570c474724a8d17e420ffe4b2a243); /* requirePost */ \n\n\nc_0xbcb12c3d(0x551b50636da46c730fbaa95020997a1ca9dbc6075e7619d68b9b08259ca8bd54); /* line */ \n        c_0xbcb12c3d(0x83041128b80d1bd192d672a3282605d6e48f92fe6d8f0c2696214157d4718982); /* statement */ \nwethFunds = candidateContract;\n    }\n\n    /** @dev admin set wethToken contract address\n     * @param _address wethToken contract address\n     */\n    function setWethTokenAddress(address _address)\n        external\n        onlyAdmin\n        validAddress(_address)\n    {c_0xbcb12c3d(0x6512a49c2dac6ede155d52f882b32a434a1c7ffc5e7689a2fcceeb4e9a79c8e2); /* function */ \n\nc_0xbcb12c3d(0x03c7010c05c491649fca8b6c37ac35cfe628a862a2fd7a7fc5d0f8f95b497f78); /* line */ \n        c_0xbcb12c3d(0x1c2bfdf90ff0614727fbda0742e659ac23530af904ba6c46587e4fa4185a8165); /* statement */ \nIERC20Upgradeable candidateContract = IERC20Upgradeable(_address);\nc_0xbcb12c3d(0x7bb6ecade7d4104b3c97a8b603c9d287da339f4e3f67af7ebd2a4d64b794e945); /* line */ \n        c_0xbcb12c3d(0x9e07788c776aec1e595d95f0ee4648988e28b5e6c15761dbd915916421ecc348); /* statement */ \nwethToken = candidateContract;\n    }\n\n    /**\n     * @dev admin set FinancialModelAddress\n     * @param _address set to the address of financialModel\n     */\n    function setFinancialModelAddress(address _address) external onlyAdmin {c_0xbcb12c3d(0x40e7f4f1564e7b487467e3615e24d517d78c277e3216ab2f19442e171f9e4864); /* function */ \n\nc_0xbcb12c3d(0xe18dc59b9d4e25f62f48b7340195f7d604a4c1a25fd3aeaa39fa3c1f40826e64); /* line */ \n        c_0xbcb12c3d(0xf09aa85ca5fe0b30651a14878ef3b3c39519d4e2664f1d3db9fa7f9cf3f7ff93); /* statement */ \nIFinancialModel candidateContract = IFinancialModel(_address);\nc_0xbcb12c3d(0x0b17dd96e7da731b8dff990c5ffc2f15b7c695bae0616275ee07e5a5e9078e72); /* line */ \n        c_0xbcb12c3d(0xe7645a8320e046a6e6c09432d93e50541091e2ef2ea21dd88b87aaeca576f61a); /* requirePre */ \nc_0xbcb12c3d(0x43615e516fe47a9a86e6a9b9bbe73f873b387e9e53226334b7709e770c1c2d8a); /* statement */ \nrequire(candidateContract.isFinancialModel());c_0xbcb12c3d(0x59974876dcc6befb0108e458c37c5cd8a96ea9fdb7389863e5cf684e042f0d08); /* requirePost */ \n\nc_0xbcb12c3d(0xfcb6e708581f76e6ba4cd8fa3893f723f833d17ce060ca86eaf43084acf9e4a6); /* line */ \n        c_0xbcb12c3d(0x9c2f98b18b3fbfd0c04e829b8a497d74ce76b8122a91a1a3a4678736254cb388); /* statement */ \nfinancialModel = candidateContract;\n    }\n\n    //TODO: ADD_COMMENT\n    function freeIncrementalSell(uint256 _count) external onlyDataManager {c_0xbcb12c3d(0x95b094e99c9f39ebcb6fbe9dd4ba188fdad016ea9e86b3ff6141d7879f34bb79); /* function */ \n\nc_0xbcb12c3d(0x3e83fc123057d27e87c5072a6320ecb9a1256fcb1a3e8744f0cd6ea2c3fafce7); /* line */ \n        c_0xbcb12c3d(0x929a74012101d0bfbf8456f6803f567ed68b9b5b78079a4508782e4302519e53); /* statement */ \nIncrementalPrice storage incrPrice = incrementalPrice;\n\nc_0xbcb12c3d(0xdf83ab8b48583f8129a8fbc1bb1a24ac009960d3c2a9df6588a2efa61e279dc5); /* line */ \n        c_0xbcb12c3d(0x718bbc4d6e2101a642618b009d6fc52da17f8ac5e2288050fde40de85b1966b3); /* statement */ \nuint256 newStartTree = incrPrice.startTree + _count;\n\nc_0xbcb12c3d(0xbc1d224c99b8b0446223921041809361e77275b5890705eb60176f696b0e0250); /* line */ \n        c_0xbcb12c3d(0xb8eddd559b1c380710c9c8c7148d1b92ab33b8b1e6af8e6627803f93af139f0c); /* requirePre */ \nc_0xbcb12c3d(0x0c08a6fe43ce5726f3ff1d13e4038753a6e60883513dbad87f3498ee800de0c9); /* statement */ \nrequire(\n            incrPrice.increaseStep > 0 && newStartTree <= incrPrice.endTree,\n            \"IncrementalSell not exist or count must be lt endTree\"\n        );c_0xbcb12c3d(0xb08cac53438689a1c5830fffdc332a783c3cebf8357f074641863521c5936be5); /* requirePost */ \n\n\nc_0xbcb12c3d(0x5cdfeb07954f72d1101492fb02e6b83a1c1c41711b69bf1ba7acee9f71cba92e); /* line */ \n        c_0xbcb12c3d(0x789be83bdcc19d13592cec39c860ea3c5b76e695b5cdcfacdc158d631defdba4); /* statement */ \ntreeFactory.bulkRevert(incrPrice.startTree, newStartTree);\n\nc_0xbcb12c3d(0x53f6d3582d054085b0818ff1b98fecdb7a3b6aaacbdeba877476fcc6da81b52d); /* line */ \n        c_0xbcb12c3d(0x0214afce7a9e6cf04e7a9a0fd71bee5890d809f0672c753b7ab709e528cab40d); /* statement */ \nincrPrice.startTree = newStartTree;\n    }\n\n    /**\n     * @dev admin set a range from {startTree} to {startTree + treeCount}\n     * for incremental selles for tree\n     * @param _startTree starting treeId\n     * @param _initialPrice initialPrice of trees\n     * @param _treeCount number of tree in incremental sell\n     * @param _steps step to increase tree price\n     * @param _increaseRatio increment price rate\n     */\n\n    function addTreeSells(\n        uint256 _startTree,\n        uint256 _initialPrice,\n        uint64 _treeCount,\n        uint64 _steps,\n        uint64 _increaseRatio\n    ) external onlyDataManager {c_0xbcb12c3d(0xae53db4d574505ccfd40793d541dbf770fab5ed86a058ff5d82ba24601dc2bc4); /* function */ \n\nc_0xbcb12c3d(0x0a870e30109cc7d5ccabf76bf651706740b0416b7e6cc90a45d3f747fe4de377); /* line */ \n        c_0xbcb12c3d(0x1cd7046d94d6b6d70cc320caf3636c7401cc2efaf3e10f6d95994ce4a0db0bf9); /* requirePre */ \nc_0xbcb12c3d(0x80571faab9c3e45736575dadf1e2761050b56b11e2616da69747e2b27a973387); /* statement */ \nrequire(_treeCount > 0, \"assign at least one tree\");c_0xbcb12c3d(0x0ac6427279fa549f7954c29b2fbca6078e75704421dd50a79c3cdb1ed61289a7); /* requirePost */ \n\nc_0xbcb12c3d(0x82ccbc904dd0983c65530d3634f1915501eed726c4e6758431c3344a7a275fa1); /* line */ \n        c_0xbcb12c3d(0x57099590c9919220df60cd66664876467d2cd020552ae767613eb0d62c3cf21b); /* requirePre */ \nc_0xbcb12c3d(0xe0b75ec4769d4e7c04da54fd965e4faf3340d31dc26d72b4e35984a8c1e897a1); /* statement */ \nrequire(_startTree > 100, \"trees are under Auction\");c_0xbcb12c3d(0xdb3c3315a87c8290e90b0fc4267a845510012bec9107522d6726e66f0c78f492); /* requirePost */ \n\nc_0xbcb12c3d(0x47529ed53e0b27f9ef8406678593c2d1515f5f6e9d4b6ed858b3c8b211222856); /* line */ \n        c_0xbcb12c3d(0x06289637d8d9418d7b339c44b029c7e07f645b95ce8ad62032b7cb928a6e70a4); /* requirePre */ \nc_0xbcb12c3d(0x77b70b227938e1020069b380edbb64c91b088d084b931f7590a0dc31897da149); /* statement */ \nrequire(_steps > 0, \"incremental period should be positive\");c_0xbcb12c3d(0x8c7fdd4790a06299fa52425e56737f9bdaad3d57731f01338c958824e30d49be); /* requirePost */ \n\nc_0xbcb12c3d(0xbc449b8f43f2ccf34cac71efccf84aae9c6e45c00005f0e7b9877435d4704720); /* line */ \n        c_0xbcb12c3d(0xe6740be671fbf188c0d8f67660d0f2aeef18f398a1a7c7efbdb9a6dc37d03078); /* requirePre */ \nc_0xbcb12c3d(0x982e6dd864ed258daf3a49ba7dc4c8ac23ace9727aebf509f2b54107e9885e9e); /* statement */ \nrequire(\n            financialModel.distributionModelExistance(_startTree),\n            \"equivalant fund Model not exists\"\n        );c_0xbcb12c3d(0x4325db3372b8b06cdcb9c3234af6451cfd3011bd8304c9bc972abb04af5e1202); /* requirePost */ \n\n\nc_0xbcb12c3d(0xfe17c093a58932689008f9646f75fe59ef9dbcdd8e73cb0ef372d023ffd339ce); /* line */ \n        c_0xbcb12c3d(0x1ca32f842505921574e823066898b40884cfec720f606c667a0b725e71ea8481); /* statement */ \nIncrementalPrice storage incrPrice = incrementalPrice;\n\nc_0xbcb12c3d(0x92476bc71da0798c07261b911b029ff56d6019673057056f93a72b2bd74eb671); /* line */ \n        c_0xbcb12c3d(0xacd2122248112094b54c0d4249c34c7ba6de356959eebbed3f6526328b11e8e3); /* statement */ \nif (incrPrice.increaseStep > 0) {c_0xbcb12c3d(0xb604e0c6af46f7566f18882cb3e78a8a0a56d9b233b2beabe2cdd9febb35064c); /* branch */ \n\nc_0xbcb12c3d(0xd71c9d136b8b95a2fb6b4a28c86a948fd3c9957ed3c277579f7592694e785189); /* line */ \n            c_0xbcb12c3d(0x6c8e8a22eab9a5eeff94a6fd8295f5259671af9dd85f2c3997bcc3c8ff53b113); /* statement */ \ntreeFactory.bulkRevert(incrPrice.startTree, incrPrice.endTree);\n        }else { c_0xbcb12c3d(0x780a3da562011940ef03efecb89013a867793e1b4d2a8f72f756f68fa56d9139); /* branch */ \n}\n\nc_0xbcb12c3d(0x06ce25ee4064b870833908b40b8419db62d5567163eec994c0ee94e6576cf97e); /* line */ \n        c_0xbcb12c3d(0xcee5069cd40b94ead001bf1cf193990b987bc4a13c25d34d381279999acbcde7); /* requirePre */ \nc_0xbcb12c3d(0x5b265d0dba3b8dc8a7e30f17e7c4b8014e76075f93bc2387696717577e34416e); /* statement */ \nrequire(\n            treeFactory.manageProvideStatus(\n                _startTree,\n                _startTree + _treeCount,\n                2\n            ),\n            \"trees are not available for sell\"\n        );c_0xbcb12c3d(0x82b519c1d95d1242d40fec0ff804b89667e5037f4a71a791efc1add0f4a08aa7); /* requirePost */ \n\n\nc_0xbcb12c3d(0xaa200341afaaf799ff5599aaae54206553468c310dd8d4d733fc803e7d8057e7); /* line */ \n        c_0xbcb12c3d(0x9c9c1ac9e6d48683383e52ecc34434a8ea00af71a77df24715500bd97c1a7867); /* statement */ \nincrPrice.startTree = _startTree;\nc_0xbcb12c3d(0x7da691b69cb4212278305b11667c110add20fe5e7610e6af6da318ac9790dbd9); /* line */ \n        c_0xbcb12c3d(0x675ca40613c96b3bb3d829c276c7a21252cc58abbae8f6cc40515e21ce3df0e6); /* statement */ \nincrPrice.endTree = _startTree + _treeCount;\nc_0xbcb12c3d(0xaa920462e94fcf818a75d17e32fa463bcc61198bb5e249635b25ee38c2d06c31); /* line */ \n        c_0xbcb12c3d(0xc0302dd2cd7b4d155b8c64aab6abe4ce3579817b9334ea5b18890efa8b1e7d42); /* statement */ \nincrPrice.initialPrice = _initialPrice;\nc_0xbcb12c3d(0x3fa44f4adfcc706c7d3bb0f424eed61e0117b7419fb707079a8855eeb516b1e4); /* line */ \n        c_0xbcb12c3d(0xfb1ee0066dc4f51adc32373b07fb3ad61868926368045a5f92e3614651dcd794); /* statement */ \nincrPrice.increaseStep = _steps;\nc_0xbcb12c3d(0xd457bdaf0fba2bdc3aa8782c1150302131211fb111f4207b66b5e14d99452531); /* line */ \n        c_0xbcb12c3d(0x9818904d2fd3053fb41efba923190248a67a84b86243081611f66fc6e23cc388); /* statement */ \nincrPrice.increaseRatio = _increaseRatio;\n\nc_0xbcb12c3d(0xf4080d8a55343d9106e945e7c6280377b16926d63c86c199708be9ed3b6f4cf8); /* line */ \n        c_0xbcb12c3d(0xdb1b8595ea6f65ebc814d54fc2e786f684cf412677fbf924352b751a2c8923b5); /* statement */ \nemit IncrementalSellUpdated();\n    }\n\n    /**\n     * @dev admin add {treeCount} tree at the end of incremental sell tree range\n     * @param _treeCount number of trees added at the end of the incremental sell\n     * tree range\n     */\n    function updateIncrementalEnd(uint256 _treeCount) external onlyDataManager {c_0xbcb12c3d(0x17de9bd3fd0a045f79977aca9bc372389be7ee052a9ff4c019082c444541771e); /* function */ \n\nc_0xbcb12c3d(0x7c8f3a16eafdb85d5ce66585d4755b1406355c636e69799f78d0fccbd03181d4); /* line */ \n        c_0xbcb12c3d(0x8eb8eefe83e8992a805a21eaee4b9e5aa0f02a43089d6c4bf3b93ff8e45434cb); /* statement */ \nIncrementalPrice storage incrPrice = incrementalPrice;\nc_0xbcb12c3d(0x8345b64d858e89e33eddde6490a018b05a05c9f704d55507b653ee4ddede009f); /* line */ \n        c_0xbcb12c3d(0xeeb80696bb31d07435a1703cde82a1d4601c2b9b5abedad7e8f7890fe0d1cbe0); /* requirePre */ \nc_0xbcb12c3d(0x0e0834334edafec6347fe12f732e7f13bcd6c56b021c911b3f66ef8cb3311443); /* statement */ \nrequire(\n            incrPrice.increaseStep > 0,\n            \"incremental period should be positive\"\n        );c_0xbcb12c3d(0x7487d8519bf033781792e379affabdd9965f5b725aeaf9120701a2ffd43faaeb); /* requirePost */ \n\nc_0xbcb12c3d(0x88612b3005951a917fb5a123f2c237645f06217b72d5e4aab60be848a16bb361); /* line */ \n        c_0xbcb12c3d(0x8c287a01f626f9d6cd2172a6e3391349547857e977d86b3a2d9511cde6aaf251); /* requirePre */ \nc_0xbcb12c3d(0xfd6eaa1b09a1ee59ae74d156eb034f0d5fb5aac68b65cb21bb9cf6a08090ad76); /* statement */ \nrequire(\n            treeFactory.manageProvideStatus(\n                incrPrice.endTree,\n                incrPrice.endTree + _treeCount,\n                2\n            ),\n            \"trees are not available for sell\"\n        );c_0xbcb12c3d(0x21eeea3ff934fa153229a56bcbd8ab9fd9c1581abf37ae8dd9b3debb2108465e); /* requirePost */ \n\nc_0xbcb12c3d(0x9668f09f3e454aa6a136e86f9c983807b7519d91eb5a8768544e0cc4fd4780cb); /* line */ \n        c_0xbcb12c3d(0x365386b8185e31151a959bf84a1c8b7103e3c89651f782ec50718779df2d33db); /* statement */ \nincrPrice.endTree = incrPrice.endTree + _treeCount;\n\nc_0xbcb12c3d(0xf6370c463db74dc47af556edf65ba7ae888497d9ff72e88b1a0bf62bbe685978); /* line */ \n        c_0xbcb12c3d(0x35f29b66270cc6961b947fb1ef44a8c82c0e73252d675d844aa03fd083f85515); /* statement */ \nemit IncrementalSellUpdated();\n    }\n\n    /**\n     * tree price calculate based on treeId and msg.sender pay weth for it\n     * and ownership of tree transfered to msg.sender\n     * @param _treeId id of tree to buy\n     * NOTE if buyer, buy another tree before 700 seconds from the\n     * previous purchase, pays 90% of tree price and gets 10% discount\n     * just for this tree. buying another tree give chance to buy\n     * the next tree with 10% discount\n     */\n    function buyTree(uint256 _treeId) external ifNotPaused {c_0xbcb12c3d(0x796b8f1c59f841fabcc3a4208cb4159dae87da025b4291638a42698fea1ca0ea); /* function */ \n\n        //check if _treeId is in this incrementalSell\nc_0xbcb12c3d(0x09166debc31b0769242f124fb8a81db3cefbc26e66d8389e7204596f0dc1ae94); /* line */ \n        c_0xbcb12c3d(0x51b7393109a775f4ee73b953b8297ce3a078df9291ca50423c4e2d3eddd3b733); /* statement */ \nIncrementalPrice storage incPrice = incrementalPrice;\n\nc_0xbcb12c3d(0xaddb2294fde395b10e6a96a262f7ec5bdf07ca2479c787e55f67507071692c04); /* line */ \n        c_0xbcb12c3d(0x8d56640be6008358a999e86fe03941746fdf8a0d7bbae47af6ab7c8549dd7903); /* requirePre */ \nc_0xbcb12c3d(0x896ce34a6e287caa90e09afbc4a07f3016ca162076033328b85243722d9c93a6); /* statement */ \nrequire(\n            _treeId < incPrice.endTree && _treeId >= incPrice.startTree,\n            \"tree is not in incremental sell\"\n        );c_0xbcb12c3d(0xb6f30a7470b0356d5795655d8cce7090ba9222cbf99809e144db7c7bed0ce501); /* requirePost */ \n\n\n        //calc tree price based on treeId\nc_0xbcb12c3d(0xb985e3aaf2c170616e941d0d1ac6bbed4879f8aeb984e24b53962df66d9ff27b); /* line */ \n        c_0xbcb12c3d(0xd52f70c09daf3f603f9d5e72c66aa97abdeb39406ec400077b51015ef652d566); /* statement */ \nuint256 steps = (_treeId - incPrice.startTree) / incPrice.increaseStep;\nc_0xbcb12c3d(0x8d47799470ca6a47f73b283b3d61f08e0fead1d61f54260acdd3acb5b27dd338); /* line */ \n        c_0xbcb12c3d(0xeeacd2fabd89f2bcc84b440f83ea9b136247c7d1961fab3adcae134b622e3dd8); /* statement */ \nuint256 treePrice = incPrice.initialPrice +\n            (steps * incPrice.initialPrice * incPrice.increaseRatio) /\n            10000;\n\nc_0xbcb12c3d(0xaf992f4ed8826800ea4c535ea8f35611cc8aedcb8d46de07e27c5d43d5e7a4b0); /* line */ \n        c_0xbcb12c3d(0x39c0b3daee8260460e37aa388fe33dea4675f63c5d82c053334e520a03fb7952); /* statement */ \nuint256 amount;\n\n        //checking price paid is enough for buying the treeId checking discounts\nc_0xbcb12c3d(0xa7d7f61d0171e724abb045be5d442e5fd1c51bc5aff9d79216507c1d35c19721); /* line */ \n        c_0xbcb12c3d(0x9dee280bfbd368bcb78f28e0929132d8622cd6d89ace59a7dc6f005ab31e3dd9); /* statement */ \nif (lastBuy[_msgSender()] > block.timestamp - 700 seconds) {c_0xbcb12c3d(0xd1a2e460856e624ca456a7bd07ea528cda2a33cf3d4dd7b2c367c60221567e90); /* branch */ \n\nc_0xbcb12c3d(0x523b1a755c322b7d61767455a23db95f06173bf34065bea328ba464d9fcf1b84); /* line */ \n            c_0xbcb12c3d(0x8c7178e412306a1c02798a9b8ad137d4c01ab0f32dc9fa8e305c465adbc40da9); /* statement */ \namount = (treePrice * 90) / 100;\nc_0xbcb12c3d(0xac774c4845d93f210e05652778d193a64c0c7bbbefb1b633610072c2ca1cfbff); /* line */ \n            c_0xbcb12c3d(0x2769ba206ef9517b3ab4fa8aa594c4d34b62ee634bca43e7f9c0d566c1f713f1); /* requirePre */ \nc_0xbcb12c3d(0x934fc91b0fc50cc63e93dc714b0ed7c9d24ae6968a4bd212484595cd1f975783); /* statement */ \nrequire(\n                wethToken.balanceOf(_msgSender()) >= amount,\n                \"low price paid\"\n            );c_0xbcb12c3d(0xc2e5b9b4895a8560bff0119bc0a4ce7fcd5f4af5e163f798df92265f0f281541); /* requirePost */ \n\n\nc_0xbcb12c3d(0x1dfcd080e5897336be1def0464810a3c6636cc988e0652ea1ecb7597b8d463b0); /* line */ \n            c_0xbcb12c3d(0x1926cbce494fd2769c16ec1dc05d24b7b39c09a7c55431f6830789ceb1016f0e); /* statement */ \nbool success = wethToken.transferFrom(\n                _msgSender(),\n                address(wethFunds),\n                amount\n            );\nc_0xbcb12c3d(0x55f0e015e76ace2ff95beeb07a4a6e102fc1f8d1a961cf52a192f100833a19a5); /* line */ \n            c_0xbcb12c3d(0xf011e088aebbbe65fdb01a52879178f5e3443eb57eda9e4bc47ca615c352d17f); /* requirePre */ \nc_0xbcb12c3d(0x3d90e89c96a61ac81fe9eb93fc46ed7f976e1852cce41710229320abec6945d4); /* statement */ \nrequire(success, \"unsuccessful transfer\");c_0xbcb12c3d(0xe635924601546b7c16e6ec6c86fdeb42aa5356a7a16515af23c01a16ae8fdb57); /* requirePost */ \n\n\nc_0xbcb12c3d(0x5b440eb75b851fd8c5cd25cfae2a29336349c8c0a2dee315acd722d887021d98); /* line */ \n            c_0xbcb12c3d(0x67085aada20f26dffc125ada4e674b7d12cf42d939ef474bbf3f42563048d5bb); /* statement */ \nlastBuy[_msgSender()] = 0;\n        } else {c_0xbcb12c3d(0x537261e4e331000f8b1df7bdbe68ff39f303779dedaa091952e1f793c1bdd994); /* branch */ \n\nc_0xbcb12c3d(0xabda7420f9668157eea588411111c40758df9a44fe199eeaed18e8db2f3c5f15); /* line */ \n            c_0xbcb12c3d(0x070c583713d24ef87661a044026b6262f92ffc6edabbbf8a0324985d536bbf12); /* statement */ \namount = treePrice;\n\nc_0xbcb12c3d(0xb444ade96b5f65a600fd2fdef42a65c50cf0a99a67b6b363c89c3cecb42b634d); /* line */ \n            c_0xbcb12c3d(0xb32f86fdfafde8dd0200dc33bab3d2b736598d6c635f5a42896e68de1f53b3cd); /* requirePre */ \nc_0xbcb12c3d(0x498863c0379fce6c8a7d0810020c1f933773398f0cd5582f40cf56f27d2293a9); /* statement */ \nrequire(\n                wethToken.balanceOf(_msgSender()) >= amount,\n                \"low price paid\"\n            );c_0xbcb12c3d(0xc0a8870f05efbc8f5853ed8f93104a7a37e335b470cfa6d4ff7b5092e117ace3); /* requirePost */ \n\n\nc_0xbcb12c3d(0xdec26e5667ae06f88bd1e1c4e4e600a751d05cde32305d460d3a2da0b7bd9c10); /* line */ \n            c_0xbcb12c3d(0xebae6932d8f6330f561c0288cf3e5b354f04d9725950d9b88a873fe7fc988c61); /* statement */ \nbool success = wethToken.transferFrom(\n                _msgSender(),\n                address(wethFunds),\n                amount\n            );\nc_0xbcb12c3d(0x36fe540dbd85517ca5d4872293c387ec9baa9841e0dfdc8b496ad1d308a1c542); /* line */ \n            c_0xbcb12c3d(0x9184f3f4299dfc63526a132911c3fab686981c1dc8c18409978548193d22567d); /* requirePre */ \nc_0xbcb12c3d(0xaabc91aa9472bfa2fa27beaa96ea38d22877cdbea26c97e60e2f25743e6b8daf); /* statement */ \nrequire(success, \"unsuccessful transfer\");c_0xbcb12c3d(0x0323ae09580e2874117365c3b4b6b3407234fa4cf1e0557d88d9222076a598c2); /* requirePost */ \n\n\nc_0xbcb12c3d(0xca88606d7a342d1d3280d2d9baf439a28763e003faa3d1791667de32ceaf137e); /* line */ \n            c_0xbcb12c3d(0xc4c2f02b5cfe71018bdbe86db31e286dd938988f68690531ad78bf5740c0e98b); /* statement */ \nlastBuy[_msgSender()] = block.timestamp;\n        }\n\nc_0xbcb12c3d(0xe55aaacc054346130dccb641f83d980ce682a9e6bcb2fc16585c526ce2e6d77f); /* line */ \n        c_0xbcb12c3d(0x7e1326a08c69d1b8c16fb44bb19df29c29e5457241d2c912d2ac2655ff95bce3); /* statement */ \n(\n            uint16 planterFund,\n            uint16 referralFund,\n            uint16 treeResearch,\n            uint16 localDevelop,\n            uint16 rescueFund,\n            uint16 treejerDevelop,\n            uint16 reserveFund1,\n            uint16 reserveFund2\n        ) = financialModel.findTreeDistribution(_treeId);\n\nc_0xbcb12c3d(0x7a8667275bc7cd192fdfa5bfa376d96b468b01ab0a42efa77507dd3c341d0248); /* line */ \n        c_0xbcb12c3d(0x944d157f81e011f86445757b05fefd4893a7ef4bd265d45ef7b4e9efb17ce7e0); /* statement */ \nwethFunds.fundTree(\n            _treeId,\n            amount,\n            planterFund,\n            referralFund,\n            treeResearch,\n            localDevelop,\n            rescueFund,\n            treejerDevelop,\n            reserveFund1,\n            reserveFund2\n        );\n\nc_0xbcb12c3d(0x35f3d87757a6cce85acd32dc01cb7451d02dc8e1f7d152c4f4d59267ec65731e); /* line */ \n        c_0xbcb12c3d(0xabf0ff0b7f8cc168d4894ea4b5d9edf9d9d99833b29d5250ff18af6468b5952d); /* statement */ \ntreeFactory.updateOwner(_treeId, _msgSender(), 1);\n\nc_0xbcb12c3d(0x7a76171af686bd5be2ec0f39ecd2862a7698ea23ab063fc6aeb35a11b22a0e84); /* line */ \n        c_0xbcb12c3d(0x7ee2debc343d8fda76838591d83e4f7ce3111cbe0f78041a0baf141ad8212f0e); /* statement */ \nemit IncrementalTreeSold(_treeId, _msgSender(), amount);\n    }\n\n    /** @dev admin can update incrementalPrice\n     * @param _initialPrice initialPrice of trees\n     * @param _increaseStep step to increase tree price\n     * @param _increaseRatio increment price rate\n     */\n    function updateIncrementalRates(\n        uint256 _initialPrice,\n        uint64 _increaseStep,\n        uint64 _increaseRatio\n    ) external onlyDataManager {c_0xbcb12c3d(0x7d88f209a7d6f227af6580a37ce144f323c7aad4ae44c5b7213f38f771d4324f); /* function */ \n\nc_0xbcb12c3d(0x647abc4c28dfe2144d2d8c3c22799aeae8f785e2da0fa73e4388f13fe4672346); /* line */ \n        c_0xbcb12c3d(0x17bc339145f63150138251684704f2cff11e27efccc4a1a3443f02ed4f60ffd7); /* requirePre */ \nc_0xbcb12c3d(0xd85c20ae87b882837298e140716ce61a9b15e32d6b301c6f77285b750dced1d5); /* statement */ \nrequire(_increaseStep > 0, \"incremental period should be positive\");c_0xbcb12c3d(0x1163962ab5dac80418b37210b56f35adb2297c25174e1aa33f48cd0ac7aa755c); /* requirePost */ \n\n\nc_0xbcb12c3d(0xe1b8963100d13144c3c539ac87e37c2d5c280518f37f4375630d08ede501bb9f); /* line */ \n        c_0xbcb12c3d(0x4d5a5fccda9507415e5dde6f394506c3b451bda0049bad2b37a8a258630ec533); /* statement */ \nIncrementalPrice storage incrPrice = incrementalPrice;\n\nc_0xbcb12c3d(0x19d3f49802f732b4476aaecf194e1dfe5ca5b641c61b25082c91345b579444e7); /* line */ \n        c_0xbcb12c3d(0x1a54ffabf299e6a3e92271c5bda0c87213d48162a56d2df6ea3657d2668f357e); /* statement */ \nincrPrice.initialPrice = _initialPrice;\nc_0xbcb12c3d(0x329b910480db7dc280ecce9d984ec9194f7d627b49011b6156d9dc1a6de0e9be); /* line */ \n        c_0xbcb12c3d(0x60413a09a89f8a5f00812ef3cb8754bf1992b5b2722bea574e0f940232267a24); /* statement */ \nincrPrice.increaseStep = _increaseStep;\nc_0xbcb12c3d(0x6d3bb0683a51be8a10ece93b6e45f32556fc52a8f05d491e227401c82d043623); /* line */ \n        c_0xbcb12c3d(0x2441e79576674321dd2a00c3f314612a1fa350d864838042393fb78ed8a8ba30); /* statement */ \nincrPrice.increaseRatio = _increaseRatio;\n\nc_0xbcb12c3d(0x52164299fc8e7a45eeaf1c639d2f45229c9a87e347e7bd842cf967599892531d); /* line */ \n        c_0xbcb12c3d(0x0afb3bae1293600963a22988d7a0db2dd272676f5a90a810c424633c19a641d3); /* statement */ \nemit IncrementalRatesUpdated();\n    }\n}\n",
  "sourcePath": "/home/smuggler/contract/.coverage_contracts/incrementalSell/IncrementalSell.sol",
  "compiler": {
    "name": "solc",
    "version": "0.8.6+commit.11564f7e.Emscripten.clang"
  },
  "schemaVersion": "3.4.1",
  "updatedAt": "2021-08-31T13:33:31.522Z",
  "devdoc": {
    "kind": "dev",
    "methods": {
      "addTreeSells(uint256,uint256,uint64,uint64,uint64)": {
        "details": "admin set a range from {startTree} to {startTree + treeCount} for incremental selles for tree",
        "params": {
          "_increaseRatio": "increment price rate",
          "_initialPrice": "initialPrice of trees",
          "_startTree": "starting treeId",
          "_steps": "step to increase tree price",
          "_treeCount": "number of tree in incremental sell"
        }
      },
      "buyTree(uint256)": {
        "params": {
          "_treeId": "id of tree to buy NOTE if buyer, buy another tree before 700 seconds from the previous purchase, pays 90% of tree price and gets 10% discount just for this tree. buying another tree give chance to buy the next tree with 10% discount"
        }
      },
      "initialize(address)": {
        "details": "initialize accessRestriction contract and set true for isIncrementalSell",
        "params": {
          "_accessRestrictionAddress": "set to the address of accessRestriction contract"
        }
      },
      "setFinancialModelAddress(address)": {
        "details": "admin set FinancialModelAddress",
        "params": {
          "_address": "set to the address of financialModel"
        }
      },
      "setTreeFactoryAddress(address)": {
        "details": "admin set TreeFactory contract address",
        "params": {
          "_address": "TreeFactory contract address"
        }
      },
      "setTrustedForwarder(address)": {
        "details": "admin set trusted forwarder address",
        "params": {
          "_address": "set to {trustedForwarder}"
        }
      },
      "setWethFundsAddress(address)": {
        "details": "admin set wethFunds contract address",
        "params": {
          "_address": "wethFunds contract address"
        }
      },
      "setWethTokenAddress(address)": {
        "details": "admin set wethToken contract address",
        "params": {
          "_address": "wethToken contract address"
        }
      },
      "updateIncrementalEnd(uint256)": {
        "details": "admin add {treeCount} tree at the end of incremental sell tree range",
        "params": {
          "_treeCount": "number of trees added at the end of the incremental sell tree range"
        }
      },
      "updateIncrementalRates(uint256,uint64,uint64)": {
        "details": "admin can update incrementalPrice",
        "params": {
          "_increaseRatio": "increment price rate",
          "_increaseStep": "step to increase tree price",
          "_initialPrice": "initialPrice of trees"
        }
      },
      "versionRecipient()": {
        "details": "return version recipient "
      }
    },
    "version": 1
  },
  "userdoc": {
    "kind": "user",
    "methods": {
      "buyTree(uint256)": {
        "notice": "tree price calculate based on treeId and msg.sender pay weth for it and ownership of tree transfered to msg.sender"
      },
      "incrementalPrice()": {
        "notice": "NOTE {incrementalPrice} is struct of IncrementalPrice that store startTree, endTree, initialPrice, increaseStep, increaseRatio values"
      },
      "isIncrementalSell()": {
        "notice": "NOTE {isIncrementalSell} set inside the initialize to {true} "
      },
      "isTrustedForwarder(address)": {
        "notice": "return if the forwarder is trusted to forward relayed transactions to us. the forwarder is required to verify the sender's signature, and verify the call is not a replay."
      },
      "lastBuy(address)": {
        "notice": "NOTE mapping of buyer address to lastBuy time "
      }
    },
    "version": 1
  }
}