{
  "contractName": "PlanterFund",
  "abi": [
    {
      "anonymous": false,
      "inputs": [
        {
          "indexed": false,
          "internalType": "uint256",
          "name": "amount",
          "type": "uint256"
        },
        {
          "indexed": false,
          "internalType": "address",
          "name": "account",
          "type": "address"
        }
      ],
      "name": "PlanterBalanceWithdrawn",
      "type": "event"
    },
    {
      "anonymous": false,
      "inputs": [
        {
          "indexed": false,
          "internalType": "uint256",
          "name": "treeId",
          "type": "uint256"
        },
        {
          "indexed": false,
          "internalType": "uint256",
          "name": "planterAmount",
          "type": "uint256"
        },
        {
          "indexed": false,
          "internalType": "uint256",
          "name": "referralAmount",
          "type": "uint256"
        }
      ],
      "name": "PlanterFundSet",
      "type": "event"
    },
    {
      "anonymous": false,
      "inputs": [
        {
          "indexed": false,
          "internalType": "uint256",
          "name": "treeId",
          "type": "uint256"
        },
        {
          "indexed": false,
          "internalType": "address",
          "name": "planterId",
          "type": "address"
        },
        {
          "indexed": false,
          "internalType": "uint256",
          "name": "amount",
          "type": "uint256"
        }
      ],
      "name": "PlanterFunded",
      "type": "event"
    },
    {
      "inputs": [],
      "name": "accessRestriction",
      "outputs": [
        {
          "internalType": "contract IAccessRestriction",
          "name": "",
          "type": "address"
        }
      ],
      "stateMutability": "view",
      "type": "function"
    },
    {
      "inputs": [
        {
          "internalType": "address",
          "name": "",
          "type": "address"
        }
      ],
      "name": "balances",
      "outputs": [
        {
          "internalType": "uint256",
          "name": "",
          "type": "uint256"
        }
      ],
      "stateMutability": "view",
      "type": "function"
    },
    {
      "inputs": [
        {
          "internalType": "bytes32",
          "name": "c__0x07853504",
          "type": "bytes32"
        }
      ],
      "name": "c_0x07853504",
      "outputs": [],
      "stateMutability": "pure",
      "type": "function"
    },
    {
      "inputs": [],
      "name": "daiToken",
      "outputs": [
        {
          "internalType": "contract IERC20Upgradeable",
          "name": "",
          "type": "address"
        }
      ],
      "stateMutability": "view",
      "type": "function"
    },
    {
      "inputs": [],
      "name": "isPlanterFund",
      "outputs": [
        {
          "internalType": "bool",
          "name": "",
          "type": "bool"
        }
      ],
      "stateMutability": "view",
      "type": "function"
    },
    {
      "inputs": [
        {
          "internalType": "address",
          "name": "forwarder",
          "type": "address"
        }
      ],
      "name": "isTrustedForwarder",
      "outputs": [
        {
          "internalType": "bool",
          "name": "",
          "type": "bool"
        }
      ],
      "stateMutability": "view",
      "type": "function"
    },
    {
      "inputs": [],
      "name": "planterContract",
      "outputs": [
        {
          "internalType": "contract IPlanter",
          "name": "",
          "type": "address"
        }
      ],
      "stateMutability": "view",
      "type": "function"
    },
    {
      "inputs": [
        {
          "internalType": "uint256",
          "name": "",
          "type": "uint256"
        }
      ],
      "name": "planterFunds",
      "outputs": [
        {
          "internalType": "uint256",
          "name": "",
          "type": "uint256"
        }
      ],
      "stateMutability": "view",
      "type": "function"
    },
    {
      "inputs": [
        {
          "internalType": "uint256",
          "name": "",
          "type": "uint256"
        }
      ],
      "name": "plantersPaid",
      "outputs": [
        {
          "internalType": "uint256",
          "name": "",
          "type": "uint256"
        }
      ],
      "stateMutability": "view",
      "type": "function"
    },
    {
      "inputs": [
        {
          "internalType": "uint256",
          "name": "",
          "type": "uint256"
        }
      ],
      "name": "referralFunds",
      "outputs": [
        {
          "internalType": "uint256",
          "name": "",
          "type": "uint256"
        }
      ],
      "stateMutability": "view",
      "type": "function"
    },
    {
      "inputs": [],
      "name": "totalFunds",
      "outputs": [
        {
          "internalType": "uint256",
          "name": "planterFund",
          "type": "uint256"
        },
        {
          "internalType": "uint256",
          "name": "referralFund",
          "type": "uint256"
        },
        {
          "internalType": "uint256",
          "name": "localDevelop",
          "type": "uint256"
        }
      ],
      "stateMutability": "view",
      "type": "function"
    },
    {
      "inputs": [],
      "name": "trustedForwarder",
      "outputs": [
        {
          "internalType": "address",
          "name": "",
          "type": "address"
        }
      ],
      "stateMutability": "view",
      "type": "function"
    },
    {
      "inputs": [],
      "name": "versionRecipient",
      "outputs": [
        {
          "internalType": "string",
          "name": "",
          "type": "string"
        }
      ],
      "stateMutability": "pure",
      "type": "function"
    },
    {
      "inputs": [],
      "name": "withdrawThreshold",
      "outputs": [
        {
          "internalType": "uint256",
          "name": "",
          "type": "uint256"
        }
      ],
      "stateMutability": "view",
      "type": "function"
    },
    {
      "inputs": [
        {
          "internalType": "bytes32",
          "name": "c__0x1ae945e2",
          "type": "bytes32"
        }
      ],
      "name": "c_0x1ae945e2",
      "outputs": [],
      "stateMutability": "pure",
      "type": "function"
    },
    {
      "inputs": [
        {
          "internalType": "address",
          "name": "_accessRestrictionAddress",
          "type": "address"
        }
      ],
      "name": "initialize",
      "outputs": [],
      "stateMutability": "nonpayable",
      "type": "function"
    },
    {
      "inputs": [
        {
          "internalType": "address",
          "name": "_address",
          "type": "address"
        }
      ],
      "name": "setTrustedForwarder",
      "outputs": [],
      "stateMutability": "nonpayable",
      "type": "function"
    },
    {
      "inputs": [
        {
          "internalType": "address",
          "name": "_address",
          "type": "address"
        }
      ],
      "name": "setPlanterContractAddress",
      "outputs": [],
      "stateMutability": "nonpayable",
      "type": "function"
    },
    {
      "inputs": [
        {
          "internalType": "address",
          "name": "_address",
          "type": "address"
        }
      ],
      "name": "setDaiTokenAddress",
      "outputs": [],
      "stateMutability": "nonpayable",
      "type": "function"
    },
    {
      "inputs": [
        {
          "internalType": "uint256",
          "name": "_amount",
          "type": "uint256"
        }
      ],
      "name": "setWithdrawThreshold",
      "outputs": [],
      "stateMutability": "nonpayable",
      "type": "function"
    },
    {
      "inputs": [
        {
          "internalType": "uint256",
          "name": "_treeId",
          "type": "uint256"
        },
        {
          "internalType": "uint256",
          "name": "_planterFund",
          "type": "uint256"
        },
        {
          "internalType": "uint256",
          "name": "_referralFund",
          "type": "uint256"
        }
      ],
      "name": "setPlanterFunds",
      "outputs": [],
      "stateMutability": "nonpayable",
      "type": "function"
    },
    {
      "inputs": [
        {
          "internalType": "uint256",
          "name": "_treeId",
          "type": "uint256"
        },
        {
          "internalType": "address",
          "name": "_planterId",
          "type": "address"
        },
        {
          "internalType": "uint64",
          "name": "_treeStatus",
          "type": "uint64"
        }
      ],
      "name": "fundPlanter",
      "outputs": [],
      "stateMutability": "nonpayable",
      "type": "function"
    },
    {
      "inputs": [
        {
          "internalType": "uint256",
          "name": "_amount",
          "type": "uint256"
        }
      ],
      "name": "withdrawPlanterBalance",
      "outputs": [],
      "stateMutability": "nonpayable",
      "type": "function"
    }
  ],
  "bytecode": "0x608060405234801561001057600080fd5b506139d0806100206000396000f3fe608060405234801561001057600080fd5b506004361061014d5760003560e01c8063968ed600116100c3578063da7422281161007c578063da74222814610390578063eec2a203146103ac578063f1326b15146103c8578063f4ee266c146103e4578063fa9ee50314610414578063feefd7dd146104305761014d565b8063968ed600146102cc578063a305cdee146102ec578063be22f54614610308578063c4d66de814610326578063d49fa06b14610342578063d6762c4a146103725761014d565b8063486ff0cd11610115578063486ff0cd1461020a578063572b6c05146102285780635e75f9b714610258578063760ee4c6146102745780637da0a877146102925780638576e4be146102b05761014d565b806327e235e314610152578063349904da14610182578063375b4270146101a05780633ad7c33b146101be57806341ceea17146101da575b600080fd5b61016c60048036038101906101679190613003565b61044c565b60405161017991906134a2565b60405180910390f35b61018a610464565b6040516101979190613374565b60405180910390f35b6101a8610477565b6040516101b591906133c5565b60405180910390f35b6101d860048036038101906101d39190613171565b61049d565b005b6101f460048036038101906101ef91906130f1565b61086b565b60405161020191906134a2565b60405180910390f35b610212610883565b60405161021f91906133e0565b60405180910390f35b610242600480360381019061023d9190613003565b610944565b60405161024f9190613374565b60405180910390f35b610272600480360381019061026d91906130c4565b61099d565b005b61027c6109a0565b60405161028991906134a2565b60405180910390f35b61029a6109a6565b6040516102a79190613315565b60405180910390f35b6102ca60048036038101906102c591906130c4565b6109cc565b005b6102d46109cf565b6040516102e39392919061351d565b60405180910390f35b6103066004803603810190610301919061311e565b6109e7565b005b6103106117e6565b60405161031d91906133aa565b60405180910390f35b610340600480360381019061033b9190613003565b61180c565b005b61035c600480360381019061035791906130f1565b611c1a565b60405161036991906134a2565b60405180910390f35b61037a611c32565b604051610387919061338f565b60405180910390f35b6103aa60048036038101906103a59190613003565b611c58565b005b6103c660048036038101906103c191906130f1565b611fdc565b005b6103e260048036038101906103dd9190613003565b6125d2565b005b6103fe60048036038101906103f991906130f1565b6129b4565b60405161040b91906134a2565b60405180910390f35b61042e60048036038101906104299190613003565b6129cc565b005b61044a600480360381019061044591906130f1565b612d6b565b005b600b6020528060005260406000206000915090505481565b600060169054906101000a900460ff1681565b600360009054906101000a900473ffffffffffffffffffffffffffffffffffffffff1681565b6104c97f2e216b73388894512a3376641bb0eb568827f57973d2c88fd33b9557b945769a60001b61099d565b6104f57f8c2c26a684305bca63219d1a4531ee4b93684a53d54927f0e0e9c79629e0618a60001b61099d565b6105217fca7760aac29b19a6e18af7f9bdebafe899a92efd1af97de3832a19b47295d0f660001b61099d565b600260009054906101000a900473ffffffffffffffffffffffffffffffffffffffff1673ffffffffffffffffffffffffffffffffffffffff1663ebe6a6f3610567612f34565b6040518263ffffffff1660e01b81526004016105839190613330565b60006040518083038186803b15801561059b57600080fd5b505afa1580156105af573d6000803e3d6000fd5b505050506105df7f197b3b2bb3c742656342bd9698497afaa704580e1605a85aa3f5329e1186193160001b61099d565b61060b7fb1a847d13de400b4369a6aadf439fdc7f69de3c5436f0028c234c66eecee393a60001b61099d565b6106377fc70cede9967c053737f48d8f4ffc96fb72b95b44a8194c6247f59fade4d8126060001b61099d565b6106637fc46a37ec2fb05df7e0b666efc484c45d91c6cb797fccbc2c7476e8feeaf78a9860001b61099d565b8160086000858152602001908152602001600020819055506106a77fdcc58af917cc0d7d57de924b490bee74d8076585d916e86330ec86286613374960001b61099d565b6106d37f670ab0c084021d768547e6a7fffe42717fe3f40cedf3379d7e4bd9b65ff3a81b60001b61099d565b8060096000858152602001908152602001600020819055506107177f29ec3dad8cf1e45cd4f19791baba0f58875815257208a5a461e1819229502e4860001b61099d565b6107437f5beb338bd2a4e828a7feee6ab1cd2aa25bfbb2e6a7b67b73643176fb98d475eb60001b61099d565b81600560000160008282546107589190613570565b9250508190555061078b7fd9bf74064f1615dfac155df03ab3b945f4340d0da0f8ee42df917bf27a23888560001b61099d565b6107b77fe0ba50dd070a715a7a111833ce99931e230fbee745eaa6c6821237007834ea5a60001b61099d565b80600560010160008282546107cc9190613570565b925050819055506107ff7f8e88dba6f056010a4d31f3f7ea6e0650beb5994c2ad9e42c68b670fc7be08b2160001b61099d565b61082b7f0ff34876feb3336ec5b6d962584b4866cf840da1059e713de9c15745cbc592cf60001b61099d565b7f91cb2b90dd382c925b55f1de5ee5e1a6857556cea6fc7259a161bb7e68a865de83838360405161085e9392919061351d565b60405180910390a1505050565b60086020528060005260406000206000915090505481565b60606108b17f11dd98d6809ebd8463693ae2b3f048590b2cbe0b5871346e00a0b4c3c541174a60001b6109cc565b6108dd7f8ba796393678d90e1644972b2432ed6c109dbd204df8ff14546d9632bbedffc560001b6109cc565b6109097f5759cbc9a7bcad7b45c102beff6e42b49f3a61f90ec5bc06dbe3a1747ad6d10d60001b6109cc565b6040518060400160405280601d81526020017f322e322e302b747265656a65722e6972656c6179726563697069656e74000000815250905090565b60008060029054906101000a900473ffffffffffffffffffffffffffffffffffffffff1673ffffffffffffffffffffffffffffffffffffffff168273ffffffffffffffffffffffffffffffffffffffff16149050919050565b50565b60015481565b600060029054906101000a900473ffffffffffffffffffffffffffffffffffffffff1681565b50565b60058060000154908060010154908060020154905083565b610a137f2e216b73388894512a3376641bb0eb568827f57973d2c88fd33b9557b945769a60001b61099d565b610a3f7f8c2c26a684305bca63219d1a4531ee4b93684a53d54927f0e0e9c79629e0618a60001b61099d565b610a6b7fca7760aac29b19a6e18af7f9bdebafe899a92efd1af97de3832a19b47295d0f660001b61099d565b600260009054906101000a900473ffffffffffffffffffffffffffffffffffffffff1673ffffffffffffffffffffffffffffffffffffffff1663ebe6a6f3610ab1612f34565b6040518263ffffffff1660e01b8152600401610acd9190613330565b60006040518083038186803b158015610ae557600080fd5b505afa158015610af9573d6000803e3d6000fd5b50505050610b297f197b3b2bb3c742656342bd9698497afaa704580e1605a85aa3f5329e1186193160001b61099d565b610b557f3e20242fdd29383ae317905cac1900f7b466128c6ffb54dfd744a3fd6fca1c2b60001b61099d565b610b817f50e83a7ab10cd7704a8f740717897786e06bb6efeccb41e3f05978141a540d2c60001b61099d565b610bad7fba50c49852ff7adc630fa8aa3fdceabd7a3299e0146ba8c9a2bd994e0f6a1c7e60001b61099d565b610bd97f57680fe16035e93dddb18ef614ccb92927508d5739465280fa06831db62a46ee60001b61099d565b6000600860008581526020019081526020016000205411610c2f576040517f08c379a0000000000000000000000000000000000000000000000000000000008152600401610c2690613442565b60405180910390fd5b610c5b7f17eb38abb8f4d596b3bd539e0844eebc6d75691c67cde8e599b58cdf255759b860001b61099d565b610c877fe5cbe3aa26cb655e82f5b5b29d3dd5ea89b9d34f47946e4789eee33025e4d98760001b61099d565b610cb37f973964947d83bc9751afd80f0f2ac4988a1502da4f717f1847173886b42b5a4660001b61099d565b600080600080600360009054906101000a900473ffffffffffffffffffffffffffffffffffffffff1673ffffffffffffffffffffffffffffffffffffffff16638a4e1a64876040518263ffffffff1660e01b8152600401610d149190613315565b60806040518083038186803b158015610d2c57600080fd5b505afa158015610d40573d6000803e3d6000fd5b505050506040513d601f19601f82011682018060405250810190610d64919061305d565b9350935093509350610d987f5029d0e1426ef87220f7386918c73249bd5b12f72c4841248cb6c041c4e4f4f560001b61099d565b610dc47fc1d43fb0a355e3948a277295b1b0fd91f03c3180fac233b644882deb3b29740b60001b61099d565b83156117b057610df67f2868930fe28148d116e12373e60b6423f02149ac08a0d629819f3cdc8e9fc1c160001b61099d565b610e227f42c1eb5da52ea05afe059101ca208532992923623ca2c0a34292e1f32604032860001b61099d565b610e4e7f35ac4937b76fba3a62da12956197da7e94cc2fde70b4a451c05003d8efa65d7860001b61099d565b6000610e7c7f4de639b4d9c2c3500b3c9e028625e7714f4869a4e8ab2814ebb586c639a6619360001b61099d565b610ea87fc31b7b92562521b9756c6a49d88261fec2bd46db1c6aa5e92b228465159cc5d960001b61099d565b6165408667ffffffffffffffff161115610f7957610ee87f5b05d1282d86ac7bc88e55933a948404405fa5c464aedea627b418afd924663d60001b61099d565b610f147f10400dade04e2d330cbf472367625379b4f891d7b4bc2c2e6fd0e2586396230d60001b61099d565b610f407f0d6543a32ee15ec9215c447c6af010bc320d0bd4332558918f487dec7e34097a60001b61099d565b600a600089815260200190815260200160002054600860008a815260200190815260200160002054610f729190613651565b9050611054565b610fa57f91f1052b4ec6e5c6bc4eba0b67918766b558c9132e67e409d7fb6ace4c083e6860001b61099d565b610fd17ffd66b8412aaf1e95332c97f9bd96212d0b3cf88c1776471fb59bebd0468de07e60001b61099d565b610ffd7fb94f80d6672dc5b83eb1dd8fcce385951025bf05118056a1b287ca7341fe8bd360001b61099d565b600a6000898152602001908152602001600020546165408767ffffffffffffffff16600860008c81526020019081526020016000205461103d91906135f7565b61104791906135c6565b6110519190613651565b90505b6110807f93c148224ee2d1f5eddf1878949694ecf7e02d1a02a9f89322a7222c52d92b8f60001b61099d565b6110ac7f62aec339f3fcc076c941b6c0477a943b9ca17c31307738d2bda57b4c3be6ee9860001b61099d565b600081111561177d576110e17f3a90d1fb7fdb233c750aba9d9f1cdd1ae8f28e36a7bc431bae3a934dab8ac9d060001b61099d565b61110d7f507a9728c9b5cd2897f69a525a45106c162a2c1ba12182fcdf179cfbb61700a060001b61099d565b6111397f0a1856f7d02da8ca0438bb4d0180bd978f683d2cb6997a1c6c5075ac70a9a23760001b61099d565b6000600860008a81526020019081526020016000205482600960008c81526020019081526020016000205461116e91906135f7565b61117891906135c6565b90506111a67fe50504ae68ccbc4d5704ee9d8733e45945b5e769dad741e852ecc1b345589fad60001b61099d565b6111d27f24756daefe4d3fc2bceb0b9d3cec3535b35c92e5a58b3e96cb7b8ee4e59f81c360001b61099d565b80600560010160008282546111e79190613651565b9250508190555061121a7fa4ba9e03dcd932a5786e09af5c770f3836fa28af412c9cbe8bc8aa65360129b260001b61099d565b6112467f7ec8ac6545d0888b5887519e279703bf4a6bc12ff60efc4ec1f31e0037c4b7df60001b61099d565b600073ffffffffffffffffffffffffffffffffffffffff168473ffffffffffffffffffffffffffffffffffffffff161415611320576112a77f7f2b51ba6025f78ad53ec99b687b072d08e46d5c85684bcc2fe847f7bc97986260001b61099d565b6112d37fd1039a0eac18b24fa184be1308b1a21c3c65fc7fc66dc7ea97216a497c21ed1e60001b61099d565b6112ff7ff06d30266db5f8c55f463ec6de837ead393071a9168a383c5ee12b53c9167a9560001b61099d565b80600560020160008282546113149190613570565b925050819055506113fb565b61134c7f8e3f18021f8d30c76cc6313a683eee7b9e5da98823d79f3a273980b74013191760001b61099d565b6113787f4009033d6b4f0ded8df6ffec843b12142f9d19741c6999770f9724972ec3997760001b61099d565b6113a47fb0d090a043537455e84fd73064fef33cfcb26069784ca3dff9717d8643fbac5a60001b61099d565b80600b60008673ffffffffffffffffffffffffffffffffffffffff1673ffffffffffffffffffffffffffffffffffffffff16815260200190815260200160002060008282546113f39190613570565b925050819055505b6114277fe76bd2808c1de8c356994bba877bb2d629d9c6fd59323a6b6198d35fcc393bb760001b61099d565b6114537f691504507091f1952d604b8799554e0d5c199f938e5fee6cf0f1fda048c58ea160001b61099d565b81600560000160008282546114689190613651565b9250508190555061149b7fdd92d12b0936f4159dc66fc501e8cdefc9ec198a0c19a6fb2b54314cd9d8834460001b61099d565b6114c77facbf47e06f2e15cd04c924cad0ac35c3b9d254250eb23f48c7ef878f1a7b0ee360001b61099d565b600061271090506114fa7f381205b467b0401587bb98b56ed8e6c9f9135232f358765789d8795fb0e48fed60001b61099d565b6115267f85154fe7c8102f621adebec0584e7a9c617fc069006662407313f705a6ce6afc60001b61099d565b8084826115339190613651565b8461153e91906135f7565b61154891906135c6565b600b60008873ffffffffffffffffffffffffffffffffffffffff1673ffffffffffffffffffffffffffffffffffffffff16815260200190815260200160002060008282546115969190613570565b925050819055506115c97ff2a7cdb880012292a1f5a316b2fef7fd1e943e6e05d9fcc770d2a36be5459fec60001b61099d565b6115f57f145b150a3418fb2cabd657be3bbe5f427a9e725a5f8045a2f3fc7cbaa888948f60001b61099d565b82600a60008c815260200190815260200160002060008282546116189190613570565b9250508190555061164b7f4b79ff475f9b2c94bd8f4b17f006a9f8f1e376ae66af31d26340577b2e4e2e2460001b61099d565b6116777f38bef277e1845cbb35c4d198ad25f26cbe36f462b768c574841b1c99f65ef2d860001b61099d565b80848461168491906135f7565b61168e91906135c6565b600b60008b73ffffffffffffffffffffffffffffffffffffffff1673ffffffffffffffffffffffffffffffffffffffff16815260200190815260200160002060008282546116dc9190613570565b9250508190555061170f7f01d7b868f0ccdac1422e5a9a4a7af8c6f09a166b71316f6f38fb22615832a4b860001b61099d565b61173b7f79f09dfe4d99e91b9355e5c42c2cea1dd4caa982d850d780c6b7b5a5d67e419e60001b61099d565b7f3f6d99598b083c21a3be6109f92576af05ed04b2f6adb69e7fdba837587d0a248a8a8560405161176e939291906134e6565b60405180910390a150506117aa565b6117a97fc3854da039c9aebfccc546fa8355fa0af16e8ad4bde0752e5c9cdb1af8f540df60001b61099d565b5b506117dd565b6117dc7f0fbb4161819f38a95e8a94801f4aea293127207abedb75b0b46aea505430b79460001b61099d565b5b50505050505050565b600460009054906101000a900473ffffffffffffffffffffffffffffffffffffffff1681565b600060019054906101000a900460ff1680611832575060008054906101000a900460ff16155b611871576040517f08c379a000000000000000000000000000000000000000000000000000000000815260040161186890613482565b60405180910390fd5b60008060019054906101000a900460ff1615905080156118c1576001600060016101000a81548160ff02191690831515021790555060016000806101000a81548160ff0219169083151502179055505b6118ed7fd7c6c6f2ec9a6826d24e827c384c8e6adf97d0bc335e0169f1b0fedd8b112e4060001b61099d565b6119197fa716ece0d7f7af09ad930775046373ec097f20c19822f670c30b0609a31f15f260001b61099d565b6119457fa97ddd8e4af6278c36f56bc0370ddc9e8a80bd6b8a8e21f57693257d540eff1260001b61099d565b60008290506119767ff389978df62d7c9f3fb4b4c5b59ec087fcfb20e10a32958e84ffa028091d499f60001b61099d565b6119a27f30d5055243a63773b3b9decb13be0d42d1588fd9f4c3ed810b4ed98d04e340f160001b61099d565b6119ce7fd62fefe3ef104443be41ce6f31cbb745eba3a30eb0f6e0d09064fee2005f2e5f60001b61099d565b8073ffffffffffffffffffffffffffffffffffffffff1663ba84fd696040518163ffffffff1660e01b815260040160206040518083038186803b158015611a1457600080fd5b505afa158015611a28573d6000803e3d6000fd5b505050506040513d601f19601f82011682018060405250810190611a4c9190613030565b611a5557600080fd5b611a817fefa6b2d51b11134ca10c97c495156fe0ccf172a2fe5efe8ddcf780fc97ef8f5260001b61099d565b611aad7fedf648c990c530de03d5fbf3bc541b585bf6b6fa12176a5ebaea78a9c12bad8b60001b61099d565b611ad97fd39147ac4396f9d0f6310653dbdf86de982acb6a9d386fafd90fa367ef3935c860001b61099d565b6001600060166101000a81548160ff021916908315150217905550611b207fb777d86ae8804b9e113cfbc76134b882a812d90f2bb0a05a4659c08561129de660001b61099d565b611b4c7fb67433819c6bfb90dc642141c3a9cb101e60d649d378a38dcab0aa527b0993d360001b61099d565b6706f05b59d3b20000600181905550611b877f5862a9d085cc87181b8df060277733c6be274ff303a2ad7a51f50cc7f5ff10d660001b61099d565b611bb37f5653ee5ab462d368c0668ac3825284d30d514ddea33386626214be42287b534160001b61099d565b80600260006101000a81548173ffffffffffffffffffffffffffffffffffffffff021916908373ffffffffffffffffffffffffffffffffffffffff160217905550508015611c165760008060016101000a81548160ff0219169083151502179055505b5050565b60096020528060005260406000206000915090505481565b600260009054906101000a900473ffffffffffffffffffffffffffffffffffffffff1681565b611c847f615dfa7be0772e11b54924bfab183c5a4a9ab84df3a7b13db27d847d6ed837ba60001b61099d565b611cb07f7e06715f73be824c97883111f24350039853b669a31de0a2e4522f0fd4d939a560001b61099d565b611cdc7f2711a26748495d2e4f1884fb54f875e85911372ea2ec5f6da7f881e16c212a2c60001b61099d565b600260009054906101000a900473ffffffffffffffffffffffffffffffffffffffff1673ffffffffffffffffffffffffffffffffffffffff16638413ec14611d22612f34565b6040518263ffffffff1660e01b8152600401611d3e9190613330565b60006040518083038186803b158015611d5657600080fd5b505afa158015611d6a573d6000803e3d6000fd5b50505050611d9a7feefa5209ef6f0763d12b68adea2e6c8c04d32cd47f37f02cc5f60cf5b07bacdf60001b61099d565b80611dc77f5a05e2d8cd6ae3fff21fbb67ee30b72b5cc5849e5a846f442ca6330520f5833560001b61099d565b611df37f39f4b72225feee6a58b07d3f894f5278ced4621ce015f5401d66a1070ce3c0d060001b61099d565b611e1f7fc83fb52dd045f99aceb58e1bf95b8a6f14d9533fc4588b8c7dc01d8d9d63abb260001b61099d565b611e4b7fa492cc44dd486c3ca22bedd9aa2da3cfe5f475170e3c3a8c90d27985cfb5fed560001b61099d565b600073ffffffffffffffffffffffffffffffffffffffff168173ffffffffffffffffffffffffffffffffffffffff161415611ebb576040517f08c379a0000000000000000000000000000000000000000000000000000000008152600401611eb290613462565b60405180910390fd5b611ee77fa57fc9a5b57e11f275e6ac9e96ede91755e5f22589b23e93a21656f9bc14e8b060001b61099d565b611f137f0180b42fed7f1ecc7cd2a22dea8bde3810179bcf586f54753cea7e131c27669e60001b61099d565b611f3f7f05afaa43040872c7b0652cc4c3269ee98bd6aca10352f93b9e96a610a7a93ad560001b61099d565b611f6b7f1d95bf8bca8b075e63f211ddd03c47ac0a7bb5c81d40ff1211409ff6daac9e7660001b61099d565b611f977f86d880a15e5e697b47704d3a0a74e78d2e98b0aaf949e29f94abbeacdefbea0960001b61099d565b81600060026101000a81548173ffffffffffffffffffffffffffffffffffffffff021916908373ffffffffffffffffffffffffffffffffffffffff1602179055505050565b6120087faf7c1c73be3d605c542a044fd1b4c4d6c62b44d8ce1ae3972899d3e47ddd6bb360001b61099d565b6120347f1ab2bf24036a3c9388e01e97aa62e8b56f5a0583389605cba64a2fb470bb09bf60001b61099d565b6120607fae0e1afd5f28426d73c1b64f61659016a3b7e6701102830dd19588f646f33b6460001b61099d565b600260009054906101000a900473ffffffffffffffffffffffffffffffffffffffff1673ffffffffffffffffffffffffffffffffffffffff16634d868f986040518163ffffffff1660e01b815260040160006040518083038186803b1580156120c857600080fd5b505afa1580156120dc573d6000803e3d6000fd5b5050505061210c7f43a8cc315a97c1d85ba904003e273c57ed68faad9540a807613dadb55d412a0760001b61099d565b6121387f348d38bf4d38a5f1eba76e9cd6bbf14bb81e0e55f9993b3cb7b71e1f8356cf2e60001b61099d565b6121647f8cd1b40e57f3dd33800db56a82d3f3f43cedadd2c3fa88556209fdf0b93cdcdd60001b61099d565b6121907fd66730476bb064550395b12cab93ee0e5420d4049fc67fd20862859e2cb7ce9d60001b61099d565b6121bc7f38dc9af8b99e49dc3fb7e52adebae3a7b667daae849945d008065970d84a86a160001b61099d565b600b60006121c8612f34565b73ffffffffffffffffffffffffffffffffffffffff1673ffffffffffffffffffffffffffffffffffffffff16815260200190815260200160002054811115801561221457506001548110155b612253576040517f08c379a000000000000000000000000000000000000000000000000000000000815260040161224a90613402565b60405180910390fd5b61227f7f7e0229db769e92d12f659d61639066664c541d5f39af18a030075e3810d251c760001b61099d565b6122ab7fd4fbf6038e49a66dd3a8f5a8920f1940965b7114dc6dce90f54619c2313add6260001b61099d565b6122d77ff71815db98782a98ee5133c58f2ddd1e39c0e5704e9f38e332634a093e1b7eb560001b61099d565b80600b60006122e4612f34565b73ffffffffffffffffffffffffffffffffffffffff1673ffffffffffffffffffffffffffffffffffffffff168152602001908152602001600020600082825461232d9190613651565b925050819055506123607f6b699923eaca13b9f7dcc54f695b541226c44722012bd686240435c34439946e60001b61099d565b61238c7fc433d1122e023a66f3cd686b4d2f4e7dbb7e9bf6831384ce1e55e0aeeec9130360001b61099d565b6000600460009054906101000a900473ffffffffffffffffffffffffffffffffffffffff1673ffffffffffffffffffffffffffffffffffffffff1663a9059cbb6123d4612f34565b846040518363ffffffff1660e01b81526004016123f292919061334b565b602060405180830381600087803b15801561240c57600080fd5b505af1158015612420573d6000803e3d6000fd5b505050506040513d601f19601f820116820180604052508101906124449190613030565b90506124727f6d526fe1af737b1ca9cc7b06021ee63d7bc3eb8e289e13f01123fc3d7a5aaaf760001b61099d565b61249e7f4de9bef0fb5887d83ba243d3b1957c15aa2daf3782cdc33d21d4e994c408775b60001b61099d565b6124ca7fa12e7577608ec1458a01173f3a99db8d530a020fa79bd6872654dd766d145b1060001b61099d565b8061250a576040517f08c379a000000000000000000000000000000000000000000000000000000000815260040161250190613422565b60405180910390fd5b6125367f10443cf90e416fa726dc032626cd63fe98cef54aa8e80bd8674d371d559f06f060001b61099d565b6125627fe02ec8385f990f9664142ca4dccd0f8e42fdaf94dfdacef2d5b3aa908754779360001b61099d565b61258e7f8c9621cedfb7568381b232717f51bc6849a26adfac2fbbe82010db93cf1fe0e060001b61099d565b7fb5548ad4dc15f51b16bc62fa1801c6ddb9ab76c808358661dcb78ae1ac377456826125b8612f34565b6040516125c69291906134bd565b60405180910390a15050565b6125fe7f615dfa7be0772e11b54924bfab183c5a4a9ab84df3a7b13db27d847d6ed837ba60001b61099d565b61262a7f7e06715f73be824c97883111f24350039853b669a31de0a2e4522f0fd4d939a560001b61099d565b6126567f2711a26748495d2e4f1884fb54f875e85911372ea2ec5f6da7f881e16c212a2c60001b61099d565b600260009054906101000a900473ffffffffffffffffffffffffffffffffffffffff1673ffffffffffffffffffffffffffffffffffffffff16638413ec1461269c612f34565b6040518263ffffffff1660e01b81526004016126b89190613330565b60006040518083038186803b1580156126d057600080fd5b505afa1580156126e4573d6000803e3d6000fd5b505050506127147feefa5209ef6f0763d12b68adea2e6c8c04d32cd47f37f02cc5f60cf5b07bacdf60001b61099d565b806127417f5a05e2d8cd6ae3fff21fbb67ee30b72b5cc5849e5a846f442ca6330520f5833560001b61099d565b61276d7f39f4b72225feee6a58b07d3f894f5278ced4621ce015f5401d66a1070ce3c0d060001b61099d565b6127997fc83fb52dd045f99aceb58e1bf95b8a6f14d9533fc4588b8c7dc01d8d9d63abb260001b61099d565b6127c57fa492cc44dd486c3ca22bedd9aa2da3cfe5f475170e3c3a8c90d27985cfb5fed560001b61099d565b600073ffffffffffffffffffffffffffffffffffffffff168173ffffffffffffffffffffffffffffffffffffffff161415612835576040517f08c379a000000000000000000000000000000000000000000000000000000000815260040161282c90613462565b60405180910390fd5b6128617fa57fc9a5b57e11f275e6ac9e96ede91755e5f22589b23e93a21656f9bc14e8b060001b61099d565b61288d7f0180b42fed7f1ecc7cd2a22dea8bde3810179bcf586f54753cea7e131c27669e60001b61099d565b6128b97fa017634711dd128d073d3b22445c53aa64f2551d987f70103956d72edff68dac60001b61099d565b6128e57f434caf4933d1da7c8918ab13508292e410ab525deda73dee3b90b20416386ac560001b61099d565b6129117fb19a3ae56633403e6a098f7869360a3ad261665e9d74b12a31c5285fcda0b7d460001b61099d565b60008290506129427f0e1a56c7c2d43fedd8c68c29bd6f95d2e5ccc2b405f5c79b0a29f52effbb6d2460001b61099d565b61296e7f40a68b032ca371f8dc74642e7dd69997821b8ce6e8108ce1dd72e2b09944698960001b61099d565b80600460006101000a81548173ffffffffffffffffffffffffffffffffffffffff021916908373ffffffffffffffffffffffffffffffffffffffff160217905550505050565b600a6020528060005260406000206000915090505481565b6129f87f615dfa7be0772e11b54924bfab183c5a4a9ab84df3a7b13db27d847d6ed837ba60001b61099d565b612a247f7e06715f73be824c97883111f24350039853b669a31de0a2e4522f0fd4d939a560001b61099d565b612a507f2711a26748495d2e4f1884fb54f875e85911372ea2ec5f6da7f881e16c212a2c60001b61099d565b600260009054906101000a900473ffffffffffffffffffffffffffffffffffffffff1673ffffffffffffffffffffffffffffffffffffffff16638413ec14612a96612f34565b6040518263ffffffff1660e01b8152600401612ab29190613330565b60006040518083038186803b158015612aca57600080fd5b505afa158015612ade573d6000803e3d6000fd5b50505050612b0e7feefa5209ef6f0763d12b68adea2e6c8c04d32cd47f37f02cc5f60cf5b07bacdf60001b61099d565b612b3a7f9345ced307c63aedf3546ddf9e4838cf971834ddaf55e9cc640278aac0f693eb60001b61099d565b612b667f3d439fc980f8caea13b4d6177d256e631834c5503cdb4eb5c78542cef6e0f49660001b61099d565b612b927f1ec4f509c9c415042f3aff40c4c06fa5b103aa126d837ecfa009eadbfa5033f160001b61099d565b6000819050612bc37f61c74d2dde7a0a88cb3601477b4db595947ffa43dc97a928b53eda93d51f7d2a60001b61099d565b612bef7f83c72b94d29ef1c27b26316899733ddb8742e45a07cdb391191c6d8a96b0584460001b61099d565b612c1b7ff4ae2be19905b43f5a34aa7b91a8f33f6875035b895c4a5ca37765146c6f29df60001b61099d565b8073ffffffffffffffffffffffffffffffffffffffff166303dc8deb6040518163ffffffff1660e01b815260040160206040518083038186803b158015612c6157600080fd5b505afa158015612c75573d6000803e3d6000fd5b505050506040513d601f19601f82011682018060405250810190612c999190613030565b612ca257600080fd5b612cce7f6a3e62e20f8c164ab72630d173bdd0990c61b84eb3060b3ae86fb72687efff2060001b61099d565b612cfa7fc455c5f8dee396ec6baecc8e1d05e44d35c39ce55da72bc3e522c0e4c5733b3e60001b61099d565b612d267fb7559ef31e104e17c0b42c46974137d1606bac58ed147609b03a2fa166cce90660001b61099d565b80600360006101000a81548173ffffffffffffffffffffffffffffffffffffffff021916908373ffffffffffffffffffffffffffffffffffffffff1602179055505050565b612d977fd92868d6512b7604aaaae0d7c23de34b2224d2180509f1261c2dff187fb82c4a60001b61099d565b612dc37ffac9aacd78a63f69e5d9a7b1590397c598a309f0b02e68e7e6e8b95fe8a1390a60001b61099d565b612def7f66117354f000c78648e4e35c632decfcc53ff6682ae71dd1f2df7b60a6af837e60001b61099d565b600260009054906101000a900473ffffffffffffffffffffffffffffffffffffffff1673ffffffffffffffffffffffffffffffffffffffff1663c4d2a31b336040518263ffffffff1660e01b8152600401612e4a9190613315565b60006040518083038186803b158015612e6257600080fd5b505afa158015612e76573d6000803e3d6000fd5b50505050612ea67fc5441c07265610aa591c43729cffd1609ad07d74d283f1918e8e4bad81abe09560001b61099d565b612ed27f4cb0ad955394d596862f80f5eb5e3e10b02ae775578bc7caca4991f6492501fc60001b61099d565b612efe7f560a94987bb54533517206f8c6e1a61f13bfe29140320ecc6ca36caca6aa6f5460001b61099d565b612f2a7f3456a09758adcce1d99e112b2c90dec2a49ad3285af645124a33206d47ec011660001b61099d565b8060018190555050565b60006014600036905010158015612f505750612f4f33610944565b5b15612f6457601436033560601c9050612f6c565b339050612f6d565b5b90565b600081359050612f7f81613927565b92915050565b600081519050612f9481613927565b92915050565b600081519050612fa98161393e565b92915050565b600081359050612fbe81613955565b92915050565b600081359050612fd38161396c565b92915050565b600081519050612fe88161396c565b92915050565b600081359050612ffd81613983565b92915050565b6000602082840312156130195761301861381e565b5b600061302784828501612f70565b91505092915050565b6000602082840312156130465761304561381e565b5b600061305484828501612f9a565b91505092915050565b600080600080608085870312156130775761307661381e565b5b600061308587828801612f9a565b945050602061309687828801612f85565b93505060406130a787828801612f85565b92505060606130b887828801612fd9565b91505092959194509250565b6000602082840312156130da576130d961381e565b5b60006130e884828501612faf565b91505092915050565b6000602082840312156131075761310661381e565b5b600061311584828501612fc4565b91505092915050565b6000806000606084860312156131375761313661381e565b5b600061314586828701612fc4565b935050602061315686828701612f70565b925050604061316786828701612fee565b9150509250925092565b60008060006060848603121561318a5761318961381e565b5b600061319886828701612fc4565b93505060206131a986828701612fc4565b92505060406131ba86828701612fc4565b9150509250925092565b6131cd816136eb565b82525050565b6131dc81613685565b82525050565b6131eb81613697565b82525050565b6131fa816136fd565b82525050565b61320981613721565b82525050565b61321881613745565b82525050565b600061322982613554565b613233818561355f565b935061324381856020860161378d565b61324c81613823565b840191505092915050565b600061326460138361355f565b915061326f82613834565b602082019050919050565b600061328760158361355f565b91506132928261385d565b602082019050919050565b60006132aa60168361355f565b91506132b582613886565b602082019050919050565b60006132cd600f8361355f565b91506132d8826138af565b602082019050919050565b60006132f0602e8361355f565b91506132fb826138d8565b604082019050919050565b61330f816136cd565b82525050565b600060208201905061332a60008301846131d3565b92915050565b600060208201905061334560008301846131c4565b92915050565b600060408201905061336060008301856131c4565b61336d6020830184613306565b9392505050565b600060208201905061338960008301846131e2565b92915050565b60006020820190506133a460008301846131f1565b92915050565b60006020820190506133bf6000830184613200565b92915050565b60006020820190506133da600083018461320f565b92915050565b600060208201905081810360008301526133fa818461321e565b905092915050565b6000602082019050818103600083015261341b81613257565b9050919050565b6000602082019050818103600083015261343b8161327a565b9050919050565b6000602082019050818103600083015261345b8161329d565b9050919050565b6000602082019050818103600083015261347b816132c0565b9050919050565b6000602082019050818103600083015261349b816132e3565b9050919050565b60006020820190506134b76000830184613306565b92915050565b60006040820190506134d26000830185613306565b6134df60208301846131c4565b9392505050565b60006060820190506134fb6000830186613306565b61350860208301856131d3565b6135156040830184613306565b949350505050565b60006060820190506135326000830186613306565b61353f6020830185613306565b61354c6040830184613306565b949350505050565b600081519050919050565b600082825260208201905092915050565b600061357b826136cd565b9150613586836136cd565b9250827fffffffffffffffffffffffffffffffffffffffffffffffffffffffffffffffff038211156135bb576135ba6137c0565b5b828201905092915050565b60006135d1826136cd565b91506135dc836136cd565b9250826135ec576135eb6137ef565b5b828204905092915050565b6000613602826136cd565b915061360d836136cd565b9250817fffffffffffffffffffffffffffffffffffffffffffffffffffffffffffffffff0483118215151615613646576136456137c0565b5b828202905092915050565b600061365c826136cd565b9150613667836136cd565b92508282101561367a576136796137c0565b5b828203905092915050565b6000613690826136ad565b9050919050565b60008115159050919050565b6000819050919050565b600073ffffffffffffffffffffffffffffffffffffffff82169050919050565b6000819050919050565b600067ffffffffffffffff82169050919050565b60006136f682613769565b9050919050565b60006137088261370f565b9050919050565b600061371a826136ad565b9050919050565b600061372c82613733565b9050919050565b600061373e826136ad565b9050919050565b600061375082613757565b9050919050565b6000613762826136ad565b9050919050565b60006137748261377b565b9050919050565b6000613786826136ad565b9050919050565b60005b838110156137ab578082015181840152602081019050613790565b838111156137ba576000848401525b50505050565b7f4e487b7100000000000000000000000000000000000000000000000000000000600052601160045260246000fd5b7f4e487b7100000000000000000000000000000000000000000000000000000000600052601260045260246000fd5b600080fd5b6000601f19601f8301169050919050565b7f696e73756666696369656e7420616d6f756e7400000000000000000000000000600082015250565b7f756e7375636365737366756c207472616e736665720000000000000000000000600082015250565b7f706c616e7465722066756e64206e6f7420657869737400000000000000000000600082015250565b7f696e76616c696420616464726573730000000000000000000000000000000000600082015250565b7f496e697469616c697a61626c653a20636f6e747261637420697320616c72656160008201527f647920696e697469616c697a6564000000000000000000000000000000000000602082015250565b61393081613685565b811461393b57600080fd5b50565b61394781613697565b811461395257600080fd5b50565b61395e816136a3565b811461396957600080fd5b50565b613975816136cd565b811461398057600080fd5b50565b61398c816136d7565b811461399757600080fd5b5056fea2646970667358221220e7264d6d19c54b8563ac76dc295efa11ff18dbdd35cc7cf324e06fa71f641d8b64736f6c63430008060033",
  "immutableReferences": {},
  "source": "// SPDX-License-Identifier: MIT\n\npragma solidity ^0.8.6;\nfunction c_0x2f673361(bytes32 c__0x2f673361) pure {}\n\n\nimport \"@openzeppelin/contracts-upgradeable/utils/CountersUpgradeable.sol\";\nimport \"@openzeppelin/contracts-upgradeable/proxy/utils/Initializable.sol\";\nimport \"@openzeppelin/contracts-upgradeable/token/ERC20/IERC20Upgradeable.sol\";\n\nimport \"../access/IAccessRestriction.sol\";\nimport \"../planter/IPlanter.sol\";\nimport \"../gsn/RelayRecipient.sol\";\n\n/** @title PlanterFund Contract */\n\ncontract PlanterFund is Initializable, RelayRecipient {\nfunction c_0x1ae945e2(bytes32 c__0x1ae945e2) public pure {}\n\n    /** NOTE {isPlanterFund} set inside the initialize to {true} */\n    bool public isPlanterFund;\n    uint256 public withdrawThreshold;\n\n    IAccessRestriction public accessRestriction;\n    IPlanter public planterContract;\n    IERC20Upgradeable public daiToken;\n\n    struct TotalFunds {\n        uint256 planterFund;\n        uint256 referralFund;\n        uint256 localDevelop;\n    }\n\n    /** NOTE {totalFunds} is struct of TotalFund that keep total share of\n     * planterFund, referralFund, localDevelop\n     */\n    TotalFunds public totalFunds;\n\n    /** NOTE mapping of treeId to planterFunds*/\n    mapping(uint256 => uint256) public planterFunds;\n\n    /** NOTE mapping of treeId to referralFunds*/\n    mapping(uint256 => uint256) public referralFunds;\n\n    /** NOTE  mpping of treeId to planterPaid balance*/\n    mapping(uint256 => uint256) public plantersPaid;\n\n    /** NOTE mapping of planter address to planter balance*/\n    mapping(address => uint256) public balances;\n\n    event PlanterFunded(uint256 treeId, address planterId, uint256 amount);\n    event PlanterBalanceWithdrawn(uint256 amount, address account);\n    event PlanterFundSet(\n        uint256 treeId,\n        uint256 planterAmount,\n        uint256 referralAmount\n    );\n\n    /** NOTE modifier to check msg.sender has admin role */\n    modifier onlyAdmin() {c_0x1ae945e2(0x615dfa7be0772e11b54924bfab183c5a4a9ab84df3a7b13db27d847d6ed837ba); /* function */ \n\nc_0x1ae945e2(0x7e06715f73be824c97883111f24350039853b669a31de0a2e4522f0fd4d939a5); /* line */ \n        c_0x1ae945e2(0x2711a26748495d2e4f1884fb54f875e85911372ea2ec5f6da7f881e16c212a2c); /* statement */ \naccessRestriction.ifAdmin(_msgSender());\nc_0x1ae945e2(0xeefa5209ef6f0763d12b68adea2e6c8c04d32cd47f37f02cc5f60cf5b07bacdf); /* line */ \n        _;\n    }\n\n    /** NOTE modifier to check msg.sender has data manager role */\n    modifier onlyDataManager() {c_0x1ae945e2(0xd92868d6512b7604aaaae0d7c23de34b2224d2180509f1261c2dff187fb82c4a); /* function */ \n\nc_0x1ae945e2(0xfac9aacd78a63f69e5d9a7b1590397c598a309f0b02e68e7e6e8b95fe8a1390a); /* line */ \n        c_0x1ae945e2(0x66117354f000c78648e4e35c632decfcc53ff6682ae71dd1f2df7b60a6af837e); /* statement */ \naccessRestriction.ifDataManager(msg.sender);\nc_0x1ae945e2(0xc5441c07265610aa591c43729cffd1609ad07d74d283f1918e8e4bad81abe095); /* line */ \n        _;\n    }\n\n    /** NOTE modifier for check if function is not paused*/\n    modifier ifNotPaused() {c_0x1ae945e2(0xaf7c1c73be3d605c542a044fd1b4c4d6c62b44d8ce1ae3972899d3e47ddd6bb3); /* function */ \n\nc_0x1ae945e2(0x1ab2bf24036a3c9388e01e97aa62e8b56f5a0583389605cba64a2fb470bb09bf); /* line */ \n        c_0x1ae945e2(0xae0e1afd5f28426d73c1b64f61659016a3b7e6701102830dd19588f646f33b64); /* statement */ \naccessRestriction.ifNotPaused();\nc_0x1ae945e2(0x43a8cc315a97c1d85ba904003e273c57ed68faad9540a807613dadb55d412a07); /* line */ \n        _;\n    }\n\n    /** NOTE modifier for check msg.sender has TreejerContract role */\n    modifier onlyTreejerContract() {c_0x1ae945e2(0x2e216b73388894512a3376641bb0eb568827f57973d2c88fd33b9557b945769a); /* function */ \n\nc_0x1ae945e2(0x8c2c26a684305bca63219d1a4531ee4b93684a53d54927f0e0e9c79629e0618a); /* line */ \n        c_0x1ae945e2(0xca7760aac29b19a6e18af7f9bdebafe899a92efd1af97de3832a19b47295d0f6); /* statement */ \naccessRestriction.ifTreejerContract(_msgSender());\nc_0x1ae945e2(0x197b3b2bb3c742656342bd9698497afaa704580e1605a85aa3f5329e11861931); /* line */ \n        _;\n    }\n\n    /** NOTE modifier for check valid address */\n    modifier validAddress(address _address) {c_0x1ae945e2(0x5a05e2d8cd6ae3fff21fbb67ee30b72b5cc5849e5a846f442ca6330520f58335); /* function */ \n\nc_0x1ae945e2(0x39f4b72225feee6a58b07d3f894f5278ced4621ce015f5401d66a1070ce3c0d0); /* line */ \n        c_0x1ae945e2(0xc83fb52dd045f99aceb58e1bf95b8a6f14d9533fc4588b8c7dc01d8d9d63abb2); /* requirePre */ \nc_0x1ae945e2(0xa492cc44dd486c3ca22bedd9aa2da3cfe5f475170e3c3a8c90d27985cfb5fed5); /* statement */ \nrequire(_address != address(0), \"invalid address\");c_0x1ae945e2(0xa57fc9a5b57e11f275e6ac9e96ede91755e5f22589b23e93a21656f9bc14e8b0); /* requirePost */ \n\nc_0x1ae945e2(0x0180b42fed7f1ecc7cd2a22dea8bde3810179bcf586f54753cea7e131c27669e); /* line */ \n        _;\n    }\n\n    /**\n     * @dev initialize accessRestriction contract and set true for isPlanterFund\n     * @param _accessRestrictionAddress set to the address of accessRestriction contract\n     */\n    function initialize(address _accessRestrictionAddress)\n        external\n        initializer\n    {c_0x1ae945e2(0xd7c6c6f2ec9a6826d24e827c384c8e6adf97d0bc335e0169f1b0fedd8b112e40); /* function */ \n\nc_0x1ae945e2(0xa716ece0d7f7af09ad930775046373ec097f20c19822f670c30b0609a31f15f2); /* line */ \n        c_0x1ae945e2(0xa97ddd8e4af6278c36f56bc0370ddc9e8a80bd6b8a8e21f57693257d540eff12); /* statement */ \nIAccessRestriction candidateContract = IAccessRestriction(\n            _accessRestrictionAddress\n        );\n\nc_0x1ae945e2(0xf389978df62d7c9f3fb4b4c5b59ec087fcfb20e10a32958e84ffa028091d499f); /* line */ \n        c_0x1ae945e2(0x30d5055243a63773b3b9decb13be0d42d1588fd9f4c3ed810b4ed98d04e340f1); /* requirePre */ \nc_0x1ae945e2(0xd62fefe3ef104443be41ce6f31cbb745eba3a30eb0f6e0d09064fee2005f2e5f); /* statement */ \nrequire(candidateContract.isAccessRestriction());c_0x1ae945e2(0xefa6b2d51b11134ca10c97c495156fe0ccf172a2fe5efe8ddcf780fc97ef8f52); /* requirePost */ \n\n\nc_0x1ae945e2(0xedf648c990c530de03d5fbf3bc541b585bf6b6fa12176a5ebaea78a9c12bad8b); /* line */ \n        c_0x1ae945e2(0xd39147ac4396f9d0f6310653dbdf86de982acb6a9d386fafd90fa367ef3935c8); /* statement */ \nisPlanterFund = true;\nc_0x1ae945e2(0xb777d86ae8804b9e113cfbc76134b882a812d90f2bb0a05a4659c08561129de6); /* line */ \n        c_0x1ae945e2(0xb67433819c6bfb90dc642141c3a9cb101e60d649d378a38dcab0aa527b0993d3); /* statement */ \nwithdrawThreshold = .5 ether;\nc_0x1ae945e2(0x5862a9d085cc87181b8df060277733c6be274ff303a2ad7a51f50cc7f5ff10d6); /* line */ \n        c_0x1ae945e2(0x5653ee5ab462d368c0668ac3825284d30d514ddea33386626214be42287b5341); /* statement */ \naccessRestriction = candidateContract;\n    }\n\n    /**\n     * @dev set trusted forwarder address\n     * @param _address set to {trustedForwarder}\n     */\n    function setTrustedForwarder(address _address)\n        external\n        onlyAdmin\n        validAddress(_address)\n    {c_0x1ae945e2(0x05afaa43040872c7b0652cc4c3269ee98bd6aca10352f93b9e96a610a7a93ad5); /* function */ \n\nc_0x1ae945e2(0x1d95bf8bca8b075e63f211ddd03c47ac0a7bb5c81d40ff1211409ff6daac9e76); /* line */ \n        c_0x1ae945e2(0x86d880a15e5e697b47704d3a0a74e78d2e98b0aaf949e29f94abbeacdefbea09); /* statement */ \ntrustedForwarder = _address;\n    }\n\n    /**\n     * @dev admin set Planter contract address\n     * @param _address set to the address of Planter contract\n     */\n    function setPlanterContractAddress(address _address) external onlyAdmin {c_0x1ae945e2(0x9345ced307c63aedf3546ddf9e4838cf971834ddaf55e9cc640278aac0f693eb); /* function */ \n\nc_0x1ae945e2(0x3d439fc980f8caea13b4d6177d256e631834c5503cdb4eb5c78542cef6e0f496); /* line */ \n        c_0x1ae945e2(0x1ec4f509c9c415042f3aff40c4c06fa5b103aa126d837ecfa009eadbfa5033f1); /* statement */ \nIPlanter candidateContract = IPlanter(_address);\nc_0x1ae945e2(0x61c74d2dde7a0a88cb3601477b4db595947ffa43dc97a928b53eda93d51f7d2a); /* line */ \n        c_0x1ae945e2(0x83c72b94d29ef1c27b26316899733ddb8742e45a07cdb391191c6d8a96b05844); /* requirePre */ \nc_0x1ae945e2(0xf4ae2be19905b43f5a34aa7b91a8f33f6875035b895c4a5ca37765146c6f29df); /* statement */ \nrequire(candidateContract.isPlanter());c_0x1ae945e2(0x6a3e62e20f8c164ab72630d173bdd0990c61b84eb3060b3ae86fb72687efff20); /* requirePost */ \n\nc_0x1ae945e2(0xc455c5f8dee396ec6baecc8e1d05e44d35c39ce55da72bc3e522c0e4c5733b3e); /* line */ \n        c_0x1ae945e2(0xb7559ef31e104e17c0b42c46974137d1606bac58ed147609b03a2fa166cce906); /* statement */ \nplanterContract = candidateContract;\n    }\n\n    /**\n     * @dev admin set DaiToken contract address\n     * @param _address set to the address of DaiToken contract\n     */\n    function setDaiTokenAddress(address _address)\n        external\n        onlyAdmin\n        validAddress(_address)\n    {c_0x1ae945e2(0xa017634711dd128d073d3b22445c53aa64f2551d987f70103956d72edff68dac); /* function */ \n\nc_0x1ae945e2(0x434caf4933d1da7c8918ab13508292e410ab525deda73dee3b90b20416386ac5); /* line */ \n        c_0x1ae945e2(0xb19a3ae56633403e6a098f7869360a3ad261665e9d74b12a31c5285fcda0b7d4); /* statement */ \nIERC20Upgradeable candidateContract = IERC20Upgradeable(_address);\nc_0x1ae945e2(0x0e1a56c7c2d43fedd8c68c29bd6f95d2e5ccc2b405f5c79b0a29f52effbb6d24); /* line */ \n        c_0x1ae945e2(0x40a68b032ca371f8dc74642e7dd69997821b8ce6e8108ce1dd72e2b099446989); /* statement */ \ndaiToken = candidateContract;\n    }\n\n    /** @dev admin can set the minimum amount to withdraw\n     * @param _amount is withdraw treshold\n     */\n    function setWithdrawThreshold(uint256 _amount) external onlyDataManager {c_0x1ae945e2(0x4cb0ad955394d596862f80f5eb5e3e10b02ae775578bc7caca4991f6492501fc); /* function */ \n\nc_0x1ae945e2(0x560a94987bb54533517206f8c6e1a61f13bfe29140320ecc6ca36caca6aa6f54); /* line */ \n        c_0x1ae945e2(0x3456a09758adcce1d99e112b2c90dec2a49ad3285af645124a33206d47ec0116); /* statement */ \nwithdrawThreshold = _amount;\n    }\n\n    /**\n     * @dev set planterFunds and refferalFunds of a tree with id {_treeId}\n     * and add {_planterFund} to planterFund part of totalFunds and add\n     * {_referralFund} to referralFund part of totalFunds\n     */\n    function setPlanterFunds(\n        uint256 _treeId,\n        uint256 _planterFund,\n        uint256 _referralFund\n    ) external onlyTreejerContract {c_0x1ae945e2(0xb1a847d13de400b4369a6aadf439fdc7f69de3c5436f0028c234c66eecee393a); /* function */ \n\nc_0x1ae945e2(0xc70cede9967c053737f48d8f4ffc96fb72b95b44a8194c6247f59fade4d81260); /* line */ \n        c_0x1ae945e2(0xc46a37ec2fb05df7e0b666efc484c45d91c6cb797fccbc2c7476e8feeaf78a98); /* statement */ \nplanterFunds[_treeId] = _planterFund;\nc_0x1ae945e2(0xdcc58af917cc0d7d57de924b490bee74d8076585d916e86330ec862866133749); /* line */ \n        c_0x1ae945e2(0x670ab0c084021d768547e6a7fffe42717fe3f40cedf3379d7e4bd9b65ff3a81b); /* statement */ \nreferralFunds[_treeId] = _referralFund;\n\nc_0x1ae945e2(0x29ec3dad8cf1e45cd4f19791baba0f58875815257208a5a461e1819229502e48); /* line */ \n        c_0x1ae945e2(0x5beb338bd2a4e828a7feee6ab1cd2aa25bfbb2e6a7b67b73643176fb98d475eb); /* statement */ \ntotalFunds.planterFund += _planterFund;\nc_0x1ae945e2(0xd9bf74064f1615dfac155df03ab3b945f4340d0da0f8ee42df917bf27a238885); /* line */ \n        c_0x1ae945e2(0xe0ba50dd070a715a7a111833ce99931e230fbee745eaa6c6821237007834ea5a); /* statement */ \ntotalFunds.referralFund += _referralFund;\n\nc_0x1ae945e2(0x8e88dba6f056010a4d31f3f7ea6e0650beb5994c2ad9e42c68b670fc7be08b21); /* line */ \n        c_0x1ae945e2(0x0ff34876feb3336ec5b6d962584b4866cf840da1059e713de9c15745cbc592cf); /* statement */ \nemit PlanterFundSet(_treeId, _planterFund, _referralFund);\n    }\n\n    /**\n     * @dev based on the {_treeStatus} planter charged in every tree update verifying\n     * @param _treeId id of a tree to fund\n     * @param _planterId  address of planter to fund\n     * @param _treeStatus status of tree\n     */\n\n    function fundPlanter(\n        uint256 _treeId,\n        address _planterId,\n        uint64 _treeStatus\n    ) external onlyTreejerContract {c_0x1ae945e2(0x3e20242fdd29383ae317905cac1900f7b466128c6ffb54dfd744a3fd6fca1c2b); /* function */ \n\nc_0x1ae945e2(0x50e83a7ab10cd7704a8f740717897786e06bb6efeccb41e3f05978141a540d2c); /* line */ \n        c_0x1ae945e2(0xba50c49852ff7adc630fa8aa3fdceabd7a3299e0146ba8c9a2bd994e0f6a1c7e); /* requirePre */ \nc_0x1ae945e2(0x57680fe16035e93dddb18ef614ccb92927508d5739465280fa06831db62a46ee); /* statement */ \nrequire(planterFunds[_treeId] > 0, \"planter fund not exist\");c_0x1ae945e2(0x17eb38abb8f4d596b3bd539e0844eebc6d75691c67cde8e599b58cdf255759b8); /* requirePost */ \n\n\nc_0x1ae945e2(0xe5cbe3aa26cb655e82f5b5b29d3dd5ea89b9d34f47946e4789eee33025e4d987); /* line */ \n        c_0x1ae945e2(0x973964947d83bc9751afd80f0f2ac4988a1502da4f717f1847173886b42b5a46); /* statement */ \n(\n            bool getBool,\n            address gottenOrganizationAddress,\n            address gottenReferralAddress,\n            uint256 gottenPortion\n        ) = planterContract.getPlanterPaymentPortion(_planterId);\n\nc_0x1ae945e2(0x5029d0e1426ef87220f7386918c73249bd5b12f72c4841248cb6c041c4e4f4f5); /* line */ \n        c_0x1ae945e2(0xc1d43fb0a355e3948a277295b1b0fd91f03c3180fac233b644882deb3b29740b); /* statement */ \nif (getBool) {c_0x1ae945e2(0x2868930fe28148d116e12373e60b6423f02149ac08a0d629819f3cdc8e9fc1c1); /* branch */ \n\nc_0x1ae945e2(0x42c1eb5da52ea05afe059101ca208532992923623ca2c0a34292e1f326040328); /* line */ \n            c_0x1ae945e2(0x35ac4937b76fba3a62da12956197da7e94cc2fde70b4a451c05003d8efa65d78); /* statement */ \nuint256 totalPayablePlanter;\n\nc_0x1ae945e2(0x4de639b4d9c2c3500b3c9e028625e7714f4869a4e8ab2814ebb586c639a66193); /* line */ \n            c_0x1ae945e2(0xc31b7b92562521b9756c6a49d88261fec2bd46db1c6aa5e92b228465159cc5d9); /* statement */ \nif (_treeStatus > 25920) {c_0x1ae945e2(0x5b05d1282d86ac7bc88e55933a948404405fa5c464aedea627b418afd924663d); /* branch */ \n\n                //25920 = 30 * 24 * 36\n\nc_0x1ae945e2(0x10400dade04e2d330cbf472367625379b4f891d7b4bc2c2e6fd0e2586396230d); /* line */ \n                c_0x1ae945e2(0x0d6543a32ee15ec9215c447c6af010bc320d0bd4332558918f487dec7e34097a); /* statement */ \ntotalPayablePlanter =\n                    planterFunds[_treeId] -\n                    plantersPaid[_treeId];\n            } else {c_0x1ae945e2(0x91f1052b4ec6e5c6bc4eba0b67918766b558c9132e67e409d7fb6ace4c083e68); /* branch */ \n\nc_0x1ae945e2(0xfd66b8412aaf1e95332c97f9bd96212d0b3cf88c1776471fb59bebd0468de07e); /* line */ \n                c_0x1ae945e2(0xb94f80d6672dc5b83eb1dd8fcce385951025bf05118056a1b287ca7341fe8bd3); /* statement */ \ntotalPayablePlanter =\n                    ((planterFunds[_treeId] * _treeStatus) / 25920) -\n                    plantersPaid[_treeId];\n            }\n\nc_0x1ae945e2(0x93c148224ee2d1f5eddf1878949694ecf7e02d1a02a9f89322a7222c52d92b8f); /* line */ \n            c_0x1ae945e2(0x62aec339f3fcc076c941b6c0477a943b9ca17c31307738d2bda57b4c3be6ee98); /* statement */ \nif (totalPayablePlanter > 0) {c_0x1ae945e2(0x3a90d1fb7fdb233c750aba9d9f1cdd1ae8f28e36a7bc431bae3a934dab8ac9d0); /* branch */ \n\nc_0x1ae945e2(0x507a9728c9b5cd2897f69a525a45106c162a2c1ba12182fcdf179cfbb61700a0); /* line */ \n                c_0x1ae945e2(0x0a1856f7d02da8ca0438bb4d0180bd978f683d2cb6997a1c6c5075ac70a9a237); /* statement */ \nuint256 totalPayableRefferal = (referralFunds[_treeId] *\n                    totalPayablePlanter) / planterFunds[_treeId];\n\n                //referral calculation section\n\nc_0x1ae945e2(0xe50504ae68ccbc4d5704ee9d8733e45945b5e769dad741e852ecc1b345589fad); /* line */ \n                c_0x1ae945e2(0x24756daefe4d3fc2bceb0b9d3cec3535b35c92e5a58b3e96cb7b8ee4e59f81c3); /* statement */ \ntotalFunds.referralFund -= totalPayableRefferal;\n\nc_0x1ae945e2(0xa4ba9e03dcd932a5786e09af5c770f3836fa28af412c9cbe8bc8aa65360129b2); /* line */ \n                c_0x1ae945e2(0x7ec8ac6545d0888b5887519e279703bf4a6bc12ff60efc4ec1f31e0037c4b7df); /* statement */ \nif (gottenReferralAddress == address(0)) {c_0x1ae945e2(0x7f2b51ba6025f78ad53ec99b687b072d08e46d5c85684bcc2fe847f7bc979862); /* branch */ \n\nc_0x1ae945e2(0xd1039a0eac18b24fa184be1308b1a21c3c65fc7fc66dc7ea97216a497c21ed1e); /* line */ \n                    c_0x1ae945e2(0xf06d30266db5f8c55f463ec6de837ead393071a9168a383c5ee12b53c9167a95); /* statement */ \ntotalFunds.localDevelop += totalPayableRefferal;\n                } else {c_0x1ae945e2(0x8e3f18021f8d30c76cc6313a683eee7b9e5da98823d79f3a273980b740131917); /* branch */ \n\nc_0x1ae945e2(0x4009033d6b4f0ded8df6ffec843b12142f9d19741c6999770f9724972ec39977); /* line */ \n                    c_0x1ae945e2(0xb0d090a043537455e84fd73064fef33cfcb26069784ca3dff9717d8643fbac5a); /* statement */ \nbalances[gottenReferralAddress] += totalPayableRefferal;\n                }\n\nc_0x1ae945e2(0xe76bd2808c1de8c356994bba877bb2d629d9c6fd59323a6b6198d35fcc393bb7); /* line */ \n                c_0x1ae945e2(0x691504507091f1952d604b8799554e0d5c199f938e5fee6cf0f1fda048c58ea1); /* statement */ \ntotalFunds.planterFund -= totalPayablePlanter;\n\n                //Organization calculation section\nc_0x1ae945e2(0xdd92d12b0936f4159dc66fc501e8cdefc9ec198a0c19a6fb2b54314cd9d88344); /* line */ \n                c_0x1ae945e2(0xacbf47e06f2e15cd04c924cad0ac35c3b9d254250eb23f48c7ef878f1a7b0ee3); /* statement */ \nuint256 fullPortion = 10000;\n\nc_0x1ae945e2(0x381205b467b0401587bb98b56ed8e6c9f9135232f358765789d8795fb0e48fed); /* line */ \n                c_0x1ae945e2(0x85154fe7c8102f621adebec0584e7a9c617fc069006662407313f705a6ce6afc); /* statement */ \nbalances[gottenOrganizationAddress] +=\n                    (totalPayablePlanter * (fullPortion - gottenPortion)) /\n                    fullPortion;\n\n                //planter calculation section\n\nc_0x1ae945e2(0xf2a7cdb880012292a1f5a316b2fef7fd1e943e6e05d9fcc770d2a36be5459fec); /* line */ \n                c_0x1ae945e2(0x145b150a3418fb2cabd657be3bbe5f427a9e725a5f8045a2f3fc7cbaa888948f); /* statement */ \nplantersPaid[_treeId] += totalPayablePlanter;\n\nc_0x1ae945e2(0x4b79ff475f9b2c94bd8f4b17f006a9f8f1e376ae66af31d26340577b2e4e2e24); /* line */ \n                c_0x1ae945e2(0x38bef277e1845cbb35c4d198ad25f26cbe36f462b768c574841b1c99f65ef2d8); /* statement */ \nbalances[_planterId] +=\n                    (totalPayablePlanter * gottenPortion) /\n                    fullPortion;\n\nc_0x1ae945e2(0x01d7b868f0ccdac1422e5a9a4a7af8c6f09a166b71316f6f38fb22615832a4b8); /* line */ \n                c_0x1ae945e2(0x79f09dfe4d99e91b9355e5c42c2cea1dd4caa982d850d780c6b7b5a5d67e419e); /* statement */ \nemit PlanterFunded(_treeId, _planterId, totalPayablePlanter);\n            }else { c_0x1ae945e2(0xc3854da039c9aebfccc546fa8355fa0af16e8ad4bde0752e5c9cdb1af8f540df); /* branch */ \n}\n        }else { c_0x1ae945e2(0x0fbb4161819f38a95e8a94801f4aea293127207abedb75b0b46aea505430b794); /* branch */ \n}\n    }\n\n    /**\n     * @dev planter withdraw {_amount} from planter's balances in case of\n     * valid {_amount} and daiToken transfer to planters address (to msgSender())\n     * @param _amount amount to withdraw\n     */\n    function withdrawPlanterBalance(uint256 _amount) external ifNotPaused {c_0x1ae945e2(0x348d38bf4d38a5f1eba76e9cd6bbf14bb81e0e55f9993b3cb7b71e1f8356cf2e); /* function */ \n\nc_0x1ae945e2(0x8cd1b40e57f3dd33800db56a82d3f3f43cedadd2c3fa88556209fdf0b93cdcdd); /* line */ \n        c_0x1ae945e2(0xd66730476bb064550395b12cab93ee0e5420d4049fc67fd20862859e2cb7ce9d); /* requirePre */ \nc_0x1ae945e2(0x38dc9af8b99e49dc3fb7e52adebae3a7b667daae849945d008065970d84a86a1); /* statement */ \nrequire(\n            _amount <= balances[_msgSender()] && _amount >= withdrawThreshold,\n            \"insufficient amount\"\n        );c_0x1ae945e2(0x7e0229db769e92d12f659d61639066664c541d5f39af18a030075e3810d251c7); /* requirePost */ \n\n\nc_0x1ae945e2(0xd4fbf6038e49a66dd3a8f5a8920f1940965b7114dc6dce90f54619c2313add62); /* line */ \n        c_0x1ae945e2(0xf71815db98782a98ee5133c58f2ddd1e39c0e5704e9f38e332634a093e1b7eb5); /* statement */ \nbalances[_msgSender()] -= _amount;\n\nc_0x1ae945e2(0x6b699923eaca13b9f7dcc54f695b541226c44722012bd686240435c34439946e); /* line */ \n        c_0x1ae945e2(0xc433d1122e023a66f3cd686b4d2f4e7dbb7e9bf6831384ce1e55e0aeeec91303); /* statement */ \nbool success = daiToken.transfer(_msgSender(), _amount);\n\nc_0x1ae945e2(0x6d526fe1af737b1ca9cc7b06021ee63d7bc3eb8e289e13f01123fc3d7a5aaaf7); /* line */ \n        c_0x1ae945e2(0x4de9bef0fb5887d83ba243d3b1957c15aa2daf3782cdc33d21d4e994c408775b); /* requirePre */ \nc_0x1ae945e2(0xa12e7577608ec1458a01173f3a99db8d530a020fa79bd6872654dd766d145b10); /* statement */ \nrequire(success, \"unsuccessful transfer\");c_0x1ae945e2(0x10443cf90e416fa726dc032626cd63fe98cef54aa8e80bd8674d371d559f06f0); /* requirePost */ \n\n\nc_0x1ae945e2(0xe02ec8385f990f9664142ca4dccd0f8e42fdaf94dfdacef2d5b3aa9087547793); /* line */ \n        c_0x1ae945e2(0x8c9621cedfb7568381b232717f51bc6849a26adfac2fbbe82010db93cf1fe0e0); /* statement */ \nemit PlanterBalanceWithdrawn(_amount, _msgSender());\n    }\n}\n",
  "sourcePath": "/home/smuggler/contract/.coverage_contracts/treasury/PlanterFund.sol",
  "compiler": {
    "name": "solc",
    "version": "0.8.6+commit.11564f7e.Emscripten.clang"
  },
  "schemaVersion": "3.4.1",
  "updatedAt": "2021-08-31T13:33:31.681Z",
  "devdoc": {
    "kind": "dev",
    "methods": {
      "fundPlanter(uint256,address,uint64)": {
        "details": "based on the {_treeStatus} planter charged in every tree update verifying",
        "params": {
          "_planterId": "address of planter to fund",
          "_treeId": "id of a tree to fund",
          "_treeStatus": "status of tree"
        }
      },
      "initialize(address)": {
        "details": "initialize accessRestriction contract and set true for isPlanterFund",
        "params": {
          "_accessRestrictionAddress": "set to the address of accessRestriction contract"
        }
      },
      "setDaiTokenAddress(address)": {
        "details": "admin set DaiToken contract address",
        "params": {
          "_address": "set to the address of DaiToken contract"
        }
      },
      "setPlanterContractAddress(address)": {
        "details": "admin set Planter contract address",
        "params": {
          "_address": "set to the address of Planter contract"
        }
      },
      "setPlanterFunds(uint256,uint256,uint256)": {
        "details": "set planterFunds and refferalFunds of a tree with id {_treeId} and add {_planterFund} to planterFund part of totalFunds and add {_referralFund} to referralFund part of totalFunds"
      },
      "setTrustedForwarder(address)": {
        "details": "set trusted forwarder address",
        "params": {
          "_address": "set to {trustedForwarder}"
        }
      },
      "setWithdrawThreshold(uint256)": {
        "details": "admin can set the minimum amount to withdraw",
        "params": {
          "_amount": "is withdraw treshold"
        }
      },
      "versionRecipient()": {
        "details": "return version recipient "
      },
      "withdrawPlanterBalance(uint256)": {
        "details": "planter withdraw {_amount} from planter's balances in case of valid {_amount} and daiToken transfer to planters address (to msgSender())",
        "params": {
          "_amount": "amount to withdraw"
        }
      }
    },
    "title": "PlanterFund Contract ",
    "version": 1
  },
  "userdoc": {
    "kind": "user",
    "methods": {
      "balances(address)": {
        "notice": "NOTE mapping of planter address to planter balance"
      },
      "isPlanterFund()": {
        "notice": "NOTE {isPlanterFund} set inside the initialize to {true} "
      },
      "isTrustedForwarder(address)": {
        "notice": "return if the forwarder is trusted to forward relayed transactions to us. the forwarder is required to verify the sender's signature, and verify the call is not a replay."
      },
      "planterFunds(uint256)": {
        "notice": "NOTE mapping of treeId to planterFunds"
      },
      "plantersPaid(uint256)": {
        "notice": "NOTE  mpping of treeId to planterPaid balance"
      },
      "referralFunds(uint256)": {
        "notice": "NOTE mapping of treeId to referralFunds"
      },
      "totalFunds()": {
        "notice": "NOTE {totalFunds} is struct of TotalFund that keep total share of planterFund, referralFund, localDevelop"
      }
    },
    "version": 1
  }
}