{
  "contractName": "Planter",
  "abi": [
    {
      "anonymous": false,
      "inputs": [
        {
          "indexed": false,
          "internalType": "address",
          "name": "planterId",
          "type": "address"
        }
      ],
      "name": "AcceptedByOrganization",
      "type": "event"
    },
    {
      "anonymous": false,
      "inputs": [
        {
          "indexed": false,
          "internalType": "address",
          "name": "organizationId",
          "type": "address"
        }
      ],
      "name": "OrganizationJoin",
      "type": "event"
    },
    {
      "anonymous": false,
      "inputs": [
        {
          "indexed": false,
          "internalType": "address",
          "name": "planterId",
          "type": "address"
        }
      ],
      "name": "PlanterJoin",
      "type": "event"
    },
    {
      "anonymous": false,
      "inputs": [
        {
          "indexed": false,
          "internalType": "address",
          "name": "planterId",
          "type": "address"
        }
      ],
      "name": "PlanterUpdated",
      "type": "event"
    },
    {
      "anonymous": false,
      "inputs": [
        {
          "indexed": false,
          "internalType": "address",
          "name": "planterId",
          "type": "address"
        }
      ],
      "name": "PortionUpdated",
      "type": "event"
    },
    {
      "anonymous": false,
      "inputs": [
        {
          "indexed": false,
          "internalType": "address",
          "name": "planterId",
          "type": "address"
        }
      ],
      "name": "RejectedByOrganization",
      "type": "event"
    },
    {
      "inputs": [],
      "name": "accessRestriction",
      "outputs": [
        {
          "internalType": "contract IAccessRestriction",
          "name": "",
          "type": "address"
        }
      ],
      "stateMutability": "view",
      "type": "function"
    },
    {
      "inputs": [
        {
          "internalType": "bytes32",
          "name": "c__0x07853504",
          "type": "bytes32"
        }
      ],
      "name": "c_0x07853504",
      "outputs": [],
      "stateMutability": "pure",
      "type": "function"
    },
    {
      "inputs": [],
      "name": "isPlanter",
      "outputs": [
        {
          "internalType": "bool",
          "name": "",
          "type": "bool"
        }
      ],
      "stateMutability": "view",
      "type": "function"
    },
    {
      "inputs": [
        {
          "internalType": "address",
          "name": "forwarder",
          "type": "address"
        }
      ],
      "name": "isTrustedForwarder",
      "outputs": [
        {
          "internalType": "bool",
          "name": "",
          "type": "bool"
        }
      ],
      "stateMutability": "view",
      "type": "function"
    },
    {
      "inputs": [
        {
          "internalType": "address",
          "name": "",
          "type": "address"
        }
      ],
      "name": "memberOf",
      "outputs": [
        {
          "internalType": "address",
          "name": "",
          "type": "address"
        }
      ],
      "stateMutability": "view",
      "type": "function"
    },
    {
      "inputs": [
        {
          "internalType": "address",
          "name": "",
          "type": "address"
        },
        {
          "internalType": "address",
          "name": "",
          "type": "address"
        }
      ],
      "name": "organizationRules",
      "outputs": [
        {
          "internalType": "uint256",
          "name": "",
          "type": "uint256"
        }
      ],
      "stateMutability": "view",
      "type": "function"
    },
    {
      "inputs": [
        {
          "internalType": "address",
          "name": "",
          "type": "address"
        }
      ],
      "name": "planters",
      "outputs": [
        {
          "internalType": "uint8",
          "name": "planterType",
          "type": "uint8"
        },
        {
          "internalType": "uint8",
          "name": "status",
          "type": "uint8"
        },
        {
          "internalType": "uint16",
          "name": "countryCode",
          "type": "uint16"
        },
        {
          "internalType": "uint32",
          "name": "score",
          "type": "uint32"
        },
        {
          "internalType": "uint32",
          "name": "capacity",
          "type": "uint32"
        },
        {
          "internalType": "uint32",
          "name": "plantedCount",
          "type": "uint32"
        },
        {
          "internalType": "uint64",
          "name": "longitude",
          "type": "uint64"
        },
        {
          "internalType": "uint64",
          "name": "latitude",
          "type": "uint64"
        }
      ],
      "stateMutability": "view",
      "type": "function"
    },
    {
      "inputs": [
        {
          "internalType": "address",
          "name": "",
          "type": "address"
        }
      ],
      "name": "refferedBy",
      "outputs": [
        {
          "internalType": "address",
          "name": "",
          "type": "address"
        }
      ],
      "stateMutability": "view",
      "type": "function"
    },
    {
      "inputs": [],
      "name": "trustedForwarder",
      "outputs": [
        {
          "internalType": "address",
          "name": "",
          "type": "address"
        }
      ],
      "stateMutability": "view",
      "type": "function"
    },
    {
      "inputs": [],
      "name": "versionRecipient",
      "outputs": [
        {
          "internalType": "string",
          "name": "",
          "type": "string"
        }
      ],
      "stateMutability": "pure",
      "type": "function"
    },
    {
      "inputs": [
        {
          "internalType": "bytes32",
          "name": "c__0x8967a34f",
          "type": "bytes32"
        }
      ],
      "name": "c_0x8967a34f",
      "outputs": [],
      "stateMutability": "pure",
      "type": "function"
    },
    {
      "inputs": [
        {
          "internalType": "address",
          "name": "_accessRestrictionAddress",
          "type": "address"
        }
      ],
      "name": "initialize",
      "outputs": [],
      "stateMutability": "nonpayable",
      "type": "function"
    },
    {
      "inputs": [
        {
          "internalType": "address",
          "name": "_address",
          "type": "address"
        }
      ],
      "name": "setTrustedForwarder",
      "outputs": [],
      "stateMutability": "nonpayable",
      "type": "function"
    },
    {
      "inputs": [
        {
          "internalType": "uint8",
          "name": "_planterType",
          "type": "uint8"
        },
        {
          "internalType": "uint64",
          "name": "_longitude",
          "type": "uint64"
        },
        {
          "internalType": "uint64",
          "name": "_latitude",
          "type": "uint64"
        },
        {
          "internalType": "uint16",
          "name": "_countryCode",
          "type": "uint16"
        },
        {
          "internalType": "address",
          "name": "_refferedBy",
          "type": "address"
        },
        {
          "internalType": "address",
          "name": "_organizationAddress",
          "type": "address"
        }
      ],
      "name": "planterJoin",
      "outputs": [],
      "stateMutability": "nonpayable",
      "type": "function"
    },
    {
      "inputs": [
        {
          "internalType": "address",
          "name": "_organizationAddress",
          "type": "address"
        },
        {
          "internalType": "uint64",
          "name": "_longitude",
          "type": "uint64"
        },
        {
          "internalType": "uint64",
          "name": "_latitude",
          "type": "uint64"
        },
        {
          "internalType": "uint16",
          "name": "_countryCode",
          "type": "uint16"
        },
        {
          "internalType": "uint32",
          "name": "_capacity",
          "type": "uint32"
        },
        {
          "internalType": "address",
          "name": "_refferedBy",
          "type": "address"
        }
      ],
      "name": "organizationJoin",
      "outputs": [],
      "stateMutability": "nonpayable",
      "type": "function"
    },
    {
      "inputs": [
        {
          "internalType": "uint8",
          "name": "_planterType",
          "type": "uint8"
        },
        {
          "internalType": "address",
          "name": "_organizationAddress",
          "type": "address"
        }
      ],
      "name": "updatePlanterType",
      "outputs": [],
      "stateMutability": "nonpayable",
      "type": "function"
    },
    {
      "inputs": [
        {
          "internalType": "address",
          "name": "_planterAddress",
          "type": "address"
        },
        {
          "internalType": "bool",
          "name": "_acceptance",
          "type": "bool"
        }
      ],
      "name": "acceptPlanterFromOrganization",
      "outputs": [],
      "stateMutability": "nonpayable",
      "type": "function"
    },
    {
      "inputs": [
        {
          "internalType": "address",
          "name": "_planterAddress",
          "type": "address"
        },
        {
          "internalType": "uint32",
          "name": "_capacity",
          "type": "uint32"
        }
      ],
      "name": "updateCapacity",
      "outputs": [],
      "stateMutability": "nonpayable",
      "type": "function"
    },
    {
      "inputs": [
        {
          "internalType": "address",
          "name": "_planterAddress",
          "type": "address"
        },
        {
          "internalType": "address",
          "name": "_assignedPlanterAddress",
          "type": "address"
        }
      ],
      "name": "plantingPermission",
      "outputs": [
        {
          "internalType": "bool",
          "name": "",
          "type": "bool"
        }
      ],
      "stateMutability": "nonpayable",
      "type": "function"
    },
    {
      "inputs": [
        {
          "internalType": "address",
          "name": "_planterAddress",
          "type": "address"
        },
        {
          "internalType": "uint256",
          "name": "_planterAutomaticPaymentPortion",
          "type": "uint256"
        }
      ],
      "name": "updateOrganizationPlanterPayment",
      "outputs": [],
      "stateMutability": "nonpayable",
      "type": "function"
    },
    {
      "inputs": [
        {
          "internalType": "address",
          "name": "_planterAddress",
          "type": "address"
        }
      ],
      "name": "getPlanterPaymentPortion",
      "outputs": [
        {
          "internalType": "bool",
          "name": "",
          "type": "bool"
        },
        {
          "internalType": "address",
          "name": "",
          "type": "address"
        },
        {
          "internalType": "address",
          "name": "",
          "type": "address"
        },
        {
          "internalType": "uint256",
          "name": "",
          "type": "uint256"
        }
      ],
      "stateMutability": "view",
      "type": "function"
    },
    {
      "inputs": [
        {
          "internalType": "address",
          "name": "_planterAddress",
          "type": "address"
        }
      ],
      "name": "reducePlantCount",
      "outputs": [],
      "stateMutability": "nonpayable",
      "type": "function"
    },
    {
      "inputs": [
        {
          "internalType": "address",
          "name": "_planterAddress",
          "type": "address"
        }
      ],
      "name": "planterCheck",
      "outputs": [
        {
          "internalType": "bool",
          "name": "",
          "type": "bool"
        }
      ],
      "stateMutability": "nonpayable",
      "type": "function"
    },
    {
      "inputs": [
        {
          "internalType": "address",
          "name": "_planterAddress",
          "type": "address"
        },
        {
          "internalType": "address",
          "name": "_verifier",
          "type": "address"
        }
      ],
      "name": "canVerify",
      "outputs": [
        {
          "internalType": "bool",
          "name": "",
          "type": "bool"
        }
      ],
      "stateMutability": "view",
      "type": "function"
    },
    {
      "inputs": [
        {
          "internalType": "address",
          "name": "_planterAddress",
          "type": "address"
        }
      ],
      "name": "canAssignTreeToPlanter",
      "outputs": [
        {
          "internalType": "bool",
          "name": "",
          "type": "bool"
        }
      ],
      "stateMutability": "view",
      "type": "function"
    }
  ],
  "bytecode": "0x60806040523480156200001157600080fd5b506184d980620000226000396000f3fe608060405234801561001057600080fd5b50600436106101735760003560e01c80639b720401116100de578063d3a907d611610097578063df385cbd11610071578063df385cbd14610476578063dfeac33a146104a6578063f42ff9c3146104d6578063fc5c2c7f146104f257610173565b8063d3a907d614610405578063d6762c4a1461043c578063da7422281461045a57610173565b80639b72040114610335578063a074b9be14610351578063a2c364901461036d578063acd2e87514610389578063b2dbbded146103b9578063c4d66de8146103e957610173565b8063572b6c0511610130578063572b6c05146102605780636d8683ac146102905780637c9be3d8146102ac5780637da0a877146102c85780638576e4be146102e65780638a4e1a641461030257610173565b806303dc8deb14610178578063055644d6146101965780630c8f0b4e146101c65780633b4c9891146101e2578063486ff0cd1461021257806355c3a79e14610230575b600080fd5b61018061050e565b60405161018d9190617c35565b60405180910390f35b6101b060048036038101906101ab919061767e565b610521565b6040516101bd9190617c35565b60405180910390f35b6101e060048036038101906101db919061777e565b610d71565b005b6101fc60048036038101906101f79190617651565b611887565b6040516102099190617bff565b60405180910390f35b61021a6118ba565b6040516102279190617cb0565b60405180910390f35b61024a6004803603810190610245919061767e565b61197b565b6040516102579190617c35565b60405180910390f35b61027a60048036038101906102759190617651565b612116565b6040516102879190617c35565b60405180910390f35b6102aa60048036038101906102a5919061773e565b61216f565b005b6102c660048036038101906102c19190617651565b612880565b005b6102d0612e0f565b6040516102dd9190617bff565b60405180910390f35b61030060048036038101906102fb9190617838565b612e35565b005b61031c60048036038101906103179190617651565b612e38565b60405161032c9493929190617c50565b60405180910390f35b61034f600480360381019061034a91906176fe565b61343c565b005b61036b600480360381019061036691906178a5565b613cda565b005b610387600480360381019061038291906176be565b614c33565b005b6103a3600480360381019061039e9190617651565b615636565b6040516103b09190617bff565b60405180910390f35b6103d360048036038101906103ce9190617651565b615669565b6040516103e09190617c35565b60405180910390f35b61040360048036038101906103fe9190617651565b615da7565b005b61041f600480360381019061041a9190617651565b61614e565b604051610433989796959493929190617ecd565b60405180910390f35b610444616216565b6040516104519190617c95565b60405180910390f35b610474600480360381019061046f9190617651565b61623c565b005b610490600480360381019061048b9190617651565b6165c0565b60405161049d9190617c35565b60405180910390f35b6104c060048036038101906104bb919061767e565b616720565b6040516104cd9190617eb2565b60405180910390f35b6104f060048036038101906104eb9190617838565b616745565b005b61050c60048036038101906105079190617865565b616748565b005b600060169054906101000a900460ff1681565b600061054f7fd1eb6ff6029a684fab515b5a66231fa63aa2806b284f307d2c522148dddd66fe60001b616745565b61057b7fb27b52f5da05e8ab6b1e048385d8fe9e8566af1646fb0626f1fd83be8db83ac160001b616745565b6105a77fb6d42af2884fe2664936e88e92618fb6ecf6dab5ec241f537b35e75a4736e3e560001b616745565b600160009054906101000a900473ffffffffffffffffffffffffffffffffffffffff1673ffffffffffffffffffffffffffffffffffffffff1663ebe6a6f36105ed617558565b6040518263ffffffff1660e01b81526004016106099190617c1a565b60006040518083038186803b15801561062157600080fd5b505afa158015610635573d6000803e3d6000fd5b505050506106657f2ff24a1fa492c440a68c8bc8d0dcc939b494523d0c4bf71db7bf2325e0e2558060001b616745565b6106917feda3dfb06bd33b5a6d7e22544c83d0abf9eb211d302f06a9005ae6ef703f4e6060001b616745565b6106bd7f2c43785cd2a38c34b4dfa238ec481edb71e21f083e9fb8112693c4d651cf624c60001b616745565b6106e97f60eb5b0589e8f11758d66a8f603f5f49c1a90ef8425b580849d700c48931d42760001b616745565b6000600260008573ffffffffffffffffffffffffffffffffffffffff1673ffffffffffffffffffffffffffffffffffffffff16815260200190815260200160002090506107587f50cdb2b245f4d2244f3fe387bebe5cbf666452545440b35ab19bdb5344f1676c60001b616745565b6107847fa039928453e2527599369e40e299f765711ec486cfafb2b3a25b9b8ef169040960001b616745565b60008160000160009054906101000a900460ff1660ff161115610ce0576107cd7f81629c1eaccc1c26585d7e966b10441a8a3f8bc9442f7b8288c7622f4d9dd36860001b616745565b6107f97f227b39bf34fd36c3ccc09b36bb2d265713c1a386785fea619fbfa53b62590d3960001b616745565b6108257f2c98b5a676b85ae6501e27649606d0640149cc36054f7a7bc2b3d3fc81f1d00f60001b616745565b8273ffffffffffffffffffffffffffffffffffffffff168473ffffffffffffffffffffffffffffffffffffffff161480610909575060038160000160009054906101000a900460ff1660ff1614801561090857508273ffffffffffffffffffffffffffffffffffffffff16600460008673ffffffffffffffffffffffffffffffffffffffff1673ffffffffffffffffffffffffffffffffffffffff16815260200190815260200160002060009054906101000a900473ffffffffffffffffffffffffffffffffffffffff1673ffffffffffffffffffffffffffffffffffffffff16145b5b15610cae5761093a7f5fa43c30c4aebf3536d9033585248fcbac264af11fefcf04b427e39b161ab96c60001b616745565b6109667f551016d205bf44f31991befed62d32120604bd51bab431d98917f9fc43c3ce5760001b616745565b6109927f945be388928316c692dac180a3fd6a78636069f984f3a07a9c27abb9c03d52e260001b616745565b60018160000160019054906101000a900460ff1660ff161480156109e957508060000160089054906101000a900463ffffffff1663ffffffff1681600001600c9054906101000a900463ffffffff1663ffffffff16105b15610c7d57610a1a7fd9cc3a4ce26be231e8eef152190e4a4a1942fd76afc55c38fffda0290b25e78f60001b616745565b610a467f719b1d4ba0268550f55c1f4bf82f2fce468c86ee7ad34871590a8d2453a81fcf60001b616745565b610a727f99653446747dec78e4315df30e9498157a3e9bc393ef99829bd4a5e199cba30660001b616745565b600181600001600c8282829054906101000a900463ffffffff16610a969190617f67565b92506101000a81548163ffffffff021916908363ffffffff160217905550610ae07f59ff76b510178a0bbeffc8a3210f0dd2919ad5b27736f548bd03b97e785193e060001b616745565b610b0c7f2efa6b538dcc3e3868ceabd968202ce9aeef0b42fcb8169046cf446f7ab32cee60001b616745565b8060000160089054906101000a900463ffffffff1663ffffffff1681600001600c9054906101000a900463ffffffff1663ffffffff1610610bee57610b737f16e98e1e49f2e7549d81c7b44f1ce184aa349af43a617dbd63423e22cd0f87a160001b616745565b610b9f7f40f2ab9a98fc9d7e01c1443663c3435c5fc89a8685c4019d7f98f96d1c44c70f60001b616745565b610bcb7f2516650e69651ac4a36c29a7143102189b520970cc55ce692a18556cba453cf760001b616745565b60028160000160016101000a81548160ff021916908360ff160217905550610c1b565b610c1a7f55a7a0bfa52bdc87a241766712a11c4d6692def1a442c684034bdad6e3231f5260001b616745565b5b610c477f1cb51c6c01727ae32050765c9bda34f4a5bd775b0a3543ab84824e6c22d90a1060001b616745565b610c737ffa59e27db8f5111dbf58ac5c239a324027e9e14869081cbbc8a8fd4598da308060001b616745565b6001915050610d6b565b610ca97f7debfb47b621087b86f3eeddf25062a9d79ba69fa8a2b5533a47237a197c56b860001b616745565b610cdb565b610cda7f80d90bb7262cbf144c3000fe8b035d99a91c58f4d28434f5f5fbb6f505dd8a6e60001b616745565b5b610d0d565b610d0c7fd51545bfea2349c3e0dbc412648d30d390ffb47f17cb938d3ddd012613e9837060001b616745565b5b610d397f7e8586c31c149fbdef91bb83fc9c6397c0547f378af32dcd1d735ef0e24425a160001b616745565b610d657f2f9822765e9349a86c409be429b23a6131f587caece448b5d4e970f48e88fd3e60001b616745565b60009150505b92915050565b610d9d7fa386fe903e0585a9e73ed9a53545f3758a36c128788932cb6b37e7152528d16e60001b616745565b610dc97fef7da4c9123733cb23e3dac0e55bd99b4d9213bbbda761afc0359085c0804ee860001b616745565b610df57f4bb92b36047b886c38cac0bc0ce7d43a7078c48117c66a6daeb1ee47ba0531d560001b616745565b600160009054906101000a900473ffffffffffffffffffffffffffffffffffffffff1673ffffffffffffffffffffffffffffffffffffffff1663c4d2a31b610e3b617558565b6040518263ffffffff1660e01b8152600401610e579190617c1a565b60006040518083038186803b158015610e6f57600080fd5b505afa158015610e83573d6000803e3d6000fd5b50505050610eb37fac97bb99f38eff6cf80fc7e9d9277eb95ba969ce97407867e7690dda876a692860001b616745565b610edf7fb2261625961d63b4cde1e737b7bb2602a9c96bbdd229b217c02f6ea7184d630f60001b616745565b610f0b7f9da0777bed00eefe0453badc9a713b5fb01e57b890f1b8bc03c9cb8f3861341860001b616745565b610f377f7c83ed0876f0539aee8336e28f98900d7cbcb12caa1d0b4743464d2498129dca60001b616745565b610f637f212301b2ce292b03e0f5775f346964a44e75d42176892edd1b31dfde2756091060001b616745565b6000600260008873ffffffffffffffffffffffffffffffffffffffff1673ffffffffffffffffffffffffffffffffffffffff16815260200190815260200160002060000160009054906101000a900460ff1660ff1614801561106c5750600160009054906101000a900473ffffffffffffffffffffffffffffffffffffffff1673ffffffffffffffffffffffffffffffffffffffff16632ea8de7f876040518263ffffffff1660e01b815260040161101b9190617bff565b60206040518083038186803b15801561103357600080fd5b505afa158015611047573d6000803e3d6000fd5b505050506040513d601f19601f8201168201806040525081019061106b919061780b565b5b6110ab576040517f08c379a00000000000000000000000000000000000000000000000000000000081526004016110a290617e72565b60405180910390fd5b6110d77fe2d964cd0e51352d19c55771fdea2465f47953e01a5fca3fb01eaf77b552f05060001b616745565b6111037faf2417461a9044e3033a9e68289db2452ca34c6de8cc04b3eca2909862c4bd6560001b616745565b61112f7f6f29e6744689150845087e8e86d7dde29fbbd63a766ebbc22a8ef162df25dbd760001b616745565b600073ffffffffffffffffffffffffffffffffffffffff168173ffffffffffffffffffffffffffffffffffffffff16146114435761118f7f132160a1b2efe211088144b7d2f6e4fd1a75f0784426ee1549133bcddd15019960001b616745565b6111bb7f27b314e3628f86d2ff78488bf40b18cbf023d1e7096a073bb4a7ce15374e49a160001b616745565b6111e77f3c0ba85b631d53fd21562819f526fc7feece49d43ce62a90b16a3d238c7ad03460001b616745565b6112137f6ff06056e4e48c7856033e042ab40cd74cb376e97a62eadccb2cf509cb8f01b060001b616745565b61121b617558565b73ffffffffffffffffffffffffffffffffffffffff168173ffffffffffffffffffffffffffffffffffffffff16141580156112fd5750600160009054906101000a900473ffffffffffffffffffffffffffffffffffffffff1673ffffffffffffffffffffffffffffffffffffffff16632ea8de7f826040518263ffffffff1660e01b81526004016112ac9190617bff565b60206040518083038186803b1580156112c457600080fd5b505afa1580156112d8573d6000803e3d6000fd5b505050506040513d601f19601f820116820180604052508101906112fc919061780b565b5b61133c576040517f08c379a000000000000000000000000000000000000000000000000000000000815260040161133390617dd2565b60405180910390fd5b6113687f5ea2384f387cd9f7b78793e799a17b5165e8b30e62ee3d7c104e0510f7276f9060001b616745565b6113947fd9cb965792f4eaf376420e3314b220f34f661579dd6e8f56ef5cab060206c15b60001b616745565b6113c07f6914a347963e192850c4759b362870b278cb0d23b737a220fe8772f4d3ce61de60001b616745565b80600360008873ffffffffffffffffffffffffffffffffffffffff1673ffffffffffffffffffffffffffffffffffffffff16815260200190815260200160002060006101000a81548173ffffffffffffffffffffffffffffffffffffffff021916908373ffffffffffffffffffffffffffffffffffffffff160217905550611470565b61146f7fbfc9096adfef07854a49ee5c927f5f68f8d0db78292d023ac4442e78225543d660001b616745565b5b61149c7f87af2a9efbb55a61aa165ec5ae048d6927827d397f39373b748e0531cb08515f60001b616745565b6114c87f50e4c6d2238547b28d531c73dba16fab28706da7479215f6b8d56ea945a5765a60001b616745565b6000600260008873ffffffffffffffffffffffffffffffffffffffff1673ffffffffffffffffffffffffffffffffffffffff16815260200190815260200160002090506115377fdc1ba560b19e8dcbd3828e3a2d5444af17584662882db5aec0a8547d9f540f8f60001b616745565b6115637fb0861da263712cbad905b9dd69b734a8465180a47dad3081c9871d3b0a88a4e760001b616745565b60028160000160006101000a81548160ff021916908360ff1602179055506115ad7f470eb71b3b14cbf66f60e2704cf8db416aca4133704a49bbd0bbfffd50ae7ce960001b616745565b6115d97f90a3299463122f4f0c312ae29305794b2250b5d50be48ca4f81ac76773b5ac6360001b616745565b60018160000160016101000a81548160ff021916908360ff1602179055506116237f71ad96c5fb33cfc9c4117303c89cb4fa9b09afeade4328aae6a015c5bdfe53cb60001b616745565b61164f7fde6d1441c17caf1c17ce854971ec5775c0dbcda4c23e6f0ce4fc51db74c8657760001b616745565b838160000160026101000a81548161ffff021916908361ffff16021790555061169a7f94fa12bf9a48431d8698d586efbf862d054f4f07db031271e61f47aea6bb2be460001b616745565b6116c67fea22ee36e94eef0ac9dbe1642bc69b6a21a4ad46ff40ceefa1c9e9be0354b19960001b616745565b828160000160086101000a81548163ffffffff021916908363ffffffff1602179055506117157fcaaa51a98b79feb37aac960f6e8b3839bd94e80cf057faf242ac4849334511ec60001b616745565b6117417f5ebb54ef55d18959adc60e9958b6370d1a3f381e963b463fc4381b7d533f0cf660001b616745565b858160000160106101000a81548167ffffffffffffffff021916908367ffffffffffffffff1602179055506117987faf7d07bd41f927e6f8c00cd64a6550c66423dec0853e715d67ae2b1986dc2e2d60001b616745565b6117c47f698ce4485e9702119376cc5375561c54f1a031dcf56bf2edac48016b3c0e589460001b616745565b848160000160186101000a81548167ffffffffffffffff021916908367ffffffffffffffff16021790555061181b7f035510fefa84431184faf3c421eb2d5ec6650d9e2c89761d36a593d43aa1e60d60001b616745565b6118477f45fcb601e73e78a3748e4424c5d3e1637ceffaa51bfd71f1c598153bb60c3d9960001b616745565b7f72c68927ea7ee8d57a0e3ce76300dec0c86fde0ace00be8ac89f646d06b1914d876040516118769190617bff565b60405180910390a150505050505050565b60046020528060005260406000206000915054906101000a900473ffffffffffffffffffffffffffffffffffffffff1681565b60606118e87f11dd98d6809ebd8463693ae2b3f048590b2cbe0b5871346e00a0b4c3c541174a60001b612e35565b6119147f8ba796393678d90e1644972b2432ed6c109dbd204df8ff14546d9632bbedffc560001b612e35565b6119407f5759cbc9a7bcad7b45c102beff6e42b49f3a61f90ec5bc06dbe3a1747ad6d10d60001b612e35565b6040518060400160405280601d81526020017f322e322e302b747265656a65722e6972656c6179726563697069656e74000000815250905090565b60006119a97f020860c7cf90734889e073a609e08716145e4e46625e6089e626a3e1f67263d660001b616745565b6119d57feb4c8712e7f7e4a46c6b0dd3f85532d03a7167d2fd5f3cca13f1a23b8314becb60001b616745565b611a017feb53687a7a971e075b407ec4145bcfe6e26ff20ddf9879cf589eea6f391b326560001b616745565b6000600260008573ffffffffffffffffffffffffffffffffffffffff1673ffffffffffffffffffffffffffffffffffffffff16815260200190815260200160002060000160009054906101000a900460ff169050611a817f02b7cd5bea477c48dc0e0eef7f365ceb58c3613f2ebda13daf53b4aa40ce148e60001b616745565b611aad7fd464dcf1dc7d431b6b7c8752894c4bbc26bd5d9998cccc89107d5e862b9b010760001b616745565b6000600260008573ffffffffffffffffffffffffffffffffffffffff1673ffffffffffffffffffffffffffffffffffffffff16815260200190815260200160002060000160019054906101000a900460ff169050611b2d7f9a58f089e1c5558ae5c090c903688488158b769745bb223d880dd13eb317d53f60001b616745565b611b597fd60624c8e4ac4bbc63fbfd00c0a2b758480954e4f2a7cc7c2b48b10dfedf574460001b616745565b60018260ff16111561208457611b917f2fd5a5c63a3ff48e20a6d0ef444f216da6ed095fd2e6092f73223e812e11736a60001b616745565b611bbd7f92990aaba52ef0ad87f93fa4386499be04406e645f29f66e59235659144fdbb660001b616745565b611be97f3b919a61f0710521e66c1a5e9f4b6fdf87d2c0ac1c5471eb65d9f683acc633f060001b616745565b60018160ff161480611bfe575060028160ff16145b1561205257611c2f7fee6370d56f3b2bfa9ff856c2531bcbed6dd559c93877792cf0dac1713bf8dfb560001b616745565b611c5b7ff2edcaf5157e0b28c15260184fe2a19bc7c7788de6d846fa11be89c77318e29660001b616745565b611c877f279ddc37781f8a57d83f5a4d8b76f1f4631fa841d9be5547d50b25d2cd8c2fcb60001b616745565b60028260ff161415611dae57611cbf7f36003a5c60996bed6aa785e9800603bcae142d8c7bb8701667560552dcc2ad8c60001b616745565b611ceb7f737f318ebefc0f1c6765c522fdad494c6da67672a8dde7c0a1dd631442053ceb60001b616745565b611d177fa5658283f5f3bc693729699ad338e89ce27a67c8575443b386a5d0d497bbbdae60001b616745565b8473ffffffffffffffffffffffffffffffffffffffff16600460008673ffffffffffffffffffffffffffffffffffffffff1673ffffffffffffffffffffffffffffffffffffffff16815260200190815260200160002060009054906101000a900473ffffffffffffffffffffffffffffffffffffffff1673ffffffffffffffffffffffffffffffffffffffff161492505050612110565b611dda7f0be81851500f171d0ec8d799ba9ef42a4a9e6777217286b99010789788bacde260001b616745565b611e067f8a49004f44d306ddd4d3470b84ef7ffc457309f9ae43874f14537edf23c3028460001b616745565b60038260ff16141561202157611e3e7ffcef18e24500f45fee0669a739b1187e4db4efbba35bb17290749625f68ca0e560001b616745565b611e6a7fdcb59c5c811435d36c2b9488482fd543789ee1d61b2fdd37a91df897e527da9360001b616745565b611e967f59eacb1be8380f381e25ceb1d5aa250027aeb8f6e708ce072c421b087805ebbd60001b616745565b600460008673ffffffffffffffffffffffffffffffffffffffff1673ffffffffffffffffffffffffffffffffffffffff16815260200190815260200160002060009054906101000a900473ffffffffffffffffffffffffffffffffffffffff1673ffffffffffffffffffffffffffffffffffffffff16600460008673ffffffffffffffffffffffffffffffffffffffff1673ffffffffffffffffffffffffffffffffffffffff16815260200190815260200160002060009054906101000a900473ffffffffffffffffffffffffffffffffffffffff1673ffffffffffffffffffffffffffffffffffffffff16148061201857508373ffffffffffffffffffffffffffffffffffffffff16600460008773ffffffffffffffffffffffffffffffffffffffff1673ffffffffffffffffffffffffffffffffffffffff16815260200190815260200160002060009054906101000a900473ffffffffffffffffffffffffffffffffffffffff1673ffffffffffffffffffffffffffffffffffffffff16145b92505050612110565b61204d7faafdcda0b9c047f5ad6b80a1af12400aec22c0eb880e0370489f573a44fbfeb460001b616745565b61207f565b61207e7fcbdf2ac9455c532baac9e4103d0676ec481f6d4f8074120052ec02aed195dbc660001b616745565b5b6120b1565b6120b07f453f1b35c9238676ebd1dd4d6ef94a60a9f8cc5cd6f72671ec6715f2479808c060001b616745565b5b6120dd7f9705c83f44a7892f4278a953563eecc3b4dda4ccd743876a1d7cfdfcfc206c2160001b616745565b6121097fde19f87f724f62c26ade5e6a55eaf88ccaa582ea954fcf167a8cea132156957260001b616745565b6000925050505b92915050565b60008060029054906101000a900473ffffffffffffffffffffffffffffffffffffffff1673ffffffffffffffffffffffffffffffffffffffff168273ffffffffffffffffffffffffffffffffffffffff16149050919050565b61219b7fa386fe903e0585a9e73ed9a53545f3758a36c128788932cb6b37e7152528d16e60001b616745565b6121c77fef7da4c9123733cb23e3dac0e55bd99b4d9213bbbda761afc0359085c0804ee860001b616745565b6121f37f4bb92b36047b886c38cac0bc0ce7d43a7078c48117c66a6daeb1ee47ba0531d560001b616745565b600160009054906101000a900473ffffffffffffffffffffffffffffffffffffffff1673ffffffffffffffffffffffffffffffffffffffff1663c4d2a31b612239617558565b6040518263ffffffff1660e01b81526004016122559190617c1a565b60006040518083038186803b15801561226d57600080fd5b505afa158015612281573d6000803e3d6000fd5b505050506122b17fac97bb99f38eff6cf80fc7e9d9277eb95ba969ce97407867e7690dda876a692860001b616745565b816122de7f1ff18dfca59e21735987b3addf1fe53b0b65bd5492b0f8429a08c32f54789af360001b616745565b61230a7f5570f00d23e60c3d40ab6b27046efde1a19369b8c121374c143a8f4f326d4f3660001b616745565b6123367f67efbec4683ce4d5a8c1833c8924cc37bde68450ab6270de842d7df4a245aafe60001b616745565b6123627f609f5e404b09121f25a2749bdd459c8e55dfb1ac871c0fec4994858f8163342760001b616745565b6000600260008373ffffffffffffffffffffffffffffffffffffffff1673ffffffffffffffffffffffffffffffffffffffff16815260200190815260200160002060000160009054906101000a900460ff1660ff16116123f7576040517f08c379a00000000000000000000000000000000000000000000000000000000081526004016123ee90617cf2565b60405180910390fd5b6124237f81713bd6fc5176a3d18d12c118bfa9214a3a8ab76307accd4ea275e26368967860001b616745565b61244f7f72a05d94c3cb7ebe36369dd3adbf6272720e7f1b05cb30ef595a6f607a521fe960001b616745565b61247b7fa2596d73843a68a2329bc7d531bda00865672b62efdab20184cf7687928609a060001b616745565b6124a77f134bf6c9e1bdd558db1d5e2dbfefb1cc3a0f7778174415dcfc2003d2d811567060001b616745565b6124d27e04097e3eae284383756122dbc3e124155cd7c72f955307da73ba5a30fb165660001b616745565b6000600260008573ffffffffffffffffffffffffffffffffffffffff1673ffffffffffffffffffffffffffffffffffffffff16815260200190815260200160002090506125417f7dce792d12cdb00806afcb55f4ce3f49ff907ad4f0ccd4b7a70b2e98aa5ae54c60001b616745565b61256d7f33d062230d9b1422c3d82dc2f69c666770e4aa4f4f31acfb610338d12009aa3d60001b616745565b6125997ff734a356e191e7d2a3f2139a4a501a26b2f7ec8cba7e4e0c5d010252079d772a60001b616745565b80600001600c9054906101000a900463ffffffff1663ffffffff168363ffffffff16116125fb576040517f08c379a00000000000000000000000000000000000000000000000000000000081526004016125f290617df2565b60405180910390fd5b6126277f340fc354e0bbcd3ea58a9060ea911a608a675129e16c8ff65b93e6633945063660001b616745565b6126537f1961a339a0522c482eb429974c9a9b8bf9d54eb94afb7a042ffbd9e69ece39a060001b616745565b61267f7fe8a0e064699a1b93aa987b7cbfa9dbf6183050d62050edb1fe37997af9169cfb60001b616745565b828160000160086101000a81548163ffffffff021916908363ffffffff1602179055506126ce7fe9f562007c998bfecbb9b3a3a477ad5514c1a34e555a79da1032cca13dec142260001b616745565b6126fa7f9d0227ce9a05c0d92f145af9984e2e255fc504a8518fb4b57fc63cf352addf6960001b616745565b60028160000160019054906101000a900460ff1660ff1614156127be576127437fbce9a71c7aa69fca2bd978ab0cb490d2a525846f3519d0e73afd3e90692da5a860001b616745565b61276f7f2acb0ac3f5959992c9ef809fccb342581a0ed470ac1cff9f23558301971a4b0560001b616745565b61279b7f15491db1d38b17ffed8d567a6e845500755f7b277af3cd5bac486e6f9d2aa9f760001b616745565b60018160000160016101000a81548160ff021916908360ff1602179055506127eb565b6127ea7f5ce6378c6b3a869b898624395e3c373ee6d84fb4094e097bd9852ca56503b05760001b616745565b5b6128177fbd3402490333347e80744d7d92bad783cf96f92df48d83ad70ac623e1949193d60001b616745565b6128437faaffd25547735f6c06106994c74f38dd0eea209719da0723f00e345fb115b90b60001b616745565b7f4f4c4d7a603e71ff6fc5aca4b16d1aee54c290be7eb4b17a72535c562724ce76846040516128729190617bff565b60405180910390a150505050565b806128ad7f1ff18dfca59e21735987b3addf1fe53b0b65bd5492b0f8429a08c32f54789af360001b616745565b6128d97f5570f00d23e60c3d40ab6b27046efde1a19369b8c121374c143a8f4f326d4f3660001b616745565b6129057f67efbec4683ce4d5a8c1833c8924cc37bde68450ab6270de842d7df4a245aafe60001b616745565b6129317f609f5e404b09121f25a2749bdd459c8e55dfb1ac871c0fec4994858f8163342760001b616745565b6000600260008373ffffffffffffffffffffffffffffffffffffffff1673ffffffffffffffffffffffffffffffffffffffff16815260200190815260200160002060000160009054906101000a900460ff1660ff16116129c6576040517f08c379a00000000000000000000000000000000000000000000000000000000081526004016129bd90617cf2565b60405180910390fd5b6129f27f81713bd6fc5176a3d18d12c118bfa9214a3a8ab76307accd4ea275e26368967860001b616745565b612a1e7f72a05d94c3cb7ebe36369dd3adbf6272720e7f1b05cb30ef595a6f607a521fe960001b616745565b612a4a7fd1eb6ff6029a684fab515b5a66231fa63aa2806b284f307d2c522148dddd66fe60001b616745565b612a767fb27b52f5da05e8ab6b1e048385d8fe9e8566af1646fb0626f1fd83be8db83ac160001b616745565b612aa27fb6d42af2884fe2664936e88e92618fb6ecf6dab5ec241f537b35e75a4736e3e560001b616745565b600160009054906101000a900473ffffffffffffffffffffffffffffffffffffffff1673ffffffffffffffffffffffffffffffffffffffff1663ebe6a6f3612ae8617558565b6040518263ffffffff1660e01b8152600401612b049190617c1a565b60006040518083038186803b158015612b1c57600080fd5b505afa158015612b30573d6000803e3d6000fd5b50505050612b607f2ff24a1fa492c440a68c8bc8d0dcc939b494523d0c4bf71db7bf2325e0e2558060001b616745565b612b8c7f78187b83f4b1821573d174baed25eb8fca56def7913b604dfb945db80550d87a60001b616745565b612bb87f7e3b0902db2aff6b4eb5cf6419d86ab81a71ec374fd407f6b4e983bd55362ecf60001b616745565b612be47f88f044eb12a6687782265b7693b5f485c32ac0b28709178f6ddb8e4da0b4d8f560001b616745565b6000600260008473ffffffffffffffffffffffffffffffffffffffff1673ffffffffffffffffffffffffffffffffffffffff1681526020019081526020016000209050612c537f28123f61c856f6044fd32efee44f2e78a99966395fe35f8d8bfd2dbf221afbf360001b616745565b612c7f7f8547b097f04dad4e2bfbaff4d099ac19e622e93e9305774e8c3592b261e86ada60001b616745565b600181600001600c8282829054906101000a900463ffffffff16612ca39190617fa1565b92506101000a81548163ffffffff021916908363ffffffff160217905550612ced7f2b283fd03e8d4ddb08fc997ec86a45f442ef87d509b253d3f5d505cc0105257560001b616745565b612d197fdb201d3f59121cbaf9eac7961c864d6c28310aec87430465a7e3ad97793a1d1d60001b616745565b60028160000160019054906101000a900460ff1660ff161415612ddd57612d627f87afe7b1fa22895d4e61722d6b02c06d8432ab05898fc5cf3e9e6c41c7294f3d60001b616745565b612d8e7fa7a07b75113016817df926506f31a1295882c9eff8a70c880f875a7a9721aef460001b616745565b612dba7f941663429a911757faf1e035db8a7dd41f929c18dee7e6d4be23f47398d65e9060001b616745565b60018160000160016101000a81548160ff021916908360ff160217905550612e0a565b612e097f5c789db0b22f18692159b7637dcade975556c15dd9b3661c7383cb7739d11a9f60001b616745565b5b505050565b600060029054906101000a900473ffffffffffffffffffffffffffffffffffffffff1681565b50565b600080600080612e6a7f30189993773a9732bc37658691fd519ea23dfb9b515587b5c8b0f55c4279d8e960001b616745565b612e967f74629c2a1774d6a71afd5809f22605dd2cca28cee5e0df0b8f72b7995c1d77ae60001b616745565b612ec27fb3becbb5273955d7d0a054afd71f4744204dca9e7eff98b2f7e6a4b5f0409c1160001b616745565b6000600260008773ffffffffffffffffffffffffffffffffffffffff1673ffffffffffffffffffffffffffffffffffffffff1681526020019081526020016000209050612f317f62640d1b585ce12b239d4fc7615e450eaa2596aa22aed06339ae68884fc6247260001b616745565b612f5d7ff396a1e0f5347faa77bb331b86a068b6254ac51f20854555c0a6a3469bce5d1f60001b616745565b60048160000160019054906101000a900460ff1660ff161480612f94575060008160000160009054906101000a900460ff1660ff16145b1561303157612fc57f3c86823502c19a5fefe0314168fd38b03ddb9271b2ccba1b134fbfaa97165db960001b616745565b612ff17f74cf9168dffaf6864e04d61d6c4aae9a0478bdcf7ce2771ea85f76fb45c2514f60001b616745565b61301d7f370c9a9dfb7f0ac77d6134b361a3fd68163ceb6360ab2e24bece930f23de154e60001b616745565b600080600080945094509450945050613435565b61305d7f163a2cf99818c963ceed84f377c5968710b3ea48e66620057578b99d6bfcc6d760001b616745565b6130897f65a7892e71b45b918d1e7afbcad447cd814c74fc53b8cdd4bc6cfbe0ce59a67160001b616745565b6130b57f40c86fd3d824c0e9b08c6e59515a8cfdc6758991388a51574334be70131c3c6460001b616745565b60018160000160009054906101000a900460ff1660ff1614806130ec575060028160000160009054906101000a900460ff1660ff16145b8061310b575060008160000160019054906101000a900460ff1660ff16145b156132095761313c7f63ef964145728e1cef98504a1b501d622c0fc8cf5a19743518bddc45d10294b960001b616745565b6131687fc49fc7be11530b5ee4c4db2ec04620c070ae910ccd9d21a9aa6ddec798d069e760001b616745565b6131947fbf3d654e62616c66f5640abb36a68feda56a7e86f6d2da488ff023be15cb1ff660001b616745565b60016000600360008973ffffffffffffffffffffffffffffffffffffffff1673ffffffffffffffffffffffffffffffffffffffff16815260200190815260200160002060009054906101000a900473ffffffffffffffffffffffffffffffffffffffff16612710945094509450945050613435565b6132357fccf4a7c2b5797d209fa920121cfc32a879eb3c2a00615ecd7ac300c48642164960001b616745565b6132617f8b0c468293f05f8045b906ece20aff909e6082d8ab2be19cbbc106e0414fbf4b60001b616745565b61328d7f0337f73b6b6c7fde1e3906f3da4123596f6bcfbf93330fcc6d0bbe178f274e9460001b616745565b6001600460008873ffffffffffffffffffffffffffffffffffffffff1673ffffffffffffffffffffffffffffffffffffffff16815260200190815260200160002060009054906101000a900473ffffffffffffffffffffffffffffffffffffffff16600360008973ffffffffffffffffffffffffffffffffffffffff1673ffffffffffffffffffffffffffffffffffffffff16815260200190815260200160002060009054906101000a900473ffffffffffffffffffffffffffffffffffffffff1660056000600460008c73ffffffffffffffffffffffffffffffffffffffff1673ffffffffffffffffffffffffffffffffffffffff16815260200190815260200160002060009054906101000a900473ffffffffffffffffffffffffffffffffffffffff1673ffffffffffffffffffffffffffffffffffffffff1673ffffffffffffffffffffffffffffffffffffffff16815260200190815260200160002060008a73ffffffffffffffffffffffffffffffffffffffff1673ffffffffffffffffffffffffffffffffffffffff168152602001908152602001600020549450945094509450505b9193509193565b6134687f122977523c46ce42e3f6fccadce005ccc9464e66c354a9069491704e7e4a850060001b616745565b6134947fa49ea10bd96443abd00d87e6a0498e4876b02ac4f2ec310986a87d4b13d0a22a60001b616745565b6134c07f764d0d03fd379bed99d632903611b193dd4e0599177146896ea33e4defcc420260001b616745565b6134ec7fca4772aaf0f4a5323382319a95c54d6f2dbc5e2dfd2a09815dc8a3779534835660001b616745565b60028060006134f9617558565b73ffffffffffffffffffffffffffffffffffffffff1673ffffffffffffffffffffffffffffffffffffffff16815260200190815260200160002060000160009054906101000a900460ff1660ff1614613587576040517f08c379a000000000000000000000000000000000000000000000000000000000815260040161357e90617e12565b60405180910390fd5b6135b37fa22c4b735f2023e94c52592d06ee0b239baf33a6592496982bd1738419eaf3c060001b616745565b6135df7fd6d4fcf0356e3c8ce6e7f5397847ca478d1d05fa21ccf1593e225699348e3a9f60001b616745565b8161360c7f1ff18dfca59e21735987b3addf1fe53b0b65bd5492b0f8429a08c32f54789af360001b616745565b6136387f5570f00d23e60c3d40ab6b27046efde1a19369b8c121374c143a8f4f326d4f3660001b616745565b6136647f67efbec4683ce4d5a8c1833c8924cc37bde68450ab6270de842d7df4a245aafe60001b616745565b6136907f609f5e404b09121f25a2749bdd459c8e55dfb1ac871c0fec4994858f8163342760001b616745565b6000600260008373ffffffffffffffffffffffffffffffffffffffff1673ffffffffffffffffffffffffffffffffffffffff16815260200190815260200160002060000160009054906101000a900460ff1660ff1611613725576040517f08c379a000000000000000000000000000000000000000000000000000000000815260040161371c90617cf2565b60405180910390fd5b6137517f81713bd6fc5176a3d18d12c118bfa9214a3a8ab76307accd4ea275e26368967860001b616745565b61377d7f72a05d94c3cb7ebe36369dd3adbf6272720e7f1b05cb30ef595a6f607a521fe960001b616745565b6137a97f59e56f5dfa5ac0d351bbc5f1e8339597e949b40b906adee1ed2c7cf151a40ca560001b616745565b6137d57fd340ee53461ce13289c3c70a14ee0c0901d184dd6fbc8b6315b65f776af89e7360001b616745565b6138017ff36d1f412df2c479a340304497af609d8d6f21068219acc6cd1266bcbe9440b460001b616745565b61382d7fa73b2a920785fff9c5e741c6c0529bfe4009f866d4db8b8715033b66517bea6e60001b616745565b6000600260008573ffffffffffffffffffffffffffffffffffffffff1673ffffffffffffffffffffffffffffffffffffffff16815260200190815260200160002060000160019054906101000a900460ff1660ff16116138c2576040517f08c379a00000000000000000000000000000000000000000000000000000000081526004016138b990617cd2565b60405180910390fd5b6138ee7f82561b1778dc73886769fdd01db41bdf1ac6632486712317415881674b4d0a9f60001b616745565b61391a7f11c1267f58ba268e6ebadcbe9b0d6d31929122c1a5e48aa8908b99dc4957481c60001b616745565b6139467f674ce368ec91e56c981caf81d7d47db5995de70e34a5128e616c154b519516d060001b616745565b6139727f977c90372ff088370a8dd40a9dabc2194ae367c02d47cdf4a9e8a52e82c5476d60001b616745565b61397a617558565b73ffffffffffffffffffffffffffffffffffffffff16600460008573ffffffffffffffffffffffffffffffffffffffff1673ffffffffffffffffffffffffffffffffffffffff16815260200190815260200160002060009054906101000a900473ffffffffffffffffffffffffffffffffffffffff1673ffffffffffffffffffffffffffffffffffffffff1614613a46576040517f08c379a0000000000000000000000000000000000000000000000000000000008152600401613a3d90617e32565b60405180910390fd5b613a727f6c2ad2287abfd741365aa84a4d9dea6288b6cc621a9e6a98886aae8c3e6690ef60001b616745565b613a9e7f25f9fcfb0e10dd87b6a43208abcc1263f75c90b1a38676738bde5f9c614bc3e860001b616745565b613aca7f62f95d258971b267a31bc012b5a06fde6e431141160481b0e4dd1e3d430bb6fa60001b616745565b613af67f67c5df3b41ba3e81fc863db205849342f9f897fc9b78c198c9888244934d5c3760001b616745565b6127118210613b3a576040517f08c379a0000000000000000000000000000000000000000000000000000000008152600401613b3190617d92565b60405180910390fd5b613b667f7ed44907b9c51104a94407def772e5a292e859fc409c79cd4dbcc2f7dd22a18260001b616745565b613b927fa05f97ffce6be23cc4e921f314981f227ae1075b041b6f8ce33c71bd52a5773d60001b616745565b613bbe7ffafce9f41eec73fa313685e65bc0f862fb4aaa27f52e65086f5f3331fed6d84860001b616745565b8160056000613bcb617558565b73ffffffffffffffffffffffffffffffffffffffff1673ffffffffffffffffffffffffffffffffffffffff16815260200190815260200160002060008573ffffffffffffffffffffffffffffffffffffffff1673ffffffffffffffffffffffffffffffffffffffff16815260200190815260200160002081905550613c727f1c5aa8fff0f874204d6a6d353da9adb1939c5ca1b960a9df74acee8efab41f3160001b616745565b613c9e7f2753140658fcd186689dab0e764068aad596c20fce448c6e8896f7cc9624b24c60001b616745565b7f299e739a5cbd0adcc46334ebbf6fa88633005f027775c228781ca958fc19c85883604051613ccd9190617bff565b60405180910390a1505050565b613d067ff1db9d6a086ed8e6a4071539403aa09ffbd4758981dd4395b483ace57eabcf5e60001b616745565b613d327f0f42957d213d34913c271d9c2bb7d11262b44f72f71da0cca6b7e09d1e76283f60001b616745565b613d5e7fb8f4c18071db7ffdf6fc9ff2656f18436b7093738cbdee124f3be341606fd9fd60001b616745565b613d8a7ff8acfd510a15b420d0f0388c6eea02e999d38dcaab1ddb4d0ee532eead1d5af060001b616745565b600160009054906101000a900473ffffffffffffffffffffffffffffffffffffffff1673ffffffffffffffffffffffffffffffffffffffff16632ea8de7f613dd0617558565b6040518263ffffffff1660e01b8152600401613dec9190617c1a565b60206040518083038186803b158015613e0457600080fd5b505afa158015613e18573d6000803e3d6000fd5b505050506040513d601f19601f82011682018060405250810190613e3c919061780b565b8015613ea15750600060026000613e51617558565b73ffffffffffffffffffffffffffffffffffffffff1673ffffffffffffffffffffffffffffffffffffffff16815260200190815260200160002060000160009054906101000a900460ff1660ff16145b613ee0576040517f08c379a0000000000000000000000000000000000000000000000000000000008152600401613ed790617e72565b60405180910390fd5b613f0c7fdaf1f42acbf3dfe8e53a3fc7decebb3cb1f813176612b336e0e62e5fff1a4d8960001b616745565b613f387f2a5e7552c39f06cd4dbdd5575917f75d879ff91fe781a160079dc1b31da6780460001b616745565b613f647f93dc614768d75a0b9eb291fe74f109546a3d73ed03e860640d43795b2139110160001b616745565b613f907ff9e1c01ad321699c7422439ad8810633b70195b6c632e22fb736812a00e211e060001b616745565b60018660ff161480613fa5575060038660ff16145b613fe4576040517f08c379a0000000000000000000000000000000000000000000000000000000008152600401613fdb90617db2565b60405180910390fd5b6140107f18ec6ac6e61a3283d559e316bf4acc020e0c748b6393a066648e653c373add7860001b616745565b61403c7f9f5946bca3d5f29da4b579ccf5fe61fe96a99b4e1862f8e535a0e6fb7246919760001b616745565b6140687f3bff1b3b465cfdb7bd24850f902fa3622e44399178f1a7685cfae1c3078ab73a60001b616745565b60038660ff1614156141e9576140a07f065e63a475abd5d5344dbef089fd01ae69021d9a4938267c00e925434c80985c60001b616745565b6140cc7f8590aec994cee31914335f719e3553f3db128681a0d6e6098545ac6772d6132a60001b616745565b6140f87f5695b985a9837af8fd4c29b768b850044c876fc6f7ac0e2183b86fb84b00631560001b616745565b6141247fcb196ea701712d608e2fc7930ede1c2a9a7c2001454571974b07b726be30555660001b616745565b60028060008373ffffffffffffffffffffffffffffffffffffffff1673ffffffffffffffffffffffffffffffffffffffff16815260200190815260200160002060000160009054906101000a900460ff1660ff16146141b8576040517f08c379a00000000000000000000000000000000000000000000000000000000081526004016141af90617d52565b60405180910390fd5b6141e47f38ac53de941801b7b06bd9e71ba41b84c032b313b3a1a1686bbaf70aab67d0ef60001b616745565b614216565b6142157f1a774b56986c00a5d4ed581da8650f5964d90cd7a53dc1fa03cd31d0947e7e8560001b616745565b5b6142427f734aac6a00f1e4cb5a5b8115cc99b5a5704b560fdb07662221d3f18b85b3557260001b616745565b61426e7f8f56fbad5c0a50978154806cdd95dde66bc61ba1371fd686a733d5b61c8c7b5060001b616745565b600073ffffffffffffffffffffffffffffffffffffffff168273ffffffffffffffffffffffffffffffffffffffff1614614589576142ce7ff7f6fecb7872e4ee36cc141e0f3e085308b5d0376cfaaba4e25efcad62fe17fc60001b616745565b6142fa7f9314d1192d1304074196054dfdb88e555cb2477001b5a61c373026ba080851e460001b616745565b6143267f77de5cb42f37b7d08219cb86eaafe9036d9253e66fa9ba8a9d2effb3d595abe560001b616745565b6143527f80e5fba79bcd33d1376371dc190730a382e077a9e37bdc48e2d8f4f08715797660001b616745565b61435a617558565b73ffffffffffffffffffffffffffffffffffffffff168273ffffffffffffffffffffffffffffffffffffffff161415801561443c5750600160009054906101000a900473ffffffffffffffffffffffffffffffffffffffff1673ffffffffffffffffffffffffffffffffffffffff16632ea8de7f836040518263ffffffff1660e01b81526004016143eb9190617bff565b60206040518083038186803b15801561440357600080fd5b505afa158015614417573d6000803e3d6000fd5b505050506040513d601f19601f8201168201806040525081019061443b919061780b565b5b61447b576040517f08c379a000000000000000000000000000000000000000000000000000000000815260040161447290617dd2565b60405180910390fd5b6144a77f5d301f8a41c63a1ed0be3688ceafa07bb2c5a811b6c457e2544beb719e073ef460001b616745565b6144d37f3795e7ea326ecd5a9d429137c4d94e96365c3a9b736104c29687796eaca59e6c60001b616745565b6144ff7fa40cf9212a1b7ebc1ee91b4c94388aa30a3a0a69299e400563d9344e3aed182060001b616745565b816003600061450c617558565b73ffffffffffffffffffffffffffffffffffffffff1673ffffffffffffffffffffffffffffffffffffffff16815260200190815260200160002060006101000a81548173ffffffffffffffffffffffffffffffffffffffff021916908373ffffffffffffffffffffffffffffffffffffffff1602179055506145b6565b6145b57fc12f473fcbb243336355396b3dcba5d8bcc63119a190be1ef3b31ccd29a10c7160001b616745565b5b6145e27fc012b0e4bb5f4a2743e5e54f90be8cf07dba53f2b2d7a69d0efde6ce63d8cecc60001b616745565b61460e7f13d9d897b9fd24ba645b29a46ac28e62eb35edbcf6f34a9c5bb766d133ff8ed760001b616745565b6000600190506146407fe1516b04294d4d6afeb3b15b55ba84b6da0d531fc6b1040846b6ba958de68edc60001b616745565b61466c7fac3b76c122890f4712d31689a93b1338e775e934d350fb59f0094410ae7de8c060001b616745565b60038760ff1614156147e2576146a47f2c53ac7ecd113d9b7cf8d276e7086d0476ae013429b7f0826dabb14edb26786160001b616745565b6146d07fc5f0b7ebd42e9f1ca64a78ebeb4cb70227ab545b3b41cc9aef2b4cc91bff51f060001b616745565b6146fc7f73fa5213f1eee11b557446dee82aaceb770eab029117338a68f5f3893f16c68d60001b616745565b8160046000614709617558565b73ffffffffffffffffffffffffffffffffffffffff1673ffffffffffffffffffffffffffffffffffffffff16815260200190815260200160002060006101000a81548173ffffffffffffffffffffffffffffffffffffffff021916908373ffffffffffffffffffffffffffffffffffffffff1602179055506147ad7f7ea285927c141f00951483cead6479cfb3d2af2912e2da5d032daaac9b30c7f960001b616745565b6147d97f732deabccc2fc1239a4b0cb02eba89624c0ec54740d6d857819347b08c9231bf60001b616745565b6000905061480f565b61480e7fe2dcda266e2840c80364eea3da230f857c4f6e0e023ebed30e61782efd55bad060001b616745565b5b61483b7f60fce933361665b293febe0bce128a07ff2b0091f903b44f52e4e60a43c3ed1460001b616745565b6148677fec1c5cba964645f5c2aad42274da55a0e3298932b751c4d37d672e8905b976b660001b616745565b600060026000614875617558565b73ffffffffffffffffffffffffffffffffffffffff1673ffffffffffffffffffffffffffffffffffffffff16815260200190815260200160002090506148dd7f51265f1890808029b484ee1aaeb911b9b786d6b00db21cfbce641162a353dd1a60001b616745565b6149097fd552432f49241d81f8745a01040c9fd3bc0e899c29dc414062939b0055ba022b60001b616745565b878160000160006101000a81548160ff021916908360ff1602179055506149527f5d5295af4742345732df7906e8cde8e4eb1f60bdffc1bf7565f2da8b0b2e48c260001b616745565b61497d7e44f8713d84302c227202c3c68f275f69b4feb3a7b296254ce8d083c5bcf85660001b616745565b818160000160016101000a81548160ff021916908360ff1602179055506149c67f0e7c248b3648562b8ce29970f6a53602f832af1f85001d8572db72329b65e9e660001b616745565b6149f27f6a78ec3885b3274ae380bd445559640e5f2e474b57349dc650682f60bb535c5360001b616745565b848160000160026101000a81548161ffff021916908361ffff160217905550614a3d7f612c852a25971349d6db2b168433a0ceec90a5a79a547d9940559f6c5e35d79c60001b616745565b614a697fadc36bcfccdc4cc07ab55ece0611fed63737ecb17af2780b00256b7407159ba960001b616745565b60648160000160086101000a81548163ffffffff021916908363ffffffff160217905550614ab97ff078ac0ad4619799595102525d96d5081fc3d92156fb6ad8f08a9fb60421941260001b616745565b614ae57f519885a365204abe20a0cdd85e0833d272f87febe01074a408914c1287be293a60001b616745565b868160000160106101000a81548167ffffffffffffffff021916908367ffffffffffffffff160217905550614b3c7fd1d3a7c1ee5702ae8b7e8465449a70a3371e73ee7bf5b101cea84860c477c70e60001b616745565b614b687fdd1c6983beb4070950bf5154b50a88ff997223949725441b1b7eea3eec7a12ca60001b616745565b858160000160186101000a81548167ffffffffffffffff021916908367ffffffffffffffff160217905550614bbf7f52066b8e8b8d6432e4984cbea796be0010831cd0aee1be90666b76031962747760001b616745565b614beb7f07ad61a2cdfc20fe331790359b8d0b2608087a8f4d40b397755e9b29309a29ff60001b616745565b7faa5bec23e1711684675ce971f1c0682f7766d3c8e2770fc3135010ea8ead9f0e614c14617558565b604051614c219190617c1a565b60405180910390a15050505050505050565b614c5f7f122977523c46ce42e3f6fccadce005ccc9464e66c354a9069491704e7e4a850060001b616745565b614c8b7fa49ea10bd96443abd00d87e6a0498e4876b02ac4f2ec310986a87d4b13d0a22a60001b616745565b614cb77f764d0d03fd379bed99d632903611b193dd4e0599177146896ea33e4defcc420260001b616745565b614ce37fca4772aaf0f4a5323382319a95c54d6f2dbc5e2dfd2a09815dc8a3779534835660001b616745565b6002806000614cf0617558565b73ffffffffffffffffffffffffffffffffffffffff1673ffffffffffffffffffffffffffffffffffffffff16815260200190815260200160002060000160009054906101000a900460ff1660ff1614614d7e576040517f08c379a0000000000000000000000000000000000000000000000000000000008152600401614d7590617e12565b60405180910390fd5b614daa7fa22c4b735f2023e94c52592d06ee0b239baf33a6592496982bd1738419eaf3c060001b616745565b614dd67fd6d4fcf0356e3c8ce6e7f5397847ca478d1d05fa21ccf1593e225699348e3a9f60001b616745565b81614e037f1ff18dfca59e21735987b3addf1fe53b0b65bd5492b0f8429a08c32f54789af360001b616745565b614e2f7f5570f00d23e60c3d40ab6b27046efde1a19369b8c121374c143a8f4f326d4f3660001b616745565b614e5b7f67efbec4683ce4d5a8c1833c8924cc37bde68450ab6270de842d7df4a245aafe60001b616745565b614e877f609f5e404b09121f25a2749bdd459c8e55dfb1ac871c0fec4994858f8163342760001b616745565b6000600260008373ffffffffffffffffffffffffffffffffffffffff1673ffffffffffffffffffffffffffffffffffffffff16815260200190815260200160002060000160009054906101000a900460ff1660ff1611614f1c576040517f08c379a0000000000000000000000000000000000000000000000000000000008152600401614f1390617cf2565b60405180910390fd5b614f487f81713bd6fc5176a3d18d12c118bfa9214a3a8ab76307accd4ea275e26368967860001b616745565b614f747f72a05d94c3cb7ebe36369dd3adbf6272720e7f1b05cb30ef595a6f607a521fe960001b616745565b614fa07fec29926a99283e52b922e890d70c3c87f9c187d8b41f155542e74ba7c729321c60001b616745565b614fcc7fb7ece4cc4402d4fc63c336229837ef370cad295265c2d557ff19358712b92f8b60001b616745565b614ff87fdae0b60dbbb59b9e6b02891ae2b5c121fc0428e25755672ecc4d7cf74f4fb30960001b616745565b6150247f78ce2775cc9c81f5bb06a6672c079ea7172549b88f5b8130340d85d34656c01d60001b616745565b61502c617558565b73ffffffffffffffffffffffffffffffffffffffff16600460008573ffffffffffffffffffffffffffffffffffffffff1673ffffffffffffffffffffffffffffffffffffffff16815260200190815260200160002060009054906101000a900473ffffffffffffffffffffffffffffffffffffffff1673ffffffffffffffffffffffffffffffffffffffff1614801561511757506000600260008573ffffffffffffffffffffffffffffffffffffffff1673ffffffffffffffffffffffffffffffffffffffff16815260200190815260200160002060000160019054906101000a900460ff1660ff16145b615156576040517f08c379a000000000000000000000000000000000000000000000000000000000815260040161514d90617e92565b60405180910390fd5b6151827f5a5e15cba67e80a4e53feabb07f9cbe94d3d735dca3eb49a35433ad5911ea17c60001b616745565b6151ae7f0c112d89f194f555bb2f54ee8f1ca6eb91b1c17f090ea02b48eff3a4192a609d60001b616745565b6151da7f4a67ccdcd7ad00c9e24c1bb4abe0f59dd2c33b8f0aaccc74c69fb35b0f5d2a8960001b616745565b6000600260008573ffffffffffffffffffffffffffffffffffffffff1673ffffffffffffffffffffffffffffffffffffffff16815260200190815260200160002090506152497f50fa8115a4fc050e624625888f1c206490573a67794e834282914c67bfbdc94e60001b616745565b6152757f32fb40e27d48c7ccddc6c047cbb159789d18e169c36f0aa1463e8072799b8d4a60001b616745565b82156153b1576152a77f84862d97962d386c1cbf6c23eece695b87ab969cdc9b6b871e2e39a10f93c75860001b616745565b6152d37fed284989734772dac9ed243b48a3cd70715ecaa2919dcaf668b63a32464b63d460001b616745565b6152ff7f651694c09bbdfcb045ca03bdfd68c9451a25b18bbacec4aa6eece2f476625aec60001b616745565b60018160000160016101000a81548160ff021916908360ff1602179055506153497f49e50820b7f247eed910bfff43511845712904fa2c0ffb8f36eb7df827ab01b360001b616745565b6153757f836b7817ff9d7e79a0d4e52ec22d7506fbc1bd8a5c638a6b898f1e829ee661da60001b616745565b7f051b4b22140b33d543a888666188b0b245a0bec5a5fbad9a7056a5466bad0f48846040516153a49190617bff565b60405180910390a1615630565b6153dd7f530a7bf5305d81ebab82243510d4f45c60220d799492964bb04e1a09dda04f3960001b616745565b6154097f0b0bd6d44b5e64cfa1db503acd61bd10f9c05d4b4a890bfd87b8bc4415e6b4fa60001b616745565b6154357ff97d821a371d50de3122c270c1bbbbbc4327b872be5812fbc942d1c0dc09caf260001b616745565b60018160000160016101000a81548160ff021916908360ff16021790555061547f7fc8533538c5146542bdb4bf4ec331d07cf6b71532322789b48c35fe395b817ea460001b616745565b6154ab7fe690544676c47a442c7b9d304f626592e60c8b1e3c35c4100cb288b48774213860001b616745565b60018160000160006101000a81548160ff021916908360ff1602179055506154f57ff143bb3196ead42d663da28bac0a7a25c1569ed508b88fd0eea6ee92c8a7bd0a60001b616745565b6155217fdd3f392b4e6378f43ef7c552bf7ae5051189dfccbc8394491dd41ca8a395f0b060001b616745565b6000600460008673ffffffffffffffffffffffffffffffffffffffff1673ffffffffffffffffffffffffffffffffffffffff16815260200190815260200160002060006101000a81548173ffffffffffffffffffffffffffffffffffffffff021916908373ffffffffffffffffffffffffffffffffffffffff1602179055506155cc7fe729f603296c01e837bb44e2743f4b3b8fb2a3bdb0b2b0bab30f58de8123ea2f60001b616745565b6155f87f9ecde7ef3123396e40c73111166ddaaf01ad855f085e6b5ccaa47c78eb90761e60001b616745565b7f79101b3eb6902749f086c56104914b9b6a60917c4a7bdccb2291d6d13d61468b846040516156279190617bff565b60405180910390a15b50505050565b60036020528060005260406000206000915054906101000a900473ffffffffffffffffffffffffffffffffffffffff1681565b6000816156987f1ff18dfca59e21735987b3addf1fe53b0b65bd5492b0f8429a08c32f54789af360001b616745565b6156c47f5570f00d23e60c3d40ab6b27046efde1a19369b8c121374c143a8f4f326d4f3660001b616745565b6156f07f67efbec4683ce4d5a8c1833c8924cc37bde68450ab6270de842d7df4a245aafe60001b616745565b61571c7f609f5e404b09121f25a2749bdd459c8e55dfb1ac871c0fec4994858f8163342760001b616745565b6000600260008373ffffffffffffffffffffffffffffffffffffffff1673ffffffffffffffffffffffffffffffffffffffff16815260200190815260200160002060000160009054906101000a900460ff1660ff16116157b1576040517f08c379a00000000000000000000000000000000000000000000000000000000081526004016157a890617cf2565b60405180910390fd5b6157dd7f81713bd6fc5176a3d18d12c118bfa9214a3a8ab76307accd4ea275e26368967860001b616745565b6158097f72a05d94c3cb7ebe36369dd3adbf6272720e7f1b05cb30ef595a6f607a521fe960001b616745565b6158357fd1eb6ff6029a684fab515b5a66231fa63aa2806b284f307d2c522148dddd66fe60001b616745565b6158617fb27b52f5da05e8ab6b1e048385d8fe9e8566af1646fb0626f1fd83be8db83ac160001b616745565b61588d7fb6d42af2884fe2664936e88e92618fb6ecf6dab5ec241f537b35e75a4736e3e560001b616745565b600160009054906101000a900473ffffffffffffffffffffffffffffffffffffffff1673ffffffffffffffffffffffffffffffffffffffff1663ebe6a6f36158d3617558565b6040518263ffffffff1660e01b81526004016158ef9190617c1a565b60006040518083038186803b15801561590757600080fd5b505afa15801561591b573d6000803e3d6000fd5b5050505061594b7f2ff24a1fa492c440a68c8bc8d0dcc939b494523d0c4bf71db7bf2325e0e2558060001b616745565b6159777f28b1d3b27bc0b924103ea51fc98fa86367e11ad82b4b6bdbf476e9997d4b21b860001b616745565b6159a37fb752c3f79fedde24fdfb3a66bc36e70ae6c0e334702b9a5c9fdb532acbfe62f860001b616745565b6159cf7f919287c3b57efd4ed757db294b9c0b87700bc98c9e2abb94cc4aa3fa59a7d9eb60001b616745565b6000600260008573ffffffffffffffffffffffffffffffffffffffff1673ffffffffffffffffffffffffffffffffffffffff1681526020019081526020016000209050615a3e7f3065f46c73e36d6c8ef378688c85e4a1c5ed1890f494480a390041186bc8ac6f60001b616745565b615a6a7f9eabe472d073eab357329cca2051354e0560a479b3939335186d483b08e59fde60001b616745565b60018160000160019054906101000a900460ff1660ff161415615d1757615ab37fa52bc613ee92171ddd0cf35edadea49beebfd15b07dd31d762fc66b2506a5a7e60001b616745565b615adf7f96e76e6fb46bac82a1eb428ead8644c5f78fc77dcd226069603598d2bb16b5cc60001b616745565b615b0b7f7724a9de712ec9f11b5854da8e4b7bb82fc36590a8af21233de41a6d9c46467060001b616745565b600181600001600c8282829054906101000a900463ffffffff16615b2f9190617f67565b92506101000a81548163ffffffff021916908363ffffffff160217905550615b797f3f7ea84b51f673ef34074b39f75159f5648dd36e9405c0375c7503d5552ac46460001b616745565b615ba57f29ab4c841694f7972a757285c52038902479c80c751db23d26d9474ee747607360001b616745565b8060000160089054906101000a900463ffffffff1663ffffffff1681600001600c9054906101000a900463ffffffff1663ffffffff161415615c8857615c0d7f6292e570c4c668fbe538fe011b427b95aa54c3215b85182480661f11bb009f0460001b616745565b615c397f8327cdcea9e753617732ddcc0402d3399aec6114995e281f77094da4934290ae60001b616745565b615c657fe6d24551da899680b7e31fcb1a5bd00fc191183cefcd83e33183e0b194539e4a60001b616745565b60028160000160016101000a81548160ff021916908360ff160217905550615cb5565b615cb47f3a14d396057548c607fe6f639965c867e286246d99fd20149c2b36f3efe38ac660001b616745565b5b615ce17f5ecb91bd8a60f3516aa2836265b6d47b06b1540607df67d1efb311fd6fecae2a60001b616745565b615d0d7ffe8d9f7b7b6960fed5d587e0cf4df4a4eaf22ced1f8448cf1dae7756330a74eb60001b616745565b6001925050615da1565b615d437f868d1b5d9c043d5529b154c1b4372f7ab41e4d24dc292f8e5f1533cdb1ac2fef60001b616745565b615d6f7f8e1226184a44fc1a05fa38bb2a2404f1884bf85f3270573cca315e928e39649760001b616745565b615d9b7faf9cc5e3af7f64dc0631f74179541042660c110bfbd78d2050ffd19ac5461d8660001b616745565b60009250505b50919050565b600060019054906101000a900460ff1680615dcd575060008054906101000a900460ff16155b615e0c576040517f08c379a0000000000000000000000000000000000000000000000000000000008152600401615e0390617d72565b60405180910390fd5b60008060019054906101000a900460ff161590508015615e5c576001600060016101000a81548160ff02191690831515021790555060016000806101000a81548160ff0219169083151502179055505b615e887f555e35aa1f1d149c8158dab22d4ce3ba431e82d1a13f8a0ed281d721573441c260001b616745565b615eb47fa5b330df22ba794219ca6fcfb88869dc3468f8c7c309bd22647f606209cf8cc360001b616745565b615ee07f6f46cc4eae3ef1e31854b9e962452c6c0e38872428fbf65cb1f226902ff101ff60001b616745565b6000829050615f117f09fb77b2877286644e7bb195d218ee10bc533f0961921069022d54db4d24f90860001b616745565b615f3d7f8a0d45d69cc9f4f6c12820954fcffe0f50d9c01e076437acef31dc77d7acd87560001b616745565b615f697f1d3cc1cfae83ba1ddaf5fe8e1d52cbe934ff9b1cff90dd566f5cf1edf6b4a73660001b616745565b8073ffffffffffffffffffffffffffffffffffffffff1663ba84fd696040518163ffffffff1660e01b815260040160206040518083038186803b158015615faf57600080fd5b505afa158015615fc3573d6000803e3d6000fd5b505050506040513d601f19601f82011682018060405250810190615fe7919061780b565b615ff057600080fd5b61601c7fd4b604a8908609a6d5253f303e5fca4bea1ddbd2be2910a9bcd712059975d94560001b616745565b6160487f7a21327ba475115c10c611b70ea99aa0adf785d3e589bed857a5ccc3bedcdbbb60001b616745565b6160747fc5c43f0bded99cc00996d40a3b684a9bd4e50dbecc57e1dded3ab511cd4d66b260001b616745565b6001600060166101000a81548160ff0219169083151502179055506160bb7f3821ce495287c567572419a3e858a572156677a9659359e8f1341d97ed7fd42f60001b616745565b6160e77f687e312451508320cf026c12dcceba4032739379f41f35f2831848d41a8a7e5b60001b616745565b80600160006101000a81548173ffffffffffffffffffffffffffffffffffffffff021916908373ffffffffffffffffffffffffffffffffffffffff16021790555050801561614a5760008060016101000a81548160ff0219169083151502179055505b5050565b60026020528060005260406000206000915090508060000160009054906101000a900460ff16908060000160019054906101000a900460ff16908060000160029054906101000a900461ffff16908060000160049054906101000a900463ffffffff16908060000160089054906101000a900463ffffffff169080600001600c9054906101000a900463ffffffff16908060000160109054906101000a900467ffffffffffffffff16908060000160189054906101000a900467ffffffffffffffff16905088565b600160009054906101000a900473ffffffffffffffffffffffffffffffffffffffff1681565b6162687feb9d0dd00a8421ea81a359e83892b7fd9156073eabe24af40bb0b58c281bb59360001b616745565b6162947fe2342833ecf1acb2957d841457aa7d97233c6af16d87ef810503c65134f50d5160001b616745565b6162c07f8021cfd7fe9c37a661e0bd0d93da5c034dfc98bfc8bbfdba35a54aef7e9c6de960001b616745565b600160009054906101000a900473ffffffffffffffffffffffffffffffffffffffff1673ffffffffffffffffffffffffffffffffffffffff16638413ec14616306617558565b6040518263ffffffff1660e01b81526004016163229190617c1a565b60006040518083038186803b15801561633a57600080fd5b505afa15801561634e573d6000803e3d6000fd5b5050505061637e7f5016a7af825942d0ca5c66027096c1b4cd7b9752beff07db604b68cf1a507fe560001b616745565b806163ab7f9d92442d54bf862d2797e3e675ef2a4c77183f7bb58bffc96b165ba3f52e252560001b616745565b6163d77f69661f61495339df377077bc68c72c2523e2fa756d204ce02c1c8e7d4eb426ac60001b616745565b6164037fa7af1932ece72f0edc792a3abad0fcb2acb1cd29e8d05630d83f3af85d3c113560001b616745565b61642f7fee725099a1989305c7a6541a52d2c73470f7ab486117d0ed014fb520fa4f7a8760001b616745565b600073ffffffffffffffffffffffffffffffffffffffff168173ffffffffffffffffffffffffffffffffffffffff16141561649f576040517f08c379a000000000000000000000000000000000000000000000000000000000815260040161649690617d32565b60405180910390fd5b6164cb7f4fbab3b3ec509a395d85d1ee4fb7875e4a6f5ae8b427849aecd1da33a4083b0b60001b616745565b6164f77f80a019ff8dcdae14b0c452f5b94fabbae94084b250f7af629812bd30045e7a7f60001b616745565b6165237fc0d001dedbc7da3142b36761c30b28a0b987cb734cfa0559632cc297bbd5e36860001b616745565b61654f7f29293abe6a09b34160f7a6d2b416a5978bac324bfe9203215b33bf3ff5358b3760001b616745565b61657b7f8f93977dcf92f5c8587c5ee856fe455e8c7c2cb20cf059c992c0e162824615ab60001b616745565b81600060026101000a81548173ffffffffffffffffffffffffffffffffffffffff021916908373ffffffffffffffffffffffffffffffffffffffff1602179055505050565b60006165ee7f0a60da3fd88ac53efcf09c3dc99fd9a4378e09eb49eb86701f99c50cd1ac68ab60001b616745565b61661a7f5f28ab3fd2f5e47c94599f99dc9239d0bbbf9a2ec7cd3d3895b616d3b1fae6cf60001b616745565b6166467fe312611712bed8833b6e111795d59fd273e5bb2610a40c06606b2900a62bcd5260001b616745565b6000600260008473ffffffffffffffffffffffffffffffffffffffff1673ffffffffffffffffffffffffffffffffffffffff16815260200190815260200160002090506166b57f07073056da1d503f05350dfc59711e7e38fd50d484a5797b3f1cfbbe3e78c93f60001b616745565b6166e17f81856caa8ae347b9c2a1d13aa7079af6ce26309bdae1fa3b6e28de73084e031c60001b616745565b60018160000160019054906101000a900460ff1660ff161480616718575060028160000160009054906101000a900460ff1660ff16145b915050919050565b6005602052816000526040600020602052806000526040600020600091509150505481565b50565b616750617558565b61677c7f1ff18dfca59e21735987b3addf1fe53b0b65bd5492b0f8429a08c32f54789af360001b616745565b6167a87f5570f00d23e60c3d40ab6b27046efde1a19369b8c121374c143a8f4f326d4f3660001b616745565b6167d47f67efbec4683ce4d5a8c1833c8924cc37bde68450ab6270de842d7df4a245aafe60001b616745565b6168007f609f5e404b09121f25a2749bdd459c8e55dfb1ac871c0fec4994858f8163342760001b616745565b6000600260008373ffffffffffffffffffffffffffffffffffffffff1673ffffffffffffffffffffffffffffffffffffffff16815260200190815260200160002060000160009054906101000a900460ff1660ff1611616895576040517f08c379a000000000000000000000000000000000000000000000000000000000815260040161688c90617cf2565b60405180910390fd5b6168c17f81713bd6fc5176a3d18d12c118bfa9214a3a8ab76307accd4ea275e26368967860001b616745565b6168ed7f72a05d94c3cb7ebe36369dd3adbf6272720e7f1b05cb30ef595a6f607a521fe960001b616745565b6169197f231b73caec69ebcc33686d2a952a78335c7a1fb624bb72068673adb3ff49bf8c60001b616745565b6169457f845164603f48060516510c03cae40752dbfafcdf965f4c84f70071d0b3337b3560001b616745565b6169717f95e099d5b534b7fab8d668fd8dbb175d8364db7e2326db7d6561669f0f1ca62860001b616745565b61699d7f3aec6bae77ef8f6a4fb499be892c162c269cb887a3e372c258bbd049f71a1f8a60001b616745565b60018360ff1614806169b2575060038360ff16145b6169f1576040517f08c379a00000000000000000000000000000000000000000000000000000000081526004016169e890617db2565b60405180910390fd5b616a1d7f6a7bede875714f9e08a9b93f9dbb99a6e8b201f1362a8c4f4ed1774796ad41a060001b616745565b616a497fa66a774df4e172c7b22fbf39cdc2e326eaf84c1cb25f2113bca9df49160e83c560001b616745565b616a757f4f8b97e2be7aba93147ffa1e704a29f694ae9cdcf406207f6b2e1f6a6fa6cb9860001b616745565b600060026000616a83617558565b73ffffffffffffffffffffffffffffffffffffffff1673ffffffffffffffffffffffffffffffffffffffff1681526020019081526020016000209050616aeb7f5c5876bc4572e8e9a4788502e2b94bcf4363e4264b65fbe4f8d924850b04dcf560001b616745565b616b177f58f45fe2ecbf56d3ed723c5022f3b3fc95d260235c2ac843e35dd932c6cc3d7d60001b616745565b616b437f1878b6076d6adea9ec5cb7f9dcdf368a1bde219b6e1bc5fee50f27190271993c60001b616745565b60008160000160019054906101000a900460ff1660ff161480616b7a575060018160000160019054906101000a900460ff1660ff16145b616bb9576040517f08c379a0000000000000000000000000000000000000000000000000000000008152600401616bb090617cd2565b60405180910390fd5b616be57fa66d4fdd1f6409e601c79c1e343be514307ca166c041d59ca1e1cc14d949b4a660001b616745565b616c117f03fd0805659f810c3ba196b488c86ef0bef05eb41bc26760544fd3a633a75bd960001b616745565b616c3d7fcaa0b6fcba7dca0dfeadf2cac7b617a1596ebc5ed6103a9612cac49c7c62ee8960001b616745565b616c697fa270494f1fb34aaaa1a0ec9d19202fe684e6e7101c89486ae0ae3b5f9babcb9660001b616745565b60028160000160009054906101000a900460ff1660ff161415616cc1576040517f08c379a0000000000000000000000000000000000000000000000000000000008152600401616cb890617d12565b60405180910390fd5b616ced7f3b7d342254f237a13652cc0b620151e65b4ae49e0d550098df1e61eefc78609e60001b616745565b616d197f33a9174acd385a8251f173e98d5f1ebe6811d2fdf13340b7ed9c325a244aa72a60001b616745565b616d457f03fdb5e0f8d70edabaeda1c094f0b956767a35e1d3f4e84fafdcafc008c2300f60001b616745565b60038460ff16141561701957616d7d7f019342d2aacd0129327a7c61eee6bb17de84fc885373f0cc3f5a170435d9058960001b616745565b616da97f72dad79141c48494c149b7249d3a96249cae93f19528a0f38dee502faefc282f60001b616745565b616dd57f579b4a75fccb6a342918cf1add4ceaa43e42fd7f94069734f04750a52bd3206360001b616745565b616e017fb2210cd79cd9ca056054cbaacbf3ccd780626d85e22ffdbcde26f32047b8fb0960001b616745565b60028060008573ffffffffffffffffffffffffffffffffffffffff1673ffffffffffffffffffffffffffffffffffffffff16815260200190815260200160002060000160009054906101000a900460ff1660ff1614616e95576040517f08c379a0000000000000000000000000000000000000000000000000000000008152600401616e8c90617d52565b60405180910390fd5b616ec17fd24b056c6fdf59eeb334a9633e903d4b3204bde0649a7425f9d5d6658a6de2c260001b616745565b616eed7fb604ab367393f0327c4fc2506fdda22b46e48a23e51d88f5be57290c1349f3f860001b616745565b616f197ff7c54b0a866465b8e151682eec4293a6d69d3bced5418c1ca83b918b67b9803b60001b616745565b8260046000616f26617558565b73ffffffffffffffffffffffffffffffffffffffff1673ffffffffffffffffffffffffffffffffffffffff16815260200190815260200160002060006101000a81548173ffffffffffffffffffffffffffffffffffffffff021916908373ffffffffffffffffffffffffffffffffffffffff160217905550616fca7f33f043efe4622cf3968c7626fdbed5ee6f899c05b7f761f61bd707752bed62ee60001b616745565b616ff67fc6c2ae55132eccf590f05cad34168b7baa5d21b9f785ff535feea70c5d3e397960001b616745565b60008160000160016101000a81548160ff021916908360ff160217905550617447565b6170457f210155bc68c4e8fdf62222cbf8d5ad42749f271adb96052549807fd715c5acbb60001b616745565b6170717f13a93305eccf1a5fd5b76ec2065ae588770eadfda52c175ea35e4136f6d8b3c960001b616745565b61709d7f73a134c69950c7d1075df5485e31e10556f2c400a772a043097f415418e4a6a760001b616745565b6170c97f26ff2823caabaecd8c1f770dadc898ea4cf73a6f59a8a73b3701fef19dc9030d60001b616745565b60038160000160009054906101000a900460ff1660ff1614617120576040517f08c379a000000000000000000000000000000000000000000000000000000000815260040161711790617e52565b60405180910390fd5b61714c7f97e26b991f886f9363a8402af87e3f78f4785059501d355ac64f7e1f9e28758b60001b616745565b6171787f14906152d5198af214abe77eba07a3ecccf29ee7fe11493276b820d85a5bbba460001b616745565b6171a47f15a5f3174be810a0212312e1ee163a2531db92a5bc91258270ce00a6a7453a2a60001b616745565b60038160000160009054906101000a900460ff1660ff1614156172d0576171ed7febadb982f8ec62336e882f2d37acf88d104d1623aa7ab1d4802335e2203c8ffa60001b616745565b6172197f918ee4407f49992b493b1f68626d626f97c2f607ecafd375cac0545e1053b2b460001b616745565b6172457f3b4f35f2336ae037155c02b827f5d23df1b2e87c713e9af0a9082ef327a8e45d60001b616745565b600060046000617253617558565b73ffffffffffffffffffffffffffffffffffffffff1673ffffffffffffffffffffffffffffffffffffffff16815260200190815260200160002060006101000a81548173ffffffffffffffffffffffffffffffffffffffff021916908373ffffffffffffffffffffffffffffffffffffffff1602179055506172fd565b6172fc7fc4a5e1e640f46d4b567cde2428b3944455ca1847f8dbeadfc4fe27ec02cf7ba360001b616745565b5b6173297f324c8788e9417db0f80c2962c9e36eda31cda1f8dff47dd1fe96f9707076ca9460001b616745565b6173557f41313df232c2cbdd3cd6410673aa04962e42f07a665f77ccd3c93051f282014260001b616745565b60008160000160019054906101000a900460ff1660ff1614156174195761739e7f968aee6b95d67e6184e42efea3458c442e09d30ee57ed6d61c3a046c3cb93ec960001b616745565b6173ca7ffd4217a2958fa806e34c3e4e10cecb0abb7569d0bfdbf5c452e246975ce3955a60001b616745565b6173f67f8dc77aec593522c5ba57005be6c0a686a5cf2ad97622612cc6135902adc6d61b60001b616745565b60018160000160016101000a81548160ff021916908360ff160217905550617446565b6174457f22a502cf58ffabfe73eadf1579badd389051f682774d16f1a205f83d2da75f9760001b616745565b5b5b6174737f607e81ffe0d67da726fa3aab539e32b58c92b7ebd0371626c56b54ced553151260001b616745565b61749f7fc7470c5f7a9bd09ae9078ffb54f706380c00a5c108fc6506000b9e82f3fbc9a160001b616745565b838160000160006101000a81548160ff021916908360ff1602179055506174e87f016104d2600bcfcda16dd3170b2b89f9924dfc91f7a774fe8e883eb22b195b4760001b616745565b6175147f091617b049432597469fdd334655b987fa7518ea5a620cef1e0dd62b1a874c8e60001b616745565b7f4f4c4d7a603e71ff6fc5aca4b16d1aee54c290be7eb4b17a72535c562724ce7661753d617558565b60405161754a9190617c1a565b60405180910390a150505050565b60006014600036905010158015617574575061757333612116565b5b1561758857601436033560601c9050617590565b339050617591565b5b90565b6000813590506175a3816183eb565b92915050565b6000813590506175b881618402565b92915050565b6000815190506175cd81618402565b92915050565b6000813590506175e281618419565b92915050565b6000813590506175f781618430565b92915050565b60008135905061760c81618447565b92915050565b6000813590506176218161845e565b92915050565b60008135905061763681618475565b92915050565b60008135905061764b8161848c565b92915050565b60006020828403121561766757617666618122565b5b600061767584828501617594565b91505092915050565b6000806040838503121561769557617694618122565b5b60006176a385828601617594565b92505060206176b485828601617594565b9150509250929050565b600080604083850312156176d5576176d4618122565b5b60006176e385828601617594565b92505060206176f4858286016175a9565b9150509250929050565b6000806040838503121561771557617714618122565b5b600061772385828601617594565b9250506020617734858286016175fd565b9150509250929050565b6000806040838503121561775557617754618122565b5b600061776385828601617594565b925050602061777485828601617612565b9150509250929050565b60008060008060008060c0878903121561779b5761779a618122565b5b60006177a989828a01617594565b96505060206177ba89828a01617627565b95505060406177cb89828a01617627565b94505060606177dc89828a016175e8565b93505060806177ed89828a01617612565b92505060a06177fe89828a01617594565b9150509295509295509295565b60006020828403121561782157617820618122565b5b600061782f848285016175be565b91505092915050565b60006020828403121561784e5761784d618122565b5b600061785c848285016175d3565b91505092915050565b6000806040838503121561787c5761787b618122565b5b600061788a8582860161763c565b925050602061789b85828601617594565b9150509250929050565b60008060008060008060c087890312156178c2576178c1618122565b5b60006178d089828a0161763c565b96505060206178e189828a01617627565b95505060406178f289828a01617627565b945050606061790389828a016175e8565b935050608061791489828a01617594565b92505060a061792589828a01617594565b9150509295509295509295565b61793b81618066565b82525050565b61794a81617fd5565b82525050565b61795981617fe7565b82525050565b61796881618078565b82525050565b600061797982617f4b565b6179838185617f56565b93506179938185602086016180c0565b61799c81618127565b840191505092915050565b60006179b4601683617f56565b91506179bf82618138565b602082019050919050565b60006179d7601683617f56565b91506179e282618161565b602082019050919050565b60006179fa601d83617f56565b9150617a058261818a565b602082019050919050565b6000617a1d600f83617f56565b9150617a28826181b3565b602082019050919050565b6000617a40601e83617f56565b9150617a4b826181dc565b602082019050919050565b6000617a63602e83617f56565b9150617a6e82618205565b604082019050919050565b6000617a86601783617f56565b9150617a9182618254565b602082019050919050565b6000617aa9601e83617f56565b9150617ab48261827d565b602082019050919050565b6000617acc601383617f56565b9150617ad7826182a6565b602082019050919050565b6000617aef601083617f56565b9150617afa826182cf565b602082019050919050565b6000617b12601b83617f56565b9150617b1d826182f8565b602082019050919050565b6000617b35601583617f56565b9150617b4082618321565b602082019050919050565b6000617b58601d83617f56565b9150617b638261834a565b602082019050919050565b6000617b7b601983617f56565b9150617b8682618373565b602082019050919050565b6000617b9e602283617f56565b9150617ba98261839c565b604082019050919050565b617bbd81617ffd565b82525050565b617bcc8161802b565b82525050565b617bdb81618035565b82525050565b617bea81618045565b82525050565b617bf981618059565b82525050565b6000602082019050617c146000830184617941565b92915050565b6000602082019050617c2f6000830184617932565b92915050565b6000602082019050617c4a6000830184617950565b92915050565b6000608082019050617c656000830187617950565b617c726020830186617941565b617c7f6040830185617941565b617c8c6060830184617bc3565b95945050505050565b6000602082019050617caa600083018461795f565b92915050565b60006020820190508181036000830152617cca818461796e565b905092915050565b60006020820190508181036000830152617ceb816179a7565b9050919050565b60006020820190508181036000830152617d0b816179ca565b9050919050565b60006020820190508181036000830152617d2b816179ed565b9050919050565b60006020820190508181036000830152617d4b81617a10565b9050919050565b60006020820190508181036000830152617d6b81617a33565b9050919050565b60006020820190508181036000830152617d8b81617a56565b9050919050565b60006020820190508181036000830152617dab81617a79565b9050919050565b60006020820190508181036000830152617dcb81617a9c565b9050919050565b60006020820190508181036000830152617deb81617abf565b9050919050565b60006020820190508181036000830152617e0b81617ae2565b9050919050565b60006020820190508181036000830152617e2b81617b05565b9050919050565b60006020820190508181036000830152617e4b81617b28565b9050919050565b60006020820190508181036000830152617e6b81617b4b565b9050919050565b60006020820190508181036000830152617e8b81617b6e565b9050919050565b60006020820190508181036000830152617eab81617b91565b9050919050565b6000602082019050617ec76000830184617bc3565b92915050565b600061010082019050617ee3600083018b617bf0565b617ef0602083018a617bf0565b617efd6040830189617bb4565b617f0a6060830188617bd2565b617f176080830187617bd2565b617f2460a0830186617bd2565b617f3160c0830185617be1565b617f3e60e0830184617be1565b9998505050505050505050565b600081519050919050565b600082825260208201905092915050565b6000617f7282618035565b9150617f7d83618035565b92508263ffffffff03821115617f9657617f956180f3565b5b828201905092915050565b6000617fac82618035565b9150617fb783618035565b925082821015617fca57617fc96180f3565b5b828203905092915050565b6000617fe08261800b565b9050919050565b60008115159050919050565b6000819050919050565b600061ffff82169050919050565b600073ffffffffffffffffffffffffffffffffffffffff82169050919050565b6000819050919050565b600063ffffffff82169050919050565b600067ffffffffffffffff82169050919050565b600060ff82169050919050565b60006180718261809c565b9050919050565b60006180838261808a565b9050919050565b60006180958261800b565b9050919050565b60006180a7826180ae565b9050919050565b60006180b98261800b565b9050919050565b60005b838110156180de5780820151818401526020810190506180c3565b838111156180ed576000848401525b50505050565b7f4e487b7100000000000000000000000000000000000000000000000000000000600052601160045260246000fd5b600080fd5b6000601f19601f8301169050919050565b7f696e76616c696420706c616e7465722073746174757300000000000000000000600082015250565b7f706c616e74657220646f6573206e6f7420657869737400000000000000000000600082015250565b7f43616c6c6572206973206f7267616e697a6174696f6e506c616e746572000000600082015250565b7f696e76616c696420616464726573730000000000000000000000000000000000600082015250565b7f6f7267616e697a6174696f6e2061646472657373206e6f742076616c69640000600082015250565b7f496e697469616c697a61626c653a20636f6e747261637420697320616c72656160008201527f647920696e697469616c697a6564000000000000000000000000000000000000602082015250565b7f696e76616c6964207061796d656e7420706f7274696f6e000000000000000000600082015250565b7f706c616e74657254797065206e6f7420616c6c6f7765642076616c7565730000600082015250565b7f72656666657265644279206e6f74207472756500000000000000000000000000600082015250565b7f696e76616c696420636170616369747900000000000000000000000000000000600082015250565b7f506c616e746572206973206e6f74206f7267616e697a6174696f6e0000000000600082015250565b7f696e76616c696420696e70757420706c616e7465720000000000000000000000600082015250565b7f696e76616c696420706c616e7465725479706520696e206368616e6765000000600082015250565b7f55736572206578697374206f72206e6f7420706c616e74657200000000000000600082015250565b7f506c616e746572206e6f742072657175657374206f72206e6f742070656e646960008201527f6e67000000000000000000000000000000000000000000000000000000000000602082015250565b6183f481617fd5565b81146183ff57600080fd5b50565b61840b81617fe7565b811461841657600080fd5b50565b61842281617ff3565b811461842d57600080fd5b50565b61843981617ffd565b811461844457600080fd5b50565b6184508161802b565b811461845b57600080fd5b50565b61846781618035565b811461847257600080fd5b50565b61847e81618045565b811461848957600080fd5b50565b61849581618059565b81146184a057600080fd5b5056fea2646970667358221220ae9c409cd56d4eb5f676a8aa68a1c0602e86c6f85517584ae10932e30b4b183b64736f6c63430008060033",
  "immutableReferences": {},
  "source": "//SPDX-License-Identifier: MIT\n\npragma solidity ^0.8.6;\nfunction c_0xb2d838aa(bytes32 c__0xb2d838aa) pure {}\n\n\nimport \"@openzeppelin/contracts-upgradeable/proxy/utils/Initializable.sol\";\n\nimport \"@openzeppelin/contracts-upgradeable/utils/math/SafeCastUpgradeable.sol\";\nimport \"../access/IAccessRestriction.sol\";\nimport \"../gsn/RelayRecipient.sol\";\n\n/** @title Planter contract */\ncontract Planter is Initializable, RelayRecipient {\nfunction c_0x8967a34f(bytes32 c__0x8967a34f) public pure {}\n\n    using SafeCastUpgradeable for uint256;\n\n    /** NOTE {isPlanter} set inside the initialize to {true} */\n    bool public isPlanter;\n\n    IAccessRestriction public accessRestriction;\n\n    struct PlanterData {\n        uint8 planterType;\n        uint8 status;\n        uint16 countryCode;\n        uint32 score;\n        uint32 capacity;\n        uint32 plantedCount;\n        uint64 longitude;\n        uint64 latitude;\n    }\n\n    /** NOTE mapping of planterAddress to PlanterData */\n    mapping(address => PlanterData) public planters;\n\n    /** NOTE mapping of planterAddress to address of refferedBy */\n    mapping(address => address) public refferedBy;\n\n    /** NOTE mapping of planterAddress to organizationAddress that planter is member of it */\n    mapping(address => address) public memberOf;\n\n    /** NOTE mapping of organizationAddress to mapping of planterAddress to portionValue */\n    mapping(address => mapping(address => uint256)) public organizationRules;\n\n    event PlanterJoin(address planterId);\n    event OrganizationJoin(address organizationId);\n    event PlanterUpdated(address planterId);\n    event AcceptedByOrganization(address planterId);\n    event RejectedByOrganization(address planterId);\n    event PortionUpdated(address planterId);\n\n    /** NOTE modifier to check msg.sender has admin role */\n    modifier onlyAdmin() {c_0x8967a34f(0xeb9d0dd00a8421ea81a359e83892b7fd9156073eabe24af40bb0b58c281bb593); /* function */ \n\nc_0x8967a34f(0xe2342833ecf1acb2957d841457aa7d97233c6af16d87ef810503c65134f50d51); /* line */ \n        c_0x8967a34f(0x8021cfd7fe9c37a661e0bd0d93da5c034dfc98bfc8bbfdba35a54aef7e9c6de9); /* statement */ \naccessRestriction.ifAdmin(_msgSender());\nc_0x8967a34f(0x5016a7af825942d0ca5c66027096c1b4cd7b9752beff07db604b68cf1a507fe5); /* line */ \n        _;\n    }\n\n    /** NOTE modifier to check msg.sender has data manager role */\n    modifier onlyDataManager() {c_0x8967a34f(0xa386fe903e0585a9e73ed9a53545f3758a36c128788932cb6b37e7152528d16e); /* function */ \n\nc_0x8967a34f(0xef7da4c9123733cb23e3dac0e55bd99b4d9213bbbda761afc0359085c0804ee8); /* line */ \n        c_0x8967a34f(0x4bb92b36047b886c38cac0bc0ce7d43a7078c48117c66a6daeb1ee47ba0531d5); /* statement */ \naccessRestriction.ifDataManager(_msgSender());\nc_0x8967a34f(0xac97bb99f38eff6cf80fc7e9d9277eb95ba969ce97407867e7690dda876a6928); /* line */ \n        _;\n    }\n\n    /** NOTE modifier for check _planterAddress is exist*/\n    modifier existPlanter(address _planterAddress) {c_0x8967a34f(0x1ff18dfca59e21735987b3addf1fe53b0b65bd5492b0f8429a08c32f54789af3); /* function */ \n\nc_0x8967a34f(0x5570f00d23e60c3d40ab6b27046efde1a19369b8c121374c143a8f4f326d4f36); /* line */ \n        c_0x8967a34f(0x67efbec4683ce4d5a8c1833c8924cc37bde68450ab6270de842d7df4a245aafe); /* requirePre */ \nc_0x8967a34f(0x609f5e404b09121f25a2749bdd459c8e55dfb1ac871c0fec4994858f81633427); /* statement */ \nrequire(\n            planters[_planterAddress].planterType > 0,\n            \"planter does not exist\"\n        );c_0x8967a34f(0x81713bd6fc5176a3d18d12c118bfa9214a3a8ab76307accd4ea275e263689678); /* requirePost */ \n\nc_0x8967a34f(0x72a05d94c3cb7ebe36369dd3adbf6272720e7f1b05cb30ef595a6f607a521fe9); /* line */ \n        _;\n    }\n\n    /** NOTE modifier for check valid address */\n    modifier validAddress(address _address) {c_0x8967a34f(0x9d92442d54bf862d2797e3e675ef2a4c77183f7bb58bffc96b165ba3f52e2525); /* function */ \n\nc_0x8967a34f(0x69661f61495339df377077bc68c72c2523e2fa756d204ce02c1c8e7d4eb426ac); /* line */ \n        c_0x8967a34f(0xa7af1932ece72f0edc792a3abad0fcb2acb1cd29e8d05630d83f3af85d3c1135); /* requirePre */ \nc_0x8967a34f(0xee725099a1989305c7a6541a52d2c73470f7ab486117d0ed014fb520fa4f7a87); /* statement */ \nrequire(_address != address(0), \"invalid address\");c_0x8967a34f(0x4fbab3b3ec509a395d85d1ee4fb7875e4a6f5ae8b427849aecd1da33a4083b0b); /* requirePost */ \n\nc_0x8967a34f(0x80a019ff8dcdae14b0c452f5b94fabbae94084b250f7af629812bd30045e7a7f); /* line */ \n        _;\n    }\n\n    /** NOTE modifier for check msg.sender planterType is organization*/\n    modifier onlyOrganization() {c_0x8967a34f(0x122977523c46ce42e3f6fccadce005ccc9464e66c354a9069491704e7e4a8500); /* function */ \n\nc_0x8967a34f(0xa49ea10bd96443abd00d87e6a0498e4876b02ac4f2ec310986a87d4b13d0a22a); /* line */ \n        c_0x8967a34f(0x764d0d03fd379bed99d632903611b193dd4e0599177146896ea33e4defcc4202); /* requirePre */ \nc_0x8967a34f(0xca4772aaf0f4a5323382319a95c54d6f2dbc5e2dfd2a09815dc8a37795348356); /* statement */ \nrequire(\n            planters[_msgSender()].planterType == 2,\n            \"Planter is not organization\"\n        );c_0x8967a34f(0xa22c4b735f2023e94c52592d06ee0b239baf33a6592496982bd1738419eaf3c0); /* requirePost */ \n\nc_0x8967a34f(0xd6d4fcf0356e3c8ce6e7f5397847ca478d1d05fa21ccf1593e225699348e3a9f); /* line */ \n        _;\n    }\n\n    /** NOTE modifier for check msg.sender has TreejerContract role*/\n    modifier onlyTreejerContract() {c_0x8967a34f(0xd1eb6ff6029a684fab515b5a66231fa63aa2806b284f307d2c522148dddd66fe); /* function */ \n\nc_0x8967a34f(0xb27b52f5da05e8ab6b1e048385d8fe9e8566af1646fb0626f1fd83be8db83ac1); /* line */ \n        c_0x8967a34f(0xb6d42af2884fe2664936e88e92618fb6ecf6dab5ec241f537b35e75a4736e3e5); /* statement */ \naccessRestriction.ifTreejerContract(_msgSender());\nc_0x8967a34f(0x2ff24a1fa492c440a68c8bc8d0dcc939b494523d0c4bf71db7bf2325e0e25580); /* line */ \n        _;\n    }\n\n    /**\n     * @dev initialize accessRestriction contract and set true for isPlanter\n     * @param _accessRestrictionAddress set to the address of accessRestriction contract\n     */\n    function initialize(address _accessRestrictionAddress)\n        external\n        initializer\n    {c_0x8967a34f(0x555e35aa1f1d149c8158dab22d4ce3ba431e82d1a13f8a0ed281d721573441c2); /* function */ \n\nc_0x8967a34f(0xa5b330df22ba794219ca6fcfb88869dc3468f8c7c309bd22647f606209cf8cc3); /* line */ \n        c_0x8967a34f(0x6f46cc4eae3ef1e31854b9e962452c6c0e38872428fbf65cb1f226902ff101ff); /* statement */ \nIAccessRestriction candidateContract = IAccessRestriction(\n            _accessRestrictionAddress\n        );\nc_0x8967a34f(0x09fb77b2877286644e7bb195d218ee10bc533f0961921069022d54db4d24f908); /* line */ \n        c_0x8967a34f(0x8a0d45d69cc9f4f6c12820954fcffe0f50d9c01e076437acef31dc77d7acd875); /* requirePre */ \nc_0x8967a34f(0x1d3cc1cfae83ba1ddaf5fe8e1d52cbe934ff9b1cff90dd566f5cf1edf6b4a736); /* statement */ \nrequire(candidateContract.isAccessRestriction());c_0x8967a34f(0xd4b604a8908609a6d5253f303e5fca4bea1ddbd2be2910a9bcd712059975d945); /* requirePost */ \n\nc_0x8967a34f(0x7a21327ba475115c10c611b70ea99aa0adf785d3e589bed857a5ccc3bedcdbbb); /* line */ \n        c_0x8967a34f(0xc5c43f0bded99cc00996d40a3b684a9bd4e50dbecc57e1dded3ab511cd4d66b2); /* statement */ \nisPlanter = true;\nc_0x8967a34f(0x3821ce495287c567572419a3e858a572156677a9659359e8f1341d97ed7fd42f); /* line */ \n        c_0x8967a34f(0x687e312451508320cf026c12dcceba4032739379f41f35f2831848d41a8a7e5b); /* statement */ \naccessRestriction = candidateContract;\n    }\n\n    /**\n     * @dev set trusted forwarder address\n     * @param _address set to {trustedForwarder}\n     */\n    function setTrustedForwarder(address _address)\n        external\n        onlyAdmin\n        validAddress(_address)\n    {c_0x8967a34f(0xc0d001dedbc7da3142b36761c30b28a0b987cb734cfa0559632cc297bbd5e368); /* function */ \n\nc_0x8967a34f(0x29293abe6a09b34160f7a6d2b416a5978bac324bfe9203215b33bf3ff5358b37); /* line */ \n        c_0x8967a34f(0x8f93977dcf92f5c8587c5ee856fe455e8c7c2cb20cf059c992c0e162824615ab); /* statement */ \ntrustedForwarder = _address;\n    }\n\n    /**\n     * @dev based on {_planterType} a planter can join as individual planter or\n     * member of an organization\n     * @param _planterType 1 for individual and 3 for member of organization\n     * @param _longitude longitude value\n     * @param _latitude latitude value\n     * @param _countryCode country code\n     * @param _refferedBy address of referral\n     * @param _organizationAddress address of organization to be member of\n     * NOTE if join as a member of an organization, when that organization\n     * accept planter, planter status set to active\n     */\n    function planterJoin(\n        uint8 _planterType,\n        uint64 _longitude,\n        uint64 _latitude,\n        uint16 _countryCode,\n        address _refferedBy,\n        address _organizationAddress\n    ) external {c_0x8967a34f(0xf1db9d6a086ed8e6a4071539403aa09ffbd4758981dd4395b483ace57eabcf5e); /* function */ \n\nc_0x8967a34f(0x0f42957d213d34913c271d9c2bb7d11262b44f72f71da0cca6b7e09d1e76283f); /* line */ \n        c_0x8967a34f(0xb8f4c18071db7ffdf6fc9ff2656f18436b7093738cbdee124f3be341606fd9fd); /* requirePre */ \nc_0x8967a34f(0xf8acfd510a15b420d0f0388c6eea02e999d38dcaab1ddb4d0ee532eead1d5af0); /* statement */ \nrequire(\n            accessRestriction.isPlanter(_msgSender()) &&\n                planters[_msgSender()].planterType == 0,\n            \"User exist or not planter\"\n        );c_0x8967a34f(0xdaf1f42acbf3dfe8e53a3fc7decebb3cb1f813176612b336e0e62e5fff1a4d89); /* requirePost */ \n\n\nc_0x8967a34f(0x2a5e7552c39f06cd4dbdd5575917f75d879ff91fe781a160079dc1b31da67804); /* line */ \n        c_0x8967a34f(0x93dc614768d75a0b9eb291fe74f109546a3d73ed03e860640d43795b21391101); /* requirePre */ \nc_0x8967a34f(0xf9e1c01ad321699c7422439ad8810633b70195b6c632e22fb736812a00e211e0); /* statement */ \nrequire(\n            _planterType == 1 || _planterType == 3,\n            \"planterType not allowed values\"\n        );c_0x8967a34f(0x18ec6ac6e61a3283d559e316bf4acc020e0c748b6393a066648e653c373add78); /* requirePost */ \n\n\nc_0x8967a34f(0x9f5946bca3d5f29da4b579ccf5fe61fe96a99b4e1862f8e535a0e6fb72469197); /* line */ \n        c_0x8967a34f(0x3bff1b3b465cfdb7bd24850f902fa3622e44399178f1a7685cfae1c3078ab73a); /* statement */ \nif (_planterType == 3) {c_0x8967a34f(0x065e63a475abd5d5344dbef089fd01ae69021d9a4938267c00e925434c80985c); /* branch */ \n\nc_0x8967a34f(0x8590aec994cee31914335f719e3553f3db128681a0d6e6098545ac6772d6132a); /* line */ \n            c_0x8967a34f(0x5695b985a9837af8fd4c29b768b850044c876fc6f7ac0e2183b86fb84b006315); /* requirePre */ \nc_0x8967a34f(0xcb196ea701712d608e2fc7930ede1c2a9a7c2001454571974b07b726be305556); /* statement */ \nrequire(\n                planters[_organizationAddress].planterType == 2,\n                \"organization address not valid\"\n            );c_0x8967a34f(0x38ac53de941801b7b06bd9e71ba41b84c032b313b3a1a1686bbaf70aab67d0ef); /* requirePost */ \n\n        }else { c_0x8967a34f(0x1a774b56986c00a5d4ed581da8650f5964d90cd7a53dc1fa03cd31d0947e7e85); /* branch */ \n}\n\nc_0x8967a34f(0x734aac6a00f1e4cb5a5b8115cc99b5a5704b560fdb07662221d3f18b85b35572); /* line */ \n        c_0x8967a34f(0x8f56fbad5c0a50978154806cdd95dde66bc61ba1371fd686a733d5b61c8c7b50); /* statement */ \nif (_refferedBy != address(0)) {c_0x8967a34f(0xf7f6fecb7872e4ee36cc141e0f3e085308b5d0376cfaaba4e25efcad62fe17fc); /* branch */ \n\nc_0x8967a34f(0x9314d1192d1304074196054dfdb88e555cb2477001b5a61c373026ba080851e4); /* line */ \n            c_0x8967a34f(0x77de5cb42f37b7d08219cb86eaafe9036d9253e66fa9ba8a9d2effb3d595abe5); /* requirePre */ \nc_0x8967a34f(0x80e5fba79bcd33d1376371dc190730a382e077a9e37bdc48e2d8f4f087157976); /* statement */ \nrequire(\n                _refferedBy != _msgSender() &&\n                    accessRestriction.isPlanter(_refferedBy),\n                \"refferedBy not true\"\n            );c_0x8967a34f(0x5d301f8a41c63a1ed0be3688ceafa07bb2c5a811b6c457e2544beb719e073ef4); /* requirePost */ \n\n\nc_0x8967a34f(0x3795e7ea326ecd5a9d429137c4d94e96365c3a9b736104c29687796eaca59e6c); /* line */ \n            c_0x8967a34f(0xa40cf9212a1b7ebc1ee91b4c94388aa30a3a0a69299e400563d9344e3aed1820); /* statement */ \nrefferedBy[_msgSender()] = _refferedBy;\n        }else { c_0x8967a34f(0xc12f473fcbb243336355396b3dcba5d8bcc63119a190be1ef3b31ccd29a10c71); /* branch */ \n}\n\nc_0x8967a34f(0xc012b0e4bb5f4a2743e5e54f90be8cf07dba53f2b2d7a69d0efde6ce63d8cecc); /* line */ \n        c_0x8967a34f(0x13d9d897b9fd24ba645b29a46ac28e62eb35edbcf6f34a9c5bb766d133ff8ed7); /* statement */ \nuint8 status = 1;\n\nc_0x8967a34f(0xe1516b04294d4d6afeb3b15b55ba84b6da0d531fc6b1040846b6ba958de68edc); /* line */ \n        c_0x8967a34f(0xac3b76c122890f4712d31689a93b1338e775e934d350fb59f0094410ae7de8c0); /* statement */ \nif (_planterType == 3) {c_0x8967a34f(0x2c53ac7ecd113d9b7cf8d276e7086d0476ae013429b7f0826dabb14edb267861); /* branch */ \n\nc_0x8967a34f(0xc5f0b7ebd42e9f1ca64a78ebeb4cb70227ab545b3b41cc9aef2b4cc91bff51f0); /* line */ \n            c_0x8967a34f(0x73fa5213f1eee11b557446dee82aaceb770eab029117338a68f5f3893f16c68d); /* statement */ \nmemberOf[_msgSender()] = _organizationAddress;\nc_0x8967a34f(0x7ea285927c141f00951483cead6479cfb3d2af2912e2da5d032daaac9b30c7f9); /* line */ \n            c_0x8967a34f(0x732deabccc2fc1239a4b0cb02eba89624c0ec54740d6d857819347b08c9231bf); /* statement */ \nstatus = 0;\n        }else { c_0x8967a34f(0xe2dcda266e2840c80364eea3da230f857c4f6e0e023ebed30e61782efd55bad0); /* branch */ \n}\n\nc_0x8967a34f(0x60fce933361665b293febe0bce128a07ff2b0091f903b44f52e4e60a43c3ed14); /* line */ \n        c_0x8967a34f(0xec1c5cba964645f5c2aad42274da55a0e3298932b751c4d37d672e8905b976b6); /* statement */ \nPlanterData storage planter = planters[_msgSender()];\n\nc_0x8967a34f(0x51265f1890808029b484ee1aaeb911b9b786d6b00db21cfbce641162a353dd1a); /* line */ \n        c_0x8967a34f(0xd552432f49241d81f8745a01040c9fd3bc0e899c29dc414062939b0055ba022b); /* statement */ \nplanter.planterType = _planterType;\nc_0x8967a34f(0x5d5295af4742345732df7906e8cde8e4eb1f60bdffc1bf7565f2da8b0b2e48c2); /* line */ \n        c_0x8967a34f(0x0044f8713d84302c227202c3c68f275f69b4feb3a7b296254ce8d083c5bcf856); /* statement */ \nplanter.status = status;\nc_0x8967a34f(0x0e7c248b3648562b8ce29970f6a53602f832af1f85001d8572db72329b65e9e6); /* line */ \n        c_0x8967a34f(0x6a78ec3885b3274ae380bd445559640e5f2e474b57349dc650682f60bb535c53); /* statement */ \nplanter.countryCode = _countryCode;\nc_0x8967a34f(0x612c852a25971349d6db2b168433a0ceec90a5a79a547d9940559f6c5e35d79c); /* line */ \n        c_0x8967a34f(0xadc36bcfccdc4cc07ab55ece0611fed63737ecb17af2780b00256b7407159ba9); /* statement */ \nplanter.capacity = 100;\nc_0x8967a34f(0xf078ac0ad4619799595102525d96d5081fc3d92156fb6ad8f08a9fb604219412); /* line */ \n        c_0x8967a34f(0x519885a365204abe20a0cdd85e0833d272f87febe01074a408914c1287be293a); /* statement */ \nplanter.longitude = _longitude;\nc_0x8967a34f(0xd1d3a7c1ee5702ae8b7e8465449a70a3371e73ee7bf5b101cea84860c477c70e); /* line */ \n        c_0x8967a34f(0xdd1c6983beb4070950bf5154b50a88ff997223949725441b1b7eea3eec7a12ca); /* statement */ \nplanter.latitude = _latitude;\n\nc_0x8967a34f(0x52066b8e8b8d6432e4984cbea796be0010831cd0aee1be90666b760319627477); /* line */ \n        c_0x8967a34f(0x07ad61a2cdfc20fe331790359b8d0b2608087a8f4d40b397755e9b29309a29ff); /* statement */ \nemit PlanterJoin(_msgSender());\n    }\n\n    /**\n     * @dev admin add a plater as organization (planterType 2) so planterType 3\n     * can be member of these planters.\n     * @param _organizationAddress address of organization planter\n     * @param _longitude longitude value\n     * @param _latitude latitude value\n     * @param _countryCode country code\n     * @param _capacity plant capacity of organization planter\n     * @param _refferedBy address of referral\n     */\n    function organizationJoin(\n        address _organizationAddress,\n        uint64 _longitude,\n        uint64 _latitude,\n        uint16 _countryCode,\n        uint32 _capacity,\n        address _refferedBy\n    ) external onlyDataManager {c_0x8967a34f(0xb2261625961d63b4cde1e737b7bb2602a9c96bbdd229b217c02f6ea7184d630f); /* function */ \n\nc_0x8967a34f(0x9da0777bed00eefe0453badc9a713b5fb01e57b890f1b8bc03c9cb8f38613418); /* line */ \n        c_0x8967a34f(0x7c83ed0876f0539aee8336e28f98900d7cbcb12caa1d0b4743464d2498129dca); /* requirePre */ \nc_0x8967a34f(0x212301b2ce292b03e0f5775f346964a44e75d42176892edd1b31dfde27560910); /* statement */ \nrequire(\n            planters[_organizationAddress].planterType == 0 &&\n                accessRestriction.isPlanter(_organizationAddress),\n            \"User exist or not planter\"\n        );c_0x8967a34f(0xe2d964cd0e51352d19c55771fdea2465f47953e01a5fca3fb01eaf77b552f050); /* requirePost */ \n\n\nc_0x8967a34f(0xaf2417461a9044e3033a9e68289db2452ca34c6de8cc04b3eca2909862c4bd65); /* line */ \n        c_0x8967a34f(0x6f29e6744689150845087e8e86d7dde29fbbd63a766ebbc22a8ef162df25dbd7); /* statement */ \nif (_refferedBy != address(0)) {c_0x8967a34f(0x132160a1b2efe211088144b7d2f6e4fd1a75f0784426ee1549133bcddd150199); /* branch */ \n\nc_0x8967a34f(0x27b314e3628f86d2ff78488bf40b18cbf023d1e7096a073bb4a7ce15374e49a1); /* line */ \n            c_0x8967a34f(0x3c0ba85b631d53fd21562819f526fc7feece49d43ce62a90b16a3d238c7ad034); /* requirePre */ \nc_0x8967a34f(0x6ff06056e4e48c7856033e042ab40cd74cb376e97a62eadccb2cf509cb8f01b0); /* statement */ \nrequire(\n                _refferedBy != _msgSender() &&\n                    accessRestriction.isPlanter(_refferedBy),\n                \"refferedBy not true\"\n            );c_0x8967a34f(0x5ea2384f387cd9f7b78793e799a17b5165e8b30e62ee3d7c104e0510f7276f90); /* requirePost */ \n\n\nc_0x8967a34f(0xd9cb965792f4eaf376420e3314b220f34f661579dd6e8f56ef5cab060206c15b); /* line */ \n            c_0x8967a34f(0x6914a347963e192850c4759b362870b278cb0d23b737a220fe8772f4d3ce61de); /* statement */ \nrefferedBy[_organizationAddress] = _refferedBy;\n        }else { c_0x8967a34f(0xbfc9096adfef07854a49ee5c927f5f68f8d0db78292d023ac4442e78225543d6); /* branch */ \n}\n\nc_0x8967a34f(0x87af2a9efbb55a61aa165ec5ae048d6927827d397f39373b748e0531cb08515f); /* line */ \n        c_0x8967a34f(0x50e4c6d2238547b28d531c73dba16fab28706da7479215f6b8d56ea945a5765a); /* statement */ \nPlanterData storage planter = planters[_organizationAddress];\n\nc_0x8967a34f(0xdc1ba560b19e8dcbd3828e3a2d5444af17584662882db5aec0a8547d9f540f8f); /* line */ \n        c_0x8967a34f(0xb0861da263712cbad905b9dd69b734a8465180a47dad3081c9871d3b0a88a4e7); /* statement */ \nplanter.planterType = 2;\nc_0x8967a34f(0x470eb71b3b14cbf66f60e2704cf8db416aca4133704a49bbd0bbfffd50ae7ce9); /* line */ \n        c_0x8967a34f(0x90a3299463122f4f0c312ae29305794b2250b5d50be48ca4f81ac76773b5ac63); /* statement */ \nplanter.status = 1;\nc_0x8967a34f(0x71ad96c5fb33cfc9c4117303c89cb4fa9b09afeade4328aae6a015c5bdfe53cb); /* line */ \n        c_0x8967a34f(0xde6d1441c17caf1c17ce854971ec5775c0dbcda4c23e6f0ce4fc51db74c86577); /* statement */ \nplanter.countryCode = _countryCode;\nc_0x8967a34f(0x94fa12bf9a48431d8698d586efbf862d054f4f07db031271e61f47aea6bb2be4); /* line */ \n        c_0x8967a34f(0xea22ee36e94eef0ac9dbe1642bc69b6a21a4ad46ff40ceefa1c9e9be0354b199); /* statement */ \nplanter.capacity = _capacity;\nc_0x8967a34f(0xcaaa51a98b79feb37aac960f6e8b3839bd94e80cf057faf242ac4849334511ec); /* line */ \n        c_0x8967a34f(0x5ebb54ef55d18959adc60e9958b6370d1a3f381e963b463fc4381b7d533f0cf6); /* statement */ \nplanter.longitude = _longitude;\nc_0x8967a34f(0xaf7d07bd41f927e6f8c00cd64a6550c66423dec0853e715d67ae2b1986dc2e2d); /* line */ \n        c_0x8967a34f(0x698ce4485e9702119376cc5375561c54f1a031dcf56bf2edac48016b3c0e5894); /* statement */ \nplanter.latitude = _latitude;\n\nc_0x8967a34f(0x035510fefa84431184faf3c421eb2d5ec6650d9e2c89761d36a593d43aa1e60d); /* line */ \n        c_0x8967a34f(0x45fcb601e73e78a3748e4424c5d3e1637ceffaa51bfd71f1c598153bb60c3d99); /* statement */ \nemit OrganizationJoin(_organizationAddress);\n    }\n\n    //TODO:remove this function??\n\n    /**\n     * @dev planter with type 1 , 3 can update their planterType using this\n     * function.\n     * planterType 3 (member of organization) can change to\n     * planterType 1 (individual planter) with input value {_planterType}\n     * of 1 and zeroAddress as {_organizationAddress}\n     * or choose other organization to be member of with\n     * input value {_planterType} of 3 and {_organizationAddress}.\n     * planterType 1 can only change to planterType 3 with input value\n     * {_planterAddress} of 3 and {_organizationAddress}\n     * if planter type 3 choose another oraganization\n     * or planterType 1 chage to planterType 3, they must be accepted by the\n     * organization to be an active planter\n     */\n    function updatePlanterType(uint8 _planterType, address _organizationAddress)\n        external\n        existPlanter(_msgSender())\n    {c_0x8967a34f(0x231b73caec69ebcc33686d2a952a78335c7a1fb624bb72068673adb3ff49bf8c); /* function */ \n\nc_0x8967a34f(0x845164603f48060516510c03cae40752dbfafcdf965f4c84f70071d0b3337b35); /* line */ \n        c_0x8967a34f(0x95e099d5b534b7fab8d668fd8dbb175d8364db7e2326db7d6561669f0f1ca628); /* requirePre */ \nc_0x8967a34f(0x3aec6bae77ef8f6a4fb499be892c162c269cb887a3e372c258bbd049f71a1f8a); /* statement */ \nrequire(\n            _planterType == 1 || _planterType == 3,\n            \"planterType not allowed values\"\n        );c_0x8967a34f(0x6a7bede875714f9e08a9b93f9dbb99a6e8b201f1362a8c4f4ed1774796ad41a0); /* requirePost */ \n\n\nc_0x8967a34f(0xa66a774df4e172c7b22fbf39cdc2e326eaf84c1cb25f2113bca9df49160e83c5); /* line */ \n        c_0x8967a34f(0x4f8b97e2be7aba93147ffa1e704a29f694ae9cdcf406207f6b2e1f6a6fa6cb98); /* statement */ \nPlanterData storage planter = planters[_msgSender()];\n\nc_0x8967a34f(0x5c5876bc4572e8e9a4788502e2b94bcf4363e4264b65fbe4f8d924850b04dcf5); /* line */ \n        c_0x8967a34f(0x58f45fe2ecbf56d3ed723c5022f3b3fc95d260235c2ac843e35dd932c6cc3d7d); /* requirePre */ \nc_0x8967a34f(0x1878b6076d6adea9ec5cb7f9dcdf368a1bde219b6e1bc5fee50f27190271993c); /* statement */ \nrequire(\n            planter.status == 0 || planter.status == 1,\n            \"invalid planter status\"\n        );c_0x8967a34f(0xa66d4fdd1f6409e601c79c1e343be514307ca166c041d59ca1e1cc14d949b4a6); /* requirePost */ \n\n\nc_0x8967a34f(0x03fd0805659f810c3ba196b488c86ef0bef05eb41bc26760544fd3a633a75bd9); /* line */ \n        c_0x8967a34f(0xcaa0b6fcba7dca0dfeadf2cac7b617a1596ebc5ed6103a9612cac49c7c62ee89); /* requirePre */ \nc_0x8967a34f(0xa270494f1fb34aaaa1a0ec9d19202fe684e6e7101c89486ae0ae3b5f9babcb96); /* statement */ \nrequire(planter.planterType != 2, \"Caller is organizationPlanter\");c_0x8967a34f(0x3b7d342254f237a13652cc0b620151e65b4ae49e0d550098df1e61eefc78609e); /* requirePost */ \n\n\nc_0x8967a34f(0x33a9174acd385a8251f173e98d5f1ebe6811d2fdf13340b7ed9c325a244aa72a); /* line */ \n        c_0x8967a34f(0x03fdb5e0f8d70edabaeda1c094f0b956767a35e1d3f4e84fafdcafc008c2300f); /* statement */ \nif (_planterType == 3) {c_0x8967a34f(0x019342d2aacd0129327a7c61eee6bb17de84fc885373f0cc3f5a170435d90589); /* branch */ \n\nc_0x8967a34f(0x72dad79141c48494c149b7249d3a96249cae93f19528a0f38dee502faefc282f); /* line */ \n            c_0x8967a34f(0x579b4a75fccb6a342918cf1add4ceaa43e42fd7f94069734f04750a52bd32063); /* requirePre */ \nc_0x8967a34f(0xb2210cd79cd9ca056054cbaacbf3ccd780626d85e22ffdbcde26f32047b8fb09); /* statement */ \nrequire(\n                planters[_organizationAddress].planterType == 2,\n                \"organization address not valid\"\n            );c_0x8967a34f(0xd24b056c6fdf59eeb334a9633e903d4b3204bde0649a7425f9d5d6658a6de2c2); /* requirePost */ \n\n\nc_0x8967a34f(0xb604ab367393f0327c4fc2506fdda22b46e48a23e51d88f5be57290c1349f3f8); /* line */ \n            c_0x8967a34f(0xf7c54b0a866465b8e151682eec4293a6d69d3bced5418c1ca83b918b67b9803b); /* statement */ \nmemberOf[_msgSender()] = _organizationAddress;\n\nc_0x8967a34f(0x33f043efe4622cf3968c7626fdbed5ee6f899c05b7f761f61bd707752bed62ee); /* line */ \n            c_0x8967a34f(0xc6c2ae55132eccf590f05cad34168b7baa5d21b9f785ff535feea70c5d3e3979); /* statement */ \nplanter.status = 0;\n        } else {c_0x8967a34f(0x210155bc68c4e8fdf62222cbf8d5ad42749f271adb96052549807fd715c5acbb); /* branch */ \n\nc_0x8967a34f(0x13a93305eccf1a5fd5b76ec2065ae588770eadfda52c175ea35e4136f6d8b3c9); /* line */ \n            c_0x8967a34f(0x73a134c69950c7d1075df5485e31e10556f2c400a772a043097f415418e4a6a7); /* requirePre */ \nc_0x8967a34f(0x26ff2823caabaecd8c1f770dadc898ea4cf73a6f59a8a73b3701fef19dc9030d); /* statement */ \nrequire(planter.planterType == 3, \"invalid planterType in change\");c_0x8967a34f(0x97e26b991f886f9363a8402af87e3f78f4785059501d355ac64f7e1f9e28758b); /* requirePost */ \n\n\nc_0x8967a34f(0x14906152d5198af214abe77eba07a3ecccf29ee7fe11493276b820d85a5bbba4); /* line */ \n            c_0x8967a34f(0x15a5f3174be810a0212312e1ee163a2531db92a5bc91258270ce00a6a7453a2a); /* statement */ \nif (planter.planterType == 3) {c_0x8967a34f(0xebadb982f8ec62336e882f2d37acf88d104d1623aa7ab1d4802335e2203c8ffa); /* branch */ \n\nc_0x8967a34f(0x918ee4407f49992b493b1f68626d626f97c2f607ecafd375cac0545e1053b2b4); /* line */ \n                c_0x8967a34f(0x3b4f35f2336ae037155c02b827f5d23df1b2e87c713e9af0a9082ef327a8e45d); /* statement */ \nmemberOf[_msgSender()] = address(0);\n            }else { c_0x8967a34f(0xc4a5e1e640f46d4b567cde2428b3944455ca1847f8dbeadfc4fe27ec02cf7ba3); /* branch */ \n}\n\nc_0x8967a34f(0x324c8788e9417db0f80c2962c9e36eda31cda1f8dff47dd1fe96f9707076ca94); /* line */ \n            c_0x8967a34f(0x41313df232c2cbdd3cd6410673aa04962e42f07a665f77ccd3c93051f2820142); /* statement */ \nif (planter.status == 0) {c_0x8967a34f(0x968aee6b95d67e6184e42efea3458c442e09d30ee57ed6d61c3a046c3cb93ec9); /* branch */ \n\nc_0x8967a34f(0xfd4217a2958fa806e34c3e4e10cecb0abb7569d0bfdbf5c452e246975ce3955a); /* line */ \n                c_0x8967a34f(0x8dc77aec593522c5ba57005be6c0a686a5cf2ad97622612cc6135902adc6d61b); /* statement */ \nplanter.status = 1;\n            }else { c_0x8967a34f(0x22a502cf58ffabfe73eadf1579badd389051f682774d16f1a205f83d2da75f97); /* branch */ \n}\n        }\n\nc_0x8967a34f(0x607e81ffe0d67da726fa3aab539e32b58c92b7ebd0371626c56b54ced5531512); /* line */ \n        c_0x8967a34f(0xc7470c5f7a9bd09ae9078ffb54f706380c00a5c108fc6506000b9e82f3fbc9a1); /* statement */ \nplanter.planterType = _planterType;\n\nc_0x8967a34f(0x016104d2600bcfcda16dd3170b2b89f9924dfc91f7a774fe8e883eb22b195b47); /* line */ \n        c_0x8967a34f(0x091617b049432597469fdd334655b987fa7518ea5a620cef1e0dd62b1a874c8e); /* statement */ \nemit PlanterUpdated(_msgSender());\n    }\n\n    /** @dev organization can accept planter to be it's member or reject\n     * @param _planterAddress address of planter\n     * @param _acceptance accept or reject\n     */\n    function acceptPlanterFromOrganization(\n        address _planterAddress,\n        bool _acceptance\n    ) external onlyOrganization existPlanter(_planterAddress) {c_0x8967a34f(0xec29926a99283e52b922e890d70c3c87f9c187d8b41f155542e74ba7c729321c); /* function */ \n\nc_0x8967a34f(0xb7ece4cc4402d4fc63c336229837ef370cad295265c2d557ff19358712b92f8b); /* line */ \n        c_0x8967a34f(0xdae0b60dbbb59b9e6b02891ae2b5c121fc0428e25755672ecc4d7cf74f4fb309); /* requirePre */ \nc_0x8967a34f(0x78ce2775cc9c81f5bb06a6672c079ea7172549b88f5b8130340d85d34656c01d); /* statement */ \nrequire(\n            memberOf[_planterAddress] == _msgSender() &&\n                planters[_planterAddress].status == 0,\n            \"Planter not request or not pending\"\n        );c_0x8967a34f(0x5a5e15cba67e80a4e53feabb07f9cbe94d3d735dca3eb49a35433ad5911ea17c); /* requirePost */ \n\n\nc_0x8967a34f(0x0c112d89f194f555bb2f54ee8f1ca6eb91b1c17f090ea02b48eff3a4192a609d); /* line */ \n        c_0x8967a34f(0x4a67ccdcd7ad00c9e24c1bb4abe0f59dd2c33b8f0aaccc74c69fb35b0f5d2a89); /* statement */ \nPlanterData storage planter = planters[_planterAddress];\n\nc_0x8967a34f(0x50fa8115a4fc050e624625888f1c206490573a67794e834282914c67bfbdc94e); /* line */ \n        c_0x8967a34f(0x32fb40e27d48c7ccddc6c047cbb159789d18e169c36f0aa1463e8072799b8d4a); /* statement */ \nif (_acceptance) {c_0x8967a34f(0x84862d97962d386c1cbf6c23eece695b87ab969cdc9b6b871e2e39a10f93c758); /* branch */ \n\nc_0x8967a34f(0xed284989734772dac9ed243b48a3cd70715ecaa2919dcaf668b63a32464b63d4); /* line */ \n            c_0x8967a34f(0x651694c09bbdfcb045ca03bdfd68c9451a25b18bbacec4aa6eece2f476625aec); /* statement */ \nplanter.status = 1;\n\nc_0x8967a34f(0x49e50820b7f247eed910bfff43511845712904fa2c0ffb8f36eb7df827ab01b3); /* line */ \n            c_0x8967a34f(0x836b7817ff9d7e79a0d4e52ec22d7506fbc1bd8a5c638a6b898f1e829ee661da); /* statement */ \nemit AcceptedByOrganization(_planterAddress);\n        } else {c_0x8967a34f(0x530a7bf5305d81ebab82243510d4f45c60220d799492964bb04e1a09dda04f39); /* branch */ \n\nc_0x8967a34f(0x0b0bd6d44b5e64cfa1db503acd61bd10f9c05d4b4a890bfd87b8bc4415e6b4fa); /* line */ \n            c_0x8967a34f(0xf97d821a371d50de3122c270c1bbbbbc4327b872be5812fbc942d1c0dc09caf2); /* statement */ \nplanter.status = 1;\nc_0x8967a34f(0xc8533538c5146542bdb4bf4ec331d07cf6b71532322789b48c35fe395b817ea4); /* line */ \n            c_0x8967a34f(0xe690544676c47a442c7b9d304f626592e60c8b1e3c35c4100cb288b487742138); /* statement */ \nplanter.planterType = 1;\nc_0x8967a34f(0xf143bb3196ead42d663da28bac0a7a25c1569ed508b88fd0eea6ee92c8a7bd0a); /* line */ \n            c_0x8967a34f(0xdd3f392b4e6378f43ef7c552bf7ae5051189dfccbc8394491dd41ca8a395f0b0); /* statement */ \nmemberOf[_planterAddress] = address(0);\n\nc_0x8967a34f(0xe729f603296c01e837bb44e2743f4b3b8fb2a3bdb0b2b0bab30f58de8123ea2f); /* line */ \n            c_0x8967a34f(0x9ecde7ef3123396e40c73111166ddaaf01ad855f085e6b5ccaa47c78eb90761e); /* statement */ \nemit RejectedByOrganization(_planterAddress);\n        }\n    }\n\n    /** @dev admin update capacity of planter {_planterAddress}\n     * @param _planterAddress address of planter to update capacity\n     * @param _capacity capacity that set to planter capacity\n     */\n    function updateCapacity(address _planterAddress, uint32 _capacity)\n        external\n        onlyDataManager\n        existPlanter(_planterAddress)\n    {c_0x8967a34f(0xa2596d73843a68a2329bc7d531bda00865672b62efdab20184cf7687928609a0); /* function */ \n\nc_0x8967a34f(0x134bf6c9e1bdd558db1d5e2dbfefb1cc3a0f7778174415dcfc2003d2d8115670); /* line */ \n        c_0x8967a34f(0x0004097e3eae284383756122dbc3e124155cd7c72f955307da73ba5a30fb1656); /* statement */ \nPlanterData storage tempPlanter = planters[_planterAddress];\nc_0x8967a34f(0x7dce792d12cdb00806afcb55f4ce3f49ff907ad4f0ccd4b7a70b2e98aa5ae54c); /* line */ \n        c_0x8967a34f(0x33d062230d9b1422c3d82dc2f69c666770e4aa4f4f31acfb610338d12009aa3d); /* requirePre */ \nc_0x8967a34f(0xf734a356e191e7d2a3f2139a4a501a26b2f7ec8cba7e4e0c5d010252079d772a); /* statement */ \nrequire(_capacity > tempPlanter.plantedCount, \"invalid capacity\");c_0x8967a34f(0x340fc354e0bbcd3ea58a9060ea911a608a675129e16c8ff65b93e66339450636); /* requirePost */ \n\nc_0x8967a34f(0x1961a339a0522c482eb429974c9a9b8bf9d54eb94afb7a042ffbd9e69ece39a0); /* line */ \n        c_0x8967a34f(0xe8a0e064699a1b93aa987b7cbfa9dbf6183050d62050edb1fe37997af9169cfb); /* statement */ \ntempPlanter.capacity = _capacity;\nc_0x8967a34f(0xe9f562007c998bfecbb9b3a3a477ad5514c1a34e555a79da1032cca13dec1422); /* line */ \n        c_0x8967a34f(0x9d0227ce9a05c0d92f145af9984e2e255fc504a8518fb4b57fc63cf352addf69); /* statement */ \nif (tempPlanter.status == 2) {c_0x8967a34f(0xbce9a71c7aa69fca2bd978ab0cb490d2a525846f3519d0e73afd3e90692da5a8); /* branch */ \n\nc_0x8967a34f(0x2acb0ac3f5959992c9ef809fccb342581a0ed470ac1cff9f23558301971a4b05); /* line */ \n            c_0x8967a34f(0x15491db1d38b17ffed8d567a6e845500755f7b277af3cd5bac486e6f9d2aa9f7); /* statement */ \ntempPlanter.status = 1;\n        }else { c_0x8967a34f(0x5ce6378c6b3a869b898624395e3c373ee6d84fb4094e097bd9852ca56503b057); /* branch */ \n}\nc_0x8967a34f(0xbd3402490333347e80744d7d92bad783cf96f92df48d83ad70ac623e1949193d); /* line */ \n        c_0x8967a34f(0xaaffd25547735f6c06106994c74f38dd0eea209719da0723f00e345fb115b90b); /* statement */ \nemit PlanterUpdated(_planterAddress);\n    }\n\n    /** @dev return if a planter can plant a tree and increase planter plantedCount 1 time.\n     * @param _planterAddress address of planter who want to plant tree\n     * @param _assignedPlanterAddress address of planter that tree assigned to\n     * @return if a planter can plant a tree or not\n     */\n    function plantingPermission(\n        address _planterAddress,\n        address _assignedPlanterAddress\n    ) external onlyTreejerContract returns (bool) {c_0x8967a34f(0xeda3dfb06bd33b5a6d7e22544c83d0abf9eb211d302f06a9005ae6ef703f4e60); /* function */ \n\nc_0x8967a34f(0x2c43785cd2a38c34b4dfa238ec481edb71e21f083e9fb8112693c4d651cf624c); /* line */ \n        c_0x8967a34f(0x60eb5b0589e8f11758d66a8f603f5f49c1a90ef8425b580849d700c48931d427); /* statement */ \nPlanterData storage tempPlanter = planters[_planterAddress];\nc_0x8967a34f(0x50cdb2b245f4d2244f3fe387bebe5cbf666452545440b35ab19bdb5344f1676c); /* line */ \n        c_0x8967a34f(0xa039928453e2527599369e40e299f765711ec486cfafb2b3a25b9b8ef1690409); /* statement */ \nif (tempPlanter.planterType > 0) {c_0x8967a34f(0x81629c1eaccc1c26585d7e966b10441a8a3f8bc9442f7b8288c7622f4d9dd368); /* branch */ \n\nc_0x8967a34f(0x227b39bf34fd36c3ccc09b36bb2d265713c1a386785fea619fbfa53b62590d39); /* line */ \n            c_0x8967a34f(0x2c98b5a676b85ae6501e27649606d0640149cc36054f7a7bc2b3d3fc81f1d00f); /* statement */ \nif (\n                _planterAddress == _assignedPlanterAddress ||\n                (tempPlanter.planterType == 3 &&\n                    memberOf[_planterAddress] == _assignedPlanterAddress)\n            ) {c_0x8967a34f(0x5fa43c30c4aebf3536d9033585248fcbac264af11fefcf04b427e39b161ab96c); /* branch */ \n\nc_0x8967a34f(0x551016d205bf44f31991befed62d32120604bd51bab431d98917f9fc43c3ce57); /* line */ \n                c_0x8967a34f(0x945be388928316c692dac180a3fd6a78636069f984f3a07a9c27abb9c03d52e2); /* statement */ \nif (\n                    tempPlanter.status == 1 &&\n                    tempPlanter.plantedCount < tempPlanter.capacity\n                ) {c_0x8967a34f(0xd9cc3a4ce26be231e8eef152190e4a4a1942fd76afc55c38fffda0290b25e78f); /* branch */ \n\nc_0x8967a34f(0x719b1d4ba0268550f55c1f4bf82f2fce468c86ee7ad34871590a8d2453a81fcf); /* line */ \n                    c_0x8967a34f(0x99653446747dec78e4315df30e9498157a3e9bc393ef99829bd4a5e199cba306); /* statement */ \ntempPlanter.plantedCount += 1;\n\nc_0x8967a34f(0x59ff76b510178a0bbeffc8a3210f0dd2919ad5b27736f548bd03b97e785193e0); /* line */ \n                    c_0x8967a34f(0x2efa6b538dcc3e3868ceabd968202ce9aeef0b42fcb8169046cf446f7ab32cee); /* statement */ \nif (tempPlanter.plantedCount >= tempPlanter.capacity) {c_0x8967a34f(0x16e98e1e49f2e7549d81c7b44f1ce184aa349af43a617dbd63423e22cd0f87a1); /* branch */ \n\nc_0x8967a34f(0x40f2ab9a98fc9d7e01c1443663c3435c5fc89a8685c4019d7f98f96d1c44c70f); /* line */ \n                        c_0x8967a34f(0x2516650e69651ac4a36c29a7143102189b520970cc55ce692a18556cba453cf7); /* statement */ \ntempPlanter.status = 2;\n                    }else { c_0x8967a34f(0x55a7a0bfa52bdc87a241766712a11c4d6692def1a442c684034bdad6e3231f52); /* branch */ \n}\nc_0x8967a34f(0x1cb51c6c01727ae32050765c9bda34f4a5bd775b0a3543ab84824e6c22d90a10); /* line */ \n                    c_0x8967a34f(0xfa59e27db8f5111dbf58ac5c239a324027e9e14869081cbbc8a8fd4598da3080); /* statement */ \nreturn true;\n                }else { c_0x8967a34f(0x7debfb47b621087b86f3eeddf25062a9d79ba69fa8a2b5533a47237a197c56b8); /* branch */ \n}\n            }else { c_0x8967a34f(0x80d90bb7262cbf144c3000fe8b035d99a91c58f4d28434f5f5fbb6f505dd8a6e); /* branch */ \n}\n        }else { c_0x8967a34f(0xd51545bfea2349c3e0dbc412648d30d390ffb47f17cb938d3ddd012613e98370); /* branch */ \n}\n\nc_0x8967a34f(0x7e8586c31c149fbdef91bb83fc9c6397c0547f378af32dcd1d735ef0e24425a1); /* line */ \n        c_0x8967a34f(0x2f9822765e9349a86c409be429b23a6131f587caece448b5d4e970f48e88fd3e); /* statement */ \nreturn false;\n    }\n\n    /** @dev oragnization can update planterPayment rules of it's members\n     * @param _planterAddress address of planter\n     * @param _planterAutomaticPaymentPortion payment portion value\n     * NOTE only organization (planterType = 2) can call this function\n     */\n    function updateOrganizationPlanterPayment(\n        address _planterAddress,\n        uint256 _planterAutomaticPaymentPortion\n    ) external onlyOrganization existPlanter(_planterAddress) {c_0x8967a34f(0x59e56f5dfa5ac0d351bbc5f1e8339597e949b40b906adee1ed2c7cf151a40ca5); /* function */ \n\nc_0x8967a34f(0xd340ee53461ce13289c3c70a14ee0c0901d184dd6fbc8b6315b65f776af89e73); /* line */ \n        c_0x8967a34f(0xf36d1f412df2c479a340304497af609d8d6f21068219acc6cd1266bcbe9440b4); /* requirePre */ \nc_0x8967a34f(0xa73b2a920785fff9c5e741c6c0529bfe4009f866d4db8b8715033b66517bea6e); /* statement */ \nrequire(planters[_planterAddress].status > 0, \"invalid planter status\");c_0x8967a34f(0x82561b1778dc73886769fdd01db41bdf1ac6632486712317415881674b4d0a9f); /* requirePost */ \n\nc_0x8967a34f(0x11c1267f58ba268e6ebadcbe9b0d6d31929122c1a5e48aa8908b99dc4957481c); /* line */ \n        c_0x8967a34f(0x674ce368ec91e56c981caf81d7d47db5995de70e34a5128e616c154b519516d0); /* requirePre */ \nc_0x8967a34f(0x977c90372ff088370a8dd40a9dabc2194ae367c02d47cdf4a9e8a52e82c5476d); /* statement */ \nrequire(\n            memberOf[_planterAddress] == _msgSender(),\n            \"invalid input planter\"\n        );c_0x8967a34f(0x6c2ad2287abfd741365aa84a4d9dea6288b6cc621a9e6a98886aae8c3e6690ef); /* requirePost */ \n\nc_0x8967a34f(0x25f9fcfb0e10dd87b6a43208abcc1263f75c90b1a38676738bde5f9c614bc3e8); /* line */ \n        c_0x8967a34f(0x62f95d258971b267a31bc012b5a06fde6e431141160481b0e4dd1e3d430bb6fa); /* requirePre */ \nc_0x8967a34f(0x67c5df3b41ba3e81fc863db205849342f9f897fc9b78c198c9888244934d5c37); /* statement */ \nrequire(\n            _planterAutomaticPaymentPortion < 10001,\n            \"invalid payment portion\"\n        );c_0x8967a34f(0x7ed44907b9c51104a94407def772e5a292e859fc409c79cd4dbcc2f7dd22a182); /* requirePost */ \n\n\nc_0x8967a34f(0xa05f97ffce6be23cc4e921f314981f227ae1075b041b6f8ce33c71bd52a5773d); /* line */ \n        c_0x8967a34f(0xfafce9f41eec73fa313685e65bc0f862fb4aaa27f52e65086f5f3331fed6d848); /* statement */ \norganizationRules[_msgSender()][\n            _planterAddress\n        ] = _planterAutomaticPaymentPortion;\n\nc_0x8967a34f(0x1c5aa8fff0f874204d6a6d353da9adb1939c5ca1b960a9df74acee8efab41f31); /* line */ \n        c_0x8967a34f(0x2753140658fcd186689dab0e764068aad596c20fce448c6e8896f7cc9624b24c); /* statement */ \nemit PortionUpdated(_planterAddress);\n    }\n\n    /** @dev return planter paymentPortion for an accepted organizationPlanter\n     * @param _planterAddress address of planter to get payment portion\n     * @return {true} as first param in valid planter case and seccond param is\n     * address of organization that {_planterAddress} is member of it.\n     * and third param is address of referral and the last one is portion value\n     */\n    function getPlanterPaymentPortion(address _planterAddress)\n        external\n        view\n        returns (\n            bool,\n            address,\n            address,\n            uint256\n        )\n    {c_0x8967a34f(0x30189993773a9732bc37658691fd519ea23dfb9b515587b5c8b0f55c4279d8e9); /* function */ \n\nc_0x8967a34f(0x74629c2a1774d6a71afd5809f22605dd2cca28cee5e0df0b8f72b7995c1d77ae); /* line */ \n        c_0x8967a34f(0xb3becbb5273955d7d0a054afd71f4744204dca9e7eff98b2f7e6a4b5f0409c11); /* statement */ \nPlanterData storage tempPlanter = planters[_planterAddress];\nc_0x8967a34f(0x62640d1b585ce12b239d4fc7615e450eaa2596aa22aed06339ae68884fc62472); /* line */ \n        c_0x8967a34f(0xf396a1e0f5347faa77bb331b86a068b6254ac51f20854555c0a6a3469bce5d1f); /* statement */ \nif (tempPlanter.status == 4 || tempPlanter.planterType == 0) {c_0x8967a34f(0x3c86823502c19a5fefe0314168fd38b03ddb9271b2ccba1b134fbfaa97165db9); /* branch */ \n\nc_0x8967a34f(0x74cf9168dffaf6864e04d61d6c4aae9a0478bdcf7ce2771ea85f76fb45c2514f); /* line */ \n            c_0x8967a34f(0x370c9a9dfb7f0ac77d6134b361a3fd68163ceb6360ab2e24bece930f23de154e); /* statement */ \nreturn (false, address(0), address(0), 0);\n        } else {c_0x8967a34f(0x163a2cf99818c963ceed84f377c5968710b3ea48e66620057578b99d6bfcc6d7); /* branch */ \n\nc_0x8967a34f(0x65a7892e71b45b918d1e7afbcad447cd814c74fc53b8cdd4bc6cfbe0ce59a671); /* line */ \n            c_0x8967a34f(0x40c86fd3d824c0e9b08c6e59515a8cfdc6758991388a51574334be70131c3c64); /* statement */ \nif (\n                tempPlanter.planterType == 1 ||\n                tempPlanter.planterType == 2 ||\n                tempPlanter.status == 0\n            ) {c_0x8967a34f(0x63ef964145728e1cef98504a1b501d622c0fc8cf5a19743518bddc45d10294b9); /* branch */ \n\nc_0x8967a34f(0xc49fc7be11530b5ee4c4db2ec04620c070ae910ccd9d21a9aa6ddec798d069e7); /* line */ \n                c_0x8967a34f(0xbf3d654e62616c66f5640abb36a68feda56a7e86f6d2da488ff023be15cb1ff6); /* statement */ \nreturn (true, address(0), refferedBy[_planterAddress], 10000);\n            } else {c_0x8967a34f(0xccf4a7c2b5797d209fa920121cfc32a879eb3c2a00615ecd7ac300c486421649); /* branch */ \n\nc_0x8967a34f(0x8b0c468293f05f8045b906ece20aff909e6082d8ab2be19cbbc106e0414fbf4b); /* line */ \n                c_0x8967a34f(0x0337f73b6b6c7fde1e3906f3da4123596f6bcfbf93330fcc6d0bbe178f274e94); /* statement */ \nreturn (\n                    true,\n                    memberOf[_planterAddress],\n                    refferedBy[_planterAddress],\n                    organizationRules[memberOf[_planterAddress]][\n                        _planterAddress\n                    ]\n                );\n            }\n        }\n    }\n\n    /** @dev when tree plant of {_planterAddress} rejected, plantedCount of {_planterAddress}\n     * must reduce 1 time and if planter status is full capacity {2} update it to active {1}\n     * @param _planterAddress address of planter\n     * NOTE only treeFactory contract can call this function\n     */\n    function reducePlantCount(address _planterAddress)\n        external\n        existPlanter(_planterAddress)\n        onlyTreejerContract\n    {c_0x8967a34f(0x78187b83f4b1821573d174baed25eb8fca56def7913b604dfb945db80550d87a); /* function */ \n\nc_0x8967a34f(0x7e3b0902db2aff6b4eb5cf6419d86ab81a71ec374fd407f6b4e983bd55362ecf); /* line */ \n        c_0x8967a34f(0x88f044eb12a6687782265b7693b5f485c32ac0b28709178f6ddb8e4da0b4d8f5); /* statement */ \nPlanterData storage tempPlanter = planters[_planterAddress];\n\nc_0x8967a34f(0x28123f61c856f6044fd32efee44f2e78a99966395fe35f8d8bfd2dbf221afbf3); /* line */ \n        c_0x8967a34f(0x8547b097f04dad4e2bfbaff4d099ac19e622e93e9305774e8c3592b261e86ada); /* statement */ \ntempPlanter.plantedCount -= 1;\n\nc_0x8967a34f(0x2b283fd03e8d4ddb08fc997ec86a45f442ef87d509b253d3f5d505cc01052575); /* line */ \n        c_0x8967a34f(0xdb201d3f59121cbaf9eac7961c864d6c28310aec87430465a7e3ad97793a1d1d); /* statement */ \nif (tempPlanter.status == 2) {c_0x8967a34f(0x87afe7b1fa22895d4e61722d6b02c06d8432ab05898fc5cf3e9e6c41c7294f3d); /* branch */ \n\nc_0x8967a34f(0xa7a07b75113016817df926506f31a1295882c9eff8a70c880f875a7a9721aef4); /* line */ \n            c_0x8967a34f(0x941663429a911757faf1e035db8a7dd41f929c18dee7e6d4be23f47398d65e90); /* statement */ \ntempPlanter.status = 1;\n        }else { c_0x8967a34f(0x5c789db0b22f18692159b7637dcade975556c15dd9b3661c7383cb7739d11a9f); /* branch */ \n}\n    }\n\n    /** @dev check that planter {_planterAddress} can plant regular tree\n     * @param _planterAddress address of planter\n     * NOTE treeFactory contract can call this function\n     * NOTE change status to full capacity if plantedCount be equal with\n     * planter capacity after increase plantedCount by 1\n     * @return true in case of planter status is active {1}\n     */\n    function planterCheck(address _planterAddress)\n        external\n        existPlanter(_planterAddress)\n        onlyTreejerContract\n        returns (bool)\n    {c_0x8967a34f(0x28b1d3b27bc0b924103ea51fc98fa86367e11ad82b4b6bdbf476e9997d4b21b8); /* function */ \n\nc_0x8967a34f(0xb752c3f79fedde24fdfb3a66bc36e70ae6c0e334702b9a5c9fdb532acbfe62f8); /* line */ \n        c_0x8967a34f(0x919287c3b57efd4ed757db294b9c0b87700bc98c9e2abb94cc4aa3fa59a7d9eb); /* statement */ \nPlanterData storage tempPlanter = planters[_planterAddress];\n\nc_0x8967a34f(0x3065f46c73e36d6c8ef378688c85e4a1c5ed1890f494480a390041186bc8ac6f); /* line */ \n        c_0x8967a34f(0x9eabe472d073eab357329cca2051354e0560a479b3939335186d483b08e59fde); /* statement */ \nif (tempPlanter.status == 1) {c_0x8967a34f(0xa52bc613ee92171ddd0cf35edadea49beebfd15b07dd31d762fc66b2506a5a7e); /* branch */ \n\nc_0x8967a34f(0x96e76e6fb46bac82a1eb428ead8644c5f78fc77dcd226069603598d2bb16b5cc); /* line */ \n            c_0x8967a34f(0x7724a9de712ec9f11b5854da8e4b7bb82fc36590a8af21233de41a6d9c464670); /* statement */ \ntempPlanter.plantedCount += 1;\n\nc_0x8967a34f(0x3f7ea84b51f673ef34074b39f75159f5648dd36e9405c0375c7503d5552ac464); /* line */ \n            c_0x8967a34f(0x29ab4c841694f7972a757285c52038902479c80c751db23d26d9474ee7476073); /* statement */ \nif (tempPlanter.plantedCount == tempPlanter.capacity) {c_0x8967a34f(0x6292e570c4c668fbe538fe011b427b95aa54c3215b85182480661f11bb009f04); /* branch */ \n\nc_0x8967a34f(0x8327cdcea9e753617732ddcc0402d3399aec6114995e281f77094da4934290ae); /* line */ \n                c_0x8967a34f(0xe6d24551da899680b7e31fcb1a5bd00fc191183cefcd83e33183e0b194539e4a); /* statement */ \ntempPlanter.status = 2;\n            }else { c_0x8967a34f(0x3a14d396057548c607fe6f639965c867e286246d99fd20149c2b36f3efe38ac6); /* branch */ \n}\nc_0x8967a34f(0x5ecb91bd8a60f3516aa2836265b6d47b06b1540607df67d1efb311fd6fecae2a); /* line */ \n            c_0x8967a34f(0xfe8d9f7b7b6960fed5d587e0cf4df4a4eaf22ced1f8448cf1dae7756330a74eb); /* statement */ \nreturn true;\n        }else { c_0x8967a34f(0x868d1b5d9c043d5529b154c1b4372f7ab41e4d24dc292f8e5f1533cdb1ac2fef); /* branch */ \n}\nc_0x8967a34f(0x8e1226184a44fc1a05fa38bb2a2404f1884bf85f3270573cca315e928e396497); /* line */ \n        c_0x8967a34f(0xaf9cc5e3af7f64dc0631f74179541042660c110bfbd78d2050ffd19ac5461d86); /* statement */ \nreturn false;\n    }\n\n    /** @dev check that {_verifier} can verify plant or update requests of {_planterAddress}\n     * @param _planterAddress address of planter\n     * @param _verifier address of verifier\n     * @return true in case of {_verifier} can verify {_planterAddress} and false otherwise\n     */\n    function canVerify(address _planterAddress, address _verifier)\n        external\n        view\n        returns (bool)\n    {c_0x8967a34f(0x020860c7cf90734889e073a609e08716145e4e46625e6089e626a3e1f67263d6); /* function */ \n\nc_0x8967a34f(0xeb4c8712e7f7e4a46c6b0dd3f85532d03a7167d2fd5f3cca13f1a23b8314becb); /* line */ \n        c_0x8967a34f(0xeb53687a7a971e075b407ec4145bcfe6e26ff20ddf9879cf589eea6f391b3265); /* statement */ \nuint8 _planterType = planters[_planterAddress].planterType;\n\nc_0x8967a34f(0x02b7cd5bea477c48dc0e0eef7f365ceb58c3613f2ebda13daf53b4aa40ce148e); /* line */ \n        c_0x8967a34f(0xd464dcf1dc7d431b6b7c8752894c4bbc26bd5d9998cccc89107d5e862b9b0107); /* statement */ \nuint8 _verifierStatus = planters[_verifier].status;\n\nc_0x8967a34f(0x9a58f089e1c5558ae5c090c903688488158b769745bb223d880dd13eb317d53f); /* line */ \n        c_0x8967a34f(0xd60624c8e4ac4bbc63fbfd00c0a2b758480954e4f2a7cc7c2b48b10dfedf5744); /* statement */ \nif (_planterType > 1) {c_0x8967a34f(0x2fd5a5c63a3ff48e20a6d0ef444f216da6ed095fd2e6092f73223e812e11736a); /* branch */ \n\nc_0x8967a34f(0x92990aaba52ef0ad87f93fa4386499be04406e645f29f66e59235659144fdbb6); /* line */ \n            c_0x8967a34f(0x3b919a61f0710521e66c1a5e9f4b6fdf87d2c0ac1c5471eb65d9f683acc633f0); /* statement */ \nif (_verifierStatus == 1 || _verifierStatus == 2) {c_0x8967a34f(0xee6370d56f3b2bfa9ff856c2531bcbed6dd559c93877792cf0dac1713bf8dfb5); /* branch */ \n\nc_0x8967a34f(0xf2edcaf5157e0b28c15260184fe2a19bc7c7788de6d846fa11be89c77318e296); /* line */ \n                c_0x8967a34f(0x279ddc37781f8a57d83f5a4d8b76f1f4631fa841d9be5547d50b25d2cd8c2fcb); /* statement */ \nif (_planterType == 2) {c_0x8967a34f(0x36003a5c60996bed6aa785e9800603bcae142d8c7bb8701667560552dcc2ad8c); /* branch */ \n\nc_0x8967a34f(0x737f318ebefc0f1c6765c522fdad494c6da67672a8dde7c0a1dd631442053ceb); /* line */ \n                    c_0x8967a34f(0xa5658283f5f3bc693729699ad338e89ce27a67c8575443b386a5d0d497bbbdae); /* statement */ \nreturn memberOf[_verifier] == _planterAddress;\n                } else {c_0x8967a34f(0x0be81851500f171d0ec8d799ba9ef42a4a9e6777217286b99010789788bacde2); /* statement */ \nc_0x8967a34f(0x8a49004f44d306ddd4d3470b84ef7ffc457309f9ae43874f14537edf23c30284); /* branch */ \nif (_planterType == 3) {c_0x8967a34f(0xfcef18e24500f45fee0669a739b1187e4db4efbba35bb17290749625f68ca0e5); /* branch */ \n\nc_0x8967a34f(0xdcb59c5c811435d36c2b9488482fd543789ee1d61b2fdd37a91df897e527da93); /* line */ \n                    c_0x8967a34f(0x59eacb1be8380f381e25ceb1d5aa250027aeb8f6e708ce072c421b087805ebbd); /* statement */ \nreturn\n                        memberOf[_verifier] == memberOf[_planterAddress] ||\n                        memberOf[_planterAddress] == _verifier;\n                }else { c_0x8967a34f(0xaafdcda0b9c047f5ad6b80a1af12400aec22c0eb880e0370489f573a44fbfeb4); /* branch */ \n}}\n            }else { c_0x8967a34f(0xcbdf2ac9455c532baac9e4103d0676ec481f6d4f8074120052ec02aed195dbc6); /* branch */ \n}\n        }else { c_0x8967a34f(0x453f1b35c9238676ebd1dd4d6ef94a60a9f8cc5cd6f72671ec6715f2479808c0); /* branch */ \n}\nc_0x8967a34f(0x9705c83f44a7892f4278a953563eecc3b4dda4ccd743876a1d7cfdfcfc206c21); /* line */ \n        c_0x8967a34f(0xde19f87f724f62c26ade5e6a55eaf88ccaa582ea954fcf167a8cea1321569572); /* statement */ \nreturn false;\n    }\n\n    /** @dev check allowance to assign tree to planter {_planterAddress}\n     * @param _planterAddress address of assignee planter\n     * @return true in case of active planter or orgnization planter and false otherwise\n     */\n    function canAssignTreeToPlanter(address _planterAddress)\n        external\n        view\n        returns (bool)\n    {c_0x8967a34f(0x0a60da3fd88ac53efcf09c3dc99fd9a4378e09eb49eb86701f99c50cd1ac68ab); /* function */ \n\nc_0x8967a34f(0x5f28ab3fd2f5e47c94599f99dc9239d0bbbf9a2ec7cd3d3895b616d3b1fae6cf); /* line */ \n        c_0x8967a34f(0xe312611712bed8833b6e111795d59fd273e5bb2610a40c06606b2900a62bcd52); /* statement */ \nPlanterData storage tempPlanter = planters[_planterAddress];\n\nc_0x8967a34f(0x07073056da1d503f05350dfc59711e7e38fd50d484a5797b3f1cfbbe3e78c93f); /* line */ \n        c_0x8967a34f(0x81856caa8ae347b9c2a1d13aa7079af6ce26309bdae1fa3b6e28de73084e031c); /* statement */ \nreturn tempPlanter.status == 1 || tempPlanter.planterType == 2;\n    }\n}\n",
  "sourcePath": "/home/smuggler/contract/.coverage_contracts/planter/Planter.sol",
  "compiler": {
    "name": "solc",
    "version": "0.8.6+commit.11564f7e.Emscripten.clang"
  },
  "schemaVersion": "3.4.1",
  "updatedAt": "2021-08-31T13:33:31.555Z",
  "devdoc": {
    "kind": "dev",
    "methods": {
      "acceptPlanterFromOrganization(address,bool)": {
        "details": "organization can accept planter to be it's member or reject",
        "params": {
          "_acceptance": "accept or reject",
          "_planterAddress": "address of planter"
        }
      },
      "canAssignTreeToPlanter(address)": {
        "details": "check allowance to assign tree to planter {_planterAddress}",
        "params": {
          "_planterAddress": "address of assignee planter"
        },
        "returns": {
          "_0": "true in case of active planter or orgnization planter and false otherwise"
        }
      },
      "canVerify(address,address)": {
        "details": "check that {_verifier} can verify plant or update requests of {_planterAddress}",
        "params": {
          "_planterAddress": "address of planter",
          "_verifier": "address of verifier"
        },
        "returns": {
          "_0": "true in case of {_verifier} can verify {_planterAddress} and false otherwise"
        }
      },
      "getPlanterPaymentPortion(address)": {
        "details": "return planter paymentPortion for an accepted organizationPlanter",
        "params": {
          "_planterAddress": "address of planter to get payment portion"
        },
        "returns": {
          "_0": "{true} as first param in valid planter case and seccond param is address of organization that {_planterAddress} is member of it. and third param is address of referral and the last one is portion value"
        }
      },
      "initialize(address)": {
        "details": "initialize accessRestriction contract and set true for isPlanter",
        "params": {
          "_accessRestrictionAddress": "set to the address of accessRestriction contract"
        }
      },
      "organizationJoin(address,uint64,uint64,uint16,uint32,address)": {
        "details": "admin add a plater as organization (planterType 2) so planterType 3 can be member of these planters.",
        "params": {
          "_capacity": "plant capacity of organization planter",
          "_countryCode": "country code",
          "_latitude": "latitude value",
          "_longitude": "longitude value",
          "_organizationAddress": "address of organization planter",
          "_refferedBy": "address of referral"
        }
      },
      "planterCheck(address)": {
        "details": "check that planter {_planterAddress} can plant regular tree",
        "params": {
          "_planterAddress": "address of planter NOTE treeFactory contract can call this function NOTE change status to full capacity if plantedCount be equal with planter capacity after increase plantedCount by 1"
        },
        "returns": {
          "_0": "true in case of planter status is active {1}"
        }
      },
      "planterJoin(uint8,uint64,uint64,uint16,address,address)": {
        "details": "based on {_planterType} a planter can join as individual planter or member of an organization",
        "params": {
          "_countryCode": "country code",
          "_latitude": "latitude value",
          "_longitude": "longitude value",
          "_organizationAddress": "address of organization to be member of NOTE if join as a member of an organization, when that organization accept planter, planter status set to active",
          "_planterType": "1 for individual and 3 for member of organization",
          "_refferedBy": "address of referral"
        }
      },
      "plantingPermission(address,address)": {
        "details": "return if a planter can plant a tree and increase planter plantedCount 1 time.",
        "params": {
          "_assignedPlanterAddress": "address of planter that tree assigned to",
          "_planterAddress": "address of planter who want to plant tree"
        },
        "returns": {
          "_0": "if a planter can plant a tree or not"
        }
      },
      "reducePlantCount(address)": {
        "details": "when tree plant of {_planterAddress} rejected, plantedCount of {_planterAddress} must reduce 1 time and if planter status is full capacity {2} update it to active {1}",
        "params": {
          "_planterAddress": "address of planter NOTE only treeFactory contract can call this function"
        }
      },
      "setTrustedForwarder(address)": {
        "details": "set trusted forwarder address",
        "params": {
          "_address": "set to {trustedForwarder}"
        }
      },
      "updateCapacity(address,uint32)": {
        "details": "admin update capacity of planter {_planterAddress}",
        "params": {
          "_capacity": "capacity that set to planter capacity",
          "_planterAddress": "address of planter to update capacity"
        }
      },
      "updateOrganizationPlanterPayment(address,uint256)": {
        "details": "oragnization can update planterPayment rules of it's members",
        "params": {
          "_planterAddress": "address of planter",
          "_planterAutomaticPaymentPortion": "payment portion value NOTE only organization (planterType = 2) can call this function"
        }
      },
      "updatePlanterType(uint8,address)": {
        "details": "planter with type 1 , 3 can update their planterType using this function. planterType 3 (member of organization) can change to planterType 1 (individual planter) with input value {_planterType} of 1 and zeroAddress as {_organizationAddress} or choose other organization to be member of with input value {_planterType} of 3 and {_organizationAddress}. planterType 1 can only change to planterType 3 with input value {_planterAddress} of 3 and {_organizationAddress} if planter type 3 choose another oraganization or planterType 1 chage to planterType 3, they must be accepted by the organization to be an active planter"
      },
      "versionRecipient()": {
        "details": "return version recipient "
      }
    },
    "title": "Planter contract ",
    "version": 1
  },
  "userdoc": {
    "kind": "user",
    "methods": {
      "isPlanter()": {
        "notice": "NOTE {isPlanter} set inside the initialize to {true} "
      },
      "isTrustedForwarder(address)": {
        "notice": "return if the forwarder is trusted to forward relayed transactions to us. the forwarder is required to verify the sender's signature, and verify the call is not a replay."
      },
      "memberOf(address)": {
        "notice": "NOTE mapping of planterAddress to organizationAddress that planter is member of it "
      },
      "organizationRules(address,address)": {
        "notice": "NOTE mapping of organizationAddress to mapping of planterAddress to portionValue "
      },
      "planters(address)": {
        "notice": "NOTE mapping of planterAddress to PlanterData "
      },
      "refferedBy(address)": {
        "notice": "NOTE mapping of planterAddress to address of refferedBy "
      }
    },
    "version": 1
  }
}