{
  "contractName": "RegularSell",
  "abi": [
    {
      "anonymous": false,
      "inputs": [
        {
          "indexed": false,
          "internalType": "uint256",
          "name": "lastSoldRegularTree",
          "type": "uint256"
        }
      ],
      "name": "LastSoldRegularTreeUpdated",
      "type": "event"
    },
    {
      "anonymous": false,
      "inputs": [
        {
          "indexed": false,
          "internalType": "address",
          "name": "buyer",
          "type": "address"
        },
        {
          "indexed": false,
          "internalType": "uint256",
          "name": "treeId",
          "type": "uint256"
        }
      ],
      "name": "RegularMint",
      "type": "event"
    },
    {
      "anonymous": false,
      "inputs": [
        {
          "indexed": false,
          "internalType": "uint256",
          "name": "count",
          "type": "uint256"
        },
        {
          "indexed": false,
          "internalType": "address",
          "name": "buyer",
          "type": "address"
        },
        {
          "indexed": false,
          "internalType": "uint256",
          "name": "amount",
          "type": "uint256"
        }
      ],
      "name": "RegularTreeRequsted",
      "type": "event"
    },
    {
      "anonymous": false,
      "inputs": [
        {
          "indexed": false,
          "internalType": "uint256",
          "name": "treeId",
          "type": "uint256"
        },
        {
          "indexed": false,
          "internalType": "address",
          "name": "buyer",
          "type": "address"
        },
        {
          "indexed": false,
          "internalType": "uint256",
          "name": "amount",
          "type": "uint256"
        }
      ],
      "name": "RegularTreeRequstedById",
      "type": "event"
    },
    {
      "anonymous": false,
      "inputs": [
        {
          "indexed": false,
          "internalType": "uint256",
          "name": "price",
          "type": "uint256"
        }
      ],
      "name": "TreePriceUpdated",
      "type": "event"
    },
    {
      "inputs": [],
      "name": "accessRestriction",
      "outputs": [
        {
          "internalType": "contract IAccessRestriction",
          "name": "",
          "type": "address"
        }
      ],
      "stateMutability": "view",
      "type": "function"
    },
    {
      "inputs": [
        {
          "internalType": "bytes32",
          "name": "c__0x07853504",
          "type": "bytes32"
        }
      ],
      "name": "c_0x07853504",
      "outputs": [],
      "stateMutability": "pure",
      "type": "function"
    },
    {
      "inputs": [],
      "name": "daiFunds",
      "outputs": [
        {
          "internalType": "contract IDaiFunds",
          "name": "",
          "type": "address"
        }
      ],
      "stateMutability": "view",
      "type": "function"
    },
    {
      "inputs": [],
      "name": "daiToken",
      "outputs": [
        {
          "internalType": "contract IERC20Upgradeable",
          "name": "",
          "type": "address"
        }
      ],
      "stateMutability": "view",
      "type": "function"
    },
    {
      "inputs": [],
      "name": "financialModel",
      "outputs": [
        {
          "internalType": "contract IFinancialModel",
          "name": "",
          "type": "address"
        }
      ],
      "stateMutability": "view",
      "type": "function"
    },
    {
      "inputs": [],
      "name": "isRegularSell",
      "outputs": [
        {
          "internalType": "bool",
          "name": "",
          "type": "bool"
        }
      ],
      "stateMutability": "view",
      "type": "function"
    },
    {
      "inputs": [
        {
          "internalType": "address",
          "name": "forwarder",
          "type": "address"
        }
      ],
      "name": "isTrustedForwarder",
      "outputs": [
        {
          "internalType": "bool",
          "name": "",
          "type": "bool"
        }
      ],
      "stateMutability": "view",
      "type": "function"
    },
    {
      "inputs": [],
      "name": "lastSoldRegularTree",
      "outputs": [
        {
          "internalType": "uint256",
          "name": "",
          "type": "uint256"
        }
      ],
      "stateMutability": "view",
      "type": "function"
    },
    {
      "inputs": [],
      "name": "treeFactory",
      "outputs": [
        {
          "internalType": "contract ITreeFactory",
          "name": "",
          "type": "address"
        }
      ],
      "stateMutability": "view",
      "type": "function"
    },
    {
      "inputs": [],
      "name": "treePrice",
      "outputs": [
        {
          "internalType": "uint256",
          "name": "",
          "type": "uint256"
        }
      ],
      "stateMutability": "view",
      "type": "function"
    },
    {
      "inputs": [],
      "name": "trustedForwarder",
      "outputs": [
        {
          "internalType": "address",
          "name": "",
          "type": "address"
        }
      ],
      "stateMutability": "view",
      "type": "function"
    },
    {
      "inputs": [],
      "name": "versionRecipient",
      "outputs": [
        {
          "internalType": "string",
          "name": "",
          "type": "string"
        }
      ],
      "stateMutability": "pure",
      "type": "function"
    },
    {
      "inputs": [
        {
          "internalType": "bytes32",
          "name": "c__0x0000771f",
          "type": "bytes32"
        }
      ],
      "name": "c_0x0000771f",
      "outputs": [],
      "stateMutability": "pure",
      "type": "function"
    },
    {
      "inputs": [
        {
          "internalType": "address",
          "name": "_accessRestrictionAddress",
          "type": "address"
        },
        {
          "internalType": "uint256",
          "name": "_price",
          "type": "uint256"
        }
      ],
      "name": "initialize",
      "outputs": [],
      "stateMutability": "nonpayable",
      "type": "function"
    },
    {
      "inputs": [
        {
          "internalType": "address",
          "name": "_address",
          "type": "address"
        }
      ],
      "name": "setTrustedForwarder",
      "outputs": [],
      "stateMutability": "nonpayable",
      "type": "function"
    },
    {
      "inputs": [
        {
          "internalType": "uint256",
          "name": "_lastSoldRegularTree",
          "type": "uint256"
        }
      ],
      "name": "setLastSoldRegularTree",
      "outputs": [],
      "stateMutability": "nonpayable",
      "type": "function"
    },
    {
      "inputs": [
        {
          "internalType": "address",
          "name": "_address",
          "type": "address"
        }
      ],
      "name": "setTreeFactoryAddress",
      "outputs": [],
      "stateMutability": "nonpayable",
      "type": "function"
    },
    {
      "inputs": [
        {
          "internalType": "address",
          "name": "_address",
          "type": "address"
        }
      ],
      "name": "setDaiFundsAddress",
      "outputs": [],
      "stateMutability": "nonpayable",
      "type": "function"
    },
    {
      "inputs": [
        {
          "internalType": "address",
          "name": "_address",
          "type": "address"
        }
      ],
      "name": "setDaiTokenAddress",
      "outputs": [],
      "stateMutability": "nonpayable",
      "type": "function"
    },
    {
      "inputs": [
        {
          "internalType": "address",
          "name": "_address",
          "type": "address"
        }
      ],
      "name": "setFinancialModelAddress",
      "outputs": [],
      "stateMutability": "nonpayable",
      "type": "function"
    },
    {
      "inputs": [
        {
          "internalType": "uint256",
          "name": "_price",
          "type": "uint256"
        }
      ],
      "name": "setPrice",
      "outputs": [],
      "stateMutability": "nonpayable",
      "type": "function"
    },
    {
      "inputs": [
        {
          "internalType": "uint256",
          "name": "_count",
          "type": "uint256"
        }
      ],
      "name": "requestTrees",
      "outputs": [],
      "stateMutability": "nonpayable",
      "type": "function"
    },
    {
      "inputs": [
        {
          "internalType": "uint256",
          "name": "_treeId",
          "type": "uint256"
        }
      ],
      "name": "requestByTreeId",
      "outputs": [],
      "stateMutability": "nonpayable",
      "type": "function"
    }
  ],
  "bytecode": "0x608060405234801561001057600080fd5b506142b4806100206000396000f3fe608060405234801561001057600080fd5b506004361061014d5760003560e01c80637da0a877116100c3578063d0ae266a1161007c578063d0ae266a14610352578063d6762c4a14610370578063da7422281461038e578063e5f52e7c146103aa578063f1326b15146103c6578063f7b914ac146103e25761014d565b80637da0a877146102a45780638576e4be146102c257806391b7f5ed146102de57806395b64603146102fa578063be22f54614610318578063cd6dc687146103365761014d565b8063486ff0cd11610115578063486ff0cd146101e45780634fe044c41461020257806351c90f171461021e578063546985951461023c578063572b6c051461025857806373d87ce2146102885761014d565b80630605f54c146101525780630bf351f81461017057806311c9ebc41461018c5780631afb8804146101a8578063421ef6d4146101c6575b600080fd5b61015a6103fe565b6040516101679190613d2e565b60405180910390f35b61018a60048036038101906101859190613759565b610404565b005b6101a660048036038101906101a191906137f3565b6107a3565b005b6101b06107a6565b6040516101bd9190613d2e565b60405180910390f35b6101ce6107ac565b6040516101db9190613c11565b60405180910390f35b6101ec6107d2565b6040516101f99190613c2c565b60405180910390f35b61021c60048036038101906102179190613759565b610893565b005b610226610c32565b6040516102339190613bc0565b60405180910390f35b610256600480360381019061025191906138d6565b610c58565b005b610272600480360381019061026d9190613759565b6114f7565b60405161027f9190613b8a565b60405180910390f35b6102a2600480360381019061029d91906138d6565b611550565b005b6102ac612043565b6040516102b99190613af4565b60405180910390f35b6102dc60048036038101906102d791906137f3565b612069565b005b6102f860048036038101906102f391906138d6565b61206c565b005b6103026122cb565b60405161030f9190613bf6565b60405180910390f35b6103206122f1565b60405161032d9190613bdb565b60405180910390f35b610350600480360381019061034b9190613786565b612317565b005b61035a61280e565b6040516103679190613b8a565b60405180910390f35b610378612821565b6040516103859190613ba5565b60405180910390f35b6103a860048036038101906103a39190613759565b612847565b005b6103c460048036038101906103bf91906138d6565b612bcb565b005b6103e060048036038101906103db9190613759565b612f1e565b005b6103fc60048036038101906103f79190613759565b613300565b005b60025481565b6104307ffd76f0a927cdd1294c0a88a56cc2fc1b9620b512ce7fd209b5860b119c07b06660001b6107a3565b61045c7f30e3b82222fe8a8969e323eaf4b7beceb7e6fd62c56081c4a9e3ea317284d3c660001b6107a3565b6104887f974d223b1da07574656d3bb150fc979a5fe4d7481456fc2c99414bfc2c6b49b060001b6107a3565b600360019054906101000a900473ffffffffffffffffffffffffffffffffffffffff1673ffffffffffffffffffffffffffffffffffffffff16638413ec146104ce61369f565b6040518263ffffffff1660e01b81526004016104ea9190613b0f565b60006040518083038186803b15801561050257600080fd5b505afa158015610516573d6000803e3d6000fd5b505050506105467ff9dfc17f50f06f8eb7d61b50b053aa6e6f1aac44beaa7eb875f19b8a8282b94060001b6107a3565b6105727f0d4dd55020a1aa78cc6fe387ae4f7f4066775fb819047964777dc50ba6bc752d60001b6107a3565b61059e7f1bfe7464b0a275985d7fa1d5f7028a1b821f1c2b34787210d4a2ec9409ff88f760001b6107a3565b6105ca7ff80d233db284256bdabcd39710586b6ec0149ceda9512716a84a922d18aea85960001b6107a3565b60008190506105fb7f9087fba48aac3d7a7591b3e76acca686c7f23bcfa6c89e3b631d2f83e366dee660001b6107a3565b6106277fc9099f8ee9a2748e1cdcb64913ddbdf9af9760e2fac1718e0932d11233b98e5560001b6107a3565b6106537f17e9e50716c130d70f35a5447ea7d24a4aafd666831d81f7065e1ea1c775feb560001b6107a3565b8073ffffffffffffffffffffffffffffffffffffffff1663e0eb4eb96040518163ffffffff1660e01b815260040160206040518083038186803b15801561069957600080fd5b505afa1580156106ad573d6000803e3d6000fd5b505050506040513d601f19601f820116820180604052508101906106d191906137c6565b6106da57600080fd5b6107067fad86cde99961b0f6f75bbc40e31a2fab563c6bf34427376d6e95bd6fa63515b560001b6107a3565b6107327f04b3fd0e65045e7d2251941a1898474aac85a607c1fc5b1b6a3a78d510ccd03d60001b6107a3565b61075e7fab23764b012946e7d675d858af483de789715b3a97f0e58f4bcb18641d995cf660001b6107a3565b80600460006101000a81548173ffffffffffffffffffffffffffffffffffffffff021916908373ffffffffffffffffffffffffffffffffffffffff1602179055505050565b50565b60015481565b600460009054906101000a900473ffffffffffffffffffffffffffffffffffffffff1681565b60606108007f11dd98d6809ebd8463693ae2b3f048590b2cbe0b5871346e00a0b4c3c541174a60001b612069565b61082c7f8ba796393678d90e1644972b2432ed6c109dbd204df8ff14546d9632bbedffc560001b612069565b6108587f5759cbc9a7bcad7b45c102beff6e42b49f3a61f90ec5bc06dbe3a1747ad6d10d60001b612069565b6040518060400160405280601d81526020017f322e322e302b747265656a65722e6972656c6179726563697069656e74000000815250905090565b6108bf7ffd76f0a927cdd1294c0a88a56cc2fc1b9620b512ce7fd209b5860b119c07b06660001b6107a3565b6108eb7f30e3b82222fe8a8969e323eaf4b7beceb7e6fd62c56081c4a9e3ea317284d3c660001b6107a3565b6109177f974d223b1da07574656d3bb150fc979a5fe4d7481456fc2c99414bfc2c6b49b060001b6107a3565b600360019054906101000a900473ffffffffffffffffffffffffffffffffffffffff1673ffffffffffffffffffffffffffffffffffffffff16638413ec1461095d61369f565b6040518263ffffffff1660e01b81526004016109799190613b0f565b60006040518083038186803b15801561099157600080fd5b505afa1580156109a5573d6000803e3d6000fd5b505050506109d57ff9dfc17f50f06f8eb7d61b50b053aa6e6f1aac44beaa7eb875f19b8a8282b94060001b6107a3565b610a017f1ebfc271ec429ddddbb2a61bbacbc3f591bf28364c0f413970c46d7df0282aab60001b6107a3565b610a2d7f3fcca32b18ab184958e1fd22f970a7d682dd4212d8036ade8244b108bfba7c2360001b6107a3565b610a597f2caa63d4e94843de6212811fc1dc0ac0c8bbfc7f3f52d82b1c1453c2464c62e960001b6107a3565b6000819050610a8a7f5b2ae765d43fe2b2f417000aa851eaf97766cb7d1fdbf65b2ae5e13fff2592f760001b6107a3565b610ab67f785cdbb2ca65202d0f41c82cb0388be10b6f50a8fcb7a91af5047959166d99f260001b6107a3565b610ae27f267b29961b69cf12f03adf21edf006337c17c6b406ae0cd2606dc54ba0a5a08e60001b6107a3565b8073ffffffffffffffffffffffffffffffffffffffff1663966da5fb6040518163ffffffff1660e01b815260040160206040518083038186803b158015610b2857600080fd5b505afa158015610b3c573d6000803e3d6000fd5b505050506040513d601f19601f82011682018060405250810190610b6091906137c6565b610b6957600080fd5b610b957f3ffccea9a4694b879f7b2f5344cf1c3b271c5046b5a34c457dddee4b26b1b00960001b6107a3565b610bc17f811e2703a5627c9a8687fc76f84c0abfd7b5ba000bef1c9f38dcceeea6e2a6f560001b6107a3565b610bed7fca2abe5946e68728504b206fca0f4969e149dc477c06892e9535e377168b4d1f60001b6107a3565b80600660006101000a81548173ffffffffffffffffffffffffffffffffffffffff021916908373ffffffffffffffffffffffffffffffffffffffff1602179055505050565b600560009054906101000a900473ffffffffffffffffffffffffffffffffffffffff1681565b610c847ffbbe929214feddc269aa2c95f755ca1d2a4f9f11e4913430f34b7e18e4df8bd660001b6107a3565b610cb07fc5fcb5de0cb00af1bfd614d3a4f92e28e73dae81dc494fd1343a52ba2665c60560001b6107a3565b610cdc7f3034c19348e702acf326312ef9a884356203a1133c3b8c06ded8d267a7efe45c60001b6107a3565b610d087f19637d4a823cae61a09a18e7aeac48d265197fd660b53243506b4f1da6212b1d60001b6107a3565b6001548111610d4c576040517f08c379a0000000000000000000000000000000000000000000000000000000008152600401610d4390613cae565b60405180910390fd5b610d787faa218e29228d82a6b59dec7caec6b193f9032bc535549a4630d927d8e4084abd60001b6107a3565b610da47fb584107655a177002a601ef720cc17cac536a734a2c76e6d176f613c6314e3ad60001b6107a3565b610dd07f64234afeb6af4c245830cbdd7ba310fd6be1b7baeeede007ca05080c2d2bb5ec60001b6107a3565b610dfc7fc75d5f4a98b9c401afe5cec9dd9cb3e6d0b26749d77fdf36d48135200468083660001b6107a3565b600254600760009054906101000a900473ffffffffffffffffffffffffffffffffffffffff1673ffffffffffffffffffffffffffffffffffffffff166370a08231610e4561369f565b6040518263ffffffff1660e01b8152600401610e619190613b0f565b60206040518083038186803b158015610e7957600080fd5b505afa158015610e8d573d6000803e3d6000fd5b505050506040513d601f19601f82011682018060405250810190610eb19190613903565b1015610ef2576040517f08c379a0000000000000000000000000000000000000000000000000000000008152600401610ee990613c8e565b60405180910390fd5b610f1e7f2ee89793858b41a77745f69ddb2cec286eccecacd2a7e173406a25a22fde1c2960001b6107a3565b610f4a7f58a2449b96eed783b33b0c347ddab0e29a457790779de5062a597175006db42460001b6107a3565b610f767f4741e933d8d38a21ce569973a48e122cfb96a1245da73dbee511843d942306ea60001b6107a3565b6000600760009054906101000a900473ffffffffffffffffffffffffffffffffffffffff1673ffffffffffffffffffffffffffffffffffffffff166323b872dd610fbe61369f565b600560009054906101000a900473ffffffffffffffffffffffffffffffffffffffff166002546040518463ffffffff1660e01b815260040161100293929190613b2a565b602060405180830381600087803b15801561101c57600080fd5b505af1158015611030573d6000803e3d6000fd5b505050506040513d601f19601f8201168201806040525081019061105491906137c6565b90506110827fb12b3137fa0cd18b6fc296caf34df59168fa07f011bef873b3ef2975cd5643e660001b6107a3565b6110ae7f1dfee0fc6379365e79274e7c1271d8fa11200304046a33085656bab56c9e759f60001b6107a3565b6110da7fa83643d04ab66f30eb04965a77947a11f7f20aed88d26c84b5ac93688379227060001b6107a3565b8061111a576040517f08c379a000000000000000000000000000000000000000000000000000000000815260040161111190613c6e565b60405180910390fd5b6111467ffd57223af4db1bc881897e45beb7120b3b87793748be0b313e83152646df62b260001b6107a3565b6111727f649e187c0e7bab8a25183b247aa8071772547f71c7928c976aa8a6eb9084f28b60001b6107a3565b61119e7f10b9d03731d6130fa1886f1ef801c5bd61d89566df243a6024066a22c0d57c6060001b6107a3565b600460009054906101000a900473ffffffffffffffffffffffffffffffffffffffff1673ffffffffffffffffffffffffffffffffffffffff1663e9455157836111e561369f565b6040518363ffffffff1660e01b8152600401611202929190613d49565b600060405180830381600087803b15801561121c57600080fd5b505af1158015611230573d6000803e3d6000fd5b505050506112607fa2ff1b109e9e1a4d4fb417b27b62897e99e3565a3690862840d39a770949783660001b6107a3565b61128c7f931b0d9801ad485a2820b0d274fab52e2348f413bc667816103a68e150f5e8e060001b6107a3565b600080600080600080600080600660009054906101000a900473ffffffffffffffffffffffffffffffffffffffff1673ffffffffffffffffffffffffffffffffffffffff1663891b30588b6040518263ffffffff1660e01b81526004016112f39190613d2e565b61010060405180830381600087803b15801561130e57600080fd5b505af1158015611322573d6000803e3d6000fd5b505050506040513d601f19601f820116820180604052508101906113469190613820565b975097509750975097509750975097506113827f9bed22ecdd6b38d03bea3ecdaedbb2c8067812573d6fa1457813248d7509b52760001b6107a3565b6113ae7f3927667f68f22974677590e0cc4ef38d35aca699bdd6b615694f7ec667e4f5b260001b6107a3565b600560009054906101000a900473ffffffffffffffffffffffffffffffffffffffff1673ffffffffffffffffffffffffffffffffffffffff1663b36758328b6002548b8b8b8b8b8b8b8b6040518b63ffffffff1660e01b815260040161141d9a99989796959493929190613da9565b600060405180830381600087803b15801561143757600080fd5b505af115801561144b573d6000803e3d6000fd5b5050505061147b7f3b884d2ce0777e1f98e81e39a04f466bcaf17a2dc08a3007342cd3d8b2f3324960001b6107a3565b6114a77f05b6fccd0e7a590c82755ea26f6b25b6fef6b57ee2a169f689207ec451b35fbb60001b6107a3565b7f145e37f8e49e9006efd09220d928a1e5b1476109eb7017a877d897cd0ef8815b8a6114d161369f565b6002546040516114e393929190613d72565b60405180910390a150505050505050505050565b60008060029054906101000a900473ffffffffffffffffffffffffffffffffffffffff1673ffffffffffffffffffffffffffffffffffffffff168273ffffffffffffffffffffffffffffffffffffffff16149050919050565b61157c7f90913c105c4b971e6ed5260b6de9572f3a24bdc82fd9fb40c3bd3bfa034345d760001b6107a3565b6115a87f4ffc033d6f876057ec3e829a6aebdd5b89708a2048c8afced782545537d3588260001b6107a3565b6115d47f42a0091489e1200a54578019fb8b3bf285a181486b64b39dc48a3811fae3f35160001b6107a3565b6116007fec46c77b720e00b6fa7463ef83cbe737db4835ec2f2e49c8748d7539527fa92360001b6107a3565b60008111611643576040517f08c379a000000000000000000000000000000000000000000000000000000000815260040161163a90613d0e565b60405180910390fd5b61166f7fd7c7ca6d43f2540ee477bbe862ac20b08ebcccf3c0b6f1a38546eb9d3c36c9c160001b6107a3565b61169b7f05e3036477c18ad2c9660cc69d2c348b32403dcd1f71d8887c93abccc462bee760001b6107a3565b6116c77f4488b2a262da1405250b0857122cd4178738af858542a85a02e3b640a7bdeefb60001b6107a3565b6000816002546116d79190613e61565b90506117057f1f55ee0b599a7f272a8fdfc99f26ac3db514ab11dfe8a5177a39462fb6af711360001b6107a3565b6117317f9b25ba5f720c4730ef9c606c0ef9e9d69486c4bb64d8ba6732d1ed75b6e48dca60001b6107a3565b61175d7f7ab0a14e4d76f6b1c1a333d534fbeb6faa7511d9ea0ea2e1ea6ba0eba6f78f2660001b6107a3565b80600760009054906101000a900473ffffffffffffffffffffffffffffffffffffffff1673ffffffffffffffffffffffffffffffffffffffff166370a082316117a461369f565b6040518263ffffffff1660e01b81526004016117c09190613b0f565b60206040518083038186803b1580156117d857600080fd5b505afa1580156117ec573d6000803e3d6000fd5b505050506040513d601f19601f820116820180604052508101906118109190613903565b1015611851576040517f08c379a000000000000000000000000000000000000000000000000000000000815260040161184890613c8e565b60405180910390fd5b61187d7f07396f5c442831df93fc8df21b67544a573433160582281ced1381ca3081bf3a60001b6107a3565b6118a97feffca71d41c82a7b90ef863aafccd9ef6bce687437da7304fd15d8f72d06a31360001b6107a3565b6118d57feec87c32cbb27c396d06d5bac15af948f01468f567f6e7177ae18091b21967f260001b6107a3565b600060015490506119087faa44561d9898ad6d0c1ccb27c08a62163833c53a05f22ac785155eeb320a55c260001b6107a3565b6119347f18a6d2fe4d2b985e847aa352a9e84ab7497c4258bf28244404c4e8e46eedb0aa60001b6107a3565b6000600760009054906101000a900473ffffffffffffffffffffffffffffffffffffffff1673ffffffffffffffffffffffffffffffffffffffff166323b872dd61197c61369f565b600560009054906101000a900473ffffffffffffffffffffffffffffffffffffffff16866040518463ffffffff1660e01b81526004016119be93929190613b2a565b602060405180830381600087803b1580156119d857600080fd5b505af11580156119ec573d6000803e3d6000fd5b505050506040513d601f19601f82011682018060405250810190611a1091906137c6565b9050611a3e7f5f034d47f4beb3d41a96aab557a5fddba63ed76367de30e488aaf654fafe883a60001b6107a3565b611a6a7f0c54ebc0bf97068ccd9839782ffa3116d0b389b63f016117e7a57f976bad908960001b6107a3565b611a967f5afe8473eb3a99eed62ad544fe3ef86e2b4eec81262540d96924850d0ec7e24860001b6107a3565b80611ad6576040517f08c379a0000000000000000000000000000000000000000000000000000000008152600401611acd90613c6e565b60405180910390fd5b611b027f19dc33a225e2efd7da3705a1f59b1d30695548cec7ca95bb17d43f073db7c41560001b6107a3565b611b2e7fb5079ccf7335cfa90bd3484f1f1d5aa3fb08284190649b9e90b7bbd1d78bea7d60001b6107a3565b611b5a7f7302026c571c80efb48123b4e97ecf925fa99f75bcc30e7767bc9e6ecb79e37560001b6107a3565b7f92e4ed958c339e611b924f2b9809f6991e9b02ff51956cc7ad71a7cc4bb6d9db84611b8461369f565b85604051611b9493929190613d72565b60405180910390a1611bc87f8bea196cc0b68a5c50acbdcbffd0835762c2b4e027b0ad83643a6dc384e5a35d60001b6107a3565b611bf47f305d5c08ac013c991e2a6a8196dd8ad289e35664abfe0cb287faf7caef260f2f60001b6107a3565b60005b84811015611fdd57611c2b7f25601d671679da57b61839020929b7563a0af8b160eaa1a453421f1c9be36c8960001b6107a3565b611c577f2c421b45e78868a87b21dba8cdc2d30e98005ab6aa45289cfd1f63dd05f16c9160001b6107a3565b600460009054906101000a900473ffffffffffffffffffffffffffffffffffffffff1673ffffffffffffffffffffffffffffffffffffffff1663b20cae5484611c9e61369f565b6040518363ffffffff1660e01b8152600401611cbb929190613d49565b602060405180830381600087803b158015611cd557600080fd5b505af1158015611ce9573d6000803e3d6000fd5b505050506040513d601f19601f82011682018060405250810190611d0d9190613903565b9250611d3b7f4dd6b5869c4b71338b96ba2e8d8f9fd331f8be2071f78fb48e7aea040a2655dc60001b6107a3565b611d677f5676cf648649ee55841c23b0780f6db9a3ea60795b39308bc66f834675df473f60001b6107a3565b600080600080600080600080600660009054906101000a900473ffffffffffffffffffffffffffffffffffffffff1673ffffffffffffffffffffffffffffffffffffffff1663891b30588c6040518263ffffffff1660e01b8152600401611dce9190613d2e565b61010060405180830381600087803b158015611de957600080fd5b505af1158015611dfd573d6000803e3d6000fd5b505050506040513d601f19601f82011682018060405250810190611e219190613820565b97509750975097509750975097509750611e5d7f09ef5f754c012efec91266caedd5da2b4933c986906dea7f1d7f249e293fec2960001b6107a3565b611e897f45cf68cda5f75fef38577d93a9d43200695e41ffc81ae6f0953e2093380cddbd60001b6107a3565b600560009054906101000a900473ffffffffffffffffffffffffffffffffffffffff1673ffffffffffffffffffffffffffffffffffffffff1663b36758328c6002548b8b8b8b8b8b8b8b6040518b63ffffffff1660e01b8152600401611ef89a99989796959493929190613da9565b600060405180830381600087803b158015611f1257600080fd5b505af1158015611f26573d6000803e3d6000fd5b50505050611f567fcb6deecf4e5a24edc841c5f35b07cf2a9aa1759ed6ea1e26d12e6a0ddd2a754760001b6107a3565b611f827fa28feadb2759e51453230d892c1d917999935e02ac608984b8e84e0388f2efaa60001b6107a3565b7fa530557ca41a1bef2ff90cce7e3a0c90890da5a65c01af3a4b150f7112442f8b611fab61369f565b8c604051611fba929190613b61565b60405180910390a150505050505050508080611fd590614038565b915050611bf7565b5061200a7f3a656afc69c6f4356d4aebf09304444a794b798dcfb00cbf1ab7db093dc195d960001b6107a3565b6120367f487a5fdb8e358274d2a7b4b2d53b1629de71b028d4f9a06f8985a758ec41089f60001b6107a3565b8160018190555050505050565b600060029054906101000a900473ffffffffffffffffffffffffffffffffffffffff1681565b50565b6120987fcf19b9c20c4c586b5b2db32a7e8c6b58091137769ed7d8f9f4f9f714c8a4039960001b6107a3565b6120c47f1df0f8f63d806c8a719275ff475bf5480cce67aeb0e7065b682d9378502464b260001b6107a3565b6120f07f267611e0c4c5f75dad63edf665af1cd31b219a949dc9b45ddf278fd4c0dc633d60001b6107a3565b600360019054906101000a900473ffffffffffffffffffffffffffffffffffffffff1673ffffffffffffffffffffffffffffffffffffffff1663c4d2a31b61213661369f565b6040518263ffffffff1660e01b81526004016121529190613b0f565b60006040518083038186803b15801561216a57600080fd5b505afa15801561217e573d6000803e3d6000fd5b505050506121ae7fee621bea4686ae1c3e31fc0a8c2c4ed8a5078b1c0f7dc4804216128628db98b260001b6107a3565b6121da7fa208b0465f4a50d170a10c086ea61e791ca728d08d6563634668652f1682f79060001b6107a3565b6122067f4f0e9741d5186b5949e91e603bb2b310f383575d31482f1088cc42be5efb11cd60001b6107a3565b6122327f27d67086d80ffe283a237a2296722b469df5d45829ab18dd9635b1a1360aa9f560001b6107a3565b806002819055506122657fa3928f88a75e85d7148aae9c81292f2ddd738128733e89757e00fd7f31c09abc60001b6107a3565b6122917fd6dc86a1e140a969f8bbaab8410427dd010808e8e21455afc2cdebdb467d596060001b6107a3565b7f616d92add029a1b8ad2a3109f3fafb9edf08ab3125fde93422e7485d7d421eec816040516122c09190613d2e565b60405180910390a150565b600660009054906101000a900473ffffffffffffffffffffffffffffffffffffffff1681565b600760009054906101000a900473ffffffffffffffffffffffffffffffffffffffff1681565b600060019054906101000a900460ff168061233d575060008054906101000a900460ff16155b61237c576040517f08c379a000000000000000000000000000000000000000000000000000000000815260040161237390613cee565b60405180910390fd5b60008060019054906101000a900460ff1615905080156123cc576001600060016101000a81548160ff02191690831515021790555060016000806101000a81548160ff0219169083151502179055505b6123f87fabb06029b764b8aa5ffb36de8f61ad9b0e52850f6d25ceeca4d1c17d82b1b9ee60001b6107a3565b6124247fdaffaea39ca7c6662c168afed033ff1f9ffaeecd30cdf7b37b5fface721cf2a160001b6107a3565b6124507f8fd49b3cf818fe39c30cda2a2b0813192277f52710631d47a7f85c52f6a4d03b60001b6107a3565b60008390506124817f8c03992ea3f0600bcec8271354f5dd6d0609c564c9142178cdd2d31caebb274560001b6107a3565b6124ad7feaaa54ee61f25567ce98e1ef35b77a5fb80fee05b097f231f4b397b93bfd03cb60001b6107a3565b6124d97f0278b53989fbda89ccb434d0529221e5941840c8efea017c42dd0c24884f613360001b6107a3565b8073ffffffffffffffffffffffffffffffffffffffff1663ba84fd696040518163ffffffff1660e01b815260040160206040518083038186803b15801561251f57600080fd5b505afa158015612533573d6000803e3d6000fd5b505050506040513d601f19601f8201168201806040525081019061255791906137c6565b61256057600080fd5b61258c7ff189a13e2ecfbf3bb43c69bf04b3ebe315063d874d4d5d388f358c71d46a536260001b6107a3565b6125b87f452458da02eb081d3592dc5c5455ab2e8524ce9ef148419ced0c6b7c3c96abfe60001b6107a3565b6125e47feb88fdd3e5e59f806ad7ac3010e883f3bebc01f7103de0ff70d3997db138b13060001b6107a3565b80600360016101000a81548173ffffffffffffffffffffffffffffffffffffffff021916908373ffffffffffffffffffffffffffffffffffffffff1602179055506126517fb579bd9f7c474288e51a6ec322e4ab44cb7ab27518372135184c363ad3d208a760001b6107a3565b61267d7fa860df84a1b75ecc4fe96915fc8a0cef96c4963bd984fde5d7464059ac282b6c60001b6107a3565b6001600360006101000a81548160ff0219169083151502179055506126c47fb9e697ccf5a04ae383295a4d67bb634e8a30796daee8822e5ce501207710890360001b6107a3565b6126f07f166f71927a7505ec9e855ae3f6f8b7a90faf1c0c70dee3314efee11bc533277760001b6107a3565b6127106001819055506127257f6783f22bbccc782f39c5879544c610091fd6c0ad0105beedaed9aabbbcaee9cb60001b6107a3565b6127517fbdf57fecfdd55d49bb8d7b62633bc1e17747d5ebf950b9b552e41631a4d31b9f60001b6107a3565b826002819055506127847f60285b31390aad0d6a2e488dcc44bf1ba053fbd35b26ae23147feaf1ad7b573e60001b6107a3565b6127b07f79cd393c5086625c7d2aeb45187226a427de9c421017f2a7eeaec60cc52b73d060001b6107a3565b7f616d92add029a1b8ad2a3109f3fafb9edf08ab3125fde93422e7485d7d421eec836040516127df9190613d2e565b60405180910390a15080156128095760008060016101000a81548160ff0219169083151502179055505b505050565b600360009054906101000a900460ff1681565b600360019054906101000a900473ffffffffffffffffffffffffffffffffffffffff1681565b6128737ffd76f0a927cdd1294c0a88a56cc2fc1b9620b512ce7fd209b5860b119c07b06660001b6107a3565b61289f7f30e3b82222fe8a8969e323eaf4b7beceb7e6fd62c56081c4a9e3ea317284d3c660001b6107a3565b6128cb7f974d223b1da07574656d3bb150fc979a5fe4d7481456fc2c99414bfc2c6b49b060001b6107a3565b600360019054906101000a900473ffffffffffffffffffffffffffffffffffffffff1673ffffffffffffffffffffffffffffffffffffffff16638413ec1461291161369f565b6040518263ffffffff1660e01b815260040161292d9190613b0f565b60006040518083038186803b15801561294557600080fd5b505afa158015612959573d6000803e3d6000fd5b505050506129897ff9dfc17f50f06f8eb7d61b50b053aa6e6f1aac44beaa7eb875f19b8a8282b94060001b6107a3565b806129b67f345253f4696a0e728de2ceed06c656ada5154232039b49c6f4631d674e5e446260001b6107a3565b6129e27f469918f17cc73d2bcf2568d3e4310fd23bba53682cf79f5a79fe92305b0a134460001b6107a3565b612a0e7f970d59b7a37f7c0f62f456bcaf7c83fe418b9538ad2b3658955b8c3ff3f48d1160001b6107a3565b612a3a7fdeca302b5dc52d7c505d6e31b1326a483ce246457276323929d091df98a6120a60001b6107a3565b600073ffffffffffffffffffffffffffffffffffffffff168173ffffffffffffffffffffffffffffffffffffffff161415612aaa576040517f08c379a0000000000000000000000000000000000000000000000000000000008152600401612aa190613cce565b60405180910390fd5b612ad67f29ce1f1a82927d3fc7c2ed08682732dfb06ffd1b49c89a44eac3510d4626fac260001b6107a3565b612b027fb0c922df2086c2b3c095e406aaceaf2285cae06dbb3d19045410e0dde69c98b160001b6107a3565b612b2e7fd7e3581f44f0e6bc6077902e127b9e6c14cccea71c7c41cc0238cdc9efe8a73060001b6107a3565b612b5a7fc889feea19427f52d639973dbf857d516a816c9afe2e739d20226cd814612c0160001b6107a3565b612b867fc33b4d268d0bad5c94b4a2670ee21dc28177f87def86107562b34bec1b30b54860001b6107a3565b81600060026101000a81548173ffffffffffffffffffffffffffffffffffffffff021916908373ffffffffffffffffffffffffffffffffffffffff1602179055505050565b612bf77fcf19b9c20c4c586b5b2db32a7e8c6b58091137769ed7d8f9f4f9f714c8a4039960001b6107a3565b612c237f1df0f8f63d806c8a719275ff475bf5480cce67aeb0e7065b682d9378502464b260001b6107a3565b612c4f7f267611e0c4c5f75dad63edf665af1cd31b219a949dc9b45ddf278fd4c0dc633d60001b6107a3565b600360019054906101000a900473ffffffffffffffffffffffffffffffffffffffff1673ffffffffffffffffffffffffffffffffffffffff1663c4d2a31b612c9561369f565b6040518263ffffffff1660e01b8152600401612cb19190613b0f565b60006040518083038186803b158015612cc957600080fd5b505afa158015612cdd573d6000803e3d6000fd5b50505050612d0d7fee621bea4686ae1c3e31fc0a8c2c4ed8a5078b1c0f7dc4804216128628db98b260001b6107a3565b612d397f4b01acc24e04337ea8d3096c73d4b70a872f4583012bc6a0a266c9b0f53ace6960001b6107a3565b612d657fd70d758284a80500c8543d17957a2ec7556c1b153cc151804ef60bb05da9af2960001b6107a3565b612d917f1b373f139847a2b799c8b5b077ed4fc84c1b2e480f38cf28f2a8deae382633be60001b6107a3565b612dbd7f435624fcbf233bdaa056abf51a6f6e297807603e26c6dcea89de032cbb89405560001b6107a3565b6001548111612e01576040517f08c379a0000000000000000000000000000000000000000000000000000000008152600401612df890613c4e565b60405180910390fd5b612e2d7f878de278a010c254f1837983503e0c85ae4ae5af2be1daf1abfaa7f0c8746abb60001b6107a3565b612e597f474bf80967a3a145a2884e06232734aa9442ee3a6b9790119c459eacc281a52b60001b6107a3565b612e857f8ca5d66789339442a95bff4c86803641e16140a1613dcc12b6165c526a5569c160001b6107a3565b80600181905550612eb87f11a1e723443a30b98bb288394a360dcf3774dd6646dcc7c354665fb3a718b3b160001b6107a3565b612ee47fac754f21acc37a5432232466d0d3ad9dde21cc4a53a28c3a723042bfd28e4c4260001b6107a3565b7ff53059f92a31cf788b75fb4e8d130dafce4a0c15dca14b5c2a74d1dfcce383a081604051612f139190613d2e565b60405180910390a150565b612f4a7ffd76f0a927cdd1294c0a88a56cc2fc1b9620b512ce7fd209b5860b119c07b06660001b6107a3565b612f767f30e3b82222fe8a8969e323eaf4b7beceb7e6fd62c56081c4a9e3ea317284d3c660001b6107a3565b612fa27f974d223b1da07574656d3bb150fc979a5fe4d7481456fc2c99414bfc2c6b49b060001b6107a3565b600360019054906101000a900473ffffffffffffffffffffffffffffffffffffffff1673ffffffffffffffffffffffffffffffffffffffff16638413ec14612fe861369f565b6040518263ffffffff1660e01b81526004016130049190613b0f565b60006040518083038186803b15801561301c57600080fd5b505afa158015613030573d6000803e3d6000fd5b505050506130607ff9dfc17f50f06f8eb7d61b50b053aa6e6f1aac44beaa7eb875f19b8a8282b94060001b6107a3565b8061308d7f345253f4696a0e728de2ceed06c656ada5154232039b49c6f4631d674e5e446260001b6107a3565b6130b97f469918f17cc73d2bcf2568d3e4310fd23bba53682cf79f5a79fe92305b0a134460001b6107a3565b6130e57f970d59b7a37f7c0f62f456bcaf7c83fe418b9538ad2b3658955b8c3ff3f48d1160001b6107a3565b6131117fdeca302b5dc52d7c505d6e31b1326a483ce246457276323929d091df98a6120a60001b6107a3565b600073ffffffffffffffffffffffffffffffffffffffff168173ffffffffffffffffffffffffffffffffffffffff161415613181576040517f08c379a000000000000000000000000000000000000000000000000000000000815260040161317890613cce565b60405180910390fd5b6131ad7f29ce1f1a82927d3fc7c2ed08682732dfb06ffd1b49c89a44eac3510d4626fac260001b6107a3565b6131d97fb0c922df2086c2b3c095e406aaceaf2285cae06dbb3d19045410e0dde69c98b160001b6107a3565b6132057f70f2cb71a5a9f1b03d0ec69083e8242daf9d412c9a7c8689e143b4783e5a7f9460001b6107a3565b6132317f7ea018e7876b98fc17364f1a010b020c74ff8543467cd08f39cc07a60d5c095760001b6107a3565b61325d7fb0ba4cded8816022f9fec942cf5e51949ba1df41ff95aa96010f1da33e8bea7960001b6107a3565b600082905061328e7f58df3c89bb731d7e9c5941d475666fa5131f80daeed2e44c0803c18e1b835cdd60001b6107a3565b6132ba7fc4136ff80f3b9d36b91ce5b8fd0e411f0c8d66cfcf928a399f18d3203b94a1ba60001b6107a3565b80600760006101000a81548173ffffffffffffffffffffffffffffffffffffffff021916908373ffffffffffffffffffffffffffffffffffffffff160217905550505050565b61332c7ffd76f0a927cdd1294c0a88a56cc2fc1b9620b512ce7fd209b5860b119c07b06660001b6107a3565b6133587f30e3b82222fe8a8969e323eaf4b7beceb7e6fd62c56081c4a9e3ea317284d3c660001b6107a3565b6133847f974d223b1da07574656d3bb150fc979a5fe4d7481456fc2c99414bfc2c6b49b060001b6107a3565b600360019054906101000a900473ffffffffffffffffffffffffffffffffffffffff1673ffffffffffffffffffffffffffffffffffffffff16638413ec146133ca61369f565b6040518263ffffffff1660e01b81526004016133e69190613b0f565b60006040518083038186803b1580156133fe57600080fd5b505afa158015613412573d6000803e3d6000fd5b505050506134427ff9dfc17f50f06f8eb7d61b50b053aa6e6f1aac44beaa7eb875f19b8a8282b94060001b6107a3565b61346e7fefbd8c7eec318f8fba897f88119a244fe60dd1134180d9d8abb74c5efcee97e660001b6107a3565b61349a7fee2d78218dcc0a43aa3d0d7aa6055d1805949877b3e71e7f70c3ecdc94c32c2560001b6107a3565b6134c67f4627d4bdfb3faff46983f1ab67c5d17233343d6f45042defcad5cca2987c5d4060001b6107a3565b60008190506134f77f44968c69568d6fa7abcca97a942d4aac573da93d281a9b05eab74d68ad28aee560001b6107a3565b6135237fdcfe7ce4f5a0780907dee89164e1146673338eede2cdc6f22d63fbe6b56f7b9a60001b6107a3565b61354f7f088ea2b1fc11f466de1b159f8970145df4d81a5fc3f5061f94053b9a8b5f0a1060001b6107a3565b8073ffffffffffffffffffffffffffffffffffffffff1663ed3b0a006040518163ffffffff1660e01b815260040160206040518083038186803b15801561359557600080fd5b505afa1580156135a9573d6000803e3d6000fd5b505050506040513d601f19601f820116820180604052508101906135cd91906137c6565b6135d657600080fd5b6136027fa8457bcdb456f1f1b107383241ea5786143f78ece23c5beb5247ef6e90e160a960001b6107a3565b61362e7f80b9446f1a7b27a7719a802160309adbbe26b23ad17c3189865300da4806b53e60001b6107a3565b61365a7f80d1878a942778e3fb7c895f0bfc0a13be1a030e742206dd54ef46cc74bca7e460001b6107a3565b80600560006101000a81548173ffffffffffffffffffffffffffffffffffffffff021916908373ffffffffffffffffffffffffffffffffffffffff1602179055505050565b600060146000369050101580156136bb57506136ba336114f7565b5b156136cf57601436033560601c90506136d7565b3390506136d8565b5b90565b6000813590506136ea8161420b565b92915050565b6000815190506136ff81614222565b92915050565b60008135905061371481614239565b92915050565b60008151905061372981614250565b92915050565b60008135905061373e81614267565b92915050565b60008151905061375381614267565b92915050565b60006020828403121561376f5761376e6140b0565b5b600061377d848285016136db565b91505092915050565b6000806040838503121561379d5761379c6140b0565b5b60006137ab858286016136db565b92505060206137bc8582860161372f565b9150509250929050565b6000602082840312156137dc576137db6140b0565b5b60006137ea848285016136f0565b91505092915050565b600060208284031215613809576138086140b0565b5b600061381784828501613705565b91505092915050565b600080600080600080600080610100898b031215613841576138406140b0565b5b600061384f8b828c0161371a565b98505060206138608b828c0161371a565b97505060406138718b828c0161371a565b96505060606138828b828c0161371a565b95505060806138938b828c0161371a565b94505060a06138a48b828c0161371a565b93505060c06138b58b828c0161371a565b92505060e06138c68b828c0161371a565b9150509295985092959890939650565b6000602082840312156138ec576138eb6140b0565b5b60006138fa8482850161372f565b91505092915050565b600060208284031215613919576139186140b0565b5b600061392784828501613744565b91505092915050565b61393981613f1b565b82525050565b61394881613ebb565b82525050565b61395781613ecd565b82525050565b61396681613f2d565b82525050565b61397581613f51565b82525050565b61398481613f75565b82525050565b61399381613f99565b82525050565b6139a281613fbd565b82525050565b60006139b382613e45565b6139bd8185613e50565b93506139cd818560208601614005565b6139d6816140b5565b840191505092915050565b60006139ee601f83613e50565b91506139f9826140c6565b602082019050919050565b6000613a11601583613e50565b9150613a1c826140ef565b602082019050919050565b6000613a34600e83613e50565b9150613a3f82614118565b602082019050919050565b6000613a57600c83613e50565b9150613a6282614141565b602082019050919050565b6000613a7a600f83613e50565b9150613a858261416a565b602082019050919050565b6000613a9d602e83613e50565b9150613aa882614193565b604082019050919050565b6000613ac0600d83613e50565b9150613acb826141e2565b602082019050919050565b613adf81613ee3565b82525050565b613aee81613f11565b82525050565b6000602082019050613b09600083018461393f565b92915050565b6000602082019050613b246000830184613930565b92915050565b6000606082019050613b3f6000830186613930565b613b4c602083018561393f565b613b596040830184613ae5565b949350505050565b6000604082019050613b766000830185613930565b613b836020830184613ae5565b9392505050565b6000602082019050613b9f600083018461394e565b92915050565b6000602082019050613bba600083018461395d565b92915050565b6000602082019050613bd5600083018461396c565b92915050565b6000602082019050613bf0600083018461397b565b92915050565b6000602082019050613c0b600083018461398a565b92915050565b6000602082019050613c266000830184613999565b92915050565b60006020820190508181036000830152613c4681846139a8565b905092915050565b60006020820190508181036000830152613c67816139e1565b9050919050565b60006020820190508181036000830152613c8781613a04565b9050919050565b60006020820190508181036000830152613ca781613a27565b9050919050565b60006020820190508181036000830152613cc781613a4a565b9050919050565b60006020820190508181036000830152613ce781613a6d565b9050919050565b60006020820190508181036000830152613d0781613a90565b9050919050565b60006020820190508181036000830152613d2781613ab3565b9050919050565b6000602082019050613d436000830184613ae5565b92915050565b6000604082019050613d5e6000830185613ae5565b613d6b6020830184613930565b9392505050565b6000606082019050613d876000830186613ae5565b613d946020830185613930565b613da16040830184613ae5565b949350505050565b600061014082019050613dbf600083018d613ae5565b613dcc602083018c613ae5565b613dd9604083018b613ad6565b613de6606083018a613ad6565b613df36080830189613ad6565b613e0060a0830188613ad6565b613e0d60c0830187613ad6565b613e1a60e0830186613ad6565b613e28610100830185613ad6565b613e36610120830184613ad6565b9b9a5050505050505050505050565b600081519050919050565b600082825260208201905092915050565b6000613e6c82613f11565b9150613e7783613f11565b9250817fffffffffffffffffffffffffffffffffffffffffffffffffffffffffffffffff0483118215151615613eb057613eaf614081565b5b828202905092915050565b6000613ec682613ef1565b9050919050565b60008115159050919050565b6000819050919050565b600061ffff82169050919050565b600073ffffffffffffffffffffffffffffffffffffffff82169050919050565b6000819050919050565b6000613f2682613fe1565b9050919050565b6000613f3882613f3f565b9050919050565b6000613f4a82613ef1565b9050919050565b6000613f5c82613f63565b9050919050565b6000613f6e82613ef1565b9050919050565b6000613f8082613f87565b9050919050565b6000613f9282613ef1565b9050919050565b6000613fa482613fab565b9050919050565b6000613fb682613ef1565b9050919050565b6000613fc882613fcf565b9050919050565b6000613fda82613ef1565b9050919050565b6000613fec82613ff3565b9050919050565b6000613ffe82613ef1565b9050919050565b60005b83811015614023578082015181840152602081019050614008565b83811115614032576000848401525b50505050565b600061404382613f11565b91507fffffffffffffffffffffffffffffffffffffffffffffffffffffffffffffffff82141561407657614075614081565b5b600182019050919050565b7f4e487b7100000000000000000000000000000000000000000000000000000000600052601160045260246000fd5b600080fd5b6000601f19601f8301169050919050565b7f496e707574206d757374206265206774206c617374207472656520736f6c6400600082015250565b7f756e7375636365737366756c207472616e736665720000000000000000000000600082015250565b7f696e76616c696420616d6f756e74000000000000000000000000000000000000600082015250565b7f696e76616c696420747265650000000000000000000000000000000000000000600082015250565b7f696e76616c696420616464726573730000000000000000000000000000000000600082015250565b7f496e697469616c697a61626c653a20636f6e747261637420697320616c72656160008201527f647920696e697469616c697a6564000000000000000000000000000000000000602082015250565b7f696e76616c696420636f756e7400000000000000000000000000000000000000600082015250565b61421481613ebb565b811461421f57600080fd5b50565b61422b81613ecd565b811461423657600080fd5b50565b61424281613ed9565b811461424d57600080fd5b50565b61425981613ee3565b811461426457600080fd5b50565b61427081613f11565b811461427b57600080fd5b5056fea2646970667358221220cdbaea14029ff2f1655e850dce044b5d01f6ae154844eb6015c48703e400608664736f6c63430008060033",
  "immutableReferences": {},
  "source": "//SPDX-License-Identifier: MIT\npragma solidity ^0.8.6;\nfunction c_0xb885dd76(bytes32 c__0xb885dd76) pure {}\n\n\nimport \"@openzeppelin/contracts-upgradeable/proxy/utils/Initializable.sol\";\nimport \"@openzeppelin/contracts-upgradeable/token/ERC20/IERC20Upgradeable.sol\";\nimport \"../access/IAccessRestriction.sol\";\nimport \"../tree/ITreeFactory.sol\";\nimport \"../treasury/IDaiFunds.sol\";\nimport \"../treasury/IFinancialModel.sol\";\nimport \"../gsn/RelayRecipient.sol\";\n\n/** @title RegularSell contract */\ncontract RegularSell is Initializable, RelayRecipient {\nfunction c_0x0000771f(bytes32 c__0x0000771f) public pure {}\n\n    uint256 public lastSoldRegularTree;\n    uint256 public treePrice;\n\n    /** NOTE {isRegularSell} set inside the initialize to {true} */\n    bool public isRegularSell;\n\n    IAccessRestriction public accessRestriction;\n    ITreeFactory public treeFactory;\n    IDaiFunds public daiFunds;\n    IFinancialModel public financialModel;\n    IERC20Upgradeable public daiToken;\n\n    event TreePriceUpdated(uint256 price);\n    event RegularTreeRequsted(uint256 count, address buyer, uint256 amount);\n    event RegularMint(address buyer, uint256 treeId);\n    event RegularTreeRequstedById(\n        uint256 treeId,\n        address buyer,\n        uint256 amount\n    );\n    event LastSoldRegularTreeUpdated(uint256 lastSoldRegularTree);\n\n    /** NOTE modifier to check msg.sender has admin role */\n    modifier onlyAdmin() {c_0x0000771f(0xfd76f0a927cdd1294c0a88a56cc2fc1b9620b512ce7fd209b5860b119c07b066); /* function */ \n\nc_0x0000771f(0x30e3b82222fe8a8969e323eaf4b7beceb7e6fd62c56081c4a9e3ea317284d3c6); /* line */ \n        c_0x0000771f(0x974d223b1da07574656d3bb150fc979a5fe4d7481456fc2c99414bfc2c6b49b0); /* statement */ \naccessRestriction.ifAdmin(_msgSender());\nc_0x0000771f(0xf9dfc17f50f06f8eb7d61b50b053aa6e6f1aac44beaa7eb875f19b8a8282b940); /* line */ \n        _;\n    }\n\n    /** NOTE modifier to check msg.sender has data manager role */\n    modifier onlyDataManager() {c_0x0000771f(0xcf19b9c20c4c586b5b2db32a7e8c6b58091137769ed7d8f9f4f9f714c8a40399); /* function */ \n\nc_0x0000771f(0x1df0f8f63d806c8a719275ff475bf5480cce67aeb0e7065b682d9378502464b2); /* line */ \n        c_0x0000771f(0x267611e0c4c5f75dad63edf665af1cd31b219a949dc9b45ddf278fd4c0dc633d); /* statement */ \naccessRestriction.ifDataManager(_msgSender());\nc_0x0000771f(0xee621bea4686ae1c3e31fc0a8c2c4ed8a5078b1c0f7dc4804216128628db98b2); /* line */ \n        _;\n    }\n\n    /** NOTE modifier for check valid address */\n    modifier validAddress(address _address) {c_0x0000771f(0x345253f4696a0e728de2ceed06c656ada5154232039b49c6f4631d674e5e4462); /* function */ \n\nc_0x0000771f(0x469918f17cc73d2bcf2568d3e4310fd23bba53682cf79f5a79fe92305b0a1344); /* line */ \n        c_0x0000771f(0x970d59b7a37f7c0f62f456bcaf7c83fe418b9538ad2b3658955b8c3ff3f48d11); /* requirePre */ \nc_0x0000771f(0xdeca302b5dc52d7c505d6e31b1326a483ce246457276323929d091df98a6120a); /* statement */ \nrequire(_address != address(0), \"invalid address\");c_0x0000771f(0x29ce1f1a82927d3fc7c2ed08682732dfb06ffd1b49c89a44eac3510d4626fac2); /* requirePost */ \n\nc_0x0000771f(0xb0c922df2086c2b3c095e406aaceaf2285cae06dbb3d19045410e0dde69c98b1); /* line */ \n        _;\n    }\n\n    /**\n     * @dev initialize accessRestriction contract and set true for isRegularSell\n     * set {_price} to tree price and set 10000 to lastSoldRegularTree\n     * @param _accessRestrictionAddress set to the address of accessRestriction contract\n     * @param _price initial tree price\n     */\n    function initialize(address _accessRestrictionAddress, uint256 _price)\n        external\n        initializer\n    {c_0x0000771f(0xabb06029b764b8aa5ffb36de8f61ad9b0e52850f6d25ceeca4d1c17d82b1b9ee); /* function */ \n\nc_0x0000771f(0xdaffaea39ca7c6662c168afed033ff1f9ffaeecd30cdf7b37b5fface721cf2a1); /* line */ \n        c_0x0000771f(0x8fd49b3cf818fe39c30cda2a2b0813192277f52710631d47a7f85c52f6a4d03b); /* statement */ \nIAccessRestriction candidateContract = IAccessRestriction(\n            _accessRestrictionAddress\n        );\nc_0x0000771f(0x8c03992ea3f0600bcec8271354f5dd6d0609c564c9142178cdd2d31caebb2745); /* line */ \n        c_0x0000771f(0xeaaa54ee61f25567ce98e1ef35b77a5fb80fee05b097f231f4b397b93bfd03cb); /* requirePre */ \nc_0x0000771f(0x0278b53989fbda89ccb434d0529221e5941840c8efea017c42dd0c24884f6133); /* statement */ \nrequire(candidateContract.isAccessRestriction());c_0x0000771f(0xf189a13e2ecfbf3bb43c69bf04b3ebe315063d874d4d5d388f358c71d46a5362); /* requirePost */ \n\nc_0x0000771f(0x452458da02eb081d3592dc5c5455ab2e8524ce9ef148419ced0c6b7c3c96abfe); /* line */ \n        c_0x0000771f(0xeb88fdd3e5e59f806ad7ac3010e883f3bebc01f7103de0ff70d3997db138b130); /* statement */ \naccessRestriction = candidateContract;\n\nc_0x0000771f(0xb579bd9f7c474288e51a6ec322e4ab44cb7ab27518372135184c363ad3d208a7); /* line */ \n        c_0x0000771f(0xa860df84a1b75ecc4fe96915fc8a0cef96c4963bd984fde5d7464059ac282b6c); /* statement */ \nisRegularSell = true;\nc_0x0000771f(0xb9e697ccf5a04ae383295a4d67bb634e8a30796daee8822e5ce5012077108903); /* line */ \n        c_0x0000771f(0x166f71927a7505ec9e855ae3f6f8b7a90faf1c0c70dee3314efee11bc5332777); /* statement */ \nlastSoldRegularTree = 10000;\nc_0x0000771f(0x6783f22bbccc782f39c5879544c610091fd6c0ad0105beedaed9aabbbcaee9cb); /* line */ \n        c_0x0000771f(0xbdf57fecfdd55d49bb8d7b62633bc1e17747d5ebf950b9b552e41631a4d31b9f); /* statement */ \ntreePrice = _price;\nc_0x0000771f(0x60285b31390aad0d6a2e488dcc44bf1ba053fbd35b26ae23147feaf1ad7b573e); /* line */ \n        c_0x0000771f(0x79cd393c5086625c7d2aeb45187226a427de9c421017f2a7eeaec60cc52b73d0); /* statement */ \nemit TreePriceUpdated(_price);\n    }\n\n    /**\n     * @dev admin set trusted forwarder address\n     * @param _address set to {trustedForwarder}\n     */\n    function setTrustedForwarder(address _address)\n        external\n        onlyAdmin\n        validAddress(_address)\n    {c_0x0000771f(0xd7e3581f44f0e6bc6077902e127b9e6c14cccea71c7c41cc0238cdc9efe8a730); /* function */ \n\nc_0x0000771f(0xc889feea19427f52d639973dbf857d516a816c9afe2e739d20226cd814612c01); /* line */ \n        c_0x0000771f(0xc33b4d268d0bad5c94b4a2670ee21dc28177f87def86107562b34bec1b30b548); /* statement */ \ntrustedForwarder = _address;\n    }\n\n    /** @dev data manager can update lastSoldRegularTree */\n    function setLastSoldRegularTree(uint256 _lastSoldRegularTree)\n        external\n        onlyDataManager\n    {c_0x0000771f(0x4b01acc24e04337ea8d3096c73d4b70a872f4583012bc6a0a266c9b0f53ace69); /* function */ \n\nc_0x0000771f(0xd70d758284a80500c8543d17957a2ec7556c1b153cc151804ef60bb05da9af29); /* line */ \n        c_0x0000771f(0x1b373f139847a2b799c8b5b077ed4fc84c1b2e480f38cf28f2a8deae382633be); /* requirePre */ \nc_0x0000771f(0x435624fcbf233bdaa056abf51a6f6e297807603e26c6dcea89de032cbb894055); /* statement */ \nrequire(\n            _lastSoldRegularTree > lastSoldRegularTree,\n            \"Input must be gt last tree sold\"\n        );c_0x0000771f(0x878de278a010c254f1837983503e0c85ae4ae5af2be1daf1abfaa7f0c8746abb); /* requirePost */ \n\n\nc_0x0000771f(0x474bf80967a3a145a2884e06232734aa9442ee3a6b9790119c459eacc281a52b); /* line */ \n        c_0x0000771f(0x8ca5d66789339442a95bff4c86803641e16140a1613dcc12b6165c526a5569c1); /* statement */ \nlastSoldRegularTree = _lastSoldRegularTree;\n\nc_0x0000771f(0x11a1e723443a30b98bb288394a360dcf3774dd6646dcc7c354665fb3a718b3b1); /* line */ \n        c_0x0000771f(0xac754f21acc37a5432232466d0d3ad9dde21cc4a53a28c3a723042bfd28e4c42); /* statement */ \nemit LastSoldRegularTreeUpdated(_lastSoldRegularTree);\n    }\n\n    /** @dev admin set treeFactory contract address\n     * @param _address treeFactory contract address\n     */\n    function setTreeFactoryAddress(address _address) external onlyAdmin {c_0x0000771f(0x0d4dd55020a1aa78cc6fe387ae4f7f4066775fb819047964777dc50ba6bc752d); /* function */ \n\nc_0x0000771f(0x1bfe7464b0a275985d7fa1d5f7028a1b821f1c2b34787210d4a2ec9409ff88f7); /* line */ \n        c_0x0000771f(0xf80d233db284256bdabcd39710586b6ec0149ceda9512716a84a922d18aea859); /* statement */ \nITreeFactory candidateContract = ITreeFactory(_address);\n\nc_0x0000771f(0x9087fba48aac3d7a7591b3e76acca686c7f23bcfa6c89e3b631d2f83e366dee6); /* line */ \n        c_0x0000771f(0xc9099f8ee9a2748e1cdcb64913ddbdf9af9760e2fac1718e0932d11233b98e55); /* requirePre */ \nc_0x0000771f(0x17e9e50716c130d70f35a5447ea7d24a4aafd666831d81f7065e1ea1c775feb5); /* statement */ \nrequire(candidateContract.isTreeFactory());c_0x0000771f(0xad86cde99961b0f6f75bbc40e31a2fab563c6bf34427376d6e95bd6fa63515b5); /* requirePost */ \n\n\nc_0x0000771f(0x04b3fd0e65045e7d2251941a1898474aac85a607c1fc5b1b6a3a78d510ccd03d); /* line */ \n        c_0x0000771f(0xab23764b012946e7d675d858af483de789715b3a97f0e58f4bcb18641d995cf6); /* statement */ \ntreeFactory = candidateContract;\n    }\n\n    /** @dev admin set daiFunds contract address\n     * @param _address daiFunds contract address\n     */\n    function setDaiFundsAddress(address _address) external onlyAdmin {c_0x0000771f(0xefbd8c7eec318f8fba897f88119a244fe60dd1134180d9d8abb74c5efcee97e6); /* function */ \n\nc_0x0000771f(0xee2d78218dcc0a43aa3d0d7aa6055d1805949877b3e71e7f70c3ecdc94c32c25); /* line */ \n        c_0x0000771f(0x4627d4bdfb3faff46983f1ab67c5d17233343d6f45042defcad5cca2987c5d40); /* statement */ \nIDaiFunds candidateContract = IDaiFunds(_address);\n\nc_0x0000771f(0x44968c69568d6fa7abcca97a942d4aac573da93d281a9b05eab74d68ad28aee5); /* line */ \n        c_0x0000771f(0xdcfe7ce4f5a0780907dee89164e1146673338eede2cdc6f22d63fbe6b56f7b9a); /* requirePre */ \nc_0x0000771f(0x088ea2b1fc11f466de1b159f8970145df4d81a5fc3f5061f94053b9a8b5f0a10); /* statement */ \nrequire(candidateContract.isDaiFunds());c_0x0000771f(0xa8457bcdb456f1f1b107383241ea5786143f78ece23c5beb5247ef6e90e160a9); /* requirePost */ \n\n\nc_0x0000771f(0x80b9446f1a7b27a7719a802160309adbbe26b23ad17c3189865300da4806b53e); /* line */ \n        c_0x0000771f(0x80d1878a942778e3fb7c895f0bfc0a13be1a030e742206dd54ef46cc74bca7e4); /* statement */ \ndaiFunds = candidateContract;\n    }\n\n    /** @dev admin set daiToken contract address\n     * @param _address daiToken contract address\n     */\n    function setDaiTokenAddress(address _address)\n        external\n        onlyAdmin\n        validAddress(_address)\n    {c_0x0000771f(0x70f2cb71a5a9f1b03d0ec69083e8242daf9d412c9a7c8689e143b4783e5a7f94); /* function */ \n\nc_0x0000771f(0x7ea018e7876b98fc17364f1a010b020c74ff8543467cd08f39cc07a60d5c0957); /* line */ \n        c_0x0000771f(0xb0ba4cded8816022f9fec942cf5e51949ba1df41ff95aa96010f1da33e8bea79); /* statement */ \nIERC20Upgradeable candidateContract = IERC20Upgradeable(_address);\nc_0x0000771f(0x58df3c89bb731d7e9c5941d475666fa5131f80daeed2e44c0803c18e1b835cdd); /* line */ \n        c_0x0000771f(0xc4136ff80f3b9d36b91ce5b8fd0e411f0c8d66cfcf928a399f18d3203b94a1ba); /* statement */ \ndaiToken = candidateContract;\n    }\n\n    /**\n     * @dev admin set FinancialModel contract address\n     * @param _address set to the address of financialModel\n     */\n    function setFinancialModelAddress(address _address) external onlyAdmin {c_0x0000771f(0x1ebfc271ec429ddddbb2a61bbacbc3f591bf28364c0f413970c46d7df0282aab); /* function */ \n\nc_0x0000771f(0x3fcca32b18ab184958e1fd22f970a7d682dd4212d8036ade8244b108bfba7c23); /* line */ \n        c_0x0000771f(0x2caa63d4e94843de6212811fc1dc0ac0c8bbfc7f3f52d82b1c1453c2464c62e9); /* statement */ \nIFinancialModel candidateContract = IFinancialModel(_address);\nc_0x0000771f(0x5b2ae765d43fe2b2f417000aa851eaf97766cb7d1fdbf65b2ae5e13fff2592f7); /* line */ \n        c_0x0000771f(0x785cdbb2ca65202d0f41c82cb0388be10b6f50a8fcb7a91af5047959166d99f2); /* requirePre */ \nc_0x0000771f(0x267b29961b69cf12f03adf21edf006337c17c6b406ae0cd2606dc54ba0a5a08e); /* statement */ \nrequire(candidateContract.isFinancialModel());c_0x0000771f(0x3ffccea9a4694b879f7b2f5344cf1c3b271c5046b5a34c457dddee4b26b1b009); /* requirePost */ \n\nc_0x0000771f(0x811e2703a5627c9a8687fc76f84c0abfd7b5ba000bef1c9f38dcceeea6e2a6f5); /* line */ \n        c_0x0000771f(0xca2abe5946e68728504b206fca0f4969e149dc477c06892e9535e377168b4d1f); /* statement */ \nfinancialModel = candidateContract;\n    }\n\n    /** @dev admin set the price of trees that are sold regular\n     * @param _price price of tree\n     */\n    function setPrice(uint256 _price) external onlyDataManager {c_0x0000771f(0xa208b0465f4a50d170a10c086ea61e791ca728d08d6563634668652f1682f790); /* function */ \n\nc_0x0000771f(0x4f0e9741d5186b5949e91e603bb2b310f383575d31482f1088cc42be5efb11cd); /* line */ \n        c_0x0000771f(0x27d67086d80ffe283a237a2296722b469df5d45829ab18dd9635b1a1360aa9f5); /* statement */ \ntreePrice = _price;\nc_0x0000771f(0xa3928f88a75e85d7148aae9c81292f2ddd738128733e89757e00fd7f31c09abc); /* line */ \n        c_0x0000771f(0xd6dc86a1e140a969f8bbaab8410427dd010808e8e21455afc2cdebdb467d5960); /* statement */ \nemit TreePriceUpdated(_price);\n    }\n\n    /** @dev request {_count} trees and the paid amount must be more than\n     * {_count * treePrice }\n     * @param _count is the number of trees requested by user\n     */\n    function requestTrees(uint256 _count) external {c_0x0000771f(0x90913c105c4b971e6ed5260b6de9572f3a24bdc82fd9fb40c3bd3bfa034345d7); /* function */ \n\nc_0x0000771f(0x4ffc033d6f876057ec3e829a6aebdd5b89708a2048c8afced782545537d35882); /* line */ \n        c_0x0000771f(0x42a0091489e1200a54578019fb8b3bf285a181486b64b39dc48a3811fae3f351); /* requirePre */ \nc_0x0000771f(0xec46c77b720e00b6fa7463ef83cbe737db4835ec2f2e49c8748d7539527fa923); /* statement */ \nrequire(_count > 0, \"invalid count\");c_0x0000771f(0xd7c7ca6d43f2540ee477bbe862ac20b08ebcccf3c0b6f1a38546eb9d3c36c9c1); /* requirePost */ \n\n\nc_0x0000771f(0x05e3036477c18ad2c9660cc69d2c348b32403dcd1f71d8887c93abccc462bee7); /* line */ \n        c_0x0000771f(0x4488b2a262da1405250b0857122cd4178738af858542a85a02e3b640a7bdeefb); /* statement */ \nuint256 amount = treePrice * _count;\n\nc_0x0000771f(0x1f55ee0b599a7f272a8fdfc99f26ac3db514ab11dfe8a5177a39462fb6af7113); /* line */ \n        c_0x0000771f(0x9b25ba5f720c4730ef9c606c0ef9e9d69486c4bb64d8ba6732d1ed75b6e48dca); /* requirePre */ \nc_0x0000771f(0x7ab0a14e4d76f6b1c1a333d534fbeb6faa7511d9ea0ea2e1ea6ba0eba6f78f26); /* statement */ \nrequire(daiToken.balanceOf(_msgSender()) >= amount, \"invalid amount\");c_0x0000771f(0x07396f5c442831df93fc8df21b67544a573433160582281ced1381ca3081bf3a); /* requirePost */ \n\n\nc_0x0000771f(0xeffca71d41c82a7b90ef863aafccd9ef6bce687437da7304fd15d8f72d06a313); /* line */ \n        c_0x0000771f(0xeec87c32cbb27c396d06d5bac15af948f01468f567f6e7177ae18091b21967f2); /* statement */ \nuint256 tempLastRegularSold = lastSoldRegularTree;\n\nc_0x0000771f(0xaa44561d9898ad6d0c1ccb27c08a62163833c53a05f22ac785155eeb320a55c2); /* line */ \n        c_0x0000771f(0x18a6d2fe4d2b985e847aa352a9e84ab7497c4258bf28244404c4e8e46eedb0aa); /* statement */ \nbool success = daiToken.transferFrom(\n            _msgSender(),\n            address(daiFunds),\n            amount\n        );\n\nc_0x0000771f(0x5f034d47f4beb3d41a96aab557a5fddba63ed76367de30e488aaf654fafe883a); /* line */ \n        c_0x0000771f(0x0c54ebc0bf97068ccd9839782ffa3116d0b389b63f016117e7a57f976bad9089); /* requirePre */ \nc_0x0000771f(0x5afe8473eb3a99eed62ad544fe3ef86e2b4eec81262540d96924850d0ec7e248); /* statement */ \nrequire(success, \"unsuccessful transfer\");c_0x0000771f(0x19dc33a225e2efd7da3705a1f59b1d30695548cec7ca95bb17d43f073db7c415); /* requirePost */ \n\n\nc_0x0000771f(0xb5079ccf7335cfa90bd3484f1f1d5aa3fb08284190649b9e90b7bbd1d78bea7d); /* line */ \n        c_0x0000771f(0x7302026c571c80efb48123b4e97ecf925fa99f75bcc30e7767bc9e6ecb79e375); /* statement */ \nemit RegularTreeRequsted(_count, _msgSender(), amount);\n\nc_0x0000771f(0x8bea196cc0b68a5c50acbdcbffd0835762c2b4e027b0ad83643a6dc384e5a35d); /* line */ \n        c_0x0000771f(0x305d5c08ac013c991e2a6a8196dd8ad289e35664abfe0cb287faf7caef260f2f); /* statement */ \nfor (uint256 i = 0; i < _count; i++) {\nc_0x0000771f(0x25601d671679da57b61839020929b7563a0af8b160eaa1a453421f1c9be36c89); /* line */ \n            c_0x0000771f(0x2c421b45e78868a87b21dba8cdc2d30e98005ab6aa45289cfd1f63dd05f16c91); /* statement */ \ntempLastRegularSold = treeFactory.mintRegularTrees(\n                tempLastRegularSold,\n                _msgSender()\n            );\n\nc_0x0000771f(0x4dd6b5869c4b71338b96ba2e8d8f9fd331f8be2071f78fb48e7aea040a2655dc); /* line */ \n            c_0x0000771f(0x5676cf648649ee55841c23b0780f6db9a3ea60795b39308bc66f834675df473f); /* statement */ \n(\n                uint16 planterFund,\n                uint16 referralFund,\n                uint16 treeResearch,\n                uint16 localDevelop,\n                uint16 rescueFund,\n                uint16 treejerDevelop,\n                uint16 reserveFund1,\n                uint16 reserveFund2\n            ) = financialModel.findTreeDistribution(tempLastRegularSold);\n\nc_0x0000771f(0x09ef5f754c012efec91266caedd5da2b4933c986906dea7f1d7f249e293fec29); /* line */ \n            c_0x0000771f(0x45cf68cda5f75fef38577d93a9d43200695e41ffc81ae6f0953e2093380cddbd); /* statement */ \ndaiFunds.fundTree(\n                tempLastRegularSold,\n                treePrice,\n                planterFund,\n                referralFund,\n                treeResearch,\n                localDevelop,\n                rescueFund,\n                treejerDevelop,\n                reserveFund1,\n                reserveFund2\n            );\n\nc_0x0000771f(0xcb6deecf4e5a24edc841c5f35b07cf2a9aa1759ed6ea1e26d12e6a0ddd2a7547); /* line */ \n            c_0x0000771f(0xa28feadb2759e51453230d892c1d917999935e02ac608984b8e84e0388f2efaa); /* statement */ \nemit RegularMint(_msgSender(), tempLastRegularSold);\n        }\n\nc_0x0000771f(0x3a656afc69c6f4356d4aebf09304444a794b798dcfb00cbf1ab7db093dc195d9); /* line */ \n        c_0x0000771f(0x487a5fdb8e358274d2a7b4b2d53b1629de71b028d4f9a06f8985a758ec41089f); /* statement */ \nlastSoldRegularTree = tempLastRegularSold;\n    }\n\n    /** @dev request  tree with id {_treeId} and the paid amount must be more than\n     * {treePrice} and the {_treeId} must be more than {lastSoldRegularTree} to\n     * make sure that has not been sold before\n     * @param _treeId is the id of tree requested by user\n     */\n    function requestByTreeId(uint256 _treeId) external {c_0x0000771f(0xfbbe929214feddc269aa2c95f755ca1d2a4f9f11e4913430f34b7e18e4df8bd6); /* function */ \n\nc_0x0000771f(0xc5fcb5de0cb00af1bfd614d3a4f92e28e73dae81dc494fd1343a52ba2665c605); /* line */ \n        c_0x0000771f(0x3034c19348e702acf326312ef9a884356203a1133c3b8c06ded8d267a7efe45c); /* requirePre */ \nc_0x0000771f(0x19637d4a823cae61a09a18e7aeac48d265197fd660b53243506b4f1da6212b1d); /* statement */ \nrequire(_treeId > lastSoldRegularTree, \"invalid tree\");c_0x0000771f(0xaa218e29228d82a6b59dec7caec6b193f9032bc535549a4630d927d8e4084abd); /* requirePost */ \n\n\nc_0x0000771f(0xb584107655a177002a601ef720cc17cac536a734a2c76e6d176f613c6314e3ad); /* line */ \n        c_0x0000771f(0x64234afeb6af4c245830cbdd7ba310fd6be1b7baeeede007ca05080c2d2bb5ec); /* requirePre */ \nc_0x0000771f(0xc75d5f4a98b9c401afe5cec9dd9cb3e6d0b26749d77fdf36d481352004680836); /* statement */ \nrequire(\n            daiToken.balanceOf(_msgSender()) >= treePrice,\n            \"invalid amount\"\n        );c_0x0000771f(0x2ee89793858b41a77745f69ddb2cec286eccecacd2a7e173406a25a22fde1c29); /* requirePost */ \n\n\nc_0x0000771f(0x58a2449b96eed783b33b0c347ddab0e29a457790779de5062a597175006db424); /* line */ \n        c_0x0000771f(0x4741e933d8d38a21ce569973a48e122cfb96a1245da73dbee511843d942306ea); /* statement */ \nbool success = daiToken.transferFrom(\n            _msgSender(),\n            address(daiFunds),\n            treePrice\n        );\n\nc_0x0000771f(0xb12b3137fa0cd18b6fc296caf34df59168fa07f011bef873b3ef2975cd5643e6); /* line */ \n        c_0x0000771f(0x1dfee0fc6379365e79274e7c1271d8fa11200304046a33085656bab56c9e759f); /* requirePre */ \nc_0x0000771f(0xa83643d04ab66f30eb04965a77947a11f7f20aed88d26c84b5ac936883792270); /* statement */ \nrequire(success, \"unsuccessful transfer\");c_0x0000771f(0xfd57223af4db1bc881897e45beb7120b3b87793748be0b313e83152646df62b2); /* requirePost */ \n\n\nc_0x0000771f(0x649e187c0e7bab8a25183b247aa8071772547f71c7928c976aa8a6eb9084f28b); /* line */ \n        c_0x0000771f(0x10b9d03731d6130fa1886f1ef801c5bd61d89566df243a6024066a22c0d57c60); /* statement */ \ntreeFactory.requestRegularTree(_treeId, _msgSender());\n\nc_0x0000771f(0xa2ff1b109e9e1a4d4fb417b27b62897e99e3565a3690862840d39a7709497836); /* line */ \n        c_0x0000771f(0x931b0d9801ad485a2820b0d274fab52e2348f413bc667816103a68e150f5e8e0); /* statement */ \n(\n            uint16 planterFund,\n            uint16 referralFund,\n            uint16 treeResearch,\n            uint16 localDevelop,\n            uint16 rescueFund,\n            uint16 treejerDevelop,\n            uint16 reserveFund1,\n            uint16 reserveFund2\n        ) = financialModel.findTreeDistribution(_treeId);\n\nc_0x0000771f(0x9bed22ecdd6b38d03bea3ecdaedbb2c8067812573d6fa1457813248d7509b527); /* line */ \n        c_0x0000771f(0x3927667f68f22974677590e0cc4ef38d35aca699bdd6b615694f7ec667e4f5b2); /* statement */ \ndaiFunds.fundTree(\n            _treeId,\n            treePrice,\n            planterFund,\n            referralFund,\n            treeResearch,\n            localDevelop,\n            rescueFund,\n            treejerDevelop,\n            reserveFund1,\n            reserveFund2\n        );\n\nc_0x0000771f(0x3b884d2ce0777e1f98e81e39a04f466bcaf17a2dc08a3007342cd3d8b2f33249); /* line */ \n        c_0x0000771f(0x05b6fccd0e7a590c82755ea26f6b25b6fef6b57ee2a169f689207ec451b35fbb); /* statement */ \nemit RegularTreeRequstedById(_treeId, _msgSender(), treePrice);\n    }\n}\n",
  "sourcePath": "/home/smuggler/contract/.coverage_contracts/regularSell/RegularSell.sol",
  "compiler": {
    "name": "solc",
    "version": "0.8.6+commit.11564f7e.Emscripten.clang"
  },
  "schemaVersion": "3.4.1",
  "updatedAt": "2021-08-31T13:33:31.601Z",
  "devdoc": {
    "kind": "dev",
    "methods": {
      "initialize(address,uint256)": {
        "details": "initialize accessRestriction contract and set true for isRegularSell set {_price} to tree price and set 10000 to lastSoldRegularTree",
        "params": {
          "_accessRestrictionAddress": "set to the address of accessRestriction contract",
          "_price": "initial tree price"
        }
      },
      "requestByTreeId(uint256)": {
        "details": "request  tree with id {_treeId} and the paid amount must be more than {treePrice} and the {_treeId} must be more than {lastSoldRegularTree} to make sure that has not been sold before",
        "params": {
          "_treeId": "is the id of tree requested by user"
        }
      },
      "requestTrees(uint256)": {
        "details": "request {_count} trees and the paid amount must be more than {_count * treePrice }",
        "params": {
          "_count": "is the number of trees requested by user"
        }
      },
      "setDaiFundsAddress(address)": {
        "details": "admin set daiFunds contract address",
        "params": {
          "_address": "daiFunds contract address"
        }
      },
      "setDaiTokenAddress(address)": {
        "details": "admin set daiToken contract address",
        "params": {
          "_address": "daiToken contract address"
        }
      },
      "setFinancialModelAddress(address)": {
        "details": "admin set FinancialModel contract address",
        "params": {
          "_address": "set to the address of financialModel"
        }
      },
      "setLastSoldRegularTree(uint256)": {
        "details": "data manager can update lastSoldRegularTree "
      },
      "setPrice(uint256)": {
        "details": "admin set the price of trees that are sold regular",
        "params": {
          "_price": "price of tree"
        }
      },
      "setTreeFactoryAddress(address)": {
        "details": "admin set treeFactory contract address",
        "params": {
          "_address": "treeFactory contract address"
        }
      },
      "setTrustedForwarder(address)": {
        "details": "admin set trusted forwarder address",
        "params": {
          "_address": "set to {trustedForwarder}"
        }
      },
      "versionRecipient()": {
        "details": "return version recipient "
      }
    },
    "title": "RegularSell contract ",
    "version": 1
  },
  "userdoc": {
    "kind": "user",
    "methods": {
      "isRegularSell()": {
        "notice": "NOTE {isRegularSell} set inside the initialize to {true} "
      },
      "isTrustedForwarder(address)": {
        "notice": "return if the forwarder is trusted to forward relayed transactions to us. the forwarder is required to verify the sender's signature, and verify the call is not a replay."
      }
    },
    "version": 1
  }
}