{
  "contractName": "RelayRecipient",
  "abi": [
    {
      "inputs": [
        {
          "internalType": "address",
          "name": "forwarder",
          "type": "address"
        }
      ],
      "name": "isTrustedForwarder",
      "outputs": [
        {
          "internalType": "bool",
          "name": "",
          "type": "bool"
        }
      ],
      "stateMutability": "view",
      "type": "function"
    },
    {
      "inputs": [],
      "name": "trustedForwarder",
      "outputs": [
        {
          "internalType": "address",
          "name": "",
          "type": "address"
        }
      ],
      "stateMutability": "view",
      "type": "function"
    },
    {
      "inputs": [
        {
          "internalType": "bytes32",
          "name": "c__0x07853504",
          "type": "bytes32"
        }
      ],
      "name": "c_0x07853504",
      "outputs": [],
      "stateMutability": "pure",
      "type": "function"
    },
    {
      "inputs": [],
      "name": "versionRecipient",
      "outputs": [
        {
          "internalType": "string",
          "name": "",
          "type": "string"
        }
      ],
      "stateMutability": "pure",
      "type": "function"
    }
  ],
  "bytecode": "0x608060405234801561001057600080fd5b5061045e806100206000396000f3fe608060405234801561001057600080fd5b506004361061004c5760003560e01c8063486ff0cd14610051578063572b6c051461006f5780637da0a8771461009f5780638576e4be146100bd575b600080fd5b6100596100d9565b604051610066919061032b565b60405180910390f35b61008960048036038101906100849190610244565b61019a565b6040516100969190610310565b60405180910390f35b6100a76101f3565b6040516100b491906102f5565b60405180910390f35b6100d760048036038101906100d29190610271565b610217565b005b60606101077f11dd98d6809ebd8463693ae2b3f048590b2cbe0b5871346e00a0b4c3c541174a60001b610217565b6101337f8ba796393678d90e1644972b2432ed6c109dbd204df8ff14546d9632bbedffc560001b610217565b61015f7f5759cbc9a7bcad7b45c102beff6e42b49f3a61f90ec5bc06dbe3a1747ad6d10d60001b610217565b6040518060400160405280601d81526020017f322e322e302b747265656a65722e6972656c6179726563697069656e74000000815250905090565b60008060009054906101000a900473ffffffffffffffffffffffffffffffffffffffff1673ffffffffffffffffffffffffffffffffffffffff168273ffffffffffffffffffffffffffffffffffffffff16149050919050565b60008054906101000a900473ffffffffffffffffffffffffffffffffffffffff1681565b50565b600081359050610229816103fa565b92915050565b60008135905061023e81610411565b92915050565b60006020828403121561025a576102596103e4565b5b60006102688482850161021a565b91505092915050565b600060208284031215610287576102866103e4565b5b60006102958482850161022f565b91505092915050565b6102a781610369565b82525050565b6102b68161037b565b82525050565b60006102c78261034d565b6102d18185610358565b93506102e18185602086016103b1565b6102ea816103e9565b840191505092915050565b600060208201905061030a600083018461029e565b92915050565b600060208201905061032560008301846102ad565b92915050565b6000602082019050818103600083015261034581846102bc565b905092915050565b600081519050919050565b600082825260208201905092915050565b600061037482610391565b9050919050565b60008115159050919050565b6000819050919050565b600073ffffffffffffffffffffffffffffffffffffffff82169050919050565b60005b838110156103cf5780820151818401526020810190506103b4565b838111156103de576000848401525b50505050565b600080fd5b6000601f19601f8301169050919050565b61040381610369565b811461040e57600080fd5b50565b61041a81610387565b811461042557600080fd5b5056fea2646970667358221220a03d07583d2d64e8501eab8c529addadbb47037ed4ebd4ec18e35b2d3edd31af64736f6c63430008060033",
  "immutableReferences": {},
  "source": "// SPDX-License-Identifier: GPL-3.0\n\npragma solidity >=0.7.6;\nfunction c_0xf98583e6(bytes32 c__0xf98583e6) pure {}\n\n\nimport \"./../external/gsn/BaseRelayRecipient.sol\";\n\n/** @title RelayRecipient contract  */\ncontract RelayRecipient is BaseRelayRecipient {\nfunction c_0x07853504(bytes32 c__0x07853504) public pure {}\n\n    /** @dev return version recipient */\n    function versionRecipient() external pure override returns (string memory) {c_0x07853504(0x11dd98d6809ebd8463693ae2b3f048590b2cbe0b5871346e00a0b4c3c541174a); /* function */ \n\nc_0x07853504(0x8ba796393678d90e1644972b2432ed6c109dbd204df8ff14546d9632bbedffc5); /* line */ \n        c_0x07853504(0x5759cbc9a7bcad7b45c102beff6e42b49f3a61f90ec5bc06dbe3a1747ad6d10d); /* statement */ \nreturn \"2.2.0+treejer.irelayrecipient\";\n    }\n}\n",
  "sourcePath": "/home/smuggler/contract/.coverage_contracts/gsn/RelayRecipient.sol",
  "compiler": {
    "name": "solc",
    "version": "0.8.6+commit.11564f7e.Emscripten.clang"
  },
  "schemaVersion": "3.4.1",
  "updatedAt": "2021-08-31T13:33:31.504Z",
  "devdoc": {
    "kind": "dev",
    "methods": {
      "versionRecipient()": {
        "details": "return version recipient "
      }
    },
    "title": "RelayRecipient contract  ",
    "version": 1
  },
  "userdoc": {
    "kind": "user",
    "methods": {
      "isTrustedForwarder(address)": {
        "notice": "return if the forwarder is trusted to forward relayed transactions to us. the forwarder is required to verify the sender's signature, and verify the call is not a replay."
      }
    },
    "version": 1
  }
}