{
  "contractName": "TestUniswap",
  "abi": [
    {
      "inputs": [
        {
          "internalType": "address",
          "name": "_uniswapRouterAddress",
          "type": "address"
        },
        {
          "internalType": "address",
          "name": "_daiAddress",
          "type": "address"
        },
        {
          "internalType": "address",
          "name": "_wethAddress",
          "type": "address"
        }
      ],
      "stateMutability": "nonpayable",
      "type": "constructor"
    },
    {
      "inputs": [],
      "name": "daiAddress",
      "outputs": [
        {
          "internalType": "address",
          "name": "",
          "type": "address"
        }
      ],
      "stateMutability": "view",
      "type": "function"
    },
    {
      "inputs": [],
      "name": "daiToken",
      "outputs": [
        {
          "internalType": "contract IERC20",
          "name": "",
          "type": "address"
        }
      ],
      "stateMutability": "view",
      "type": "function"
    },
    {
      "inputs": [],
      "name": "uniswapRouter",
      "outputs": [
        {
          "internalType": "contract IUniswapV2Router02",
          "name": "",
          "type": "address"
        }
      ],
      "stateMutability": "view",
      "type": "function"
    },
    {
      "inputs": [],
      "name": "wethAddress",
      "outputs": [
        {
          "internalType": "address",
          "name": "",
          "type": "address"
        }
      ],
      "stateMutability": "view",
      "type": "function"
    },
    {
      "inputs": [],
      "name": "wethToken",
      "outputs": [
        {
          "internalType": "contract IERC20",
          "name": "",
          "type": "address"
        }
      ],
      "stateMutability": "view",
      "type": "function"
    },
    {
      "inputs": [],
      "name": "addLiquidity",
      "outputs": [],
      "stateMutability": "nonpayable",
      "type": "function"
    }
  ],
  "bytecode": "0x608060405234801561001057600080fd5b50604051610ac7380380610ac783398181016040528101906100329190610193565b826000806101000a81548173ffffffffffffffffffffffffffffffffffffffff021916908373ffffffffffffffffffffffffffffffffffffffff16021790555081600160006101000a81548173ffffffffffffffffffffffffffffffffffffffff021916908373ffffffffffffffffffffffffffffffffffffffff16021790555080600260006101000a81548173ffffffffffffffffffffffffffffffffffffffff021916908373ffffffffffffffffffffffffffffffffffffffff16021790555080600460006101000a81548173ffffffffffffffffffffffffffffffffffffffff021916908373ffffffffffffffffffffffffffffffffffffffff16021790555081600360006101000a81548173ffffffffffffffffffffffffffffffffffffffff021916908373ffffffffffffffffffffffffffffffffffffffff160217905550505050610234565b60008151905061018d8161021d565b92915050565b6000806000606084860312156101ac576101ab610218565b5b60006101ba8682870161017e565b93505060206101cb8682870161017e565b92505060406101dc8682870161017e565b9150509250925092565b60006101f1826101f8565b9050919050565b600073ffffffffffffffffffffffffffffffffffffffff82169050919050565b600080fd5b610226816101e6565b811461023157600080fd5b50565b610884806102436000396000f3fe608060405234801561001057600080fd5b50600436106100625760003560e01c80632c387275146100675780634b57b0be146100855780634f0e0ef3146100a3578063735de9f7146100c1578063be22f546146100df578063e8078d94146100fd575b600080fd5b61006f610107565b60405161007c91906105af565b60405180910390f35b61008d61012d565b60405161009a919061069a565b60405180910390f35b6100ab610153565b6040516100b891906105af565b60405180910390f35b6100c9610179565b6040516100d691906106b5565b60405180910390f35b6100e761019d565b6040516100f4919061069a565b60405180910390f35b6101056101c3565b005b600360009054906101000a900473ffffffffffffffffffffffffffffffffffffffff1681565b600260009054906101000a900473ffffffffffffffffffffffffffffffffffffffff1681565b600460009054906101000a900473ffffffffffffffffffffffffffffffffffffffff1681565b60008054906101000a900473ffffffffffffffffffffffffffffffffffffffff1681565b600160009054906101000a900473ffffffffffffffffffffffffffffffffffffffff1681565b600160009054906101000a900473ffffffffffffffffffffffffffffffffffffffff1673ffffffffffffffffffffffffffffffffffffffff1663095ea7b360008054906101000a900473ffffffffffffffffffffffffffffffffffffffff166acecb8f27f4200f3a0000006040518363ffffffff1660e01b815260040161024b929190610671565b602060405180830381600087803b15801561026557600080fd5b505af1158015610279573d6000803e3d6000fd5b505050506040513d601f19601f8201168201806040525081019061029d91906104c6565b50600260009054906101000a900473ffffffffffffffffffffffffffffffffffffffff1673ffffffffffffffffffffffffffffffffffffffff1663095ea7b360008054906101000a900473ffffffffffffffffffffffffffffffffffffffff16691a784379d99db42000006040518363ffffffff1660e01b8152600401610325929190610648565b602060405180830381600087803b15801561033f57600080fd5b505af1158015610353573d6000803e3d6000fd5b505050506040513d601f19601f8201168201806040525081019061037791906104c6565b5060008054906101000a900473ffffffffffffffffffffffffffffffffffffffff1673ffffffffffffffffffffffffffffffffffffffff1663e8e33700600360009054906101000a900473ffffffffffffffffffffffffffffffffffffffff16600460009054906101000a900473ffffffffffffffffffffffffffffffffffffffff166acecb8f27f4200f3a000000691a784379d99db420000060018030600f4261042291906106d0565b6040518963ffffffff1660e01b81526004016104459897969594939291906105ca565b606060405180830381600087803b15801561045f57600080fd5b505af1158015610473573d6000803e3d6000fd5b505050506040513d601f19601f8201168201806040525081019061049791906104f3565b505050565b6000815190506104ab81610820565b92915050565b6000815190506104c081610837565b92915050565b6000602082840312156104dc576104db61081b565b5b60006104ea8482850161049c565b91505092915050565b60008060006060848603121561050c5761050b61081b565b5b600061051a868287016104b1565b935050602061052b868287016104b1565b925050604061053c868287016104b1565b9150509250925092565b61054f81610726565b82525050565b61055e8161076e565b82525050565b61056d81610792565b82525050565b61057c816107b6565b82525050565b61058b816107c8565b82525050565b61059a816107da565b82525050565b6105a981610764565b82525050565b60006020820190506105c46000830184610546565b92915050565b6000610100820190506105e0600083018b610546565b6105ed602083018a610546565b6105fa6040830189610591565b6106076060830188610573565b6106146080830187610582565b61062160a0830186610582565b61062e60c0830185610546565b61063b60e08301846105a0565b9998505050505050505050565b600060408201905061065d6000830185610546565b61066a6020830184610573565b9392505050565b60006040820190506106866000830185610546565b6106936020830184610591565b9392505050565b60006020820190506106af6000830184610555565b92915050565b60006020820190506106ca6000830184610564565b92915050565b60006106db82610764565b91506106e683610764565b9250827fffffffffffffffffffffffffffffffffffffffffffffffffffffffffffffffff0382111561071b5761071a6107ec565b5b828201905092915050565b600061073182610744565b9050919050565b60008115159050919050565b600073ffffffffffffffffffffffffffffffffffffffff82169050919050565b6000819050919050565b600061077982610780565b9050919050565b600061078b82610744565b9050919050565b600061079d826107a4565b9050919050565b60006107af82610744565b9050919050565b60006107c182610764565b9050919050565b60006107d382610764565b9050919050565b60006107e582610764565b9050919050565b7f4e487b7100000000000000000000000000000000000000000000000000000000600052601160045260246000fd5b600080fd5b61082981610738565b811461083457600080fd5b50565b61084081610764565b811461084b57600080fd5b5056fea2646970667358221220860fc5bd88c9669853b2f02b83f459c0ae3e3281eecf105c24a5a8eb9641e17e64736f6c63430008060033",
  "immutableReferences": {},
  "source": "// SPDX-License-Identifier: MIT\n\npragma solidity ^0.8.6;\n\nimport \"./v2-periphery/contracts/interfaces/IUniswapV2Router02.sol\";\nimport \"@openzeppelin/contracts/token/ERC20/IERC20.sol\";\n\ncontract TestUniswap {\n    IUniswapV2Router02 public uniswapRouter;\n\n    IERC20 public daiToken;\n    IERC20 public wethToken;\n\n    address public daiAddress;\n    address public wethAddress;\n\n    constructor(\n        address _uniswapRouterAddress,\n        address _daiAddress,\n        address _wethAddress\n    ) {\n        uniswapRouter = IUniswapV2Router02(_uniswapRouterAddress);\n\n        daiToken = IERC20(_daiAddress);\n        wethToken = IERC20(_wethAddress);\n\n        wethAddress = _wethAddress;\n        daiAddress = _daiAddress;\n    }\n\n    function addLiquidity() external {\n        // daiToken.transferFrom(msg.sender, address(this), 10000 * (10**18));\n        // wethToken.transferFrom(msg.sender, address(this), 5 * (10**18));\n\n        daiToken.approve(address(uniswapRouter), 250000000 * (10**18));\n        wethToken.approve(address(uniswapRouter), 125000 * (10**18));\n\n        uniswapRouter.addLiquidity(\n            daiAddress,\n            wethAddress,\n            250000000 * (10**18),\n            125000 * (10**18),\n            1,\n            1,\n            address(this),\n            block.timestamp + 15\n        );\n    }\n}\n",
  "sourcePath": "/home/smuggler/contract/.coverage_contracts/external/uniswap/TestUniswap.sol",
  "compiler": {
    "name": "solc",
    "version": "0.8.6+commit.11564f7e.Emscripten.clang"
  },
  "schemaVersion": "3.4.1",
  "updatedAt": "2021-08-31T13:33:31.316Z",
  "devdoc": {
    "kind": "dev",
    "methods": {},
    "version": 1
  },
  "userdoc": {
    "kind": "user",
    "methods": {},
    "version": 1
  }
}