{
  "contractName": "TestWhitelistPaymaster",
  "abi": [
    {
      "inputs": [],
      "name": "initialize",
      "outputs": [],
      "stateMutability": "nonpayable",
      "type": "function"
    },
    {
      "inputs": [
        {
          "internalType": "address",
          "name": "_address",
          "type": "address"
        }
      ],
      "name": "test",
      "outputs": [],
      "stateMutability": "nonpayable",
      "type": "function"
    },
    {
      "inputs": [
        {
          "internalType": "address",
          "name": "_address",
          "type": "address"
        }
      ],
      "name": "testPreRelayedCall",
      "outputs": [],
      "stateMutability": "nonpayable",
      "type": "function"
    }
  ],
  "bytecode": "0x608060405234801561001057600080fd5b5061091f806100206000396000f3fe608060405234801561001057600080fd5b50600436106100415760003560e01c80638129fc1c1461004657806399e5fe0814610050578063bb29998e1461006c575b600080fd5b61004e610088565b005b61006a600480360381019061006591906103a9565b610161565b005b610086600480360381019061008191906103a9565b6101ef565b005b600060019054906101000a900460ff16806100ae575060008054906101000a900460ff16155b6100ed576040517f08c379a00000000000000000000000000000000000000000000000000000000081526004016100e49061073a565b60405180910390fd5b60008060019054906101000a900460ff16159050801561013d576001600060016101000a81548160ff02191690831515021790555060016000806101000a81548160ff0219169083151502179055505b801561015e5760008060016101000a81548160ff0219169083151502179055505b50565b600081905061016e61027e565b6060806000606e90508473ffffffffffffffffffffffffffffffffffffffff1662be5dd4858585856040518563ffffffff1660e01b81526004016101b5949392919061075a565b600060405180830381600087803b1580156101cf57600080fd5b505af11580156101e3573d6000803e3d6000fd5b50505050505050505050565b60008190506060600080606e90506102056102a4565b8473ffffffffffffffffffffffffffffffffffffffff166376fa01c3858585856040518563ffffffff1660e01b815260040161024494939291906106e7565b600060405180830381600087803b15801561025e57600080fd5b505af1158015610272573d6000803e3d6000fd5b50505050505050505050565b604051806040016040528061029161032b565b815260200161029e6102a4565b81525090565b604051806101000160405280600081526020016000815260200160008152602001600073ffffffffffffffffffffffffffffffffffffffff168152602001600073ffffffffffffffffffffffffffffffffffffffff168152602001600073ffffffffffffffffffffffffffffffffffffffff16815260200160608152602001600081525090565b6040518060e00160405280600073ffffffffffffffffffffffffffffffffffffffff168152602001600073ffffffffffffffffffffffffffffffffffffffff16815260200160008152602001600081526020016000815260200160608152602001600081525090565b6000813590506103a3816108d2565b92915050565b6000602082840312156103bf576103be61086d565b5b60006103cd84828501610394565b91505092915050565b6103df816107f2565b82525050565b6103ee81610804565b82525050565b60006103ff826107b4565b61040981856107bf565b935061041981856020860161083a565b61042281610872565b840191505092915050565b6000610438826107b4565b61044281856107d0565b935061045281856020860161083a565b61045b81610872565b840191505092915050565b6000610473602e836107e1565b915061047e82610883565b604082019050919050565b600060e0830160008301516104a160008601826103d6565b5060208301516104b460208601826103d6565b5060408301516104c760408601826106c9565b5060608301516104da60608601826106c9565b5060808301516104ed60808601826106c9565b5060a083015184820360a086015261050582826103f4565b91505060c083015161051a60c08601826106c9565b508091505092915050565b60006101008301600083015161053e60008601826106c9565b50602083015161055160208601826106c9565b50604083015161056460408601826106c9565b50606083015161057760608601826103d6565b50608083015161058a60808601826103d6565b5060a083015161059d60a08601826103d6565b5060c083015184820360c08601526105b582826103f4565b91505060e08301516105ca60e08601826106c9565b508091505092915050565b6000610100830160008301516105ee60008601826106c9565b50602083015161060160208601826106c9565b50604083015161061460408601826106c9565b50606083015161062760608601826103d6565b50608083015161063a60808601826103d6565b5060a083015161064d60a08601826103d6565b5060c083015184820360c086015261066582826103f4565b91505060e083015161067a60e08601826106c9565b508091505092915050565b600060408301600083015184820360008601526106a28282610489565b915050602083015184820360208601526106bc8282610525565b9150508091505092915050565b6106d281610830565b82525050565b6106e181610830565b82525050565b60006080820190508181036000830152610701818761042d565b905061071060208301866103e5565b61071d60408301856106d8565b818103606083015261072f81846105d5565b905095945050505050565b6000602082019050818103600083015261075381610466565b9050919050565b600060808201905081810360008301526107748187610685565b90508181036020830152610788818661042d565b9050818103604083015261079c818561042d565b90506107ab60608301846106d8565b95945050505050565b600081519050919050565b600082825260208201905092915050565b600082825260208201905092915050565b600082825260208201905092915050565b60006107fd82610810565b9050919050565b60008115159050919050565b600073ffffffffffffffffffffffffffffffffffffffff82169050919050565b6000819050919050565b60005b8381101561085857808201518184015260208101905061083d565b83811115610867576000848401525b50505050565b600080fd5b6000601f19601f8301169050919050565b7f496e697469616c697a61626c653a20636f6e747261637420697320616c72656160008201527f647920696e697469616c697a6564000000000000000000000000000000000000602082015250565b6108db816107f2565b81146108e657600080fd5b5056fea2646970667358221220fa0974eebd45abb1bf5955764773c520bb7937112f54c9d56f98c9dac173262f64736f6c63430008060033",
  "immutableReferences": {},
  "source": "// SPDX-License-Identifier: GPL-3.0\n\npragma solidity ^0.8.6;\nimport \"./IWhitelistPaymaster.sol\";\nimport \"@openzeppelin/contracts-upgradeable/proxy/utils/Initializable.sol\";\nimport \"./../../external/gsn/forwarder/IForwarder.sol\";\n\ncontract TestWhitelistPaymaster is Initializable {\n    function initialize() external initializer {}\n\n    function test(address _address) external {\n        IWhitelistPaymaster test1 = IWhitelistPaymaster(_address);\n        bytes memory context;\n        bool success = false;\n        uint256 gasUseWithoutPost = 110;\n        GsnTypes.RelayData memory s;\n        test1.postRelayedCall(context, success, gasUseWithoutPost, s);\n    }\n\n    function testPreRelayedCall(address _address) external {\n        IWhitelistPaymaster test1 = IWhitelistPaymaster(_address);\n\n        GsnTypes.RelayRequest memory relayRequest;\n        bytes memory signature;\n        bytes memory approvalData;\n        uint256 maxPossibleGas = 110;\n\n        test1.preRelayedCall(\n            relayRequest,\n            signature,\n            approvalData,\n            maxPossibleGas\n        );\n    }\n}\n",
  "sourcePath": "/home/smuggler/contract/.coverage_contracts/external/testContract/TestWhitelistPaymaster.sol",
  "compiler": {
    "name": "solc",
    "version": "0.8.6+commit.11564f7e.Emscripten.clang"
  },
  "schemaVersion": "3.4.1",
  "updatedAt": "2021-08-31T13:33:31.302Z",
  "devdoc": {
    "kind": "dev",
    "methods": {},
    "version": 1
  },
  "userdoc": {
    "kind": "user",
    "methods": {},
    "version": 1
  }
}