{
  "contractName": "TestTreeAttributes",
  "abi": [
    {
      "anonymous": false,
      "inputs": [
        {
          "indexed": false,
          "internalType": "address",
          "name": "buyer",
          "type": "address"
        },
        {
          "indexed": false,
          "internalType": "uint8",
          "name": "rank",
          "type": "uint8"
        }
      ],
      "name": "BuyerRankSet",
      "type": "event"
    },
    {
      "anonymous": false,
      "inputs": [
        {
          "indexed": false,
          "internalType": "uint256",
          "name": "treeId",
          "type": "uint256"
        }
      ],
      "name": "TreeAttributesGenerated",
      "type": "event"
    },
    {
      "anonymous": false,
      "inputs": [
        {
          "indexed": false,
          "internalType": "uint256",
          "name": "treeId",
          "type": "uint256"
        }
      ],
      "name": "TreeAttributesNotGenerated",
      "type": "event"
    },
    {
      "inputs": [],
      "name": "accessRestriction",
      "outputs": [
        {
          "internalType": "contract IAccessRestriction",
          "name": "",
          "type": "address"
        }
      ],
      "stateMutability": "view",
      "type": "function"
    },
    {
      "inputs": [
        {
          "internalType": "bytes32",
          "name": "c__0x07853504",
          "type": "bytes32"
        }
      ],
      "name": "c_0x07853504",
      "outputs": [],
      "stateMutability": "pure",
      "type": "function"
    },
    {
      "inputs": [
        {
          "internalType": "bytes32",
          "name": "c__0x8f48945a",
          "type": "bytes32"
        }
      ],
      "name": "c_0x8f48945a",
      "outputs": [],
      "stateMutability": "pure",
      "type": "function"
    },
    {
      "inputs": [
        {
          "internalType": "uint256",
          "name": "treeId",
          "type": "uint256"
        }
      ],
      "name": "createTreeAttributes",
      "outputs": [
        {
          "internalType": "bool",
          "name": "",
          "type": "bool"
        }
      ],
      "stateMutability": "nonpayable",
      "type": "function"
    },
    {
      "inputs": [
        {
          "internalType": "uint32",
          "name": "generatedCode",
          "type": "uint32"
        }
      ],
      "name": "freeReserveTreeAttributes",
      "outputs": [],
      "stateMutability": "nonpayable",
      "type": "function"
    },
    {
      "inputs": [
        {
          "internalType": "uint32",
          "name": "",
          "type": "uint32"
        }
      ],
      "name": "generatedAttributes",
      "outputs": [
        {
          "internalType": "uint32",
          "name": "",
          "type": "uint32"
        }
      ],
      "stateMutability": "view",
      "type": "function"
    },
    {
      "inputs": [
        {
          "internalType": "address",
          "name": "_accessRestrictionAddress",
          "type": "address"
        }
      ],
      "name": "initialize",
      "outputs": [],
      "stateMutability": "nonpayable",
      "type": "function"
    },
    {
      "inputs": [],
      "name": "isTreeAttribute",
      "outputs": [
        {
          "internalType": "bool",
          "name": "",
          "type": "bool"
        }
      ],
      "stateMutability": "view",
      "type": "function"
    },
    {
      "inputs": [
        {
          "internalType": "address",
          "name": "forwarder",
          "type": "address"
        }
      ],
      "name": "isTrustedForwarder",
      "outputs": [
        {
          "internalType": "bool",
          "name": "",
          "type": "bool"
        }
      ],
      "stateMutability": "view",
      "type": "function"
    },
    {
      "inputs": [
        {
          "internalType": "address",
          "name": "",
          "type": "address"
        }
      ],
      "name": "rankOf",
      "outputs": [
        {
          "internalType": "uint8",
          "name": "",
          "type": "uint8"
        }
      ],
      "stateMutability": "view",
      "type": "function"
    },
    {
      "inputs": [
        {
          "internalType": "uint32",
          "name": "generatedCode",
          "type": "uint32"
        }
      ],
      "name": "reserveTreeAttributes",
      "outputs": [],
      "stateMutability": "nonpayable",
      "type": "function"
    },
    {
      "inputs": [
        {
          "internalType": "uint32",
          "name": "",
          "type": "uint32"
        }
      ],
      "name": "reservedAttributes",
      "outputs": [
        {
          "internalType": "uint8",
          "name": "",
          "type": "uint8"
        }
      ],
      "stateMutability": "view",
      "type": "function"
    },
    {
      "inputs": [
        {
          "internalType": "address",
          "name": "buyer",
          "type": "address"
        },
        {
          "internalType": "uint256",
          "name": "treejerSpent",
          "type": "uint256"
        },
        {
          "internalType": "uint256",
          "name": "walletSpent",
          "type": "uint256"
        },
        {
          "internalType": "uint64",
          "name": "treesOwned",
          "type": "uint64"
        },
        {
          "internalType": "uint64",
          "name": "walletSpentCount",
          "type": "uint64"
        }
      ],
      "name": "setBuyerRank",
      "outputs": [],
      "stateMutability": "nonpayable",
      "type": "function"
    },
    {
      "inputs": [
        {
          "internalType": "uint256",
          "name": "treeId",
          "type": "uint256"
        },
        {
          "internalType": "uint32",
          "name": "generatedCode",
          "type": "uint32"
        }
      ],
      "name": "setTreeAttributesByAdmin",
      "outputs": [],
      "stateMutability": "nonpayable",
      "type": "function"
    },
    {
      "inputs": [
        {
          "internalType": "address",
          "name": "_address",
          "type": "address"
        }
      ],
      "name": "setTreeFactoryAddress",
      "outputs": [],
      "stateMutability": "nonpayable",
      "type": "function"
    },
    {
      "inputs": [
        {
          "internalType": "address",
          "name": "_address",
          "type": "address"
        }
      ],
      "name": "setTrustedForwarder",
      "outputs": [],
      "stateMutability": "nonpayable",
      "type": "function"
    },
    {
      "inputs": [
        {
          "internalType": "uint256",
          "name": "",
          "type": "uint256"
        }
      ],
      "name": "treeAttributes",
      "outputs": [
        {
          "internalType": "uint32",
          "name": "treeType",
          "type": "uint32"
        },
        {
          "internalType": "uint32",
          "name": "groundType",
          "type": "uint32"
        },
        {
          "internalType": "uint32",
          "name": "trunkColor",
          "type": "uint32"
        },
        {
          "internalType": "uint32",
          "name": "crownColor",
          "type": "uint32"
        },
        {
          "internalType": "uint32",
          "name": "groundColor",
          "type": "uint32"
        },
        {
          "internalType": "uint32",
          "name": "specialEffects",
          "type": "uint32"
        },
        {
          "internalType": "uint32",
          "name": "universalCode",
          "type": "uint32"
        },
        {
          "internalType": "uint32",
          "name": "exists",
          "type": "uint32"
        }
      ],
      "stateMutability": "view",
      "type": "function"
    },
    {
      "inputs": [],
      "name": "treeFactory",
      "outputs": [
        {
          "internalType": "contract ITreeFactory",
          "name": "",
          "type": "address"
        }
      ],
      "stateMutability": "view",
      "type": "function"
    },
    {
      "inputs": [],
      "name": "trustedForwarder",
      "outputs": [
        {
          "internalType": "address",
          "name": "",
          "type": "address"
        }
      ],
      "stateMutability": "view",
      "type": "function"
    },
    {
      "inputs": [],
      "name": "versionRecipient",
      "outputs": [
        {
          "internalType": "string",
          "name": "",
          "type": "string"
        }
      ],
      "stateMutability": "pure",
      "type": "function"
    },
    {
      "inputs": [
        {
          "internalType": "uint256",
          "name": "treeId",
          "type": "uint256"
        }
      ],
      "name": "test",
      "outputs": [],
      "stateMutability": "nonpayable",
      "type": "function"
    }
  ],
  "bytecode": "0x608060405234801561001057600080fd5b5061692580620000216000396000f3fe608060405234801561001057600080fd5b50600436106101375760003560e01c8063786354a6116100b85780639aaa21201161007c5780639aaa212014610353578063ac689ec31461036f578063b55c0a831461038b578063c4d66de8146103bb578063d6762c4a146103d7578063da742228146103f557610137565b8063786354a6146102965780637da0a877146102cd5780638576e4be146102eb578063874c1daf1461030757806389e2af181461033757610137565b8063448e5d2b116100ff578063448e5d2b146101ca57806346efcdc1146101fa578063486ff0cd14610218578063572b6c051461023657806377522cc91461026657610137565b80630bf351f81461013c578063297692531461015857806329e99f07146101745780632a4ddf6d14610190578063421ef6d4146101ac575b600080fd5b6101566004803603810190610151919061587d565b610411565b005b610172600480360381019061016d9190615a2c565b6107b0565b005b61018e600480360381019061018991906159bf565b610b6b565b005b6101aa60048036038101906101a591906159ec565b610ba4565b005b6101b46116d8565b6040516101c19190615d4f565b60405180910390f35b6101e460048036038101906101df9190615a2c565b6116fe565b6040516101f19190615f49565b60405180910390f35b61020261171e565b60405161020f9190615d19565b60405180910390f35b610220611731565b60405161022d9190615d6a565b60405180910390f35b610250600480360381019061024b919061587d565b6117f2565b60405161025d9190615d19565b60405180910390f35b610280600480360381019061027b91906159bf565b61184b565b60405161028d9190615d19565b60405180910390f35b6102b060048036038101906102ab91906159bf565b6123c8565b6040516102c4989796959493929190615ecb565b60405180910390f35b6102d5612490565b6040516102e29190615cba565b60405180910390f35b61030560048036038101906103009190615992565b6124b6565b005b610321600480360381019061031c919061587d565b6124b9565b60405161032e9190615f49565b60405180910390f35b610351600480360381019061034c9190615a2c565b6124d9565b005b61036d60048036038101906103689190615992565b61289a565b005b610389600480360381019061038491906158aa565b61289d565b005b6103a560048036038101906103a09190615a2c565b61326d565b6040516103b29190615eb0565b60405180910390f35b6103d560048036038101906103d0919061587d565b613290565b005b6103df613637565b6040516103ec9190615d34565b60405180910390f35b61040f600480360381019061040a919061587d565b61365d565b005b61043d7ffd51bd35c2acc01c75cad85a1ec84eaf512e198361cb0f4bb2c85606b0ff706060001b61289a565b6104697f7935ad9c1971d64fcbc668e3b2cbede04ba2bc427e295bbcbde184b7546ba4ee60001b61289a565b6104957fbe947384078f7b4bea5d4c3a5194fba3734c91488cc7fa148b4091b0364dbee760001b61289a565b600160009054906101000a900473ffffffffffffffffffffffffffffffffffffffff1673ffffffffffffffffffffffffffffffffffffffff16638413ec146104db6139e1565b6040518263ffffffff1660e01b81526004016104f79190615cd5565b60006040518083038186803b15801561050f57600080fd5b505afa158015610523573d6000803e3d6000fd5b505050506105537f6cdad768c5ab3fce7a9445f10bfc3df34176e829532eda6818ca29ff521b19e560001b61289a565b61057f7fe91d03fc1354d606996fbafff49dce9c8e74a5bb3d9ce706ab4345b93ec97baf60001b61289a565b6105ab7fd5ecb66e0682f8752f2524624c46da2cad729b0e4afa7ab1cc117b4dfad3221f60001b61289a565b6105d77f281a6ca52b180837242367eabd5308d85fd19c6e2f926b3591ca3037abc85c9b60001b61289a565b60008190506106087fbc4bd4a31c857e9d28688a3718014823bd010e3aaf9b47cdb0cc938c97928fac60001b61289a565b6106347ff6ced79edf26e6eacdc4c1e8c2c98ff0385a1b33ca70114d087bd5a70aa8b5f860001b61289a565b6106607fa99f62b18278c2181d1f00eef21f933f5d0c6422c995663c418e9b4fc803be1860001b61289a565b8073ffffffffffffffffffffffffffffffffffffffff1663e0eb4eb96040518163ffffffff1660e01b815260040160206040518083038186803b1580156106a657600080fd5b505afa1580156106ba573d6000803e3d6000fd5b505050506040513d601f19601f820116820180604052508101906106de9190615925565b6106e757600080fd5b6107137f62998c71abc2565b6fa66e64925ff3362c0590a1570e93a39c967e4736eb85e560001b61289a565b61073f7ff5f07188d4bd503fdcc487f702caf15a5c94db5b712c256b2517345b593d457960001b61289a565b61076b7f5504d5309beea9e2b0b3b3d4a087fc3b72fbf605dee319734293592e9b264eb760001b61289a565b80600260006101000a81548173ffffffffffffffffffffffffffffffffffffffff021916908373ffffffffffffffffffffffffffffffffffffffff1602179055505050565b6107dc7f89395798b31da8af4071a28311e8b93b31f7f665ac492fecd2056fb3507e5b4d60001b61289a565b6108087ff72d0acbc8ec30926dbf0b4a367bfa1091bf535f9b1b9598cf569e34e21f4b7960001b61289a565b6108347fd54ecfd1d049ba3208c233896dd28b0b62eb288753b6b931ac30738092011fbf60001b61289a565b600160009054906101000a900473ffffffffffffffffffffffffffffffffffffffff1673ffffffffffffffffffffffffffffffffffffffff166324f9e45f61087a6139e1565b6040518263ffffffff1660e01b81526004016108969190615cd5565b60006040518083038186803b1580156108ae57600080fd5b505afa1580156108c2573d6000803e3d6000fd5b505050506108f27f40b51a474ddfc8c5abc6905b65e5c1c7c25b18c75f5c00dc59cc5a09f7e363de60001b61289a565b61091e7f02ac3c7e5f09aa38023c87af6bfa7c561512305379a8e17abca0b5be23ee4c8d60001b61289a565b61094a7ff030894da6704c32be9613e0d6f9142478e602ed3de372755206dccbb84f8e7160001b61289a565b6109767fc52c29cb4080b51a476a7bf157d9062e2a3b0631d5707f6815405f8ff2c4269d60001b61289a565b6109a27f5bf37cb95462a7fc3f50b4c3832050486fbb989f4ce1f751472b4e941bad427960001b61289a565b6001600660008363ffffffff1663ffffffff16815260200190815260200160002060009054906101000a900460ff1660ff1614610a14576040517f08c379a0000000000000000000000000000000000000000000000000000000008152600401610a0b90615dac565b60405180910390fd5b610a407f2ff017ea5dabfd0827492cfe748989166e7e77f1099edeebe52209ace7c51dfe60001b61289a565b610a6c7fc86af19730d8ff63199a2b4bbd2d674bff1dcb2d63c6fb5d68c978219de3a60160001b61289a565b610a987f256899fd8f04f45b21ab23d4b0f721225d0dc0687738291718f6dbc92bb49f1f60001b61289a565b6000600560008363ffffffff1663ffffffff16815260200190815260200160002060006101000a81548163ffffffff021916908363ffffffff160217905550610b037fceba7dc7134dce5dc948f329d112c62b71b69a088285f7c21d553d5434ead2b260001b61289a565b610b2f7f0f2752b17f870b8f0d4365f993652962a859238fdd6c86f2936a43b5f111891260001b61289a565b6000600660008363ffffffff1663ffffffff16815260200190815260200160002060006101000a81548160ff021916908360ff16021790555050565b600060046000838152602001908152602001600020600001601c6101000a81548163ffffffff021916908363ffffffff16021790555050565b610bd07f89395798b31da8af4071a28311e8b93b31f7f665ac492fecd2056fb3507e5b4d60001b61289a565b610bfc7ff72d0acbc8ec30926dbf0b4a367bfa1091bf535f9b1b9598cf569e34e21f4b7960001b61289a565b610c287fd54ecfd1d049ba3208c233896dd28b0b62eb288753b6b931ac30738092011fbf60001b61289a565b600160009054906101000a900473ffffffffffffffffffffffffffffffffffffffff1673ffffffffffffffffffffffffffffffffffffffff166324f9e45f610c6e6139e1565b6040518263ffffffff1660e01b8152600401610c8a9190615cd5565b60006040518083038186803b158015610ca257600080fd5b505afa158015610cb6573d6000803e3d6000fd5b50505050610ce67f40b51a474ddfc8c5abc6905b65e5c1c7c25b18c75f5c00dc59cc5a09f7e363de60001b61289a565b610d127f7c4947b870eb2d1d7a41ca10f5fde312485d04ed3000a60fe710f6f64a34a05060001b61289a565b610d3e7f7ac49a8250b80c635d2953c23061436b711056e375404a7f7abf630397a6d10360001b61289a565b610d6a7f547c9311998136c95a7224a86be29697bfada50a066c573ec4a700a96be9725b60001b61289a565b610d967f32b60e1bdb8e855eff2f268a79aac278314ae54a436b37f53a3fde32f48b470060001b61289a565b6000600560008363ffffffff1663ffffffff16815260200190815260200160002060009054906101000a900463ffffffff1663ffffffff161480610e0957506001600660008363ffffffff1663ffffffff16815260200190815260200160002060009054906101000a900460ff1660ff16145b610e48576040517f08c379a0000000000000000000000000000000000000000000000000000000008152600401610e3f90615e4c565b60405180910390fd5b610e747f3e7e01452bf686ec8ae1c9fb7f3575f3b2418c2238d216e01b8e3992cf8ba7d760001b61289a565b610ea07fdc8c86b98b7872cae09e7628742c21029c50c1b6bd36c875aae32c938d7f954060001b61289a565b610ecc7fde27bdaeffa9c2a212dc5c19af4555cb7e8439504d87dea0667af94ff5dce5a460001b61289a565b610ef87f5891998416e9c2a34b34612754ab83d8464d415d786cb8b20e068e432a3ee8df60001b61289a565b60006004600084815260200190815260200160002060000160189054906101000a900463ffffffff1663ffffffff1614610f67576040517f08c379a0000000000000000000000000000000000000000000000000000000008152600401610f5e90615d8c565b60405180910390fd5b610f937fef9e8ee19ec5eace855e843a9bc62bf4eba55d5aba07f7a6f1965b4d8111480060001b61289a565b610fbf7f5d7db6057e1d9cd22b6262c11bcdc7ffaa730b153e1a1197e0fe5cf5b6ef0bdd60001b61289a565b610feb7fadcc2d5f4ae1dcc28d27d1f333dd57bba864d1cd4df9db399cb70b70612581c760001b61289a565b6001600560008363ffffffff1663ffffffff16815260200190815260200160002060006101000a81548163ffffffff021916908363ffffffff1602179055506110567f9a875570f441e6366d97cd23b973affafa38444ae0600b9286a490ca118f065c60001b61289a565b6110827f3020cb89e5e8dc58afa0d6c89a37a9612cb128f9575f89ed0eba90052f154f6860001b61289a565b6000600660008363ffffffff1663ffffffff16815260200190815260200160002060006101000a81548160ff021916908360ff1602179055506110e77f5f3b56db3e4bf26d38a337d17fda29de30bb8787bd730033b857e8e721c1225760001b61289a565b6111137ffd74df01b04e10fae1747009b9dc2ba88493cab2539521b37c4f0e84dbd318d560001b61289a565b60006040518060c00160405280600660ff168152602001600360ff168152602001600460ff168152602001600460ff168152602001600360ff168152602001600460ff1681525090506111887f120bc8fafdd0e95ed9d7239722ba66496df14b381c2275b738f8db5bdebad5b060001b61289a565b6111b47f0fdf332cac94a411b5f267d6e8c6bff13b300aeb51ae5c4f126751d1d8b4522660001b61289a565b6000600667ffffffffffffffff8111156111d1576111d061669b565b5b6040519080825280602002602001820160405280156111ff5781602001602082028036833780820191505090505b50905061122e7f0e33e0621fa664f4bda97d1a2de8cd7ac2739a3d2c1218c3cc02eca476ee71b560001b61289a565b61125a7fc246c1a47e7b99f0f87c02b1a5f952022ff9838419a4f3a44f46155c8b5be3e860001b61289a565b600083905061128b7f76d0b1ac3c1add7166f81d78a66cc4223923edf3d7a240a35619e83a61e8cc1960001b61289a565b6112b77f18fbb9eff1a6c4b0d926639f8f880dcc6138de337b62b5dd2637fcad04000ccf60001b61289a565b60005b60068163ffffffff16101561141d576112f57f17e71d955b219a93b609e6a0dbe6f4b1582b2074a6fcbe2ee7d55cfa2d5576e660001b61289a565b6113217f059dc47bb104d30f41dad445a4f828e6294451985015219e00fe59a651dca51960001b61289a565b61134882858363ffffffff166006811061133e5761133d61666c565b5b6020020151613a1d565b838263ffffffff16815181106113615761136061666c565b5b602002602001019063ffffffff16908163ffffffff16815250506113a77f1e26d1203f4f745bd1e25b3d5205927d4731c8f814a90c822e5d7f432762a27260001b61289a565b6113d37f3cfcf2db342654b4036b397c1bafd2004f5a6dc95d3a2e8fdd4b70a85e9d856f60001b61289a565b838163ffffffff16600681106113ec576113eb61666c565b5b602002015160026113fd9190616192565b826114089190616078565b915080806114159061659f565b9150506112ba565b5061144a7f9b6a6fd3151051f1417b4bd18a802e5f1ae7dbb5f6060ad9c4fea26f7cbfbf8460001b61289a565b6114767fa9d2899e1793f1be95ee4880da1b6b5eccab3c48cd64df0e8f8e2402f12a388d60001b61289a565b604051806101000160405280836000815181106114965761149561666c565b5b602002602001015163ffffffff168152602001836001815181106114bd576114bc61666c565b5b602002602001015163ffffffff168152602001836002815181106114e4576114e361666c565b5b602002602001015163ffffffff1681526020018360038151811061150b5761150a61666c565b5b602002602001015163ffffffff168152602001836004815181106115325761153161666c565b5b602002602001015163ffffffff168152602001836005815181106115595761155861666c565b5b602002602001015163ffffffff1681526020018563ffffffff168152602001600163ffffffff168152506004600087815260200190815260200160002060008201518160000160006101000a81548163ffffffff021916908363ffffffff16021790555060208201518160000160046101000a81548163ffffffff021916908363ffffffff16021790555060408201518160000160086101000a81548163ffffffff021916908363ffffffff160217905550606082015181600001600c6101000a81548163ffffffff021916908363ffffffff16021790555060808201518160000160106101000a81548163ffffffff021916908363ffffffff16021790555060a08201518160000160146101000a81548163ffffffff021916908363ffffffff16021790555060c08201518160000160186101000a81548163ffffffff021916908363ffffffff16021790555060e082015181600001601c6101000a81548163ffffffff021916908363ffffffff1602179055509050505050505050565b600260009054906101000a900473ffffffffffffffffffffffffffffffffffffffff1681565b60066020528060005260406000206000915054906101000a900460ff1681565b600060169054906101000a900460ff1681565b606061175f7f11dd98d6809ebd8463693ae2b3f048590b2cbe0b5871346e00a0b4c3c541174a60001b6124b6565b61178b7f8ba796393678d90e1644972b2432ed6c109dbd204df8ff14546d9632bbedffc560001b6124b6565b6117b77f5759cbc9a7bcad7b45c102beff6e42b49f3a61f90ec5bc06dbe3a1747ad6d10d60001b6124b6565b6040518060400160405280601d81526020017f322e322e302b747265656a65722e6972656c6179726563697069656e74000000815250905090565b60008060029054906101000a900473ffffffffffffffffffffffffffffffffffffffff1673ffffffffffffffffffffffffffffffffffffffff168273ffffffffffffffffffffffffffffffffffffffff16149050919050565b60006118797f831fe4478e03bf7fbf58b8036e6e538a34e77fd1da1f73ce31b72ccfe8af764060001b61289a565b6118a57f5a30c71d8d93ca9ba669d945141074ef6be56defb3e77ed41d65af46f01c504c60001b61289a565b6118d17fbcaed83b9b9cd95f92811367929b9d55b580dcd7cf0779a5ed13ad77c64f320d60001b61289a565b600160009054906101000a900473ffffffffffffffffffffffffffffffffffffffff1673ffffffffffffffffffffffffffffffffffffffff16634d868f986040518163ffffffff1660e01b815260040160006040518083038186803b15801561193957600080fd5b505afa15801561194d573d6000803e3d6000fd5b5050505061197d7f8a2d8da5c23c294769f4369e9818afbb78aca09c843942c5abd82406d5bde00760001b61289a565b6119a97fb7856e27cc38914f4372c976f012c22f86cdc9ef87f56870acb45039cb439f9f60001b61289a565b6119d57fec309290a874e5d7e48372ee37259ea48d074daeef71d5c390c7a94426a763b760001b61289a565b611a017f3165caba52d1d6e1585d881f561f4d042f19c20d118f364febfb7e29ec89b39a60001b61289a565b611a2d7fa903c3e76d8df737dc143af18da5678b4f266db785c169a069b4580ea55a5fc860001b61289a565b600060046000848152602001908152602001600020600001601c9054906101000a900463ffffffff1663ffffffff1614611a9c576040517f08c379a0000000000000000000000000000000000000000000000000000000008152600401611a9390615d8c565b60405180910390fd5b611ac87fea065a5e18b4d7241d4a65d3d665e4c804da519ca3f0d32ca9db92182f969dc760001b61289a565b611af47f3bcaa1284456a55aee9521ddd00eeb6eb063a2b46e68bde7c2bc53a9fb2042b560001b61289a565b611b207f444b1859b1cafb011af99fa1a53a9adabf772a61e82dfeba0c2af866a3e1241660001b61289a565b600080600260009054906101000a900473ffffffffffffffffffffffffffffffffffffffff1673ffffffffffffffffffffffffffffffffffffffff16639a27ccfa85611b6a6139e1565b6040518363ffffffff1660e01b8152600401611b87929190615e87565b604080518083038186803b158015611b9e57600080fd5b505afa158015611bb2573d6000803e3d6000fd5b505050506040513d601f19601f82011682018060405250810190611bd69190615952565b91509150611c067f7424c52e645eb104b0a8da26ecacaa8df12e4aac72c7bda26a7a4a13d88d145060001b61289a565b611c327f8c78950feaaf5789b5f7b4e76f549295af06ec1fc6524ac918095067022184e260001b61289a565b611c5e7f20cbcccb6ab1c4c5abadd3ad50d6f7f53aa0b4e4cb2f92d073224d93ef8d071e60001b61289a565b81611c9e576040517f08c379a0000000000000000000000000000000000000000000000000000000008152600401611c9590615e0c565b60405180910390fd5b611cca7f5b08d1b86c300951229ec26321264eab53223bbe34e054ccb72ccd0995a11d5660001b61289a565b611cf67fbd7ba7c3a572b9d6da85d657254940857c1fadde702e561033701ecbfd0a815960001b61289a565b611d227fafb134bca2e21ae508fa230dbbd889c788be0e610d4a928acdb159fc893c69fa60001b61289a565b600060019050611d547f8ec50ecf10bcfdda349fe73e1de30af3ea7932c6f82bb9c5e4f44d298598389c60001b61289a565b611d807f0c720d557760666bb7fc4d6f119dc1ca44b2661c8a22607e29601bd69bb825f960001b61289a565b60005b61271081101561218a57611db97f843ae4c7bc52174f85d799b693339cdcf7306f7e367d1d4fcf0881017c7ea68f60001b61289a565b611de57f6ecbb1877ac138507e698c4bac99e04d68568d50e4779ec4219dc938dbe14d4360001b61289a565b6000611def6139e1565b846000357fffffffff00000000000000000000000000000000000000000000000000000000168985604051602001611e2b959493929190615c5b565b6040516020818303038152906040528051906020012060001c9050611e727fda883c4717da6f2c1395ace2b361e7d8fcfea83816eb1c7183f08fb778c19e1460001b61289a565b611e9e7f0900e511999dd075b457e06ae26501760d39325810c7b4fb451bb40191aed75860001b61289a565b60005b600981101561208d57611ed67fb2177fb2c077d41f90c086834236f47b50985c1384c265bb4e87d4611fdb6aad60001b61289a565b611f027fa016faa5420862818e1409096eaa579578c7b7eab17a932ea46e5e78b473721760001b61289a565b611f1e611f0d6139e1565b89611f1985601c613b24565b613c33565b9350611f4c7fe09722b0a9c18e8c7123d4a9087e7fb14464ab988a7a4676a7df89a3eaa3cf4760001b61289a565b611f787fa63def21b566cc0ed23279aa8c32ca6f16544db8a2577cd9661ef696d0567dd660001b61289a565b8315611fdb57611faa7fd91b1444b5835d2e5da4fcf4eaf042ace31228e53553f5167e6cb5d4c74b856b60001b61289a565b611fd67f20eb0437f4f8976ced16693fe4a989bab0482c6d1a2857d6cc8a716a90731f0f60001b61289a565b61208d565b6120077fe621a5711ac00a0cf1522a6bfcec90a4b6a18e46e171d59ac1e70abf254df55b60001b61289a565b6120337faa84d6bf0ea5e073e887fa915dafedd112a7d41f46b830bdf996093f1999988860001b61289a565b61205f7f0837193280ed35165652c7bb38ee884ff42fbbe4135f4be595c8c298fd08215c60001b61289a565b601c600261206d9190616147565b826120789190616047565b9150808061208590616556565b915050611ea1565b506120ba7fd813de67e1014984ab041841b9791c0d5cb8781f58098efc0dcca9a185c3419060001b61289a565b6120e67f0656605d91c766fe60421225941ec875f9e160fac3f0cae15fa74def9b13b3b560001b61289a565b821561214a576121187fbabfcc82c67084bd8f8f229a33369666273aabe114d48f3f0f7d579cd410109760001b61289a565b6121447fbcd70ffbfd17995f240d33dd050039536d5d2648e90a9cf913201a22d084122e60001b61289a565b5061218a565b6121767f6c3895133cfafd07b4edcc451fd908575b01c466110d57caf172493b3d5e646f60001b61289a565b50808061218290616556565b915050611d83565b506121b77f7aa3eb38cb9c2e061ff0eb05a4884ec03d7e4abba93d1eb6279c9d8370f2535760001b61289a565b6121e37f9667da46fddc31026724c9a0096e1add2f5cd6d8027fd6f0219180d9359552be60001b61289a565b80156122a9576122157f68c26993724999615acc6729409b81b7b97286d0081a805c611d3fc2b681356860001b61289a565b6122417ff2f94cc4a4a0647bce394bc32554ebda71c88f30d4ed4e180a3071675072199860001b61289a565b61226d7f0f655c45e131d81552fa36f79edc7a696c51d39adfd1a18afe20fed12a9ee3b960001b61289a565b7f7b0beeff91b466d396a030d3bc9aa08b615f761785566f170b4043050dd1c2138560405161229c9190615e6c565b60405180910390a1612365565b6122d57f3f07c94a16d1176bb9a4d6800edf90b3dc2db411e63a8a93c5ed06c5f493277860001b61289a565b6123017f1e6e59ded148d9c08294ba6f84df2fdcf87152bb5dc7c4f68e189cb47c903b2360001b61289a565b61232d7f069691fbe89b83f24d943408170cf8023a7cc925cd33561521149394035726a260001b61289a565b7f1e6cc6ff2f54231b997f8c278077738189580fa7f6a31138364482a185b78b178560405161235c9190615e6c565b60405180910390a15b6123917f0fb9394db1846ac12991f8309762fe85175faafdf71376bb00baf9cf5c04f25a60001b61289a565b6123bd7f72ca414f510299ab9509b4f70b53161418f8ac6ebd90f6926830b3a7680cf6a960001b61289a565b809350505050919050565b60046020528060005260406000206000915090508060000160009054906101000a900463ffffffff16908060000160049054906101000a900463ffffffff16908060000160089054906101000a900463ffffffff169080600001600c9054906101000a900463ffffffff16908060000160109054906101000a900463ffffffff16908060000160149054906101000a900463ffffffff16908060000160189054906101000a900463ffffffff169080600001601c9054906101000a900463ffffffff16905088565b600060029054906101000a900473ffffffffffffffffffffffffffffffffffffffff1681565b50565b60036020528060005260406000206000915054906101000a900460ff1681565b6125057f89395798b31da8af4071a28311e8b93b31f7f665ac492fecd2056fb3507e5b4d60001b61289a565b6125317ff72d0acbc8ec30926dbf0b4a367bfa1091bf535f9b1b9598cf569e34e21f4b7960001b61289a565b61255d7fd54ecfd1d049ba3208c233896dd28b0b62eb288753b6b931ac30738092011fbf60001b61289a565b600160009054906101000a900473ffffffffffffffffffffffffffffffffffffffff1673ffffffffffffffffffffffffffffffffffffffff166324f9e45f6125a36139e1565b6040518263ffffffff1660e01b81526004016125bf9190615cd5565b60006040518083038186803b1580156125d757600080fd5b505afa1580156125eb573d6000803e3d6000fd5b5050505061261b7f40b51a474ddfc8c5abc6905b65e5c1c7c25b18c75f5c00dc59cc5a09f7e363de60001b61289a565b6126477f1e109cd893426cfe91eb5b19b54a59d2972d7f1b59c30a5c88cdfd1949baf51b60001b61289a565b6126737f48840d9042d0634f1b2a93b6dd336196528cdabc16f79e6acfb07d7853e7a91e60001b61289a565b61269f7f0b7d5c8034467c62b04444ab72d891cd5bac5cafaa255d8bc9c6e5c61811b5e960001b61289a565b6126cb7f320f0fa2713288d86353210b716b68567194fd8f40263d398185c394c500185460001b61289a565b6000600560008363ffffffff1663ffffffff16815260200190815260200160002060009054906101000a900463ffffffff1663ffffffff1614612743576040517f08c379a000000000000000000000000000000000000000000000000000000000815260040161273a90615e4c565b60405180910390fd5b61276f7f1eaea729bc8540d61c020ee28cd13981919582b7869c1bf92070a54d321f5cb460001b61289a565b61279b7f4beee4ba5d69d19bdb3d4e2e9860f2e32ff1e3c10df59f40cb862d2d135b8e8760001b61289a565b6127c77f31fb41e5d3c80f792543f90902935251d187e5fcfacaa1045d8a30234d4518c660001b61289a565b6001600560008363ffffffff1663ffffffff16815260200190815260200160002060006101000a81548163ffffffff021916908363ffffffff1602179055506128327ff987c14b5c5427631b9c503f72e26ca2defe7319a3717b724c5ac2eee9be839160001b61289a565b61285e7f590d523bfc3d9e840e8e1de6896154d545a22ef68910f98add2139301e1fd9cc60001b61289a565b6001600660008363ffffffff1663ffffffff16815260200190815260200160002060006101000a81548160ff021916908360ff16021790555050565b50565b6128c97f0cf57ec73b55008c3eb782c83c1e946b1e1f8163e526cad0902a6f481cbee97d60001b61289a565b6128f47e18f3ddfdf7fcf3ef7bc8647e16c3ff6d79e31e028df9ff1a8c953e8f64db4b60001b61289a565b6129207fffafbbba35b8be141b0e59b9e9f869bc8c2f354fa0de411f4b7bd7bfd3b28ad860001b61289a565b600160009054906101000a900473ffffffffffffffffffffffffffffffffffffffff1673ffffffffffffffffffffffffffffffffffffffff16638097d4d66129666139e1565b6040518263ffffffff1660e01b81526004016129829190615cd5565b60006040518083038186803b15801561299a57600080fd5b505afa1580156129ae573d6000803e3d6000fd5b505050506129de7fcaa295811b9f1a1783e9da7fd657eafb4d1fe7485c410b77a55ad63bc7a370b060001b61289a565b612a0a7ff6f392c15c430f3ede89edba6c74c0fe5b021d6df66fd6a14efa084f36d83aab60001b61289a565b612a367f4cab6eff16439d3c40a23ce8f28247967c964f79933681c226873208611da7fd60001b61289a565b612a627fa748b774d89c193ef5872b3afe32b56ec2681a4168a811f907927195451c177a60001b61289a565b6000612a907f2241cb090e02969025ac51adc415f63a435d67dc9b70d07c1a8aceaedf80560060001b61289a565b612abc7faf1995f76bc8cc18830838b66b0e2721a2285dc5ee2dc58495deb5fe89af35b260001b61289a565b66016bcc41e9000085612acf9190616047565b81612ada9190615f80565b9050612b087f598f0147fbd4d9e7560dacc70a5597e126a27d07f41740c764516a61438eb43060001b61289a565b612b347fd5f764c2c831aa0aca7f866318e190f2d7c6238535802d14f6bfb618b29fed0a60001b61289a565b670de0b6b3a7640000600285612b4a9190616294565b612b549190616047565b81612b5f9190615f80565b9050612b8d7f06c02c009ec6b4965025e5e4de6bf0b01ce07debdb12b21d990bd97f256b6e1160001b61289a565b612bb97fc01279bee6da59f949b941988fd96c9ebddef3c443936184c18ca49b1dd3f36260001b61289a565b8167ffffffffffffffff1681612bcf9190615f80565b9050612bfc7e4ff29f1210901fc47a95f94143af820fb2f7ff0bcbede07752354c70eff84360001b61289a565b612c287fd6cb305ac531516689c165eacd7d24030c396eaa25e0c10cbbcf0273310789c160001b61289a565b600a83612c35919061632c565b67ffffffffffffffff1681612c4a9190615f80565b9050612c787fe893313bacb769083f68220172e8a3e261ecffe26d7a6b0f4496c1c37a40db5460001b61289a565b612ca47f67718af649a10d8998c92363b45ed477f891862b3c546d294f0aa2234ba9414860001b61289a565b6103e8811115612d9057612cda7f70de5eeb1b3a775df06cd18d2d2ecb2ff73b6d8b9102eae4b9262610a7ac2e4360001b61289a565b612d067ffc3a61f812cbfad89632050a2d133ec9300aba6425c377464c6e58abd64295b360001b61289a565b612d327f6b2dd2e9b726d19b9a602de4ac2ae5079310f45409627f05f2ce4d7ad4ae353d60001b61289a565b6004600360008873ffffffffffffffffffffffffffffffffffffffff1673ffffffffffffffffffffffffffffffffffffffff16815260200190815260200160002060006101000a81548160ff021916908360ff160217905550613188565b612dbc7f8a9555f7b87f458f9e0c1126ea24ac79c62c89930fb74a3b1c4c250599286a1660001b61289a565b612de87f23455f427a5e071a225a2411524a70c162ee1ad51522e3088b97a4efbcace7b460001b61289a565b60c8811115612ed257612e1d7f2b6cbdfcce90125bb56a4d67958eebef882257e30643788854a8d9b515dc322b60001b61289a565b612e497f996e6896e808a376ed60bc91ab31bf20246c07184465711eed8aa470844b16f260001b61289a565b612e757f2aa948be5977626a5d6103bc62128c8d8539389a0e3addd3199e1a4e64ae28e860001b61289a565b60038060008873ffffffffffffffffffffffffffffffffffffffff1673ffffffffffffffffffffffffffffffffffffffff16815260200190815260200160002060006101000a81548160ff021916908360ff160217905550613187565b612efe7faba70205560be660b1752f200a3889efc4840c7b43ecd53efcce0eff2047dccc60001b61289a565b612f2a7f700eee3be7f7711bba9e7d762626e52f2fea671ffb41cb47163fa41f82bbe6e260001b61289a565b603c81111561301557612f5f7fca27a80785897f7613b77270c0c9d9db2bc8944d7aecf8820642242819c09ab560001b61289a565b612f8b7f1cef8b462ecbf572b918ede2ae3655017f98d37cfc3719f6208e4a84c87a3ff660001b61289a565b612fb77f53ca1b77091c20ec125f827776304c052e760ccb7ef3cde130a6d550772bd13860001b61289a565b6002600360008873ffffffffffffffffffffffffffffffffffffffff1673ffffffffffffffffffffffffffffffffffffffff16815260200190815260200160002060006101000a81548160ff021916908360ff160217905550613186565b6130417f3007ac2852cc1a5202f454b5c704731a57f9ff7c6d48e93c83885d99ff107a6460001b61289a565b61306d7f0ef8f1fdb806bca0c0e43c9db6835f49c011b0da1fb20213cc3503306f85705560001b61289a565b601e811115613158576130a27f035476850a77473b16e1a168e28fc166e03abd3453d79c2f39df6dd27a19251960001b61289a565b6130ce7f53497e229d08ce53c14c193d444ef1f1154be27e754bd03fc1609b4a79332ffc60001b61289a565b6130fa7ff4b600732cd064e443dd29d586defa30447a42be86cec20a7e5ac0c34af1d7b360001b61289a565b6001600360008873ffffffffffffffffffffffffffffffffffffffff1673ffffffffffffffffffffffffffffffffffffffff16815260200190815260200160002060006101000a81548160ff021916908360ff160217905550613185565b6131847f8d08da6e45ef9a45ddf58bc213984b54461542e42839c9a19036397a2fff3c2c60001b61289a565b5b5b5b5b6131b47f1f5d11c82378060c54a0fd51b166f21b97f118f741016a63bcad03908f64054860001b61289a565b6131e07fd4f0f3f5dd3738056dc27037cff6cd1ea521fe95e5b80e6ae1a4430e3a33c7e860001b61289a565b7f426f6c5d2bfdd02fe91af51c3ff54726a2a647cda3b59cd29029d0e41adbad9386600360008973ffffffffffffffffffffffffffffffffffffffff1673ffffffffffffffffffffffffffffffffffffffff16815260200190815260200160002060009054906101000a900460ff1660405161325d929190615cf0565b60405180910390a1505050505050565b60056020528060005260406000206000915054906101000a900463ffffffff1681565b600060019054906101000a900460ff16806132b6575060008054906101000a900460ff16155b6132f5576040517f08c379a00000000000000000000000000000000000000000000000000000000081526004016132ec90615dec565b60405180910390fd5b60008060019054906101000a900460ff161590508015613345576001600060016101000a81548160ff02191690831515021790555060016000806101000a81548160ff0219169083151502179055505b6133717fea6dd35208ca5295c6eee69bfa773621d54837f2dda206e9ef72638ef559f5d260001b61289a565b61339d7f1009f7cffee5b338e1ed1702e63c39bfa5b5a3258e5a58f396838b0333c1973760001b61289a565b6133c97f0d7623efddd12c266efe54625d81fbceabbb89c9a13eef46fd087aa780818a2660001b61289a565b60008290506133fa7f8d01732ea0c72aee3634135fb07edb7f8522d92e2daaf80b0f53efee8393607e60001b61289a565b6134267fb034b94cff3d4c340f61e9a80c6a029d42b947da5a63252963eb007b081a2e5560001b61289a565b6134527fb80e871afb922250c4c5d5ea9cc19675b97f484d91ba5f5c2dfed31bae13787b60001b61289a565b8073ffffffffffffffffffffffffffffffffffffffff1663ba84fd696040518163ffffffff1660e01b815260040160206040518083038186803b15801561349857600080fd5b505afa1580156134ac573d6000803e3d6000fd5b505050506040513d601f19601f820116820180604052508101906134d09190615925565b6134d957600080fd5b6135057f53e6f4968a0a1ac1c42b258a16952ac140a1f2f128d188d8063a245bcf700e8160001b61289a565b6135317f8d2c911905cfc864665b7bde331b703beed2a03164e03a7c579fd0b2049c5a7660001b61289a565b61355d7f9065a212471bcb23f8c135673838221d5516129839adcdb24b702b5d4624ea4160001b61289a565b6001600060166101000a81548160ff0219169083151502179055506135a47f3a779d8ae62fd92d7e1bc16e3414c7fbe3cecfef0b69dbaad7c05bb4911fc14460001b61289a565b6135d07f12abf14c244a50c3be61c44a4031da247610d933db10d90a7e3b61db4d65af0960001b61289a565b80600160006101000a81548173ffffffffffffffffffffffffffffffffffffffff021916908373ffffffffffffffffffffffffffffffffffffffff1602179055505080156136335760008060016101000a81548160ff0219169083151502179055505b5050565b600160009054906101000a900473ffffffffffffffffffffffffffffffffffffffff1681565b6136897ffd51bd35c2acc01c75cad85a1ec84eaf512e198361cb0f4bb2c85606b0ff706060001b61289a565b6136b57f7935ad9c1971d64fcbc668e3b2cbede04ba2bc427e295bbcbde184b7546ba4ee60001b61289a565b6136e17fbe947384078f7b4bea5d4c3a5194fba3734c91488cc7fa148b4091b0364dbee760001b61289a565b600160009054906101000a900473ffffffffffffffffffffffffffffffffffffffff1673ffffffffffffffffffffffffffffffffffffffff16638413ec146137276139e1565b6040518263ffffffff1660e01b81526004016137439190615cd5565b60006040518083038186803b15801561375b57600080fd5b505afa15801561376f573d6000803e3d6000fd5b5050505061379f7f6cdad768c5ab3fce7a9445f10bfc3df34176e829532eda6818ca29ff521b19e560001b61289a565b806137cc7f25ae9a5d4d5918d580b6f618edfba537e77175a26cf4a292f723f4d45be8abd060001b61289a565b6137f87fbbb1c76d1b8c6dd032033168ac888fe02817dfe296f302cfe15e1da2c1b08e9f60001b61289a565b6138247f8b28ff43aeda83ffeedbc021f8319161ed8230d74339b608a156f81fd616b73360001b61289a565b6138507fe2bb2b9769442dedd5dcaaaeabccb3892c2cab2f81763117401bd7d6ce8056ec60001b61289a565b600073ffffffffffffffffffffffffffffffffffffffff168173ffffffffffffffffffffffffffffffffffffffff1614156138c0576040517f08c379a00000000000000000000000000000000000000000000000000000000081526004016138b790615dcc565b60405180910390fd5b6138ec7f635c6ede1429ae8d304b72440705fcc4efc27c2ff8d59b381d17fcec165b506e60001b61289a565b6139187f656bac6fe07c765d358ffc60578d713961c4169e5f9c26cfbdb9e7ccc8bebbab60001b61289a565b6139447fb6a1aa05a719c7511ca30f032d76a91c8f488f29a2cfe075c31a58b6832dbaf160001b61289a565b6139707f5830e036f517aeb71ba36a6c7a287c1bf60cec61755311c4276b2adfe8ebd0d160001b61289a565b61399c7fcb3c7613e5c2f9e616960f74f21a532a4b51232e24b03297f64558db065ed54260001b61289a565b81600060026101000a81548173ffffffffffffffffffffffffffffffffffffffff021916908373ffffffffffffffffffffffffffffffffffffffff1602179055505050565b600060146000369050101580156139fd57506139fc336117f2565b5b15613a1157601436033560601c9050613a19565b339050613a1a565b5b90565b6000613a4b7f153227ab091885140e12bbb6f6fbb6f82c83cbaa68c51d723229ba205c11fead60001b61289a565b613a777fca2e0a68c491f6b8b7122bc0cf1a498e1fd0e9dd4368d4976afd780f4f55d0e360001b61289a565b613aa37f7cef59c87651beb4b53d04eae2f5f7ca61ba57806ededdd422879925844f0ee960001b61289a565b60006001836002613ab49190616192565b613abe91906163a2565b9050613aec7f1c5d1596596fb9b8ce2c2557c9e34951f932cfeaf9452c6a5ff32933fbfae8c860001b61289a565b613b187f6a0f76e1240d1a1f655f4e61716e26e1df90c90779a80a7a5d850a735aaa6d7f60001b61289a565b80841691505092915050565b6000613b527f059a62115e5c92aba7a780f213b5285d6041d8fec9e19087fb63393dad32196960001b61289a565b613b7e7ff84685b576406a4a4a44ee06c0d484726914022e6fc8854038d66b5a8027570460001b61289a565b613baa7fce17724cc616bc917e87acebe30e728fec93b716685e00a892a11ef5fc61d21960001b61289a565b60006001836002613bbb91906160fc565b613bc5919061636e565b84169050613bf57f28a1487fbdeb568481e57790dad3c884d24e54dc97a9360023e05d3906b3daa660001b61289a565b613c217f792c340620dbb330e827841494b434b29bb5b787763de0e51884e3959093aa6a60001b61289a565b613c2a81614aa0565b91505092915050565b6000613c617f5bda0f32ae9a349181ee3678fe083b6cd2617d6fd34895069f38530b0564a23860001b61289a565b613c8d7fe3abd015f0c58bd7fa48d64d3b9703816cb5c9f3d321f818fa5a7961ac570eb660001b61289a565b613cb97fb9a32674f9f183a408181cc7d8bde59caae76db4fc1d8061c5475361205fa2eb60001b61289a565b60006040518060c00160405280600660ff168152602001600360ff168152602001600460ff168152602001600460ff168152602001600360ff168152602001600860ff168152509050613d2e7f4a98427e92845e8f1bb7854d923439ee103b7e5f474781b30f8ac818bab60d0460001b61289a565b613d5a7f36677df79153855a523ac2c1d330c0d34934b5533ee0093bab6e7393e2a6ac1860001b61289a565b6000600667ffffffffffffffff811115613d7757613d7661669b565b5b604051908082528060200260200182016040528015613da55781602001602082028036833780820191505090505b509050613dd47fe70a341ed1a05dacb8c745fe11705577cd146ae199462aeec83d910d350a03a260001b61289a565b613e007feaf64811d5b293e60c1d326c9d4adb6272fbd564daccc3ddff0d47999e75be5d60001b61289a565b60005b60068163ffffffff161015613f6657613e3e7f2b53c331ed42581dd858487a59be9899c4685ebdbdc2b93638374f7aff4a23a960001b61289a565b613e6a7f783a670eb38f61bd50bb90c4e6b23f9f36b37901d481c00fab6cfc6ef136130260001b61289a565b613e9185848363ffffffff1660068110613e8757613e8661666c565b5b6020020151613a1d565b828263ffffffff1681518110613eaa57613ea961666c565b5b602002602001019063ffffffff16908163ffffffff1681525050613ef07fe9f363f82e63c89e2717dd7e51e93a1024a3369759d4e340d11c0e872f1fa83160001b61289a565b613f1c7fe917c296fbce0c49dd65eef0364dec0b23ca438a72bcee0918f6b548a5ee313860001b61289a565b828163ffffffff1660068110613f3557613f3461666c565b5b60200201516002613f469190616192565b85613f519190616078565b94508080613f5e9061659f565b915050613e03565b50613f937fe6aa068f1d4abd3edab6f474c26ce6168bbe26f068f3f6924ddfc303794a3e0d60001b61289a565b613fbf7f40eacdcc1874c1c3e7044435245e4bc19c2bb88ffd35a2b32b1a655376714e2a60001b61289a565b60648511156140a657613ff47ffebc0d42a42acf0429cc09062c8b745566586309e44727a5616291536254e28d60001b61289a565b6140207f773056431bf58a779b30bb620f971076369895cec2e880a882cb7734a6a52b8e60001b61289a565b61404c7f9bb5fe5713e17ed699f9af99a7bf04d177ec11242f3b08daa54cc219f447943060001b61289a565b614073866000836005815181106140665761406561666c565b5b6020026020010151614af3565b816005815181106140875761408661666c565b5b602002602001019063ffffffff16908163ffffffff16815250506142bf565b6140d27f66d468112caec23c7c5c41aa51b1a1a06a640674ed55ebffc182c38842d316b560001b61289a565b6140fe7f89bc91acfbaabe3db460a02ab053946f1d6ea70d4fbdeab2e3b425da13bd871260001b61289a565b60328511156141e4576141327ec780cf682c681a8124349c5a4c38aed5e5c7adc6ed5af56a41529af50bbac360001b61289a565b61415e7f5372715616cb38579cf50a97c4e43549905da7401a32f7c71fd57eb20389360760001b61289a565b61418a7f36863ed916ff3429762f8beb00e73318150885cf3894dc0bd27071d46b01063660001b61289a565b6141b1866002836005815181106141a4576141a361666c565b5b6020026020010151614af3565b816005815181106141c5576141c461666c565b5b602002602001019063ffffffff16908163ffffffff16815250506142be565b6142107ffbb86c3c2825019c1ab7f3914c80ff0e6c8baf568e3c4049900135c1e9f4a41260001b61289a565b61423c7f2cde9c56a81c9d13867a005cd466ccb2d0ddb264a31756723dfd4677d8fc23cb60001b61289a565b6142687ffb451f34b1c33d8032f67ee76038f3b5b3720cd2a65265d4f05c98d2bfd9708c60001b61289a565b61428f866003836005815181106142825761428161666c565b5b6020026020010151614af3565b816005815181106142a3576142a261666c565b5b602002602001019063ffffffff16908163ffffffff16815250505b5b6142eb7f33be4e2c4aaaf94442732123055acf0a89154e4946f4d8c425111b0afdddf64060001b61289a565b6143177ff9726cc687f7b0ffee5787c00a01ae079c38a1fe37ae49a97a0741f3ab8942e860001b61289a565b600062100000826005815181106143315761433061666c565b5b602002602001015161434391906162ee565b620200008360048151811061435b5761435a61666c565b5b602002602001015161436d91906162ee565b612000846003815181106143845761438361666c565b5b602002602001015161439691906162ee565b610200856002815181106143ad576143ac61666c565b5b60200260200101516143bf91906162ee565b6040866001815181106143d5576143d461666c565b5b60200260200101516143e791906162ee565b866000815181106143fb576143fa61666c565b5b602002602001015161440d9190615fd6565b6144179190615fd6565b6144219190615fd6565b61442b9190615fd6565b6144359190615fd6565b90506144637f74cba3f9258383db85eddf7f0dcb32a050fa895810243178f25461f102f4ac9260001b61289a565b61448f7f3a8a583baa8b53a23db3971ec347937727deee7ce1cef70839df213632a492cc60001b61289a565b6000600560008363ffffffff1663ffffffff16815260200190815260200160002060009054906101000a900463ffffffff1663ffffffff161415614958576144f97fd5eb2ea24ed28c1b250618c25bf4cf442e5f47103a9fa0b6d18d7d370854fddb60001b61289a565b6145257f393dab5fa9cf33c7223c15ff9c064c5899e942e9a0d1c02cfe3e2a285f32928860001b61289a565b6145517f5f5f8f5e46d53bca1fabe9150c16094b2a7153cbc4318a56e7dd08b8c05640ef60001b61289a565b6001600560008363ffffffff1663ffffffff16815260200190815260200160002060006101000a81548163ffffffff021916908363ffffffff1602179055506145bc7f13af9166647c843940bf28f0c2544c43fd30f823b6b39d25f2b4c1b358a453c160001b61289a565b6145e87f79f6e28baca51a9f8114df69b40104affff18edc1f76c297348871727115bc7460001b61289a565b604051806101000160405280836000815181106146085761460761666c565b5b602002602001015163ffffffff1681526020018360018151811061462f5761462e61666c565b5b602002602001015163ffffffff168152602001836002815181106146565761465561666c565b5b602002602001015163ffffffff1681526020018360038151811061467d5761467c61666c565b5b602002602001015163ffffffff168152602001836004815181106146a4576146a361666c565b5b602002602001015163ffffffff168152602001836005815181106146cb576146ca61666c565b5b602002602001015163ffffffff1681526020018263ffffffff168152602001600163ffffffff168152506004600088815260200190815260200160002060008201518160000160006101000a81548163ffffffff021916908363ffffffff16021790555060208201518160000160046101000a81548163ffffffff021916908363ffffffff16021790555060408201518160000160086101000a81548163ffffffff021916908363ffffffff160217905550606082015181600001600c6101000a81548163ffffffff021916908363ffffffff16021790555060808201518160000160106101000a81548163ffffffff021916908363ffffffff16021790555060a08201518160000160146101000a81548163ffffffff021916908363ffffffff16021790555060c08201518160000160186101000a81548163ffffffff021916908363ffffffff16021790555060e082015181600001601c6101000a81548163ffffffff021916908363ffffffff16021790555090505061486f7f52b20fc8cebbe71bb9bc2808e6678bd7bd0ce662d87f8ef50b29000f585244dd60001b61289a565b61489b7ff1c8c221ae5edf3e33153fb4e7121248779eb6eec1e9a67dd04a6b34d50fb2d460001b61289a565b6000600360008973ffffffffffffffffffffffffffffffffffffffff1673ffffffffffffffffffffffffffffffffffffffff16815260200190815260200160002060006101000a81548160ff021916908360ff1602179055506149207fcdeed400560d646b7831efbeaa1911467995e4c2e0103648c6e746295098a6ab60001b61289a565b61494c7f12ae209f5c144417de0915847ee6541032d05597851682c79cee9c276367fa6360001b61289a565b60019350505050614a99565b6149847f44ff0ba763afa008dd7b0d6e82ec511adb4376527c8141f49dbb2cb3dbb4a06760001b61289a565b6149b07f848700f5cbd0df2c8c2353b92dc22107e87b9e805e841cb31a6d2d644f4b75cf60001b61289a565b6149dc7fc119a64e939410a7119d752b3d28f62190118e5ea2ed79e8f13411ba209d557d60001b61289a565b6001600560008363ffffffff1663ffffffff16815260200190815260200160002060008282829054906101000a900463ffffffff16614a1b9190615fd6565b92506101000a81548163ffffffff021916908363ffffffff160217905550614a657f8ecf56c614502428fa43fd93cdaa95ec852b4f3d0aa784610a217ee2ce10757560001b61289a565b614a917f23efcf9306c0596889372f5855a57057688917aaed300a38c5c24ab14f42912660001b61289a565b600093505050505b9392505050565b600063ffffffff8016821115614aeb576040517f08c379a0000000000000000000000000000000000000000000000000000000008152600401614ae290615e2c565b60405180910390fd5b819050919050565b6000614b217f8300f08d5a6acf807d66a5df08b03ae994741d9f2a4687f7e8ca9155eb7bebac60001b61289a565b614b4d7fcf44e8dc9feaab9b93ba7a52c566ece9b0bf299ffe89999c6585ad8510d2870060001b61289a565b614b797fbf492cdc4b4a482e5e84f7c8cd9c31a3bdd0cb3d32fe283467a5801b0264939960001b61289a565b6000604051806102000160405280603261ffff168152602001606461ffff168152602001609661ffff16815260200160c861ffff16815260200160d261ffff16815260200160dc61ffff16815260200160e661ffff16815260200160eb61ffff16815260200160f061ffff16815260200160f561ffff16815260200160f861ffff16815260200160fb61ffff16815260200160fd61ffff16815260200160fe61ffff16815260200160ff61ffff16815260200161010061ffff168152509050614c647f67d1d05751c152d9d40fa34b2886baf2b785da243739f1648202833a7433c2f660001b61289a565b614c907fe7fd0e33f17822892c3103303715f2457046a3350873a087292bf244f5e8279660001b61289a565b6000604051806102000160405280602a61ffff168152602001605461ffff168152602001607e61ffff16815260200160a861ffff16815260200160b561ffff16815260200160c261ffff16815260200160cf61ffff16815260200160d861ffff16815260200160e161ffff16815260200160ea61ffff16815260200160f061ffff16815260200160f661ffff16815260200160fa61ffff16815260200160fc61ffff16815260200160fe61ffff16815260200161010061ffff168152509050614d7b7fd1d1ed11e1eedd35273a0c22345590d130042ed3d8cacbae8acbfe5b61fad22260001b61289a565b614da77fa9c6b499c9379d2f683e79527215159c81e5e7199b510eabaccccbcb3d10f41260001b61289a565b6000604051806102000160405280602861ffff168152602001605061ffff168152602001607861ffff16815260200160a061ffff16815260200160ad61ffff16815260200160ba61ffff16815260200160c761ffff16815260200160d061ffff16815260200160d961ffff16815260200160e261ffff16815260200160e961ffff16815260200160f061ffff16815260200160f461ffff16815260200160f861ffff16815260200160fc61ffff16815260200161010061ffff168152509050614e927f931291b494975d27e5a026e153400b20736174bb9d49f4eaac45b3b1e57dbb6260001b61289a565b614ebe7f1a15c9320bf41dc2096431766e8227027c5cd06f4ab4bd46dc026dc8f7e3140360001b61289a565b6000604051806102000160405280602061ffff168152602001604061ffff168152602001605f61ffff168152602001607e61ffff168152602001608d61ffff168152602001609c61ffff16815260200160ab61ffff16815260200160b761ffff16815260200160c361ffff16815260200160cf61ffff16815260200160d961ffff16815260200160e361ffff16815260200160eb61ffff16815260200160f261ffff16815260200160f961ffff16815260200161010061ffff168152509050614fa97f2ecaf6e800f58e94f0788ef371188f05ce3a50eb233b119e6200239e7e73456160001b61289a565b614fd57f37884224602689fe7d72bad3221e209872dc93669149b410ca0c6d25d63601f260001b61289a565b6000604051806102000160405280601961ffff168152602001603261ffff168152602001604b61ffff168152602001606461ffff168152602001607361ffff168152602001608261ffff168152602001609161ffff168152602001609c61ffff16815260200160a761ffff16815260200160b261ffff16815260200160bc61ffff16815260200160c661ffff16815260200160d661ffff16815260200160e461ffff16815260200160f261ffff16815260200161010061ffff1681525090506150c07f8001a5028a63cb34526f21ea0902105314a39251b0fdbda82bbadfef6e5c10f560001b61289a565b6150ec7f652d058ec99d13d656ca4d329770527c508ea227ecbaff2c291b92b22d1e9cda60001b61289a565b6150f46157c7565b6151207f37b2dfeab7f7932a35c7fefe6602ba368b127b81232f4ab13adfe6d3090a3d0660001b61289a565b61514c7f302bc463c4510092df0cf03902830ed5df9dc629ef75bda6d481bc190a6de56a60001b61289a565b600089600360008d73ffffffffffffffffffffffffffffffffffffffff1673ffffffffffffffffffffffffffffffffffffffff16815260200190815260200160002060009054906101000a900460ff166151a69190616010565b90506151d47ff93b128361aebbde1abe97df9a637edcb0eb724d8dbcef8312cd313b40181f2160001b61289a565b6152007fb1cb73acd45bf683feb6fc9b02c89cf09b5c098ea636a6257da4fb8fae02139560001b61289a565b60008160ff161415615298576152387fe887fa88c85b40c7cd38e4b8390405c52b7eae70123bb0c40742e7e882aa170660001b61289a565b6152647f594f56bcee47a5336da21a1090d47643a5b6a38ec2abf8e272692967c3bc1ba160001b61289a565b6152907f68ad2a2818d2151056e282a5717d7961fff7e4f01c7f1fc318466255351c0a3560001b61289a565b8691506155f3565b6152c47f41f2dfae2708a739be7079eca53cd07f0c26c863d6ac3ee828956960ae250d9460001b61289a565b6152f07fd8efb4f093bb4ee5b0e62e3b5a6541b111bb624b78a260469236df9ef40a41ff60001b61289a565b60018160ff161415615388576153287faf262c7b526ac6bcec58c03035bf088574ed108d887e6b97c79bdee250534e8560001b61289a565b6153547feb233ebcd1af104d7d8cd19c07af88076f6d7bef367b8cc0f37ef93e1432ab2f60001b61289a565b6153807f1a77bda2e1c9c2e3b433c8ee9c7a4b8a953af28d04dc18d765d7ecd7c352f48c60001b61289a565b8591506155f2565b6153b47f48d3baeaca9c1db60421978e12bb72f289766dc48438ab293a5f709dff12d7be60001b61289a565b6153e07fdc16311c17e62be66c197716a0c250c7af9492a8e49076731e9b4e94d2cf139d60001b61289a565b60028160ff161415615478576154187f2ebfba8087246931d2a91738dd087f24e7dead07a7b898abceca4cf91b98841360001b61289a565b6154447f2a9ba0e3b865463fdfe09d9944a1aa66c6c22949cf9f69554ad856cbe308ee4560001b61289a565b6154707fdeca336e6e5e0a66d5289f1ee45ca42a034612046f21c603491dc2467889060c60001b61289a565b8491506155f1565b6154a47f8ecc51c0d105730bed4ae21d01b39c488c34a97f66ff1dbbc12f8765de8c77a660001b61289a565b6154d07fcaa37489b738a8fd78a7934bde824f60fbf96068b36640521c4500efea9d25db60001b61289a565b60038160ff161415615568576155087f383131f73e94bcf19ff97f03df2ab51435112d17903c800329a77c21adff818f60001b61289a565b6155347f016fe5f86aae272300b8f13842b6d9cde77bd3a9361331638a08144d91f5041e60001b61289a565b6155607fe46a691941569085a32a0f1a500c1031c89209faaf7a625b13237c4682ff69da60001b61289a565b8391506155f0565b6155947faf4d03020167b8aebb3eb3bf4aaed5b23a89cf9f8edbf50e31708f73f131751360001b61289a565b6155c07f2912f3de780922cfc3bfe3c3171299688f12e5bd368062b7b1f43dad0ef162c560001b61289a565b6155ec7f61e6e4cf7eec7e73ef86021cb4edebd7f9128a6f2a0ad679f68a17ed44cf656360001b61289a565b8291505b5b5b5b61561f7f7b19498a54a7089e06b0b72884e4fa82a97bb652cc937e44b77c17ceb88599db60001b61289a565b61564b7fd5f415243d974059c10f95fcf5f156c5a2bdd5d8d790663b28298a8d7cd1149b60001b61289a565b60005b60108163ffffffff1610156157b7576156897f4c8afde75714eb142b62275a3198cf80ed717b4aa004cd9657bd78fc349c34cd60001b61289a565b6156b57f76d28cc4591b4ad18d6c3938b8381c2e7823afe1f4d990ca942a6ab4e355796460001b61289a565b828163ffffffff16601081106156ce576156cd61666c565b5b602002015161ffff168a63ffffffff161015615778576157107fbb8e37e8c2beffbeb8dc6510ee0d5a5b2752127a5fe7b198b6d06705b69a548c60001b61289a565b61573c7f16fdab772ed1dc02bb23776354ab315f5c8e4ac85e63fed7f3ba4219a56bf18860001b61289a565b6157687fd8217bfc5f4de5507d152fc5fcf2c065d7540929cf1d305dc4f9ae5db6ae9d5560001b61289a565b80985050505050505050506157c0565b6157a47f26659ace1fd434dc31136ba266e900170e8a2ffea3d81914812c6ef99ffc823b60001b61289a565b80806157af9061659f565b91505061564e565b50505050505050505b9392505050565b604051806102000160405280601090602082028036833780820191505090505090565b6000813590506157f981616865565b92915050565b60008151905061580e8161687c565b92915050565b60008135905061582381616893565b92915050565b60008151905061583881616893565b92915050565b60008135905061584d816168aa565b92915050565b600081359050615862816168c1565b92915050565b600081359050615877816168d8565b92915050565b600060208284031215615893576158926166ca565b5b60006158a1848285016157ea565b91505092915050565b600080600080600060a086880312156158c6576158c56166ca565b5b60006158d4888289016157ea565b95505060206158e58882890161583e565b94505060406158f68882890161583e565b935050606061590788828901615868565b925050608061591888828901615868565b9150509295509295909350565b60006020828403121561593b5761593a6166ca565b5b6000615949848285016157ff565b91505092915050565b60008060408385031215615969576159686166ca565b5b6000615977858286016157ff565b925050602061598885828601615829565b9150509250929050565b6000602082840312156159a8576159a76166ca565b5b60006159b684828501615814565b91505092915050565b6000602082840312156159d5576159d46166ca565b5b60006159e38482850161583e565b91505092915050565b60008060408385031215615a0357615a026166ca565b5b6000615a118582860161583e565b9250506020615a2285828601615853565b9150509250929050565b600060208284031215615a4257615a416166ca565b5b6000615a5084828501615853565b91505092915050565b615a62816164a5565b82525050565b615a79615a74826163e8565b6165cc565b82525050565b615a88816163d6565b82525050565b615a97816163fa565b82525050565b615aae615aa982616406565b6165de565b82525050565b615ac5615ac082616410565b6165e8565b82525050565b615ad4816164b7565b82525050565b615ae3816164db565b82525050565b6000615af482615f64565b615afe8185615f6f565b9350615b0e818560208601616523565b615b17816166cf565b840191505092915050565b6000615b2f601e83615f6f565b9150615b3a826166fa565b602082019050919050565b6000615b52602083615f6f565b9150615b5d82616723565b602082019050919050565b6000615b75600f83615f6f565b9150615b808261674c565b602082019050919050565b6000615b98602e83615f6f565b9150615ba382616775565b604082019050919050565b6000615bbb601a83615f6f565b9150615bc6826167c4565b602082019050919050565b6000615bde602683615f6f565b9150615be9826167ed565b604082019050919050565b6000615c01601d83615f6f565b9150615c0c8261683c565b602082019050919050565b615c208161646a565b82525050565b615c37615c328261646a565b616604565b82525050565b615c4681616474565b82525050565b615c5581616498565b82525050565b6000615c678288615a68565b601482019150615c778287615a9d565b602082019150615c878286615ab4565b600482019150615c978285615c26565b602082019150615ca78284615c26565b6020820191508190509695505050505050565b6000602082019050615ccf6000830184615a7f565b92915050565b6000602082019050615cea6000830184615a59565b92915050565b6000604082019050615d056000830185615a7f565b615d126020830184615c4c565b9392505050565b6000602082019050615d2e6000830184615a8e565b92915050565b6000602082019050615d496000830184615acb565b92915050565b6000602082019050615d646000830184615ada565b92915050565b60006020820190508181036000830152615d848184615ae9565b905092915050565b60006020820190508181036000830152615da581615b22565b9050919050565b60006020820190508181036000830152615dc581615b45565b9050919050565b60006020820190508181036000830152615de581615b68565b9050919050565b60006020820190508181036000830152615e0581615b8b565b9050919050565b60006020820190508181036000830152615e2581615bae565b9050919050565b60006020820190508181036000830152615e4581615bd1565b9050919050565b60006020820190508181036000830152615e6581615bf4565b9050919050565b6000602082019050615e816000830184615c17565b92915050565b6000604082019050615e9c6000830185615c17565b615ea96020830184615a59565b9392505050565b6000602082019050615ec56000830184615c3d565b92915050565b600061010082019050615ee1600083018b615c3d565b615eee602083018a615c3d565b615efb6040830189615c3d565b615f086060830188615c3d565b615f156080830187615c3d565b615f2260a0830186615c3d565b615f2f60c0830185615c3d565b615f3c60e0830184615c3d565b9998505050505050505050565b6000602082019050615f5e6000830184615c4c565b92915050565b600081519050919050565b600082825260208201905092915050565b6000615f8b8261646a565b9150615f968361646a565b9250827fffffffffffffffffffffffffffffffffffffffffffffffffffffffffffffffff03821115615fcb57615fca61660e565b5b828201905092915050565b6000615fe182616474565b9150615fec83616474565b92508263ffffffff038211156160055761600461660e565b5b828201905092915050565b600061601b82616498565b915061602683616498565b92508260ff0382111561603c5761603b61660e565b5b828201905092915050565b60006160528261646a565b915061605d8361646a565b92508261606d5761606c61663d565b5b828204905092915050565b600061608382616474565b915061608e83616474565b92508261609e5761609d61663d565b5b828204905092915050565b6000808291508390505b60018511156160f3578086048111156160cf576160ce61660e565b5b60018516156160de5780820291505b80810290506160ec856166ed565b94506160b3565b94509492505050565b60006161078261646a565b91506161128361643c565b925061613f7fffffffffffffffffffffffffffffffffffffffffffffffffffffffffffffffff84846161c1565b905092915050565b60006161528261646a565b915061615d83616498565b925061618a7fffffffffffffffffffffffffffffffffffffffffffffffffffffffffffffffff84846161c1565b905092915050565b600061619d82616474565b91506161a883616498565b92506161b963ffffffff84846161c1565b905092915050565b6000826161d1576001905061628d565b816161df576000905061628d565b81600181146161f557600281146161ff5761622e565b600191505061628d565b60ff8411156162115761621061660e565b5b8360020a9150848211156162285761622761660e565b5b5061628d565b5060208310610133831016604e8410600b84101617156162635782820a90508381111561625e5761625d61660e565b5b61628d565b61627084848460016160a9565b925090508184048111156162875761628661660e565b5b81810290505b9392505050565b600061629f8261646a565b91506162aa8361646a565b9250817fffffffffffffffffffffffffffffffffffffffffffffffffffffffffffffffff04831182151516156162e3576162e261660e565b5b828202905092915050565b60006162f982616474565b915061630483616474565b92508163ffffffff04831182151516156163215761632061660e565b5b828202905092915050565b600061633782616484565b915061634283616484565b92508167ffffffffffffffff04831182151516156163635761636261660e565b5b828202905092915050565b60006163798261646a565b91506163848361646a565b9250828210156163975761639661660e565b5b828203905092915050565b60006163ad82616474565b91506163b883616474565b9250828210156163cb576163ca61660e565b5b828203905092915050565b60006163e18261644a565b9050919050565b60006163f38261644a565b9050919050565b60008115159050919050565b6000819050919050565b60007fffffffff0000000000000000000000000000000000000000000000000000000082169050919050565b600061ffff82169050919050565b600073ffffffffffffffffffffffffffffffffffffffff82169050919050565b6000819050919050565b600063ffffffff82169050919050565b600067ffffffffffffffff82169050919050565b600060ff82169050919050565b60006164b0826164ff565b9050919050565b60006164c2826164c9565b9050919050565b60006164d48261644a565b9050919050565b60006164e6826164ed565b9050919050565b60006164f88261644a565b9050919050565b600061650a82616511565b9050919050565b600061651c8261644a565b9050919050565b60005b83811015616541578082015181840152602081019050616526565b83811115616550576000848401525b50505050565b60006165618261646a565b91507fffffffffffffffffffffffffffffffffffffffffffffffffffffffffffffffff8214156165945761659361660e565b5b600182019050919050565b60006165aa82616474565b915063ffffffff8214156165c1576165c061660e565b5b600182019050919050565b60006165d7826165f2565b9050919050565b6000819050919050565b6000819050919050565b60006165fd826166e0565b9050919050565b6000819050919050565b7f4e487b7100000000000000000000000000000000000000000000000000000000600052601160045260246000fd5b7f4e487b7100000000000000000000000000000000000000000000000000000000600052601260045260246000fd5b7f4e487b7100000000000000000000000000000000000000000000000000000000600052603260045260246000fd5b7f4e487b7100000000000000000000000000000000000000000000000000000000600052604160045260246000fd5b600080fd5b6000601f19601f8301169050919050565b60008160601b9050919050565b60008160011c9050919050565b7f7472656520617474726962757465732061726520736574206265666f72650000600082015250565b7f74686520747265652061747472696275746573206e6f74207265736572766564600082015250565b7f696e76616c696420616464726573730000000000000000000000000000000000600082015250565b7f496e697469616c697a61626c653a20636f6e747261637420697320616c72656160008201527f647920696e697469616c697a6564000000000000000000000000000000000000602082015250565b7f6e6f206e65656420746f20747265652061747472696275746573000000000000600082015250565b7f53616665436173743a2076616c756520646f65736e27742066697420696e203360008201527f3220626974730000000000000000000000000000000000000000000000000000602082015250565b7f74686520747265652061747472696275746573206172652074616b656e000000600082015250565b61686e816163d6565b811461687957600080fd5b50565b616885816163fa565b811461689057600080fd5b50565b61689c81616406565b81146168a757600080fd5b50565b6168b38161646a565b81146168be57600080fd5b50565b6168ca81616474565b81146168d557600080fd5b50565b6168e181616484565b81146168ec57600080fd5b5056fea264697066735822122065cd322bbf554601fb3c8a18549666ade5df0ce56fbaa96cb0ecd35051615d3d64736f6c63430008060033",
  "immutableReferences": {},
  "source": "// // SPDX-License-Identifier: MIT\n\npragma solidity ^0.8.6;\nimport \"./../../tree/TreeAttribute.sol\";\n\ncontract TestTreeAttributes is TreeAttribute {\n    function test(uint256 treeId) external {\n        treeAttributes[treeId].exists = 0;\n    }\n}\n",
  "sourcePath": "/home/smuggler/contract/.coverage_contracts/external/testContract/TestTreeAttributes.sol",
  "compiler": {
    "name": "solc",
    "version": "0.8.6+commit.11564f7e.Emscripten.clang"
  },
  "schemaVersion": "3.4.1",
  "updatedAt": "2021-08-31T13:33:31.294Z",
  "devdoc": {
    "kind": "dev",
    "methods": {
      "createTreeAttributes(uint256)": {
        "details": "generate a 256 bits random number as a base for tree attributes and slice it in 28 bits parts",
        "params": {
          "treeId": "id of tree"
        },
        "returns": {
          "_0": "if unique tree attribute generated successfully"
        }
      },
      "freeReserveTreeAttributes(uint32)": {
        "details": "free reservation of a unique symbol",
        "params": {
          "generatedCode": "unique symbol to reserve"
        }
      },
      "initialize(address)": {
        "details": "initialize accessRestriction contract and set true for isTreeAttribute",
        "params": {
          "_accessRestrictionAddress": "set to the address of accessRestriction contract"
        }
      },
      "reserveTreeAttributes(uint32)": {
        "details": "reserve a unique symbol",
        "params": {
          "generatedCode": "unique symbol to reserve"
        }
      },
      "setBuyerRank(address,uint256,uint256,uint64,uint64)": {
        "details": "the function Tries to Calculate the rank of buyer based on transaction statistics of his/her wallet",
        "params": {
          "buyer": "address of buyer",
          "treejerSpent": "weth amount spent in treejer",
          "treesOwned": "number of trees owned",
          "walletSpent": "weth amount spent from wallet",
          "walletSpentCount": "number of spents transactions from wallet"
        }
      },
      "setTreeAttributesByAdmin(uint256,uint32)": {
        "details": "admin assigns symbol to specified treeId",
        "params": {
          "generatedCode": "unique symbol code to assign",
          "treeId": "id of tree"
        }
      },
      "setTreeFactoryAddress(address)": {
        "details": "admin set TreeFactoryAddress",
        "params": {
          "_address": "set to the address of treeFactory"
        }
      },
      "setTrustedForwarder(address)": {
        "details": "set trusted forwarder address",
        "params": {
          "_address": "set to {trustedForwarder}"
        }
      },
      "versionRecipient()": {
        "details": "return version recipient "
      }
    },
    "version": 1
  },
  "userdoc": {
    "kind": "user",
    "methods": {
      "generatedAttributes(uint32)": {
        "notice": "NOTE mapping from unique symbol id to number of generations "
      },
      "isTrustedForwarder(address)": {
        "notice": "return if the forwarder is trusted to forward relayed transactions to us. the forwarder is required to verify the sender's signature, and verify the call is not a replay."
      },
      "rankOf(address)": {
        "notice": "NOTE maping from buyer address to his/her rank "
      },
      "reservedAttributes(uint32)": {
        "notice": "NOTE mapping from unique symbol to reserved status "
      },
      "treeAttributes(uint256)": {
        "notice": "NOTE mapping from treeId to tree attributes "
      }
    },
    "version": 1
  }
}