{
  "contractName": "TreeAttribute",
  "abi": [
    {
      "anonymous": false,
      "inputs": [
        {
          "indexed": false,
          "internalType": "address",
          "name": "buyer",
          "type": "address"
        },
        {
          "indexed": false,
          "internalType": "uint8",
          "name": "rank",
          "type": "uint8"
        }
      ],
      "name": "BuyerRankSet",
      "type": "event"
    },
    {
      "anonymous": false,
      "inputs": [
        {
          "indexed": false,
          "internalType": "uint256",
          "name": "treeId",
          "type": "uint256"
        }
      ],
      "name": "TreeAttributesGenerated",
      "type": "event"
    },
    {
      "anonymous": false,
      "inputs": [
        {
          "indexed": false,
          "internalType": "uint256",
          "name": "treeId",
          "type": "uint256"
        }
      ],
      "name": "TreeAttributesNotGenerated",
      "type": "event"
    },
    {
      "inputs": [],
      "name": "accessRestriction",
      "outputs": [
        {
          "internalType": "contract IAccessRestriction",
          "name": "",
          "type": "address"
        }
      ],
      "stateMutability": "view",
      "type": "function"
    },
    {
      "inputs": [
        {
          "internalType": "bytes32",
          "name": "c__0x07853504",
          "type": "bytes32"
        }
      ],
      "name": "c_0x07853504",
      "outputs": [],
      "stateMutability": "pure",
      "type": "function"
    },
    {
      "inputs": [
        {
          "internalType": "uint32",
          "name": "",
          "type": "uint32"
        }
      ],
      "name": "generatedAttributes",
      "outputs": [
        {
          "internalType": "uint32",
          "name": "",
          "type": "uint32"
        }
      ],
      "stateMutability": "view",
      "type": "function"
    },
    {
      "inputs": [],
      "name": "isTreeAttribute",
      "outputs": [
        {
          "internalType": "bool",
          "name": "",
          "type": "bool"
        }
      ],
      "stateMutability": "view",
      "type": "function"
    },
    {
      "inputs": [
        {
          "internalType": "address",
          "name": "forwarder",
          "type": "address"
        }
      ],
      "name": "isTrustedForwarder",
      "outputs": [
        {
          "internalType": "bool",
          "name": "",
          "type": "bool"
        }
      ],
      "stateMutability": "view",
      "type": "function"
    },
    {
      "inputs": [
        {
          "internalType": "address",
          "name": "",
          "type": "address"
        }
      ],
      "name": "rankOf",
      "outputs": [
        {
          "internalType": "uint8",
          "name": "",
          "type": "uint8"
        }
      ],
      "stateMutability": "view",
      "type": "function"
    },
    {
      "inputs": [
        {
          "internalType": "uint32",
          "name": "",
          "type": "uint32"
        }
      ],
      "name": "reservedAttributes",
      "outputs": [
        {
          "internalType": "uint8",
          "name": "",
          "type": "uint8"
        }
      ],
      "stateMutability": "view",
      "type": "function"
    },
    {
      "inputs": [
        {
          "internalType": "uint256",
          "name": "",
          "type": "uint256"
        }
      ],
      "name": "treeAttributes",
      "outputs": [
        {
          "internalType": "uint32",
          "name": "treeType",
          "type": "uint32"
        },
        {
          "internalType": "uint32",
          "name": "groundType",
          "type": "uint32"
        },
        {
          "internalType": "uint32",
          "name": "trunkColor",
          "type": "uint32"
        },
        {
          "internalType": "uint32",
          "name": "crownColor",
          "type": "uint32"
        },
        {
          "internalType": "uint32",
          "name": "groundColor",
          "type": "uint32"
        },
        {
          "internalType": "uint32",
          "name": "specialEffects",
          "type": "uint32"
        },
        {
          "internalType": "uint32",
          "name": "universalCode",
          "type": "uint32"
        },
        {
          "internalType": "uint32",
          "name": "exists",
          "type": "uint32"
        }
      ],
      "stateMutability": "view",
      "type": "function"
    },
    {
      "inputs": [],
      "name": "treeFactory",
      "outputs": [
        {
          "internalType": "contract ITreeFactory",
          "name": "",
          "type": "address"
        }
      ],
      "stateMutability": "view",
      "type": "function"
    },
    {
      "inputs": [],
      "name": "trustedForwarder",
      "outputs": [
        {
          "internalType": "address",
          "name": "",
          "type": "address"
        }
      ],
      "stateMutability": "view",
      "type": "function"
    },
    {
      "inputs": [],
      "name": "versionRecipient",
      "outputs": [
        {
          "internalType": "string",
          "name": "",
          "type": "string"
        }
      ],
      "stateMutability": "pure",
      "type": "function"
    },
    {
      "inputs": [
        {
          "internalType": "bytes32",
          "name": "c__0x8f48945a",
          "type": "bytes32"
        }
      ],
      "name": "c_0x8f48945a",
      "outputs": [],
      "stateMutability": "pure",
      "type": "function"
    },
    {
      "inputs": [
        {
          "internalType": "address",
          "name": "_accessRestrictionAddress",
          "type": "address"
        }
      ],
      "name": "initialize",
      "outputs": [],
      "stateMutability": "nonpayable",
      "type": "function"
    },
    {
      "inputs": [
        {
          "internalType": "address",
          "name": "_address",
          "type": "address"
        }
      ],
      "name": "setTrustedForwarder",
      "outputs": [],
      "stateMutability": "nonpayable",
      "type": "function"
    },
    {
      "inputs": [
        {
          "internalType": "address",
          "name": "_address",
          "type": "address"
        }
      ],
      "name": "setTreeFactoryAddress",
      "outputs": [],
      "stateMutability": "nonpayable",
      "type": "function"
    },
    {
      "inputs": [
        {
          "internalType": "uint32",
          "name": "generatedCode",
          "type": "uint32"
        }
      ],
      "name": "reserveTreeAttributes",
      "outputs": [],
      "stateMutability": "nonpayable",
      "type": "function"
    },
    {
      "inputs": [
        {
          "internalType": "uint32",
          "name": "generatedCode",
          "type": "uint32"
        }
      ],
      "name": "freeReserveTreeAttributes",
      "outputs": [],
      "stateMutability": "nonpayable",
      "type": "function"
    },
    {
      "inputs": [
        {
          "internalType": "uint256",
          "name": "treeId",
          "type": "uint256"
        },
        {
          "internalType": "uint32",
          "name": "generatedCode",
          "type": "uint32"
        }
      ],
      "name": "setTreeAttributesByAdmin",
      "outputs": [],
      "stateMutability": "nonpayable",
      "type": "function"
    },
    {
      "inputs": [
        {
          "internalType": "uint256",
          "name": "treeId",
          "type": "uint256"
        }
      ],
      "name": "createTreeAttributes",
      "outputs": [
        {
          "internalType": "bool",
          "name": "",
          "type": "bool"
        }
      ],
      "stateMutability": "nonpayable",
      "type": "function"
    },
    {
      "inputs": [
        {
          "internalType": "address",
          "name": "buyer",
          "type": "address"
        },
        {
          "internalType": "uint256",
          "name": "treejerSpent",
          "type": "uint256"
        },
        {
          "internalType": "uint256",
          "name": "walletSpent",
          "type": "uint256"
        },
        {
          "internalType": "uint64",
          "name": "treesOwned",
          "type": "uint64"
        },
        {
          "internalType": "uint64",
          "name": "walletSpentCount",
          "type": "uint64"
        }
      ],
      "name": "setBuyerRank",
      "outputs": [],
      "stateMutability": "nonpayable",
      "type": "function"
    }
  ],
  "bytecode": "0x608060405234801561001057600080fd5b506168c580620000216000396000f3fe608060405234801561001057600080fd5b506004361061012c5760003560e01c80637da0a877116100ad578063ac689ec311610071578063ac689ec314610348578063b55c0a8314610364578063c4d66de814610394578063d6762c4a146103b0578063da742228146103ce5761012c565b80637da0a877146102a65780638576e4be146102c4578063874c1daf146102e057806389e2af18146103105780639aaa21201461032c5761012c565b806346efcdc1116100f457806346efcdc1146101d3578063486ff0cd146101f1578063572b6c051461020f57806377522cc91461023f578063786354a61461026f5761012c565b80630bf351f814610131578063297692531461014d5780632a4ddf6d14610169578063421ef6d414610185578063448e5d2b146101a3575b600080fd5b61014b6004803603810190610146919061581d565b6103ea565b005b610167600480360381019061016291906159cc565b610789565b005b610183600480360381019061017e919061598c565b610b44565b005b61018d611678565b60405161019a9190615cef565b60405180910390f35b6101bd60048036038101906101b891906159cc565b61169e565b6040516101ca9190615ee9565b60405180910390f35b6101db6116be565b6040516101e89190615cb9565b60405180910390f35b6101f96116d1565b6040516102069190615d0a565b60405180910390f35b6102296004803603810190610224919061581d565b611792565b6040516102369190615cb9565b60405180910390f35b6102596004803603810190610254919061595f565b6117eb565b6040516102669190615cb9565b60405180910390f35b6102896004803603810190610284919061595f565b612368565b60405161029d989796959493929190615e6b565b60405180910390f35b6102ae612430565b6040516102bb9190615c5a565b60405180910390f35b6102de60048036038101906102d99190615932565b612456565b005b6102fa60048036038101906102f5919061581d565b612459565b6040516103079190615ee9565b60405180910390f35b61032a600480360381019061032591906159cc565b612479565b005b61034660048036038101906103419190615932565b61283a565b005b610362600480360381019061035d919061584a565b61283d565b005b61037e600480360381019061037991906159cc565b61320d565b60405161038b9190615e50565b60405180910390f35b6103ae60048036038101906103a9919061581d565b613230565b005b6103b86135d7565b6040516103c59190615cd4565b60405180910390f35b6103e860048036038101906103e3919061581d565b6135fd565b005b6104167ffd51bd35c2acc01c75cad85a1ec84eaf512e198361cb0f4bb2c85606b0ff706060001b61283a565b6104427f7935ad9c1971d64fcbc668e3b2cbede04ba2bc427e295bbcbde184b7546ba4ee60001b61283a565b61046e7fbe947384078f7b4bea5d4c3a5194fba3734c91488cc7fa148b4091b0364dbee760001b61283a565b600160009054906101000a900473ffffffffffffffffffffffffffffffffffffffff1673ffffffffffffffffffffffffffffffffffffffff16638413ec146104b4613981565b6040518263ffffffff1660e01b81526004016104d09190615c75565b60006040518083038186803b1580156104e857600080fd5b505afa1580156104fc573d6000803e3d6000fd5b5050505061052c7f6cdad768c5ab3fce7a9445f10bfc3df34176e829532eda6818ca29ff521b19e560001b61283a565b6105587fe91d03fc1354d606996fbafff49dce9c8e74a5bb3d9ce706ab4345b93ec97baf60001b61283a565b6105847fd5ecb66e0682f8752f2524624c46da2cad729b0e4afa7ab1cc117b4dfad3221f60001b61283a565b6105b07f281a6ca52b180837242367eabd5308d85fd19c6e2f926b3591ca3037abc85c9b60001b61283a565b60008190506105e17fbc4bd4a31c857e9d28688a3718014823bd010e3aaf9b47cdb0cc938c97928fac60001b61283a565b61060d7ff6ced79edf26e6eacdc4c1e8c2c98ff0385a1b33ca70114d087bd5a70aa8b5f860001b61283a565b6106397fa99f62b18278c2181d1f00eef21f933f5d0c6422c995663c418e9b4fc803be1860001b61283a565b8073ffffffffffffffffffffffffffffffffffffffff1663e0eb4eb96040518163ffffffff1660e01b815260040160206040518083038186803b15801561067f57600080fd5b505afa158015610693573d6000803e3d6000fd5b505050506040513d601f19601f820116820180604052508101906106b791906158c5565b6106c057600080fd5b6106ec7f62998c71abc2565b6fa66e64925ff3362c0590a1570e93a39c967e4736eb85e560001b61283a565b6107187ff5f07188d4bd503fdcc487f702caf15a5c94db5b712c256b2517345b593d457960001b61283a565b6107447f5504d5309beea9e2b0b3b3d4a087fc3b72fbf605dee319734293592e9b264eb760001b61283a565b80600260006101000a81548173ffffffffffffffffffffffffffffffffffffffff021916908373ffffffffffffffffffffffffffffffffffffffff1602179055505050565b6107b57f89395798b31da8af4071a28311e8b93b31f7f665ac492fecd2056fb3507e5b4d60001b61283a565b6107e17ff72d0acbc8ec30926dbf0b4a367bfa1091bf535f9b1b9598cf569e34e21f4b7960001b61283a565b61080d7fd54ecfd1d049ba3208c233896dd28b0b62eb288753b6b931ac30738092011fbf60001b61283a565b600160009054906101000a900473ffffffffffffffffffffffffffffffffffffffff1673ffffffffffffffffffffffffffffffffffffffff166324f9e45f610853613981565b6040518263ffffffff1660e01b815260040161086f9190615c75565b60006040518083038186803b15801561088757600080fd5b505afa15801561089b573d6000803e3d6000fd5b505050506108cb7f40b51a474ddfc8c5abc6905b65e5c1c7c25b18c75f5c00dc59cc5a09f7e363de60001b61283a565b6108f77f02ac3c7e5f09aa38023c87af6bfa7c561512305379a8e17abca0b5be23ee4c8d60001b61283a565b6109237ff030894da6704c32be9613e0d6f9142478e602ed3de372755206dccbb84f8e7160001b61283a565b61094f7fc52c29cb4080b51a476a7bf157d9062e2a3b0631d5707f6815405f8ff2c4269d60001b61283a565b61097b7f5bf37cb95462a7fc3f50b4c3832050486fbb989f4ce1f751472b4e941bad427960001b61283a565b6001600660008363ffffffff1663ffffffff16815260200190815260200160002060009054906101000a900460ff1660ff16146109ed576040517f08c379a00000000000000000000000000000000000000000000000000000000081526004016109e490615d4c565b60405180910390fd5b610a197f2ff017ea5dabfd0827492cfe748989166e7e77f1099edeebe52209ace7c51dfe60001b61283a565b610a457fc86af19730d8ff63199a2b4bbd2d674bff1dcb2d63c6fb5d68c978219de3a60160001b61283a565b610a717f256899fd8f04f45b21ab23d4b0f721225d0dc0687738291718f6dbc92bb49f1f60001b61283a565b6000600560008363ffffffff1663ffffffff16815260200190815260200160002060006101000a81548163ffffffff021916908363ffffffff160217905550610adc7fceba7dc7134dce5dc948f329d112c62b71b69a088285f7c21d553d5434ead2b260001b61283a565b610b087f0f2752b17f870b8f0d4365f993652962a859238fdd6c86f2936a43b5f111891260001b61283a565b6000600660008363ffffffff1663ffffffff16815260200190815260200160002060006101000a81548160ff021916908360ff16021790555050565b610b707f89395798b31da8af4071a28311e8b93b31f7f665ac492fecd2056fb3507e5b4d60001b61283a565b610b9c7ff72d0acbc8ec30926dbf0b4a367bfa1091bf535f9b1b9598cf569e34e21f4b7960001b61283a565b610bc87fd54ecfd1d049ba3208c233896dd28b0b62eb288753b6b931ac30738092011fbf60001b61283a565b600160009054906101000a900473ffffffffffffffffffffffffffffffffffffffff1673ffffffffffffffffffffffffffffffffffffffff166324f9e45f610c0e613981565b6040518263ffffffff1660e01b8152600401610c2a9190615c75565b60006040518083038186803b158015610c4257600080fd5b505afa158015610c56573d6000803e3d6000fd5b50505050610c867f40b51a474ddfc8c5abc6905b65e5c1c7c25b18c75f5c00dc59cc5a09f7e363de60001b61283a565b610cb27f7c4947b870eb2d1d7a41ca10f5fde312485d04ed3000a60fe710f6f64a34a05060001b61283a565b610cde7f7ac49a8250b80c635d2953c23061436b711056e375404a7f7abf630397a6d10360001b61283a565b610d0a7f547c9311998136c95a7224a86be29697bfada50a066c573ec4a700a96be9725b60001b61283a565b610d367f32b60e1bdb8e855eff2f268a79aac278314ae54a436b37f53a3fde32f48b470060001b61283a565b6000600560008363ffffffff1663ffffffff16815260200190815260200160002060009054906101000a900463ffffffff1663ffffffff161480610da957506001600660008363ffffffff1663ffffffff16815260200190815260200160002060009054906101000a900460ff1660ff16145b610de8576040517f08c379a0000000000000000000000000000000000000000000000000000000008152600401610ddf90615dec565b60405180910390fd5b610e147f3e7e01452bf686ec8ae1c9fb7f3575f3b2418c2238d216e01b8e3992cf8ba7d760001b61283a565b610e407fdc8c86b98b7872cae09e7628742c21029c50c1b6bd36c875aae32c938d7f954060001b61283a565b610e6c7fde27bdaeffa9c2a212dc5c19af4555cb7e8439504d87dea0667af94ff5dce5a460001b61283a565b610e987f5891998416e9c2a34b34612754ab83d8464d415d786cb8b20e068e432a3ee8df60001b61283a565b60006004600084815260200190815260200160002060000160189054906101000a900463ffffffff1663ffffffff1614610f07576040517f08c379a0000000000000000000000000000000000000000000000000000000008152600401610efe90615d2c565b60405180910390fd5b610f337fef9e8ee19ec5eace855e843a9bc62bf4eba55d5aba07f7a6f1965b4d8111480060001b61283a565b610f5f7f5d7db6057e1d9cd22b6262c11bcdc7ffaa730b153e1a1197e0fe5cf5b6ef0bdd60001b61283a565b610f8b7fadcc2d5f4ae1dcc28d27d1f333dd57bba864d1cd4df9db399cb70b70612581c760001b61283a565b6001600560008363ffffffff1663ffffffff16815260200190815260200160002060006101000a81548163ffffffff021916908363ffffffff160217905550610ff67f9a875570f441e6366d97cd23b973affafa38444ae0600b9286a490ca118f065c60001b61283a565b6110227f3020cb89e5e8dc58afa0d6c89a37a9612cb128f9575f89ed0eba90052f154f6860001b61283a565b6000600660008363ffffffff1663ffffffff16815260200190815260200160002060006101000a81548160ff021916908360ff1602179055506110877f5f3b56db3e4bf26d38a337d17fda29de30bb8787bd730033b857e8e721c1225760001b61283a565b6110b37ffd74df01b04e10fae1747009b9dc2ba88493cab2539521b37c4f0e84dbd318d560001b61283a565b60006040518060c00160405280600660ff168152602001600360ff168152602001600460ff168152602001600460ff168152602001600360ff168152602001600460ff1681525090506111287f120bc8fafdd0e95ed9d7239722ba66496df14b381c2275b738f8db5bdebad5b060001b61283a565b6111547f0fdf332cac94a411b5f267d6e8c6bff13b300aeb51ae5c4f126751d1d8b4522660001b61283a565b6000600667ffffffffffffffff8111156111715761117061663b565b5b60405190808252806020026020018201604052801561119f5781602001602082028036833780820191505090505b5090506111ce7f0e33e0621fa664f4bda97d1a2de8cd7ac2739a3d2c1218c3cc02eca476ee71b560001b61283a565b6111fa7fc246c1a47e7b99f0f87c02b1a5f952022ff9838419a4f3a44f46155c8b5be3e860001b61283a565b600083905061122b7f76d0b1ac3c1add7166f81d78a66cc4223923edf3d7a240a35619e83a61e8cc1960001b61283a565b6112577f18fbb9eff1a6c4b0d926639f8f880dcc6138de337b62b5dd2637fcad04000ccf60001b61283a565b60005b60068163ffffffff1610156113bd576112957f17e71d955b219a93b609e6a0dbe6f4b1582b2074a6fcbe2ee7d55cfa2d5576e660001b61283a565b6112c17f059dc47bb104d30f41dad445a4f828e6294451985015219e00fe59a651dca51960001b61283a565b6112e882858363ffffffff16600681106112de576112dd61660c565b5b60200201516139bd565b838263ffffffff16815181106113015761130061660c565b5b602002602001019063ffffffff16908163ffffffff16815250506113477f1e26d1203f4f745bd1e25b3d5205927d4731c8f814a90c822e5d7f432762a27260001b61283a565b6113737f3cfcf2db342654b4036b397c1bafd2004f5a6dc95d3a2e8fdd4b70a85e9d856f60001b61283a565b838163ffffffff166006811061138c5761138b61660c565b5b6020020151600261139d9190616132565b826113a89190616018565b915080806113b59061653f565b91505061125a565b506113ea7f9b6a6fd3151051f1417b4bd18a802e5f1ae7dbb5f6060ad9c4fea26f7cbfbf8460001b61283a565b6114167fa9d2899e1793f1be95ee4880da1b6b5eccab3c48cd64df0e8f8e2402f12a388d60001b61283a565b604051806101000160405280836000815181106114365761143561660c565b5b602002602001015163ffffffff1681526020018360018151811061145d5761145c61660c565b5b602002602001015163ffffffff168152602001836002815181106114845761148361660c565b5b602002602001015163ffffffff168152602001836003815181106114ab576114aa61660c565b5b602002602001015163ffffffff168152602001836004815181106114d2576114d161660c565b5b602002602001015163ffffffff168152602001836005815181106114f9576114f861660c565b5b602002602001015163ffffffff1681526020018563ffffffff168152602001600163ffffffff168152506004600087815260200190815260200160002060008201518160000160006101000a81548163ffffffff021916908363ffffffff16021790555060208201518160000160046101000a81548163ffffffff021916908363ffffffff16021790555060408201518160000160086101000a81548163ffffffff021916908363ffffffff160217905550606082015181600001600c6101000a81548163ffffffff021916908363ffffffff16021790555060808201518160000160106101000a81548163ffffffff021916908363ffffffff16021790555060a08201518160000160146101000a81548163ffffffff021916908363ffffffff16021790555060c08201518160000160186101000a81548163ffffffff021916908363ffffffff16021790555060e082015181600001601c6101000a81548163ffffffff021916908363ffffffff1602179055509050505050505050565b600260009054906101000a900473ffffffffffffffffffffffffffffffffffffffff1681565b60066020528060005260406000206000915054906101000a900460ff1681565b600060169054906101000a900460ff1681565b60606116ff7f11dd98d6809ebd8463693ae2b3f048590b2cbe0b5871346e00a0b4c3c541174a60001b612456565b61172b7f8ba796393678d90e1644972b2432ed6c109dbd204df8ff14546d9632bbedffc560001b612456565b6117577f5759cbc9a7bcad7b45c102beff6e42b49f3a61f90ec5bc06dbe3a1747ad6d10d60001b612456565b6040518060400160405280601d81526020017f322e322e302b747265656a65722e6972656c6179726563697069656e74000000815250905090565b60008060029054906101000a900473ffffffffffffffffffffffffffffffffffffffff1673ffffffffffffffffffffffffffffffffffffffff168273ffffffffffffffffffffffffffffffffffffffff16149050919050565b60006118197f831fe4478e03bf7fbf58b8036e6e538a34e77fd1da1f73ce31b72ccfe8af764060001b61283a565b6118457f5a30c71d8d93ca9ba669d945141074ef6be56defb3e77ed41d65af46f01c504c60001b61283a565b6118717fbcaed83b9b9cd95f92811367929b9d55b580dcd7cf0779a5ed13ad77c64f320d60001b61283a565b600160009054906101000a900473ffffffffffffffffffffffffffffffffffffffff1673ffffffffffffffffffffffffffffffffffffffff16634d868f986040518163ffffffff1660e01b815260040160006040518083038186803b1580156118d957600080fd5b505afa1580156118ed573d6000803e3d6000fd5b5050505061191d7f8a2d8da5c23c294769f4369e9818afbb78aca09c843942c5abd82406d5bde00760001b61283a565b6119497fb7856e27cc38914f4372c976f012c22f86cdc9ef87f56870acb45039cb439f9f60001b61283a565b6119757fec309290a874e5d7e48372ee37259ea48d074daeef71d5c390c7a94426a763b760001b61283a565b6119a17f3165caba52d1d6e1585d881f561f4d042f19c20d118f364febfb7e29ec89b39a60001b61283a565b6119cd7fa903c3e76d8df737dc143af18da5678b4f266db785c169a069b4580ea55a5fc860001b61283a565b600060046000848152602001908152602001600020600001601c9054906101000a900463ffffffff1663ffffffff1614611a3c576040517f08c379a0000000000000000000000000000000000000000000000000000000008152600401611a3390615d2c565b60405180910390fd5b611a687fea065a5e18b4d7241d4a65d3d665e4c804da519ca3f0d32ca9db92182f969dc760001b61283a565b611a947f3bcaa1284456a55aee9521ddd00eeb6eb063a2b46e68bde7c2bc53a9fb2042b560001b61283a565b611ac07f444b1859b1cafb011af99fa1a53a9adabf772a61e82dfeba0c2af866a3e1241660001b61283a565b600080600260009054906101000a900473ffffffffffffffffffffffffffffffffffffffff1673ffffffffffffffffffffffffffffffffffffffff16639a27ccfa85611b0a613981565b6040518363ffffffff1660e01b8152600401611b27929190615e27565b604080518083038186803b158015611b3e57600080fd5b505afa158015611b52573d6000803e3d6000fd5b505050506040513d601f19601f82011682018060405250810190611b7691906158f2565b91509150611ba67f7424c52e645eb104b0a8da26ecacaa8df12e4aac72c7bda26a7a4a13d88d145060001b61283a565b611bd27f8c78950feaaf5789b5f7b4e76f549295af06ec1fc6524ac918095067022184e260001b61283a565b611bfe7f20cbcccb6ab1c4c5abadd3ad50d6f7f53aa0b4e4cb2f92d073224d93ef8d071e60001b61283a565b81611c3e576040517f08c379a0000000000000000000000000000000000000000000000000000000008152600401611c3590615dac565b60405180910390fd5b611c6a7f5b08d1b86c300951229ec26321264eab53223bbe34e054ccb72ccd0995a11d5660001b61283a565b611c967fbd7ba7c3a572b9d6da85d657254940857c1fadde702e561033701ecbfd0a815960001b61283a565b611cc27fafb134bca2e21ae508fa230dbbd889c788be0e610d4a928acdb159fc893c69fa60001b61283a565b600060019050611cf47f8ec50ecf10bcfdda349fe73e1de30af3ea7932c6f82bb9c5e4f44d298598389c60001b61283a565b611d207f0c720d557760666bb7fc4d6f119dc1ca44b2661c8a22607e29601bd69bb825f960001b61283a565b60005b61271081101561212a57611d597f843ae4c7bc52174f85d799b693339cdcf7306f7e367d1d4fcf0881017c7ea68f60001b61283a565b611d857f6ecbb1877ac138507e698c4bac99e04d68568d50e4779ec4219dc938dbe14d4360001b61283a565b6000611d8f613981565b846000357fffffffff00000000000000000000000000000000000000000000000000000000168985604051602001611dcb959493929190615bfb565b6040516020818303038152906040528051906020012060001c9050611e127fda883c4717da6f2c1395ace2b361e7d8fcfea83816eb1c7183f08fb778c19e1460001b61283a565b611e3e7f0900e511999dd075b457e06ae26501760d39325810c7b4fb451bb40191aed75860001b61283a565b60005b600981101561202d57611e767fb2177fb2c077d41f90c086834236f47b50985c1384c265bb4e87d4611fdb6aad60001b61283a565b611ea27fa016faa5420862818e1409096eaa579578c7b7eab17a932ea46e5e78b473721760001b61283a565b611ebe611ead613981565b89611eb985601c613ac4565b613bd3565b9350611eec7fe09722b0a9c18e8c7123d4a9087e7fb14464ab988a7a4676a7df89a3eaa3cf4760001b61283a565b611f187fa63def21b566cc0ed23279aa8c32ca6f16544db8a2577cd9661ef696d0567dd660001b61283a565b8315611f7b57611f4a7fd91b1444b5835d2e5da4fcf4eaf042ace31228e53553f5167e6cb5d4c74b856b60001b61283a565b611f767f20eb0437f4f8976ced16693fe4a989bab0482c6d1a2857d6cc8a716a90731f0f60001b61283a565b61202d565b611fa77fe621a5711ac00a0cf1522a6bfcec90a4b6a18e46e171d59ac1e70abf254df55b60001b61283a565b611fd37faa84d6bf0ea5e073e887fa915dafedd112a7d41f46b830bdf996093f1999988860001b61283a565b611fff7f0837193280ed35165652c7bb38ee884ff42fbbe4135f4be595c8c298fd08215c60001b61283a565b601c600261200d91906160e7565b826120189190615fe7565b91508080612025906164f6565b915050611e41565b5061205a7fd813de67e1014984ab041841b9791c0d5cb8781f58098efc0dcca9a185c3419060001b61283a565b6120867f0656605d91c766fe60421225941ec875f9e160fac3f0cae15fa74def9b13b3b560001b61283a565b82156120ea576120b87fbabfcc82c67084bd8f8f229a33369666273aabe114d48f3f0f7d579cd410109760001b61283a565b6120e47fbcd70ffbfd17995f240d33dd050039536d5d2648e90a9cf913201a22d084122e60001b61283a565b5061212a565b6121167f6c3895133cfafd07b4edcc451fd908575b01c466110d57caf172493b3d5e646f60001b61283a565b508080612122906164f6565b915050611d23565b506121577f7aa3eb38cb9c2e061ff0eb05a4884ec03d7e4abba93d1eb6279c9d8370f2535760001b61283a565b6121837f9667da46fddc31026724c9a0096e1add2f5cd6d8027fd6f0219180d9359552be60001b61283a565b8015612249576121b57f68c26993724999615acc6729409b81b7b97286d0081a805c611d3fc2b681356860001b61283a565b6121e17ff2f94cc4a4a0647bce394bc32554ebda71c88f30d4ed4e180a3071675072199860001b61283a565b61220d7f0f655c45e131d81552fa36f79edc7a696c51d39adfd1a18afe20fed12a9ee3b960001b61283a565b7f7b0beeff91b466d396a030d3bc9aa08b615f761785566f170b4043050dd1c2138560405161223c9190615e0c565b60405180910390a1612305565b6122757f3f07c94a16d1176bb9a4d6800edf90b3dc2db411e63a8a93c5ed06c5f493277860001b61283a565b6122a17f1e6e59ded148d9c08294ba6f84df2fdcf87152bb5dc7c4f68e189cb47c903b2360001b61283a565b6122cd7f069691fbe89b83f24d943408170cf8023a7cc925cd33561521149394035726a260001b61283a565b7f1e6cc6ff2f54231b997f8c278077738189580fa7f6a31138364482a185b78b17856040516122fc9190615e0c565b60405180910390a15b6123317f0fb9394db1846ac12991f8309762fe85175faafdf71376bb00baf9cf5c04f25a60001b61283a565b61235d7f72ca414f510299ab9509b4f70b53161418f8ac6ebd90f6926830b3a7680cf6a960001b61283a565b809350505050919050565b60046020528060005260406000206000915090508060000160009054906101000a900463ffffffff16908060000160049054906101000a900463ffffffff16908060000160089054906101000a900463ffffffff169080600001600c9054906101000a900463ffffffff16908060000160109054906101000a900463ffffffff16908060000160149054906101000a900463ffffffff16908060000160189054906101000a900463ffffffff169080600001601c9054906101000a900463ffffffff16905088565b600060029054906101000a900473ffffffffffffffffffffffffffffffffffffffff1681565b50565b60036020528060005260406000206000915054906101000a900460ff1681565b6124a57f89395798b31da8af4071a28311e8b93b31f7f665ac492fecd2056fb3507e5b4d60001b61283a565b6124d17ff72d0acbc8ec30926dbf0b4a367bfa1091bf535f9b1b9598cf569e34e21f4b7960001b61283a565b6124fd7fd54ecfd1d049ba3208c233896dd28b0b62eb288753b6b931ac30738092011fbf60001b61283a565b600160009054906101000a900473ffffffffffffffffffffffffffffffffffffffff1673ffffffffffffffffffffffffffffffffffffffff166324f9e45f612543613981565b6040518263ffffffff1660e01b815260040161255f9190615c75565b60006040518083038186803b15801561257757600080fd5b505afa15801561258b573d6000803e3d6000fd5b505050506125bb7f40b51a474ddfc8c5abc6905b65e5c1c7c25b18c75f5c00dc59cc5a09f7e363de60001b61283a565b6125e77f1e109cd893426cfe91eb5b19b54a59d2972d7f1b59c30a5c88cdfd1949baf51b60001b61283a565b6126137f48840d9042d0634f1b2a93b6dd336196528cdabc16f79e6acfb07d7853e7a91e60001b61283a565b61263f7f0b7d5c8034467c62b04444ab72d891cd5bac5cafaa255d8bc9c6e5c61811b5e960001b61283a565b61266b7f320f0fa2713288d86353210b716b68567194fd8f40263d398185c394c500185460001b61283a565b6000600560008363ffffffff1663ffffffff16815260200190815260200160002060009054906101000a900463ffffffff1663ffffffff16146126e3576040517f08c379a00000000000000000000000000000000000000000000000000000000081526004016126da90615dec565b60405180910390fd5b61270f7f1eaea729bc8540d61c020ee28cd13981919582b7869c1bf92070a54d321f5cb460001b61283a565b61273b7f4beee4ba5d69d19bdb3d4e2e9860f2e32ff1e3c10df59f40cb862d2d135b8e8760001b61283a565b6127677f31fb41e5d3c80f792543f90902935251d187e5fcfacaa1045d8a30234d4518c660001b61283a565b6001600560008363ffffffff1663ffffffff16815260200190815260200160002060006101000a81548163ffffffff021916908363ffffffff1602179055506127d27ff987c14b5c5427631b9c503f72e26ca2defe7319a3717b724c5ac2eee9be839160001b61283a565b6127fe7f590d523bfc3d9e840e8e1de6896154d545a22ef68910f98add2139301e1fd9cc60001b61283a565b6001600660008363ffffffff1663ffffffff16815260200190815260200160002060006101000a81548160ff021916908360ff16021790555050565b50565b6128697f0cf57ec73b55008c3eb782c83c1e946b1e1f8163e526cad0902a6f481cbee97d60001b61283a565b6128947e18f3ddfdf7fcf3ef7bc8647e16c3ff6d79e31e028df9ff1a8c953e8f64db4b60001b61283a565b6128c07fffafbbba35b8be141b0e59b9e9f869bc8c2f354fa0de411f4b7bd7bfd3b28ad860001b61283a565b600160009054906101000a900473ffffffffffffffffffffffffffffffffffffffff1673ffffffffffffffffffffffffffffffffffffffff16638097d4d6612906613981565b6040518263ffffffff1660e01b81526004016129229190615c75565b60006040518083038186803b15801561293a57600080fd5b505afa15801561294e573d6000803e3d6000fd5b5050505061297e7fcaa295811b9f1a1783e9da7fd657eafb4d1fe7485c410b77a55ad63bc7a370b060001b61283a565b6129aa7ff6f392c15c430f3ede89edba6c74c0fe5b021d6df66fd6a14efa084f36d83aab60001b61283a565b6129d67f4cab6eff16439d3c40a23ce8f28247967c964f79933681c226873208611da7fd60001b61283a565b612a027fa748b774d89c193ef5872b3afe32b56ec2681a4168a811f907927195451c177a60001b61283a565b6000612a307f2241cb090e02969025ac51adc415f63a435d67dc9b70d07c1a8aceaedf80560060001b61283a565b612a5c7faf1995f76bc8cc18830838b66b0e2721a2285dc5ee2dc58495deb5fe89af35b260001b61283a565b66016bcc41e9000085612a6f9190615fe7565b81612a7a9190615f20565b9050612aa87f598f0147fbd4d9e7560dacc70a5597e126a27d07f41740c764516a61438eb43060001b61283a565b612ad47fd5f764c2c831aa0aca7f866318e190f2d7c6238535802d14f6bfb618b29fed0a60001b61283a565b670de0b6b3a7640000600285612aea9190616234565b612af49190615fe7565b81612aff9190615f20565b9050612b2d7f06c02c009ec6b4965025e5e4de6bf0b01ce07debdb12b21d990bd97f256b6e1160001b61283a565b612b597fc01279bee6da59f949b941988fd96c9ebddef3c443936184c18ca49b1dd3f36260001b61283a565b8167ffffffffffffffff1681612b6f9190615f20565b9050612b9c7e4ff29f1210901fc47a95f94143af820fb2f7ff0bcbede07752354c70eff84360001b61283a565b612bc87fd6cb305ac531516689c165eacd7d24030c396eaa25e0c10cbbcf0273310789c160001b61283a565b600a83612bd591906162cc565b67ffffffffffffffff1681612bea9190615f20565b9050612c187fe893313bacb769083f68220172e8a3e261ecffe26d7a6b0f4496c1c37a40db5460001b61283a565b612c447f67718af649a10d8998c92363b45ed477f891862b3c546d294f0aa2234ba9414860001b61283a565b6103e8811115612d3057612c7a7f70de5eeb1b3a775df06cd18d2d2ecb2ff73b6d8b9102eae4b9262610a7ac2e4360001b61283a565b612ca67ffc3a61f812cbfad89632050a2d133ec9300aba6425c377464c6e58abd64295b360001b61283a565b612cd27f6b2dd2e9b726d19b9a602de4ac2ae5079310f45409627f05f2ce4d7ad4ae353d60001b61283a565b6004600360008873ffffffffffffffffffffffffffffffffffffffff1673ffffffffffffffffffffffffffffffffffffffff16815260200190815260200160002060006101000a81548160ff021916908360ff160217905550613128565b612d5c7f8a9555f7b87f458f9e0c1126ea24ac79c62c89930fb74a3b1c4c250599286a1660001b61283a565b612d887f23455f427a5e071a225a2411524a70c162ee1ad51522e3088b97a4efbcace7b460001b61283a565b60c8811115612e7257612dbd7f2b6cbdfcce90125bb56a4d67958eebef882257e30643788854a8d9b515dc322b60001b61283a565b612de97f996e6896e808a376ed60bc91ab31bf20246c07184465711eed8aa470844b16f260001b61283a565b612e157f2aa948be5977626a5d6103bc62128c8d8539389a0e3addd3199e1a4e64ae28e860001b61283a565b60038060008873ffffffffffffffffffffffffffffffffffffffff1673ffffffffffffffffffffffffffffffffffffffff16815260200190815260200160002060006101000a81548160ff021916908360ff160217905550613127565b612e9e7faba70205560be660b1752f200a3889efc4840c7b43ecd53efcce0eff2047dccc60001b61283a565b612eca7f700eee3be7f7711bba9e7d762626e52f2fea671ffb41cb47163fa41f82bbe6e260001b61283a565b603c811115612fb557612eff7fca27a80785897f7613b77270c0c9d9db2bc8944d7aecf8820642242819c09ab560001b61283a565b612f2b7f1cef8b462ecbf572b918ede2ae3655017f98d37cfc3719f6208e4a84c87a3ff660001b61283a565b612f577f53ca1b77091c20ec125f827776304c052e760ccb7ef3cde130a6d550772bd13860001b61283a565b6002600360008873ffffffffffffffffffffffffffffffffffffffff1673ffffffffffffffffffffffffffffffffffffffff16815260200190815260200160002060006101000a81548160ff021916908360ff160217905550613126565b612fe17f3007ac2852cc1a5202f454b5c704731a57f9ff7c6d48e93c83885d99ff107a6460001b61283a565b61300d7f0ef8f1fdb806bca0c0e43c9db6835f49c011b0da1fb20213cc3503306f85705560001b61283a565b601e8111156130f8576130427f035476850a77473b16e1a168e28fc166e03abd3453d79c2f39df6dd27a19251960001b61283a565b61306e7f53497e229d08ce53c14c193d444ef1f1154be27e754bd03fc1609b4a79332ffc60001b61283a565b61309a7ff4b600732cd064e443dd29d586defa30447a42be86cec20a7e5ac0c34af1d7b360001b61283a565b6001600360008873ffffffffffffffffffffffffffffffffffffffff1673ffffffffffffffffffffffffffffffffffffffff16815260200190815260200160002060006101000a81548160ff021916908360ff160217905550613125565b6131247f8d08da6e45ef9a45ddf58bc213984b54461542e42839c9a19036397a2fff3c2c60001b61283a565b5b5b5b5b6131547f1f5d11c82378060c54a0fd51b166f21b97f118f741016a63bcad03908f64054860001b61283a565b6131807fd4f0f3f5dd3738056dc27037cff6cd1ea521fe95e5b80e6ae1a4430e3a33c7e860001b61283a565b7f426f6c5d2bfdd02fe91af51c3ff54726a2a647cda3b59cd29029d0e41adbad9386600360008973ffffffffffffffffffffffffffffffffffffffff1673ffffffffffffffffffffffffffffffffffffffff16815260200190815260200160002060009054906101000a900460ff166040516131fd929190615c90565b60405180910390a1505050505050565b60056020528060005260406000206000915054906101000a900463ffffffff1681565b600060019054906101000a900460ff1680613256575060008054906101000a900460ff16155b613295576040517f08c379a000000000000000000000000000000000000000000000000000000000815260040161328c90615d8c565b60405180910390fd5b60008060019054906101000a900460ff1615905080156132e5576001600060016101000a81548160ff02191690831515021790555060016000806101000a81548160ff0219169083151502179055505b6133117fea6dd35208ca5295c6eee69bfa773621d54837f2dda206e9ef72638ef559f5d260001b61283a565b61333d7f1009f7cffee5b338e1ed1702e63c39bfa5b5a3258e5a58f396838b0333c1973760001b61283a565b6133697f0d7623efddd12c266efe54625d81fbceabbb89c9a13eef46fd087aa780818a2660001b61283a565b600082905061339a7f8d01732ea0c72aee3634135fb07edb7f8522d92e2daaf80b0f53efee8393607e60001b61283a565b6133c67fb034b94cff3d4c340f61e9a80c6a029d42b947da5a63252963eb007b081a2e5560001b61283a565b6133f27fb80e871afb922250c4c5d5ea9cc19675b97f484d91ba5f5c2dfed31bae13787b60001b61283a565b8073ffffffffffffffffffffffffffffffffffffffff1663ba84fd696040518163ffffffff1660e01b815260040160206040518083038186803b15801561343857600080fd5b505afa15801561344c573d6000803e3d6000fd5b505050506040513d601f19601f8201168201806040525081019061347091906158c5565b61347957600080fd5b6134a57f53e6f4968a0a1ac1c42b258a16952ac140a1f2f128d188d8063a245bcf700e8160001b61283a565b6134d17f8d2c911905cfc864665b7bde331b703beed2a03164e03a7c579fd0b2049c5a7660001b61283a565b6134fd7f9065a212471bcb23f8c135673838221d5516129839adcdb24b702b5d4624ea4160001b61283a565b6001600060166101000a81548160ff0219169083151502179055506135447f3a779d8ae62fd92d7e1bc16e3414c7fbe3cecfef0b69dbaad7c05bb4911fc14460001b61283a565b6135707f12abf14c244a50c3be61c44a4031da247610d933db10d90a7e3b61db4d65af0960001b61283a565b80600160006101000a81548173ffffffffffffffffffffffffffffffffffffffff021916908373ffffffffffffffffffffffffffffffffffffffff1602179055505080156135d35760008060016101000a81548160ff0219169083151502179055505b5050565b600160009054906101000a900473ffffffffffffffffffffffffffffffffffffffff1681565b6136297ffd51bd35c2acc01c75cad85a1ec84eaf512e198361cb0f4bb2c85606b0ff706060001b61283a565b6136557f7935ad9c1971d64fcbc668e3b2cbede04ba2bc427e295bbcbde184b7546ba4ee60001b61283a565b6136817fbe947384078f7b4bea5d4c3a5194fba3734c91488cc7fa148b4091b0364dbee760001b61283a565b600160009054906101000a900473ffffffffffffffffffffffffffffffffffffffff1673ffffffffffffffffffffffffffffffffffffffff16638413ec146136c7613981565b6040518263ffffffff1660e01b81526004016136e39190615c75565b60006040518083038186803b1580156136fb57600080fd5b505afa15801561370f573d6000803e3d6000fd5b5050505061373f7f6cdad768c5ab3fce7a9445f10bfc3df34176e829532eda6818ca29ff521b19e560001b61283a565b8061376c7f25ae9a5d4d5918d580b6f618edfba537e77175a26cf4a292f723f4d45be8abd060001b61283a565b6137987fbbb1c76d1b8c6dd032033168ac888fe02817dfe296f302cfe15e1da2c1b08e9f60001b61283a565b6137c47f8b28ff43aeda83ffeedbc021f8319161ed8230d74339b608a156f81fd616b73360001b61283a565b6137f07fe2bb2b9769442dedd5dcaaaeabccb3892c2cab2f81763117401bd7d6ce8056ec60001b61283a565b600073ffffffffffffffffffffffffffffffffffffffff168173ffffffffffffffffffffffffffffffffffffffff161415613860576040517f08c379a000000000000000000000000000000000000000000000000000000000815260040161385790615d6c565b60405180910390fd5b61388c7f635c6ede1429ae8d304b72440705fcc4efc27c2ff8d59b381d17fcec165b506e60001b61283a565b6138b87f656bac6fe07c765d358ffc60578d713961c4169e5f9c26cfbdb9e7ccc8bebbab60001b61283a565b6138e47fb6a1aa05a719c7511ca30f032d76a91c8f488f29a2cfe075c31a58b6832dbaf160001b61283a565b6139107f5830e036f517aeb71ba36a6c7a287c1bf60cec61755311c4276b2adfe8ebd0d160001b61283a565b61393c7fcb3c7613e5c2f9e616960f74f21a532a4b51232e24b03297f64558db065ed54260001b61283a565b81600060026101000a81548173ffffffffffffffffffffffffffffffffffffffff021916908373ffffffffffffffffffffffffffffffffffffffff1602179055505050565b6000601460003690501015801561399d575061399c33611792565b5b156139b157601436033560601c90506139b9565b3390506139ba565b5b90565b60006139eb7f153227ab091885140e12bbb6f6fbb6f82c83cbaa68c51d723229ba205c11fead60001b61283a565b613a177fca2e0a68c491f6b8b7122bc0cf1a498e1fd0e9dd4368d4976afd780f4f55d0e360001b61283a565b613a437f7cef59c87651beb4b53d04eae2f5f7ca61ba57806ededdd422879925844f0ee960001b61283a565b60006001836002613a549190616132565b613a5e9190616342565b9050613a8c7f1c5d1596596fb9b8ce2c2557c9e34951f932cfeaf9452c6a5ff32933fbfae8c860001b61283a565b613ab87f6a0f76e1240d1a1f655f4e61716e26e1df90c90779a80a7a5d850a735aaa6d7f60001b61283a565b80841691505092915050565b6000613af27f059a62115e5c92aba7a780f213b5285d6041d8fec9e19087fb63393dad32196960001b61283a565b613b1e7ff84685b576406a4a4a44ee06c0d484726914022e6fc8854038d66b5a8027570460001b61283a565b613b4a7fce17724cc616bc917e87acebe30e728fec93b716685e00a892a11ef5fc61d21960001b61283a565b60006001836002613b5b919061609c565b613b65919061630e565b84169050613b957f28a1487fbdeb568481e57790dad3c884d24e54dc97a9360023e05d3906b3daa660001b61283a565b613bc17f792c340620dbb330e827841494b434b29bb5b787763de0e51884e3959093aa6a60001b61283a565b613bca81614a40565b91505092915050565b6000613c017f5bda0f32ae9a349181ee3678fe083b6cd2617d6fd34895069f38530b0564a23860001b61283a565b613c2d7fe3abd015f0c58bd7fa48d64d3b9703816cb5c9f3d321f818fa5a7961ac570eb660001b61283a565b613c597fb9a32674f9f183a408181cc7d8bde59caae76db4fc1d8061c5475361205fa2eb60001b61283a565b60006040518060c00160405280600660ff168152602001600360ff168152602001600460ff168152602001600460ff168152602001600360ff168152602001600860ff168152509050613cce7f4a98427e92845e8f1bb7854d923439ee103b7e5f474781b30f8ac818bab60d0460001b61283a565b613cfa7f36677df79153855a523ac2c1d330c0d34934b5533ee0093bab6e7393e2a6ac1860001b61283a565b6000600667ffffffffffffffff811115613d1757613d1661663b565b5b604051908082528060200260200182016040528015613d455781602001602082028036833780820191505090505b509050613d747fe70a341ed1a05dacb8c745fe11705577cd146ae199462aeec83d910d350a03a260001b61283a565b613da07feaf64811d5b293e60c1d326c9d4adb6272fbd564daccc3ddff0d47999e75be5d60001b61283a565b60005b60068163ffffffff161015613f0657613dde7f2b53c331ed42581dd858487a59be9899c4685ebdbdc2b93638374f7aff4a23a960001b61283a565b613e0a7f783a670eb38f61bd50bb90c4e6b23f9f36b37901d481c00fab6cfc6ef136130260001b61283a565b613e3185848363ffffffff1660068110613e2757613e2661660c565b5b60200201516139bd565b828263ffffffff1681518110613e4a57613e4961660c565b5b602002602001019063ffffffff16908163ffffffff1681525050613e907fe9f363f82e63c89e2717dd7e51e93a1024a3369759d4e340d11c0e872f1fa83160001b61283a565b613ebc7fe917c296fbce0c49dd65eef0364dec0b23ca438a72bcee0918f6b548a5ee313860001b61283a565b828163ffffffff1660068110613ed557613ed461660c565b5b60200201516002613ee69190616132565b85613ef19190616018565b94508080613efe9061653f565b915050613da3565b50613f337fe6aa068f1d4abd3edab6f474c26ce6168bbe26f068f3f6924ddfc303794a3e0d60001b61283a565b613f5f7f40eacdcc1874c1c3e7044435245e4bc19c2bb88ffd35a2b32b1a655376714e2a60001b61283a565b606485111561404657613f947ffebc0d42a42acf0429cc09062c8b745566586309e44727a5616291536254e28d60001b61283a565b613fc07f773056431bf58a779b30bb620f971076369895cec2e880a882cb7734a6a52b8e60001b61283a565b613fec7f9bb5fe5713e17ed699f9af99a7bf04d177ec11242f3b08daa54cc219f447943060001b61283a565b614013866000836005815181106140065761400561660c565b5b6020026020010151614a93565b816005815181106140275761402661660c565b5b602002602001019063ffffffff16908163ffffffff168152505061425f565b6140727f66d468112caec23c7c5c41aa51b1a1a06a640674ed55ebffc182c38842d316b560001b61283a565b61409e7f89bc91acfbaabe3db460a02ab053946f1d6ea70d4fbdeab2e3b425da13bd871260001b61283a565b6032851115614184576140d27ec780cf682c681a8124349c5a4c38aed5e5c7adc6ed5af56a41529af50bbac360001b61283a565b6140fe7f5372715616cb38579cf50a97c4e43549905da7401a32f7c71fd57eb20389360760001b61283a565b61412a7f36863ed916ff3429762f8beb00e73318150885cf3894dc0bd27071d46b01063660001b61283a565b614151866002836005815181106141445761414361660c565b5b6020026020010151614a93565b816005815181106141655761416461660c565b5b602002602001019063ffffffff16908163ffffffff168152505061425e565b6141b07ffbb86c3c2825019c1ab7f3914c80ff0e6c8baf568e3c4049900135c1e9f4a41260001b61283a565b6141dc7f2cde9c56a81c9d13867a005cd466ccb2d0ddb264a31756723dfd4677d8fc23cb60001b61283a565b6142087ffb451f34b1c33d8032f67ee76038f3b5b3720cd2a65265d4f05c98d2bfd9708c60001b61283a565b61422f866003836005815181106142225761422161660c565b5b6020026020010151614a93565b816005815181106142435761424261660c565b5b602002602001019063ffffffff16908163ffffffff16815250505b5b61428b7f33be4e2c4aaaf94442732123055acf0a89154e4946f4d8c425111b0afdddf64060001b61283a565b6142b77ff9726cc687f7b0ffee5787c00a01ae079c38a1fe37ae49a97a0741f3ab8942e860001b61283a565b600062100000826005815181106142d1576142d061660c565b5b60200260200101516142e3919061628e565b62020000836004815181106142fb576142fa61660c565b5b602002602001015161430d919061628e565b612000846003815181106143245761432361660c565b5b6020026020010151614336919061628e565b6102008560028151811061434d5761434c61660c565b5b602002602001015161435f919061628e565b6040866001815181106143755761437461660c565b5b6020026020010151614387919061628e565b8660008151811061439b5761439a61660c565b5b60200260200101516143ad9190615f76565b6143b79190615f76565b6143c19190615f76565b6143cb9190615f76565b6143d59190615f76565b90506144037f74cba3f9258383db85eddf7f0dcb32a050fa895810243178f25461f102f4ac9260001b61283a565b61442f7f3a8a583baa8b53a23db3971ec347937727deee7ce1cef70839df213632a492cc60001b61283a565b6000600560008363ffffffff1663ffffffff16815260200190815260200160002060009054906101000a900463ffffffff1663ffffffff1614156148f8576144997fd5eb2ea24ed28c1b250618c25bf4cf442e5f47103a9fa0b6d18d7d370854fddb60001b61283a565b6144c57f393dab5fa9cf33c7223c15ff9c064c5899e942e9a0d1c02cfe3e2a285f32928860001b61283a565b6144f17f5f5f8f5e46d53bca1fabe9150c16094b2a7153cbc4318a56e7dd08b8c05640ef60001b61283a565b6001600560008363ffffffff1663ffffffff16815260200190815260200160002060006101000a81548163ffffffff021916908363ffffffff16021790555061455c7f13af9166647c843940bf28f0c2544c43fd30f823b6b39d25f2b4c1b358a453c160001b61283a565b6145887f79f6e28baca51a9f8114df69b40104affff18edc1f76c297348871727115bc7460001b61283a565b604051806101000160405280836000815181106145a8576145a761660c565b5b602002602001015163ffffffff168152602001836001815181106145cf576145ce61660c565b5b602002602001015163ffffffff168152602001836002815181106145f6576145f561660c565b5b602002602001015163ffffffff1681526020018360038151811061461d5761461c61660c565b5b602002602001015163ffffffff168152602001836004815181106146445761464361660c565b5b602002602001015163ffffffff1681526020018360058151811061466b5761466a61660c565b5b602002602001015163ffffffff1681526020018263ffffffff168152602001600163ffffffff168152506004600088815260200190815260200160002060008201518160000160006101000a81548163ffffffff021916908363ffffffff16021790555060208201518160000160046101000a81548163ffffffff021916908363ffffffff16021790555060408201518160000160086101000a81548163ffffffff021916908363ffffffff160217905550606082015181600001600c6101000a81548163ffffffff021916908363ffffffff16021790555060808201518160000160106101000a81548163ffffffff021916908363ffffffff16021790555060a08201518160000160146101000a81548163ffffffff021916908363ffffffff16021790555060c08201518160000160186101000a81548163ffffffff021916908363ffffffff16021790555060e082015181600001601c6101000a81548163ffffffff021916908363ffffffff16021790555090505061480f7f52b20fc8cebbe71bb9bc2808e6678bd7bd0ce662d87f8ef50b29000f585244dd60001b61283a565b61483b7ff1c8c221ae5edf3e33153fb4e7121248779eb6eec1e9a67dd04a6b34d50fb2d460001b61283a565b6000600360008973ffffffffffffffffffffffffffffffffffffffff1673ffffffffffffffffffffffffffffffffffffffff16815260200190815260200160002060006101000a81548160ff021916908360ff1602179055506148c07fcdeed400560d646b7831efbeaa1911467995e4c2e0103648c6e746295098a6ab60001b61283a565b6148ec7f12ae209f5c144417de0915847ee6541032d05597851682c79cee9c276367fa6360001b61283a565b60019350505050614a39565b6149247f44ff0ba763afa008dd7b0d6e82ec511adb4376527c8141f49dbb2cb3dbb4a06760001b61283a565b6149507f848700f5cbd0df2c8c2353b92dc22107e87b9e805e841cb31a6d2d644f4b75cf60001b61283a565b61497c7fc119a64e939410a7119d752b3d28f62190118e5ea2ed79e8f13411ba209d557d60001b61283a565b6001600560008363ffffffff1663ffffffff16815260200190815260200160002060008282829054906101000a900463ffffffff166149bb9190615f76565b92506101000a81548163ffffffff021916908363ffffffff160217905550614a057f8ecf56c614502428fa43fd93cdaa95ec852b4f3d0aa784610a217ee2ce10757560001b61283a565b614a317f23efcf9306c0596889372f5855a57057688917aaed300a38c5c24ab14f42912660001b61283a565b600093505050505b9392505050565b600063ffffffff8016821115614a8b576040517f08c379a0000000000000000000000000000000000000000000000000000000008152600401614a8290615dcc565b60405180910390fd5b819050919050565b6000614ac17f8300f08d5a6acf807d66a5df08b03ae994741d9f2a4687f7e8ca9155eb7bebac60001b61283a565b614aed7fcf44e8dc9feaab9b93ba7a52c566ece9b0bf299ffe89999c6585ad8510d2870060001b61283a565b614b197fbf492cdc4b4a482e5e84f7c8cd9c31a3bdd0cb3d32fe283467a5801b0264939960001b61283a565b6000604051806102000160405280603261ffff168152602001606461ffff168152602001609661ffff16815260200160c861ffff16815260200160d261ffff16815260200160dc61ffff16815260200160e661ffff16815260200160eb61ffff16815260200160f061ffff16815260200160f561ffff16815260200160f861ffff16815260200160fb61ffff16815260200160fd61ffff16815260200160fe61ffff16815260200160ff61ffff16815260200161010061ffff168152509050614c047f67d1d05751c152d9d40fa34b2886baf2b785da243739f1648202833a7433c2f660001b61283a565b614c307fe7fd0e33f17822892c3103303715f2457046a3350873a087292bf244f5e8279660001b61283a565b6000604051806102000160405280602a61ffff168152602001605461ffff168152602001607e61ffff16815260200160a861ffff16815260200160b561ffff16815260200160c261ffff16815260200160cf61ffff16815260200160d861ffff16815260200160e161ffff16815260200160ea61ffff16815260200160f061ffff16815260200160f661ffff16815260200160fa61ffff16815260200160fc61ffff16815260200160fe61ffff16815260200161010061ffff168152509050614d1b7fd1d1ed11e1eedd35273a0c22345590d130042ed3d8cacbae8acbfe5b61fad22260001b61283a565b614d477fa9c6b499c9379d2f683e79527215159c81e5e7199b510eabaccccbcb3d10f41260001b61283a565b6000604051806102000160405280602861ffff168152602001605061ffff168152602001607861ffff16815260200160a061ffff16815260200160ad61ffff16815260200160ba61ffff16815260200160c761ffff16815260200160d061ffff16815260200160d961ffff16815260200160e261ffff16815260200160e961ffff16815260200160f061ffff16815260200160f461ffff16815260200160f861ffff16815260200160fc61ffff16815260200161010061ffff168152509050614e327f931291b494975d27e5a026e153400b20736174bb9d49f4eaac45b3b1e57dbb6260001b61283a565b614e5e7f1a15c9320bf41dc2096431766e8227027c5cd06f4ab4bd46dc026dc8f7e3140360001b61283a565b6000604051806102000160405280602061ffff168152602001604061ffff168152602001605f61ffff168152602001607e61ffff168152602001608d61ffff168152602001609c61ffff16815260200160ab61ffff16815260200160b761ffff16815260200160c361ffff16815260200160cf61ffff16815260200160d961ffff16815260200160e361ffff16815260200160eb61ffff16815260200160f261ffff16815260200160f961ffff16815260200161010061ffff168152509050614f497f2ecaf6e800f58e94f0788ef371188f05ce3a50eb233b119e6200239e7e73456160001b61283a565b614f757f37884224602689fe7d72bad3221e209872dc93669149b410ca0c6d25d63601f260001b61283a565b6000604051806102000160405280601961ffff168152602001603261ffff168152602001604b61ffff168152602001606461ffff168152602001607361ffff168152602001608261ffff168152602001609161ffff168152602001609c61ffff16815260200160a761ffff16815260200160b261ffff16815260200160bc61ffff16815260200160c661ffff16815260200160d661ffff16815260200160e461ffff16815260200160f261ffff16815260200161010061ffff1681525090506150607f8001a5028a63cb34526f21ea0902105314a39251b0fdbda82bbadfef6e5c10f560001b61283a565b61508c7f652d058ec99d13d656ca4d329770527c508ea227ecbaff2c291b92b22d1e9cda60001b61283a565b615094615767565b6150c07f37b2dfeab7f7932a35c7fefe6602ba368b127b81232f4ab13adfe6d3090a3d0660001b61283a565b6150ec7f302bc463c4510092df0cf03902830ed5df9dc629ef75bda6d481bc190a6de56a60001b61283a565b600089600360008d73ffffffffffffffffffffffffffffffffffffffff1673ffffffffffffffffffffffffffffffffffffffff16815260200190815260200160002060009054906101000a900460ff166151469190615fb0565b90506151747ff93b128361aebbde1abe97df9a637edcb0eb724d8dbcef8312cd313b40181f2160001b61283a565b6151a07fb1cb73acd45bf683feb6fc9b02c89cf09b5c098ea636a6257da4fb8fae02139560001b61283a565b60008160ff161415615238576151d87fe887fa88c85b40c7cd38e4b8390405c52b7eae70123bb0c40742e7e882aa170660001b61283a565b6152047f594f56bcee47a5336da21a1090d47643a5b6a38ec2abf8e272692967c3bc1ba160001b61283a565b6152307f68ad2a2818d2151056e282a5717d7961fff7e4f01c7f1fc318466255351c0a3560001b61283a565b869150615593565b6152647f41f2dfae2708a739be7079eca53cd07f0c26c863d6ac3ee828956960ae250d9460001b61283a565b6152907fd8efb4f093bb4ee5b0e62e3b5a6541b111bb624b78a260469236df9ef40a41ff60001b61283a565b60018160ff161415615328576152c87faf262c7b526ac6bcec58c03035bf088574ed108d887e6b97c79bdee250534e8560001b61283a565b6152f47feb233ebcd1af104d7d8cd19c07af88076f6d7bef367b8cc0f37ef93e1432ab2f60001b61283a565b6153207f1a77bda2e1c9c2e3b433c8ee9c7a4b8a953af28d04dc18d765d7ecd7c352f48c60001b61283a565b859150615592565b6153547f48d3baeaca9c1db60421978e12bb72f289766dc48438ab293a5f709dff12d7be60001b61283a565b6153807fdc16311c17e62be66c197716a0c250c7af9492a8e49076731e9b4e94d2cf139d60001b61283a565b60028160ff161415615418576153b87f2ebfba8087246931d2a91738dd087f24e7dead07a7b898abceca4cf91b98841360001b61283a565b6153e47f2a9ba0e3b865463fdfe09d9944a1aa66c6c22949cf9f69554ad856cbe308ee4560001b61283a565b6154107fdeca336e6e5e0a66d5289f1ee45ca42a034612046f21c603491dc2467889060c60001b61283a565b849150615591565b6154447f8ecc51c0d105730bed4ae21d01b39c488c34a97f66ff1dbbc12f8765de8c77a660001b61283a565b6154707fcaa37489b738a8fd78a7934bde824f60fbf96068b36640521c4500efea9d25db60001b61283a565b60038160ff161415615508576154a87f383131f73e94bcf19ff97f03df2ab51435112d17903c800329a77c21adff818f60001b61283a565b6154d47f016fe5f86aae272300b8f13842b6d9cde77bd3a9361331638a08144d91f5041e60001b61283a565b6155007fe46a691941569085a32a0f1a500c1031c89209faaf7a625b13237c4682ff69da60001b61283a565b839150615590565b6155347faf4d03020167b8aebb3eb3bf4aaed5b23a89cf9f8edbf50e31708f73f131751360001b61283a565b6155607f2912f3de780922cfc3bfe3c3171299688f12e5bd368062b7b1f43dad0ef162c560001b61283a565b61558c7f61e6e4cf7eec7e73ef86021cb4edebd7f9128a6f2a0ad679f68a17ed44cf656360001b61283a565b8291505b5b5b5b6155bf7f7b19498a54a7089e06b0b72884e4fa82a97bb652cc937e44b77c17ceb88599db60001b61283a565b6155eb7fd5f415243d974059c10f95fcf5f156c5a2bdd5d8d790663b28298a8d7cd1149b60001b61283a565b60005b60108163ffffffff161015615757576156297f4c8afde75714eb142b62275a3198cf80ed717b4aa004cd9657bd78fc349c34cd60001b61283a565b6156557f76d28cc4591b4ad18d6c3938b8381c2e7823afe1f4d990ca942a6ab4e355796460001b61283a565b828163ffffffff166010811061566e5761566d61660c565b5b602002015161ffff168a63ffffffff161015615718576156b07fbb8e37e8c2beffbeb8dc6510ee0d5a5b2752127a5fe7b198b6d06705b69a548c60001b61283a565b6156dc7f16fdab772ed1dc02bb23776354ab315f5c8e4ac85e63fed7f3ba4219a56bf18860001b61283a565b6157087fd8217bfc5f4de5507d152fc5fcf2c065d7540929cf1d305dc4f9ae5db6ae9d5560001b61283a565b8098505050505050505050615760565b6157447f26659ace1fd434dc31136ba266e900170e8a2ffea3d81914812c6ef99ffc823b60001b61283a565b808061574f9061653f565b9150506155ee565b50505050505050505b9392505050565b604051806102000160405280601090602082028036833780820191505090505090565b60008135905061579981616805565b92915050565b6000815190506157ae8161681c565b92915050565b6000813590506157c381616833565b92915050565b6000815190506157d881616833565b92915050565b6000813590506157ed8161684a565b92915050565b60008135905061580281616861565b92915050565b60008135905061581781616878565b92915050565b6000602082840312156158335761583261666a565b5b60006158418482850161578a565b91505092915050565b600080600080600060a086880312156158665761586561666a565b5b60006158748882890161578a565b9550506020615885888289016157de565b9450506040615896888289016157de565b93505060606158a788828901615808565b92505060806158b888828901615808565b9150509295509295909350565b6000602082840312156158db576158da61666a565b5b60006158e98482850161579f565b91505092915050565b600080604083850312156159095761590861666a565b5b60006159178582860161579f565b9250506020615928858286016157c9565b9150509250929050565b6000602082840312156159485761594761666a565b5b6000615956848285016157b4565b91505092915050565b6000602082840312156159755761597461666a565b5b6000615983848285016157de565b91505092915050565b600080604083850312156159a3576159a261666a565b5b60006159b1858286016157de565b92505060206159c2858286016157f3565b9150509250929050565b6000602082840312156159e2576159e161666a565b5b60006159f0848285016157f3565b91505092915050565b615a0281616445565b82525050565b615a19615a1482616388565b61656c565b82525050565b615a2881616376565b82525050565b615a378161639a565b82525050565b615a4e615a49826163a6565b61657e565b82525050565b615a65615a60826163b0565b616588565b82525050565b615a7481616457565b82525050565b615a838161647b565b82525050565b6000615a9482615f04565b615a9e8185615f0f565b9350615aae8185602086016164c3565b615ab78161666f565b840191505092915050565b6000615acf601e83615f0f565b9150615ada8261669a565b602082019050919050565b6000615af2602083615f0f565b9150615afd826166c3565b602082019050919050565b6000615b15600f83615f0f565b9150615b20826166ec565b602082019050919050565b6000615b38602e83615f0f565b9150615b4382616715565b604082019050919050565b6000615b5b601a83615f0f565b9150615b6682616764565b602082019050919050565b6000615b7e602683615f0f565b9150615b898261678d565b604082019050919050565b6000615ba1601d83615f0f565b9150615bac826167dc565b602082019050919050565b615bc08161640a565b82525050565b615bd7615bd28261640a565b6165a4565b82525050565b615be681616414565b82525050565b615bf581616438565b82525050565b6000615c078288615a08565b601482019150615c178287615a3d565b602082019150615c278286615a54565b600482019150615c378285615bc6565b602082019150615c478284615bc6565b6020820191508190509695505050505050565b6000602082019050615c6f6000830184615a1f565b92915050565b6000602082019050615c8a60008301846159f9565b92915050565b6000604082019050615ca56000830185615a1f565b615cb26020830184615bec565b9392505050565b6000602082019050615cce6000830184615a2e565b92915050565b6000602082019050615ce96000830184615a6b565b92915050565b6000602082019050615d046000830184615a7a565b92915050565b60006020820190508181036000830152615d248184615a89565b905092915050565b60006020820190508181036000830152615d4581615ac2565b9050919050565b60006020820190508181036000830152615d6581615ae5565b9050919050565b60006020820190508181036000830152615d8581615b08565b9050919050565b60006020820190508181036000830152615da581615b2b565b9050919050565b60006020820190508181036000830152615dc581615b4e565b9050919050565b60006020820190508181036000830152615de581615b71565b9050919050565b60006020820190508181036000830152615e0581615b94565b9050919050565b6000602082019050615e216000830184615bb7565b92915050565b6000604082019050615e3c6000830185615bb7565b615e4960208301846159f9565b9392505050565b6000602082019050615e656000830184615bdd565b92915050565b600061010082019050615e81600083018b615bdd565b615e8e602083018a615bdd565b615e9b6040830189615bdd565b615ea86060830188615bdd565b615eb56080830187615bdd565b615ec260a0830186615bdd565b615ecf60c0830185615bdd565b615edc60e0830184615bdd565b9998505050505050505050565b6000602082019050615efe6000830184615bec565b92915050565b600081519050919050565b600082825260208201905092915050565b6000615f2b8261640a565b9150615f368361640a565b9250827fffffffffffffffffffffffffffffffffffffffffffffffffffffffffffffffff03821115615f6b57615f6a6165ae565b5b828201905092915050565b6000615f8182616414565b9150615f8c83616414565b92508263ffffffff03821115615fa557615fa46165ae565b5b828201905092915050565b6000615fbb82616438565b9150615fc683616438565b92508260ff03821115615fdc57615fdb6165ae565b5b828201905092915050565b6000615ff28261640a565b9150615ffd8361640a565b92508261600d5761600c6165dd565b5b828204905092915050565b600061602382616414565b915061602e83616414565b92508261603e5761603d6165dd565b5b828204905092915050565b6000808291508390505b60018511156160935780860481111561606f5761606e6165ae565b5b600185161561607e5780820291505b808102905061608c8561668d565b9450616053565b94509492505050565b60006160a78261640a565b91506160b2836163dc565b92506160df7fffffffffffffffffffffffffffffffffffffffffffffffffffffffffffffffff8484616161565b905092915050565b60006160f28261640a565b91506160fd83616438565b925061612a7fffffffffffffffffffffffffffffffffffffffffffffffffffffffffffffffff8484616161565b905092915050565b600061613d82616414565b915061614883616438565b925061615963ffffffff8484616161565b905092915050565b600082616171576001905061622d565b8161617f576000905061622d565b8160018114616195576002811461619f576161ce565b600191505061622d565b60ff8411156161b1576161b06165ae565b5b8360020a9150848211156161c8576161c76165ae565b5b5061622d565b5060208310610133831016604e8410600b84101617156162035782820a9050838111156161fe576161fd6165ae565b5b61622d565b6162108484846001616049565b92509050818404811115616227576162266165ae565b5b81810290505b9392505050565b600061623f8261640a565b915061624a8361640a565b9250817fffffffffffffffffffffffffffffffffffffffffffffffffffffffffffffffff0483118215151615616283576162826165ae565b5b828202905092915050565b600061629982616414565b91506162a483616414565b92508163ffffffff04831182151516156162c1576162c06165ae565b5b828202905092915050565b60006162d782616424565b91506162e283616424565b92508167ffffffffffffffff0483118215151615616303576163026165ae565b5b828202905092915050565b60006163198261640a565b91506163248361640a565b925082821015616337576163366165ae565b5b828203905092915050565b600061634d82616414565b915061635883616414565b92508282101561636b5761636a6165ae565b5b828203905092915050565b6000616381826163ea565b9050919050565b6000616393826163ea565b9050919050565b60008115159050919050565b6000819050919050565b60007fffffffff0000000000000000000000000000000000000000000000000000000082169050919050565b600061ffff82169050919050565b600073ffffffffffffffffffffffffffffffffffffffff82169050919050565b6000819050919050565b600063ffffffff82169050919050565b600067ffffffffffffffff82169050919050565b600060ff82169050919050565b60006164508261649f565b9050919050565b600061646282616469565b9050919050565b6000616474826163ea565b9050919050565b60006164868261648d565b9050919050565b6000616498826163ea565b9050919050565b60006164aa826164b1565b9050919050565b60006164bc826163ea565b9050919050565b60005b838110156164e15780820151818401526020810190506164c6565b838111156164f0576000848401525b50505050565b60006165018261640a565b91507fffffffffffffffffffffffffffffffffffffffffffffffffffffffffffffffff821415616534576165336165ae565b5b600182019050919050565b600061654a82616414565b915063ffffffff821415616561576165606165ae565b5b600182019050919050565b600061657782616592565b9050919050565b6000819050919050565b6000819050919050565b600061659d82616680565b9050919050565b6000819050919050565b7f4e487b7100000000000000000000000000000000000000000000000000000000600052601160045260246000fd5b7f4e487b7100000000000000000000000000000000000000000000000000000000600052601260045260246000fd5b7f4e487b7100000000000000000000000000000000000000000000000000000000600052603260045260246000fd5b7f4e487b7100000000000000000000000000000000000000000000000000000000600052604160045260246000fd5b600080fd5b6000601f19601f8301169050919050565b60008160601b9050919050565b60008160011c9050919050565b7f7472656520617474726962757465732061726520736574206265666f72650000600082015250565b7f74686520747265652061747472696275746573206e6f74207265736572766564600082015250565b7f696e76616c696420616464726573730000000000000000000000000000000000600082015250565b7f496e697469616c697a61626c653a20636f6e747261637420697320616c72656160008201527f647920696e697469616c697a6564000000000000000000000000000000000000602082015250565b7f6e6f206e65656420746f20747265652061747472696275746573000000000000600082015250565b7f53616665436173743a2076616c756520646f65736e27742066697420696e203360008201527f3220626974730000000000000000000000000000000000000000000000000000602082015250565b7f74686520747265652061747472696275746573206172652074616b656e000000600082015250565b61680e81616376565b811461681957600080fd5b50565b6168258161639a565b811461683057600080fd5b50565b61683c816163a6565b811461684757600080fd5b50565b6168538161640a565b811461685e57600080fd5b50565b61686a81616414565b811461687557600080fd5b50565b61688181616424565b811461688c57600080fd5b5056fea2646970667358221220e460b5b9718e4a6d0613c42dea7b73ad1c147a754c31b83d84ea58b7431668a064736f6c63430008060033",
  "immutableReferences": {},
  "source": "// // SPDX-License-Identifier: MIT\n\npragma solidity ^0.8.6;\nfunction c_0x782db1a4(bytes32 c__0x782db1a4) pure {}\n\n\nimport \"@openzeppelin/contracts-upgradeable/proxy/utils/Initializable.sol\";\nimport \"@openzeppelin/contracts-upgradeable/utils/math/SafeCastUpgradeable.sol\";\nimport \"../access/IAccessRestriction.sol\";\nimport \"../tree/ITreeFactory.sol\";\nimport \"../gsn/RelayRecipient.sol\";\n\n/** @title TreeAttribute Contract */\ncontract TreeAttribute is Initializable, RelayRecipient {\nfunction c_0x8f48945a(bytes32 c__0x8f48945a) public pure {}\n\n    using SafeCastUpgradeable for uint256;\n\n    bool public isTreeAttribute;\n    IAccessRestriction public accessRestriction;\n    ITreeFactory public treeFactory;\n\n    /** NOTE parameters of randomTreeGeneration*/\n    struct Attributes {\n        uint32 treeType;\n        uint32 groundType;\n        uint32 trunkColor;\n        uint32 crownColor;\n        uint32 groundColor;\n        uint32 specialEffects;\n        uint32 universalCode;\n        uint32 exists;\n    }\n\n    /** NOTE maping from buyer address to his/her rank */\n    mapping(address => uint8) public rankOf;\n\n    /** NOTE mapping from treeId to tree attributes */\n    mapping(uint256 => Attributes) public treeAttributes;\n\n    /** NOTE mapping from unique symbol id to number of generations */\n    mapping(uint32 => uint32) public generatedAttributes;\n\n    /** NOTE mapping from unique symbol to reserved status */\n    mapping(uint32 => uint8) public reservedAttributes;\n\n    event BuyerRankSet(address buyer, uint8 rank);\n    event TreeAttributesGenerated(uint256 treeId);\n    event TreeAttributesNotGenerated(uint256 treeId);\n\n    /** NOTE modifier to check msg.sender has admin role */\n    modifier onlyAdmin() {c_0x8f48945a(0xfd51bd35c2acc01c75cad85a1ec84eaf512e198361cb0f4bb2c85606b0ff7060); /* function */ \n\nc_0x8f48945a(0x7935ad9c1971d64fcbc668e3b2cbede04ba2bc427e295bbcbde184b7546ba4ee); /* line */ \n        c_0x8f48945a(0xbe947384078f7b4bea5d4c3a5194fba3734c91488cc7fa148b4091b0364dbee7); /* statement */ \naccessRestriction.ifAdmin(_msgSender());\nc_0x8f48945a(0x6cdad768c5ab3fce7a9445f10bfc3df34176e829532eda6818ca29ff521b19e5); /* line */ \n        _;\n    }\n\n    /** NOTE modifier for check valid address */\n    modifier validAddress(address _address) {c_0x8f48945a(0x25ae9a5d4d5918d580b6f618edfba537e77175a26cf4a292f723f4d45be8abd0); /* function */ \n\nc_0x8f48945a(0xbbb1c76d1b8c6dd032033168ac888fe02817dfe296f302cfe15e1da2c1b08e9f); /* line */ \n        c_0x8f48945a(0x8b28ff43aeda83ffeedbc021f8319161ed8230d74339b608a156f81fd616b733); /* requirePre */ \nc_0x8f48945a(0xe2bb2b9769442dedd5dcaaaeabccb3892c2cab2f81763117401bd7d6ce8056ec); /* statement */ \nrequire(_address != address(0), \"invalid address\");c_0x8f48945a(0x635c6ede1429ae8d304b72440705fcc4efc27c2ff8d59b381d17fcec165b506e); /* requirePost */ \n\nc_0x8f48945a(0x656bac6fe07c765d358ffc60578d713961c4169e5f9c26cfbdb9e7ccc8bebbab); /* line */ \n        _;\n    }\n\n    /** NOTE modifier to check msg.sender has data manager or treejer contract role */\n    modifier onlyDataManagerOrTreejerContract() {c_0x8f48945a(0x89395798b31da8af4071a28311e8b93b31f7f665ac492fecd2056fb3507e5b4d); /* function */ \n\nc_0x8f48945a(0xf72d0acbc8ec30926dbf0b4a367bfa1091bf535f9b1b9598cf569e34e21f4b79); /* line */ \n        c_0x8f48945a(0xd54ecfd1d049ba3208c233896dd28b0b62eb288753b6b931ac30738092011fbf); /* statement */ \naccessRestriction.ifDataManagerOrTreejerContract(_msgSender());\nc_0x8f48945a(0x40b51a474ddfc8c5abc6905b65e5c1c7c25b18c75f5c00dc59cc5a09f7e363de); /* line */ \n        _;\n    }\n\n    /** NOTE modifier to check msg.sender has buyer rank role */\n    modifier onlyBuyerRank() {c_0x8f48945a(0x0cf57ec73b55008c3eb782c83c1e946b1e1f8163e526cad0902a6f481cbee97d); /* function */ \n\nc_0x8f48945a(0x0018f3ddfdf7fcf3ef7bc8647e16c3ff6d79e31e028df9ff1a8c953e8f64db4b); /* line */ \n        c_0x8f48945a(0xffafbbba35b8be141b0e59b9e9f869bc8c2f354fa0de411f4b7bd7bfd3b28ad8); /* statement */ \naccessRestriction.ifBuyerRank(_msgSender());\nc_0x8f48945a(0xcaa295811b9f1a1783e9da7fd657eafb4d1fe7485c410b77a55ad63bc7a370b0); /* line */ \n        _;\n    }\n\n    /** NOTE modifier for check if function is not paused*/\n    modifier ifNotPaused() {c_0x8f48945a(0x831fe4478e03bf7fbf58b8036e6e538a34e77fd1da1f73ce31b72ccfe8af7640); /* function */ \n\nc_0x8f48945a(0x5a30c71d8d93ca9ba669d945141074ef6be56defb3e77ed41d65af46f01c504c); /* line */ \n        c_0x8f48945a(0xbcaed83b9b9cd95f92811367929b9d55b580dcd7cf0779a5ed13ad77c64f320d); /* statement */ \naccessRestriction.ifNotPaused();\nc_0x8f48945a(0x8a2d8da5c23c294769f4369e9818afbb78aca09c843942c5abd82406d5bde007); /* line */ \n        _;\n    }\n\n    /**\n     * @dev initialize accessRestriction contract and set true for isTreeAttribute\n     * @param _accessRestrictionAddress set to the address of accessRestriction contract\n     */\n    function initialize(address _accessRestrictionAddress)\n        external\n        initializer\n    {c_0x8f48945a(0xea6dd35208ca5295c6eee69bfa773621d54837f2dda206e9ef72638ef559f5d2); /* function */ \n\nc_0x8f48945a(0x1009f7cffee5b338e1ed1702e63c39bfa5b5a3258e5a58f396838b0333c19737); /* line */ \n        c_0x8f48945a(0x0d7623efddd12c266efe54625d81fbceabbb89c9a13eef46fd087aa780818a26); /* statement */ \nIAccessRestriction candidateContract = IAccessRestriction(\n            _accessRestrictionAddress\n        );\nc_0x8f48945a(0x8d01732ea0c72aee3634135fb07edb7f8522d92e2daaf80b0f53efee8393607e); /* line */ \n        c_0x8f48945a(0xb034b94cff3d4c340f61e9a80c6a029d42b947da5a63252963eb007b081a2e55); /* requirePre */ \nc_0x8f48945a(0xb80e871afb922250c4c5d5ea9cc19675b97f484d91ba5f5c2dfed31bae13787b); /* statement */ \nrequire(candidateContract.isAccessRestriction());c_0x8f48945a(0x53e6f4968a0a1ac1c42b258a16952ac140a1f2f128d188d8063a245bcf700e81); /* requirePost */ \n\nc_0x8f48945a(0x8d2c911905cfc864665b7bde331b703beed2a03164e03a7c579fd0b2049c5a76); /* line */ \n        c_0x8f48945a(0x9065a212471bcb23f8c135673838221d5516129839adcdb24b702b5d4624ea41); /* statement */ \nisTreeAttribute = true;\nc_0x8f48945a(0x3a779d8ae62fd92d7e1bc16e3414c7fbe3cecfef0b69dbaad7c05bb4911fc144); /* line */ \n        c_0x8f48945a(0x12abf14c244a50c3be61c44a4031da247610d933db10d90a7e3b61db4d65af09); /* statement */ \naccessRestriction = candidateContract;\n    }\n\n    /**\n     * @dev set trusted forwarder address\n     * @param _address set to {trustedForwarder}\n     */\n    function setTrustedForwarder(address _address)\n        external\n        onlyAdmin\n        validAddress(_address)\n    {c_0x8f48945a(0xb6a1aa05a719c7511ca30f032d76a91c8f488f29a2cfe075c31a58b6832dbaf1); /* function */ \n\nc_0x8f48945a(0x5830e036f517aeb71ba36a6c7a287c1bf60cec61755311c4276b2adfe8ebd0d1); /* line */ \n        c_0x8f48945a(0xcb3c7613e5c2f9e616960f74f21a532a4b51232e24b03297f64558db065ed542); /* statement */ \ntrustedForwarder = _address;\n    }\n\n    /**\n     * @dev admin set TreeFactoryAddress\n     * @param _address set to the address of treeFactory\n     */\n    function setTreeFactoryAddress(address _address) external onlyAdmin {c_0x8f48945a(0xe91d03fc1354d606996fbafff49dce9c8e74a5bb3d9ce706ab4345b93ec97baf); /* function */ \n\nc_0x8f48945a(0xd5ecb66e0682f8752f2524624c46da2cad729b0e4afa7ab1cc117b4dfad3221f); /* line */ \n        c_0x8f48945a(0x281a6ca52b180837242367eabd5308d85fd19c6e2f926b3591ca3037abc85c9b); /* statement */ \nITreeFactory candidateContract = ITreeFactory(_address);\nc_0x8f48945a(0xbc4bd4a31c857e9d28688a3718014823bd010e3aaf9b47cdb0cc938c97928fac); /* line */ \n        c_0x8f48945a(0xf6ced79edf26e6eacdc4c1e8c2c98ff0385a1b33ca70114d087bd5a70aa8b5f8); /* requirePre */ \nc_0x8f48945a(0xa99f62b18278c2181d1f00eef21f933f5d0c6422c995663c418e9b4fc803be18); /* statement */ \nrequire(candidateContract.isTreeFactory());c_0x8f48945a(0x62998c71abc2565b6fa66e64925ff3362c0590a1570e93a39c967e4736eb85e5); /* requirePost */ \n\nc_0x8f48945a(0xf5f07188d4bd503fdcc487f702caf15a5c94db5b712c256b2517345b593d4579); /* line */ \n        c_0x8f48945a(0x5504d5309beea9e2b0b3b3d4a087fc3b72fbf605dee319734293592e9b264eb7); /* statement */ \ntreeFactory = candidateContract;\n    }\n\n    /**\n     * @dev reserve a unique symbol\n     * @param generatedCode unique symbol to reserve\n     */\n    function reserveTreeAttributes(uint32 generatedCode)\n        external\n        onlyDataManagerOrTreejerContract\n    {c_0x8f48945a(0x1e109cd893426cfe91eb5b19b54a59d2972d7f1b59c30a5c88cdfd1949baf51b); /* function */ \n\nc_0x8f48945a(0x48840d9042d0634f1b2a93b6dd336196528cdabc16f79e6acfb07d7853e7a91e); /* line */ \n        c_0x8f48945a(0x0b7d5c8034467c62b04444ab72d891cd5bac5cafaa255d8bc9c6e5c61811b5e9); /* requirePre */ \nc_0x8f48945a(0x320f0fa2713288d86353210b716b68567194fd8f40263d398185c394c5001854); /* statement */ \nrequire(\n            generatedAttributes[generatedCode] == 0,\n            \"the tree attributes are taken\"\n        );c_0x8f48945a(0x1eaea729bc8540d61c020ee28cd13981919582b7869c1bf92070a54d321f5cb4); /* requirePost */ \n\nc_0x8f48945a(0x4beee4ba5d69d19bdb3d4e2e9860f2e32ff1e3c10df59f40cb862d2d135b8e87); /* line */ \n        c_0x8f48945a(0x31fb41e5d3c80f792543f90902935251d187e5fcfacaa1045d8a30234d4518c6); /* statement */ \ngeneratedAttributes[generatedCode] = 1;\nc_0x8f48945a(0xf987c14b5c5427631b9c503f72e26ca2defe7319a3717b724c5ac2eee9be8391); /* line */ \n        c_0x8f48945a(0x590d523bfc3d9e840e8e1de6896154d545a22ef68910f98add2139301e1fd9cc); /* statement */ \nreservedAttributes[generatedCode] = 1;\n    }\n\n    /**\n     * @dev free reservation of a unique symbol\n     * @param generatedCode unique symbol to reserve\n     */\n    function freeReserveTreeAttributes(uint32 generatedCode)\n        external\n        onlyDataManagerOrTreejerContract\n    {c_0x8f48945a(0x02ac3c7e5f09aa38023c87af6bfa7c561512305379a8e17abca0b5be23ee4c8d); /* function */ \n\nc_0x8f48945a(0xf030894da6704c32be9613e0d6f9142478e602ed3de372755206dccbb84f8e71); /* line */ \n        c_0x8f48945a(0xc52c29cb4080b51a476a7bf157d9062e2a3b0631d5707f6815405f8ff2c4269d); /* requirePre */ \nc_0x8f48945a(0x5bf37cb95462a7fc3f50b4c3832050486fbb989f4ce1f751472b4e941bad4279); /* statement */ \nrequire(\n            reservedAttributes[generatedCode] == 1,\n            \"the tree attributes not reserved\"\n        );c_0x8f48945a(0x2ff017ea5dabfd0827492cfe748989166e7e77f1099edeebe52209ace7c51dfe); /* requirePost */ \n\n\nc_0x8f48945a(0xc86af19730d8ff63199a2b4bbd2d674bff1dcb2d63c6fb5d68c978219de3a601); /* line */ \n        c_0x8f48945a(0x256899fd8f04f45b21ab23d4b0f721225d0dc0687738291718f6dbc92bb49f1f); /* statement */ \ngeneratedAttributes[generatedCode] = 0;\nc_0x8f48945a(0xceba7dc7134dce5dc948f329d112c62b71b69a088285f7c21d553d5434ead2b2); /* line */ \n        c_0x8f48945a(0x0f2752b17f870b8f0d4365f993652962a859238fdd6c86f2936a43b5f1118912); /* statement */ \nreservedAttributes[generatedCode] = 0;\n    }\n\n    /**\n     * @dev admin assigns symbol to specified treeId\n     * @param treeId id of tree\n     * @param generatedCode unique symbol code to assign\n     */\n    function setTreeAttributesByAdmin(uint256 treeId, uint32 generatedCode)\n        external\n        onlyDataManagerOrTreejerContract\n    {c_0x8f48945a(0x7c4947b870eb2d1d7a41ca10f5fde312485d04ed3000a60fe710f6f64a34a050); /* function */ \n\nc_0x8f48945a(0x7ac49a8250b80c635d2953c23061436b711056e375404a7f7abf630397a6d103); /* line */ \n        c_0x8f48945a(0x547c9311998136c95a7224a86be29697bfada50a066c573ec4a700a96be9725b); /* requirePre */ \nc_0x8f48945a(0x32b60e1bdb8e855eff2f268a79aac278314ae54a436b37f53a3fde32f48b4700); /* statement */ \nrequire(\n            generatedAttributes[generatedCode] == 0 ||\n                reservedAttributes[generatedCode] == 1,\n            \"the tree attributes are taken\"\n        );c_0x8f48945a(0x3e7e01452bf686ec8ae1c9fb7f3575f3b2418c2238d216e01b8e3992cf8ba7d7); /* requirePost */ \n\nc_0x8f48945a(0xdc8c86b98b7872cae09e7628742c21029c50c1b6bd36c875aae32c938d7f9540); /* line */ \n        c_0x8f48945a(0xde27bdaeffa9c2a212dc5c19af4555cb7e8439504d87dea0667af94ff5dce5a4); /* requirePre */ \nc_0x8f48945a(0x5891998416e9c2a34b34612754ab83d8464d415d786cb8b20e068e432a3ee8df); /* statement */ \nrequire(\n            treeAttributes[treeId].universalCode == 0,\n            \"tree attributes are set before\"\n        );c_0x8f48945a(0xef9e8ee19ec5eace855e843a9bc62bf4eba55d5aba07f7a6f1965b4d81114800); /* requirePost */ \n\nc_0x8f48945a(0x5d7db6057e1d9cd22b6262c11bcdc7ffaa730b153e1a1197e0fe5cf5b6ef0bdd); /* line */ \n        c_0x8f48945a(0xadcc2d5f4ae1dcc28d27d1f333dd57bba864d1cd4df9db399cb70b70612581c7); /* statement */ \ngeneratedAttributes[generatedCode] = 1;\nc_0x8f48945a(0x9a875570f441e6366d97cd23b973affafa38444ae0600b9286a490ca118f065c); /* line */ \n        c_0x8f48945a(0x3020cb89e5e8dc58afa0d6c89a37a9612cb128f9575f89ed0eba90052f154f68); /* statement */ \nreservedAttributes[generatedCode] = 0;\nc_0x8f48945a(0x5f3b56db3e4bf26d38a337d17fda29de30bb8787bd730033b857e8e721c12257); /* line */ \n        c_0x8f48945a(0xfd74df01b04e10fae1747009b9dc2ba88493cab2539521b37c4f0e84dbd318d5); /* statement */ \nuint8[6] memory bitCounts = [6, 3, 4, 4, 3, 4];\nc_0x8f48945a(0x120bc8fafdd0e95ed9d7239722ba66496df14b381c2275b738f8db5bdebad5b0); /* line */ \n        c_0x8f48945a(0x0fdf332cac94a411b5f267d6e8c6bff13b300aeb51ae5c4f126751d1d8b45226); /* statement */ \nuint32[] memory results = new uint32[](6);\n\nc_0x8f48945a(0x0e33e0621fa664f4bda97d1a2de8cd7ac2739a3d2c1218c3cc02eca476ee71b5); /* line */ \n        c_0x8f48945a(0xc246c1a47e7b99f0f87c02b1a5f952022ff9838419a4f3a44f46155c8b5be3e8); /* statement */ \nuint32 tempGeneratedCode = generatedCode;\n\nc_0x8f48945a(0x76d0b1ac3c1add7166f81d78a66cc4223923edf3d7a240a35619e83a61e8cc19); /* line */ \n        c_0x8f48945a(0x18fbb9eff1a6c4b0d926639f8f880dcc6138de337b62b5dd2637fcad04000ccf); /* statement */ \nfor (uint32 i = 0; i < bitCounts.length; i++) {\nc_0x8f48945a(0x17e71d955b219a93b609e6a0dbe6f4b1582b2074a6fcbe2ee7d55cfa2d5576e6); /* line */ \n            c_0x8f48945a(0x059dc47bb104d30f41dad445a4f828e6294451985015219e00fe59a651dca519); /* statement */ \nresults[i] = _getFirstN32(tempGeneratedCode, bitCounts[i]);\n\nc_0x8f48945a(0x1e26d1203f4f745bd1e25b3d5205927d4731c8f814a90c822e5d7f432762a272); /* line */ \n            c_0x8f48945a(0x3cfcf2db342654b4036b397c1bafd2004f5a6dc95d3a2e8fdd4b70a85e9d856f); /* statement */ \ntempGeneratedCode = tempGeneratedCode / uint32(2)**bitCounts[i];\n        }\nc_0x8f48945a(0x9b6a6fd3151051f1417b4bd18a802e5f1ae7dbb5f6060ad9c4fea26f7cbfbf84); /* line */ \n        c_0x8f48945a(0xa9d2899e1793f1be95ee4880da1b6b5eccab3c48cd64df0e8f8e2402f12a388d); /* statement */ \ntreeAttributes[treeId] = Attributes(\n            results[0],\n            results[1],\n            results[2],\n            results[3],\n            results[4],\n            results[5],\n            generatedCode,\n            1\n        );\n    }\n\n    /**\n     * @dev calculates the random attributes from random number\n     * @param buyer buyer address of treeId\n     * @param treeId id of tree\n     * @param rand a 28 bits random attribute generator number\n     * @return if generated random attribute is unique\n     */\n    function _calcRandAttributes(\n        address buyer,\n        uint256 treeId,\n        uint32 rand\n    ) private returns (bool) {c_0x8f48945a(0x5bda0f32ae9a349181ee3678fe083b6cd2617d6fd34895069f38530b0564a238); /* function */ \n\nc_0x8f48945a(0xe3abd015f0c58bd7fa48d64d3b9703816cb5c9f3d321f818fa5a7961ac570eb6); /* line */ \n        c_0x8f48945a(0xb9a32674f9f183a408181cc7d8bde59caae76db4fc1d8061c5475361205fa2eb); /* statement */ \nuint8[6] memory bitCounts = [6, 3, 4, 4, 3, 8];\nc_0x8f48945a(0x4a98427e92845e8f1bb7854d923439ee103b7e5f474781b30f8ac818bab60d04); /* line */ \n        c_0x8f48945a(0x36677df79153855a523ac2c1d330c0d34934b5533ee0093bab6e7393e2a6ac18); /* statement */ \nuint32[] memory results = new uint32[](6);\nc_0x8f48945a(0xe70a341ed1a05dacb8c745fe11705577cd146ae199462aeec83d910d350a03a2); /* line */ \n        c_0x8f48945a(0xeaf64811d5b293e60c1d326c9d4adb6272fbd564daccc3ddff0d47999e75be5d); /* statement */ \nfor (uint32 i = 0; i < bitCounts.length; i++) {\nc_0x8f48945a(0x2b53c331ed42581dd858487a59be9899c4685ebdbdc2b93638374f7aff4a23a9); /* line */ \n            c_0x8f48945a(0x783a670eb38f61bd50bb90c4e6b23f9f36b37901d481c00fab6cfc6ef1361302); /* statement */ \nresults[i] = _getFirstN32(rand, bitCounts[i]);\nc_0x8f48945a(0xe9f363f82e63c89e2717dd7e51e93a1024a3369759d4e340d11c0e872f1fa831); /* line */ \n            c_0x8f48945a(0xe917c296fbce0c49dd65eef0364dec0b23ca438a72bcee0918f6b548a5ee3138); /* statement */ \nrand = rand / (uint32(2)**bitCounts[i]);\n        }\nc_0x8f48945a(0xe6aa068f1d4abd3edab6f474c26ce6168bbe26f068f3f6924ddfc303794a3e0d); /* line */ \n        c_0x8f48945a(0x40eacdcc1874c1c3e7044435245e4bc19c2bb88ffd35a2b32b1a655376714e2a); /* statement */ \nif (treeId > 100) {c_0x8f48945a(0xfebc0d42a42acf0429cc09062c8b745566586309e44727a5616291536254e28d); /* branch */ \n\nc_0x8f48945a(0x773056431bf58a779b30bb620f971076369895cec2e880a882cb7734a6a52b8e); /* line */ \n            c_0x8f48945a(0x9bb5fe5713e17ed699f9af99a7bf04d177ec11242f3b08daa54cc219f4479430); /* statement */ \nresults[5] = _getSpecialEffect(buyer, 0, results[5]);\n        } else {c_0x8f48945a(0x66d468112caec23c7c5c41aa51b1a1a06a640674ed55ebffc182c38842d316b5); /* statement */ \nc_0x8f48945a(0x89bc91acfbaabe3db460a02ab053946f1d6ea70d4fbdeab2e3b425da13bd8712); /* branch */ \nif (treeId > 50) {c_0x8f48945a(0x00c780cf682c681a8124349c5a4c38aed5e5c7adc6ed5af56a41529af50bbac3); /* branch */ \n\nc_0x8f48945a(0x5372715616cb38579cf50a97c4e43549905da7401a32f7c71fd57eb203893607); /* line */ \n            c_0x8f48945a(0x36863ed916ff3429762f8beb00e73318150885cf3894dc0bd27071d46b010636); /* statement */ \nresults[5] = _getSpecialEffect(buyer, 2, results[5]);\n        } else {c_0x8f48945a(0xfbb86c3c2825019c1ab7f3914c80ff0e6c8baf568e3c4049900135c1e9f4a412); /* branch */ \n\nc_0x8f48945a(0x2cde9c56a81c9d13867a005cd466ccb2d0ddb264a31756723dfd4677d8fc23cb); /* line */ \n            c_0x8f48945a(0xfb451f34b1c33d8032f67ee76038f3b5b3720cd2a65265d4f05c98d2bfd9708c); /* statement */ \nresults[5] = _getSpecialEffect(buyer, 3, results[5]);\n        }}\n\n        //check Uniqueness\nc_0x8f48945a(0x33be4e2c4aaaf94442732123055acf0a89154e4946f4d8c425111b0afdddf640); /* line */ \n        c_0x8f48945a(0xf9726cc687f7b0ffee5787c00a01ae079c38a1fe37ae49a97a0741f3ab8942e8); /* statement */ \nuint32 generatedCode = results[0] +\n            results[1] *\n            64 +\n            results[2] *\n            512 +\n            results[3] *\n            8192 +\n            results[4] *\n            131072 +\n            results[5] *\n            1048576;\nc_0x8f48945a(0x74cba3f9258383db85eddf7f0dcb32a050fa895810243178f25461f102f4ac92); /* line */ \n        c_0x8f48945a(0x3a8a583baa8b53a23db3971ec347937727deee7ce1cef70839df213632a492cc); /* statement */ \nif (generatedAttributes[generatedCode] == 0) {c_0x8f48945a(0xd5eb2ea24ed28c1b250618c25bf4cf442e5f47103a9fa0b6d18d7d370854fddb); /* branch */ \n\nc_0x8f48945a(0x393dab5fa9cf33c7223c15ff9c064c5899e942e9a0d1c02cfe3e2a285f329288); /* line */ \n            c_0x8f48945a(0x5f5f8f5e46d53bca1fabe9150c16094b2a7153cbc4318a56e7dd08b8c05640ef); /* statement */ \ngeneratedAttributes[generatedCode] = 1;\nc_0x8f48945a(0x13af9166647c843940bf28f0c2544c43fd30f823b6b39d25f2b4c1b358a453c1); /* line */ \n            c_0x8f48945a(0x79f6e28baca51a9f8114df69b40104affff18edc1f76c297348871727115bc74); /* statement */ \ntreeAttributes[treeId] = Attributes(\n                results[0],\n                results[1],\n                results[2],\n                results[3],\n                results[4],\n                results[5],\n                generatedCode,\n                1\n            );\nc_0x8f48945a(0x52b20fc8cebbe71bb9bc2808e6678bd7bd0ce662d87f8ef50b29000f585244dd); /* line */ \n            c_0x8f48945a(0xf1c8c221ae5edf3e33153fb4e7121248779eb6eec1e9a67dd04a6b34d50fb2d4); /* statement */ \nrankOf[buyer] = 0;\nc_0x8f48945a(0xcdeed400560d646b7831efbeaa1911467995e4c2e0103648c6e746295098a6ab); /* line */ \n            c_0x8f48945a(0x12ae209f5c144417de0915847ee6541032d05597851682c79cee9c276367fa63); /* statement */ \nreturn true;\n        }else { c_0x8f48945a(0x44ff0ba763afa008dd7b0d6e82ec511adb4376527c8141f49dbb2cb3dbb4a067); /* branch */ \n}\nc_0x8f48945a(0x848700f5cbd0df2c8c2353b92dc22107e87b9e805e841cb31a6d2d644f4b75cf); /* line */ \n        c_0x8f48945a(0xc119a64e939410a7119d752b3d28f62190118e5ea2ed79e8f13411ba209d557d); /* statement */ \ngeneratedAttributes[generatedCode] += 1;\nc_0x8f48945a(0x8ecf56c614502428fa43fd93cdaa95ec852b4f3d0aa784610a217ee2ce107575); /* line */ \n        c_0x8f48945a(0x23efcf9306c0596889372f5855a57057688917aaed300a38c5c24ab14f429126); /* statement */ \nreturn false;\n    }\n\n    /**\n     * @dev generate a 256 bits random number as a base for tree attributes and slice it\n     * in 28 bits parts\n     * @param treeId id of tree\n     * @return if unique tree attribute generated successfully\n     */\n    function createTreeAttributes(uint256 treeId)\n        external\n        ifNotPaused\n        returns (bool)\n    {c_0x8f48945a(0xb7856e27cc38914f4372c976f012c22f86cdc9ef87f56870acb45039cb439f9f); /* function */ \n\nc_0x8f48945a(0xec309290a874e5d7e48372ee37259ea48d074daeef71d5c390c7a94426a763b7); /* line */ \n        c_0x8f48945a(0x3165caba52d1d6e1585d881f561f4d042f19c20d118f364febfb7e29ec89b39a); /* requirePre */ \nc_0x8f48945a(0xa903c3e76d8df737dc143af18da5678b4f266db785c169a069b4580ea55a5fc8); /* statement */ \nrequire(\n            treeAttributes[treeId].exists == 0,\n            \"tree attributes are set before\"\n        );c_0x8f48945a(0xea065a5e18b4d7241d4a65d3d665e4c804da519ca3f0d32ca9db92182f969dc7); /* requirePost */ \n\nc_0x8f48945a(0x3bcaa1284456a55aee9521ddd00eeb6eb063a2b46e68bde7c2bc53a9fb2042b5); /* line */ \n        c_0x8f48945a(0x444b1859b1cafb011af99fa1a53a9adabf772a61e82dfeba0c2af866a3e12416); /* statement */ \n(bool ms, bytes32 randTree) = treeFactory.checkMintStatus(\n            treeId,\n            _msgSender()\n        );\n\nc_0x8f48945a(0x7424c52e645eb104b0a8da26ecacaa8df12e4aac72c7bda26a7a4a13d88d1450); /* line */ \n        c_0x8f48945a(0x8c78950feaaf5789b5f7b4e76f549295af06ec1fc6524ac918095067022184e2); /* requirePre */ \nc_0x8f48945a(0x20cbcccb6ab1c4c5abadd3ad50d6f7f53aa0b4e4cb2f92d073224d93ef8d071e); /* statement */ \nrequire(ms, \"no need to tree attributes\");c_0x8f48945a(0x5b08d1b86c300951229ec26321264eab53223bbe34e054ccb72ccd0995a11d56); /* requirePost */ \n\n\nc_0x8f48945a(0xbd7ba7c3a572b9d6da85d657254940857c1fadde702e561033701ecbfd0a8159); /* line */ \n        c_0x8f48945a(0xafb134bca2e21ae508fa230dbbd889c788be0e610d4a928acdb159fc893c69fa); /* statement */ \nbool flag = true;\n\nc_0x8f48945a(0x8ec50ecf10bcfdda349fe73e1de30af3ea7932c6f82bb9c5e4f44d298598389c); /* line */ \n        c_0x8f48945a(0x0c720d557760666bb7fc4d6f119dc1ca44b2661c8a22607e29601bd69bb825f9); /* statement */ \nfor (uint256 j = 0; j < 10000; j++) {\nc_0x8f48945a(0x843ae4c7bc52174f85d799b693339cdcf7306f7e367d1d4fcf0881017c7ea68f); /* line */ \n            c_0x8f48945a(0x6ecbb1877ac138507e698c4bac99e04d68568d50e4779ec4219dc938dbe14d43); /* statement */ \nuint256 rand = uint256(\n                keccak256(\n                    abi.encodePacked(_msgSender(), randTree, msg.sig, treeId, j)\n                )\n            );\n\nc_0x8f48945a(0xda883c4717da6f2c1395ace2b361e7d8fcfea83816eb1c7183f08fb778c19e14); /* line */ \n            c_0x8f48945a(0x0900e511999dd075b457e06ae26501760d39325810c7b4fb451bb40191aed758); /* statement */ \nfor (uint256 i = 0; i < 9; i++) {\nc_0x8f48945a(0xb2177fb2c077d41f90c086834236f47b50985c1384c265bb4e87d4611fdb6aad); /* line */ \n                c_0x8f48945a(0xa016faa5420862818e1409096eaa579578c7b7eab17a932ea46e5e78b4737217); /* statement */ \nflag = _calcRandAttributes(\n                    _msgSender(),\n                    treeId,\n                    _getFirstN(rand, 28)\n                );\nc_0x8f48945a(0xe09722b0a9c18e8c7123d4a9087e7fb14464ab988a7a4676a7df89a3eaa3cf47); /* line */ \n                c_0x8f48945a(0xa63def21b566cc0ed23279aa8c32ca6f16544db8a2577cd9661ef696d0567dd6); /* statement */ \nif (flag) {c_0x8f48945a(0xd91b1444b5835d2e5da4fcf4eaf042ace31228e53553f5167e6cb5d4c74b856b); /* branch */ \n\nc_0x8f48945a(0x20eb0437f4f8976ced16693fe4a989bab0482c6d1a2857d6cc8a716a90731f0f); /* line */ \n                    break;\n                }else { c_0x8f48945a(0xe621a5711ac00a0cf1522a6bfcec90a4b6a18e46e171d59ac1e70abf254df55b); /* branch */ \n}\nc_0x8f48945a(0xaa84d6bf0ea5e073e887fa915dafedd112a7d41f46b830bdf996093f19999888); /* line */ \n                c_0x8f48945a(0x0837193280ed35165652c7bb38ee884ff42fbbe4135f4be595c8c298fd08215c); /* statement */ \nrand = rand / (uint256(2)**28);\n            }\nc_0x8f48945a(0xd813de67e1014984ab041841b9791c0d5cb8781f58098efc0dcca9a185c34190); /* line */ \n            c_0x8f48945a(0x0656605d91c766fe60421225941ec875f9e160fac3f0cae15fa74def9b13b3b5); /* statement */ \nif (flag) {c_0x8f48945a(0xbabfcc82c67084bd8f8f229a33369666273aabe114d48f3f0f7d579cd4101097); /* branch */ \n\nc_0x8f48945a(0xbcd70ffbfd17995f240d33dd050039536d5d2648e90a9cf913201a22d084122e); /* line */ \n                break;\n            }else { c_0x8f48945a(0x6c3895133cfafd07b4edcc451fd908575b01c466110d57caf172493b3d5e646f); /* branch */ \n}\n        }\nc_0x8f48945a(0x7aa3eb38cb9c2e061ff0eb05a4884ec03d7e4abba93d1eb6279c9d8370f25357); /* line */ \n        c_0x8f48945a(0x9667da46fddc31026724c9a0096e1add2f5cd6d8027fd6f0219180d9359552be); /* statement */ \nif (flag) {c_0x8f48945a(0x68c26993724999615acc6729409b81b7b97286d0081a805c611d3fc2b6813568); /* branch */ \n\nc_0x8f48945a(0xf2f94cc4a4a0647bce394bc32554ebda71c88f30d4ed4e180a30716750721998); /* line */ \n            c_0x8f48945a(0x0f655c45e131d81552fa36f79edc7a696c51d39adfd1a18afe20fed12a9ee3b9); /* statement */ \nemit TreeAttributesGenerated(treeId);\n        } else {c_0x8f48945a(0x3f07c94a16d1176bb9a4d6800edf90b3dc2db411e63a8a93c5ed06c5f4932778); /* branch */ \n\nc_0x8f48945a(0x1e6e59ded148d9c08294ba6f84df2fdcf87152bb5dc7c4f68e189cb47c903b23); /* line */ \n            c_0x8f48945a(0x069691fbe89b83f24d943408170cf8023a7cc925cd33561521149394035726a2); /* statement */ \nemit TreeAttributesNotGenerated(treeId);\n        }\n\nc_0x8f48945a(0x0fb9394db1846ac12991f8309762fe85175faafdf71376bb00baf9cf5c04f25a); /* line */ \n        c_0x8f48945a(0x72ca414f510299ab9509b4f70b53161418f8ac6ebd90f6926830b3a7680cf6a9); /* statement */ \nreturn flag;\n    }\n\n    /**\n     * @dev the function Tries to Calculate the rank of buyer based on transaction statistics of\n     * his/her wallet\n     * @param buyer address of buyer\n     * @param treejerSpent weth amount spent in treejer\n     * @param walletSpent weth amount spent from wallet\n     * @param treesOwned number of trees owned\n     * @param walletSpentCount number of spents transactions from wallet\n     */\n    function setBuyerRank(\n        address buyer,\n        uint256 treejerSpent,\n        uint256 walletSpent,\n        uint64 treesOwned,\n        uint64 walletSpentCount\n    ) external onlyBuyerRank {c_0x8f48945a(0xf6f392c15c430f3ede89edba6c74c0fe5b021d6df66fd6a14efa084f36d83aab); /* function */ \n\nc_0x8f48945a(0x4cab6eff16439d3c40a23ce8f28247967c964f79933681c226873208611da7fd); /* line */ \n        c_0x8f48945a(0xa748b774d89c193ef5872b3afe32b56ec2681a4168a811f907927195451c177a); /* statement */ \nuint256 points = 0;\n        //each 0.004 ether spent in treejer has 10 points\nc_0x8f48945a(0x2241cb090e02969025ac51adc415f63a435d67dc9b70d07c1a8aceaedf805600); /* line */ \n        c_0x8f48945a(0xaf1995f76bc8cc18830838b66b0e2721a2285dc5ee2dc58495deb5fe89af35b2); /* statement */ \npoints += (treejerSpent / (400000 gwei));\n        //each 1 ether spent of wallet(sent or withdraw) has 2 points\nc_0x8f48945a(0x598f0147fbd4d9e7560dacc70a5597e126a27d07f41740c764516a61438eb430); /* line */ \n        c_0x8f48945a(0xd5f764c2c831aa0aca7f866318e190f2d7c6238535802d14f6bfb618b29fed0a); /* statement */ \npoints += (walletSpent * 2) / (1 ether);\n        // each 1 send or withdraw of wallet has 1 point\nc_0x8f48945a(0x06c02c009ec6b4965025e5e4de6bf0b01ce07debdb12b21d990bd97f256b6e11); /* line */ \n        c_0x8f48945a(0xc01279bee6da59f949b941988fd96c9ebddef3c443936184c18ca49b1dd3f362); /* statement */ \npoints += walletSpentCount;\n        //each tree owned by buyer has 10 points\nc_0x8f48945a(0x004ff29f1210901fc47a95f94143af820fb2f7ff0bcbede07752354c70eff843); /* line */ \n        c_0x8f48945a(0xd6cb305ac531516689c165eacd7d24030c396eaa25e0c10cbbcf0273310789c1); /* statement */ \npoints += treesOwned * 10;\n        //points under 31 is rank of zero\n\nc_0x8f48945a(0xe893313bacb769083f68220172e8a3e261ecffe26d7a6b0f4496c1c37a40db54); /* line */ \n        c_0x8f48945a(0x67718af649a10d8998c92363b45ed477f891862b3c546d294f0aa2234ba94148); /* statement */ \nif (points > 1000) {c_0x8f48945a(0x70de5eeb1b3a775df06cd18d2d2ecb2ff73b6d8b9102eae4b9262610a7ac2e43); /* branch */ \n\nc_0x8f48945a(0xfc3a61f812cbfad89632050a2d133ec9300aba6425c377464c6e58abd64295b3); /* line */ \n            c_0x8f48945a(0x6b2dd2e9b726d19b9a602de4ac2ae5079310f45409627f05f2ce4d7ad4ae353d); /* statement */ \nrankOf[buyer] = 4; //points under 61  is rank 1\n        } else {c_0x8f48945a(0x8a9555f7b87f458f9e0c1126ea24ac79c62c89930fb74a3b1c4c250599286a16); /* statement */ \nc_0x8f48945a(0x23455f427a5e071a225a2411524a70c162ee1ad51522e3088b97a4efbcace7b4); /* branch */ \nif (points > 200) {c_0x8f48945a(0x2b6cbdfcce90125bb56a4d67958eebef882257e30643788854a8d9b515dc322b); /* branch */ \n\nc_0x8f48945a(0x996e6896e808a376ed60bc91ab31bf20246c07184465711eed8aa470844b16f2); /* line */ \n            c_0x8f48945a(0x2aa948be5977626a5d6103bc62128c8d8539389a0e3addd3199e1a4e64ae28e8); /* statement */ \nrankOf[buyer] = 3; //points under 61  is rank 1\n        } else {c_0x8f48945a(0xaba70205560be660b1752f200a3889efc4840c7b43ecd53efcce0eff2047dccc); /* statement */ \nc_0x8f48945a(0x700eee3be7f7711bba9e7d762626e52f2fea671ffb41cb47163fa41f82bbe6e2); /* branch */ \nif (points > 60) {c_0x8f48945a(0xca27a80785897f7613b77270c0c9d9db2bc8944d7aecf8820642242819c09ab5); /* branch */ \n\nc_0x8f48945a(0x1cef8b462ecbf572b918ede2ae3655017f98d37cfc3719f6208e4a84c87a3ff6); /* line */ \n            c_0x8f48945a(0x53ca1b77091c20ec125f827776304c052e760ccb7ef3cde130a6d550772bd138); /* statement */ \nrankOf[buyer] = 2; //points under 201 is rank 2\n        } else {c_0x8f48945a(0x3007ac2852cc1a5202f454b5c704731a57f9ff7c6d48e93c83885d99ff107a64); /* statement */ \nc_0x8f48945a(0x0ef8f1fdb806bca0c0e43c9db6835f49c011b0da1fb20213cc3503306f857055); /* branch */ \nif (points > 30) {c_0x8f48945a(0x035476850a77473b16e1a168e28fc166e03abd3453d79c2f39df6dd27a192519); /* branch */ \n\nc_0x8f48945a(0x53497e229d08ce53c14c193d444ef1f1154be27e754bd03fc1609b4a79332ffc); /* line */ \n            c_0x8f48945a(0xf4b600732cd064e443dd29d586defa30447a42be86cec20a7e5ac0c34af1d7b3); /* statement */ \nrankOf[buyer] = 1; //points under 1001 is rank 3\n        }else { c_0x8f48945a(0x8d08da6e45ef9a45ddf58bc213984b54461542e42839c9a19036397a2fff3c2c); /* branch */ \n}}}}\n\nc_0x8f48945a(0x1f5d11c82378060c54a0fd51b166f21b97f118f741016a63bcad03908f640548); /* line */ \n        c_0x8f48945a(0xd4f0f3f5dd3738056dc27037cff6cd1ea521fe95e5b80e6ae1a4430e3a33c7e8); /* statement */ \nemit BuyerRankSet(buyer, rankOf[buyer]);\n    }\n\n    /**\n     * @dev to get n lowest bits of a uint32\n     * @param rnd a 28 bits number\n     * @param n number of bits to fetch from right side of rnd\n     * @return first n bits from right\n     */\n    function _getFirstN32(uint32 rnd, uint8 n) private pure returns (uint32) {c_0x8f48945a(0x153227ab091885140e12bbb6f6fbb6f82c83cbaa68c51d723229ba205c11fead); /* function */ \n\nc_0x8f48945a(0xca2e0a68c491f6b8b7122bc0cf1a498e1fd0e9dd4368d4976afd780f4f55d0e3); /* line */ \n        c_0x8f48945a(0x7cef59c87651beb4b53d04eae2f5f7ca61ba57806ededdd422879925844f0ee9); /* statement */ \nuint32 firN = (uint32(2)**n) - 1;\nc_0x8f48945a(0x1c5d1596596fb9b8ce2c2557c9e34951f932cfeaf9452c6a5ff32933fbfae8c8); /* line */ \n        c_0x8f48945a(0x6a0f76e1240d1a1f655f4e61716e26e1df90c90779a80a7a5d850a735aaa6d7f); /* statement */ \nreturn rnd & firN;\n    }\n\n    /**\n     * @dev to get n lowest bits of a uint256\n     * @param rnd a 256 bits number\n     * @param n number of bits to fetch from right side of rnd\n     * @return first n bits from right\n     */\n    function _getFirstN(uint256 rnd, uint16 n) private pure returns (uint32) {c_0x8f48945a(0x059a62115e5c92aba7a780f213b5285d6041d8fec9e19087fb63393dad321969); /* function */ \n\nc_0x8f48945a(0xf84685b576406a4a4a44ee06c0d484726914022e6fc8854038d66b5a80275704); /* line */ \n        c_0x8f48945a(0xce17724cc616bc917e87acebe30e728fec93b716685e00a892a11ef5fc61d219); /* statement */ \nuint256 x = rnd & ((uint256(2)**n) - 1);\n\nc_0x8f48945a(0x28a1487fbdeb568481e57790dad3c884d24e54dc97a9360023e05d3906b3daa6); /* line */ \n        c_0x8f48945a(0x792c340620dbb330e827841494b434b29bb5b787763de0e51884e3959093aa6a); /* statement */ \nreturn x.toUint32();\n    }\n\n    /**\n     * @dev The function manipulates probability of rare special effects based on rank of buyer\n     * @param buyer address of buyet rank\n     * @param bonusRank rank for bonus on auctions\n     * @param n random number generated for specific effect form 0 to 255\n     * @return special effect value from 0 to 16\n     */\n    function _getSpecialEffect(\n        address buyer,\n        uint8 bonusRank,\n        uint32 n\n    ) private view returns (uint32) {c_0x8f48945a(0x8300f08d5a6acf807d66a5df08b03ae994741d9f2a4687f7e8ca9155eb7bebac); /* function */ \n\nc_0x8f48945a(0xcf44e8dc9feaab9b93ba7a52c566ece9b0bf299ffe89999c6585ad8510d28700); /* line */ \n        c_0x8f48945a(0xbf492cdc4b4a482e5e84f7c8cd9c31a3bdd0cb3d32fe283467a5801b02649399); /* statement */ \nuint16[16] memory specialEffectsRank0 = [\n            50,\n            100,\n            150,\n            200,\n            210,\n            220,\n            230,\n            235,\n            240,\n            245,\n            248,\n            251,\n            253,\n            254,\n            255,\n            256\n        ];\nc_0x8f48945a(0x67d1d05751c152d9d40fa34b2886baf2b785da243739f1648202833a7433c2f6); /* line */ \n        c_0x8f48945a(0xe7fd0e33f17822892c3103303715f2457046a3350873a087292bf244f5e82796); /* statement */ \nuint16[16] memory specialEffectsRank1 = [\n            42,\n            84,\n            126,\n            168,\n            181,\n            194,\n            207,\n            216,\n            225,\n            234,\n            240,\n            246,\n            250,\n            252,\n            254,\n            256\n        ];\nc_0x8f48945a(0xd1d1ed11e1eedd35273a0c22345590d130042ed3d8cacbae8acbfe5b61fad222); /* line */ \n        c_0x8f48945a(0xa9c6b499c9379d2f683e79527215159c81e5e7199b510eabaccccbcb3d10f412); /* statement */ \nuint16[16] memory specialEffectsRank2 = [\n            40,\n            80,\n            120,\n            160,\n            173,\n            186,\n            199,\n            208,\n            217,\n            226,\n            233,\n            240,\n            244,\n            248,\n            252,\n            256\n        ];\nc_0x8f48945a(0x931291b494975d27e5a026e153400b20736174bb9d49f4eaac45b3b1e57dbb62); /* line */ \n        c_0x8f48945a(0x1a15c9320bf41dc2096431766e8227027c5cd06f4ab4bd46dc026dc8f7e31403); /* statement */ \nuint16[16] memory specialEffectsRank3 = [\n            32,\n            64,\n            95,\n            126,\n            141,\n            156,\n            171,\n            183,\n            195,\n            207,\n            217,\n            227,\n            235,\n            242,\n            249,\n            256\n        ];\nc_0x8f48945a(0x2ecaf6e800f58e94f0788ef371188f05ce3a50eb233b119e6200239e7e734561); /* line */ \n        c_0x8f48945a(0x37884224602689fe7d72bad3221e209872dc93669149b410ca0c6d25d63601f2); /* statement */ \nuint16[16] memory specialEffectsVIP = [\n            25,\n            50,\n            75,\n            100,\n            115,\n            130,\n            145,\n            156,\n            167,\n            178,\n            188,\n            198,\n            214,\n            228,\n            242,\n            256\n        ];\nc_0x8f48945a(0x8001a5028a63cb34526f21ea0902105314a39251b0fdbda82bbadfef6e5c10f5); /* line */ \n        c_0x8f48945a(0x652d058ec99d13d656ca4d329770527c508ea227ecbaff2c291b92b22d1e9cda); /* statement */ \nuint16[16] memory suitedEffectStatistics;\nc_0x8f48945a(0x37b2dfeab7f7932a35c7fefe6602ba368b127b81232f4ab13adfe6d3090a3d06); /* line */ \n        c_0x8f48945a(0x302bc463c4510092df0cf03902830ed5df9dc629ef75bda6d481bc190a6de56a); /* statement */ \nuint8 rank = rankOf[buyer] + bonusRank; //bonus rank for special trees at auction\nc_0x8f48945a(0xf93b128361aebbde1abe97df9a637edcb0eb724d8dbcef8312cd313b40181f21); /* line */ \n        c_0x8f48945a(0xb1cb73acd45bf683feb6fc9b02c89cf09b5c098ea636a6257da4fb8fae021395); /* statement */ \nif (rank == 0) {c_0x8f48945a(0xe887fa88c85b40c7cd38e4b8390405c52b7eae70123bb0c40742e7e882aa1706); /* branch */ \n\nc_0x8f48945a(0x594f56bcee47a5336da21a1090d47643a5b6a38ec2abf8e272692967c3bc1ba1); /* line */ \n            c_0x8f48945a(0x68ad2a2818d2151056e282a5717d7961fff7e4f01c7f1fc318466255351c0a35); /* statement */ \nsuitedEffectStatistics = specialEffectsRank0;\n        } else {c_0x8f48945a(0x41f2dfae2708a739be7079eca53cd07f0c26c863d6ac3ee828956960ae250d94); /* statement */ \nc_0x8f48945a(0xd8efb4f093bb4ee5b0e62e3b5a6541b111bb624b78a260469236df9ef40a41ff); /* branch */ \nif (rank == 1) {c_0x8f48945a(0xaf262c7b526ac6bcec58c03035bf088574ed108d887e6b97c79bdee250534e85); /* branch */ \n\nc_0x8f48945a(0xeb233ebcd1af104d7d8cd19c07af88076f6d7bef367b8cc0f37ef93e1432ab2f); /* line */ \n            c_0x8f48945a(0x1a77bda2e1c9c2e3b433c8ee9c7a4b8a953af28d04dc18d765d7ecd7c352f48c); /* statement */ \nsuitedEffectStatistics = specialEffectsRank1;\n        } else {c_0x8f48945a(0x48d3baeaca9c1db60421978e12bb72f289766dc48438ab293a5f709dff12d7be); /* statement */ \nc_0x8f48945a(0xdc16311c17e62be66c197716a0c250c7af9492a8e49076731e9b4e94d2cf139d); /* branch */ \nif (rank == 2) {c_0x8f48945a(0x2ebfba8087246931d2a91738dd087f24e7dead07a7b898abceca4cf91b988413); /* branch */ \n\nc_0x8f48945a(0x2a9ba0e3b865463fdfe09d9944a1aa66c6c22949cf9f69554ad856cbe308ee45); /* line */ \n            c_0x8f48945a(0xdeca336e6e5e0a66d5289f1ee45ca42a034612046f21c603491dc2467889060c); /* statement */ \nsuitedEffectStatistics = specialEffectsRank2;\n        } else {c_0x8f48945a(0x8ecc51c0d105730bed4ae21d01b39c488c34a97f66ff1dbbc12f8765de8c77a6); /* statement */ \nc_0x8f48945a(0xcaa37489b738a8fd78a7934bde824f60fbf96068b36640521c4500efea9d25db); /* branch */ \nif (rank == 3) {c_0x8f48945a(0x383131f73e94bcf19ff97f03df2ab51435112d17903c800329a77c21adff818f); /* branch */ \n\nc_0x8f48945a(0x016fe5f86aae272300b8f13842b6d9cde77bd3a9361331638a08144d91f5041e); /* line */ \n            c_0x8f48945a(0xe46a691941569085a32a0f1a500c1031c89209faaf7a625b13237c4682ff69da); /* statement */ \nsuitedEffectStatistics = specialEffectsRank3;\n        } else {c_0x8f48945a(0xaf4d03020167b8aebb3eb3bf4aaed5b23a89cf9f8edbf50e31708f73f1317513); /* branch */ \n\nc_0x8f48945a(0x2912f3de780922cfc3bfe3c3171299688f12e5bd368062b7b1f43dad0ef162c5); /* line */ \n            c_0x8f48945a(0x61e6e4cf7eec7e73ef86021cb4edebd7f9128a6f2a0ad679f68a17ed44cf6563); /* statement */ \nsuitedEffectStatistics = specialEffectsVIP;\n        }}}}\nc_0x8f48945a(0x7b19498a54a7089e06b0b72884e4fa82a97bb652cc937e44b77c17ceb88599db); /* line */ \n        c_0x8f48945a(0xd5f415243d974059c10f95fcf5f156c5a2bdd5d8d790663b28298a8d7cd1149b); /* statement */ \nfor (uint32 i = 0; i < suitedEffectStatistics.length; i++) {\nc_0x8f48945a(0x4c8afde75714eb142b62275a3198cf80ed717b4aa004cd9657bd78fc349c34cd); /* line */ \n            c_0x8f48945a(0x76d28cc4591b4ad18d6c3938b8381c2e7823afe1f4d990ca942a6ab4e3557964); /* statement */ \nif (n < suitedEffectStatistics[i]) {c_0x8f48945a(0xbb8e37e8c2beffbeb8dc6510ee0d5a5b2752127a5fe7b198b6d06705b69a548c); /* branch */ \n\nc_0x8f48945a(0x16fdab772ed1dc02bb23776354ab315f5c8e4ac85e63fed7f3ba4219a56bf188); /* line */ \n                c_0x8f48945a(0xd8217bfc5f4de5507d152fc5fcf2c065d7540929cf1d305dc4f9ae5db6ae9d55); /* statement */ \nreturn i;\n            }else { c_0x8f48945a(0x26659ace1fd434dc31136ba266e900170e8a2ffea3d81914812c6ef99ffc823b); /* branch */ \n}\n        }\n    }\n}\n",
  "sourcePath": "/home/smuggler/contract/.coverage_contracts/tree/TreeAttribute.sol",
  "compiler": {
    "name": "solc",
    "version": "0.8.6+commit.11564f7e.Emscripten.clang"
  },
  "schemaVersion": "3.4.1",
  "updatedAt": "2021-08-31T13:33:31.752Z",
  "devdoc": {
    "kind": "dev",
    "methods": {
      "createTreeAttributes(uint256)": {
        "details": "generate a 256 bits random number as a base for tree attributes and slice it in 28 bits parts",
        "params": {
          "treeId": "id of tree"
        },
        "returns": {
          "_0": "if unique tree attribute generated successfully"
        }
      },
      "freeReserveTreeAttributes(uint32)": {
        "details": "free reservation of a unique symbol",
        "params": {
          "generatedCode": "unique symbol to reserve"
        }
      },
      "initialize(address)": {
        "details": "initialize accessRestriction contract and set true for isTreeAttribute",
        "params": {
          "_accessRestrictionAddress": "set to the address of accessRestriction contract"
        }
      },
      "reserveTreeAttributes(uint32)": {
        "details": "reserve a unique symbol",
        "params": {
          "generatedCode": "unique symbol to reserve"
        }
      },
      "setBuyerRank(address,uint256,uint256,uint64,uint64)": {
        "details": "the function Tries to Calculate the rank of buyer based on transaction statistics of his/her wallet",
        "params": {
          "buyer": "address of buyer",
          "treejerSpent": "weth amount spent in treejer",
          "treesOwned": "number of trees owned",
          "walletSpent": "weth amount spent from wallet",
          "walletSpentCount": "number of spents transactions from wallet"
        }
      },
      "setTreeAttributesByAdmin(uint256,uint32)": {
        "details": "admin assigns symbol to specified treeId",
        "params": {
          "generatedCode": "unique symbol code to assign",
          "treeId": "id of tree"
        }
      },
      "setTreeFactoryAddress(address)": {
        "details": "admin set TreeFactoryAddress",
        "params": {
          "_address": "set to the address of treeFactory"
        }
      },
      "setTrustedForwarder(address)": {
        "details": "set trusted forwarder address",
        "params": {
          "_address": "set to {trustedForwarder}"
        }
      },
      "versionRecipient()": {
        "details": "return version recipient "
      }
    },
    "title": "TreeAttribute Contract ",
    "version": 1
  },
  "userdoc": {
    "kind": "user",
    "methods": {
      "generatedAttributes(uint32)": {
        "notice": "NOTE mapping from unique symbol id to number of generations "
      },
      "isTrustedForwarder(address)": {
        "notice": "return if the forwarder is trusted to forward relayed transactions to us. the forwarder is required to verify the sender's signature, and verify the call is not a replay."
      },
      "rankOf(address)": {
        "notice": "NOTE maping from buyer address to his/her rank "
      },
      "reservedAttributes(uint32)": {
        "notice": "NOTE mapping from unique symbol to reserved status "
      },
      "treeAttributes(uint256)": {
        "notice": "NOTE mapping from treeId to tree attributes "
      }
    },
    "version": 1
  }
}