{
  "contractName": "Tree",
  "abi": [
    {
      "anonymous": false,
      "inputs": [
        {
          "indexed": true,
          "internalType": "address",
          "name": "owner",
          "type": "address"
        },
        {
          "indexed": true,
          "internalType": "address",
          "name": "approved",
          "type": "address"
        },
        {
          "indexed": true,
          "internalType": "uint256",
          "name": "tokenId",
          "type": "uint256"
        }
      ],
      "name": "Approval",
      "type": "event"
    },
    {
      "anonymous": false,
      "inputs": [
        {
          "indexed": true,
          "internalType": "address",
          "name": "owner",
          "type": "address"
        },
        {
          "indexed": true,
          "internalType": "address",
          "name": "operator",
          "type": "address"
        },
        {
          "indexed": false,
          "internalType": "bool",
          "name": "approved",
          "type": "bool"
        }
      ],
      "name": "ApprovalForAll",
      "type": "event"
    },
    {
      "anonymous": false,
      "inputs": [
        {
          "indexed": true,
          "internalType": "address",
          "name": "from",
          "type": "address"
        },
        {
          "indexed": true,
          "internalType": "address",
          "name": "to",
          "type": "address"
        },
        {
          "indexed": true,
          "internalType": "uint256",
          "name": "tokenId",
          "type": "uint256"
        }
      ],
      "name": "Transfer",
      "type": "event"
    },
    {
      "inputs": [],
      "name": "accessRestriction",
      "outputs": [
        {
          "internalType": "contract IAccessRestriction",
          "name": "",
          "type": "address"
        }
      ],
      "stateMutability": "view",
      "type": "function"
    },
    {
      "inputs": [
        {
          "internalType": "address",
          "name": "to",
          "type": "address"
        },
        {
          "internalType": "uint256",
          "name": "tokenId",
          "type": "uint256"
        }
      ],
      "name": "approve",
      "outputs": [],
      "stateMutability": "nonpayable",
      "type": "function"
    },
    {
      "inputs": [
        {
          "internalType": "address",
          "name": "owner",
          "type": "address"
        }
      ],
      "name": "balanceOf",
      "outputs": [
        {
          "internalType": "uint256",
          "name": "",
          "type": "uint256"
        }
      ],
      "stateMutability": "view",
      "type": "function"
    },
    {
      "inputs": [
        {
          "internalType": "uint256",
          "name": "tokenId",
          "type": "uint256"
        }
      ],
      "name": "getApproved",
      "outputs": [
        {
          "internalType": "address",
          "name": "",
          "type": "address"
        }
      ],
      "stateMutability": "view",
      "type": "function"
    },
    {
      "inputs": [
        {
          "internalType": "address",
          "name": "owner",
          "type": "address"
        },
        {
          "internalType": "address",
          "name": "operator",
          "type": "address"
        }
      ],
      "name": "isApprovedForAll",
      "outputs": [
        {
          "internalType": "bool",
          "name": "",
          "type": "bool"
        }
      ],
      "stateMutability": "view",
      "type": "function"
    },
    {
      "inputs": [],
      "name": "isTree",
      "outputs": [
        {
          "internalType": "bool",
          "name": "",
          "type": "bool"
        }
      ],
      "stateMutability": "view",
      "type": "function"
    },
    {
      "inputs": [],
      "name": "name",
      "outputs": [
        {
          "internalType": "string",
          "name": "",
          "type": "string"
        }
      ],
      "stateMutability": "view",
      "type": "function"
    },
    {
      "inputs": [
        {
          "internalType": "uint256",
          "name": "tokenId",
          "type": "uint256"
        }
      ],
      "name": "ownerOf",
      "outputs": [
        {
          "internalType": "address",
          "name": "",
          "type": "address"
        }
      ],
      "stateMutability": "view",
      "type": "function"
    },
    {
      "inputs": [
        {
          "internalType": "address",
          "name": "from",
          "type": "address"
        },
        {
          "internalType": "address",
          "name": "to",
          "type": "address"
        },
        {
          "internalType": "uint256",
          "name": "tokenId",
          "type": "uint256"
        }
      ],
      "name": "safeTransferFrom",
      "outputs": [],
      "stateMutability": "nonpayable",
      "type": "function"
    },
    {
      "inputs": [
        {
          "internalType": "address",
          "name": "from",
          "type": "address"
        },
        {
          "internalType": "address",
          "name": "to",
          "type": "address"
        },
        {
          "internalType": "uint256",
          "name": "tokenId",
          "type": "uint256"
        },
        {
          "internalType": "bytes",
          "name": "_data",
          "type": "bytes"
        }
      ],
      "name": "safeTransferFrom",
      "outputs": [],
      "stateMutability": "nonpayable",
      "type": "function"
    },
    {
      "inputs": [
        {
          "internalType": "address",
          "name": "operator",
          "type": "address"
        },
        {
          "internalType": "bool",
          "name": "approved",
          "type": "bool"
        }
      ],
      "name": "setApprovalForAll",
      "outputs": [],
      "stateMutability": "nonpayable",
      "type": "function"
    },
    {
      "inputs": [
        {
          "internalType": "bytes4",
          "name": "interfaceId",
          "type": "bytes4"
        }
      ],
      "name": "supportsInterface",
      "outputs": [
        {
          "internalType": "bool",
          "name": "",
          "type": "bool"
        }
      ],
      "stateMutability": "view",
      "type": "function"
    },
    {
      "inputs": [],
      "name": "symbol",
      "outputs": [
        {
          "internalType": "string",
          "name": "",
          "type": "string"
        }
      ],
      "stateMutability": "view",
      "type": "function"
    },
    {
      "inputs": [
        {
          "internalType": "uint256",
          "name": "tokenId",
          "type": "uint256"
        }
      ],
      "name": "tokenURI",
      "outputs": [
        {
          "internalType": "string",
          "name": "",
          "type": "string"
        }
      ],
      "stateMutability": "view",
      "type": "function"
    },
    {
      "inputs": [
        {
          "internalType": "address",
          "name": "from",
          "type": "address"
        },
        {
          "internalType": "address",
          "name": "to",
          "type": "address"
        },
        {
          "internalType": "uint256",
          "name": "tokenId",
          "type": "uint256"
        }
      ],
      "name": "transferFrom",
      "outputs": [],
      "stateMutability": "nonpayable",
      "type": "function"
    },
    {
      "inputs": [
        {
          "internalType": "bytes32",
          "name": "c__0x548903a7",
          "type": "bytes32"
        }
      ],
      "name": "c_0x548903a7",
      "outputs": [],
      "stateMutability": "pure",
      "type": "function"
    },
    {
      "inputs": [
        {
          "internalType": "address",
          "name": "_accessRestrictionAddress",
          "type": "address"
        },
        {
          "internalType": "string",
          "name": "baseURI_",
          "type": "string"
        }
      ],
      "name": "initialize",
      "outputs": [],
      "stateMutability": "nonpayable",
      "type": "function"
    },
    {
      "inputs": [
        {
          "internalType": "string",
          "name": "baseURI_",
          "type": "string"
        }
      ],
      "name": "setBaseURI",
      "outputs": [],
      "stateMutability": "nonpayable",
      "type": "function"
    },
    {
      "inputs": [
        {
          "internalType": "address",
          "name": "_to",
          "type": "address"
        },
        {
          "internalType": "uint256",
          "name": "_tokenId",
          "type": "uint256"
        }
      ],
      "name": "safeMint",
      "outputs": [],
      "stateMutability": "nonpayable",
      "type": "function"
    },
    {
      "inputs": [
        {
          "internalType": "uint256",
          "name": "_tokenId",
          "type": "uint256"
        }
      ],
      "name": "exists",
      "outputs": [
        {
          "internalType": "bool",
          "name": "",
          "type": "bool"
        }
      ],
      "stateMutability": "view",
      "type": "function"
    }
  ],
  "bytecode": "0x608060405234801561001057600080fd5b506139e1806100206000396000f3fe608060405234801561001057600080fd5b506004361061012c5760003560e01c806370a08231116100ad578063c87b56dd11610071578063c87b56dd1461033f578063d6762c4a1461036f578063e985e9c51461038d578063f399e22e146103bd578063fe9e314c146103d95761012c565b806370a082311461029d57806395d89b41146102cd578063a1448194146102eb578063a22cb46514610307578063b88d4fde146103235761012c565b806337b9fd77116100f457806337b9fd77146101e757806342842e0e146102055780634f558e791461022157806355f804b3146102515780636352211e1461026d5761012c565b806301ffc9a71461013157806306fdde0314610161578063081812fc1461017f578063095ea7b3146101af57806323b872dd146101cb575b600080fd5b61014b60048036038101906101469190612a3c565b6103f5565b6040516101589190612e87565b60405180910390f35b6101696104d7565b6040516101769190612ebd565b60405180910390f35b61019960048036038101906101949190612ae3565b610569565b6040516101a69190612e20565b60405180910390f35b6101c960048036038101906101c491906129a2565b6105ee565b005b6101e560048036038101906101e0919061282c565b610706565b005b6101ef610766565b6040516101fc9190612e87565b60405180910390f35b61021f600480360381019061021a919061282c565b610779565b005b61023b60048036038101906102369190612ae3565b610799565b6040516102489190612e87565b60405180910390f35b61026b60048036038101906102669190612a96565b61082f565b005b61028760048036038101906102829190612ae3565b610a04565b6040516102949190612e20565b60405180910390f35b6102b760048036038101906102b291906127bf565b610ab6565b6040516102c491906130bf565b60405180910390f35b6102d5610b6e565b6040516102e29190612ebd565b60405180910390f35b610305600480360381019061030091906129a2565b610c00565b005b610321600480360381019061031c9190612902565b610dcd565b005b61033d6004803603810190610338919061287f565b610f4e565b005b61035960048036038101906103549190612ae3565b610fb0565b6040516103669190612ebd565b60405180910390f35b610377611057565b6040516103849190612ea2565b60405180910390f35b6103a760048036038101906103a291906127ec565b61107d565b6040516103b49190612e87565b60405180910390f35b6103d760048036038101906103d29190612942565b611111565b005b6103f360048036038101906103ee9190612a0f565b6115f0565b005b60007f80ac58cd000000000000000000000000000000000000000000000000000000007bffffffffffffffffffffffffffffffffffffffffffffffffffffffff1916827bffffffffffffffffffffffffffffffffffffffffffffffffffffffff191614806104c057507f5b5e139f000000000000000000000000000000000000000000000000000000007bffffffffffffffffffffffffffffffffffffffffffffffffffffffff1916827bffffffffffffffffffffffffffffffffffffffffffffffffffffffff1916145b806104d057506104cf826115f3565b5b9050919050565b6060606580546104e690613312565b80601f016020809104026020016040519081016040528092919081815260200182805461051290613312565b801561055f5780601f106105345761010080835404028352916020019161055f565b820191906000526020600020905b81548152906001019060200180831161054257829003601f168201915b5050505050905090565b60006105748261165d565b6105b3576040517f08c379a00000000000000000000000000000000000000000000000000000000081526004016105aa9061301f565b60405180910390fd5b6069600083815260200190815260200160002060009054906101000a900473ffffffffffffffffffffffffffffffffffffffff169050919050565b60006105f982610a04565b90508073ffffffffffffffffffffffffffffffffffffffff168373ffffffffffffffffffffffffffffffffffffffff16141561066a576040517f08c379a00000000000000000000000000000000000000000000000000000000081526004016106619061307f565b60405180910390fd5b8073ffffffffffffffffffffffffffffffffffffffff166106896116c9565b73ffffffffffffffffffffffffffffffffffffffff1614806106b857506106b7816106b26116c9565b61107d565b5b6106f7576040517f08c379a00000000000000000000000000000000000000000000000000000000081526004016106ee90612f7f565b60405180910390fd5b61070183836116d1565b505050565b6107176107116116c9565b8261178a565b610756576040517f08c379a000000000000000000000000000000000000000000000000000000000815260040161074d9061309f565b60405180910390fd5b610761838383611868565b505050565b609760009054906101000a900460ff1681565b61079483838360405180602001604052806000815250610f4e565b505050565b60006107c77f022781ae5ba1df933c0fa365b2465512ada0dd111d1b2e0adae65f42757fb04b60001b6115f0565b6107f37f73753e9ffe59b95856e0a24e5c277995993869535a97ab99c838cb9a7092d36c60001b6115f0565b61081f7f7875d8a64b4261200e34a432358f1a9e0be5d92977dcb132607e306442d2e1f760001b6115f0565b6108288261165d565b9050919050565b61085b7f6177e1484898e98fdc75b8e68711674e06be2bd872dc9721954e4eda3531a9c060001b6115f0565b6108877ff55ab38d416ca14d23a729c14639d3cb13248839a841d9e9096c5e18bf22eaec60001b6115f0565b6108b37f5374865a65ea7eca40d231b2559395af49cdb3269c3b7cf3a010029a8c46940660001b6115f0565b609760019054906101000a900473ffffffffffffffffffffffffffffffffffffffff1673ffffffffffffffffffffffffffffffffffffffff16638413ec14336040518263ffffffff1660e01b815260040161090e9190612e20565b60006040518083038186803b15801561092657600080fd5b505afa15801561093a573d6000803e3d6000fd5b5050505061096a7faf6e88811c4924038790a097eab7af4a7320e81de92d9b0655038c90ca096e7f60001b6115f0565b6109967f6e4d75f05170abe8183d38e7885568114bc41d5ab0fa07d175d06a5963d26ad960001b6115f0565b6109c27f3a25c5b0ec34969fc388917d1f9d234bf78fa4e33ac27ba5fe929a980602853660001b6115f0565b6109ee7ff1d63d08c00d4f1b7e513b37b24d02fd0e6b93abc8d0246c5eeb0ada36750a3360001b6115f0565b8181609891906109ff92919061253d565b505050565b6000806067600084815260200190815260200160002060009054906101000a900473ffffffffffffffffffffffffffffffffffffffff169050600073ffffffffffffffffffffffffffffffffffffffff168173ffffffffffffffffffffffffffffffffffffffff161415610aad576040517f08c379a0000000000000000000000000000000000000000000000000000000008152600401610aa490612fbf565b60405180910390fd5b80915050919050565b60008073ffffffffffffffffffffffffffffffffffffffff168273ffffffffffffffffffffffffffffffffffffffff161415610b27576040517f08c379a0000000000000000000000000000000000000000000000000000000008152600401610b1e90612f9f565b60405180910390fd5b606860008373ffffffffffffffffffffffffffffffffffffffff1673ffffffffffffffffffffffffffffffffffffffff168152602001908152602001600020549050919050565b606060668054610b7d90613312565b80601f0160208091040260200160405190810160405280929190818152602001828054610ba990613312565b8015610bf65780601f10610bcb57610100808354040283529160200191610bf6565b820191906000526020600020905b815481529060010190602001808311610bd957829003601f168201915b5050505050905090565b610c2c7f6913a1ede33e4c2de04a4f3d8482be270b064c6a3f56df2f80c78455fc4c2c4960001b6115f0565b610c587fa491ceb5e9310cffbe1955203d3d6d6ab6e1e971b22aa36d5827a7f145d6211260001b6115f0565b610c847fcbd8a71b19f76a3de9d504fc90a750a7a2be23a6b3233c176384073650d5093160001b6115f0565b609760019054906101000a900473ffffffffffffffffffffffffffffffffffffffff1673ffffffffffffffffffffffffffffffffffffffff1663ebe6a6f3336040518263ffffffff1660e01b8152600401610cdf9190612e20565b60006040518083038186803b158015610cf757600080fd5b505afa158015610d0b573d6000803e3d6000fd5b50505050610d3b7f6da9baadf3dc630c9ae967a4bea8c5b12772795c40bfc88596e28211f08c59a160001b6115f0565b610d677feb1b022c79af2281f318e1602eb2ffb8ea87b3b86992b4b5b602152cd7d5c13060001b6115f0565b610d937f92520bae6f6020b5e7d798d24a5bf61695da3cafae31fcef7b14cced0c86364c60001b6115f0565b610dbf7fe8100a9516c987661d6eee9c50e87c0a3883ad98fd79532cbcca4436e9cc09c360001b6115f0565b610dc98282611ac4565b5050565b610dd56116c9565b73ffffffffffffffffffffffffffffffffffffffff168273ffffffffffffffffffffffffffffffffffffffff161415610e43576040517f08c379a0000000000000000000000000000000000000000000000000000000008152600401610e3a90612f3f565b60405180910390fd5b80606a6000610e506116c9565b73ffffffffffffffffffffffffffffffffffffffff1673ffffffffffffffffffffffffffffffffffffffff16815260200190815260200160002060008473ffffffffffffffffffffffffffffffffffffffff1673ffffffffffffffffffffffffffffffffffffffff16815260200190815260200160002060006101000a81548160ff0219169083151502179055508173ffffffffffffffffffffffffffffffffffffffff16610efd6116c9565b73ffffffffffffffffffffffffffffffffffffffff167f17307eab39ab6107e8899845ad3d59bd9653f200f220920489ca2b5937696c3183604051610f429190612e87565b60405180910390a35050565b610f5f610f596116c9565b8361178a565b610f9e576040517f08c379a0000000000000000000000000000000000000000000000000000000008152600401610f959061309f565b60405180910390fd5b610faa84848484611ae2565b50505050565b6060610fbb8261165d565b610ffa576040517f08c379a0000000000000000000000000000000000000000000000000000000008152600401610ff19061305f565b60405180910390fd5b6000611004611b3e565b90506000815111611024576040518060200160405280600081525061104f565b8061102e84611c54565b60405160200161103f929190612dfc565b6040516020818303038152906040525b915050919050565b609760019054906101000a900473ffffffffffffffffffffffffffffffffffffffff1681565b6000606a60008473ffffffffffffffffffffffffffffffffffffffff1673ffffffffffffffffffffffffffffffffffffffff16815260200190815260200160002060008373ffffffffffffffffffffffffffffffffffffffff1673ffffffffffffffffffffffffffffffffffffffff16815260200190815260200160002060009054906101000a900460ff16905092915050565b600060019054906101000a900460ff1680611137575060008054906101000a900460ff16155b611176576040517f08c379a000000000000000000000000000000000000000000000000000000000815260040161116d90612fdf565b60405180910390fd5b60008060019054906101000a900460ff1615905080156111c6576001600060016101000a81548160ff02191690831515021790555060016000806101000a81548160ff0219169083151502179055505b6111f27f5fef58e336aef5d201f9eea3d2236ba8f71730e4c71c03a5a6e9e77e5ff36aa260001b6115f0565b61121e7f25960732d828750c66d4547d5511ee5e50bfcb46b35ea7a8ad8d9a18402f095860001b6115f0565b61124a7f3a468ab344423d8fd3b38d2f93057a62f7b684c44b9bd5ebf3e4d438c59d8b6460001b6115f0565b6001609760006101000a81548160ff0219169083151502179055506112917f4837693b324cd6140a2e5771eee8a5932acfecca862ffdfce2699556e6fe192760001b6115f0565b6112bd7fb1485803dd36ebb91ac21e11542607844e821d701f3c6d340ffa11ebc2ea0f6160001b6115f0565b6113316040518060400160405280600481526020017f54726565000000000000000000000000000000000000000000000000000000008152506040518060400160405280600481526020017f5452454500000000000000000000000000000000000000000000000000000000815250611db5565b61135d7f95b102f002dcfdd398b011f68a3886a20b45d3d092c53c4033a0e528686c32cd60001b6115f0565b6113897f7d79aaa567400d812dd93e6f5be3bf68abca9ed72a507d7a32b804304c09fc4360001b6115f0565b82826098919061139a92919061253d565b506113c77f81013c7fbde9bddd04cb548b0e665f341138976a80737784e75195102f7028df60001b6115f0565b6113f37f8eedf555f66e4ece75b43b822adacbd91806b691b4e9481471f401dc8172a2ca60001b6115f0565b60008490506114247f9e562eebc7617d26ff0b34516a80f2d0dbae773ca3c2e47fc5be1382178d685260001b6115f0565b6114507fae955687de4a3901d211bf88f945f56edf4d0b8beae90114337657bd177d265a60001b6115f0565b61147c7f389a6d67caafe78b49673bc2b53110f5b92905b580204a760f57bd4abcfb239260001b6115f0565b8073ffffffffffffffffffffffffffffffffffffffff1663ba84fd696040518163ffffffff1660e01b815260040160206040518083038186803b1580156114c257600080fd5b505afa1580156114d6573d6000803e3d6000fd5b505050506040513d601f19601f820116820180604052508101906114fa91906129e2565b61150357600080fd5b61152f7faeff7ce81947750e8f7cb521328ce08f7cef2a6e29249cc500ec96b93998a89160001b6115f0565b61155b7f51b0e026f681e290cefe2f0d13c67c72386d329afd7856ced5d4b2d4f01c867360001b6115f0565b6115877fab473250f9ca03131df78f9710417a149425995dc27c4782b27c4f3c5f273f3560001b6115f0565b80609760016101000a81548173ffffffffffffffffffffffffffffffffffffffff021916908373ffffffffffffffffffffffffffffffffffffffff1602179055505080156115ea5760008060016101000a81548160ff0219169083151502179055505b50505050565b50565b60007f01ffc9a7000000000000000000000000000000000000000000000000000000007bffffffffffffffffffffffffffffffffffffffffffffffffffffffff1916827bffffffffffffffffffffffffffffffffffffffffffffffffffffffff1916149050919050565b60008073ffffffffffffffffffffffffffffffffffffffff166067600084815260200190815260200160002060009054906101000a900473ffffffffffffffffffffffffffffffffffffffff1673ffffffffffffffffffffffffffffffffffffffff1614159050919050565b600033905090565b816069600083815260200190815260200160002060006101000a81548173ffffffffffffffffffffffffffffffffffffffff021916908373ffffffffffffffffffffffffffffffffffffffff160217905550808273ffffffffffffffffffffffffffffffffffffffff1661174483610a04565b73ffffffffffffffffffffffffffffffffffffffff167f8c5be1e5ebec7d5bd14f71427d1e84f3dd0314c0f7b2291e5b200ac8c7c3b92560405160405180910390a45050565b60006117958261165d565b6117d4576040517f08c379a00000000000000000000000000000000000000000000000000000000081526004016117cb90612f5f565b60405180910390fd5b60006117df83610a04565b90508073ffffffffffffffffffffffffffffffffffffffff168473ffffffffffffffffffffffffffffffffffffffff16148061184e57508373ffffffffffffffffffffffffffffffffffffffff1661183684610569565b73ffffffffffffffffffffffffffffffffffffffff16145b8061185f575061185e818561107d565b5b91505092915050565b8273ffffffffffffffffffffffffffffffffffffffff1661188882610a04565b73ffffffffffffffffffffffffffffffffffffffff16146118de576040517f08c379a00000000000000000000000000000000000000000000000000000000081526004016118d59061303f565b60405180910390fd5b600073ffffffffffffffffffffffffffffffffffffffff168273ffffffffffffffffffffffffffffffffffffffff16141561194e576040517f08c379a000000000000000000000000000000000000000000000000000000000815260040161194590612f1f565b60405180910390fd5b611959838383611eaa565b6119646000826116d1565b6001606860008573ffffffffffffffffffffffffffffffffffffffff1673ffffffffffffffffffffffffffffffffffffffff16815260200190815260200160002060008282546119b491906131fa565b925050819055506001606860008473ffffffffffffffffffffffffffffffffffffffff1673ffffffffffffffffffffffffffffffffffffffff1681526020019081526020016000206000828254611a0b9190613173565b92505081905550816067600083815260200190815260200160002060006101000a81548173ffffffffffffffffffffffffffffffffffffffff021916908373ffffffffffffffffffffffffffffffffffffffff160217905550808273ffffffffffffffffffffffffffffffffffffffff168473ffffffffffffffffffffffffffffffffffffffff167fddf252ad1be2c89b69c2b068fc378daa952ba7f163c4a11628f55a4df523b3ef60405160405180910390a4505050565b611ade828260405180602001604052806000815250611eaf565b5050565b611aed848484611868565b611af984848484611f0a565b611b38576040517f08c379a0000000000000000000000000000000000000000000000000000000008152600401611b2f90612edf565b60405180910390fd5b50505050565b6060611b6c7f109a3c3532aed9272edc514c89fafb3697ec02a39fae5e5f97f80d35a60a87db60001b6115f0565b611b987fccf99cfe6a8e5ef1e43db2685a578012c633d5eaa12852f0325d52496a36bd2f60001b6115f0565b611bc47fa91909a42bf468c039bf82257cca2929adc6437604ffb7e25ebd084b05bb305f60001b6115f0565b60988054611bd190613312565b80601f0160208091040260200160405190810160405280929190818152602001828054611bfd90613312565b8015611c4a5780601f10611c1f57610100808354040283529160200191611c4a565b820191906000526020600020905b815481529060010190602001808311611c2d57829003601f168201915b5050505050905090565b60606000821415611c9c576040518060400160405280600181526020017f30000000000000000000000000000000000000000000000000000000000000008152509050611db0565b600082905060005b60008214611cce578080611cb790613375565b915050600a82611cc791906131c9565b9150611ca4565b60008167ffffffffffffffff811115611cea57611ce96134ab565b5b6040519080825280601f01601f191660200182016040528015611d1c5781602001600182028036833780820191505090505b5090505b60008514611da957600182611d3591906131fa565b9150600a85611d4491906133be565b6030611d509190613173565b60f81b818381518110611d6657611d6561347c565b5b60200101907effffffffffffffffffffffffffffffffffffffffffffffffffffffffffffff1916908160001a905350600a85611da291906131c9565b9450611d20565b8093505050505b919050565b600060019054906101000a900460ff1680611ddb575060008054906101000a900460ff16155b611e1a576040517f08c379a0000000000000000000000000000000000000000000000000000000008152600401611e1190612fdf565b60405180910390fd5b60008060019054906101000a900460ff161590508015611e6a576001600060016101000a81548160ff02191690831515021790555060016000806101000a81548160ff0219169083151502179055505b611e726120a1565b611e7a61217a565b611e848383612253565b8015611ea55760008060016101000a81548160ff0219169083151502179055505b505050565b505050565b611eb9838361235c565b611ec66000848484611f0a565b611f05576040517f08c379a0000000000000000000000000000000000000000000000000000000008152600401611efc90612edf565b60405180910390fd5b505050565b6000611f2b8473ffffffffffffffffffffffffffffffffffffffff1661252a565b15612094578373ffffffffffffffffffffffffffffffffffffffff1663150b7a02611f546116c9565b8786866040518563ffffffff1660e01b8152600401611f769493929190612e3b565b602060405180830381600087803b158015611f9057600080fd5b505af1925050508015611fc157506040513d601f19601f82011682018060405250810190611fbe9190612a69565b60015b612044573d8060008114611ff1576040519150601f19603f3d011682016040523d82523d6000602084013e611ff6565b606091505b5060008151141561203c576040517f08c379a000000000000000000000000000000000000000000000000000000000815260040161203390612edf565b60405180910390fd5b805181602001fd5b63150b7a0260e01b7bffffffffffffffffffffffffffffffffffffffffffffffffffffffff1916817bffffffffffffffffffffffffffffffffffffffffffffffffffffffff191614915050612099565b600190505b949350505050565b600060019054906101000a900460ff16806120c7575060008054906101000a900460ff16155b612106576040517f08c379a00000000000000000000000000000000000000000000000000000000081526004016120fd90612fdf565b60405180910390fd5b60008060019054906101000a900460ff161590508015612156576001600060016101000a81548160ff02191690831515021790555060016000806101000a81548160ff0219169083151502179055505b80156121775760008060016101000a81548160ff0219169083151502179055505b50565b600060019054906101000a900460ff16806121a0575060008054906101000a900460ff16155b6121df576040517f08c379a00000000000000000000000000000000000000000000000000000000081526004016121d690612fdf565b60405180910390fd5b60008060019054906101000a900460ff16159050801561222f576001600060016101000a81548160ff02191690831515021790555060016000806101000a81548160ff0219169083151502179055505b80156122505760008060016101000a81548160ff0219169083151502179055505b50565b600060019054906101000a900460ff1680612279575060008054906101000a900460ff16155b6122b8576040517f08c379a00000000000000000000000000000000000000000000000000000000081526004016122af90612fdf565b60405180910390fd5b60008060019054906101000a900460ff161590508015612308576001600060016101000a81548160ff02191690831515021790555060016000806101000a81548160ff0219169083151502179055505b826065908051906020019061231e9291906125c3565b5081606690805190602001906123359291906125c3565b5080156123575760008060016101000a81548160ff0219169083151502179055505b505050565b600073ffffffffffffffffffffffffffffffffffffffff168273ffffffffffffffffffffffffffffffffffffffff1614156123cc576040517f08c379a00000000000000000000000000000000000000000000000000000000081526004016123c390612fff565b60405180910390fd5b6123d58161165d565b15612415576040517f08c379a000000000000000000000000000000000000000000000000000000000815260040161240c90612eff565b60405180910390fd5b61242160008383611eaa565b6001606860008473ffffffffffffffffffffffffffffffffffffffff1673ffffffffffffffffffffffffffffffffffffffff16815260200190815260200160002060008282546124719190613173565b92505081905550816067600083815260200190815260200160002060006101000a81548173ffffffffffffffffffffffffffffffffffffffff021916908373ffffffffffffffffffffffffffffffffffffffff160217905550808273ffffffffffffffffffffffffffffffffffffffff16600073ffffffffffffffffffffffffffffffffffffffff167fddf252ad1be2c89b69c2b068fc378daa952ba7f163c4a11628f55a4df523b3ef60405160405180910390a45050565b600080823b905060008111915050919050565b82805461254990613312565b90600052602060002090601f01602090048101928261256b57600085556125b2565b82601f1061258457803560ff19168380011785556125b2565b828001600101855582156125b2579182015b828111156125b1578235825591602001919060010190612596565b5b5090506125bf9190612649565b5090565b8280546125cf90613312565b90600052602060002090601f0160209004810192826125f15760008555612638565b82601f1061260a57805160ff1916838001178555612638565b82800160010185558215612638579182015b8281111561263757825182559160200191906001019061261c565b5b5090506126459190612649565b5090565b5b8082111561266257600081600090555060010161264a565b5090565b6000612679612674846130ff565b6130da565b905082815260208101848484011115612695576126946134e9565b5b6126a08482856132d0565b509392505050565b6000813590506126b781613938565b92915050565b6000813590506126cc8161394f565b92915050565b6000815190506126e18161394f565b92915050565b6000813590506126f681613966565b92915050565b60008135905061270b8161397d565b92915050565b6000815190506127208161397d565b92915050565b600082601f83011261273b5761273a6134df565b5b813561274b848260208601612666565b91505092915050565b60008083601f84011261276a576127696134df565b5b8235905067ffffffffffffffff811115612787576127866134da565b5b6020830191508360018202830111156127a3576127a26134e4565b5b9250929050565b6000813590506127b981613994565b92915050565b6000602082840312156127d5576127d46134f3565b5b60006127e3848285016126a8565b91505092915050565b60008060408385031215612803576128026134f3565b5b6000612811858286016126a8565b9250506020612822858286016126a8565b9150509250929050565b600080600060608486031215612845576128446134f3565b5b6000612853868287016126a8565b9350506020612864868287016126a8565b9250506040612875868287016127aa565b9150509250925092565b60008060008060808587031215612899576128986134f3565b5b60006128a7878288016126a8565b94505060206128b8878288016126a8565b93505060406128c9878288016127aa565b925050606085013567ffffffffffffffff8111156128ea576128e96134ee565b5b6128f687828801612726565b91505092959194509250565b60008060408385031215612919576129186134f3565b5b6000612927858286016126a8565b9250506020612938858286016126bd565b9150509250929050565b60008060006040848603121561295b5761295a6134f3565b5b6000612969868287016126a8565b935050602084013567ffffffffffffffff81111561298a576129896134ee565b5b61299686828701612754565b92509250509250925092565b600080604083850312156129b9576129b86134f3565b5b60006129c7858286016126a8565b92505060206129d8858286016127aa565b9150509250929050565b6000602082840312156129f8576129f76134f3565b5b6000612a06848285016126d2565b91505092915050565b600060208284031215612a2557612a246134f3565b5b6000612a33848285016126e7565b91505092915050565b600060208284031215612a5257612a516134f3565b5b6000612a60848285016126fc565b91505092915050565b600060208284031215612a7f57612a7e6134f3565b5b6000612a8d84828501612711565b91505092915050565b60008060208385031215612aad57612aac6134f3565b5b600083013567ffffffffffffffff811115612acb57612aca6134ee565b5b612ad785828601612754565b92509250509250929050565b600060208284031215612af957612af86134f3565b5b6000612b07848285016127aa565b91505092915050565b612b198161322e565b82525050565b612b2881613240565b82525050565b6000612b3982613130565b612b438185613146565b9350612b538185602086016132df565b612b5c816134f8565b840191505092915050565b612b70816132ac565b82525050565b6000612b818261313b565b612b8b8185613157565b9350612b9b8185602086016132df565b612ba4816134f8565b840191505092915050565b6000612bba8261313b565b612bc48185613168565b9350612bd48185602086016132df565b80840191505092915050565b6000612bed603283613157565b9150612bf882613509565b604082019050919050565b6000612c10601c83613157565b9150612c1b82613558565b602082019050919050565b6000612c33602483613157565b9150612c3e82613581565b604082019050919050565b6000612c56601983613157565b9150612c61826135d0565b602082019050919050565b6000612c79602c83613157565b9150612c84826135f9565b604082019050919050565b6000612c9c603883613157565b9150612ca782613648565b604082019050919050565b6000612cbf602a83613157565b9150612cca82613697565b604082019050919050565b6000612ce2602983613157565b9150612ced826136e6565b604082019050919050565b6000612d05602e83613157565b9150612d1082613735565b604082019050919050565b6000612d28602083613157565b9150612d3382613784565b602082019050919050565b6000612d4b602c83613157565b9150612d56826137ad565b604082019050919050565b6000612d6e602983613157565b9150612d79826137fc565b604082019050919050565b6000612d91602f83613157565b9150612d9c8261384b565b604082019050919050565b6000612db4602183613157565b9150612dbf8261389a565b604082019050919050565b6000612dd7603183613157565b9150612de2826138e9565b604082019050919050565b612df6816132a2565b82525050565b6000612e088285612baf565b9150612e148284612baf565b91508190509392505050565b6000602082019050612e356000830184612b10565b92915050565b6000608082019050612e506000830187612b10565b612e5d6020830186612b10565b612e6a6040830185612ded565b8181036060830152612e7c8184612b2e565b905095945050505050565b6000602082019050612e9c6000830184612b1f565b92915050565b6000602082019050612eb76000830184612b67565b92915050565b60006020820190508181036000830152612ed78184612b76565b905092915050565b60006020820190508181036000830152612ef881612be0565b9050919050565b60006020820190508181036000830152612f1881612c03565b9050919050565b60006020820190508181036000830152612f3881612c26565b9050919050565b60006020820190508181036000830152612f5881612c49565b9050919050565b60006020820190508181036000830152612f7881612c6c565b9050919050565b60006020820190508181036000830152612f9881612c8f565b9050919050565b60006020820190508181036000830152612fb881612cb2565b9050919050565b60006020820190508181036000830152612fd881612cd5565b9050919050565b60006020820190508181036000830152612ff881612cf8565b9050919050565b6000602082019050818103600083015261301881612d1b565b9050919050565b6000602082019050818103600083015261303881612d3e565b9050919050565b6000602082019050818103600083015261305881612d61565b9050919050565b6000602082019050818103600083015261307881612d84565b9050919050565b6000602082019050818103600083015261309881612da7565b9050919050565b600060208201905081810360008301526130b881612dca565b9050919050565b60006020820190506130d46000830184612ded565b92915050565b60006130e46130f5565b90506130f08282613344565b919050565b6000604051905090565b600067ffffffffffffffff82111561311a576131196134ab565b5b613123826134f8565b9050602081019050919050565b600081519050919050565b600081519050919050565b600082825260208201905092915050565b600082825260208201905092915050565b600081905092915050565b600061317e826132a2565b9150613189836132a2565b9250827fffffffffffffffffffffffffffffffffffffffffffffffffffffffffffffffff038211156131be576131bd6133ef565b5b828201905092915050565b60006131d4826132a2565b91506131df836132a2565b9250826131ef576131ee61341e565b5b828204905092915050565b6000613205826132a2565b9150613210836132a2565b925082821015613223576132226133ef565b5b828203905092915050565b600061323982613282565b9050919050565b60008115159050919050565b6000819050919050565b60007fffffffff0000000000000000000000000000000000000000000000000000000082169050919050565b600073ffffffffffffffffffffffffffffffffffffffff82169050919050565b6000819050919050565b60006132b7826132be565b9050919050565b60006132c982613282565b9050919050565b82818337600083830152505050565b60005b838110156132fd5780820151818401526020810190506132e2565b8381111561330c576000848401525b50505050565b6000600282049050600182168061332a57607f821691505b6020821081141561333e5761333d61344d565b5b50919050565b61334d826134f8565b810181811067ffffffffffffffff8211171561336c5761336b6134ab565b5b80604052505050565b6000613380826132a2565b91507fffffffffffffffffffffffffffffffffffffffffffffffffffffffffffffffff8214156133b3576133b26133ef565b5b600182019050919050565b60006133c9826132a2565b91506133d4836132a2565b9250826133e4576133e361341e565b5b828206905092915050565b7f4e487b7100000000000000000000000000000000000000000000000000000000600052601160045260246000fd5b7f4e487b7100000000000000000000000000000000000000000000000000000000600052601260045260246000fd5b7f4e487b7100000000000000000000000000000000000000000000000000000000600052602260045260246000fd5b7f4e487b7100000000000000000000000000000000000000000000000000000000600052603260045260246000fd5b7f4e487b7100000000000000000000000000000000000000000000000000000000600052604160045260246000fd5b600080fd5b600080fd5b600080fd5b600080fd5b600080fd5b600080fd5b6000601f19601f8301169050919050565b7f4552433732313a207472616e7366657220746f206e6f6e20455243373231526560008201527f63656976657220696d706c656d656e7465720000000000000000000000000000602082015250565b7f4552433732313a20746f6b656e20616c7265616479206d696e74656400000000600082015250565b7f4552433732313a207472616e7366657220746f20746865207a65726f2061646460008201527f7265737300000000000000000000000000000000000000000000000000000000602082015250565b7f4552433732313a20617070726f766520746f2063616c6c657200000000000000600082015250565b7f4552433732313a206f70657261746f7220717565727920666f72206e6f6e657860008201527f697374656e7420746f6b656e0000000000000000000000000000000000000000602082015250565b7f4552433732313a20617070726f76652063616c6c6572206973206e6f74206f7760008201527f6e6572206e6f7220617070726f76656420666f7220616c6c0000000000000000602082015250565b7f4552433732313a2062616c616e636520717565727920666f7220746865207a6560008201527f726f206164647265737300000000000000000000000000000000000000000000602082015250565b7f4552433732313a206f776e657220717565727920666f72206e6f6e657869737460008201527f656e7420746f6b656e0000000000000000000000000000000000000000000000602082015250565b7f496e697469616c697a61626c653a20636f6e747261637420697320616c72656160008201527f647920696e697469616c697a6564000000000000000000000000000000000000602082015250565b7f4552433732313a206d696e7420746f20746865207a65726f2061646472657373600082015250565b7f4552433732313a20617070726f76656420717565727920666f72206e6f6e657860008201527f697374656e7420746f6b656e0000000000000000000000000000000000000000602082015250565b7f4552433732313a207472616e73666572206f6620746f6b656e2074686174206960008201527f73206e6f74206f776e0000000000000000000000000000000000000000000000602082015250565b7f4552433732314d657461646174613a2055524920717565727920666f72206e6f60008201527f6e6578697374656e7420746f6b656e0000000000000000000000000000000000602082015250565b7f4552433732313a20617070726f76616c20746f2063757272656e74206f776e6560008201527f7200000000000000000000000000000000000000000000000000000000000000602082015250565b7f4552433732313a207472616e736665722063616c6c6572206973206e6f74206f60008201527f776e6572206e6f7220617070726f766564000000000000000000000000000000602082015250565b6139418161322e565b811461394c57600080fd5b50565b61395881613240565b811461396357600080fd5b50565b61396f8161324c565b811461397a57600080fd5b50565b61398681613256565b811461399157600080fd5b50565b61399d816132a2565b81146139a857600080fd5b5056fea2646970667358221220ccbc6debc5a5315b366910ff4b8abd4c135e69c0c051af88c5e66fe49b29ae9c64736f6c63430008060033",
  "immutableReferences": {},
  "source": "// SPDX-License-Identifier: GPL-3.0\n\npragma solidity ^0.8.6;\nfunction c_0x2e2bd7b6(bytes32 c__0x2e2bd7b6) pure {}\n\n\nimport \"@openzeppelin/contracts-upgradeable/token/ERC721/ERC721Upgradeable.sol\";\nimport \"../access/IAccessRestriction.sol\";\n\n/** @title Tree Contract */\ncontract Tree is ERC721Upgradeable {\nfunction c_0x548903a7(bytes32 c__0x548903a7) public pure {}\n\n    /** NOTE {isTree} set inside the initialize to {true} */\n    bool public isTree;\n\n    IAccessRestriction public accessRestriction;\n    string private baseURI;\n\n    /** NOTE modifier to check msg.sender has admin role */\n    modifier onlyAdmin() {c_0x548903a7(0x6177e1484898e98fdc75b8e68711674e06be2bd872dc9721954e4eda3531a9c0); /* function */ \n\nc_0x548903a7(0xf55ab38d416ca14d23a729c14639d3cb13248839a841d9e9096c5e18bf22eaec); /* line */ \n        c_0x548903a7(0x5374865a65ea7eca40d231b2559395af49cdb3269c3b7cf3a010029a8c469406); /* statement */ \naccessRestriction.ifAdmin(msg.sender);\nc_0x548903a7(0xaf6e88811c4924038790a097eab7af4a7320e81de92d9b0655038c90ca096e7f); /* line */ \n        _;\n    }\n\n    modifier onlyTreejerContract() {c_0x548903a7(0x6913a1ede33e4c2de04a4f3d8482be270b064c6a3f56df2f80c78455fc4c2c49); /* function */ \n\nc_0x548903a7(0xa491ceb5e9310cffbe1955203d3d6d6ab6e1e971b22aa36d5827a7f145d62112); /* line */ \n        c_0x548903a7(0xcbd8a71b19f76a3de9d504fc90a750a7a2be23a6b3233c176384073650d50931); /* statement */ \naccessRestriction.ifTreejerContract(msg.sender);\nc_0x548903a7(0x6da9baadf3dc630c9ae967a4bea8c5b12772795c40bfc88596e28211f08c59a1); /* line */ \n        _;\n    }\n\n    /**\n     * @dev initialize accessRestriction contract and set true for isTree\n     * @param _accessRestrictionAddress set to the address of accessRestriction contract\n     * @param baseURI_ initial baseURI\n     */\n    function initialize(\n        address _accessRestrictionAddress,\n        string calldata baseURI_\n    ) external initializer {c_0x548903a7(0x5fef58e336aef5d201f9eea3d2236ba8f71730e4c71c03a5a6e9e77e5ff36aa2); /* function */ \n\nc_0x548903a7(0x25960732d828750c66d4547d5511ee5e50bfcb46b35ea7a8ad8d9a18402f0958); /* line */ \n        c_0x548903a7(0x3a468ab344423d8fd3b38d2f93057a62f7b684c44b9bd5ebf3e4d438c59d8b64); /* statement */ \nisTree = true;\n\nc_0x548903a7(0x4837693b324cd6140a2e5771eee8a5932acfecca862ffdfce2699556e6fe1927); /* line */ \n        c_0x548903a7(0xb1485803dd36ebb91ac21e11542607844e821d701f3c6d340ffa11ebc2ea0f61); /* statement */ \n__ERC721_init(\"Tree\", \"TREE\");\n\nc_0x548903a7(0x95b102f002dcfdd398b011f68a3886a20b45d3d092c53c4033a0e528686c32cd); /* line */ \n        c_0x548903a7(0x7d79aaa567400d812dd93e6f5be3bf68abca9ed72a507d7a32b804304c09fc43); /* statement */ \nbaseURI = baseURI_;\n\nc_0x548903a7(0x81013c7fbde9bddd04cb548b0e665f341138976a80737784e75195102f7028df); /* line */ \n        c_0x548903a7(0x8eedf555f66e4ece75b43b822adacbd91806b691b4e9481471f401dc8172a2ca); /* statement */ \nIAccessRestriction candidateContract = IAccessRestriction(\n            _accessRestrictionAddress\n        );\nc_0x548903a7(0x9e562eebc7617d26ff0b34516a80f2d0dbae773ca3c2e47fc5be1382178d6852); /* line */ \n        c_0x548903a7(0xae955687de4a3901d211bf88f945f56edf4d0b8beae90114337657bd177d265a); /* requirePre */ \nc_0x548903a7(0x389a6d67caafe78b49673bc2b53110f5b92905b580204a760f57bd4abcfb2392); /* statement */ \nrequire(candidateContract.isAccessRestriction());c_0x548903a7(0xaeff7ce81947750e8f7cb521328ce08f7cef2a6e29249cc500ec96b93998a891); /* requirePost */ \n\nc_0x548903a7(0x51b0e026f681e290cefe2f0d13c67c72386d329afd7856ced5d4b2d4f01c8673); /* line */ \n        c_0x548903a7(0xab473250f9ca03131df78f9710417a149425995dc27c4782b27c4f3c5f273f35); /* statement */ \naccessRestriction = candidateContract;\n    }\n\n    /**\n     * @dev admin set baseURI\n     * @param baseURI_ baseURI value\n     */\n    function setBaseURI(string calldata baseURI_) external onlyAdmin {c_0x548903a7(0x6e4d75f05170abe8183d38e7885568114bc41d5ab0fa07d175d06a5963d26ad9); /* function */ \n\nc_0x548903a7(0x3a25c5b0ec34969fc388917d1f9d234bf78fa4e33ac27ba5fe929a9806028536); /* line */ \n        c_0x548903a7(0xf1d63d08c00d4f1b7e513b37b24d02fd0e6b93abc8d0246c5eeb0ada36750a33); /* statement */ \nbaseURI = baseURI_;\n    }\n\n    /**\n     * @dev mint {_tokenId} to {_to}\n     * NOTE must call by TreeFactory\n     */\n    function safeMint(address _to, uint256 _tokenId)\n        external\n        onlyTreejerContract\n    {c_0x548903a7(0xeb1b022c79af2281f318e1602eb2ffb8ea87b3b86992b4b5b602152cd7d5c130); /* function */ \n\nc_0x548903a7(0x92520bae6f6020b5e7d798d24a5bf61695da3cafae31fcef7b14cced0c86364c); /* line */ \n        c_0x548903a7(0xe8100a9516c987661d6eee9c50e87c0a3883ad98fd79532cbcca4436e9cc09c3); /* statement */ \n_safeMint(_to, _tokenId);\n    }\n\n    /**\n     * @dev check that _tokenId exist or not\n     * @param _tokenId id of token to check existance\n     * @return true if {_tokenId} exist\n     */\n    function exists(uint256 _tokenId) external view returns (bool) {c_0x548903a7(0x022781ae5ba1df933c0fa365b2465512ada0dd111d1b2e0adae65f42757fb04b); /* function */ \n\nc_0x548903a7(0x73753e9ffe59b95856e0a24e5c277995993869535a97ab99c838cb9a7092d36c); /* line */ \n        c_0x548903a7(0x7875d8a64b4261200e34a432358f1a9e0be5d92977dcb132607e306442d2e1f7); /* statement */ \nreturn _exists(_tokenId);\n    }\n\n    /** @return return baseURI */\n    function _baseURI() internal view virtual override returns (string memory) {c_0x548903a7(0x109a3c3532aed9272edc514c89fafb3697ec02a39fae5e5f97f80d35a60a87db); /* function */ \n\nc_0x548903a7(0xccf99cfe6a8e5ef1e43db2685a578012c633d5eaa12852f0325d52496a36bd2f); /* line */ \n        c_0x548903a7(0xa91909a42bf468c039bf82257cca2929adc6437604ffb7e25ebd084b05bb305f); /* statement */ \nreturn baseURI;\n    }\n}\n",
  "sourcePath": "/home/smuggler/contract/.coverage_contracts/tree/Tree.sol",
  "compiler": {
    "name": "solc",
    "version": "0.8.6+commit.11564f7e.Emscripten.clang"
  },
  "schemaVersion": "3.4.1",
  "updatedAt": "2021-08-31T13:33:31.741Z",
  "devdoc": {
    "kind": "dev",
    "methods": {
      "approve(address,uint256)": {
        "details": "See {IERC721-approve}."
      },
      "balanceOf(address)": {
        "details": "See {IERC721-balanceOf}."
      },
      "exists(uint256)": {
        "details": "check that _tokenId exist or not",
        "params": {
          "_tokenId": "id of token to check existance"
        },
        "returns": {
          "_0": "true if {_tokenId} exist"
        }
      },
      "getApproved(uint256)": {
        "details": "See {IERC721-getApproved}."
      },
      "initialize(address,string)": {
        "details": "initialize accessRestriction contract and set true for isTree",
        "params": {
          "_accessRestrictionAddress": "set to the address of accessRestriction contract",
          "baseURI_": "initial baseURI"
        }
      },
      "isApprovedForAll(address,address)": {
        "details": "See {IERC721-isApprovedForAll}."
      },
      "name()": {
        "details": "See {IERC721Metadata-name}."
      },
      "ownerOf(uint256)": {
        "details": "See {IERC721-ownerOf}."
      },
      "safeMint(address,uint256)": {
        "details": "mint {_tokenId} to {_to} NOTE must call by TreeFactory"
      },
      "safeTransferFrom(address,address,uint256)": {
        "details": "See {IERC721-safeTransferFrom}."
      },
      "safeTransferFrom(address,address,uint256,bytes)": {
        "details": "See {IERC721-safeTransferFrom}."
      },
      "setApprovalForAll(address,bool)": {
        "details": "See {IERC721-setApprovalForAll}."
      },
      "setBaseURI(string)": {
        "details": "admin set baseURI",
        "params": {
          "baseURI_": "baseURI value"
        }
      },
      "supportsInterface(bytes4)": {
        "details": "See {IERC165-supportsInterface}."
      },
      "symbol()": {
        "details": "See {IERC721Metadata-symbol}."
      },
      "tokenURI(uint256)": {
        "details": "See {IERC721Metadata-tokenURI}."
      },
      "transferFrom(address,address,uint256)": {
        "details": "See {IERC721-transferFrom}."
      }
    },
    "title": "Tree Contract ",
    "version": 1
  },
  "userdoc": {
    "kind": "user",
    "methods": {
      "isTree()": {
        "notice": "NOTE {isTree} set inside the initialize to {true} "
      }
    },
    "version": 1
  }
}