{
  "contractName": "TreeAuction",
  "abi": [
    {
      "anonymous": false,
      "inputs": [
        {
          "indexed": false,
          "internalType": "uint256",
          "name": "auctionId",
          "type": "uint256"
        }
      ],
      "name": "AuctionCreated",
      "type": "event"
    },
    {
      "anonymous": false,
      "inputs": [
        {
          "indexed": false,
          "internalType": "uint256",
          "name": "auctionId",
          "type": "uint256"
        },
        {
          "indexed": false,
          "internalType": "uint256",
          "name": "newAuctionEndTime",
          "type": "uint256"
        }
      ],
      "name": "AuctionEndTimeIncreased",
      "type": "event"
    },
    {
      "anonymous": false,
      "inputs": [
        {
          "indexed": false,
          "internalType": "uint256",
          "name": "auctionId",
          "type": "uint256"
        },
        {
          "indexed": false,
          "internalType": "uint256",
          "name": "treeId",
          "type": "uint256"
        }
      ],
      "name": "AuctionEnded",
      "type": "event"
    },
    {
      "anonymous": false,
      "inputs": [
        {
          "indexed": false,
          "internalType": "uint256",
          "name": "auctionId",
          "type": "uint256"
        },
        {
          "indexed": false,
          "internalType": "uint256",
          "name": "treeId",
          "type": "uint256"
        },
        {
          "indexed": false,
          "internalType": "address",
          "name": "winner",
          "type": "address"
        },
        {
          "indexed": false,
          "internalType": "uint256",
          "name": "amount",
          "type": "uint256"
        }
      ],
      "name": "AuctionSettled",
      "type": "event"
    },
    {
      "anonymous": false,
      "inputs": [
        {
          "indexed": false,
          "internalType": "uint256",
          "name": "auctionId",
          "type": "uint256"
        },
        {
          "indexed": false,
          "internalType": "uint256",
          "name": "treeId",
          "type": "uint256"
        },
        {
          "indexed": false,
          "internalType": "address",
          "name": "bidder",
          "type": "address"
        },
        {
          "indexed": false,
          "internalType": "uint256",
          "name": "amount",
          "type": "uint256"
        }
      ],
      "name": "HighestBidIncreased",
      "type": "event"
    },
    {
      "inputs": [],
      "name": "accessRestriction",
      "outputs": [
        {
          "internalType": "contract IAccessRestriction",
          "name": "",
          "type": "address"
        }
      ],
      "stateMutability": "view",
      "type": "function"
    },
    {
      "inputs": [
        {
          "internalType": "uint256",
          "name": "",
          "type": "uint256"
        }
      ],
      "name": "auctions",
      "outputs": [
        {
          "internalType": "uint256",
          "name": "treeId",
          "type": "uint256"
        },
        {
          "internalType": "address",
          "name": "bidder",
          "type": "address"
        },
        {
          "internalType": "uint64",
          "name": "startDate",
          "type": "uint64"
        },
        {
          "internalType": "uint64",
          "name": "endDate",
          "type": "uint64"
        },
        {
          "internalType": "uint256",
          "name": "highestBid",
          "type": "uint256"
        },
        {
          "internalType": "uint256",
          "name": "bidInterval",
          "type": "uint256"
        }
      ],
      "stateMutability": "view",
      "type": "function"
    },
    {
      "inputs": [
        {
          "internalType": "bytes32",
          "name": "c__0x07853504",
          "type": "bytes32"
        }
      ],
      "name": "c_0x07853504",
      "outputs": [],
      "stateMutability": "pure",
      "type": "function"
    },
    {
      "inputs": [],
      "name": "financialModel",
      "outputs": [
        {
          "internalType": "contract IFinancialModel",
          "name": "",
          "type": "address"
        }
      ],
      "stateMutability": "view",
      "type": "function"
    },
    {
      "inputs": [],
      "name": "isTreeAuction",
      "outputs": [
        {
          "internalType": "bool",
          "name": "",
          "type": "bool"
        }
      ],
      "stateMutability": "view",
      "type": "function"
    },
    {
      "inputs": [
        {
          "internalType": "address",
          "name": "forwarder",
          "type": "address"
        }
      ],
      "name": "isTrustedForwarder",
      "outputs": [
        {
          "internalType": "bool",
          "name": "",
          "type": "bool"
        }
      ],
      "stateMutability": "view",
      "type": "function"
    },
    {
      "inputs": [],
      "name": "treeFactory",
      "outputs": [
        {
          "internalType": "contract ITreeFactory",
          "name": "",
          "type": "address"
        }
      ],
      "stateMutability": "view",
      "type": "function"
    },
    {
      "inputs": [],
      "name": "trustedForwarder",
      "outputs": [
        {
          "internalType": "address",
          "name": "",
          "type": "address"
        }
      ],
      "stateMutability": "view",
      "type": "function"
    },
    {
      "inputs": [],
      "name": "versionRecipient",
      "outputs": [
        {
          "internalType": "string",
          "name": "",
          "type": "string"
        }
      ],
      "stateMutability": "pure",
      "type": "function"
    },
    {
      "inputs": [],
      "name": "wethFunds",
      "outputs": [
        {
          "internalType": "contract IWethFunds",
          "name": "",
          "type": "address"
        }
      ],
      "stateMutability": "view",
      "type": "function"
    },
    {
      "inputs": [],
      "name": "wethToken",
      "outputs": [
        {
          "internalType": "contract IERC20Upgradeable",
          "name": "",
          "type": "address"
        }
      ],
      "stateMutability": "view",
      "type": "function"
    },
    {
      "inputs": [
        {
          "internalType": "bytes32",
          "name": "c__0x3885e695",
          "type": "bytes32"
        }
      ],
      "name": "c_0x3885e695",
      "outputs": [],
      "stateMutability": "pure",
      "type": "function"
    },
    {
      "inputs": [
        {
          "internalType": "address",
          "name": "_accessRestrictionAddress",
          "type": "address"
        }
      ],
      "name": "initialize",
      "outputs": [],
      "stateMutability": "nonpayable",
      "type": "function"
    },
    {
      "inputs": [
        {
          "internalType": "address",
          "name": "_address",
          "type": "address"
        }
      ],
      "name": "setTrustedForwarder",
      "outputs": [],
      "stateMutability": "nonpayable",
      "type": "function"
    },
    {
      "inputs": [
        {
          "internalType": "address",
          "name": "_address",
          "type": "address"
        }
      ],
      "name": "setTreeFactoryAddress",
      "outputs": [],
      "stateMutability": "nonpayable",
      "type": "function"
    },
    {
      "inputs": [
        {
          "internalType": "address",
          "name": "_address",
          "type": "address"
        }
      ],
      "name": "setFinancialModelAddress",
      "outputs": [],
      "stateMutability": "nonpayable",
      "type": "function"
    },
    {
      "inputs": [
        {
          "internalType": "address",
          "name": "_address",
          "type": "address"
        }
      ],
      "name": "setWethFundsAddress",
      "outputs": [],
      "stateMutability": "nonpayable",
      "type": "function"
    },
    {
      "inputs": [
        {
          "internalType": "address",
          "name": "_address",
          "type": "address"
        }
      ],
      "name": "setWethTokenAddress",
      "outputs": [],
      "stateMutability": "nonpayable",
      "type": "function"
    },
    {
      "inputs": [
        {
          "internalType": "uint256",
          "name": "_treeId",
          "type": "uint256"
        },
        {
          "internalType": "uint64",
          "name": "_startDate",
          "type": "uint64"
        },
        {
          "internalType": "uint64",
          "name": "_endDate",
          "type": "uint64"
        },
        {
          "internalType": "uint256",
          "name": "_intialPrice",
          "type": "uint256"
        },
        {
          "internalType": "uint256",
          "name": "_bidInterval",
          "type": "uint256"
        }
      ],
      "name": "createAuction",
      "outputs": [],
      "stateMutability": "nonpayable",
      "type": "function"
    },
    {
      "inputs": [
        {
          "internalType": "uint256",
          "name": "_auctionId",
          "type": "uint256"
        },
        {
          "internalType": "uint256",
          "name": "_amount",
          "type": "uint256"
        }
      ],
      "name": "bid",
      "outputs": [],
      "stateMutability": "nonpayable",
      "type": "function"
    },
    {
      "inputs": [
        {
          "internalType": "uint256",
          "name": "_auctionId",
          "type": "uint256"
        }
      ],
      "name": "endAuction",
      "outputs": [],
      "stateMutability": "nonpayable",
      "type": "function"
    }
  ],
  "bytecode": "0x608060405234801561001057600080fd5b5061558280620000216000396000f3fe608060405234801561001057600080fd5b50600436106101375760003560e01c80636acc9777116100b8578063c4d66de81161007c578063c4d66de814610317578063c56c367414610333578063d5ffe88d14610351578063d6762c4a1461036d578063da7422281461038b578063e787d40e146103a757610137565b80636acc9777146102875780637da0a877146102a35780638576e4be146102c157806395b64603146102dd578063b9a2de3a146102fb57610137565b80634b57b0be116100ff5780634b57b0be146101cc5780634fe044c4146101ea578063571a26a014610206578063572b6c051461023b578063598647f81461026b57610137565b806309172ea61461013c5780630bf351f8146101585780632aad7f7614610174578063421ef6d414610190578063486ff0cd146101ae575b600080fd5b61015660048036038101906101519190614780565b6103c5565b005b610172600480360381019061016d91906145a9565b610da6565b005b61018e600480360381019061018991906145a9565b611145565b005b6101986114e4565b6040516101a59190614bb6565b60405180910390f35b6101b661150a565b6040516101c39190614bec565b60405180910390f35b6101d46115cb565b6040516101e19190614b80565b60405180910390f35b61020460048036038101906101ff91906145a9565b6115f1565b005b610220600480360381019061021b91906146e6565b611990565b60405161023296959493929190614dc0565b60405180910390f35b610255600480360381019061025091906145a9565b611a14565b6040516102629190614b4a565b60405180910390f35b61028560048036038101906102809190614740565b611a6d565b005b6102a1600480360381019061029c91906145a9565b6128e4565b005b6102ab612cc6565b6040516102b89190614ab4565b60405180910390f35b6102db60048036038101906102d69190614603565b612cec565b005b6102e5612cef565b6040516102f29190614b9b565b60405180910390f35b610315600480360381019061031091906146e6565b612d15565b005b610331600480360381019061032c91906145a9565b613a73565b005b61033b613e1a565b6040516103489190614b4a565b60405180910390f35b61036b60048036038101906103669190614603565b613e2d565b005b610375613e30565b6040516103829190614b65565b60405180910390f35b6103a560048036038101906103a091906145a9565b613e56565b005b6103af6141da565b6040516103bc9190614bd1565b60405180910390f35b6103f17f4f0d9fe6cce5087efdfd438dc5f8fa06dd56cf53de7b7de678d213b81af810be60001b613e2d565b61041d7f514ffaa2ba835075a6f421495dd821934b9605282b0bb0016f0f08ba0ff2401360001b613e2d565b6104497f220bbc059ca01aa34a6276590786c37a1d8afec77352268d3e69846d4f2ae9fc60001b613e2d565b600260019054906101000a900473ffffffffffffffffffffffffffffffffffffffff1673ffffffffffffffffffffffffffffffffffffffff16634d868f986040518163ffffffff1660e01b815260040160006040518083038186803b1580156104b157600080fd5b505afa1580156104c5573d6000803e3d6000fd5b505050506104f57f30e45b2d41891bfacf7f97d97bc6d079cbc3dfff454eef963b8fb6f50d73a8d360001b613e2d565b6105217fda9cd017d84f2d0e1e5c57cb824ee81afec7c5ea2fc946f766dd02beef72709060001b613e2d565b61054d7fd92232571023b6f62734f1cb4b9adee0788ecbe068a9849e9d9df8d1a7831ddc60001b613e2d565b6105797f4524f92fe008e14ae64d7478e413cb0eaf3dfb42f17cf2949b9eb12c3416e8c860001b613e2d565b600260019054906101000a900473ffffffffffffffffffffffffffffffffffffffff1673ffffffffffffffffffffffffffffffffffffffff1663c4d2a31b6105bf614200565b6040518263ffffffff1660e01b81526004016105db9190614acf565b60006040518083038186803b1580156105f357600080fd5b505afa158015610607573d6000803e3d6000fd5b505050506106377fab5d7f3c14cf1b5e1cc9040d058b0c7af0317c500d608d73fc1a207b456a679560001b613e2d565b6106637f34323399ebfd1c06aa665013e822f298b228ac3d1db7c2b5cd012e1f29bd55da60001b613e2d565b61068f7f7ade5cc3735cbd8f05a5fc678e8dc68221e840620c982fd812dc37d7abe8090060001b613e2d565b6106bb7f687996eb47f1782931820b745abde9aeb49ed7d8550454926c7d91c62c1ed32360001b613e2d565b6106e77f96c8b4fa16cee1169de9c724c768279ba9db42c587e38cdee8eaa3b38f82cf0f60001b613e2d565b600560009054906101000a900473ffffffffffffffffffffffffffffffffffffffff1673ffffffffffffffffffffffffffffffffffffffff1663cb8b5da3866040518263ffffffff1660e01b81526004016107429190614d6e565b60206040518083038186803b15801561075a57600080fd5b505afa15801561076e573d6000803e3d6000fd5b505050506040513d601f19601f8201168201806040525081019061079291906145d6565b6107d1576040517f08c379a00000000000000000000000000000000000000000000000000000000081526004016107c890614d4e565b60405180910390fd5b6107fd7f7a01b36b703b8efdfd1aa122112678ecce3e424cf0610c041057dd1eb489a1ff60001b613e2d565b6108297ff5e10368fd88be2633b060820ec1d13ef6623a26b14c98eb79a64a1fdc11e7af60001b613e2d565b6108557fa6824bd97eb1efbf3f9961a325fb1a35d4e7a25f9ed7c5b914ed5febfa6733c260001b613e2d565b6000600360009054906101000a900473ffffffffffffffffffffffffffffffffffffffff1673ffffffffffffffffffffffffffffffffffffffff1663dffc3c5c8760016040518363ffffffff1660e01b81526004016108b5929190614e21565b602060405180830381600087803b1580156108cf57600080fd5b505af11580156108e3573d6000803e3d6000fd5b505050506040513d601f19601f8201168201806040525081019061090791906147fb565b90506109357f0f575e45361399057b3d1ba5c7590942a0901928298cd8fc687e6d4b174d2ed360001b613e2d565b6109617fa5d565c4ea8de51dc8c33c1f21312ba37320c216292f99ca95396689af0dc35160001b613e2d565b61098d7fdd36b81f4e59694af92b7847cd2f3646e5b8f1ec597c1e595264ef101fc14d7860001b613e2d565b60008163ffffffff16146109d6576040517f08c379a00000000000000000000000000000000000000000000000000000000081526004016109cd90614cce565b60405180910390fd5b610a027f28a72cd7805e21be3f548b3e1f4ba586b9fe0f21c04a0d344b186ce6c17ca4ff60001b613e2d565b610a2e7ffb236f99394f76e3c004150161174af58b4b86d7b9bcd1a06967456740a7008160001b613e2d565b610a5a7f25bf23c37adb95061ef9d64495d896efe546a34aac313d0f804ed0738f4a509b60001b613e2d565b600060076000610a6a600161423c565b81526020019081526020016000209050610aa67f42dd2c1623e518a1b23da2e84f086ec6c841547c8f4868ccd9ae502264ada13f60001b613e2d565b610ad27f8caeca4372ddf91b8279c659c80290a74795f32a883f0911888ee4d52746ec8760001b613e2d565b868160000181905550610b077f6dc4073d906960aaca883f6a5c52c88ab7c375691992e6518c2f0a1e5ad444bb60001b613e2d565b610b337f87f4ecd5e5c581b8c45a8001c5885c83d333671d4e16119d46f3031254dfd52a60001b613e2d565b858160010160146101000a81548167ffffffffffffffff021916908367ffffffffffffffff160217905550610b8a7f5868a2f7f72b48b0edf69a20124f3ffda07eed77eda9e8af05db602fbeaf714e60001b613e2d565b610bb67fd1eb745e14199583699a37a24baebb986a1e36224d32e5ef74f3bda42ca36af760001b613e2d565b848160020160006101000a81548167ffffffffffffffff021916908367ffffffffffffffff160217905550610c0d7fc6c6df25d7578cd4ffa58c1cd3792942d0f44c806a5cbfd5491d932f8feb035160001b613e2d565b610c397fb881e6fc05ac5688423b2aa06823823f4c5b0e417431489d6cdb75b841237c4660001b613e2d565b838160030181905550610c6e7fd3d4fa735780468d5cd2432a42572acee8d1b717962d567b03f08d4cd0fd2c7c60001b613e2d565b610c9a7f47c0bf470778fb569597c455f3498f0799c1823ba9d79583746a0e8278f7983560001b613e2d565b828160040181905550610ccf7f21195ba079ce8422ef1fda3ad89878a1fedb6aaaf095387110eafc636e1c995260001b613e2d565b610cfb7f7cfdf77e3dbfc3bc60d6d4c08fadb1b0c390ed8f4836d7fc8625237dd9e8ff0060001b613e2d565b7f7e0e356457a92dacd3760ddf327a24dd226c6ca01b2cc41a7fd6f28469c7ab9b610d26600161423c565b604051610d339190614d6e565b60405180910390a1610d677f86965be0d25458267bff7c965fdb2fe668b15cc70e2b33e03af77761ad53fd0060001b613e2d565b610d937f9596cf6414feb2e741ce87c984ba929040154007961e92c81b2657d44de185b060001b613e2d565b610d9d600161424a565b50505050505050565b610dd27fa940f955ec71814bfd5552453f5a3b981535728c26551d4a1adadef5210b4d6a60001b613e2d565b610dfe7f078aa95a07a378b287c4263e2d68f71cd26b86d134432f28aaddd18e1153d54660001b613e2d565b610e2a7fd69abad78dfe01e56a925091bb6389a650f8896a9b2c32691de1b2ba09aee51060001b613e2d565b600260019054906101000a900473ffffffffffffffffffffffffffffffffffffffff1673ffffffffffffffffffffffffffffffffffffffff16638413ec14610e70614200565b6040518263ffffffff1660e01b8152600401610e8c9190614acf565b60006040518083038186803b158015610ea457600080fd5b505afa158015610eb8573d6000803e3d6000fd5b50505050610ee87f4e9acb8a9a9f789548dd42d5ace19b578a46ef4ef79951528e2ab58de4582d9e60001b613e2d565b610f147f3754776548f7aec93bde837e34b706bb02ac93b668e224f712e5d4d1086e8dd860001b613e2d565b610f407f59e8465ce0c4a523d1ab3590e75ec96d01aeb90b1536a3bf1375dbc4a6e6205d60001b613e2d565b610f6c7f173ad34950aec8c5332c48e44e7b8b3352d0ba29ffae37d67606760b8cfd4b5f60001b613e2d565b6000819050610f9d7fb2427e83b801364ab4553a304618561e9aabb51f9a258fa31e8946a8296bccbc60001b613e2d565b610fc97f8f5fccc7a7996ec6b09331061a98d8ef87cc1bf9576fde41602d3befe49ba9e660001b613e2d565b610ff57f75e8bd75b5ae7291cac67b67c3471f66217f0a8a9e41b6ad1f3af0145561fc7160001b613e2d565b8073ffffffffffffffffffffffffffffffffffffffff1663e0eb4eb96040518163ffffffff1660e01b815260040160206040518083038186803b15801561103b57600080fd5b505afa15801561104f573d6000803e3d6000fd5b505050506040513d601f19601f8201168201806040525081019061107391906145d6565b61107c57600080fd5b6110a87fd0e60ee532b000c45f308adddb07ec50ccbf8672195fdab8e0dae7f2f5dd5e9b60001b613e2d565b6110d47f95a936fd769ef3647376e52100aa9497cad8def1a445a7430668c3a343e599f760001b613e2d565b6111007faa5f508f663cc2bdfc25b933142ad7c79280d55ab9de36f8bab8c1f784026eb960001b613e2d565b80600360006101000a81548173ffffffffffffffffffffffffffffffffffffffff021916908373ffffffffffffffffffffffffffffffffffffffff1602179055505050565b6111717fa940f955ec71814bfd5552453f5a3b981535728c26551d4a1adadef5210b4d6a60001b613e2d565b61119d7f078aa95a07a378b287c4263e2d68f71cd26b86d134432f28aaddd18e1153d54660001b613e2d565b6111c97fd69abad78dfe01e56a925091bb6389a650f8896a9b2c32691de1b2ba09aee51060001b613e2d565b600260019054906101000a900473ffffffffffffffffffffffffffffffffffffffff1673ffffffffffffffffffffffffffffffffffffffff16638413ec1461120f614200565b6040518263ffffffff1660e01b815260040161122b9190614acf565b60006040518083038186803b15801561124357600080fd5b505afa158015611257573d6000803e3d6000fd5b505050506112877f4e9acb8a9a9f789548dd42d5ace19b578a46ef4ef79951528e2ab58de4582d9e60001b613e2d565b6112b37ffe0b6781cd64d7ca1d4e7cf9f2c63d021bf81f6f90ae08f4bbb467d262913f4560001b613e2d565b6112df7f4c71819cf4d6710d4cfbe6db3c8faaab40c8bbc6d6682893867e03a16fc526e060001b613e2d565b61130b7f9c77e45109e4bdc68ce4fccf59598cabe8866fc44875100bc05fbd32fb1dd75f60001b613e2d565b600081905061133c7feff5567550beaf9c716a5569a1d9878df0dd48bf4e57445d766ecf549731384a60001b613e2d565b6113687f0f1fa6c32a017bccf6c608aba6762691715ab7f2cad1e34613071df9bb3dad4760001b613e2d565b6113947f7913b848b822971b134f5d4c8489e7a38d099932004fb7d53898972f97c1d16560001b613e2d565b8073ffffffffffffffffffffffffffffffffffffffff1663313b39376040518163ffffffff1660e01b815260040160206040518083038186803b1580156113da57600080fd5b505afa1580156113ee573d6000803e3d6000fd5b505050506040513d601f19601f8201168201806040525081019061141291906145d6565b61141b57600080fd5b6114477fe0260d81f82ab6584ba4eaaf543da9c5f8a388c9cc0b75b0230da151640175cf60001b613e2d565b6114737f7db5be3e57639eeb656cf582854117c8037c0cb1db60d5ab1c880f495b6100b360001b613e2d565b61149f7f0f7293fa1d2d81ad7cdcfef4221dcb88d323203fba929cc14576f8e93518193c60001b613e2d565b80600460006101000a81548173ffffffffffffffffffffffffffffffffffffffff021916908373ffffffffffffffffffffffffffffffffffffffff1602179055505050565b600360009054906101000a900473ffffffffffffffffffffffffffffffffffffffff1681565b60606115387f11dd98d6809ebd8463693ae2b3f048590b2cbe0b5871346e00a0b4c3c541174a60001b612cec565b6115647f8ba796393678d90e1644972b2432ed6c109dbd204df8ff14546d9632bbedffc560001b612cec565b6115907f5759cbc9a7bcad7b45c102beff6e42b49f3a61f90ec5bc06dbe3a1747ad6d10d60001b612cec565b6040518060400160405280601d81526020017f322e322e302b747265656a65722e6972656c6179726563697069656e74000000815250905090565b600660009054906101000a900473ffffffffffffffffffffffffffffffffffffffff1681565b61161d7fa940f955ec71814bfd5552453f5a3b981535728c26551d4a1adadef5210b4d6a60001b613e2d565b6116497f078aa95a07a378b287c4263e2d68f71cd26b86d134432f28aaddd18e1153d54660001b613e2d565b6116757fd69abad78dfe01e56a925091bb6389a650f8896a9b2c32691de1b2ba09aee51060001b613e2d565b600260019054906101000a900473ffffffffffffffffffffffffffffffffffffffff1673ffffffffffffffffffffffffffffffffffffffff16638413ec146116bb614200565b6040518263ffffffff1660e01b81526004016116d79190614acf565b60006040518083038186803b1580156116ef57600080fd5b505afa158015611703573d6000803e3d6000fd5b505050506117337f4e9acb8a9a9f789548dd42d5ace19b578a46ef4ef79951528e2ab58de4582d9e60001b613e2d565b61175f7fc46abdaebf2fb83b9e37e6887b165fa743b65b2a9374c6a7db020e1935a5c76060001b613e2d565b61178b7f5ab70b39cbad2b70bfd0d0c8e086d9e14ffd2e34176637d8b131e97cc8867a8460001b613e2d565b6117b77fbbc6bde4a83e95c35281caab9f9793ebb0fa9ee0b7a6c50e859890cddab33a2660001b613e2d565b60008190506117e87f7beed00b73fb6dbbbfcdd076c4f5abac7d6ec22269a0c1b426687f950fe1b5a460001b613e2d565b6118147ff07e400141e9e4efcc4874147c06bb572c590e822365fe3989f457dd3bb8209260001b613e2d565b6118407f0851bd15257a481f7a07d3f54e2180c94cf0b913307c4ab749182efb14351b5d60001b613e2d565b8073ffffffffffffffffffffffffffffffffffffffff1663966da5fb6040518163ffffffff1660e01b815260040160206040518083038186803b15801561188657600080fd5b505afa15801561189a573d6000803e3d6000fd5b505050506040513d601f19601f820116820180604052508101906118be91906145d6565b6118c757600080fd5b6118f37ff97787669ae720ee37fdbe64e91f1c64c40cfff285e1133be3b1473bf8d5a87f60001b613e2d565b61191f7f21ee872925cbba8bf9ae6024856e0b0dfc09ece86c9e08057f88261963537ba760001b613e2d565b61194b7f2583a18216468f1da93bb4663d21d9ddc199e45c80023024c0019c58fd16341960001b613e2d565b80600560006101000a81548173ffffffffffffffffffffffffffffffffffffffff021916908373ffffffffffffffffffffffffffffffffffffffff1602179055505050565b60076020528060005260406000206000915090508060000154908060010160009054906101000a900473ffffffffffffffffffffffffffffffffffffffff16908060010160149054906101000a900467ffffffffffffffff16908060020160009054906101000a900467ffffffffffffffff16908060030154908060040154905086565b60008060029054906101000a900473ffffffffffffffffffffffffffffffffffffffff1673ffffffffffffffffffffffffffffffffffffffff168273ffffffffffffffffffffffffffffffffffffffff16149050919050565b611a997f4f0d9fe6cce5087efdfd438dc5f8fa06dd56cf53de7b7de678d213b81af810be60001b613e2d565b611ac57f514ffaa2ba835075a6f421495dd821934b9605282b0bb0016f0f08ba0ff2401360001b613e2d565b611af17f220bbc059ca01aa34a6276590786c37a1d8afec77352268d3e69846d4f2ae9fc60001b613e2d565b600260019054906101000a900473ffffffffffffffffffffffffffffffffffffffff1673ffffffffffffffffffffffffffffffffffffffff16634d868f986040518163ffffffff1660e01b815260040160006040518083038186803b158015611b5957600080fd5b505afa158015611b6d573d6000803e3d6000fd5b50505050611b9d7f30e45b2d41891bfacf7f97d97bc6d079cbc3dfff454eef963b8fb6f50d73a8d360001b613e2d565b611bc97f0bc9513824e8d3f969d814874a9065c35fe3ae86af77353e1c65f3438c4d852e60001b613e2d565b611bf57fe3a22151b47f3c276e3248d3b02c0fe9e4a74b1d6d15ccfdb254fb3653cb145160001b613e2d565b611c217fc4fb89cf718ca472e8b17eaf78d9ecbc6ba7187a9371602c8ecbf8f125fac74b60001b613e2d565b6000600760008481526020019081526020016000209050611c647f8828a5fd22b8c3aa40192eeb1f8d00a1639db6f42498b4c3fb4a4fe87dd0c77360001b613e2d565b611c907ffe72490cee98b5eeef2aca8e77714ed11001d364509569da3ecfb321f88e49e460001b613e2d565b611cbc7f8eb8c65d0763d47a341a6ad04370357a37d8a9aee511c0df6514ca67cda7ffc360001b613e2d565b8060020160009054906101000a900467ffffffffffffffff1667ffffffffffffffff16421115611d21576040517f08c379a0000000000000000000000000000000000000000000000000000000008152600401611d1890614cae565b60405180910390fd5b611d4d7fdffef79cb69c631320be4471d8b989fff0ffb2d8c4c0c035d7e2e50f5fc9da9060001b613e2d565b611d797f2737556cccfc766a4c8ca23695be35ee95f58b927355d0fdfc955129947abe2c60001b613e2d565b611da57f2f8503441aab7fa47f6565817b0e9cc25f08d224a7bbb953c7df4e8ea2d60c3460001b613e2d565b611dd17fc32fd4593ff624f0291afff5cd5497a06ddc6a248e396d9243eb928f80b1577260001b613e2d565b8060010160149054906101000a900467ffffffffffffffff1667ffffffffffffffff16421015611e36576040517f08c379a0000000000000000000000000000000000000000000000000000000008152600401611e2d90614c0e565b60405180910390fd5b611e627fd976af056c31aaf34a90262f74dc235dbf446c05399bab88099bd2c10b9f34d560001b613e2d565b611e8e7fa987cc19d8fbf946eed509d3c2690630adeaebd60bc3e27d8f16abe0a624030a60001b613e2d565b611eba7f5015e636c5105a40148c35d234d873ff8d3951d95c1cc87a5423f3db349c27b160001b613e2d565b611ee67fc4a15683767dba24421e72ee087657d93b5b6a06a233cd5a5e07072564ce138c60001b613e2d565b80600401548160030154611efa9190614fde565b821015611f3c576040517f08c379a0000000000000000000000000000000000000000000000000000000008152600401611f3390614c6e565b60405180910390fd5b611f687fb021ece567510db6badf3d55ba1da45c37a3e50a10d797bf809f9d0d3806b17360001b613e2d565b611f947ff2fc0ea93edb666a95fbf2a76cab75773536575451e9428c62bb8f577bfd860660001b613e2d565b611fc07f924fba34762ed7d3d56d5c17d90dba5e592d4d5a9d9843a03f1dab5f65091ae560001b613e2d565b611fec7fe0916be97ed5ba5e8fa63c69ab5fa9ddc13404298942dc910bbdfdc928b3a6d860001b613e2d565b81600660009054906101000a900473ffffffffffffffffffffffffffffffffffffffff1673ffffffffffffffffffffffffffffffffffffffff166370a08231612033614200565b6040518263ffffffff1660e01b815260040161204f9190614acf565b60206040518083038186803b15801561206757600080fd5b505afa15801561207b573d6000803e3d6000fd5b505050506040513d601f19601f8201168201806040525081019061209f9190614713565b10156120e0576040517f08c379a00000000000000000000000000000000000000000000000000000000081526004016120d790614d2e565b60405180910390fd5b61210c7f122c2fb41ccd16a6f7a73d35378d38670ac9861b6b2fc9e534a180a17003355d60001b613e2d565b6121387f33906eefba78d5191529338e35bbbe9b86a551d187cc333281b199023d744cb260001b613e2d565b6121647fd92915bacd83b499a7b64e42c84b20143efbcfdc77529470dd045c2536c9e7b360001b613e2d565b6000600660009054906101000a900473ffffffffffffffffffffffffffffffffffffffff1673ffffffffffffffffffffffffffffffffffffffff166323b872dd6121ac614200565b30866040518463ffffffff1660e01b81526004016121cc93929190614aea565b602060405180830381600087803b1580156121e657600080fd5b505af11580156121fa573d6000803e3d6000fd5b505050506040513d601f19601f8201168201806040525081019061221e91906145d6565b905061224c7f6817c3f785a2c9f4828a6916bc443a9ef467b292bdc7a660b7c7617933d8b0b960001b613e2d565b6122787f934c2e886cb021b96b6077f978905ff24cdb96fa98dacb89df012a17ecdd2de660001b613e2d565b6122a47fad6e521f1abdda24220535496e01bec814a2ea62a632ba762fedf952655af6ac60001b613e2d565b806122e4576040517f08c379a00000000000000000000000000000000000000000000000000000000081526004016122db90614c4e565b60405180910390fd5b6123107f45ce4771c2d21180c21183fc94a3baf26c0b9567ad2bc49bbe774d2ae64faf7f60001b613e2d565b61233c7f7cacaf96763a4374b4d04164479b32b7712e1a41c62d3e902bd668247616c37360001b613e2d565b6123687ffd4911cdc0d1c302f16e1ab2818d1463d563904bcee13eb3edf6fd57c7be9ac260001b613e2d565b60008260010160009054906101000a900473ffffffffffffffffffffffffffffffffffffffff1690506123bd7f46139c1bf2d3183c88564b78c33410ef16ce38e1da41d91f50319f8d50cc7e5f60001b613e2d565b6123e97f9e0a240101c032625685fe2306fe2e0514f86c5d2f838e27b67ab504f8826eec60001b613e2d565b60008360030154905061241e7fb0b1e20261b8461b08afc6b7dd391514f94620365b8f6a03a10813cc0b15eabf60001b613e2d565b61244a7f37da9c923c7f718fe2b42fd342784d5c169b65618fc75abd043ca84c2351109a60001b613e2d565b84846003018190555061247f7fb201af76462f29ab3e86dd3013a96394044df52449f54ddb0d3b405b5606565d60001b613e2d565b6124ab7fc6f9838314f5ae053985aa16e7ac4a20a20613ed39badd6238498d1df9611c7b60001b613e2d565b6124b3614200565b8460010160006101000a81548173ffffffffffffffffffffffffffffffffffffffff021916908373ffffffffffffffffffffffffffffffffffffffff1602179055506125217f28595b9b451dab63d6067b4a4383f2d249f9d4440120bdf681e2808aada4110660001b613e2d565b61254d7f872b35166d33bcc7aeec02230d500749a801da18e9235cf905e6c8f3a1455a6760001b613e2d565b7f8e3b623fbb9b68a4ccf874370563de26312e47135a381cd16ea33becbbfa04b986856000015461257c614200565b8860405161258d9493929190614e73565b60405180910390a16125c17f75997cb6affb75650024758abdffc049ac0ffa169e4c2797f46c0b1c3ae5a5f660001b613e2d565b6125ed7f3e25e46d0ed7b1a7900bc58f79be85ce3768b3b34af8f0a31e2486eb64ec1e7360001b613e2d565b6125f686614260565b6126227f5cfcc43e5189e07b534fce5acc408df6a1f4ca62f8f426541163d44a7de4e9ca60001b613e2d565b61264e7f6699b0a73653b72995f06b0e8a525c3de4929fb588cc585041d2b305a716257360001b613e2d565b600073ffffffffffffffffffffffffffffffffffffffff168273ffffffffffffffffffffffffffffffffffffffff16146128af576126ae7fe92ccbb958e97eb029e937acd68f7e59f974617f27866746c1d265946a2dbfa860001b613e2d565b6126da7f5ffb0a0e5e5989baac8d04856414269953bc3fdd66ee9fa9d81b551b7944205a60001b613e2d565b6127067fa22b15b3763e98ab5c7a9271731661720dc4f07d827c1984e962ca9957829f6060001b613e2d565b6000600660009054906101000a900473ffffffffffffffffffffffffffffffffffffffff1673ffffffffffffffffffffffffffffffffffffffff1663a9059cbb84846040518363ffffffff1660e01b8152600401612765929190614b21565b602060405180830381600087803b15801561277f57600080fd5b505af1158015612793573d6000803e3d6000fd5b505050506040513d601f19601f820116820180604052508101906127b791906145d6565b90506127e57fc2cb866e56d55c24a856b554350dc014715a37cb9664b349ce681a3949dfc37760001b613e2d565b6128117fea067a7824d16cf0566d26ee5f8b01be4bd9201b6e17663da9817a4c58e1023a60001b613e2d565b61283d7fc68aad93fe676eab879d47c51484ec9dba30dc0dc55c9bf73bb4f86fea42010060001b613e2d565b8061287d576040517f08c379a000000000000000000000000000000000000000000000000000000000815260040161287490614c4e565b60405180910390fd5b6128a97feaadc5afa6284986e3997f671466c2a50ff93b2e2edab05a8abb08a7698d753360001b613e2d565b506128dc565b6128db7f3873fbbb2f58f0d4a6924ad2b175051ee2423662bf8fdf313b64f3648dacb73160001b613e2d565b5b505050505050565b6129107fa940f955ec71814bfd5552453f5a3b981535728c26551d4a1adadef5210b4d6a60001b613e2d565b61293c7f078aa95a07a378b287c4263e2d68f71cd26b86d134432f28aaddd18e1153d54660001b613e2d565b6129687fd69abad78dfe01e56a925091bb6389a650f8896a9b2c32691de1b2ba09aee51060001b613e2d565b600260019054906101000a900473ffffffffffffffffffffffffffffffffffffffff1673ffffffffffffffffffffffffffffffffffffffff16638413ec146129ae614200565b6040518263ffffffff1660e01b81526004016129ca9190614acf565b60006040518083038186803b1580156129e257600080fd5b505afa1580156129f6573d6000803e3d6000fd5b50505050612a267f4e9acb8a9a9f789548dd42d5ace19b578a46ef4ef79951528e2ab58de4582d9e60001b613e2d565b80612a537fb5aa7409892284405930fd652fc2c97f699cf79ea8fb9494a258085da10b127660001b613e2d565b612a7f7ff05d07559d7044999ea9a95cd7f7d62ef2e8de6fdc3bfdd347b17a9f49cb072e60001b613e2d565b612aab7f0a48b258607b2c41e483a77e84546a7190086c4cb4d7c3ff88da36213bc39b9e60001b613e2d565b612ad77f034201cde972c7b84489ba979447ff0a79a9f8c19c936f81c9f280ef81f3b2fe60001b613e2d565b600073ffffffffffffffffffffffffffffffffffffffff168173ffffffffffffffffffffffffffffffffffffffff161415612b47576040517f08c379a0000000000000000000000000000000000000000000000000000000008152600401612b3e90614c8e565b60405180910390fd5b612b737f70fd55ffdfa10b8e16f95ce1284802fd68b25cc564631f1bcf98753923559be660001b613e2d565b612b9f7f44d415e3ba1b7b2d25fed32954969c4162a0a95318eaee29875e15dc4971f9cc60001b613e2d565b612bcb7f8f10978504a9ef81e28d77e6ebec0fd2e579529a2f04a16dca0cc6619d3b599260001b613e2d565b612bf77f51ab963a4b5fc41dbf485e4e66b5ff8aa2cc77650c7ce9904918846402342d5560001b613e2d565b612c237fe73455efbbd0ebe27fc6fefa041906b3dceeae62dadb4779437c729e9948079060001b613e2d565b6000829050612c547f01c3575df45d04e0cf8b2046b342f03bd165db7b9834b55bb6e7ef0113f71f3360001b613e2d565b612c807f1634812b8734a9528e9f81c67f385dc7497ed9f6091ebf03d3404570f750c08560001b613e2d565b80600660006101000a81548173ffffffffffffffffffffffffffffffffffffffff021916908373ffffffffffffffffffffffffffffffffffffffff160217905550505050565b600060029054906101000a900473ffffffffffffffffffffffffffffffffffffffff1681565b50565b600560009054906101000a900473ffffffffffffffffffffffffffffffffffffffff1681565b612d417f4f0d9fe6cce5087efdfd438dc5f8fa06dd56cf53de7b7de678d213b81af810be60001b613e2d565b612d6d7f514ffaa2ba835075a6f421495dd821934b9605282b0bb0016f0f08ba0ff2401360001b613e2d565b612d997f220bbc059ca01aa34a6276590786c37a1d8afec77352268d3e69846d4f2ae9fc60001b613e2d565b600260019054906101000a900473ffffffffffffffffffffffffffffffffffffffff1673ffffffffffffffffffffffffffffffffffffffff16634d868f986040518163ffffffff1660e01b815260040160006040518083038186803b158015612e0157600080fd5b505afa158015612e15573d6000803e3d6000fd5b50505050612e457f30e45b2d41891bfacf7f97d97bc6d079cbc3dfff454eef963b8fb6f50d73a8d360001b613e2d565b612e717f8d29191c03cb1df3588ad5e007f3c8650b6a5d6de04aa549958f9f0e8fe41a8060001b613e2d565b612e9d7f95a7d6bef5fc41e993a23504442cdd8720369e73f55e780107a466bb6ef76f6860001b613e2d565b612ec97f360c284d1b31cb400f4f2178f78cc3a81a111418c81fa6ed6175a3f11273b7d160001b613e2d565b6000600760008381526020019081526020016000209050612f0c7fc4d22a7d246b0fed2219e805609d7117253a7f954627209da6dab4523e3d8cb860001b613e2d565b612f387ff95c514f18c76869024ccaf4c94085f781a8f46d6a20304ab79b182bf99621ad60001b613e2d565b612f647f0f8d9d7b391edf688fba4e5c3594595e001db05153d893d63fad984f89cd5a6560001b613e2d565b60008160020160009054906101000a900467ffffffffffffffff1667ffffffffffffffff1611612fc9576040517f08c379a0000000000000000000000000000000000000000000000000000000008152600401612fc090614c2e565b60405180910390fd5b612ff57f054db27c1bd1216493fa37714daf624a461137a8ae1d0fc90887390e8f730f9260001b613e2d565b6130217fa870e4ec278f77fd40c2c7036e3b1a4d4bddf2d978422ba2b2e8f5560cf8961a60001b613e2d565b61304d7ff5ac8a3a142f498d75fd6aaeeabf90d828d65f2e476d0d73746cfa4a30f876d360001b613e2d565b6130797f23af786ae4e6753a5755bbdc99aec597a904a23a65f3cd67a26eddb870253eb060001b613e2d565b8060020160009054906101000a900467ffffffffffffffff1667ffffffffffffffff164210156130de576040517f08c379a00000000000000000000000000000000000000000000000000000000081526004016130d590614d0e565b60405180910390fd5b61310a7f79aec84f85cd0c1e185a5ae719ab4bcd49073cac50fe37d3cfef0e3de4e0f8d360001b613e2d565b6131367f1107889328dec699763054c484a8d94a34c7fb1a406bb441282d37e0b8366bbf60001b613e2d565b6131627ff2a09e58a5e893db24d1279f73e58b25af374fbc051beba2e303e08e7d3ab9c560001b613e2d565b600073ffffffffffffffffffffffffffffffffffffffff168160010160009054906101000a900473ffffffffffffffffffffffffffffffffffffffff1673ffffffffffffffffffffffffffffffffffffffff161461380d576131e67f79f4228520422026d200b3aa4153f32f67dd060167540474c1baea430b8c84d860001b613e2d565b6132127f12d80b5b97f0aaba6134393acdc04da3c4c6aef6cd3c56d51fee244d6f56017760001b613e2d565b61323e7f0cc9d3aaafde8b5106a035226ab0904b66d65aa4d49dbd0c823d7805f93f33e460001b613e2d565b6000600660009054906101000a900473ffffffffffffffffffffffffffffffffffffffff1673ffffffffffffffffffffffffffffffffffffffff1663a9059cbb600460009054906101000a900473ffffffffffffffffffffffffffffffffffffffff1684600301546040518363ffffffff1660e01b81526004016132c3929190614b21565b602060405180830381600087803b1580156132dd57600080fd5b505af11580156132f1573d6000803e3d6000fd5b505050506040513d601f19601f8201168201806040525081019061331591906145d6565b90506133437f2b669c6be29daba406bf4a2351ecb5c23506e296031efea5ead8ff83a5fac04f60001b613e2d565b61336f7f39c7baf309441b38151d39d6ecf7e8ed0bbdd1ef07abab7ae1db64d7b71afb0e60001b613e2d565b61339b7f3d3103e8e85136e35dde8ba5d51c15276533c240ee4b321af07d725df5c1bb1a60001b613e2d565b806133db576040517f08c379a00000000000000000000000000000000000000000000000000000000081526004016133d290614c4e565b60405180910390fd5b6134077fbce9988af78a2426fd8463b9f7714b99975b1de1e99259ebabd9c99edd5e3b8160001b613e2d565b6134337f0d551dc6edea729054ee6f53add9279bfb83f8ddd557e84238e4787599a2cd8b60001b613e2d565b61345f7f428f18130d9fa14efe120ada61043b7bba7ed54501dc02f3f03894e0cb559bc860001b613e2d565b600080600080600080600080600560009054906101000a900473ffffffffffffffffffffffffffffffffffffffff1673ffffffffffffffffffffffffffffffffffffffff1663891b30588b600001546040518263ffffffff1660e01b81526004016134ca9190614d6e565b61010060405180830381600087803b1580156134e557600080fd5b505af11580156134f9573d6000803e3d6000fd5b505050506040513d601f19601f8201168201806040525081019061351d9190614630565b975097509750975097509750975097506135597fd9098eccaa22015fffc6b40beac4a6a9af4720a6a1833b297ac8a6898acdd5dc60001b613e2d565b6135857f6bd4f91f0f921d2b942a70ccf6e810efdc77825d207f9223fb8cc72d35082d4460001b613e2d565b600460009054906101000a900473ffffffffffffffffffffffffffffffffffffffff1673ffffffffffffffffffffffffffffffffffffffff1663b36758328b600001548c600301548b8b8b8b8b8b8b8b6040518b63ffffffff1660e01b81526004016135fa9a99989796959493929190614efd565b600060405180830381600087803b15801561361457600080fd5b505af1158015613628573d6000803e3d6000fd5b505050506136587f4acc1b5d09780a1cb04e5f50cef7efa695eaef4648f17282dc42aa227cbc63b760001b613e2d565b6136847f473ce96363483f8ec8dd35493019b164184ec294691a49823935f53e2901539860001b613e2d565b600360009054906101000a900473ffffffffffffffffffffffffffffffffffffffff1673ffffffffffffffffffffffffffffffffffffffff1663b225afcb8b600001548c60010160009054906101000a900473ffffffffffffffffffffffffffffffffffffffff1660026040518463ffffffff1660e01b815260040161370c93929190614d89565b600060405180830381600087803b15801561372657600080fd5b505af115801561373a573d6000803e3d6000fd5b5050505061376a7f9cf0743754e125911a75e4a5c9edc276c489f88bc62ba44d57c3689a4527be2a60001b613e2d565b6137967ffe0b5a3025aaf87be37a1cf67c76c13dae6c04df9e85a5b4eb92b378280dd3a560001b613e2d565b7fa3f81c0e157dc1e05cb31e254314bbde8e3878d9ff78b10ef6abfe316492bfbe8b8b600001548c60010160009054906101000a900473ffffffffffffffffffffffffffffffffffffffff168d600301546040516137f79493929190614eb8565b60405180910390a15050505050505050506139b8565b6138397f4b125902b7cda2546c2fb54f07fcee3f3f65411a4b4d5e70778bef6b44277d8e60001b613e2d565b6138657f58c936c258933039d8131371694cce2458653bf28d40c8d6b25050d57b7156c460001b613e2d565b6138917fc1423ed43c6cb3ce10e30a043dfbed8bdf66e1f3e11185e241b2a58c4e6fa66e60001b613e2d565b600360009054906101000a900473ffffffffffffffffffffffffffffffffffffffff1673ffffffffffffffffffffffffffffffffffffffff166348330cf682600001546040518263ffffffff1660e01b81526004016138f09190614d6e565b600060405180830381600087803b15801561390a57600080fd5b505af115801561391e573d6000803e3d6000fd5b5050505061394e7f8f82ab49836a699b776e2e727f56fdd80bf45830acfe06c603beeee18408010360001b613e2d565b61397a7fb96a6331517ba1ac74e8c977ada4c6134f4e617e5f4327a6b6bbdeba9c65c5b060001b613e2d565b7fe536ac546f86787f3ea4069f79235c6b5a681e87d051300a3ed19a6ebb0db71c8282600001546040516139af929190614e4a565b60405180910390a15b6139e47ff9af00f82710bb2e10f7f0459ddd2e743e936de4b3695e74e98043a90c19bcb760001b613e2d565b600760008381526020019081526020016000206000808201600090556001820160006101000a81549073ffffffffffffffffffffffffffffffffffffffff02191690556001820160146101000a81549067ffffffffffffffff02191690556002820160006101000a81549067ffffffffffffffff02191690556003820160009055600482016000905550505050565b600060019054906101000a900460ff1680613a99575060008054906101000a900460ff16155b613ad8576040517f08c379a0000000000000000000000000000000000000000000000000000000008152600401613acf90614cee565b60405180910390fd5b60008060019054906101000a900460ff161590508015613b28576001600060016101000a81548160ff02191690831515021790555060016000806101000a81548160ff0219169083151502179055505b613b547fc5e18dbb10d91e0d4f511a12c246a5dcbafc5a1a7e1de823fd2cc290a723557660001b613e2d565b613b807f0efaa8cf279988a1fa17efbd76bd20916d7cbb5c52e62686f1039d9284c5b8a460001b613e2d565b613bac7f9e7ae545f4ecaf96ffd94e86b11bfa3eb74ca3eb7ad9a8a88073139aa1b133a260001b613e2d565b6000829050613bdd7fb4c9fe11ed4dd626db9d22e0915d27d57f38f2c8c217847fe5e6c8c9cfd166c160001b613e2d565b613c097fba18d6365ed2fe465ca93afae8d1334a711f2d57f9040ffa3ce630dd5a2f6fda60001b613e2d565b613c357fce68d5b71641c2f6e19878f643bb76687a4602bddb9abbd3dae14dbd7d0c664460001b613e2d565b8073ffffffffffffffffffffffffffffffffffffffff1663ba84fd696040518163ffffffff1660e01b815260040160206040518083038186803b158015613c7b57600080fd5b505afa158015613c8f573d6000803e3d6000fd5b505050506040513d601f19601f82011682018060405250810190613cb391906145d6565b613cbc57600080fd5b613ce87ffa895f1f7fa3512fbae9b1c26dea961cef426b24e2ae31d434cc8015afa2094a60001b613e2d565b613d147fcfcdd8caebc4b746c0d08ece8a48a8bbb045ffa7f1cf9e4e98ea73c5a4482d9060001b613e2d565b613d407fd8e59ca538fc070e49b3c1b6d9ba402806a81dd43c9f95774b1ef7da723a5b0b60001b613e2d565b6001600260006101000a81548160ff021916908315150217905550613d877f3d24c807d875fb54c61334b3fce11964eabe8d55c77b20c80730cc148ea1ecd460001b613e2d565b613db37fd0a583c1a7ff9e716319529d892d1a4c2425e7e48f07cd12f1b94253ba68463c60001b613e2d565b80600260016101000a81548173ffffffffffffffffffffffffffffffffffffffff021916908373ffffffffffffffffffffffffffffffffffffffff160217905550508015613e165760008060016101000a81548160ff0219169083151502179055505b5050565b600260009054906101000a900460ff1681565b50565b600260019054906101000a900473ffffffffffffffffffffffffffffffffffffffff1681565b613e827fa940f955ec71814bfd5552453f5a3b981535728c26551d4a1adadef5210b4d6a60001b613e2d565b613eae7f078aa95a07a378b287c4263e2d68f71cd26b86d134432f28aaddd18e1153d54660001b613e2d565b613eda7fd69abad78dfe01e56a925091bb6389a650f8896a9b2c32691de1b2ba09aee51060001b613e2d565b600260019054906101000a900473ffffffffffffffffffffffffffffffffffffffff1673ffffffffffffffffffffffffffffffffffffffff16638413ec14613f20614200565b6040518263ffffffff1660e01b8152600401613f3c9190614acf565b60006040518083038186803b158015613f5457600080fd5b505afa158015613f68573d6000803e3d6000fd5b50505050613f987f4e9acb8a9a9f789548dd42d5ace19b578a46ef4ef79951528e2ab58de4582d9e60001b613e2d565b80613fc57fb5aa7409892284405930fd652fc2c97f699cf79ea8fb9494a258085da10b127660001b613e2d565b613ff17ff05d07559d7044999ea9a95cd7f7d62ef2e8de6fdc3bfdd347b17a9f49cb072e60001b613e2d565b61401d7f0a48b258607b2c41e483a77e84546a7190086c4cb4d7c3ff88da36213bc39b9e60001b613e2d565b6140497f034201cde972c7b84489ba979447ff0a79a9f8c19c936f81c9f280ef81f3b2fe60001b613e2d565b600073ffffffffffffffffffffffffffffffffffffffff168173ffffffffffffffffffffffffffffffffffffffff1614156140b9576040517f08c379a00000000000000000000000000000000000000000000000000000000081526004016140b090614c8e565b60405180910390fd5b6140e57f70fd55ffdfa10b8e16f95ce1284802fd68b25cc564631f1bcf98753923559be660001b613e2d565b6141117f44d415e3ba1b7b2d25fed32954969c4162a0a95318eaee29875e15dc4971f9cc60001b613e2d565b61413d7f3fb2d2cb8a2b114353976ce8af78f38beca37ecf8e22b771815cbbc49f1692b360001b613e2d565b6141697fa114b075f26d1ab9de007d8298447d67b89d7a429960c129c45d23af19ab41d560001b613e2d565b6141957f1337c71b8135b2d778bbdc20f059a0613fac5933949350e4d1ae16d8ffe1d9d860001b613e2d565b81600060026101000a81548173ffffffffffffffffffffffffffffffffffffffff021916908373ffffffffffffffffffffffffffffffffffffffff1602179055505050565b600460009054906101000a900473ffffffffffffffffffffffffffffffffffffffff1681565b6000601460003690501015801561421c575061421b33611a14565b5b1561423057601436033560601c9050614238565b339050614239565b5b90565b600081600001549050919050565b6001816000016000828254019250508190555050565b61428c7fd58b354b76eb351911304a00c94a3f51f92ba5e1cd1714fef79b6df9229c2b6060001b613e2d565b6142b87fa826ddff161b308800f5ecd42b1f0297c443e878fc30be047f5663e18e7c357560001b613e2d565b6142e47f9a3cb0434337f9963d7785e532a0657e9e4226999c82be7dd0b9055754b4b06260001b613e2d565b610258426007600084815260200190815260200160002060020160009054906101000a900467ffffffffffffffff1667ffffffffffffffff166143279190615072565b116144d1576143587f7d991650e3cce42579640d25cdb08deca7845c508eacde0ebca0ed66922deb5960001b613e2d565b6143847f27422fb25a86534ad3e8a6189472af8f72b5541e046f04866d512ec0cc3adae560001b613e2d565b6143b07f62c8bb3e9975cd8c0c8ad515376f81c4d53f1f44052d652844bd0bab9a8e806d60001b613e2d565b6102586007600083815260200190815260200160002060020160008282829054906101000a900467ffffffffffffffff166143eb9190615034565b92506101000a81548167ffffffffffffffff021916908367ffffffffffffffff16021790555061443d7fe5a50f381a7841ab7af2a10065a1beaaaa5736c89a9844551c77eb06148be58f60001b613e2d565b6144697f5829fa9b0db87a15e685db08d8ce49e131bf96724d741e9ce262aa648816617b60001b613e2d565b7f9c9cc6f8fa269c17bd097ed592ca8e0d3b4451b4c7bdbee9b802563aec9cd7b4816007600084815260200190815260200160002060020160009054906101000a900467ffffffffffffffff166040516144c4929190614f99565b60405180910390a16144fe565b6144fd7ffa40c5b697bb514942f30741f38accf525fcb21719a0fd30e3dafb1effa0609860001b613e2d565b5b50565b600081359050614510816154ab565b92915050565b600081519050614525816154c2565b92915050565b60008135905061453a816154d9565b92915050565b60008151905061454f816154f0565b92915050565b60008135905061456481615507565b92915050565b60008151905061457981615507565b92915050565b60008151905061458e8161551e565b92915050565b6000813590506145a381615535565b92915050565b6000602082840312156145bf576145be6152ac565b5b60006145cd84828501614501565b91505092915050565b6000602082840312156145ec576145eb6152ac565b5b60006145fa84828501614516565b91505092915050565b600060208284031215614619576146186152ac565b5b60006146278482850161452b565b91505092915050565b600080600080600080600080610100898b031215614651576146506152ac565b5b600061465f8b828c01614540565b98505060206146708b828c01614540565b97505060406146818b828c01614540565b96505060606146928b828c01614540565b95505060806146a38b828c01614540565b94505060a06146b48b828c01614540565b93505060c06146c58b828c01614540565b92505060e06146d68b828c01614540565b9150509295985092959890939650565b6000602082840312156146fc576146fb6152ac565b5b600061470a84828501614555565b91505092915050565b600060208284031215614729576147286152ac565b5b60006147378482850161456a565b91505092915050565b60008060408385031215614757576147566152ac565b5b600061476585828601614555565b925050602061477685828601614555565b9150509250929050565b600080600080600060a0868803121561479c5761479b6152ac565b5b60006147aa88828901614555565b95505060206147bb88828901614594565b94505060406147cc88828901614594565b93505060606147dd88828901614555565b92505060806147ee88828901614555565b9150509295509295909350565b600060208284031215614811576148106152ac565b5b600061481f8482850161457f565b91505092915050565b6148318161512a565b82525050565b614840816150a6565b82525050565b61484f816150b8565b82525050565b61485e8161513c565b82525050565b61486d81615160565b82525050565b61487c81615184565b82525050565b61488b816151a8565b82525050565b61489a816151cc565b82525050565b6148a9816151f0565b82525050565b6148b881615202565b82525050565b60006148c982614fc2565b6148d38185614fcd565b93506148e381856020860161524a565b6148ec816152b1565b840191505092915050565b6000614904601383614fcd565b915061490f826152c2565b602082019050919050565b6000614927601683614fcd565b9150614932826152eb565b602082019050919050565b600061494a601583614fcd565b915061495582615314565b602082019050919050565b600061496d600e83614fcd565b91506149788261533d565b602082019050919050565b6000614990600f83614fcd565b915061499b82615366565b602082019050919050565b60006149b3601583614fcd565b91506149be8261538f565b602082019050919050565b60006149d6601983614fcd565b91506149e1826153b8565b602082019050919050565b60006149f9602e83614fcd565b9150614a04826153e1565b604082019050919050565b6000614a1c601583614fcd565b9150614a2782615430565b602082019050919050565b6000614a3f601483614fcd565b9150614a4a82615459565b602082019050919050565b6000614a62602083614fcd565b9150614a6d82615482565b602082019050919050565b614a81816150ce565b82525050565b614a90816150fc565b82525050565b614a9f81615238565b82525050565b614aae81615116565b82525050565b6000602082019050614ac96000830184614837565b92915050565b6000602082019050614ae46000830184614828565b92915050565b6000606082019050614aff6000830186614828565b614b0c6020830185614837565b614b196040830184614a87565b949350505050565b6000604082019050614b366000830185614837565b614b436020830184614a87565b9392505050565b6000602082019050614b5f6000830184614846565b92915050565b6000602082019050614b7a6000830184614855565b92915050565b6000602082019050614b956000830184614864565b92915050565b6000602082019050614bb06000830184614873565b92915050565b6000602082019050614bcb6000830184614882565b92915050565b6000602082019050614be66000830184614891565b92915050565b60006020820190508181036000830152614c0681846148be565b905092915050565b60006020820190508181036000830152614c27816148f7565b9050919050565b60006020820190508181036000830152614c478161491a565b9050919050565b60006020820190508181036000830152614c678161493d565b9050919050565b60006020820190508181036000830152614c8781614960565b9050919050565b60006020820190508181036000830152614ca781614983565b9050919050565b60006020820190508181036000830152614cc7816149a6565b9050919050565b60006020820190508181036000830152614ce7816149c9565b9050919050565b60006020820190508181036000830152614d07816149ec565b9050919050565b60006020820190508181036000830152614d2781614a0f565b9050919050565b60006020820190508181036000830152614d4781614a32565b9050919050565b60006020820190508181036000830152614d6781614a55565b9050919050565b6000602082019050614d836000830184614a87565b92915050565b6000606082019050614d9e6000830186614a87565b614dab6020830185614837565b614db860408301846148af565b949350505050565b600060c082019050614dd56000830189614a87565b614de26020830188614837565b614def6040830187614aa5565b614dfc6060830186614aa5565b614e096080830185614a87565b614e1660a0830184614a87565b979650505050505050565b6000604082019050614e366000830185614a87565b614e4360208301846148a0565b9392505050565b6000604082019050614e5f6000830185614a87565b614e6c6020830184614a87565b9392505050565b6000608082019050614e886000830187614a87565b614e956020830186614a87565b614ea26040830185614828565b614eaf6060830184614a87565b95945050505050565b6000608082019050614ecd6000830187614a87565b614eda6020830186614a87565b614ee76040830185614837565b614ef46060830184614a87565b95945050505050565b600061014082019050614f13600083018d614a87565b614f20602083018c614a87565b614f2d604083018b614a78565b614f3a606083018a614a78565b614f476080830189614a78565b614f5460a0830188614a78565b614f6160c0830187614a78565b614f6e60e0830186614a78565b614f7c610100830185614a78565b614f8a610120830184614a78565b9b9a5050505050505050505050565b6000604082019050614fae6000830185614a87565b614fbb6020830184614a96565b9392505050565b600081519050919050565b600082825260208201905092915050565b6000614fe9826150fc565b9150614ff4836150fc565b9250827fffffffffffffffffffffffffffffffffffffffffffffffffffffffffffffffff038211156150295761502861527d565b5b828201905092915050565b600061503f82615116565b915061504a83615116565b92508267ffffffffffffffff038211156150675761506661527d565b5b828201905092915050565b600061507d826150fc565b9150615088836150fc565b92508282101561509b5761509a61527d565b5b828203905092915050565b60006150b1826150dc565b9050919050565b60008115159050919050565b6000819050919050565b600061ffff82169050919050565b600073ffffffffffffffffffffffffffffffffffffffff82169050919050565b6000819050919050565b600063ffffffff82169050919050565b600067ffffffffffffffff82169050919050565b600061513582615214565b9050919050565b60006151478261514e565b9050919050565b6000615159826150dc565b9050919050565b600061516b82615172565b9050919050565b600061517d826150dc565b9050919050565b600061518f82615196565b9050919050565b60006151a1826150dc565b9050919050565b60006151b3826151ba565b9050919050565b60006151c5826150dc565b9050919050565b60006151d7826151de565b9050919050565b60006151e9826150dc565b9050919050565b60006151fb82615106565b9050919050565b600061520d826150ce565b9050919050565b600061521f82615226565b9050919050565b6000615231826150dc565b9050919050565b600061524382615116565b9050919050565b60005b8381101561526857808201518184015260208101905061524d565b83811115615277576000848401525b50505050565b7f4e487b7100000000000000000000000000000000000000000000000000000000600052601160045260246000fd5b600080fd5b6000601f19601f8301169050919050565b7f61756374696f6e206e6f74207374617274656400000000000000000000000000600082015250565b7f41756374696f6e20697320756e617661696c61626c6500000000000000000000600082015250565b7f756e7375636365737366756c207472616e736665720000000000000000000000600082015250565b7f696e76616c696420616d6f756e74000000000000000000000000000000000000600082015250565b7f696e76616c696420616464726573730000000000000000000000000000000000600082015250565b7f61756374696f6e20616c726561647920656e6465640000000000000000000000600082015250565b7f6e6f7420617661696c61626c6520666f722061756374696f6e00000000000000600082015250565b7f496e697469616c697a61626c653a20636f6e747261637420697320616c72656160008201527f647920696e697469616c697a6564000000000000000000000000000000000000602082015250565b7f41756374696f6e206e6f742079657420656e6465640000000000000000000000600082015250565b7f696e73756666696369656e742062616c616e6365000000000000000000000000600082015250565b7f6571756976616c616e742066756e64204d6f64656c206e6f7420657869737473600082015250565b6154b4816150a6565b81146154bf57600080fd5b50565b6154cb816150b8565b81146154d657600080fd5b50565b6154e2816150c4565b81146154ed57600080fd5b50565b6154f9816150ce565b811461550457600080fd5b50565b615510816150fc565b811461551b57600080fd5b50565b61552781615106565b811461553257600080fd5b50565b61553e81615116565b811461554957600080fd5b5056fea2646970667358221220e41f30d113b3e5a74aef9fa18f4ed44f2e85ef4c79cffae12331fad7c6fe324964736f6c63430008060033",
  "immutableReferences": {},
  "source": "// // SPDX-License-Identifier: MIT\n\npragma solidity ^0.8.6;\nfunction c_0x32d3e07e(bytes32 c__0x32d3e07e) pure {}\n\n\nimport \"@openzeppelin/contracts-upgradeable/proxy/utils/Initializable.sol\";\nimport \"@openzeppelin/contracts-upgradeable/utils/CountersUpgradeable.sol\";\nimport \"@openzeppelin/contracts-upgradeable/token/ERC20/IERC20Upgradeable.sol\";\nimport \"../access/IAccessRestriction.sol\";\nimport \"../tree/ITreeFactory.sol\";\nimport \"../treasury/IFinancialModel.sol\";\nimport \"../treasury/IWethFunds.sol\";\nimport \"../gsn/RelayRecipient.sol\";\n\n/** @title Tree Auction */\n\ncontract TreeAuction is Initializable, RelayRecipient {\nfunction c_0x3885e695(bytes32 c__0x3885e695) public pure {}\n\n    using CountersUpgradeable for CountersUpgradeable.Counter;\n\n    CountersUpgradeable.Counter private auctionId;\n\n    /** NOTE {isTreeAuction} set inside the initialize to {true} */\n\n    bool public isTreeAuction;\n\n    IAccessRestriction public accessRestriction;\n    ITreeFactory public treeFactory;\n    IWethFunds public wethFunds;\n    IFinancialModel public financialModel;\n    IERC20Upgradeable public wethToken;\n\n    struct Auction {\n        uint256 treeId;\n        address bidder;\n        uint64 startDate;\n        uint64 endDate;\n        uint256 highestBid;\n        uint256 bidInterval;\n    }\n\n    /** NOTE mapping of auctionId to Auction struct */\n    mapping(uint256 => Auction) public auctions;\n\n    event HighestBidIncreased(\n        uint256 auctionId,\n        uint256 treeId,\n        address bidder,\n        uint256 amount\n    );\n    event AuctionSettled(\n        uint256 auctionId,\n        uint256 treeId,\n        address winner,\n        uint256 amount\n    );\n    event AuctionCreated(uint256 auctionId);\n    event AuctionEnded(uint256 auctionId, uint256 treeId);\n    event AuctionEndTimeIncreased(uint256 auctionId, uint256 newAuctionEndTime);\n\n    /** NOTE modifier to check msg.sender has admin role */\n    modifier onlyAdmin() {c_0x3885e695(0xa940f955ec71814bfd5552453f5a3b981535728c26551d4a1adadef5210b4d6a); /* function */ \n\nc_0x3885e695(0x078aa95a07a378b287c4263e2d68f71cd26b86d134432f28aaddd18e1153d546); /* line */ \n        c_0x3885e695(0xd69abad78dfe01e56a925091bb6389a650f8896a9b2c32691de1b2ba09aee510); /* statement */ \naccessRestriction.ifAdmin(_msgSender());\nc_0x3885e695(0x4e9acb8a9a9f789548dd42d5ace19b578a46ef4ef79951528e2ab58de4582d9e); /* line */ \n        _;\n    }\n\n    /** NOTE modifier to check msg.sender has data manager role */\n    modifier onlyDataManager() {c_0x3885e695(0xda9cd017d84f2d0e1e5c57cb824ee81afec7c5ea2fc946f766dd02beef727090); /* function */ \n\nc_0x3885e695(0xd92232571023b6f62734f1cb4b9adee0788ecbe068a9849e9d9df8d1a7831ddc); /* line */ \n        c_0x3885e695(0x4524f92fe008e14ae64d7478e413cb0eaf3dfb42f17cf2949b9eb12c3416e8c8); /* statement */ \naccessRestriction.ifDataManager(_msgSender());\nc_0x3885e695(0xab5d7f3c14cf1b5e1cc9040d058b0c7af0317c500d608d73fc1a207b456a6795); /* line */ \n        _;\n    }\n\n    /** NOTE modifier for check if function is not paused*/\n    modifier ifNotPaused() {c_0x3885e695(0x4f0d9fe6cce5087efdfd438dc5f8fa06dd56cf53de7b7de678d213b81af810be); /* function */ \n\nc_0x3885e695(0x514ffaa2ba835075a6f421495dd821934b9605282b0bb0016f0f08ba0ff24013); /* line */ \n        c_0x3885e695(0x220bbc059ca01aa34a6276590786c37a1d8afec77352268d3e69846d4f2ae9fc); /* statement */ \naccessRestriction.ifNotPaused();\nc_0x3885e695(0x30e45b2d41891bfacf7f97d97bc6d079cbc3dfff454eef963b8fb6f50d73a8d3); /* line */ \n        _;\n    }\n\n    /** NOTE modifier for check valid address */\n    modifier validAddress(address _address) {c_0x3885e695(0xb5aa7409892284405930fd652fc2c97f699cf79ea8fb9494a258085da10b1276); /* function */ \n\nc_0x3885e695(0xf05d07559d7044999ea9a95cd7f7d62ef2e8de6fdc3bfdd347b17a9f49cb072e); /* line */ \n        c_0x3885e695(0x0a48b258607b2c41e483a77e84546a7190086c4cb4d7c3ff88da36213bc39b9e); /* requirePre */ \nc_0x3885e695(0x034201cde972c7b84489ba979447ff0a79a9f8c19c936f81c9f280ef81f3b2fe); /* statement */ \nrequire(_address != address(0), \"invalid address\");c_0x3885e695(0x70fd55ffdfa10b8e16f95ce1284802fd68b25cc564631f1bcf98753923559be6); /* requirePost */ \n\nc_0x3885e695(0x44d415e3ba1b7b2d25fed32954969c4162a0a95318eaee29875e15dc4971f9cc); /* line */ \n        _;\n    }\n\n    /**\n     * @dev initialize accessRestriction contract and set true for isTreeAuction\n     * @param _accessRestrictionAddress set to the address of accessRestriction contract\n     */\n    function initialize(address _accessRestrictionAddress)\n        external\n        initializer\n    {c_0x3885e695(0xc5e18dbb10d91e0d4f511a12c246a5dcbafc5a1a7e1de823fd2cc290a7235576); /* function */ \n\nc_0x3885e695(0x0efaa8cf279988a1fa17efbd76bd20916d7cbb5c52e62686f1039d9284c5b8a4); /* line */ \n        c_0x3885e695(0x9e7ae545f4ecaf96ffd94e86b11bfa3eb74ca3eb7ad9a8a88073139aa1b133a2); /* statement */ \nIAccessRestriction candidateContract = IAccessRestriction(\n            _accessRestrictionAddress\n        );\nc_0x3885e695(0xb4c9fe11ed4dd626db9d22e0915d27d57f38f2c8c217847fe5e6c8c9cfd166c1); /* line */ \n        c_0x3885e695(0xba18d6365ed2fe465ca93afae8d1334a711f2d57f9040ffa3ce630dd5a2f6fda); /* requirePre */ \nc_0x3885e695(0xce68d5b71641c2f6e19878f643bb76687a4602bddb9abbd3dae14dbd7d0c6644); /* statement */ \nrequire(candidateContract.isAccessRestriction());c_0x3885e695(0xfa895f1f7fa3512fbae9b1c26dea961cef426b24e2ae31d434cc8015afa2094a); /* requirePost */ \n\nc_0x3885e695(0xcfcdd8caebc4b746c0d08ece8a48a8bbb045ffa7f1cf9e4e98ea73c5a4482d90); /* line */ \n        c_0x3885e695(0xd8e59ca538fc070e49b3c1b6d9ba402806a81dd43c9f95774b1ef7da723a5b0b); /* statement */ \nisTreeAuction = true;\nc_0x3885e695(0x3d24c807d875fb54c61334b3fce11964eabe8d55c77b20c80730cc148ea1ecd4); /* line */ \n        c_0x3885e695(0xd0a583c1a7ff9e716319529d892d1a4c2425e7e48f07cd12f1b94253ba68463c); /* statement */ \naccessRestriction = candidateContract;\n    }\n\n    /**\n     * @dev admin set the trustedForwarder adress\n     * @param _address is the address of trusted forwarder\n     */\n\n    function setTrustedForwarder(address _address)\n        external\n        onlyAdmin\n        validAddress(_address)\n    {c_0x3885e695(0x3fb2d2cb8a2b114353976ce8af78f38beca37ecf8e22b771815cbbc49f1692b3); /* function */ \n\nc_0x3885e695(0xa114b075f26d1ab9de007d8298447d67b89d7a429960c129c45d23af19ab41d5); /* line */ \n        c_0x3885e695(0x1337c71b8135b2d778bbdc20f059a0613fac5933949350e4d1ae16d8ffe1d9d8); /* statement */ \ntrustedForwarder = _address;\n    }\n\n    /**\n     * @dev admin set TreeFactoryAddress\n     * @param _address set to the address of treeFactory\n     */\n    function setTreeFactoryAddress(address _address) external onlyAdmin {c_0x3885e695(0x3754776548f7aec93bde837e34b706bb02ac93b668e224f712e5d4d1086e8dd8); /* function */ \n\nc_0x3885e695(0x59e8465ce0c4a523d1ab3590e75ec96d01aeb90b1536a3bf1375dbc4a6e6205d); /* line */ \n        c_0x3885e695(0x173ad34950aec8c5332c48e44e7b8b3352d0ba29ffae37d67606760b8cfd4b5f); /* statement */ \nITreeFactory candidateContract = ITreeFactory(_address);\nc_0x3885e695(0xb2427e83b801364ab4553a304618561e9aabb51f9a258fa31e8946a8296bccbc); /* line */ \n        c_0x3885e695(0x8f5fccc7a7996ec6b09331061a98d8ef87cc1bf9576fde41602d3befe49ba9e6); /* requirePre */ \nc_0x3885e695(0x75e8bd75b5ae7291cac67b67c3471f66217f0a8a9e41b6ad1f3af0145561fc71); /* statement */ \nrequire(candidateContract.isTreeFactory());c_0x3885e695(0xd0e60ee532b000c45f308adddb07ec50ccbf8672195fdab8e0dae7f2f5dd5e9b); /* requirePost */ \n\nc_0x3885e695(0x95a936fd769ef3647376e52100aa9497cad8def1a445a7430668c3a343e599f7); /* line */ \n        c_0x3885e695(0xaa5f508f663cc2bdfc25b933142ad7c79280d55ab9de36f8bab8c1f784026eb9); /* statement */ \ntreeFactory = candidateContract;\n    }\n\n    /**\n     * @dev admin set FinancialModel\n     * @param _address set to the address of financialModel\n     */\n\n    function setFinancialModelAddress(address _address) external onlyAdmin {c_0x3885e695(0xc46abdaebf2fb83b9e37e6887b165fa743b65b2a9374c6a7db020e1935a5c760); /* function */ \n\nc_0x3885e695(0x5ab70b39cbad2b70bfd0d0c8e086d9e14ffd2e34176637d8b131e97cc8867a84); /* line */ \n        c_0x3885e695(0xbbc6bde4a83e95c35281caab9f9793ebb0fa9ee0b7a6c50e859890cddab33a26); /* statement */ \nIFinancialModel candidateContract = IFinancialModel(_address);\nc_0x3885e695(0x7beed00b73fb6dbbbfcdd076c4f5abac7d6ec22269a0c1b426687f950fe1b5a4); /* line */ \n        c_0x3885e695(0xf07e400141e9e4efcc4874147c06bb572c590e822365fe3989f457dd3bb82092); /* requirePre */ \nc_0x3885e695(0x0851bd15257a481f7a07d3f54e2180c94cf0b913307c4ab749182efb14351b5d); /* statement */ \nrequire(candidateContract.isFinancialModel());c_0x3885e695(0xf97787669ae720ee37fdbe64e91f1c64c40cfff285e1133be3b1473bf8d5a87f); /* requirePost */ \n\nc_0x3885e695(0x21ee872925cbba8bf9ae6024856e0b0dfc09ece86c9e08057f88261963537ba7); /* line */ \n        c_0x3885e695(0x2583a18216468f1da93bb4663d21d9ddc199e45c80023024c0019c58fd163419); /* statement */ \nfinancialModel = candidateContract;\n    }\n\n    /**\n     * @dev admin set WethFunds\n     * @param _address set to the address of wethFunds\n     */\n\n    function setWethFundsAddress(address _address) external onlyAdmin {c_0x3885e695(0xfe0b6781cd64d7ca1d4e7cf9f2c63d021bf81f6f90ae08f4bbb467d262913f45); /* function */ \n\nc_0x3885e695(0x4c71819cf4d6710d4cfbe6db3c8faaab40c8bbc6d6682893867e03a16fc526e0); /* line */ \n        c_0x3885e695(0x9c77e45109e4bdc68ce4fccf59598cabe8866fc44875100bc05fbd32fb1dd75f); /* statement */ \nIWethFunds candidateContract = IWethFunds(_address);\nc_0x3885e695(0xeff5567550beaf9c716a5569a1d9878df0dd48bf4e57445d766ecf549731384a); /* line */ \n        c_0x3885e695(0x0f1fa6c32a017bccf6c608aba6762691715ab7f2cad1e34613071df9bb3dad47); /* requirePre */ \nc_0x3885e695(0x7913b848b822971b134f5d4c8489e7a38d099932004fb7d53898972f97c1d165); /* statement */ \nrequire(candidateContract.isWethFunds());c_0x3885e695(0xe0260d81f82ab6584ba4eaaf543da9c5f8a388c9cc0b75b0230da151640175cf); /* requirePost */ \n\nc_0x3885e695(0x7db5be3e57639eeb656cf582854117c8037c0cb1db60d5ab1c880f495b6100b3); /* line */ \n        c_0x3885e695(0x0f7293fa1d2d81ad7cdcfef4221dcb88d323203fba929cc14576f8e93518193c); /* statement */ \nwethFunds = candidateContract;\n    }\n\n    /**\n     * @dev admin set WethToken\n     * @param _address set to the address of wethToken\n     */\n\n    function setWethTokenAddress(address _address)\n        external\n        onlyAdmin\n        validAddress(_address)\n    {c_0x3885e695(0x8f10978504a9ef81e28d77e6ebec0fd2e579529a2f04a16dca0cc6619d3b5992); /* function */ \n\nc_0x3885e695(0x51ab963a4b5fc41dbf485e4e66b5ff8aa2cc77650c7ce9904918846402342d55); /* line */ \n        c_0x3885e695(0xe73455efbbd0ebe27fc6fefa041906b3dceeae62dadb4779437c729e99480790); /* statement */ \nIERC20Upgradeable candidateContract = IERC20Upgradeable(_address);\nc_0x3885e695(0x01c3575df45d04e0cf8b2046b342f03bd165db7b9834b55bb6e7ef0113f71f33); /* line */ \n        c_0x3885e695(0x1634812b8734a9528e9f81c67f385dc7497ed9f6091ebf03d3404570f750c085); /* statement */ \nwethToken = candidateContract;\n    }\n\n    /**\n     * @dev admin create auction to a tree with provideStatus of '0' and push that auction\n     * to {auctions[auctionId]} and increament auctionId by 1.\n     * NOTE its necessary that a fundDestributionModel has been assigned to {_treeId}\n     * @param _treeId treeId that auction create for\n     * @param _startDate strat time of auction\n     * @param _endDate end time of auction\n     * @param _intialPrice initial price of auction\n     * @param _bidInterval bid interval for auction . if it set to 10 for example and the last bid is 100.new bidder can bid for 110\n     */\n    function createAuction(\n        uint256 _treeId,\n        uint64 _startDate,\n        uint64 _endDate,\n        uint256 _intialPrice,\n        uint256 _bidInterval\n    ) external ifNotPaused onlyDataManager {c_0x3885e695(0x34323399ebfd1c06aa665013e822f298b228ac3d1db7c2b5cd012e1f29bd55da); /* function */ \n\nc_0x3885e695(0x7ade5cc3735cbd8f05a5fc678e8dc68221e840620c982fd812dc37d7abe80900); /* line */ \n        c_0x3885e695(0x687996eb47f1782931820b745abde9aeb49ed7d8550454926c7d91c62c1ed323); /* requirePre */ \nc_0x3885e695(0x96c8b4fa16cee1169de9c724c768279ba9db42c587e38cdee8eaa3b38f82cf0f); /* statement */ \nrequire(\n            financialModel.distributionModelExistance(_treeId),\n            \"equivalant fund Model not exists\"\n        );c_0x3885e695(0x7a01b36b703b8efdfd1aa122112678ecce3e424cf0610c041057dd1eb489a1ff); /* requirePost */ \n\n\nc_0x3885e695(0xf5e10368fd88be2633b060820ec1d13ef6623a26b14c98eb79a64a1fdc11e7af); /* line */ \n        c_0x3885e695(0xa6824bd97eb1efbf3f9961a325fb1a35d4e7a25f9ed7c5b914ed5febfa6733c2); /* statement */ \nuint32 provideStatus = treeFactory.availability(_treeId, 1);\n\nc_0x3885e695(0x0f575e45361399057b3d1ba5c7590942a0901928298cd8fc687e6d4b174d2ed3); /* line */ \n        c_0x3885e695(0xa5d565c4ea8de51dc8c33c1f21312ba37320c216292f99ca95396689af0dc351); /* requirePre */ \nc_0x3885e695(0xdd36b81f4e59694af92b7847cd2f3646e5b8f1ec597c1e595264ef101fc14d78); /* statement */ \nrequire(provideStatus == 0, \"not available for auction\");c_0x3885e695(0x28a72cd7805e21be3f548b3e1f4ba586b9fe0f21c04a0d344b186ce6c17ca4ff); /* requirePost */ \n\n\nc_0x3885e695(0xfb236f99394f76e3c004150161174af58b4b86d7b9bcd1a06967456740a70081); /* line */ \n        c_0x3885e695(0x25bf23c37adb95061ef9d64495d896efe546a34aac313d0f804ed0738f4a509b); /* statement */ \nAuction storage auction = auctions[auctionId.current()];\n\nc_0x3885e695(0x42dd2c1623e518a1b23da2e84f086ec6c841547c8f4868ccd9ae502264ada13f); /* line */ \n        c_0x3885e695(0x8caeca4372ddf91b8279c659c80290a74795f32a883f0911888ee4d52746ec87); /* statement */ \nauction.treeId = _treeId;\nc_0x3885e695(0x6dc4073d906960aaca883f6a5c52c88ab7c375691992e6518c2f0a1e5ad444bb); /* line */ \n        c_0x3885e695(0x87f4ecd5e5c581b8c45a8001c5885c83d333671d4e16119d46f3031254dfd52a); /* statement */ \nauction.startDate = _startDate;\nc_0x3885e695(0x5868a2f7f72b48b0edf69a20124f3ffda07eed77eda9e8af05db602fbeaf714e); /* line */ \n        c_0x3885e695(0xd1eb745e14199583699a37a24baebb986a1e36224d32e5ef74f3bda42ca36af7); /* statement */ \nauction.endDate = _endDate;\nc_0x3885e695(0xc6c6df25d7578cd4ffa58c1cd3792942d0f44c806a5cbfd5491d932f8feb0351); /* line */ \n        c_0x3885e695(0xb881e6fc05ac5688423b2aa06823823f4c5b0e417431489d6cdb75b841237c46); /* statement */ \nauction.highestBid = _intialPrice;\nc_0x3885e695(0xd3d4fa735780468d5cd2432a42572acee8d1b717962d567b03f08d4cd0fd2c7c); /* line */ \n        c_0x3885e695(0x47c0bf470778fb569597c455f3498f0799c1823ba9d79583746a0e8278f79835); /* statement */ \nauction.bidInterval = _bidInterval;\n\nc_0x3885e695(0x21195ba079ce8422ef1fda3ad89878a1fedb6aaaf095387110eafc636e1c9952); /* line */ \n        c_0x3885e695(0x7cfdf77e3dbfc3bc60d6d4c08fadb1b0c390ed8f4836d7fc8625237dd9e8ff00); /* statement */ \nemit AuctionCreated(auctionId.current());\n\nc_0x3885e695(0x86965be0d25458267bff7c965fdb2fe668b15cc70e2b33e03af77761ad53fd00); /* line */ \n        c_0x3885e695(0x9596cf6414feb2e741ce87c984ba929040154007961e92c81b2657d44de185b0); /* statement */ \nauctionId.increment();\n    }\n\n    /**\n     * @dev bid to {auctions[_auctionId]} by user in a time beetwen start time and end time\n     * its require to send at least {higestBid + bidInterval } {_amount}.\n     * if new bid done old bidder refund automatically.\n     * @param _auctionId auctionId that user bid for it.\n     */\n\n    function bid(uint256 _auctionId, uint256 _amount) external ifNotPaused {c_0x3885e695(0x0bc9513824e8d3f969d814874a9065c35fe3ae86af77353e1c65f3438c4d852e); /* function */ \n\nc_0x3885e695(0xe3a22151b47f3c276e3248d3b02c0fe9e4a74b1d6d15ccfdb254fb3653cb1451); /* line */ \n        c_0x3885e695(0xc4fb89cf718ca472e8b17eaf78d9ecbc6ba7187a9371602c8ecbf8f125fac74b); /* statement */ \nAuction storage _storageAuction = auctions[_auctionId];\n\nc_0x3885e695(0x8828a5fd22b8c3aa40192eeb1f8d00a1639db6f42498b4c3fb4a4fe87dd0c773); /* line */ \n        c_0x3885e695(0xfe72490cee98b5eeef2aca8e77714ed11001d364509569da3ecfb321f88e49e4); /* requirePre */ \nc_0x3885e695(0x8eb8c65d0763d47a341a6ad04370357a37d8a9aee511c0df6514ca67cda7ffc3); /* statement */ \nrequire(\n            block.timestamp <= _storageAuction.endDate,\n            \"auction already ended\"\n        );c_0x3885e695(0xdffef79cb69c631320be4471d8b989fff0ffb2d8c4c0c035d7e2e50f5fc9da90); /* requirePost */ \n\n\nc_0x3885e695(0x2737556cccfc766a4c8ca23695be35ee95f58b927355d0fdfc955129947abe2c); /* line */ \n        c_0x3885e695(0x2f8503441aab7fa47f6565817b0e9cc25f08d224a7bbb953c7df4e8ea2d60c34); /* requirePre */ \nc_0x3885e695(0xc32fd4593ff624f0291afff5cd5497a06ddc6a248e396d9243eb928f80b15772); /* statement */ \nrequire(\n            block.timestamp >= _storageAuction.startDate,\n            \"auction not started\"\n        );c_0x3885e695(0xd976af056c31aaf34a90262f74dc235dbf446c05399bab88099bd2c10b9f34d5); /* requirePost */ \n\n\nc_0x3885e695(0xa987cc19d8fbf946eed509d3c2690630adeaebd60bc3e27d8f16abe0a624030a); /* line */ \n        c_0x3885e695(0x5015e636c5105a40148c35d234d873ff8d3951d95c1cc87a5423f3db349c27b1); /* requirePre */ \nc_0x3885e695(0xc4a15683767dba24421e72ee087657d93b5b6a06a233cd5a5e07072564ce138c); /* statement */ \nrequire(\n            _amount >= _storageAuction.highestBid + _storageAuction.bidInterval,\n            \"invalid amount\"\n        );c_0x3885e695(0xb021ece567510db6badf3d55ba1da45c37a3e50a10d797bf809f9d0d3806b173); /* requirePost */ \n\n\nc_0x3885e695(0xf2fc0ea93edb666a95fbf2a76cab75773536575451e9428c62bb8f577bfd8606); /* line */ \n        c_0x3885e695(0x924fba34762ed7d3d56d5c17d90dba5e592d4d5a9d9843a03f1dab5f65091ae5); /* requirePre */ \nc_0x3885e695(0xe0916be97ed5ba5e8fa63c69ab5fa9ddc13404298942dc910bbdfdc928b3a6d8); /* statement */ \nrequire(\n            wethToken.balanceOf(_msgSender()) >= _amount,\n            \"insufficient balance\"\n        );c_0x3885e695(0x122c2fb41ccd16a6f7a73d35378d38670ac9861b6b2fc9e534a180a17003355d); /* requirePost */ \n\n\nc_0x3885e695(0x33906eefba78d5191529338e35bbbe9b86a551d187cc333281b199023d744cb2); /* line */ \n        c_0x3885e695(0xd92915bacd83b499a7b64e42c84b20143efbcfdc77529470dd045c2536c9e7b3); /* statement */ \nbool success = wethToken.transferFrom(\n            _msgSender(),\n            address(this),\n            _amount\n        );\n\nc_0x3885e695(0x6817c3f785a2c9f4828a6916bc443a9ef467b292bdc7a660b7c7617933d8b0b9); /* line */ \n        c_0x3885e695(0x934c2e886cb021b96b6077f978905ff24cdb96fa98dacb89df012a17ecdd2de6); /* requirePre */ \nc_0x3885e695(0xad6e521f1abdda24220535496e01bec814a2ea62a632ba762fedf952655af6ac); /* statement */ \nrequire(success, \"unsuccessful transfer\");c_0x3885e695(0x45ce4771c2d21180c21183fc94a3baf26c0b9567ad2bc49bbe774d2ae64faf7f); /* requirePost */ \n\n\nc_0x3885e695(0x7cacaf96763a4374b4d04164479b32b7712e1a41c62d3e902bd668247616c373); /* line */ \n        c_0x3885e695(0xfd4911cdc0d1c302f16e1ab2818d1463d563904bcee13eb3edf6fd57c7be9ac2); /* statement */ \naddress oldBidder = _storageAuction.bidder;\nc_0x3885e695(0x46139c1bf2d3183c88564b78c33410ef16ce38e1da41d91f50319f8d50cc7e5f); /* line */ \n        c_0x3885e695(0x9e0a240101c032625685fe2306fe2e0514f86c5d2f838e27b67ab504f8826eec); /* statement */ \nuint256 oldBid = _storageAuction.highestBid;\n\nc_0x3885e695(0xb0b1e20261b8461b08afc6b7dd391514f94620365b8f6a03a10813cc0b15eabf); /* line */ \n        c_0x3885e695(0x37da9c923c7f718fe2b42fd342784d5c169b65618fc75abd043ca84c2351109a); /* statement */ \n_storageAuction.highestBid = _amount;\nc_0x3885e695(0xb201af76462f29ab3e86dd3013a96394044df52449f54ddb0d3b405b5606565d); /* line */ \n        c_0x3885e695(0xc6f9838314f5ae053985aa16e7ac4a20a20613ed39badd6238498d1df9611c7b); /* statement */ \n_storageAuction.bidder = _msgSender();\n\nc_0x3885e695(0x28595b9b451dab63d6067b4a4383f2d249f9d4440120bdf681e2808aada41106); /* line */ \n        c_0x3885e695(0x872b35166d33bcc7aeec02230d500749a801da18e9235cf905e6c8f3a1455a67); /* statement */ \nemit HighestBidIncreased(\n            _auctionId,\n            _storageAuction.treeId,\n            _msgSender(),\n            _amount\n        );\n\nc_0x3885e695(0x75997cb6affb75650024758abdffc049ac0ffa169e4c2797f46c0b1c3ae5a5f6); /* line */ \n        c_0x3885e695(0x3e25e46d0ed7b1a7900bc58f79be85ce3768b3b34af8f0a31e2486eb64ec1e73); /* statement */ \n_increaseAuctionEndTime(_auctionId);\n\nc_0x3885e695(0x5cfcc43e5189e07b534fce5acc408df6a1f4ca62f8f426541163d44a7de4e9ca); /* line */ \n        c_0x3885e695(0x6699b0a73653b72995f06b0e8a525c3de4929fb588cc585041d2b305a7162573); /* statement */ \nif (oldBidder != address(0)) {c_0x3885e695(0xe92ccbb958e97eb029e937acd68f7e59f974617f27866746c1d265946a2dbfa8); /* branch */ \n\nc_0x3885e695(0x5ffb0a0e5e5989baac8d04856414269953bc3fdd66ee9fa9d81b551b7944205a); /* line */ \n            c_0x3885e695(0xa22b15b3763e98ab5c7a9271731661720dc4f07d827c1984e962ca9957829f60); /* statement */ \nbool successTransfer = wethToken.transfer(oldBidder, oldBid);\n\nc_0x3885e695(0xc2cb866e56d55c24a856b554350dc014715a37cb9664b349ce681a3949dfc377); /* line */ \n            c_0x3885e695(0xea067a7824d16cf0566d26ee5f8b01be4bd9201b6e17663da9817a4c58e1023a); /* requirePre */ \nc_0x3885e695(0xc68aad93fe676eab879d47c51484ec9dba30dc0dc55c9bf73bb4f86fea420100); /* statement */ \nrequire(successTransfer, \"unsuccessful transfer\");c_0x3885e695(0xeaadc5afa6284986e3997f671466c2a50ff93b2e2edab05a8abb08a7698d7533); /* requirePost */ \n\n        }else { c_0x3885e695(0x3873fbbb2f58f0d4a6924ad2b175051ee2423662bf8fdf313b64f3648dacb731); /* branch */ \n}\n    }\n\n    /** @dev everyone can call this method  including the winner of auction after\n     * auction end time and if auction have bidder transfer owner of tree to bidder\n     * and tree funded.\n     * @param _auctionId id of auction that want to finish.\n     */\n    function endAuction(uint256 _auctionId) external ifNotPaused {c_0x3885e695(0x8d29191c03cb1df3588ad5e007f3c8650b6a5d6de04aa549958f9f0e8fe41a80); /* function */ \n\nc_0x3885e695(0x95a7d6bef5fc41e993a23504442cdd8720369e73f55e780107a466bb6ef76f68); /* line */ \n        c_0x3885e695(0x360c284d1b31cb400f4f2178f78cc3a81a111418c81fa6ed6175a3f11273b7d1); /* statement */ \nAuction storage auction = auctions[_auctionId];\n\nc_0x3885e695(0xc4d22a7d246b0fed2219e805609d7117253a7f954627209da6dab4523e3d8cb8); /* line */ \n        c_0x3885e695(0xf95c514f18c76869024ccaf4c94085f781a8f46d6a20304ab79b182bf99621ad); /* requirePre */ \nc_0x3885e695(0x0f8d9d7b391edf688fba4e5c3594595e001db05153d893d63fad984f89cd5a65); /* statement */ \nrequire(auction.endDate > 0, \"Auction is unavailable\");c_0x3885e695(0x054db27c1bd1216493fa37714daf624a461137a8ae1d0fc90887390e8f730f92); /* requirePost */ \n\n\nc_0x3885e695(0xa870e4ec278f77fd40c2c7036e3b1a4d4bddf2d978422ba2b2e8f5560cf8961a); /* line */ \n        c_0x3885e695(0xf5ac8a3a142f498d75fd6aaeeabf90d828d65f2e476d0d73746cfa4a30f876d3); /* requirePre */ \nc_0x3885e695(0x23af786ae4e6753a5755bbdc99aec597a904a23a65f3cd67a26eddb870253eb0); /* statement */ \nrequire(block.timestamp >= auction.endDate, \"Auction not yet ended\");c_0x3885e695(0x79aec84f85cd0c1e185a5ae719ab4bcd49073cac50fe37d3cfef0e3de4e0f8d3); /* requirePost */ \n\n\nc_0x3885e695(0x1107889328dec699763054c484a8d94a34c7fb1a406bb441282d37e0b8366bbf); /* line */ \n        c_0x3885e695(0xf2a09e58a5e893db24d1279f73e58b25af374fbc051beba2e303e08e7d3ab9c5); /* statement */ \nif (auction.bidder != address(0)) {c_0x3885e695(0x79f4228520422026d200b3aa4153f32f67dd060167540474c1baea430b8c84d8); /* branch */ \n\nc_0x3885e695(0x12d80b5b97f0aaba6134393acdc04da3c4c6aef6cd3c56d51fee244d6f560177); /* line */ \n            c_0x3885e695(0x0cc9d3aaafde8b5106a035226ab0904b66d65aa4d49dbd0c823d7805f93f33e4); /* statement */ \nbool success = wethToken.transfer(\n                address(wethFunds),\n                auction.highestBid\n            );\n\nc_0x3885e695(0x2b669c6be29daba406bf4a2351ecb5c23506e296031efea5ead8ff83a5fac04f); /* line */ \n            c_0x3885e695(0x39c7baf309441b38151d39d6ecf7e8ed0bbdd1ef07abab7ae1db64d7b71afb0e); /* requirePre */ \nc_0x3885e695(0x3d3103e8e85136e35dde8ba5d51c15276533c240ee4b321af07d725df5c1bb1a); /* statement */ \nrequire(success, \"unsuccessful transfer\");c_0x3885e695(0xbce9988af78a2426fd8463b9f7714b99975b1de1e99259ebabd9c99edd5e3b81); /* requirePost */ \n\n\nc_0x3885e695(0x0d551dc6edea729054ee6f53add9279bfb83f8ddd557e84238e4787599a2cd8b); /* line */ \n            c_0x3885e695(0x428f18130d9fa14efe120ada61043b7bba7ed54501dc02f3f03894e0cb559bc8); /* statement */ \n(\n                uint16 planterFund,\n                uint16 referralFund,\n                uint16 treeResearch,\n                uint16 localDevelop,\n                uint16 rescueFund,\n                uint16 treejerDevelop,\n                uint16 reserveFund1,\n                uint16 reserveFund2\n            ) = financialModel.findTreeDistribution(auction.treeId);\n\nc_0x3885e695(0xd9098eccaa22015fffc6b40beac4a6a9af4720a6a1833b297ac8a6898acdd5dc); /* line */ \n            c_0x3885e695(0x6bd4f91f0f921d2b942a70ccf6e810efdc77825d207f9223fb8cc72d35082d44); /* statement */ \nwethFunds.fundTree(\n                auction.treeId,\n                auction.highestBid,\n                planterFund,\n                referralFund,\n                treeResearch,\n                localDevelop,\n                rescueFund,\n                treejerDevelop,\n                reserveFund1,\n                reserveFund2\n            );\n\nc_0x3885e695(0x4acc1b5d09780a1cb04e5f50cef7efa695eaef4648f17282dc42aa227cbc63b7); /* line */ \n            c_0x3885e695(0x473ce96363483f8ec8dd35493019b164184ec294691a49823935f53e29015398); /* statement */ \ntreeFactory.updateOwner(auction.treeId, auction.bidder, 2);\n\nc_0x3885e695(0x9cf0743754e125911a75e4a5c9edc276c489f88bc62ba44d57c3689a4527be2a); /* line */ \n            c_0x3885e695(0xfe0b5a3025aaf87be37a1cf67c76c13dae6c04df9e85a5b4eb92b378280dd3a5); /* statement */ \nemit AuctionSettled(\n                _auctionId,\n                auction.treeId,\n                auction.bidder,\n                auction.highestBid\n            );\n        } else {c_0x3885e695(0x4b125902b7cda2546c2fb54f07fcee3f3f65411a4b4d5e70778bef6b44277d8e); /* branch */ \n\nc_0x3885e695(0x58c936c258933039d8131371694cce2458653bf28d40c8d6b25050d57b7156c4); /* line */ \n            c_0x3885e695(0xc1423ed43c6cb3ce10e30a043dfbed8bdf66e1f3e11185e241b2a58c4e6fa66e); /* statement */ \ntreeFactory.updateAvailability(auction.treeId);\nc_0x3885e695(0x8f82ab49836a699b776e2e727f56fdd80bf45830acfe06c603beeee184080103); /* line */ \n            c_0x3885e695(0xb96a6331517ba1ac74e8c977ada4c6134f4e617e5f4327a6b6bbdeba9c65c5b0); /* statement */ \nemit AuctionEnded(_auctionId, auction.treeId);\n        }\n\nc_0x3885e695(0xf9af00f82710bb2e10f7f0459ddd2e743e936de4b3695e74e98043a90c19bcb7); /* line */ \n        delete auctions[_auctionId];\n    }\n\n    /** @dev if latest bid is less than 10 minutes to the end of auctionEndTime:\n     * we will increase auctionEndTime 600 seconds\n     * @param _auctionId id of auction that increase end time of it.\n     */\n    function _increaseAuctionEndTime(uint256 _auctionId) private {c_0x3885e695(0xd58b354b76eb351911304a00c94a3f51f92ba5e1cd1714fef79b6df9229c2b60); /* function */ \n\nc_0x3885e695(0xa826ddff161b308800f5ecd42b1f0297c443e878fc30be047f5663e18e7c3575); /* line */ \n        c_0x3885e695(0x9a3cb0434337f9963d7785e532a0657e9e4226999c82be7dd0b9055754b4b062); /* statement */ \nif (auctions[_auctionId].endDate - block.timestamp <= 600) {c_0x3885e695(0x7d991650e3cce42579640d25cdb08deca7845c508eacde0ebca0ed66922deb59); /* branch */ \n\nc_0x3885e695(0x27422fb25a86534ad3e8a6189472af8f72b5541e046f04866d512ec0cc3adae5); /* line */ \n            c_0x3885e695(0x62c8bb3e9975cd8c0c8ad515376f81c4d53f1f44052d652844bd0bab9a8e806d); /* statement */ \nauctions[_auctionId].endDate += 600;\nc_0x3885e695(0xe5a50f381a7841ab7af2a10065a1beaaaa5736c89a9844551c77eb06148be58f); /* line */ \n            c_0x3885e695(0x5829fa9b0db87a15e685db08d8ce49e131bf96724d741e9ce262aa648816617b); /* statement */ \nemit AuctionEndTimeIncreased(\n                _auctionId,\n                auctions[_auctionId].endDate\n            );\n        }else { c_0x3885e695(0xfa40c5b697bb514942f30741f38accf525fcb21719a0fd30e3dafb1effa06098); /* branch */ \n}\n    }\n}\n",
  "sourcePath": "/home/smuggler/contract/.coverage_contracts/auction/TreeAuction.sol",
  "compiler": {
    "name": "solc",
    "version": "0.8.6+commit.11564f7e.Emscripten.clang"
  },
  "schemaVersion": "3.4.1",
  "updatedAt": "2021-08-31T13:33:31.213Z",
  "devdoc": {
    "kind": "dev",
    "methods": {
      "bid(uint256,uint256)": {
        "details": "bid to {auctions[_auctionId]} by user in a time beetwen start time and end time its require to send at least {higestBid + bidInterval } {_amount}. if new bid done old bidder refund automatically.",
        "params": {
          "_auctionId": "auctionId that user bid for it."
        }
      },
      "createAuction(uint256,uint64,uint64,uint256,uint256)": {
        "details": "admin create auction to a tree with provideStatus of '0' and push that auction to {auctions[auctionId]} and increament auctionId by 1. NOTE its necessary that a fundDestributionModel has been assigned to {_treeId}",
        "params": {
          "_bidInterval": "bid interval for auction . if it set to 10 for example and the last bid is 100.new bidder can bid for 110",
          "_endDate": "end time of auction",
          "_intialPrice": "initial price of auction",
          "_startDate": "strat time of auction",
          "_treeId": "treeId that auction create for"
        }
      },
      "endAuction(uint256)": {
        "details": "everyone can call this method  including the winner of auction after auction end time and if auction have bidder transfer owner of tree to bidder and tree funded.",
        "params": {
          "_auctionId": "id of auction that want to finish."
        }
      },
      "initialize(address)": {
        "details": "initialize accessRestriction contract and set true for isTreeAuction",
        "params": {
          "_accessRestrictionAddress": "set to the address of accessRestriction contract"
        }
      },
      "setFinancialModelAddress(address)": {
        "details": "admin set FinancialModel",
        "params": {
          "_address": "set to the address of financialModel"
        }
      },
      "setTreeFactoryAddress(address)": {
        "details": "admin set TreeFactoryAddress",
        "params": {
          "_address": "set to the address of treeFactory"
        }
      },
      "setTrustedForwarder(address)": {
        "details": "admin set the trustedForwarder adress",
        "params": {
          "_address": "is the address of trusted forwarder"
        }
      },
      "setWethFundsAddress(address)": {
        "details": "admin set WethFunds",
        "params": {
          "_address": "set to the address of wethFunds"
        }
      },
      "setWethTokenAddress(address)": {
        "details": "admin set WethToken",
        "params": {
          "_address": "set to the address of wethToken"
        }
      },
      "versionRecipient()": {
        "details": "return version recipient "
      }
    },
    "title": "Tree Auction ",
    "version": 1
  },
  "userdoc": {
    "kind": "user",
    "methods": {
      "auctions(uint256)": {
        "notice": "NOTE mapping of auctionId to Auction struct "
      },
      "isTreeAuction()": {
        "notice": "NOTE {isTreeAuction} set inside the initialize to {true} "
      },
      "isTrustedForwarder(address)": {
        "notice": "return if the forwarder is trusted to forward relayed transactions to us. the forwarder is required to verify the sender's signature, and verify the call is not a replay."
      }
    },
    "version": 1
  }
}