{
  "contractName": "UniswapV2Migrator",
  "abi": [
    {
      "inputs": [
        {
          "internalType": "address",
          "name": "_factoryV1",
          "type": "address"
        },
        {
          "internalType": "address",
          "name": "_router",
          "type": "address"
        }
      ],
      "stateMutability": "nonpayable",
      "type": "constructor"
    },
    {
      "stateMutability": "payable",
      "type": "receive"
    },
    {
      "inputs": [
        {
          "internalType": "address",
          "name": "token",
          "type": "address"
        },
        {
          "internalType": "uint256",
          "name": "amountTokenMin",
          "type": "uint256"
        },
        {
          "internalType": "uint256",
          "name": "amountETHMin",
          "type": "uint256"
        },
        {
          "internalType": "address",
          "name": "to",
          "type": "address"
        },
        {
          "internalType": "uint256",
          "name": "deadline",
          "type": "uint256"
        }
      ],
      "name": "migrate",
      "outputs": [],
      "stateMutability": "nonpayable",
      "type": "function"
    }
  ],
  "bytecode": "0x60c06040523480156200001157600080fd5b50604051620010ae380380620010ae8339818101604052810190620000379190620000c4565b8173ffffffffffffffffffffffffffffffffffffffff1660808173ffffffffffffffffffffffffffffffffffffffff1660601b815250508073ffffffffffffffffffffffffffffffffffffffff1660a08173ffffffffffffffffffffffffffffffffffffffff1660601b8152505050506200015e565b600081519050620000be8162000144565b92915050565b60008060408385031215620000de57620000dd6200013f565b5b6000620000ee85828601620000ad565b92505060206200010185828601620000ad565b9150509250929050565b600062000118826200011f565b9050919050565b600073ffffffffffffffffffffffffffffffffffffffff82169050919050565b600080fd5b6200014f816200010b565b81146200015b57600080fd5b50565b60805160601c60a05160601c610f17620001976000396000818161031d01528181610347015261040e01526000605b0152610f176000f3fe6080604052600436106100225760003560e01c8063b7df1d251461002e57610029565b3661002957005b600080fd5b34801561003a57600080fd5b506100556004803603810190610050919061087d565b610057565b005b60007f000000000000000000000000000000000000000000000000000000000000000073ffffffffffffffffffffffffffffffffffffffff166306f2bf62876040518263ffffffff1660e01b81526004016100b29190610ae6565b60206040518083038186803b1580156100ca57600080fd5b505afa1580156100de573d6000803e3d6000fd5b505050506040513d601f19601f820116820180604052508101906101029190610850565b905060008173ffffffffffffffffffffffffffffffffffffffff166370a08231336040518263ffffffff1660e01b815260040161013f9190610ae6565b60206040518083038186803b15801561015757600080fd5b505afa15801561016b573d6000803e3d6000fd5b505050506040513d601f19601f8201168201806040525081019061018f9190610925565b90508173ffffffffffffffffffffffffffffffffffffffff166323b872dd3330846040518463ffffffff1660e01b81526004016101ce93929190610b01565b602060405180830381600087803b1580156101e857600080fd5b505af11580156101fc573d6000803e3d6000fd5b505050506040513d601f19601f8201168201806040525081019061022091906108f8565b61025f576040517f08c379a000000000000000000000000000000000000000000000000000000000815260040161025690610c02565b60405180910390fd5b6000808373ffffffffffffffffffffffffffffffffffffffff1663f88bf15a846001807fffffffffffffffffffffffffffffffffffffffffffffffffffffffffffffffff6040518563ffffffff1660e01b81526004016102c29493929190610c42565b6040805180830381600087803b1580156102db57600080fd5b505af11580156102ef573d6000803e3d6000fd5b505050506040513d601f19601f820116820180604052508101906103139190610952565b91509150610342897f00000000000000000000000000000000000000000000000000000000000000008361047b565b6000807f000000000000000000000000000000000000000000000000000000000000000073ffffffffffffffffffffffffffffffffffffffff1663f305d719858d868e8e8e8e6040518863ffffffff1660e01b81526004016103a996959493929190610b61565b6060604051808303818588803b1580156103c257600080fd5b505af11580156103d6573d6000803e3d6000fd5b50505050506040513d601f19601f820116820180604052508101906103fb9190610992565b50915091508183111561044f576104348b7f0000000000000000000000000000000000000000000000000000000000000000600061047b565b61044a8b3384866104459190610cae565b6105b1565b61046e565b8084111561046d5761046c3382866104679190610cae565b6106e7565b5b5b5050505050505050505050565b6000808473ffffffffffffffffffffffffffffffffffffffff1663095ea7b385856040516024016104ad929190610b38565b6040516020818303038152906040529060e01b6020820180517bffffffffffffffffffffffffffffffffffffffffffffffffffffffff83818316178352505050506040516104fb9190610acf565b6000604051808303816000865af19150503d8060008114610538576040519150601f19603f3d011682016040523d82523d6000602084013e61053d565b606091505b509150915081801561056b575060008151148061056a57508080602001905181019061056991906108f8565b5b5b6105aa576040517f08c379a00000000000000000000000000000000000000000000000000000000081526004016105a190610be2565b60405180910390fd5b5050505050565b6000808473ffffffffffffffffffffffffffffffffffffffff1663a9059cbb85856040516024016105e3929190610b38565b6040516020818303038152906040529060e01b6020820180517bffffffffffffffffffffffffffffffffffffffffffffffffffffffff83818316178352505050506040516106319190610acf565b6000604051808303816000865af19150503d806000811461066e576040519150601f19603f3d011682016040523d82523d6000602084013e610673565b606091505b50915091508180156106a157506000815114806106a057508080602001905181019061069f91906108f8565b5b5b6106e0576040517f08c379a00000000000000000000000000000000000000000000000000000000081526004016106d790610bc2565b60405180910390fd5b5050505050565b60008273ffffffffffffffffffffffffffffffffffffffff1682600067ffffffffffffffff81111561071c5761071b610d9e565b5b6040519080825280601f01601f19166020018201604052801561074e5781602001600182028036833780820191505090505b5060405161075c9190610acf565b60006040518083038185875af1925050503d8060008114610799576040519150601f19603f3d011682016040523d82523d6000602084013e61079e565b606091505b50509050806107e2576040517f08c379a00000000000000000000000000000000000000000000000000000000081526004016107d990610c22565b60405180910390fd5b505050565b6000813590506107f681610e9c565b92915050565b60008151905061080b81610e9c565b92915050565b60008151905061082081610eb3565b92915050565b60008135905061083581610eca565b92915050565b60008151905061084a81610eca565b92915050565b60006020828403121561086657610865610dcd565b5b6000610874848285016107fc565b91505092915050565b600080600080600060a0868803121561089957610898610dcd565b5b60006108a7888289016107e7565b95505060206108b888828901610826565b94505060406108c988828901610826565b93505060606108da888289016107e7565b92505060806108eb88828901610826565b9150509295509295909350565b60006020828403121561090e5761090d610dcd565b5b600061091c84828501610811565b91505092915050565b60006020828403121561093b5761093a610dcd565b5b60006109498482850161083b565b91505092915050565b6000806040838503121561096957610968610dcd565b5b60006109778582860161083b565b92505060206109888582860161083b565b9150509250929050565b6000806000606084860312156109ab576109aa610dcd565b5b60006109b98682870161083b565b93505060206109ca8682870161083b565b92505060406109db8682870161083b565b9150509250925092565b6109ee81610ce2565b82525050565b60006109ff82610c87565b610a098185610c92565b9350610a19818560208601610d3c565b80840191505092915050565b610a2e81610d2a565b82525050565b6000610a41601f83610c9d565b9150610a4c82610dd2565b602082019050919050565b6000610a64601e83610c9d565b9150610a6f82610dfb565b602082019050919050565b6000610a87601483610c9d565b9150610a9282610e24565b602082019050919050565b6000610aaa602383610c9d565b9150610ab582610e4d565b604082019050919050565b610ac981610d20565b82525050565b6000610adb82846109f4565b915081905092915050565b6000602082019050610afb60008301846109e5565b92915050565b6000606082019050610b1660008301866109e5565b610b2360208301856109e5565b610b306040830184610ac0565b949350505050565b6000604082019050610b4d60008301856109e5565b610b5a6020830184610ac0565b9392505050565b600060c082019050610b7660008301896109e5565b610b836020830188610ac0565b610b906040830187610ac0565b610b9d6060830186610ac0565b610baa60808301856109e5565b610bb760a0830184610ac0565b979650505050505050565b60006020820190508181036000830152610bdb81610a34565b9050919050565b60006020820190508181036000830152610bfb81610a57565b9050919050565b60006020820190508181036000830152610c1b81610a7a565b9050919050565b60006020820190508181036000830152610c3b81610a9d565b9050919050565b6000608082019050610c576000830187610ac0565b610c646020830186610a25565b610c716040830185610a25565b610c7e6060830184610ac0565b95945050505050565b600081519050919050565b600081905092915050565b600082825260208201905092915050565b6000610cb982610d20565b9150610cc483610d20565b925082821015610cd757610cd6610d6f565b5b828203905092915050565b6000610ced82610d00565b9050919050565b60008115159050919050565b600073ffffffffffffffffffffffffffffffffffffffff82169050919050565b6000819050919050565b6000610d3582610d20565b9050919050565b60005b83811015610d5a578082015181840152602081019050610d3f565b83811115610d69576000848401525b50505050565b7f4e487b7100000000000000000000000000000000000000000000000000000000600052601160045260246000fd5b7f4e487b7100000000000000000000000000000000000000000000000000000000600052604160045260246000fd5b600080fd5b7f5472616e7366657248656c7065723a205452414e534645525f4641494c454400600082015250565b7f5472616e7366657248656c7065723a20415050524f56455f4641494c45440000600082015250565b7f5452414e534645525f46524f4d5f4641494c4544000000000000000000000000600082015250565b7f5472616e7366657248656c7065723a204554485f5452414e534645525f46414960008201527f4c45440000000000000000000000000000000000000000000000000000000000602082015250565b610ea581610ce2565b8114610eb057600080fd5b50565b610ebc81610cf4565b8114610ec757600080fd5b50565b610ed381610d20565b8114610ede57600080fd5b5056fea26469706673582212207caf4e7583b776878303460b38064e5596ce138a8b1adb544d7164e8c7a39ec064736f6c63430008060033",
  "immutableReferences": {
    "13086": [
      {
        "length": 32,
        "start": 91
      }
    ],
    "13089": [
      {
        "length": 32,
        "start": 797
      },
      {
        "length": 32,
        "start": 839
      },
      {
        "length": 32,
        "start": 1038
      }
    ]
  },
  "source": "// SPDX-License-Identifier: GPL-3.0\n\npragma solidity =0.8.6;\n\nimport \"../../lib/contracts/libraries/TransferHelper.sol\";\n\nimport \"./interfaces/IUniswapV2Migrator.sol\";\nimport \"./interfaces/V1/IUniswapV1Factory.sol\";\nimport \"./interfaces/V1/IUniswapV1Exchange.sol\";\nimport \"./interfaces/IUniswapV2Router01.sol\";\nimport \"./interfaces/IERC20New2.sol\";\n\ncontract UniswapV2Migrator is IUniswapV2Migrator {\n    IUniswapV1Factory immutable factoryV1;\n    IUniswapV2Router01 immutable router;\n\n    constructor(address _factoryV1, address _router) {\n        factoryV1 = IUniswapV1Factory(_factoryV1);\n        router = IUniswapV2Router01(_router);\n    }\n\n    // needs to accept ETH from any v1 exchange and the router. ideally this could be enforced, as in the router,\n    // but it's not possible because it requires a call to the v1 factory, which takes too much gas\n    receive() external payable {}\n\n    function migrate(\n        address token,\n        uint256 amountTokenMin,\n        uint256 amountETHMin,\n        address to,\n        uint256 deadline\n    ) external override {\n        IUniswapV1Exchange exchangeV1 = IUniswapV1Exchange(\n            factoryV1.getExchange(token)\n        );\n        uint256 liquidityV1 = exchangeV1.balanceOf(msg.sender);\n        require(\n            exchangeV1.transferFrom(msg.sender, address(this), liquidityV1),\n            \"TRANSFER_FROM_FAILED\"\n        );\n        (uint256 amountETHV1, uint256 amountTokenV1) = exchangeV1\n            .removeLiquidity(liquidityV1, 1, 1, type(uint256).max);\n        TransferHelper.safeApprove(token, address(router), amountTokenV1);\n        (uint256 amountTokenV2, uint256 amountETHV2, ) = router.addLiquidityETH{\n            value: amountETHV1\n        }(token, amountTokenV1, amountTokenMin, amountETHMin, to, deadline);\n        if (amountTokenV1 > amountTokenV2) {\n            TransferHelper.safeApprove(token, address(router), 0); // be a good blockchain citizen, reset allowance to 0\n            TransferHelper.safeTransfer(\n                token,\n                msg.sender,\n                amountTokenV1 - amountTokenV2\n            );\n        } else if (amountETHV1 > amountETHV2) {\n            // addLiquidityETH guarantees that all of amountETHV1 or amountTokenV1 will be used, hence this else is safe\n            TransferHelper.safeTransferETH(\n                msg.sender,\n                amountETHV1 - amountETHV2\n            );\n        }\n    }\n}\n",
  "sourcePath": "/home/smuggler/contract/.coverage_contracts/external/uniswap/v2-periphery/contracts/UniswapV2Migrator.sol",
  "compiler": {
    "name": "solc",
    "version": "0.8.6+commit.11564f7e.Emscripten.clang"
  },
  "schemaVersion": "3.4.1",
  "updatedAt": "2021-08-31T13:33:31.406Z",
  "devdoc": {
    "kind": "dev",
    "methods": {},
    "version": 1
  },
  "userdoc": {
    "kind": "user",
    "methods": {},
    "version": 1
  }
}