{
  "contractName": "WethFunds",
  "abi": [
    {
      "anonymous": false,
      "inputs": [
        {
          "indexed": false,
          "internalType": "uint256",
          "name": "amount",
          "type": "uint256"
        },
        {
          "indexed": false,
          "internalType": "address",
          "name": "account",
          "type": "address"
        },
        {
          "indexed": false,
          "internalType": "string",
          "name": "reason",
          "type": "string"
        }
      ],
      "name": "LocalDevelopBalanceWithdrawn",
      "type": "event"
    },
    {
      "anonymous": false,
      "inputs": [
        {
          "indexed": false,
          "internalType": "uint256",
          "name": "amount",
          "type": "uint256"
        },
        {
          "indexed": false,
          "internalType": "address",
          "name": "account",
          "type": "address"
        },
        {
          "indexed": false,
          "internalType": "string",
          "name": "reason",
          "type": "string"
        }
      ],
      "name": "RescueBalanceWithdrawn",
      "type": "event"
    },
    {
      "anonymous": false,
      "inputs": [
        {
          "indexed": false,
          "internalType": "uint256",
          "name": "treeId",
          "type": "uint256"
        },
        {
          "indexed": false,
          "internalType": "uint256",
          "name": "amount",
          "type": "uint256"
        },
        {
          "indexed": false,
          "internalType": "uint256",
          "name": "planterPart",
          "type": "uint256"
        }
      ],
      "name": "TreeFunded",
      "type": "event"
    },
    {
      "anonymous": false,
      "inputs": [
        {
          "indexed": false,
          "internalType": "uint256",
          "name": "amount",
          "type": "uint256"
        },
        {
          "indexed": false,
          "internalType": "address",
          "name": "account",
          "type": "address"
        },
        {
          "indexed": false,
          "internalType": "string",
          "name": "reason",
          "type": "string"
        }
      ],
      "name": "TreeResearchBalanceWithdrawn",
      "type": "event"
    },
    {
      "anonymous": false,
      "inputs": [
        {
          "indexed": false,
          "internalType": "uint256",
          "name": "amount",
          "type": "uint256"
        },
        {
          "indexed": false,
          "internalType": "address",
          "name": "account",
          "type": "address"
        },
        {
          "indexed": false,
          "internalType": "string",
          "name": "reason",
          "type": "string"
        }
      ],
      "name": "TreejerDevelopBalanceWithdrawn",
      "type": "event"
    },
    {
      "anonymous": false,
      "inputs": [
        {
          "indexed": false,
          "internalType": "uint256",
          "name": "amount",
          "type": "uint256"
        },
        {
          "indexed": false,
          "internalType": "address",
          "name": "account",
          "type": "address"
        },
        {
          "indexed": false,
          "internalType": "string",
          "name": "reason",
          "type": "string"
        }
      ],
      "name": "reserveBalanceWithdrawn1",
      "type": "event"
    },
    {
      "anonymous": false,
      "inputs": [
        {
          "indexed": false,
          "internalType": "uint256",
          "name": "amount",
          "type": "uint256"
        },
        {
          "indexed": false,
          "internalType": "address",
          "name": "account",
          "type": "address"
        },
        {
          "indexed": false,
          "internalType": "string",
          "name": "reason",
          "type": "string"
        }
      ],
      "name": "reserveBalanceWithdrawn2",
      "type": "event"
    },
    {
      "inputs": [],
      "name": "accessRestriction",
      "outputs": [
        {
          "internalType": "contract IAccessRestriction",
          "name": "",
          "type": "address"
        }
      ],
      "stateMutability": "view",
      "type": "function"
    },
    {
      "inputs": [],
      "name": "daiAddress",
      "outputs": [
        {
          "internalType": "address",
          "name": "",
          "type": "address"
        }
      ],
      "stateMutability": "view",
      "type": "function"
    },
    {
      "inputs": [],
      "name": "isWethFunds",
      "outputs": [
        {
          "internalType": "bool",
          "name": "",
          "type": "bool"
        }
      ],
      "stateMutability": "view",
      "type": "function"
    },
    {
      "inputs": [],
      "name": "localDevelopAddress",
      "outputs": [
        {
          "internalType": "address",
          "name": "",
          "type": "address"
        }
      ],
      "stateMutability": "view",
      "type": "function"
    },
    {
      "inputs": [],
      "name": "planterFundContract",
      "outputs": [
        {
          "internalType": "contract IPlanterFund",
          "name": "",
          "type": "address"
        }
      ],
      "stateMutability": "view",
      "type": "function"
    },
    {
      "inputs": [],
      "name": "rescueFundAddress",
      "outputs": [
        {
          "internalType": "address",
          "name": "",
          "type": "address"
        }
      ],
      "stateMutability": "view",
      "type": "function"
    },
    {
      "inputs": [],
      "name": "reserveFundAddress1",
      "outputs": [
        {
          "internalType": "address",
          "name": "",
          "type": "address"
        }
      ],
      "stateMutability": "view",
      "type": "function"
    },
    {
      "inputs": [],
      "name": "reserveFundAddress2",
      "outputs": [
        {
          "internalType": "address",
          "name": "",
          "type": "address"
        }
      ],
      "stateMutability": "view",
      "type": "function"
    },
    {
      "inputs": [],
      "name": "totalFunds",
      "outputs": [
        {
          "internalType": "uint256",
          "name": "treeResearch",
          "type": "uint256"
        },
        {
          "internalType": "uint256",
          "name": "localDevelop",
          "type": "uint256"
        },
        {
          "internalType": "uint256",
          "name": "rescueFund",
          "type": "uint256"
        },
        {
          "internalType": "uint256",
          "name": "treejerDevelop",
          "type": "uint256"
        },
        {
          "internalType": "uint256",
          "name": "reserveFund1",
          "type": "uint256"
        },
        {
          "internalType": "uint256",
          "name": "reserveFund2",
          "type": "uint256"
        }
      ],
      "stateMutability": "view",
      "type": "function"
    },
    {
      "inputs": [],
      "name": "treeResearchAddress",
      "outputs": [
        {
          "internalType": "address",
          "name": "",
          "type": "address"
        }
      ],
      "stateMutability": "view",
      "type": "function"
    },
    {
      "inputs": [],
      "name": "treejerDevelopAddress",
      "outputs": [
        {
          "internalType": "address",
          "name": "",
          "type": "address"
        }
      ],
      "stateMutability": "view",
      "type": "function"
    },
    {
      "inputs": [],
      "name": "uniswapRouter",
      "outputs": [
        {
          "internalType": "contract IUniswapV2Router02New",
          "name": "",
          "type": "address"
        }
      ],
      "stateMutability": "view",
      "type": "function"
    },
    {
      "inputs": [],
      "name": "wethToken",
      "outputs": [
        {
          "internalType": "contract IERC20Upgradeable",
          "name": "",
          "type": "address"
        }
      ],
      "stateMutability": "view",
      "type": "function"
    },
    {
      "inputs": [
        {
          "internalType": "bytes32",
          "name": "c__0xd7dd2f7a",
          "type": "bytes32"
        }
      ],
      "name": "c_0xd7dd2f7a",
      "outputs": [],
      "stateMutability": "pure",
      "type": "function"
    },
    {
      "inputs": [
        {
          "internalType": "address",
          "name": "_accessRestrictionAddress",
          "type": "address"
        }
      ],
      "name": "initialize",
      "outputs": [],
      "stateMutability": "nonpayable",
      "type": "function"
    },
    {
      "inputs": [
        {
          "internalType": "address",
          "name": "_daiAddress",
          "type": "address"
        }
      ],
      "name": "setDaiAddress",
      "outputs": [],
      "stateMutability": "nonpayable",
      "type": "function"
    },
    {
      "inputs": [
        {
          "internalType": "address",
          "name": "_wethTokenAddress",
          "type": "address"
        }
      ],
      "name": "setWethTokenAddress",
      "outputs": [],
      "stateMutability": "nonpayable",
      "type": "function"
    },
    {
      "inputs": [
        {
          "internalType": "address",
          "name": "_uniswapRouterAddress",
          "type": "address"
        }
      ],
      "name": "setUniswapRouterAddress",
      "outputs": [],
      "stateMutability": "nonpayable",
      "type": "function"
    },
    {
      "inputs": [
        {
          "internalType": "address",
          "name": "_address",
          "type": "address"
        }
      ],
      "name": "setPlanterFundContractAddress",
      "outputs": [],
      "stateMutability": "nonpayable",
      "type": "function"
    },
    {
      "inputs": [
        {
          "internalType": "address payable",
          "name": "_address",
          "type": "address"
        }
      ],
      "name": "setTreeResearchAddress",
      "outputs": [],
      "stateMutability": "nonpayable",
      "type": "function"
    },
    {
      "inputs": [
        {
          "internalType": "address payable",
          "name": "_address",
          "type": "address"
        }
      ],
      "name": "setLocalDevelopAddress",
      "outputs": [],
      "stateMutability": "nonpayable",
      "type": "function"
    },
    {
      "inputs": [
        {
          "internalType": "address payable",
          "name": "_address",
          "type": "address"
        }
      ],
      "name": "setRescueFundAddress",
      "outputs": [],
      "stateMutability": "nonpayable",
      "type": "function"
    },
    {
      "inputs": [
        {
          "internalType": "address payable",
          "name": "_address",
          "type": "address"
        }
      ],
      "name": "setTreejerDevelopAddress",
      "outputs": [],
      "stateMutability": "nonpayable",
      "type": "function"
    },
    {
      "inputs": [
        {
          "internalType": "address payable",
          "name": "_address",
          "type": "address"
        }
      ],
      "name": "setReserveFund1Address",
      "outputs": [],
      "stateMutability": "nonpayable",
      "type": "function"
    },
    {
      "inputs": [
        {
          "internalType": "address payable",
          "name": "_address",
          "type": "address"
        }
      ],
      "name": "setReserveFund2Address",
      "outputs": [],
      "stateMutability": "nonpayable",
      "type": "function"
    },
    {
      "inputs": [
        {
          "internalType": "uint256",
          "name": "_treeId",
          "type": "uint256"
        },
        {
          "internalType": "uint256",
          "name": "_amount",
          "type": "uint256"
        },
        {
          "internalType": "uint16",
          "name": "_planterFund",
          "type": "uint16"
        },
        {
          "internalType": "uint16",
          "name": "_referralFund",
          "type": "uint16"
        },
        {
          "internalType": "uint16",
          "name": "_treeResearch",
          "type": "uint16"
        },
        {
          "internalType": "uint16",
          "name": "_localDevelop",
          "type": "uint16"
        },
        {
          "internalType": "uint16",
          "name": "_rescueFund",
          "type": "uint16"
        },
        {
          "internalType": "uint16",
          "name": "_treejerDevelop",
          "type": "uint16"
        },
        {
          "internalType": "uint16",
          "name": "_reserveFund1",
          "type": "uint16"
        },
        {
          "internalType": "uint16",
          "name": "_reserveFund2",
          "type": "uint16"
        }
      ],
      "name": "fundTree",
      "outputs": [],
      "stateMutability": "nonpayable",
      "type": "function"
    },
    {
      "inputs": [
        {
          "internalType": "uint256",
          "name": "_amount",
          "type": "uint256"
        },
        {
          "internalType": "string",
          "name": "_reason",
          "type": "string"
        }
      ],
      "name": "withdrawTreeResearch",
      "outputs": [],
      "stateMutability": "nonpayable",
      "type": "function"
    },
    {
      "inputs": [
        {
          "internalType": "uint256",
          "name": "_amount",
          "type": "uint256"
        },
        {
          "internalType": "string",
          "name": "_reason",
          "type": "string"
        }
      ],
      "name": "withdrawLocalDevelop",
      "outputs": [],
      "stateMutability": "nonpayable",
      "type": "function"
    },
    {
      "inputs": [
        {
          "internalType": "uint256",
          "name": "_amount",
          "type": "uint256"
        },
        {
          "internalType": "string",
          "name": "_reason",
          "type": "string"
        }
      ],
      "name": "withdrawRescueFund",
      "outputs": [],
      "stateMutability": "nonpayable",
      "type": "function"
    },
    {
      "inputs": [
        {
          "internalType": "uint256",
          "name": "_amount",
          "type": "uint256"
        },
        {
          "internalType": "string",
          "name": "_reason",
          "type": "string"
        }
      ],
      "name": "withdrawTreejerDevelop",
      "outputs": [],
      "stateMutability": "nonpayable",
      "type": "function"
    },
    {
      "inputs": [
        {
          "internalType": "uint256",
          "name": "_amount",
          "type": "uint256"
        },
        {
          "internalType": "string",
          "name": "_reason",
          "type": "string"
        }
      ],
      "name": "withdrawReserveFund1",
      "outputs": [],
      "stateMutability": "nonpayable",
      "type": "function"
    },
    {
      "inputs": [
        {
          "internalType": "uint256",
          "name": "_amount",
          "type": "uint256"
        },
        {
          "internalType": "string",
          "name": "_reason",
          "type": "string"
        }
      ],
      "name": "withdrawReserveFund2",
      "outputs": [],
      "stateMutability": "nonpayable",
      "type": "function"
    }
  ],
  "bytecode": "0x608060405234801561001057600080fd5b50617f0b80620000216000396000f3fe608060405234801561001057600080fd5b50600436106101f05760003560e01c80638194b85b1161010f578063b3675832116100a2578063d6762c4a11610071578063d6762c4a14610522578063db15d18514610540578063e5356a651461055c578063ff4eb8bb14610578576101f0565b8063b3675832146104b2578063ba6138a5146104ce578063c4d66de8146104ea578063cb13011c14610506576101f0565b80639e6454aa116100de5780639e6454aa1461043e578063a037edcc1461045a578063a47fddb014610478578063a669359014610496576101f0565b80638194b85b146103c757806384457b63146103e3578063968ed600146103ff57806399fece4014610422576101f0565b8063536ad73a116101875780636acc9777116101565780636acc977714610351578063735de9f71461036d5780637a876fd81461038b57806380d663ea146103a9576101f0565b8063536ad73a146102df5780635773780d146102fb5780635f335a9314610317578063673dba2114610335576101f0565b8063313b3937116101c3578063313b39371461026b5780634b57b0be146102895780634fe49674146102a7578063522a8221146102c3576101f0565b80630a43649a146101f5578063233ac7aa146102135780632c3872751461022f578063310f6dec1461024d575b600080fd5b6101fd610594565b60405161020a9190617699565b60405180910390f35b61022d600480360381019061022891906172b1565b6105ba565b005b610237610936565b6040516102449190617699565b60405180910390f35b61025561095c565b6040516102629190617699565b60405180910390f35b610273610982565b60405161028091906176dd565b60405180910390f35b610291610995565b60405161029e9190617713565b60405180910390f35b6102c160048036038101906102bc91906172b1565b6109bb565b005b6102dd60048036038101906102d89190617354565b610d37565b005b6102f960048036038101906102f49190617381565b610d3a565b005b61031560048036038101906103109190617284565b6115be565b005b61031f611956565b60405161032c9190617699565b60405180910390f35b61034f600480360381019061034a9190617381565b61197c565b005b61036b60048036038101906103669190617284565b612200565b005b6103756125da565b6040516103829190617749565b60405180910390f35b610393612600565b6040516103a09190617699565b60405180910390f35b6103b1612626565b6040516103be919061772e565b60405180910390f35b6103e160048036038101906103dc91906172b1565b61264c565b005b6103fd60048036038101906103f891906172b1565b6129c8565b005b610407612d44565b604051610419969594939291906178d5565b60405180910390f35b61043c60048036038101906104379190617381565b612d6e565b005b610458600480360381019061045391906172b1565b6135f1565b005b61046261396d565b60405161046f9190617699565b60405180910390f35b610480613993565b60405161048d9190617699565b60405180910390f35b6104b060048036038101906104ab9190617284565b6139b9565b005b6104cc60048036038101906104c791906173e1565b613d35565b005b6104e860048036038101906104e39190617381565b61426b565b005b61050460048036038101906104ff9190617284565b614aef565b005b610520600480360381019061051b91906172b1565b614e96565b005b61052a615212565b60405161053791906176f8565b60405180910390f35b61055a60048036038101906105559190617284565b615238565b005b61057660048036038101906105719190617381565b615611565b005b610592600480360381019061058d9190617381565b615e93565b005b600c60009054906101000a900473ffffffffffffffffffffffffffffffffffffffff1681565b6105e67f4387c132d039219b9717b185471afb98228f3881c496bc454b40c42abbf7c67560001b610d37565b6106127f0c12063a02b34ee9eac7bd2c37b953996af6c589227276ad0b738bed8fdd0b0160001b610d37565b61063e7f5712950a949a1ce40339ae39f25e5e1dc0cd7e65ed902f7e9f46ced64b1c489a60001b610d37565b600060039054906101000a900473ffffffffffffffffffffffffffffffffffffffff1673ffffffffffffffffffffffffffffffffffffffff16638413ec14336040518263ffffffff1660e01b81526004016106999190617699565b60006040518083038186803b1580156106b157600080fd5b505afa1580156106c5573d6000803e3d6000fd5b505050506106f57fd57b34e944d75f2915379be003196ce732222b90d3f9be8e935f1d86772c263c60001b610d37565b806107217e7882005a6c9b3db1509fbb93618baaa23f5e6e9fe3c4714fc9a2f6afe903df60001b610d37565b61074d7f46a5d5e2ed6c75af1f7721c48797f2adb7c34c7fd65791b000a64b60037fccda60001b610d37565b6107797fd8596d8c76a9466a0808b910d6ac5dda24da7df7b2a977a7e33afbbd32aba3c060001b610d37565b6107a57ffd061aa9d74bfe1c81390692c81dd1331f7ad8d2b02aab2831aa2173df16066360001b610d37565b600073ffffffffffffffffffffffffffffffffffffffff168173ffffffffffffffffffffffffffffffffffffffff161415610815576040517f08c379a000000000000000000000000000000000000000000000000000000000815260040161080c906177a4565b60405180910390fd5b6108417f8da5ea3def2cce20a38e0249972d2eb7b239c4eca3787c76b3802946ca8d5ec460001b610d37565b61086d7fc24c1adaa223d7714126727613986443b5431013bf0c89e47727260115fabf4060001b610d37565b6108997f0cf4fa0bb1b69d93b8a54310ca81394df0e5a4f901cf65c0a748005fd45ee09a60001b610d37565b6108c57f6f5a96b374282a40381b0135a7f1dec18738b2aeba3ee22af09210cfb1a398a260001b610d37565b6108f17f78e5e454f3a88e5f1fbe16a3f92a33374171b0d5f80bcd179b28dc13adbc17fb60001b610d37565b81600e60006101000a81548173ffffffffffffffffffffffffffffffffffffffff021916908373ffffffffffffffffffffffffffffffffffffffff1602179055505050565b600460009054906101000a900473ffffffffffffffffffffffffffffffffffffffff1681565b600d60009054906101000a900473ffffffffffffffffffffffffffffffffffffffff1681565b600060029054906101000a900460ff1681565b600260009054906101000a900473ffffffffffffffffffffffffffffffffffffffff1681565b6109e77f4387c132d039219b9717b185471afb98228f3881c496bc454b40c42abbf7c67560001b610d37565b610a137f0c12063a02b34ee9eac7bd2c37b953996af6c589227276ad0b738bed8fdd0b0160001b610d37565b610a3f7f5712950a949a1ce40339ae39f25e5e1dc0cd7e65ed902f7e9f46ced64b1c489a60001b610d37565b600060039054906101000a900473ffffffffffffffffffffffffffffffffffffffff1673ffffffffffffffffffffffffffffffffffffffff16638413ec14336040518263ffffffff1660e01b8152600401610a9a9190617699565b60006040518083038186803b158015610ab257600080fd5b505afa158015610ac6573d6000803e3d6000fd5b50505050610af67fd57b34e944d75f2915379be003196ce732222b90d3f9be8e935f1d86772c263c60001b610d37565b80610b227e7882005a6c9b3db1509fbb93618baaa23f5e6e9fe3c4714fc9a2f6afe903df60001b610d37565b610b4e7f46a5d5e2ed6c75af1f7721c48797f2adb7c34c7fd65791b000a64b60037fccda60001b610d37565b610b7a7fd8596d8c76a9466a0808b910d6ac5dda24da7df7b2a977a7e33afbbd32aba3c060001b610d37565b610ba67ffd061aa9d74bfe1c81390692c81dd1331f7ad8d2b02aab2831aa2173df16066360001b610d37565b600073ffffffffffffffffffffffffffffffffffffffff168173ffffffffffffffffffffffffffffffffffffffff161415610c16576040517f08c379a0000000000000000000000000000000000000000000000000000000008152600401610c0d906177a4565b60405180910390fd5b610c427f8da5ea3def2cce20a38e0249972d2eb7b239c4eca3787c76b3802946ca8d5ec460001b610d37565b610c6e7fc24c1adaa223d7714126727613986443b5431013bf0c89e47727260115fabf4060001b610d37565b610c9a7f76cbbd673d17fa590285af406782ea329a465640b18d0423afe6a3c84f8c09a660001b610d37565b610cc67f9c1113a5e9359fa46ad4c02a02273b09a1c78a2b1ad3bcccf0287b543881f27260001b610d37565b610cf27fea0681b5a48f754a8127f17aecd754393d340f570154ac429acf9bec9f4d542060001b610d37565b81601060006101000a81548173ffffffffffffffffffffffffffffffffffffffff021916908373ffffffffffffffffffffffffffffffffffffffff1602179055505050565b50565b610d667fc0ee46b8469e4cc9b2eb97686fe0b041315b757b80ac7bd089190fd56dece1ca60001b610d37565b610d927f0e1cbb5473da23f932b969946ed389347343de5224ae4d29e9ca0cef3b46f70a60001b610d37565b610dbe7fd8cecfe751c2c6b1604e07593f149656c64b71c10ea5a4f2aa46dbd004b877b860001b610d37565b600060039054906101000a900473ffffffffffffffffffffffffffffffffffffffff1673ffffffffffffffffffffffffffffffffffffffff16634d868f986040518163ffffffff1660e01b815260040160006040518083038186803b158015610e2657600080fd5b505afa158015610e3a573d6000803e3d6000fd5b50505050610e6a7f9fe82423c38035538aab2c5b11222b5bedfe353e8b0ba3806b4d54a3378201bd60001b610d37565b610e967f4387c132d039219b9717b185471afb98228f3881c496bc454b40c42abbf7c67560001b610d37565b610ec27f0c12063a02b34ee9eac7bd2c37b953996af6c589227276ad0b738bed8fdd0b0160001b610d37565b610eee7f5712950a949a1ce40339ae39f25e5e1dc0cd7e65ed902f7e9f46ced64b1c489a60001b610d37565b600060039054906101000a900473ffffffffffffffffffffffffffffffffffffffff1673ffffffffffffffffffffffffffffffffffffffff16638413ec14336040518263ffffffff1660e01b8152600401610f499190617699565b60006040518083038186803b158015610f6157600080fd5b505afa158015610f75573d6000803e3d6000fd5b50505050610fa57fd57b34e944d75f2915379be003196ce732222b90d3f9be8e935f1d86772c263c60001b610d37565b600d60009054906101000a900473ffffffffffffffffffffffffffffffffffffffff16610ff37e7882005a6c9b3db1509fbb93618baaa23f5e6e9fe3c4714fc9a2f6afe903df60001b610d37565b61101f7f46a5d5e2ed6c75af1f7721c48797f2adb7c34c7fd65791b000a64b60037fccda60001b610d37565b61104b7fd8596d8c76a9466a0808b910d6ac5dda24da7df7b2a977a7e33afbbd32aba3c060001b610d37565b6110777ffd061aa9d74bfe1c81390692c81dd1331f7ad8d2b02aab2831aa2173df16066360001b610d37565b600073ffffffffffffffffffffffffffffffffffffffff168173ffffffffffffffffffffffffffffffffffffffff1614156110e7576040517f08c379a00000000000000000000000000000000000000000000000000000000081526004016110de906177a4565b60405180910390fd5b6111137f8da5ea3def2cce20a38e0249972d2eb7b239c4eca3787c76b3802946ca8d5ec460001b610d37565b61113f7fc24c1adaa223d7714126727613986443b5431013bf0c89e47727260115fabf4060001b610d37565b61116b7f88a9a0ebdd0ea508d058dd0988d01be62dc988d48e1134d3c55d50880525ad9060001b610d37565b6111977fe22eb2ce4bf1e98b88193cc50ccbfdb7b566d32d8a4a10623cdd785860aad99e60001b610d37565b6111c37f50a467e57a30a392c251214387bcb3cb6a7b973ec20441adbe1d0522cb7949a760001b610d37565b6111ef7f0777cfb2e0c5bf6990e07308d2c70bbd6ee6ba2bf8cfe2beeb48ffba59f37b6f60001b610d37565b60056002015484111580156112045750600084115b611243576040517f08c379a000000000000000000000000000000000000000000000000000000000815260040161123a90617764565b60405180910390fd5b61126f7fa12b58598403f1eabab16ec2554c378a4c7a0626c5c35c46b539be5027e05b1d60001b610d37565b61129b7f828e10b8c4ff58b2b84e7f9321c1ec99f99cd88cb50b56493945c3e3323f3b5f60001b610d37565b6112c77f14e223f5ca08f785fa8f2d8648be62953f32f6323d2ac2da80277034e066905c60001b610d37565b83600560020160008282546112dc9190617aea565b9250508190555061130f7f384cab6c3ea3341499b19f4fa91e3929743031d9aae61e0ca63a81a581e4118e60001b610d37565b61133b7fa94a82700aa56ed9c1d08f3cd9563a9876396c0386bda0c71ee7879ee26159dc60001b610d37565b6000600260009054906101000a900473ffffffffffffffffffffffffffffffffffffffff1673ffffffffffffffffffffffffffffffffffffffff1663a9059cbb600d60009054906101000a900473ffffffffffffffffffffffffffffffffffffffff16876040518363ffffffff1660e01b81526004016113bc9291906176b4565b602060405180830381600087803b1580156113d657600080fd5b505af11580156113ea573d6000803e3d6000fd5b505050506040513d601f19601f8201168201806040525081019061140e9190617327565b905061143c7f96e8bbda08e49ac266d03090ea4a82c7ea6659fe1216f235803a4affbf869bc660001b610d37565b6114687fa8a4a1c0bf09d98186acaa9300331a47e2198ef208d05a07e1dbd4bc647e265260001b610d37565b6114947fa60f872360bdd3dc52b2e04b7000389a6716029cc03cee8b469968c8ac496df960001b610d37565b806114d4576040517f08c379a00000000000000000000000000000000000000000000000000000000081526004016114cb90617784565b60405180910390fd5b6115007f62c226916e4d4370c58aaa6d6674a5ae42a6346ddad8009326be248b213a906f60001b610d37565b61152c7f569082f9e07fc60658c395e8c4700e7ec283369ab385789569c7a82833de8e7f60001b610d37565b6115587f4950709392bc59671d30b93e67f3ca563592612dcaf2376b75f54d4f0240840560001b610d37565b7f85700b57d5ec89a15f491812de22a34a5bdca335fc68880dbab357cf81151fab85600d60009054906101000a900473ffffffffffffffffffffffffffffffffffffffff1686866040516115af9493929190617804565b60405180910390a15050505050565b6115ea7f4387c132d039219b9717b185471afb98228f3881c496bc454b40c42abbf7c67560001b610d37565b6116167f0c12063a02b34ee9eac7bd2c37b953996af6c589227276ad0b738bed8fdd0b0160001b610d37565b6116427f5712950a949a1ce40339ae39f25e5e1dc0cd7e65ed902f7e9f46ced64b1c489a60001b610d37565b600060039054906101000a900473ffffffffffffffffffffffffffffffffffffffff1673ffffffffffffffffffffffffffffffffffffffff16638413ec14336040518263ffffffff1660e01b815260040161169d9190617699565b60006040518083038186803b1580156116b557600080fd5b505afa1580156116c9573d6000803e3d6000fd5b505050506116f97fd57b34e944d75f2915379be003196ce732222b90d3f9be8e935f1d86772c263c60001b610d37565b6117257f2cbd3ba47b833563761e988ca7ed463243a519d38b7a428800295b4ecf3b06b960001b610d37565b6117517fae55a220ffed4c22fc29f272357e4c59a9282fcfc096beab886a97a2c923f0ca60001b610d37565b61177d7fb31400bb99e736a9fda65a6470a94a59c1fd715f78e456b32e400c30494c884c60001b610d37565b60008190506117ae7fd3147d7d31077cc59cfa65b5a319e1b4c69165fee0f2dc4e8e746076747c087460001b610d37565b6117da7f4a44f0c66df6c7a0a3bdde11e6170a7c39eea9a67b798c752e93e435dd32a59260001b610d37565b6118067f4298876ed269cd8fb656dbc757c27abd71ee861aff0dcecc0cafa58877f0a04760001b610d37565b8073ffffffffffffffffffffffffffffffffffffffff1663349904da6040518163ffffffff1660e01b815260040160206040518083038186803b15801561184c57600080fd5b505afa158015611860573d6000803e3d6000fd5b505050506040513d601f19601f820116820180604052508101906118849190617327565b61188d57600080fd5b6118b97ff2b319d012271ab9d2672689fcac5bca5bb6d3bc4d615a94b7d64950eee1f51260001b610d37565b6118e57f3ed82169eb4fa34de8ef16445d0e6d2259b04fe3562fd14b60fd1b47afe28d8760001b610d37565b6119117f62b789ebe2eef27e598e35e661a8a8e08419d953fee32bceafe728965bb8039260001b610d37565b80600160006101000a81548173ffffffffffffffffffffffffffffffffffffffff021916908373ffffffffffffffffffffffffffffffffffffffff1602179055505050565b601060009054906101000a900473ffffffffffffffffffffffffffffffffffffffff1681565b6119a87fc0ee46b8469e4cc9b2eb97686fe0b041315b757b80ac7bd089190fd56dece1ca60001b610d37565b6119d47f0e1cbb5473da23f932b969946ed389347343de5224ae4d29e9ca0cef3b46f70a60001b610d37565b611a007fd8cecfe751c2c6b1604e07593f149656c64b71c10ea5a4f2aa46dbd004b877b860001b610d37565b600060039054906101000a900473ffffffffffffffffffffffffffffffffffffffff1673ffffffffffffffffffffffffffffffffffffffff16634d868f986040518163ffffffff1660e01b815260040160006040518083038186803b158015611a6857600080fd5b505afa158015611a7c573d6000803e3d6000fd5b50505050611aac7f9fe82423c38035538aab2c5b11222b5bedfe353e8b0ba3806b4d54a3378201bd60001b610d37565b611ad87f4387c132d039219b9717b185471afb98228f3881c496bc454b40c42abbf7c67560001b610d37565b611b047f0c12063a02b34ee9eac7bd2c37b953996af6c589227276ad0b738bed8fdd0b0160001b610d37565b611b307f5712950a949a1ce40339ae39f25e5e1dc0cd7e65ed902f7e9f46ced64b1c489a60001b610d37565b600060039054906101000a900473ffffffffffffffffffffffffffffffffffffffff1673ffffffffffffffffffffffffffffffffffffffff16638413ec14336040518263ffffffff1660e01b8152600401611b8b9190617699565b60006040518083038186803b158015611ba357600080fd5b505afa158015611bb7573d6000803e3d6000fd5b50505050611be77fd57b34e944d75f2915379be003196ce732222b90d3f9be8e935f1d86772c263c60001b610d37565b600e60009054906101000a900473ffffffffffffffffffffffffffffffffffffffff16611c357e7882005a6c9b3db1509fbb93618baaa23f5e6e9fe3c4714fc9a2f6afe903df60001b610d37565b611c617f46a5d5e2ed6c75af1f7721c48797f2adb7c34c7fd65791b000a64b60037fccda60001b610d37565b611c8d7fd8596d8c76a9466a0808b910d6ac5dda24da7df7b2a977a7e33afbbd32aba3c060001b610d37565b611cb97ffd061aa9d74bfe1c81390692c81dd1331f7ad8d2b02aab2831aa2173df16066360001b610d37565b600073ffffffffffffffffffffffffffffffffffffffff168173ffffffffffffffffffffffffffffffffffffffff161415611d29576040517f08c379a0000000000000000000000000000000000000000000000000000000008152600401611d20906177a4565b60405180910390fd5b611d557f8da5ea3def2cce20a38e0249972d2eb7b239c4eca3787c76b3802946ca8d5ec460001b610d37565b611d817fc24c1adaa223d7714126727613986443b5431013bf0c89e47727260115fabf4060001b610d37565b611dad7f1ac44aeb88c7544f2df8c949dfb7f48fc769763998d355d8ee9abed477adb59660001b610d37565b611dd97f8441fb9ebb1c74b0aab991d63e17413d08e7881e69c29c4d2e6d2658b18d404460001b610d37565b611e057f9e38b38097c24b3417836e6638f195bf9031411340778702212a7c4508ffae2960001b610d37565b611e317f93feaf4ca9ecbd47525adf099f54b7180f7540ed3e5634847f421e16cc9630f660001b610d37565b6005600301548411158015611e465750600084115b611e85576040517f08c379a0000000000000000000000000000000000000000000000000000000008152600401611e7c90617764565b60405180910390fd5b611eb17f7afd0e1efd2be57efd74d08653dc1e08d4ee7fcc9cb2aca067f74cfef5bf4b7260001b610d37565b611edd7f68ec451fe75f14397478ebfadd07cf232d6396dacb715df512f7ac1abc24e51960001b610d37565b611f097ff2f9108f79204f153d9a910380eb53c3eb0dfbd9e2f63eebf687e0192a986d0760001b610d37565b8360056003016000828254611f1e9190617aea565b92505081905550611f517ff97ac3cbf4b8cef9e236501843cfefbda7f6184c67fbd35c786b2ca99b9b90ca60001b610d37565b611f7d7f81f12874bed5ccf2a62a333dd42e085a6ccafc110fcf87591ac93d4846e2574460001b610d37565b6000600260009054906101000a900473ffffffffffffffffffffffffffffffffffffffff1673ffffffffffffffffffffffffffffffffffffffff1663a9059cbb600e60009054906101000a900473ffffffffffffffffffffffffffffffffffffffff16876040518363ffffffff1660e01b8152600401611ffe9291906176b4565b602060405180830381600087803b15801561201857600080fd5b505af115801561202c573d6000803e3d6000fd5b505050506040513d601f19601f820116820180604052508101906120509190617327565b905061207e7f94f622d5c0fbc27b156f8cded42468995cac6da93b6070e510a2943027afb05960001b610d37565b6120aa7fe4be368806bdd354b07aa5f5e684fc399122e0f139c771df69b943acbdf94a6660001b610d37565b6120d67f436e8d1195575d0fb84f8c3d479ee8761cb01f198e1835bafda8d18aedaa56a060001b610d37565b80612116576040517f08c379a000000000000000000000000000000000000000000000000000000000815260040161210d90617784565b60405180910390fd5b6121427ff95bdfd9c0248f57aedb861828ab7f07310257b333a049222be320257093e29560001b610d37565b61216e7f2cf5697c98198c213d0df9cc8ae377b45c3e77d5f1b075c5d1e15e3ab28d882960001b610d37565b61219a7fc28f28f2a3d66ba5b630c29d943a33cdad9a80c489479af70caee760a3ba13be60001b610d37565b7f174f34055ef4d06c26032b349f20281a6e7b69b17352d03a658bb3c02561367b85600e60009054906101000a900473ffffffffffffffffffffffffffffffffffffffff1686866040516121f19493929190617804565b60405180910390a15050505050565b61222c7f4387c132d039219b9717b185471afb98228f3881c496bc454b40c42abbf7c67560001b610d37565b6122587f0c12063a02b34ee9eac7bd2c37b953996af6c589227276ad0b738bed8fdd0b0160001b610d37565b6122847f5712950a949a1ce40339ae39f25e5e1dc0cd7e65ed902f7e9f46ced64b1c489a60001b610d37565b600060039054906101000a900473ffffffffffffffffffffffffffffffffffffffff1673ffffffffffffffffffffffffffffffffffffffff16638413ec14336040518263ffffffff1660e01b81526004016122df9190617699565b60006040518083038186803b1580156122f757600080fd5b505afa15801561230b573d6000803e3d6000fd5b5050505061233b7fd57b34e944d75f2915379be003196ce732222b90d3f9be8e935f1d86772c263c60001b610d37565b806123677e7882005a6c9b3db1509fbb93618baaa23f5e6e9fe3c4714fc9a2f6afe903df60001b610d37565b6123937f46a5d5e2ed6c75af1f7721c48797f2adb7c34c7fd65791b000a64b60037fccda60001b610d37565b6123bf7fd8596d8c76a9466a0808b910d6ac5dda24da7df7b2a977a7e33afbbd32aba3c060001b610d37565b6123eb7ffd061aa9d74bfe1c81390692c81dd1331f7ad8d2b02aab2831aa2173df16066360001b610d37565b600073ffffffffffffffffffffffffffffffffffffffff168173ffffffffffffffffffffffffffffffffffffffff16141561245b576040517f08c379a0000000000000000000000000000000000000000000000000000000008152600401612452906177a4565b60405180910390fd5b6124877f8da5ea3def2cce20a38e0249972d2eb7b239c4eca3787c76b3802946ca8d5ec460001b610d37565b6124b37fc24c1adaa223d7714126727613986443b5431013bf0c89e47727260115fabf4060001b610d37565b6124df7ff0612cb44c37c369e4858680e696affba7cc530f997770c6df47704f064eb0ee60001b610d37565b61250b7f09a34f2f3927fbe475da33ed8a412529cf4b262c97901ac035308caefb7d542660001b610d37565b6125377f586783fc2114dd58119815f5cbec6aad877be3eeafa6d86ba9e86b52a0996a2360001b610d37565b60008290506125687fe328c761d87c8489581ec906e203ef9d7c438cd2b4831e3ccf71e09021d830aa60001b610d37565b6125947fc7500c15c68ff139f394963ee5cd5773fd1c418f21da0bd46c0825ef5b53a53360001b610d37565b80600260006101000a81548173ffffffffffffffffffffffffffffffffffffffff021916908373ffffffffffffffffffffffffffffffffffffffff160217905550505050565b600360009054906101000a900473ffffffffffffffffffffffffffffffffffffffff1681565b600f60009054906101000a900473ffffffffffffffffffffffffffffffffffffffff1681565b600160009054906101000a900473ffffffffffffffffffffffffffffffffffffffff1681565b6126787f4387c132d039219b9717b185471afb98228f3881c496bc454b40c42abbf7c67560001b610d37565b6126a47f0c12063a02b34ee9eac7bd2c37b953996af6c589227276ad0b738bed8fdd0b0160001b610d37565b6126d07f5712950a949a1ce40339ae39f25e5e1dc0cd7e65ed902f7e9f46ced64b1c489a60001b610d37565b600060039054906101000a900473ffffffffffffffffffffffffffffffffffffffff1673ffffffffffffffffffffffffffffffffffffffff16638413ec14336040518263ffffffff1660e01b815260040161272b9190617699565b60006040518083038186803b15801561274357600080fd5b505afa158015612757573d6000803e3d6000fd5b505050506127877fd57b34e944d75f2915379be003196ce732222b90d3f9be8e935f1d86772c263c60001b610d37565b806127b37e7882005a6c9b3db1509fbb93618baaa23f5e6e9fe3c4714fc9a2f6afe903df60001b610d37565b6127df7f46a5d5e2ed6c75af1f7721c48797f2adb7c34c7fd65791b000a64b60037fccda60001b610d37565b61280b7fd8596d8c76a9466a0808b910d6ac5dda24da7df7b2a977a7e33afbbd32aba3c060001b610d37565b6128377ffd061aa9d74bfe1c81390692c81dd1331f7ad8d2b02aab2831aa2173df16066360001b610d37565b600073ffffffffffffffffffffffffffffffffffffffff168173ffffffffffffffffffffffffffffffffffffffff1614156128a7576040517f08c379a000000000000000000000000000000000000000000000000000000000815260040161289e906177a4565b60405180910390fd5b6128d37f8da5ea3def2cce20a38e0249972d2eb7b239c4eca3787c76b3802946ca8d5ec460001b610d37565b6128ff7fc24c1adaa223d7714126727613986443b5431013bf0c89e47727260115fabf4060001b610d37565b61292b7f3811ffbe11b97586ee20e98c4fd0a543128aa0dc7671ceccd98dbb7d06e0193560001b610d37565b6129577fb398b1ddc6c3a95594a4638757477a94c879aee1648f89fb361d3988d8814d5160001b610d37565b6129837f3ff1345fcbc3749976edf2f34a560027d87c8467652c06db1a43f7c3c525e5f560001b610d37565b81600b60006101000a81548173ffffffffffffffffffffffffffffffffffffffff021916908373ffffffffffffffffffffffffffffffffffffffff1602179055505050565b6129f47f4387c132d039219b9717b185471afb98228f3881c496bc454b40c42abbf7c67560001b610d37565b612a207f0c12063a02b34ee9eac7bd2c37b953996af6c589227276ad0b738bed8fdd0b0160001b610d37565b612a4c7f5712950a949a1ce40339ae39f25e5e1dc0cd7e65ed902f7e9f46ced64b1c489a60001b610d37565b600060039054906101000a900473ffffffffffffffffffffffffffffffffffffffff1673ffffffffffffffffffffffffffffffffffffffff16638413ec14336040518263ffffffff1660e01b8152600401612aa79190617699565b60006040518083038186803b158015612abf57600080fd5b505afa158015612ad3573d6000803e3d6000fd5b50505050612b037fd57b34e944d75f2915379be003196ce732222b90d3f9be8e935f1d86772c263c60001b610d37565b80612b2f7e7882005a6c9b3db1509fbb93618baaa23f5e6e9fe3c4714fc9a2f6afe903df60001b610d37565b612b5b7f46a5d5e2ed6c75af1f7721c48797f2adb7c34c7fd65791b000a64b60037fccda60001b610d37565b612b877fd8596d8c76a9466a0808b910d6ac5dda24da7df7b2a977a7e33afbbd32aba3c060001b610d37565b612bb37ffd061aa9d74bfe1c81390692c81dd1331f7ad8d2b02aab2831aa2173df16066360001b610d37565b600073ffffffffffffffffffffffffffffffffffffffff168173ffffffffffffffffffffffffffffffffffffffff161415612c23576040517f08c379a0000000000000000000000000000000000000000000000000000000008152600401612c1a906177a4565b60405180910390fd5b612c4f7f8da5ea3def2cce20a38e0249972d2eb7b239c4eca3787c76b3802946ca8d5ec460001b610d37565b612c7b7fc24c1adaa223d7714126727613986443b5431013bf0c89e47727260115fabf4060001b610d37565b612ca77fd629a04978f2c7f6813104a52dd5faed5f0ee68ee1bfadf252e49e6aa3f0bce360001b610d37565b612cd37f41cbdf371725db6785019ec71364790dc3c78c51a1bc757764ef4d1a7139e36f60001b610d37565b612cff7f9b16d73f5b5aac2cbdb2193e19077e1cbb6f65c7141280e4b13844d23c239cb460001b610d37565b81600f60006101000a81548173ffffffffffffffffffffffffffffffffffffffff021916908373ffffffffffffffffffffffffffffffffffffffff1602179055505050565b60058060000154908060010154908060020154908060030154908060040154908060050154905086565b612d9a7fc0ee46b8469e4cc9b2eb97686fe0b041315b757b80ac7bd089190fd56dece1ca60001b610d37565b612dc67f0e1cbb5473da23f932b969946ed389347343de5224ae4d29e9ca0cef3b46f70a60001b610d37565b612df27fd8cecfe751c2c6b1604e07593f149656c64b71c10ea5a4f2aa46dbd004b877b860001b610d37565b600060039054906101000a900473ffffffffffffffffffffffffffffffffffffffff1673ffffffffffffffffffffffffffffffffffffffff16634d868f986040518163ffffffff1660e01b815260040160006040518083038186803b158015612e5a57600080fd5b505afa158015612e6e573d6000803e3d6000fd5b50505050612e9e7f9fe82423c38035538aab2c5b11222b5bedfe353e8b0ba3806b4d54a3378201bd60001b610d37565b612eca7f4387c132d039219b9717b185471afb98228f3881c496bc454b40c42abbf7c67560001b610d37565b612ef67f0c12063a02b34ee9eac7bd2c37b953996af6c589227276ad0b738bed8fdd0b0160001b610d37565b612f227f5712950a949a1ce40339ae39f25e5e1dc0cd7e65ed902f7e9f46ced64b1c489a60001b610d37565b600060039054906101000a900473ffffffffffffffffffffffffffffffffffffffff1673ffffffffffffffffffffffffffffffffffffffff16638413ec14336040518263ffffffff1660e01b8152600401612f7d9190617699565b60006040518083038186803b158015612f9557600080fd5b505afa158015612fa9573d6000803e3d6000fd5b50505050612fd97fd57b34e944d75f2915379be003196ce732222b90d3f9be8e935f1d86772c263c60001b610d37565b600c60009054906101000a900473ffffffffffffffffffffffffffffffffffffffff166130277e7882005a6c9b3db1509fbb93618baaa23f5e6e9fe3c4714fc9a2f6afe903df60001b610d37565b6130537f46a5d5e2ed6c75af1f7721c48797f2adb7c34c7fd65791b000a64b60037fccda60001b610d37565b61307f7fd8596d8c76a9466a0808b910d6ac5dda24da7df7b2a977a7e33afbbd32aba3c060001b610d37565b6130ab7ffd061aa9d74bfe1c81390692c81dd1331f7ad8d2b02aab2831aa2173df16066360001b610d37565b600073ffffffffffffffffffffffffffffffffffffffff168173ffffffffffffffffffffffffffffffffffffffff16141561311b576040517f08c379a0000000000000000000000000000000000000000000000000000000008152600401613112906177a4565b60405180910390fd5b6131477f8da5ea3def2cce20a38e0249972d2eb7b239c4eca3787c76b3802946ca8d5ec460001b610d37565b6131737fc24c1adaa223d7714126727613986443b5431013bf0c89e47727260115fabf4060001b610d37565b61319e7e8542b0c081448054e0af3d3b219632fbd5639fd34992019039bbb692bbfda860001b610d37565b6131ca7fc0b1bbea06cc25d328014ad837fa79897712315606b526ffe37f64751a4151d260001b610d37565b6131f67f15707c53d92764b4014b5402845ba7b942b0c7fa29c3d3aa6f7168d99edb5c8060001b610d37565b6132227fff9f1067e32e820c4986402a22c76f22383a362c7c6827298ee8cd2ce6b3b59060001b610d37565b60056001015484111580156132375750600084115b613276576040517f08c379a000000000000000000000000000000000000000000000000000000000815260040161326d90617764565b60405180910390fd5b6132a27f73c8081f90a1b46d5d966fb8f71937285a4543cd28ef1f90a436bd43f767091260001b610d37565b6132ce7f80bb85ef9bf90c961fd5ddf9c5805840b71b461b81d20318a440a8c6d140cdcf60001b610d37565b6132fa7f02bfbedd0e516eb2feb8d0244db981c4da542e80618efb314b8b3531666f7c2460001b610d37565b836005600101600082825461330f9190617aea565b925050819055506133427f7c54273a60ea50f168f8d3d1fa58199c46297d51b63176bb1135e10f0e5f484660001b610d37565b61336e7f7cabbe2b6b375c8a3d8d8fdaac89ce96f072973f6f31907fd20405227cc5853b60001b610d37565b6000600260009054906101000a900473ffffffffffffffffffffffffffffffffffffffff1673ffffffffffffffffffffffffffffffffffffffff1663a9059cbb600c60009054906101000a900473ffffffffffffffffffffffffffffffffffffffff16876040518363ffffffff1660e01b81526004016133ef9291906176b4565b602060405180830381600087803b15801561340957600080fd5b505af115801561341d573d6000803e3d6000fd5b505050506040513d601f19601f820116820180604052508101906134419190617327565b905061346f7fa0b15fa0fdc241ee70971733fc2b6d70889a198676c7e6867c3e9027d93853d860001b610d37565b61349b7f663cad3ff3903a1f422f8d048bdddb57d0651e3897b7dacdd2c61885506bc3d360001b610d37565b6134c77f14e87aa4e9482962bb3c9eb4134027a6dfe812c9d455a9ff04b264132265fb9760001b610d37565b80613507576040517f08c379a00000000000000000000000000000000000000000000000000000000081526004016134fe90617784565b60405180910390fd5b6135337fae9a7f50442a4503e3e6801b8a374202ad00bda3775fef43b98f5fac38503f3e60001b610d37565b61355f7f695fb0f97d396daf8f8892bdf1361e5c9263ecde600e10cd9297c9e0754f9cfb60001b610d37565b61358b7f9ea750a7f228803a573b63cba6d08e33b0675cfc40edca9e8ee290ffed4e7eab60001b610d37565b7ff55afe4fbf5e2382822e10e484a70ef4849c01a0e4764cfb653bdeea7e47e72885600c60009054906101000a900473ffffffffffffffffffffffffffffffffffffffff1686866040516135e29493929190617804565b60405180910390a15050505050565b61361d7f4387c132d039219b9717b185471afb98228f3881c496bc454b40c42abbf7c67560001b610d37565b6136497f0c12063a02b34ee9eac7bd2c37b953996af6c589227276ad0b738bed8fdd0b0160001b610d37565b6136757f5712950a949a1ce40339ae39f25e5e1dc0cd7e65ed902f7e9f46ced64b1c489a60001b610d37565b600060039054906101000a900473ffffffffffffffffffffffffffffffffffffffff1673ffffffffffffffffffffffffffffffffffffffff16638413ec14336040518263ffffffff1660e01b81526004016136d09190617699565b60006040518083038186803b1580156136e857600080fd5b505afa1580156136fc573d6000803e3d6000fd5b5050505061372c7fd57b34e944d75f2915379be003196ce732222b90d3f9be8e935f1d86772c263c60001b610d37565b806137587e7882005a6c9b3db1509fbb93618baaa23f5e6e9fe3c4714fc9a2f6afe903df60001b610d37565b6137847f46a5d5e2ed6c75af1f7721c48797f2adb7c34c7fd65791b000a64b60037fccda60001b610d37565b6137b07fd8596d8c76a9466a0808b910d6ac5dda24da7df7b2a977a7e33afbbd32aba3c060001b610d37565b6137dc7ffd061aa9d74bfe1c81390692c81dd1331f7ad8d2b02aab2831aa2173df16066360001b610d37565b600073ffffffffffffffffffffffffffffffffffffffff168173ffffffffffffffffffffffffffffffffffffffff16141561384c576040517f08c379a0000000000000000000000000000000000000000000000000000000008152600401613843906177a4565b60405180910390fd5b6138787f8da5ea3def2cce20a38e0249972d2eb7b239c4eca3787c76b3802946ca8d5ec460001b610d37565b6138a47fc24c1adaa223d7714126727613986443b5431013bf0c89e47727260115fabf4060001b610d37565b6138d07f67c29b859bcde20a2ecaa3104e04a37183eda44f293c9dd4f7f7f1ca6deca0ba60001b610d37565b6138fc7f209c8bf1088784b71910d00d80ba5a5ef91501f8066f88487252a40b355cfb6260001b610d37565b6139287f9508aca0d8d96983d8d3e474b97e1e0d581a0ad7f75f8fc15fc2bb37dd5f45af60001b610d37565b81600c60006101000a81548173ffffffffffffffffffffffffffffffffffffffff021916908373ffffffffffffffffffffffffffffffffffffffff1602179055505050565b600b60009054906101000a900473ffffffffffffffffffffffffffffffffffffffff1681565b600e60009054906101000a900473ffffffffffffffffffffffffffffffffffffffff1681565b6139e57f4387c132d039219b9717b185471afb98228f3881c496bc454b40c42abbf7c67560001b610d37565b613a117f0c12063a02b34ee9eac7bd2c37b953996af6c589227276ad0b738bed8fdd0b0160001b610d37565b613a3d7f5712950a949a1ce40339ae39f25e5e1dc0cd7e65ed902f7e9f46ced64b1c489a60001b610d37565b600060039054906101000a900473ffffffffffffffffffffffffffffffffffffffff1673ffffffffffffffffffffffffffffffffffffffff16638413ec14336040518263ffffffff1660e01b8152600401613a989190617699565b60006040518083038186803b158015613ab057600080fd5b505afa158015613ac4573d6000803e3d6000fd5b50505050613af47fd57b34e944d75f2915379be003196ce732222b90d3f9be8e935f1d86772c263c60001b610d37565b80613b207e7882005a6c9b3db1509fbb93618baaa23f5e6e9fe3c4714fc9a2f6afe903df60001b610d37565b613b4c7f46a5d5e2ed6c75af1f7721c48797f2adb7c34c7fd65791b000a64b60037fccda60001b610d37565b613b787fd8596d8c76a9466a0808b910d6ac5dda24da7df7b2a977a7e33afbbd32aba3c060001b610d37565b613ba47ffd061aa9d74bfe1c81390692c81dd1331f7ad8d2b02aab2831aa2173df16066360001b610d37565b600073ffffffffffffffffffffffffffffffffffffffff168173ffffffffffffffffffffffffffffffffffffffff161415613c14576040517f08c379a0000000000000000000000000000000000000000000000000000000008152600401613c0b906177a4565b60405180910390fd5b613c407f8da5ea3def2cce20a38e0249972d2eb7b239c4eca3787c76b3802946ca8d5ec460001b610d37565b613c6c7fc24c1adaa223d7714126727613986443b5431013bf0c89e47727260115fabf4060001b610d37565b613c987f8fb9947126e4c93bd23f8ba43b278e8736b775c6942f5ffd164e0508cf3a597660001b610d37565b613cc47f03e6a4056ca5ff73b68100d0a47e5dbb4c26d14af5c1482e269ea24ec0a0816a60001b610d37565b613cf07fab8ef7b68e24d47beebbd2e9c43b1f5f0c31525c9bfb777b0d177b6ddd141c3e60001b610d37565b81600460006101000a81548173ffffffffffffffffffffffffffffffffffffffff021916908373ffffffffffffffffffffffffffffffffffffffff1602179055505050565b613d617fbb954ff91551c2e8d8a723cbd457f8cfd7bd0c921e57b68685864425cbe6e21e60001b610d37565b613d8d7fee555bd52000aa1b04303bb4c6143190b85d186a8083a4d3cdc273d5d75bb37260001b610d37565b613db97fee23399802b40d8eba6a10024d0ff9a02970b67c45040157578a76d5915e5e6d60001b610d37565b600060039054906101000a900473ffffffffffffffffffffffffffffffffffffffff1673ffffffffffffffffffffffffffffffffffffffff1663ebe6a6f3336040518263ffffffff1660e01b8152600401613e149190617699565b60006040518083038186803b158015613e2c57600080fd5b505afa158015613e40573d6000803e3d6000fd5b50505050613e707f1a02d6ac8c5862c4d46d8b80c1967d552bb3c6575555b7fde3d88f1f1d82f3bf60001b610d37565b613e9c7f564a1c1fc567569056702f7a7f9c76b39794169fd277bb8f760b1eeb7b38008d60001b610d37565b613ec87f91811d921da21542f53d3d76176e175d2d59310722345aa5e92b097b7292245760001b610d37565b613ef47f90332a5ea2b9eb7a0f26f70c2d05867cb3ec0a2e91cdf0215d58314791d4088860001b610d37565b6127108661ffff168a613f079190617a90565b613f119190617a5f565b60056000016000828254613f259190617a09565b92505081905550613f587f5745b85df7cdbace84a1749c7152e6f5a37a1d32979b7b8b20f5939b944b35fe60001b610d37565b613f847fc4dc105488c1863aebf755236d90c6be3a5b3390dae11ecc23b2233b317ce7ef60001b610d37565b6127108561ffff168a613f979190617a90565b613fa19190617a5f565b60056001016000828254613fb59190617a09565b92505081905550613fe87f043edfdbf894c2e39c1f68ef0550cbdded5f70dff694b9ba3ce36df0b6a97a2060001b610d37565b6140147faab224f37d3a9a0f8caa27ce60028ebeb1812759742a57bb4141cbbdacda7a6860001b610d37565b6127108461ffff168a6140279190617a90565b6140319190617a5f565b600560020160008282546140459190617a09565b925050819055506140787f8a763a4575ac83f9332079e540c33fd458991c815eccb368129229b570c187d560001b610d37565b6140a47f52da38d4b2ba51ca42e1abb6dffa5f9d82f742fb86577c18d8c28fba69bbae3660001b610d37565b6127108361ffff168a6140b79190617a90565b6140c19190617a5f565b600560030160008282546140d59190617a09565b925050819055506141087f3e9a32e5b724108ef44e0f0ac993a9797d5722853ede298eb66e6c61972b641360001b610d37565b6141347f37a475e67745fd3623f7c0cac2e22d08e42ff7bd4e9060a4493b8db794d41f0260001b610d37565b6127108261ffff168a6141479190617a90565b6141519190617a5f565b600560040160008282546141659190617a09565b925050819055506141987f20af93a5f47d6e98d0a506cca7f75990c3d231e1ee3452c87bc3b1f9697f1ff060001b610d37565b6141c47f13a62fb49ec09f82fd78dd2039f1b445a650b226e7bd2bf00ac8deacc21cd44260001b610d37565b6127108161ffff168a6141d79190617a90565b6141e19190617a5f565b6005800160008282546141f49190617a09565b925050819055506142277f901ce672195732e894126805b50a47945b092a9050257b4beeaf3fa3b5f1c93060001b610d37565b6142537f0c413215a988b228f636d2bc7638431ef31d8e87b5068e8c9b3b05ab7a3012de60001b610d37565b61425f8a8a8a8a616717565b50505050505050505050565b6142977fc0ee46b8469e4cc9b2eb97686fe0b041315b757b80ac7bd089190fd56dece1ca60001b610d37565b6142c37f0e1cbb5473da23f932b969946ed389347343de5224ae4d29e9ca0cef3b46f70a60001b610d37565b6142ef7fd8cecfe751c2c6b1604e07593f149656c64b71c10ea5a4f2aa46dbd004b877b860001b610d37565b600060039054906101000a900473ffffffffffffffffffffffffffffffffffffffff1673ffffffffffffffffffffffffffffffffffffffff16634d868f986040518163ffffffff1660e01b815260040160006040518083038186803b15801561435757600080fd5b505afa15801561436b573d6000803e3d6000fd5b5050505061439b7f9fe82423c38035538aab2c5b11222b5bedfe353e8b0ba3806b4d54a3378201bd60001b610d37565b6143c77f4387c132d039219b9717b185471afb98228f3881c496bc454b40c42abbf7c67560001b610d37565b6143f37f0c12063a02b34ee9eac7bd2c37b953996af6c589227276ad0b738bed8fdd0b0160001b610d37565b61441f7f5712950a949a1ce40339ae39f25e5e1dc0cd7e65ed902f7e9f46ced64b1c489a60001b610d37565b600060039054906101000a900473ffffffffffffffffffffffffffffffffffffffff1673ffffffffffffffffffffffffffffffffffffffff16638413ec14336040518263ffffffff1660e01b815260040161447a9190617699565b60006040518083038186803b15801561449257600080fd5b505afa1580156144a6573d6000803e3d6000fd5b505050506144d67fd57b34e944d75f2915379be003196ce732222b90d3f9be8e935f1d86772c263c60001b610d37565b600f60009054906101000a900473ffffffffffffffffffffffffffffffffffffffff166145247e7882005a6c9b3db1509fbb93618baaa23f5e6e9fe3c4714fc9a2f6afe903df60001b610d37565b6145507f46a5d5e2ed6c75af1f7721c48797f2adb7c34c7fd65791b000a64b60037fccda60001b610d37565b61457c7fd8596d8c76a9466a0808b910d6ac5dda24da7df7b2a977a7e33afbbd32aba3c060001b610d37565b6145a87ffd061aa9d74bfe1c81390692c81dd1331f7ad8d2b02aab2831aa2173df16066360001b610d37565b600073ffffffffffffffffffffffffffffffffffffffff168173ffffffffffffffffffffffffffffffffffffffff161415614618576040517f08c379a000000000000000000000000000000000000000000000000000000000815260040161460f906177a4565b60405180910390fd5b6146447f8da5ea3def2cce20a38e0249972d2eb7b239c4eca3787c76b3802946ca8d5ec460001b610d37565b6146707fc24c1adaa223d7714126727613986443b5431013bf0c89e47727260115fabf4060001b610d37565b61469c7ffc43ccaae24f460c16f8d75554df6051dbfad6fd32617837408cc1fee163fb3b60001b610d37565b6146c87fac6fa375399b41dac22faa78f664e8289d6561a51d81205b0f7cbfa8a7829f1460001b610d37565b6146f47f3a0acd8bef0064616cc1f7580c21ea9e7b0f60b5b0d7c5286e0db2ff6789cfc860001b610d37565b6147207fcc98684641fa5c91cdf9ce4a93b5c7263e4a8776f9cad8981ae4d5c3cd76033c60001b610d37565b60056004015484111580156147355750600084115b614774576040517f08c379a000000000000000000000000000000000000000000000000000000000815260040161476b90617764565b60405180910390fd5b6147a07fa8a2df6155becc50994611241857f43c2ca5417229f108da9e626ebe94c87d2e60001b610d37565b6147cc7fd8fe474a38f559104139c092ae9a315afac4b5b87121fdc66220b4946fecb66160001b610d37565b6147f87f76b87291ea8865c51852a3d0a7265338b669a052bfaad876bb501ff6fcf90e5360001b610d37565b836005600401600082825461480d9190617aea565b925050819055506148407fec56cefb56d15efe8440c4ae4d85332149b694cdc38b7829ada9752b2bdb0c1160001b610d37565b61486c7fd46dc6e76696ad6ef49a7ef0521610257a0c7e90157642bd29a247de5a2e00c160001b610d37565b6000600260009054906101000a900473ffffffffffffffffffffffffffffffffffffffff1673ffffffffffffffffffffffffffffffffffffffff1663a9059cbb600f60009054906101000a900473ffffffffffffffffffffffffffffffffffffffff16876040518363ffffffff1660e01b81526004016148ed9291906176b4565b602060405180830381600087803b15801561490757600080fd5b505af115801561491b573d6000803e3d6000fd5b505050506040513d601f19601f8201168201806040525081019061493f9190617327565b905061496d7f44af6203e27012f53016fffce8e7cb6bcc9f4ea27a0335a8284e03d93436ca3c60001b610d37565b6149997fcfd46e18d5ca361f6feb308beabbc6c40ee7c836953a4ea341ccb5d620c6231660001b610d37565b6149c57ff4e3470b58a2db3148f887776d71796454f80c2f9ca351c0f40cbbd8dd92dac460001b610d37565b80614a05576040517f08c379a00000000000000000000000000000000000000000000000000000000081526004016149fc90617784565b60405180910390fd5b614a317f8ed2f7f894279f12b96718de8bbbc9a3e176ff5c80c3cc02416233103f08195560001b610d37565b614a5d7f68b5d1dde6eea00f71d8bcb1412cd33fd1620754e1a97e16a79b206422f7f59660001b610d37565b614a897f664f858ba522a0a286d2b21842d43a0dccc5464f889ae4940a03def4cfa611d760001b610d37565b7fb93ea389db0c106319d1175bbdeb3650e158f25a6555a0bb87a24905f6f2e97d85600f60009054906101000a900473ffffffffffffffffffffffffffffffffffffffff168686604051614ae09493929190617804565b60405180910390a15050505050565b600060019054906101000a900460ff1680614b15575060008054906101000a900460ff16155b614b54576040517f08c379a0000000000000000000000000000000000000000000000000000000008152600401614b4b906177c4565b60405180910390fd5b60008060019054906101000a900460ff161590508015614ba4576001600060016101000a81548160ff02191690831515021790555060016000806101000a81548160ff0219169083151502179055505b614bd07f260751cef034197209f3f0af1c3d947b554967b9085e1f6060ae734bc9ba9f6460001b610d37565b614bfc7f68d75b6280b323f228a33b6a525dd04b5f6e702d4b79b8975f5f50596fe1732260001b610d37565b614c287faf2aa570e4f2adbbb93dd28059c5f01eebf2c427fe4f2288f55f8b15b874103f60001b610d37565b6000829050614c597fe93d953f92a6f9da86094bcdf573df12a1645ffb77926e1a52fe42cd46707a6f60001b610d37565b614c857f8141ba975c4bd73f425df87728f7ce8e1a9486f857d652cf32a046d725b525ee60001b610d37565b614cb17fc816a8fd68065588cbbebb85979b4118756204248bb7727338136784262b23cb60001b610d37565b8073ffffffffffffffffffffffffffffffffffffffff1663ba84fd696040518163ffffffff1660e01b815260040160206040518083038186803b158015614cf757600080fd5b505afa158015614d0b573d6000803e3d6000fd5b505050506040513d601f19601f82011682018060405250810190614d2f9190617327565b614d3857600080fd5b614d647fcf5ee6769878408dcd3f3440f989d3d90630b93f450d0377600085ac940121b460001b610d37565b614d907f1693880799214bee188497910ea8d88790fa47ebeb94093966b5b1f4aebddc2060001b610d37565b614dbc7fff62275603d1fc603d98f26865cda31ebcb0d3c15f8403de4c6fec114988e38e60001b610d37565b6001600060026101000a81548160ff021916908315150217905550614e037fdfc5ee5d6df0aa8f1c6969f782c6443bffb632d697dd3e3e6f7f5d9d044db82960001b610d37565b614e2f7f29928f74b93d2f8ba08deb383d579a2e2132d5fa2869d2d87df51db3bdc6e4a160001b610d37565b80600060036101000a81548173ffffffffffffffffffffffffffffffffffffffff021916908373ffffffffffffffffffffffffffffffffffffffff160217905550508015614e925760008060016101000a81548160ff0219169083151502179055505b5050565b614ec27f4387c132d039219b9717b185471afb98228f3881c496bc454b40c42abbf7c67560001b610d37565b614eee7f0c12063a02b34ee9eac7bd2c37b953996af6c589227276ad0b738bed8fdd0b0160001b610d37565b614f1a7f5712950a949a1ce40339ae39f25e5e1dc0cd7e65ed902f7e9f46ced64b1c489a60001b610d37565b600060039054906101000a900473ffffffffffffffffffffffffffffffffffffffff1673ffffffffffffffffffffffffffffffffffffffff16638413ec14336040518263ffffffff1660e01b8152600401614f759190617699565b60006040518083038186803b158015614f8d57600080fd5b505afa158015614fa1573d6000803e3d6000fd5b50505050614fd17fd57b34e944d75f2915379be003196ce732222b90d3f9be8e935f1d86772c263c60001b610d37565b80614ffd7e7882005a6c9b3db1509fbb93618baaa23f5e6e9fe3c4714fc9a2f6afe903df60001b610d37565b6150297f46a5d5e2ed6c75af1f7721c48797f2adb7c34c7fd65791b000a64b60037fccda60001b610d37565b6150557fd8596d8c76a9466a0808b910d6ac5dda24da7df7b2a977a7e33afbbd32aba3c060001b610d37565b6150817ffd061aa9d74bfe1c81390692c81dd1331f7ad8d2b02aab2831aa2173df16066360001b610d37565b600073ffffffffffffffffffffffffffffffffffffffff168173ffffffffffffffffffffffffffffffffffffffff1614156150f1576040517f08c379a00000000000000000000000000000000000000000000000000000000081526004016150e8906177a4565b60405180910390fd5b61511d7f8da5ea3def2cce20a38e0249972d2eb7b239c4eca3787c76b3802946ca8d5ec460001b610d37565b6151497fc24c1adaa223d7714126727613986443b5431013bf0c89e47727260115fabf4060001b610d37565b6151757fda9ecb324440afbe56c26ffcd6fc1ac6854b9bcf65cf1c6001ad9204bb8d4fc460001b610d37565b6151a17f94d2b56cfb572a29f964f3536ce41192b9d35c31ecde99bbc84cdb0fb2b9479b60001b610d37565b6151cd7f862c014b3a7a89e07a663cbe6db1ab9dd7431d64179765377b386ba77128c94360001b610d37565b81600d60006101000a81548173ffffffffffffffffffffffffffffffffffffffff021916908373ffffffffffffffffffffffffffffffffffffffff1602179055505050565b600060039054906101000a900473ffffffffffffffffffffffffffffffffffffffff1681565b6152647f4387c132d039219b9717b185471afb98228f3881c496bc454b40c42abbf7c67560001b610d37565b6152907f0c12063a02b34ee9eac7bd2c37b953996af6c589227276ad0b738bed8fdd0b0160001b610d37565b6152bc7f5712950a949a1ce40339ae39f25e5e1dc0cd7e65ed902f7e9f46ced64b1c489a60001b610d37565b600060039054906101000a900473ffffffffffffffffffffffffffffffffffffffff1673ffffffffffffffffffffffffffffffffffffffff16638413ec14336040518263ffffffff1660e01b81526004016153179190617699565b60006040518083038186803b15801561532f57600080fd5b505afa158015615343573d6000803e3d6000fd5b505050506153737fd57b34e944d75f2915379be003196ce732222b90d3f9be8e935f1d86772c263c60001b610d37565b8061539f7e7882005a6c9b3db1509fbb93618baaa23f5e6e9fe3c4714fc9a2f6afe903df60001b610d37565b6153cb7f46a5d5e2ed6c75af1f7721c48797f2adb7c34c7fd65791b000a64b60037fccda60001b610d37565b6153f77fd8596d8c76a9466a0808b910d6ac5dda24da7df7b2a977a7e33afbbd32aba3c060001b610d37565b6154237ffd061aa9d74bfe1c81390692c81dd1331f7ad8d2b02aab2831aa2173df16066360001b610d37565b600073ffffffffffffffffffffffffffffffffffffffff168173ffffffffffffffffffffffffffffffffffffffff161415615493576040517f08c379a000000000000000000000000000000000000000000000000000000000815260040161548a906177a4565b60405180910390fd5b6154bf7f8da5ea3def2cce20a38e0249972d2eb7b239c4eca3787c76b3802946ca8d5ec460001b610d37565b6154eb7fc24c1adaa223d7714126727613986443b5431013bf0c89e47727260115fabf4060001b610d37565b6155167e0aed4aec9d8a36c9ad91f0391fc20b2b909438dffc979f1b88a10eb5786da960001b610d37565b6155427fc8fccdfbd17f30c47eebd30a68af1767a798913d89676b97ddb2fa85d2c0f81260001b610d37565b61556e7f8b4468dcf6641bd9c8b38772ae169ea1650b13feb7723eb294b8d7b8791b71f360001b610d37565b600082905061559f7ffe1dbb3a5b496de1be60e4b1129d665dcf60e727ccad879ea30ef913fcb447ef60001b610d37565b6155cb7f0c5233e8f5d085c80f02fe5d23f2e36cfdef79e557228821ce37897264406f3c60001b610d37565b80600360006101000a81548173ffffffffffffffffffffffffffffffffffffffff021916908373ffffffffffffffffffffffffffffffffffffffff160217905550505050565b61563d7fc0ee46b8469e4cc9b2eb97686fe0b041315b757b80ac7bd089190fd56dece1ca60001b610d37565b6156697f0e1cbb5473da23f932b969946ed389347343de5224ae4d29e9ca0cef3b46f70a60001b610d37565b6156957fd8cecfe751c2c6b1604e07593f149656c64b71c10ea5a4f2aa46dbd004b877b860001b610d37565b600060039054906101000a900473ffffffffffffffffffffffffffffffffffffffff1673ffffffffffffffffffffffffffffffffffffffff16634d868f986040518163ffffffff1660e01b815260040160006040518083038186803b1580156156fd57600080fd5b505afa158015615711573d6000803e3d6000fd5b505050506157417f9fe82423c38035538aab2c5b11222b5bedfe353e8b0ba3806b4d54a3378201bd60001b610d37565b61576d7f4387c132d039219b9717b185471afb98228f3881c496bc454b40c42abbf7c67560001b610d37565b6157997f0c12063a02b34ee9eac7bd2c37b953996af6c589227276ad0b738bed8fdd0b0160001b610d37565b6157c57f5712950a949a1ce40339ae39f25e5e1dc0cd7e65ed902f7e9f46ced64b1c489a60001b610d37565b600060039054906101000a900473ffffffffffffffffffffffffffffffffffffffff1673ffffffffffffffffffffffffffffffffffffffff16638413ec14336040518263ffffffff1660e01b81526004016158209190617699565b60006040518083038186803b15801561583857600080fd5b505afa15801561584c573d6000803e3d6000fd5b5050505061587c7fd57b34e944d75f2915379be003196ce732222b90d3f9be8e935f1d86772c263c60001b610d37565b601060009054906101000a900473ffffffffffffffffffffffffffffffffffffffff166158ca7e7882005a6c9b3db1509fbb93618baaa23f5e6e9fe3c4714fc9a2f6afe903df60001b610d37565b6158f67f46a5d5e2ed6c75af1f7721c48797f2adb7c34c7fd65791b000a64b60037fccda60001b610d37565b6159227fd8596d8c76a9466a0808b910d6ac5dda24da7df7b2a977a7e33afbbd32aba3c060001b610d37565b61594e7ffd061aa9d74bfe1c81390692c81dd1331f7ad8d2b02aab2831aa2173df16066360001b610d37565b600073ffffffffffffffffffffffffffffffffffffffff168173ffffffffffffffffffffffffffffffffffffffff1614156159be576040517f08c379a00000000000000000000000000000000000000000000000000000000081526004016159b5906177a4565b60405180910390fd5b6159ea7f8da5ea3def2cce20a38e0249972d2eb7b239c4eca3787c76b3802946ca8d5ec460001b610d37565b615a167fc24c1adaa223d7714126727613986443b5431013bf0c89e47727260115fabf4060001b610d37565b615a427f0a153c158fecaeae9930c5a2a3ad9d4eceae2a3510ee6c8cfcf6f3897eb0d99260001b610d37565b615a6e7fc112cfcfd1b076d07092a4773e398853c775cc4549bfee63fc3ee070c1926de960001b610d37565b615a9a7f5308090c555c081c239eab1e6e565ffeb6d768d4d339bd77bb22a1c7556a276e60001b610d37565b615ac67f8d5522d38c8c3df5e602302d7e7f79ceda8364fe11d3cc13f59eb764b181512960001b610d37565b60058001548411158015615ada5750600084115b615b19576040517f08c379a0000000000000000000000000000000000000000000000000000000008152600401615b1090617764565b60405180910390fd5b615b457f4087e6f2a8ce5742f1bb535b9b81740fec957696145142029c6a664c89eb9c5360001b610d37565b615b717fa5986c3e77b94390356d77102b700dd6c094a3881b96cfe78e6de97547f7de8660001b610d37565b615b9d7f384a45e37a10dd6bca1bd5fab1b6c221143336711581e983ca7d658e5492ee4b60001b610d37565b83600580016000828254615bb19190617aea565b92505081905550615be47fad2fe455b285ed1d6c541ba2c736169e0863e69278b7b6220d1ed57b4d0667b160001b610d37565b615c107f146ffb03b212f05e9300dd8926265ed4c270e89b04762573ed1580a27516402760001b610d37565b6000600260009054906101000a900473ffffffffffffffffffffffffffffffffffffffff1673ffffffffffffffffffffffffffffffffffffffff1663a9059cbb601060009054906101000a900473ffffffffffffffffffffffffffffffffffffffff16876040518363ffffffff1660e01b8152600401615c919291906176b4565b602060405180830381600087803b158015615cab57600080fd5b505af1158015615cbf573d6000803e3d6000fd5b505050506040513d601f19601f82011682018060405250810190615ce39190617327565b9050615d117fd916b692be11d8ae5cad4bf439c60e8640085134f6ecfda226de0eb900d8436c60001b610d37565b615d3d7f0f597f920e3be88ab29df17dda31e3626054d5f825207a8d812057f2878db1c560001b610d37565b615d697f3eb4cdde83c9f14cfdbe63a88c9011ec3cc6dc7e9c1e0a9a4e7dd6eacc866e3860001b610d37565b80615da9576040517f08c379a0000000000000000000000000000000000000000000000000000000008152600401615da090617784565b60405180910390fd5b615dd57fd441b5817855293a5526908ffaac7054348ed7d7c73286f0a3172969e627f29f60001b610d37565b615e017fd447d08bb6a9867c98e522bdd78acb253d3906a76eb23f9bf1badc7b24849a7960001b610d37565b615e2d7fd4fe61d3c38cbdf15c3a3060ecc5d386fb04adf790121b359134bc8632d50a2a60001b610d37565b7f5be55b518e0f0443e7c10810c49d83c3eabb7f8db1c053c593931c2742a3d25985601060009054906101000a900473ffffffffffffffffffffffffffffffffffffffff168686604051615e849493929190617804565b60405180910390a15050505050565b615ebf7fc0ee46b8469e4cc9b2eb97686fe0b041315b757b80ac7bd089190fd56dece1ca60001b610d37565b615eeb7f0e1cbb5473da23f932b969946ed389347343de5224ae4d29e9ca0cef3b46f70a60001b610d37565b615f177fd8cecfe751c2c6b1604e07593f149656c64b71c10ea5a4f2aa46dbd004b877b860001b610d37565b600060039054906101000a900473ffffffffffffffffffffffffffffffffffffffff1673ffffffffffffffffffffffffffffffffffffffff16634d868f986040518163ffffffff1660e01b815260040160006040518083038186803b158015615f7f57600080fd5b505afa158015615f93573d6000803e3d6000fd5b50505050615fc37f9fe82423c38035538aab2c5b11222b5bedfe353e8b0ba3806b4d54a3378201bd60001b610d37565b615fef7f4387c132d039219b9717b185471afb98228f3881c496bc454b40c42abbf7c67560001b610d37565b61601b7f0c12063a02b34ee9eac7bd2c37b953996af6c589227276ad0b738bed8fdd0b0160001b610d37565b6160477f5712950a949a1ce40339ae39f25e5e1dc0cd7e65ed902f7e9f46ced64b1c489a60001b610d37565b600060039054906101000a900473ffffffffffffffffffffffffffffffffffffffff1673ffffffffffffffffffffffffffffffffffffffff16638413ec14336040518263ffffffff1660e01b81526004016160a29190617699565b60006040518083038186803b1580156160ba57600080fd5b505afa1580156160ce573d6000803e3d6000fd5b505050506160fe7fd57b34e944d75f2915379be003196ce732222b90d3f9be8e935f1d86772c263c60001b610d37565b600b60009054906101000a900473ffffffffffffffffffffffffffffffffffffffff1661614c7e7882005a6c9b3db1509fbb93618baaa23f5e6e9fe3c4714fc9a2f6afe903df60001b610d37565b6161787f46a5d5e2ed6c75af1f7721c48797f2adb7c34c7fd65791b000a64b60037fccda60001b610d37565b6161a47fd8596d8c76a9466a0808b910d6ac5dda24da7df7b2a977a7e33afbbd32aba3c060001b610d37565b6161d07ffd061aa9d74bfe1c81390692c81dd1331f7ad8d2b02aab2831aa2173df16066360001b610d37565b600073ffffffffffffffffffffffffffffffffffffffff168173ffffffffffffffffffffffffffffffffffffffff161415616240576040517f08c379a0000000000000000000000000000000000000000000000000000000008152600401616237906177a4565b60405180910390fd5b61626c7f8da5ea3def2cce20a38e0249972d2eb7b239c4eca3787c76b3802946ca8d5ec460001b610d37565b6162987fc24c1adaa223d7714126727613986443b5431013bf0c89e47727260115fabf4060001b610d37565b6162c47fcf9d86f0761bdac3f26711a902a54c0c701ac7a22c570d3168abc77ae1548fa560001b610d37565b6162f07f01e200ac569d705bec1d7db5dbaa7e5e9fc3060119b303fa97db8b9fcac3d66d60001b610d37565b61631c7f111e97482ee4ce4808a7f2754bff93571ce5ac2742ddbeab4f8e96bbff30e2df60001b610d37565b6163487f797ebe024079f9791c4d4035d95deb72d254c2c43ca9c503273789510a41c1d860001b610d37565b600560000154841115801561635d5750600084115b61639c576040517f08c379a000000000000000000000000000000000000000000000000000000000815260040161639390617764565b60405180910390fd5b6163c87fa4408e28bed93a6023a8fa6a6fedf7e14fc1d2b7f0b793b5a12f2956b20513bc60001b610d37565b6163f47f7ad0ea5d2249eb3679a845e9728ef6c61eab58368d5b73c2fcab9898da6bece660001b610d37565b6164207f9c0c3fd85fbbe544496c80a36d852f00d262d29873d1a27fb7d43e315ead234060001b610d37565b83600560000160008282546164359190617aea565b925050819055506164687fc97980c3dd714ffd73e42bec9e58ec728e306e54ae6055fa4bf50b319502829660001b610d37565b6164947fbbb2c4c62595c29216331a0f2130565dafa0dfa04af14ae54d447546252b26e860001b610d37565b6000600260009054906101000a900473ffffffffffffffffffffffffffffffffffffffff1673ffffffffffffffffffffffffffffffffffffffff1663a9059cbb600b60009054906101000a900473ffffffffffffffffffffffffffffffffffffffff16876040518363ffffffff1660e01b81526004016165159291906176b4565b602060405180830381600087803b15801561652f57600080fd5b505af1158015616543573d6000803e3d6000fd5b505050506040513d601f19601f820116820180604052508101906165679190617327565b90506165957fd62d34b30601cf0da268dddaee2db96688fda3bf543ff6f9fde01983b7676bb960001b610d37565b6165c17f22133af33855a9c2a33d542a60a980dc2248c7015127345047ea4a8103b56fa660001b610d37565b6165ed7f345df02038478da5edc2cf1103be8ca8be8d1e3b4c91ef718b3449d7dd18396b60001b610d37565b8061662d576040517f08c379a000000000000000000000000000000000000000000000000000000000815260040161662490617784565b60405180910390fd5b6166597f12b66d501c9ba419bc831245287939faf38b95149b4128664c5560e134370b9b60001b610d37565b6166857fa07a52aa5fb512fd03e106d82b6e637fef1856485e32c4da20a6aebd36def18a60001b610d37565b6166b17f54a89a79132956c9eb5febb725af1ef692983c3817c6d1680cf9029e2ca5cc8860001b610d37565b7f346dd4608342f0849c2ae92a528abcdbde8cf41ca01d05ed0855ad4a3fe38bb585600b60009054906101000a900473ffffffffffffffffffffffffffffffffffffffff1686866040516167089493929190617804565b60405180910390a15050505050565b6167437f6594732a39bf29df58d6b6f8ad86e035d4d58e802edc2d62df6690747d5e6f7860001b610d37565b61676f7fd98bf61dcbd90ab6d72536eaef53d1eafe921d3b361d50536bd3046f35c8305a60001b610d37565b61679b7fb7abc54b15a21f9f2840344441d397acf2dbc3fee771e498f5ba524a7fb85cd660001b610d37565b60006127108361ffff16856167b09190617a90565b6167ba9190617a5f565b90506167e77e0c7d7fbea5952d3d945ffeb794546d75742fdd0b31ce805b3103ac3ac9c8ac60001b610d37565b6168137f1c5cf3e52153afe7667fee5a428a67026c90c28b651bff1bc22200249c94934760001b610d37565b60006127108361ffff16866168289190617a90565b6168329190617a5f565b90506168607ff23d184f8576c4f5a2fabf2f79f58c313fcc6c0c43dc355e360c5c87f8c167c760001b610d37565b61688c7fc321398e9da28c9ffa671d879b1e732ee049ea69fd4bd47eefe63acafc0c9be760001b610d37565b6000818361689a9190617a09565b90506168c87f4e20efa538ab2d3ef694dd4612fb77faf3eaf54b79351fb97694c1b801ae767f60001b610d37565b6168f47fded45b74467b03b7bc79b4d0b09985f41541fea3112a4432569f707da87d193360001b610d37565b6000848661690291906179d1565b90506169307fe719df8f1f79c7897b5233c7098416e8ae194dd694bc45682cbd9cdbba5e360860001b610d37565b61695c7f2c02f10fdb066ee5264faf1cce4d34ebd056489724ae2194cd3402db56b3f17f60001b610d37565b606061698a7f997ff184c8e3c96d80061519d4444859962aa35d72c65983603eaac31fc1c86260001b610d37565b6169b67f0344ccddc2ec82dfa4e6ae76b27c7b1bb73426bcc410794a1ab558817680050060001b610d37565b600267ffffffffffffffff8111156169d1576169d0617cff565b5b6040519080825280602002602001820160405280156169ff5781602001602082028036833780820191505090505b509050616a2e7fc1c9274d4f58c4e541b1b59121c7508372e61c86f8bbc79d809969a357e8e57460001b610d37565b616a5a7fa2f34d552e2435119f3f79b293245ef50d202bdc5cf37f02e2b6a3d3a33dd21260001b610d37565b600260009054906101000a900473ffffffffffffffffffffffffffffffffffffffff1681600081518110616a9157616a90617cd0565b5b602002602001019073ffffffffffffffffffffffffffffffffffffffff16908173ffffffffffffffffffffffffffffffffffffffff1681525050616af77f8fe6154c82d9e5d84668316f7ece351ecf9b8ba07ee1f794d3cdbcd1b1169c7c60001b610d37565b616b237f39650c3f47d6ee526a6a1453d1b198a7990a7f8df8c9b6da3e34b990eadc9d1360001b610d37565b600460009054906101000a900473ffffffffffffffffffffffffffffffffffffffff1681600181518110616b5a57616b59617cd0565b5b602002602001019073ffffffffffffffffffffffffffffffffffffffff16908173ffffffffffffffffffffffffffffffffffffffff1681525050616bc07fcc0575fa06cd1d86023d00769f812930b632508f37219df4646835d57853de7f60001b610d37565b616bec7f16a84ac5fc67e57e95a146ff55f2ade98408cfe9f2e1d3ce6e9b123602df5f6560001b610d37565b6000600260009054906101000a900473ffffffffffffffffffffffffffffffffffffffff1673ffffffffffffffffffffffffffffffffffffffff1663095ea7b3600360009054906101000a900473ffffffffffffffffffffffffffffffffffffffff16866040518363ffffffff1660e01b8152600401616c6d9291906176b4565b602060405180830381600087803b158015616c8757600080fd5b505af1158015616c9b573d6000803e3d6000fd5b505050506040513d601f19601f82011682018060405250810190616cbf9190617327565b9050616ced7ffd94ce7795c0ee4c34a40f0306fe5b0665a847a2d50c442ac874b394e19b5c6a60001b610d37565b616d197fb919d4fc8a3e67a77844176ca22d6113a9ec2f3f68fa9ebe435bc6c0dc89791e60001b610d37565b616d457f9ed3ebe0dc5ba4412360075b8fd9e6756a630171a61ccd50f6a9b60365077c9660001b610d37565b80616d85576040517f08c379a0000000000000000000000000000000000000000000000000000000008152600401616d7c906177e4565b60405180910390fd5b616db17f2ceee6db77fc2e781ec59faa47b163fa8dee3fd8a2c70f39274688abab55b0df60001b610d37565b616ddd7f8964aecfd7d9b1dd87af628e6b4d01e9e750571c8f7970f2557885fe9a4ea66f60001b610d37565b616e097fc8ba43aa6301dc7df0e14785cd1d3d7ba28d2f2d92bcaf5fc16f246e1bb2efbe60001b610d37565b6000600360009054906101000a900473ffffffffffffffffffffffffffffffffffffffff1673ffffffffffffffffffffffffffffffffffffffff166338ed173986600186600160009054906101000a900473ffffffffffffffffffffffffffffffffffffffff1661070842616e7e9190617a09565b6040518663ffffffff1660e01b8152600401616e9e959493929190617844565b600060405180830381600087803b158015616eb857600080fd5b505af1158015616ecc573d6000803e3d6000fd5b505050506040513d6000823e3d601f19601f82011682018060405250810190616ef591906172de565b9050616f237f8e300e648104d7093c9aa4026cb723fb22117cdcbc554354f62f5f0679c2e57d60001b610d37565b616f4f7f5a33075561e3ab8eef2e2942d6c61f34ae286f840d90f2b1ecaf57e54c6e7a8460001b610d37565b600160009054906101000a900473ffffffffffffffffffffffffffffffffffffffff1673ffffffffffffffffffffffffffffffffffffffff16633ad7c33b8c8661ffff1684600181518110616fa757616fa6617cd0565b5b60200260200101518d61ffff16616fbe9190617a90565b616fc89190617a5f565b8761ffff1685600181518110616fe157616fe0617cd0565b5b60200260200101518d61ffff16616ff89190617a90565b6170029190617a5f565b6040518463ffffffff1660e01b81526004016170209392919061789e565b600060405180830381600087803b15801561703a57600080fd5b505af115801561704e573d6000803e3d6000fd5b5050505061707e7f95c66ae485731b0f14a7861eba9ddf5f08e686ecae68159b066e7c78937e565860001b610d37565b6170aa7f99b7a1ef4563b9e389a881af07606d8a692cb3a103ef78e68b95173878318e4260001b610d37565b7f347f488d341632b8f0297fc353e08cc384d9a8c7bb93600a7ede83515b56b9948b8b888a6170d99190617a09565b6040516170e89392919061789e565b60405180910390a15050505050505050505050565b600061711061710b8461795b565b617936565b9050808382526020820190508285602086028201111561713357617132617d38565b5b60005b858110156171635781617149888261726f565b845260208401935060208301925050600181019050617136565b5050509392505050565b60008135905061717c81617e4b565b92915050565b60008135905061719181617e62565b92915050565b600082601f8301126171ac576171ab617d33565b5b81516171bc8482602086016170fd565b91505092915050565b6000815190506171d481617e79565b92915050565b6000813590506171e981617e90565b92915050565b60008083601f84011261720557617204617d33565b5b8235905067ffffffffffffffff81111561722257617221617d2e565b5b60208301915083600182028301111561723e5761723d617d38565b5b9250929050565b60008135905061725481617ea7565b92915050565b60008135905061726981617ebe565b92915050565b60008151905061727e81617ebe565b92915050565b60006020828403121561729a57617299617d42565b5b60006172a88482850161716d565b91505092915050565b6000602082840312156172c7576172c6617d42565b5b60006172d584828501617182565b91505092915050565b6000602082840312156172f4576172f3617d42565b5b600082015167ffffffffffffffff81111561731257617311617d3d565b5b61731e84828501617197565b91505092915050565b60006020828403121561733d5761733c617d42565b5b600061734b848285016171c5565b91505092915050565b60006020828403121561736a57617369617d42565b5b6000617378848285016171da565b91505092915050565b60008060006040848603121561739a57617399617d42565b5b60006173a88682870161725a565b935050602084013567ffffffffffffffff8111156173c9576173c8617d3d565b5b6173d5868287016171ef565b92509250509250925092565b6000806000806000806000806000806101408b8d03121561740557617404617d42565b5b60006174138d828e0161725a565b9a505060206174248d828e0161725a565b99505060406174358d828e01617245565b98505060606174468d828e01617245565b97505060806174578d828e01617245565b96505060a06174688d828e01617245565b95505060c06174798d828e01617245565b94505060e061748a8d828e01617245565b93505061010061749c8d828e01617245565b9250506101206174ae8d828e01617245565b9150509295989b9194979a5092959850565b60006174cc83836174d8565b60208301905092915050565b6174e181617b1e565b82525050565b6174f081617b1e565b82525050565b600061750182617997565b61750b81856179af565b935061751683617987565b8060005b8381101561754757815161752e88826174c0565b9750617539836179a2565b92505060018101905061751a565b5085935050505092915050565b61755d81617b42565b82525050565b61756c81617b90565b82525050565b61757b81617bb4565b82525050565b61758a81617bd8565b82525050565b61759981617bfc565b82525050565b6175a881617c20565b82525050565b60006175ba83856179c0565b93506175c7838584617c32565b6175d083617d47565b840190509392505050565b60006175e86013836179c0565b91506175f382617d58565b602082019050919050565b600061760b6015836179c0565b915061761682617d81565b602082019050919050565b600061762e600f836179c0565b915061763982617daa565b602082019050919050565b6000617651602e836179c0565b915061765c82617dd3565b604082019050919050565b60006176746014836179c0565b915061767f82617e22565b602082019050919050565b61769381617b86565b82525050565b60006020820190506176ae60008301846174e7565b92915050565b60006040820190506176c960008301856174e7565b6176d6602083018461768a565b9392505050565b60006020820190506176f26000830184617554565b92915050565b600060208201905061770d6000830184617563565b92915050565b60006020820190506177286000830184617572565b92915050565b60006020820190506177436000830184617581565b92915050565b600060208201905061775e6000830184617590565b92915050565b6000602082019050818103600083015261777d816175db565b9050919050565b6000602082019050818103600083015261779d816175fe565b9050919050565b600060208201905081810360008301526177bd81617621565b9050919050565b600060208201905081810360008301526177dd81617644565b9050919050565b600060208201905081810360008301526177fd81617667565b9050919050565b6000606082019050617819600083018761768a565b61782660208301866174e7565b81810360408301526178398184866175ae565b905095945050505050565b600060a082019050617859600083018861768a565b617866602083018761759f565b818103604083015261787881866174f6565b905061788760608301856174e7565b617894608083018461768a565b9695505050505050565b60006060820190506178b3600083018661768a565b6178c0602083018561768a565b6178cd604083018461768a565b949350505050565b600060c0820190506178ea600083018961768a565b6178f7602083018861768a565b617904604083018761768a565b617911606083018661768a565b61791e608083018561768a565b61792b60a083018461768a565b979650505050505050565b6000617940617951565b905061794c8282617c41565b919050565b6000604051905090565b600067ffffffffffffffff82111561797657617975617cff565b5b602082029050602081019050919050565b6000819050602082019050919050565b600081519050919050565b6000602082019050919050565b600082825260208201905092915050565b600082825260208201905092915050565b60006179dc82617b58565b91506179e783617b58565b92508261ffff038211156179fe576179fd617c72565b5b828201905092915050565b6000617a1482617b86565b9150617a1f83617b86565b9250827fffffffffffffffffffffffffffffffffffffffffffffffffffffffffffffffff03821115617a5457617a53617c72565b5b828201905092915050565b6000617a6a82617b86565b9150617a7583617b86565b925082617a8557617a84617ca1565b5b828204905092915050565b6000617a9b82617b86565b9150617aa683617b86565b9250817fffffffffffffffffffffffffffffffffffffffffffffffffffffffffffffffff0483118215151615617adf57617ade617c72565b5b828202905092915050565b6000617af582617b86565b9150617b0083617b86565b925082821015617b1357617b12617c72565b5b828203905092915050565b6000617b2982617b66565b9050919050565b6000617b3b82617b66565b9050919050565b60008115159050919050565b6000819050919050565b600061ffff82169050919050565b600073ffffffffffffffffffffffffffffffffffffffff82169050919050565b6000819050919050565b6000617b9b82617ba2565b9050919050565b6000617bad82617b66565b9050919050565b6000617bbf82617bc6565b9050919050565b6000617bd182617b66565b9050919050565b6000617be382617bea565b9050919050565b6000617bf582617b66565b9050919050565b6000617c0782617c0e565b9050919050565b6000617c1982617b66565b9050919050565b6000617c2b82617b86565b9050919050565b82818337600083830152505050565b617c4a82617d47565b810181811067ffffffffffffffff82111715617c6957617c68617cff565b5b80604052505050565b7f4e487b7100000000000000000000000000000000000000000000000000000000600052601160045260246000fd5b7f4e487b7100000000000000000000000000000000000000000000000000000000600052601260045260246000fd5b7f4e487b7100000000000000000000000000000000000000000000000000000000600052603260045260246000fd5b7f4e487b7100000000000000000000000000000000000000000000000000000000600052604160045260246000fd5b600080fd5b600080fd5b600080fd5b600080fd5b600080fd5b6000601f19601f8301169050919050565b7f696e73756666696369656e7420616d6f756e7400000000000000000000000000600082015250565b7f756e7375636365737366756c207472616e736665720000000000000000000000600082015250565b7f696e76616c696420616464726573730000000000000000000000000000000000600082015250565b7f496e697469616c697a61626c653a20636f6e747261637420697320616c72656160008201527f647920696e697469616c697a6564000000000000000000000000000000000000602082015250565b7f756e7375636365737366756c20617070726f7665000000000000000000000000600082015250565b617e5481617b1e565b8114617e5f57600080fd5b50565b617e6b81617b30565b8114617e7657600080fd5b50565b617e8281617b42565b8114617e8d57600080fd5b50565b617e9981617b4e565b8114617ea457600080fd5b50565b617eb081617b58565b8114617ebb57600080fd5b50565b617ec781617b86565b8114617ed257600080fd5b5056fea2646970667358221220896e7c82a332f1ab7442811fc0e0340adb9fc7b93477b209afa673b1d8a124a064736f6c63430008060033",
  "immutableReferences": {},
  "source": "// SPDX-License-Identifier: MIT\n\npragma solidity ^0.8.6;\nfunction c_0x0c2bd4b4(bytes32 c__0x0c2bd4b4) pure {}\n\n\nimport \"@openzeppelin/contracts-upgradeable/utils/CountersUpgradeable.sol\";\nimport \"@openzeppelin/contracts-upgradeable/proxy/utils/Initializable.sol\";\nimport \"@openzeppelin/contracts-upgradeable/token/ERC20/IERC20Upgradeable.sol\";\nimport \"../access/IAccessRestriction.sol\";\nimport \"./IPlanterFund.sol\";\nimport \"./interfaces/IUniswapV2Router02New.sol\";\n\n/** @title WethFunds Contract */\n\ncontract WethFunds is Initializable {\nfunction c_0xd7dd2f7a(bytes32 c__0xd7dd2f7a) public pure {}\n\n    /** NOTE {isWethFunds} set inside the initialize to {true} */\n    bool public isWethFunds;\n\n    IAccessRestriction public accessRestriction;\n    IPlanterFund public planterFundContract;\n    IERC20Upgradeable public wethToken;\n    IUniswapV2Router02New public uniswapRouter;\n\n    /** NOTE daiToken address */\n    address public daiAddress;\n\n    /** NOTE {totalFunds} is struct of TotalFund that keep total share of\n     * treeResearch, localDevelop,rescueFund,treejerDeveop,reserveFund1\n     * and reserveFund2\n     */\n    TotalFunds public totalFunds;\n\n    address public treeResearchAddress;\n    address public localDevelopAddress;\n    address public rescueFundAddress;\n    address public treejerDevelopAddress;\n    address public reserveFundAddress1;\n    address public reserveFundAddress2;\n\n    struct TotalFunds {\n        uint256 treeResearch;\n        uint256 localDevelop;\n        uint256 rescueFund;\n        uint256 treejerDevelop;\n        uint256 reserveFund1;\n        uint256 reserveFund2;\n    }\n\n    event TreeResearchBalanceWithdrawn(\n        uint256 amount,\n        address account,\n        string reason\n    );\n    event LocalDevelopBalanceWithdrawn(\n        uint256 amount,\n        address account,\n        string reason\n    );\n    event RescueBalanceWithdrawn(\n        uint256 amount,\n        address account,\n        string reason\n    );\n    event TreejerDevelopBalanceWithdrawn(\n        uint256 amount,\n        address account,\n        string reason\n    );\n    event reserveBalanceWithdrawn1(\n        uint256 amount,\n        address account,\n        string reason\n    );\n    event reserveBalanceWithdrawn2(\n        uint256 amount,\n        address account,\n        string reason\n    );\n    event TreeFunded(uint256 treeId, uint256 amount, uint256 planterPart);\n\n    /** NOTE modifier to check msg.sender has admin role */\n    modifier onlyAdmin() {c_0xd7dd2f7a(0x4387c132d039219b9717b185471afb98228f3881c496bc454b40c42abbf7c675); /* function */ \n\nc_0xd7dd2f7a(0x0c12063a02b34ee9eac7bd2c37b953996af6c589227276ad0b738bed8fdd0b01); /* line */ \n        c_0xd7dd2f7a(0x5712950a949a1ce40339ae39f25e5e1dc0cd7e65ed902f7e9f46ced64b1c489a); /* statement */ \naccessRestriction.ifAdmin(msg.sender);\nc_0xd7dd2f7a(0xd57b34e944d75f2915379be003196ce732222b90d3f9be8e935f1d86772c263c); /* line */ \n        _;\n    }\n\n    /** NOTE modifier for check msg.sender has TreejerContract role */\n    modifier onlyTreejerContract() {c_0xd7dd2f7a(0xbb954ff91551c2e8d8a723cbd457f8cfd7bd0c921e57b68685864425cbe6e21e); /* function */ \n\nc_0xd7dd2f7a(0xee555bd52000aa1b04303bb4c6143190b85d186a8083a4d3cdc273d5d75bb372); /* line */ \n        c_0xd7dd2f7a(0xee23399802b40d8eba6a10024d0ff9a02970b67c45040157578a76d5915e5e6d); /* statement */ \naccessRestriction.ifTreejerContract(msg.sender);\nc_0xd7dd2f7a(0x1a02d6ac8c5862c4d46d8b80c1967d552bb3c6575555b7fde3d88f1f1d82f3bf); /* line */ \n        _;\n    }\n\n    /** NOTE modifier for check if function is not paused*/\n    modifier ifNotPaused() {c_0xd7dd2f7a(0xc0ee46b8469e4cc9b2eb97686fe0b041315b757b80ac7bd089190fd56dece1ca); /* function */ \n\nc_0xd7dd2f7a(0x0e1cbb5473da23f932b969946ed389347343de5224ae4d29e9ca0cef3b46f70a); /* line */ \n        c_0xd7dd2f7a(0xd8cecfe751c2c6b1604e07593f149656c64b71c10ea5a4f2aa46dbd004b877b8); /* statement */ \naccessRestriction.ifNotPaused();\nc_0xd7dd2f7a(0x9fe82423c38035538aab2c5b11222b5bedfe353e8b0ba3806b4d54a3378201bd); /* line */ \n        _;\n    }\n\n    /** NOTE modifier for check valid address */\n    modifier validAddress(address _address) {c_0xd7dd2f7a(0x007882005a6c9b3db1509fbb93618baaa23f5e6e9fe3c4714fc9a2f6afe903df); /* function */ \n\nc_0xd7dd2f7a(0x46a5d5e2ed6c75af1f7721c48797f2adb7c34c7fd65791b000a64b60037fccda); /* line */ \n        c_0xd7dd2f7a(0xd8596d8c76a9466a0808b910d6ac5dda24da7df7b2a977a7e33afbbd32aba3c0); /* requirePre */ \nc_0xd7dd2f7a(0xfd061aa9d74bfe1c81390692c81dd1331f7ad8d2b02aab2831aa2173df160663); /* statement */ \nrequire(_address != address(0), \"invalid address\");c_0xd7dd2f7a(0x8da5ea3def2cce20a38e0249972d2eb7b239c4eca3787c76b3802946ca8d5ec4); /* requirePost */ \n\nc_0xd7dd2f7a(0xc24c1adaa223d7714126727613986443b5431013bf0c89e47727260115fabf40); /* line */ \n        _;\n    }\n\n    /**\n     * @dev initialize accessRestriction contract and set true for isWethFunds\n     * @param _accessRestrictionAddress set to the address of accessRestriction contract\n     */\n    function initialize(address _accessRestrictionAddress)\n        external\n        initializer\n    {c_0xd7dd2f7a(0x260751cef034197209f3f0af1c3d947b554967b9085e1f6060ae734bc9ba9f64); /* function */ \n\nc_0xd7dd2f7a(0x68d75b6280b323f228a33b6a525dd04b5f6e702d4b79b8975f5f50596fe17322); /* line */ \n        c_0xd7dd2f7a(0xaf2aa570e4f2adbbb93dd28059c5f01eebf2c427fe4f2288f55f8b15b874103f); /* statement */ \nIAccessRestriction candidateContract = IAccessRestriction(\n            _accessRestrictionAddress\n        );\n\nc_0xd7dd2f7a(0xe93d953f92a6f9da86094bcdf573df12a1645ffb77926e1a52fe42cd46707a6f); /* line */ \n        c_0xd7dd2f7a(0x8141ba975c4bd73f425df87728f7ce8e1a9486f857d652cf32a046d725b525ee); /* requirePre */ \nc_0xd7dd2f7a(0xc816a8fd68065588cbbebb85979b4118756204248bb7727338136784262b23cb); /* statement */ \nrequire(candidateContract.isAccessRestriction());c_0xd7dd2f7a(0xcf5ee6769878408dcd3f3440f989d3d90630b93f450d0377600085ac940121b4); /* requirePost */ \n\n\nc_0xd7dd2f7a(0x1693880799214bee188497910ea8d88790fa47ebeb94093966b5b1f4aebddc20); /* line */ \n        c_0xd7dd2f7a(0xff62275603d1fc603d98f26865cda31ebcb0d3c15f8403de4c6fec114988e38e); /* statement */ \nisWethFunds = true;\nc_0xd7dd2f7a(0xdfc5ee5d6df0aa8f1c6969f782c6443bffb632d697dd3e3e6f7f5d9d044db829); /* line */ \n        c_0xd7dd2f7a(0x29928f74b93d2f8ba08deb383d579a2e2132d5fa2869d2d87df51db3bdc6e4a1); /* statement */ \naccessRestriction = candidateContract;\n    }\n\n    /**\n     * @dev admin set DaiToken address\n     * @param _daiAddress set to the address of DaiToken\n     */\n    function setDaiAddress(address _daiAddress)\n        external\n        onlyAdmin\n        validAddress(_daiAddress)\n    {c_0xd7dd2f7a(0x8fb9947126e4c93bd23f8ba43b278e8736b775c6942f5ffd164e0508cf3a5976); /* function */ \n\nc_0xd7dd2f7a(0x03e6a4056ca5ff73b68100d0a47e5dbb4c26d14af5c1482e269ea24ec0a0816a); /* line */ \n        c_0xd7dd2f7a(0xab8ef7b68e24d47beebbd2e9c43b1f5f0c31525c9bfb777b0d177b6ddd141c3e); /* statement */ \ndaiAddress = _daiAddress;\n    }\n\n    /**\n     * @dev admin set WethToken contract address\n     * @param _wethTokenAddress set to the address of WethToken contract\n     */\n    function setWethTokenAddress(address _wethTokenAddress)\n        external\n        onlyAdmin\n        validAddress(_wethTokenAddress)\n    {c_0xd7dd2f7a(0xf0612cb44c37c369e4858680e696affba7cc530f997770c6df47704f064eb0ee); /* function */ \n\nc_0xd7dd2f7a(0x09a34f2f3927fbe475da33ed8a412529cf4b262c97901ac035308caefb7d5426); /* line */ \n        c_0xd7dd2f7a(0x586783fc2114dd58119815f5cbec6aad877be3eeafa6d86ba9e86b52a0996a23); /* statement */ \nIERC20Upgradeable candidateContract = IERC20Upgradeable(\n            _wethTokenAddress\n        );\nc_0xd7dd2f7a(0xe328c761d87c8489581ec906e203ef9d7c438cd2b4831e3ccf71e09021d830aa); /* line */ \n        c_0xd7dd2f7a(0xc7500c15c68ff139f394963ee5cd5773fd1c418f21da0bd46c0825ef5b53a533); /* statement */ \nwethToken = candidateContract;\n    }\n\n    /**\n     * @dev admin set UniswapRouter contract address\n     * @param _uniswapRouterAddress set to the address of UniswapRouter contract\n     */\n    function setUniswapRouterAddress(address _uniswapRouterAddress)\n        external\n        onlyAdmin\n        validAddress(_uniswapRouterAddress)\n    {c_0xd7dd2f7a(0x000aed4aec9d8a36c9ad91f0391fc20b2b909438dffc979f1b88a10eb5786da9); /* function */ \n\nc_0xd7dd2f7a(0xc8fccdfbd17f30c47eebd30a68af1767a798913d89676b97ddb2fa85d2c0f812); /* line */ \n        c_0xd7dd2f7a(0x8b4468dcf6641bd9c8b38772ae169ea1650b13feb7723eb294b8d7b8791b71f3); /* statement */ \nIUniswapV2Router02New candidateContract = IUniswapV2Router02New(\n            _uniswapRouterAddress\n        );\n\nc_0xd7dd2f7a(0xfe1dbb3a5b496de1be60e4b1129d665dcf60e727ccad879ea30ef913fcb447ef); /* line */ \n        c_0xd7dd2f7a(0x0c5233e8f5d085c80f02fe5d23f2e36cfdef79e557228821ce37897264406f3c); /* statement */ \nuniswapRouter = candidateContract;\n    }\n\n    /**\n     * @dev admin set PlanterFund contract address\n     * @param _address set to the address of PlanterFund contract\n     */\n    function setPlanterFundContractAddress(address _address)\n        external\n        onlyAdmin\n    {c_0xd7dd2f7a(0x2cbd3ba47b833563761e988ca7ed463243a519d38b7a428800295b4ecf3b06b9); /* function */ \n\nc_0xd7dd2f7a(0xae55a220ffed4c22fc29f272357e4c59a9282fcfc096beab886a97a2c923f0ca); /* line */ \n        c_0xd7dd2f7a(0xb31400bb99e736a9fda65a6470a94a59c1fd715f78e456b32e400c30494c884c); /* statement */ \nIPlanterFund candidateContract = IPlanterFund(_address);\nc_0xd7dd2f7a(0xd3147d7d31077cc59cfa65b5a319e1b4c69165fee0f2dc4e8e746076747c0874); /* line */ \n        c_0xd7dd2f7a(0x4a44f0c66df6c7a0a3bdde11e6170a7c39eea9a67b798c752e93e435dd32a592); /* requirePre */ \nc_0xd7dd2f7a(0x4298876ed269cd8fb656dbc757c27abd71ee861aff0dcecc0cafa58877f0a047); /* statement */ \nrequire(candidateContract.isPlanterFund());c_0xd7dd2f7a(0xf2b319d012271ab9d2672689fcac5bca5bb6d3bc4d615a94b7d64950eee1f512); /* requirePost */ \n\nc_0xd7dd2f7a(0x3ed82169eb4fa34de8ef16445d0e6d2259b04fe3562fd14b60fd1b47afe28d87); /* line */ \n        c_0xd7dd2f7a(0x62b789ebe2eef27e598e35e661a8a8e08419d953fee32bceafe728965bb80392); /* statement */ \nplanterFundContract = candidateContract;\n    }\n\n    /**\n     * @dev admin set treeResearch  address to fund\n     * @param _address tree research address\n     */\n    function setTreeResearchAddress(address payable _address)\n        external\n        onlyAdmin\n        validAddress(_address)\n    {c_0xd7dd2f7a(0x3811ffbe11b97586ee20e98c4fd0a543128aa0dc7671ceccd98dbb7d06e01935); /* function */ \n\nc_0xd7dd2f7a(0xb398b1ddc6c3a95594a4638757477a94c879aee1648f89fb361d3988d8814d51); /* line */ \n        c_0xd7dd2f7a(0x3ff1345fcbc3749976edf2f34a560027d87c8467652c06db1a43f7c3c525e5f5); /* statement */ \ntreeResearchAddress = _address;\n    }\n\n    /**\n     * @dev admin set localDevelop  address to fund\n     * @param _address local develop address\n     */\n    function setLocalDevelopAddress(address payable _address)\n        external\n        onlyAdmin\n        validAddress(_address)\n    {c_0xd7dd2f7a(0x67c29b859bcde20a2ecaa3104e04a37183eda44f293c9dd4f7f7f1ca6deca0ba); /* function */ \n\nc_0xd7dd2f7a(0x209c8bf1088784b71910d00d80ba5a5ef91501f8066f88487252a40b355cfb62); /* line */ \n        c_0xd7dd2f7a(0x9508aca0d8d96983d8d3e474b97e1e0d581a0ad7f75f8fc15fc2bb37dd5f45af); /* statement */ \nlocalDevelopAddress = _address;\n    }\n\n    /**\n     * @dev admin set rescue address to fund\n     * @param _address rescue fund address\n     */\n    function setRescueFundAddress(address payable _address)\n        external\n        onlyAdmin\n        validAddress(_address)\n    {c_0xd7dd2f7a(0xda9ecb324440afbe56c26ffcd6fc1ac6854b9bcf65cf1c6001ad9204bb8d4fc4); /* function */ \n\nc_0xd7dd2f7a(0x94d2b56cfb572a29f964f3536ce41192b9d35c31ecde99bbc84cdb0fb2b9479b); /* line */ \n        c_0xd7dd2f7a(0x862c014b3a7a89e07a663cbe6db1ab9dd7431d64179765377b386ba77128c943); /* statement */ \nrescueFundAddress = _address;\n    }\n\n    /**\n     * @dev admin set treejerDevelop  address to fund\n     * @param _address treejer develop address\n     */\n    function setTreejerDevelopAddress(address payable _address)\n        external\n        onlyAdmin\n        validAddress(_address)\n    {c_0xd7dd2f7a(0x0cf4fa0bb1b69d93b8a54310ca81394df0e5a4f901cf65c0a748005fd45ee09a); /* function */ \n\nc_0xd7dd2f7a(0x6f5a96b374282a40381b0135a7f1dec18738b2aeba3ee22af09210cfb1a398a2); /* line */ \n        c_0xd7dd2f7a(0x78e5e454f3a88e5f1fbe16a3f92a33374171b0d5f80bcd179b28dc13adbc17fb); /* statement */ \ntreejerDevelopAddress = _address;\n    }\n\n    /**\n     * @dev admin set reserveFund1  address to fund\n     * @param _address reserveFund1 address\n     */\n    function setReserveFund1Address(address payable _address)\n        external\n        onlyAdmin\n        validAddress(_address)\n    {c_0xd7dd2f7a(0xd629a04978f2c7f6813104a52dd5faed5f0ee68ee1bfadf252e49e6aa3f0bce3); /* function */ \n\nc_0xd7dd2f7a(0x41cbdf371725db6785019ec71364790dc3c78c51a1bc757764ef4d1a7139e36f); /* line */ \n        c_0xd7dd2f7a(0x9b16d73f5b5aac2cbdb2193e19077e1cbb6f65c7141280e4b13844d23c239cb4); /* statement */ \nreserveFundAddress1 = _address;\n    }\n\n    /**\n     * @dev admin set reserveFund2  address to fund\n     * @param _address reserveFund2 address\n     */\n    function setReserveFund2Address(address payable _address)\n        external\n        onlyAdmin\n        validAddress(_address)\n    {c_0xd7dd2f7a(0x76cbbd673d17fa590285af406782ea329a465640b18d0423afe6a3c84f8c09a6); /* function */ \n\nc_0xd7dd2f7a(0x9c1113a5e9359fa46ad4c02a02273b09a1c78a2b1ad3bcccf0287b543881f272); /* line */ \n        c_0xd7dd2f7a(0xea0681b5a48f754a8127f17aecd754393d340f570154ac429acf9bec9f4d5420); /* statement */ \nreserveFundAddress2 = _address;\n    }\n\n    /**\n     * @dev fund a tree by IncrementalSell or Auction contract and based on distribution\n     * model of tree, shares divide beetwen (planter, referral, treeResearch,\n     * localDevelop, rescueFund, treejerDevelop, reserveFund1 and reserveFund2)\n     * and added to the totalFunds of each part,\n     * @param _treeId id of a tree to fund\n     * NOTE planterFund and referralFund share first swap to daiToken and then\n     * transfer to PlanterFund contract and add to totalFund section there\n     */\n    function fundTree(\n        uint256 _treeId,\n        uint256 _amount,\n        uint16 _planterFund,\n        uint16 _referralFund,\n        uint16 _treeResearch,\n        uint16 _localDevelop,\n        uint16 _rescueFund,\n        uint16 _treejerDevelop,\n        uint16 _reserveFund1,\n        uint16 _reserveFund2\n    ) external onlyTreejerContract {c_0xd7dd2f7a(0x564a1c1fc567569056702f7a7f9c76b39794169fd277bb8f760b1eeb7b38008d); /* function */ \n\nc_0xd7dd2f7a(0x91811d921da21542f53d3d76176e175d2d59310722345aa5e92b097b72922457); /* line */ \n        c_0xd7dd2f7a(0x90332a5ea2b9eb7a0f26f70c2d05867cb3ec0a2e91cdf0215d58314791d40888); /* statement */ \ntotalFunds.treeResearch += (_amount * _treeResearch) / 10000;\n\nc_0xd7dd2f7a(0x5745b85df7cdbace84a1749c7152e6f5a37a1d32979b7b8b20f5939b944b35fe); /* line */ \n        c_0xd7dd2f7a(0xc4dc105488c1863aebf755236d90c6be3a5b3390dae11ecc23b2233b317ce7ef); /* statement */ \ntotalFunds.localDevelop += (_amount * _localDevelop) / 10000;\n\nc_0xd7dd2f7a(0x043edfdbf894c2e39c1f68ef0550cbdded5f70dff694b9ba3ce36df0b6a97a20); /* line */ \n        c_0xd7dd2f7a(0xaab224f37d3a9a0f8caa27ce60028ebeb1812759742a57bb4141cbbdacda7a68); /* statement */ \ntotalFunds.rescueFund += (_amount * _rescueFund) / 10000;\n\nc_0xd7dd2f7a(0x8a763a4575ac83f9332079e540c33fd458991c815eccb368129229b570c187d5); /* line */ \n        c_0xd7dd2f7a(0x52da38d4b2ba51ca42e1abb6dffa5f9d82f742fb86577c18d8c28fba69bbae36); /* statement */ \ntotalFunds.treejerDevelop += (_amount * _treejerDevelop) / 10000;\n\nc_0xd7dd2f7a(0x3e9a32e5b724108ef44e0f0ac993a9797d5722853ede298eb66e6c61972b6413); /* line */ \n        c_0xd7dd2f7a(0x37a475e67745fd3623f7c0cac2e22d08e42ff7bd4e9060a4493b8db794d41f02); /* statement */ \ntotalFunds.reserveFund1 += (_amount * _reserveFund1) / 10000;\n\nc_0xd7dd2f7a(0x20af93a5f47d6e98d0a506cca7f75990c3d231e1ee3452c87bc3b1f9697f1ff0); /* line */ \n        c_0xd7dd2f7a(0x13a62fb49ec09f82fd78dd2039f1b445a650b226e7bd2bf00ac8deacc21cd442); /* statement */ \ntotalFunds.reserveFund2 += (_amount * _reserveFund2) / 10000;\n\nc_0xd7dd2f7a(0x901ce672195732e894126805b50a47945b092a9050257b4beeaf3fa3b5f1c930); /* line */ \n        c_0xd7dd2f7a(0x0c413215a988b228f636d2bc7638431ef31d8e87b5068e8c9b3b05ab7a3012de); /* statement */ \n_swap(_treeId, _amount, _planterFund, _referralFund);\n    }\n\n    /**\n     * @dev admin withdraw {_amount} from treeResearch totalFund in case of\n     * valid {_amount}  and wethToken transfer to {treeResearchAddress}\n     * @param _amount amount to withdraw\n     * @param _reason reason to withdraw\n     */\n    function withdrawTreeResearch(uint256 _amount, string calldata _reason)\n        external\n        ifNotPaused\n        onlyAdmin\n        validAddress(treeResearchAddress)\n    {c_0xd7dd2f7a(0xcf9d86f0761bdac3f26711a902a54c0c701ac7a22c570d3168abc77ae1548fa5); /* function */ \n\nc_0xd7dd2f7a(0x01e200ac569d705bec1d7db5dbaa7e5e9fc3060119b303fa97db8b9fcac3d66d); /* line */ \n        c_0xd7dd2f7a(0x111e97482ee4ce4808a7f2754bff93571ce5ac2742ddbeab4f8e96bbff30e2df); /* requirePre */ \nc_0xd7dd2f7a(0x797ebe024079f9791c4d4035d95deb72d254c2c43ca9c503273789510a41c1d8); /* statement */ \nrequire(\n            _amount <= totalFunds.treeResearch && _amount > 0,\n            \"insufficient amount\"\n        );c_0xd7dd2f7a(0xa4408e28bed93a6023a8fa6a6fedf7e14fc1d2b7f0b793b5a12f2956b20513bc); /* requirePost */ \n\n\nc_0xd7dd2f7a(0x7ad0ea5d2249eb3679a845e9728ef6c61eab58368d5b73c2fcab9898da6bece6); /* line */ \n        c_0xd7dd2f7a(0x9c0c3fd85fbbe544496c80a36d852f00d262d29873d1a27fb7d43e315ead2340); /* statement */ \ntotalFunds.treeResearch -= _amount;\n\nc_0xd7dd2f7a(0xc97980c3dd714ffd73e42bec9e58ec728e306e54ae6055fa4bf50b3195028296); /* line */ \n        c_0xd7dd2f7a(0xbbb2c4c62595c29216331a0f2130565dafa0dfa04af14ae54d447546252b26e8); /* statement */ \nbool success = wethToken.transfer(treeResearchAddress, _amount);\n\nc_0xd7dd2f7a(0xd62d34b30601cf0da268dddaee2db96688fda3bf543ff6f9fde01983b7676bb9); /* line */ \n        c_0xd7dd2f7a(0x22133af33855a9c2a33d542a60a980dc2248c7015127345047ea4a8103b56fa6); /* requirePre */ \nc_0xd7dd2f7a(0x345df02038478da5edc2cf1103be8ca8be8d1e3b4c91ef718b3449d7dd18396b); /* statement */ \nrequire(success, \"unsuccessful transfer\");c_0xd7dd2f7a(0x12b66d501c9ba419bc831245287939faf38b95149b4128664c5560e134370b9b); /* requirePost */ \n\n\nc_0xd7dd2f7a(0xa07a52aa5fb512fd03e106d82b6e637fef1856485e32c4da20a6aebd36def18a); /* line */ \n        c_0xd7dd2f7a(0x54a89a79132956c9eb5febb725af1ef692983c3817c6d1680cf9029e2ca5cc88); /* statement */ \nemit TreeResearchBalanceWithdrawn(\n            _amount,\n            treeResearchAddress,\n            _reason\n        );\n    }\n\n    /**\n     * @dev admin withdraw {_amount} from localDevelop totalFund in case of\n     * valid {_amount} and wethToken transfer to {localDevelopAddress}\n     * @param _amount amount to withdraw\n     * @param _reason reason to withdraw\n     */\n    function withdrawLocalDevelop(uint256 _amount, string calldata _reason)\n        external\n        ifNotPaused\n        onlyAdmin\n        validAddress(localDevelopAddress)\n    {c_0xd7dd2f7a(0x008542b0c081448054e0af3d3b219632fbd5639fd34992019039bbb692bbfda8); /* function */ \n\nc_0xd7dd2f7a(0xc0b1bbea06cc25d328014ad837fa79897712315606b526ffe37f64751a4151d2); /* line */ \n        c_0xd7dd2f7a(0x15707c53d92764b4014b5402845ba7b942b0c7fa29c3d3aa6f7168d99edb5c80); /* requirePre */ \nc_0xd7dd2f7a(0xff9f1067e32e820c4986402a22c76f22383a362c7c6827298ee8cd2ce6b3b590); /* statement */ \nrequire(\n            _amount <= totalFunds.localDevelop && _amount > 0,\n            \"insufficient amount\"\n        );c_0xd7dd2f7a(0x73c8081f90a1b46d5d966fb8f71937285a4543cd28ef1f90a436bd43f7670912); /* requirePost */ \n\n\nc_0xd7dd2f7a(0x80bb85ef9bf90c961fd5ddf9c5805840b71b461b81d20318a440a8c6d140cdcf); /* line */ \n        c_0xd7dd2f7a(0x02bfbedd0e516eb2feb8d0244db981c4da542e80618efb314b8b3531666f7c24); /* statement */ \ntotalFunds.localDevelop -= _amount;\n\nc_0xd7dd2f7a(0x7c54273a60ea50f168f8d3d1fa58199c46297d51b63176bb1135e10f0e5f4846); /* line */ \n        c_0xd7dd2f7a(0x7cabbe2b6b375c8a3d8d8fdaac89ce96f072973f6f31907fd20405227cc5853b); /* statement */ \nbool success = wethToken.transfer(localDevelopAddress, _amount);\n\nc_0xd7dd2f7a(0xa0b15fa0fdc241ee70971733fc2b6d70889a198676c7e6867c3e9027d93853d8); /* line */ \n        c_0xd7dd2f7a(0x663cad3ff3903a1f422f8d048bdddb57d0651e3897b7dacdd2c61885506bc3d3); /* requirePre */ \nc_0xd7dd2f7a(0x14e87aa4e9482962bb3c9eb4134027a6dfe812c9d455a9ff04b264132265fb97); /* statement */ \nrequire(success, \"unsuccessful transfer\");c_0xd7dd2f7a(0xae9a7f50442a4503e3e6801b8a374202ad00bda3775fef43b98f5fac38503f3e); /* requirePost */ \n\n\nc_0xd7dd2f7a(0x695fb0f97d396daf8f8892bdf1361e5c9263ecde600e10cd9297c9e0754f9cfb); /* line */ \n        c_0xd7dd2f7a(0x9ea750a7f228803a573b63cba6d08e33b0675cfc40edca9e8ee290ffed4e7eab); /* statement */ \nemit LocalDevelopBalanceWithdrawn(\n            _amount,\n            localDevelopAddress,\n            _reason\n        );\n    }\n\n    /**\n     * @dev admin withdraw {_amount} from rescueFund totalFund in case of\n     * valid {_amount} and wethToken transfer to {rescueFundAddress}\n     * @param _amount amount to withdraw\n     * @param _reason reason to withdraw\n     */\n    function withdrawRescueFund(uint256 _amount, string calldata _reason)\n        external\n        ifNotPaused\n        onlyAdmin\n        validAddress(rescueFundAddress)\n    {c_0xd7dd2f7a(0x88a9a0ebdd0ea508d058dd0988d01be62dc988d48e1134d3c55d50880525ad90); /* function */ \n\nc_0xd7dd2f7a(0xe22eb2ce4bf1e98b88193cc50ccbfdb7b566d32d8a4a10623cdd785860aad99e); /* line */ \n        c_0xd7dd2f7a(0x50a467e57a30a392c251214387bcb3cb6a7b973ec20441adbe1d0522cb7949a7); /* requirePre */ \nc_0xd7dd2f7a(0x0777cfb2e0c5bf6990e07308d2c70bbd6ee6ba2bf8cfe2beeb48ffba59f37b6f); /* statement */ \nrequire(\n            _amount <= totalFunds.rescueFund && _amount > 0,\n            \"insufficient amount\"\n        );c_0xd7dd2f7a(0xa12b58598403f1eabab16ec2554c378a4c7a0626c5c35c46b539be5027e05b1d); /* requirePost */ \n\n\nc_0xd7dd2f7a(0x828e10b8c4ff58b2b84e7f9321c1ec99f99cd88cb50b56493945c3e3323f3b5f); /* line */ \n        c_0xd7dd2f7a(0x14e223f5ca08f785fa8f2d8648be62953f32f6323d2ac2da80277034e066905c); /* statement */ \ntotalFunds.rescueFund -= _amount;\n\nc_0xd7dd2f7a(0x384cab6c3ea3341499b19f4fa91e3929743031d9aae61e0ca63a81a581e4118e); /* line */ \n        c_0xd7dd2f7a(0xa94a82700aa56ed9c1d08f3cd9563a9876396c0386bda0c71ee7879ee26159dc); /* statement */ \nbool success = wethToken.transfer(rescueFundAddress, _amount);\n\nc_0xd7dd2f7a(0x96e8bbda08e49ac266d03090ea4a82c7ea6659fe1216f235803a4affbf869bc6); /* line */ \n        c_0xd7dd2f7a(0xa8a4a1c0bf09d98186acaa9300331a47e2198ef208d05a07e1dbd4bc647e2652); /* requirePre */ \nc_0xd7dd2f7a(0xa60f872360bdd3dc52b2e04b7000389a6716029cc03cee8b469968c8ac496df9); /* statement */ \nrequire(success, \"unsuccessful transfer\");c_0xd7dd2f7a(0x62c226916e4d4370c58aaa6d6674a5ae42a6346ddad8009326be248b213a906f); /* requirePost */ \n\n\nc_0xd7dd2f7a(0x569082f9e07fc60658c395e8c4700e7ec283369ab385789569c7a82833de8e7f); /* line */ \n        c_0xd7dd2f7a(0x4950709392bc59671d30b93e67f3ca563592612dcaf2376b75f54d4f02408405); /* statement */ \nemit RescueBalanceWithdrawn(_amount, rescueFundAddress, _reason);\n    }\n\n    /**\n     * @dev admin withdraw {_amount} from treejerDevelop totalFund in case of\n     * valid {_amount} and wethToken transfer to {treejerDevelopAddress}\n     * @param _amount amount to withdraw\n     * @param _reason reason to withdraw\n     */\n    function withdrawTreejerDevelop(uint256 _amount, string calldata _reason)\n        external\n        ifNotPaused\n        onlyAdmin\n        validAddress(treejerDevelopAddress)\n    {c_0xd7dd2f7a(0x1ac44aeb88c7544f2df8c949dfb7f48fc769763998d355d8ee9abed477adb596); /* function */ \n\nc_0xd7dd2f7a(0x8441fb9ebb1c74b0aab991d63e17413d08e7881e69c29c4d2e6d2658b18d4044); /* line */ \n        c_0xd7dd2f7a(0x9e38b38097c24b3417836e6638f195bf9031411340778702212a7c4508ffae29); /* requirePre */ \nc_0xd7dd2f7a(0x93feaf4ca9ecbd47525adf099f54b7180f7540ed3e5634847f421e16cc9630f6); /* statement */ \nrequire(\n            _amount <= totalFunds.treejerDevelop && _amount > 0,\n            \"insufficient amount\"\n        );c_0xd7dd2f7a(0x7afd0e1efd2be57efd74d08653dc1e08d4ee7fcc9cb2aca067f74cfef5bf4b72); /* requirePost */ \n\n\nc_0xd7dd2f7a(0x68ec451fe75f14397478ebfadd07cf232d6396dacb715df512f7ac1abc24e519); /* line */ \n        c_0xd7dd2f7a(0xf2f9108f79204f153d9a910380eb53c3eb0dfbd9e2f63eebf687e0192a986d07); /* statement */ \ntotalFunds.treejerDevelop -= _amount;\n\nc_0xd7dd2f7a(0xf97ac3cbf4b8cef9e236501843cfefbda7f6184c67fbd35c786b2ca99b9b90ca); /* line */ \n        c_0xd7dd2f7a(0x81f12874bed5ccf2a62a333dd42e085a6ccafc110fcf87591ac93d4846e25744); /* statement */ \nbool success = wethToken.transfer(treejerDevelopAddress, _amount);\n\nc_0xd7dd2f7a(0x94f622d5c0fbc27b156f8cded42468995cac6da93b6070e510a2943027afb059); /* line */ \n        c_0xd7dd2f7a(0xe4be368806bdd354b07aa5f5e684fc399122e0f139c771df69b943acbdf94a66); /* requirePre */ \nc_0xd7dd2f7a(0x436e8d1195575d0fb84f8c3d479ee8761cb01f198e1835bafda8d18aedaa56a0); /* statement */ \nrequire(success, \"unsuccessful transfer\");c_0xd7dd2f7a(0xf95bdfd9c0248f57aedb861828ab7f07310257b333a049222be320257093e295); /* requirePost */ \n\n\nc_0xd7dd2f7a(0x2cf5697c98198c213d0df9cc8ae377b45c3e77d5f1b075c5d1e15e3ab28d8829); /* line */ \n        c_0xd7dd2f7a(0xc28f28f2a3d66ba5b630c29d943a33cdad9a80c489479af70caee760a3ba13be); /* statement */ \nemit TreejerDevelopBalanceWithdrawn(\n            _amount,\n            treejerDevelopAddress,\n            _reason\n        );\n    }\n\n    /**\n     * @dev admin withdraw {_amount} from reserveFund1 totalFund in case of\n     * valid {_amount} and wethToken transfer to {reserveFundAddress1}\n     * @param _amount amount to withdraw\n     * @param _reason reason to withdraw\n     */\n    function withdrawReserveFund1(uint256 _amount, string calldata _reason)\n        external\n        ifNotPaused\n        onlyAdmin\n        validAddress(reserveFundAddress1)\n    {c_0xd7dd2f7a(0xfc43ccaae24f460c16f8d75554df6051dbfad6fd32617837408cc1fee163fb3b); /* function */ \n\nc_0xd7dd2f7a(0xac6fa375399b41dac22faa78f664e8289d6561a51d81205b0f7cbfa8a7829f14); /* line */ \n        c_0xd7dd2f7a(0x3a0acd8bef0064616cc1f7580c21ea9e7b0f60b5b0d7c5286e0db2ff6789cfc8); /* requirePre */ \nc_0xd7dd2f7a(0xcc98684641fa5c91cdf9ce4a93b5c7263e4a8776f9cad8981ae4d5c3cd76033c); /* statement */ \nrequire(\n            _amount <= totalFunds.reserveFund1 && _amount > 0,\n            \"insufficient amount\"\n        );c_0xd7dd2f7a(0xa8a2df6155becc50994611241857f43c2ca5417229f108da9e626ebe94c87d2e); /* requirePost */ \n\n\nc_0xd7dd2f7a(0xd8fe474a38f559104139c092ae9a315afac4b5b87121fdc66220b4946fecb661); /* line */ \n        c_0xd7dd2f7a(0x76b87291ea8865c51852a3d0a7265338b669a052bfaad876bb501ff6fcf90e53); /* statement */ \ntotalFunds.reserveFund1 -= _amount;\n\nc_0xd7dd2f7a(0xec56cefb56d15efe8440c4ae4d85332149b694cdc38b7829ada9752b2bdb0c11); /* line */ \n        c_0xd7dd2f7a(0xd46dc6e76696ad6ef49a7ef0521610257a0c7e90157642bd29a247de5a2e00c1); /* statement */ \nbool success = wethToken.transfer(reserveFundAddress1, _amount);\n\nc_0xd7dd2f7a(0x44af6203e27012f53016fffce8e7cb6bcc9f4ea27a0335a8284e03d93436ca3c); /* line */ \n        c_0xd7dd2f7a(0xcfd46e18d5ca361f6feb308beabbc6c40ee7c836953a4ea341ccb5d620c62316); /* requirePre */ \nc_0xd7dd2f7a(0xf4e3470b58a2db3148f887776d71796454f80c2f9ca351c0f40cbbd8dd92dac4); /* statement */ \nrequire(success, \"unsuccessful transfer\");c_0xd7dd2f7a(0x8ed2f7f894279f12b96718de8bbbc9a3e176ff5c80c3cc02416233103f081955); /* requirePost */ \n\n\nc_0xd7dd2f7a(0x68b5d1dde6eea00f71d8bcb1412cd33fd1620754e1a97e16a79b206422f7f596); /* line */ \n        c_0xd7dd2f7a(0x664f858ba522a0a286d2b21842d43a0dccc5464f889ae4940a03def4cfa611d7); /* statement */ \nemit reserveBalanceWithdrawn1(_amount, reserveFundAddress1, _reason);\n    }\n\n    /**\n     * @dev admin withdraw {_amount} from reserveFund2 totalFund in case of\n     * valid {_amount} and wethToken transfer to {reserveFundAddress2}\n     * @param _amount amount to withdraw\n     * @param _reason reason to withdraw\n     */\n    function withdrawReserveFund2(uint256 _amount, string calldata _reason)\n        external\n        ifNotPaused\n        onlyAdmin\n        validAddress(reserveFundAddress2)\n    {c_0xd7dd2f7a(0x0a153c158fecaeae9930c5a2a3ad9d4eceae2a3510ee6c8cfcf6f3897eb0d992); /* function */ \n\nc_0xd7dd2f7a(0xc112cfcfd1b076d07092a4773e398853c775cc4549bfee63fc3ee070c1926de9); /* line */ \n        c_0xd7dd2f7a(0x5308090c555c081c239eab1e6e565ffeb6d768d4d339bd77bb22a1c7556a276e); /* requirePre */ \nc_0xd7dd2f7a(0x8d5522d38c8c3df5e602302d7e7f79ceda8364fe11d3cc13f59eb764b1815129); /* statement */ \nrequire(\n            _amount <= totalFunds.reserveFund2 && _amount > 0,\n            \"insufficient amount\"\n        );c_0xd7dd2f7a(0x4087e6f2a8ce5742f1bb535b9b81740fec957696145142029c6a664c89eb9c53); /* requirePost */ \n\n\nc_0xd7dd2f7a(0xa5986c3e77b94390356d77102b700dd6c094a3881b96cfe78e6de97547f7de86); /* line */ \n        c_0xd7dd2f7a(0x384a45e37a10dd6bca1bd5fab1b6c221143336711581e983ca7d658e5492ee4b); /* statement */ \ntotalFunds.reserveFund2 -= _amount;\n\nc_0xd7dd2f7a(0xad2fe455b285ed1d6c541ba2c736169e0863e69278b7b6220d1ed57b4d0667b1); /* line */ \n        c_0xd7dd2f7a(0x146ffb03b212f05e9300dd8926265ed4c270e89b04762573ed1580a275164027); /* statement */ \nbool success = wethToken.transfer(reserveFundAddress2, _amount);\n\nc_0xd7dd2f7a(0xd916b692be11d8ae5cad4bf439c60e8640085134f6ecfda226de0eb900d8436c); /* line */ \n        c_0xd7dd2f7a(0x0f597f920e3be88ab29df17dda31e3626054d5f825207a8d812057f2878db1c5); /* requirePre */ \nc_0xd7dd2f7a(0x3eb4cdde83c9f14cfdbe63a88c9011ec3cc6dc7e9c1e0a9a4e7dd6eacc866e38); /* statement */ \nrequire(success, \"unsuccessful transfer\");c_0xd7dd2f7a(0xd441b5817855293a5526908ffaac7054348ed7d7c73286f0a3172969e627f29f); /* requirePost */ \n\n\nc_0xd7dd2f7a(0xd447d08bb6a9867c98e522bdd78acb253d3906a76eb23f9bf1badc7b24849a79); /* line */ \n        c_0xd7dd2f7a(0xd4fe61d3c38cbdf15c3a3060ecc5d386fb04adf790121b359134bc8632d50a2a); /* statement */ \nemit reserveBalanceWithdrawn2(_amount, reserveFundAddress2, _reason);\n    }\n\n    /** @dev private function to swap {_amount} wethToken to daiToken\n     * @param _treeId id of tree that funded\n     * @param _amount amount to swap\n     * @param _planterFund planter share\n     * @param _referralFund referral share\n     */\n    function _swap(\n        uint256 _treeId,\n        uint256 _amount,\n        uint16 _planterFund,\n        uint16 _referralFund\n    ) private {c_0xd7dd2f7a(0x6594732a39bf29df58d6b6f8ad86e035d4d58e802edc2d62df6690747d5e6f78); /* function */ \n\nc_0xd7dd2f7a(0xd98bf61dcbd90ab6d72536eaef53d1eafe921d3b361d50536bd3046f35c8305a); /* line */ \n        c_0xd7dd2f7a(0xb7abc54b15a21f9f2840344441d397acf2dbc3fee771e498f5ba524a7fb85cd6); /* statement */ \nuint256 planterFund = (_amount * _planterFund) / 10000;\nc_0xd7dd2f7a(0x000c7d7fbea5952d3d945ffeb794546d75742fdd0b31ce805b3103ac3ac9c8ac); /* line */ \n        c_0xd7dd2f7a(0x1c5cf3e52153afe7667fee5a428a67026c90c28b651bff1bc22200249c949347); /* statement */ \nuint256 referralFund = (_amount * _referralFund) / 10000;\n\nc_0xd7dd2f7a(0xf23d184f8576c4f5a2fabf2f79f58c313fcc6c0c43dc355e360c5c87f8c167c7); /* line */ \n        c_0xd7dd2f7a(0xc321398e9da28c9ffa671d879b1e732ee049ea69fd4bd47eefe63acafc0c9be7); /* statement */ \nuint256 sumFund = planterFund + referralFund;\nc_0xd7dd2f7a(0x4e20efa538ab2d3ef694dd4612fb77faf3eaf54b79351fb97694c1b801ae767f); /* line */ \n        c_0xd7dd2f7a(0xded45b74467b03b7bc79b4d0b09985f41541fea3112a4432569f707da87d1933); /* statement */ \nuint16 sumPercent = _planterFund + _referralFund;\n\nc_0xd7dd2f7a(0xe719df8f1f79c7897b5233c7098416e8ae194dd694bc45682cbd9cdbba5e3608); /* line */ \n        c_0xd7dd2f7a(0x2c02f10fdb066ee5264faf1cce4d34ebd056489724ae2194cd3402db56b3f17f); /* statement */ \naddress[] memory path;\nc_0xd7dd2f7a(0x997ff184c8e3c96d80061519d4444859962aa35d72c65983603eaac31fc1c862); /* line */ \n        c_0xd7dd2f7a(0x0344ccddc2ec82dfa4e6ae76b27c7b1bb73426bcc410794a1ab5588176800500); /* statement */ \npath = new address[](2);\n\nc_0xd7dd2f7a(0xc1c9274d4f58c4e541b1b59121c7508372e61c86f8bbc79d809969a357e8e574); /* line */ \n        c_0xd7dd2f7a(0xa2f34d552e2435119f3f79b293245ef50d202bdc5cf37f02e2b6a3d3a33dd212); /* statement */ \npath[0] = address(wethToken);\nc_0xd7dd2f7a(0x8fe6154c82d9e5d84668316f7ece351ecf9b8ba07ee1f794d3cdbcd1b1169c7c); /* line */ \n        c_0xd7dd2f7a(0x39650c3f47d6ee526a6a1453d1b198a7990a7f8df8c9b6da3e34b990eadc9d13); /* statement */ \npath[1] = daiAddress;\n\nc_0xd7dd2f7a(0xcc0575fa06cd1d86023d00769f812930b632508f37219df4646835d57853de7f); /* line */ \n        c_0xd7dd2f7a(0x16a84ac5fc67e57e95a146ff55f2ade98408cfe9f2e1d3ce6e9b123602df5f65); /* statement */ \nbool success = wethToken.approve(address(uniswapRouter), sumFund);\n\nc_0xd7dd2f7a(0xfd94ce7795c0ee4c34a40f0306fe5b0665a847a2d50c442ac874b394e19b5c6a); /* line */ \n        c_0xd7dd2f7a(0xb919d4fc8a3e67a77844176ca22d6113a9ec2f3f68fa9ebe435bc6c0dc89791e); /* requirePre */ \nc_0xd7dd2f7a(0x9ed3ebe0dc5ba4412360075b8fd9e6756a630171a61ccd50f6a9b60365077c96); /* statement */ \nrequire(success, \"unsuccessful approve\");c_0xd7dd2f7a(0x2ceee6db77fc2e781ec59faa47b163fa8dee3fd8a2c70f39274688abab55b0df); /* requirePost */ \n\n\nc_0xd7dd2f7a(0x8964aecfd7d9b1dd87af628e6b4d01e9e750571c8f7970f2557885fe9a4ea66f); /* line */ \n        c_0xd7dd2f7a(0xc8ba43aa6301dc7df0e14785cd1d3d7ba28d2f2d92bcaf5fc16f246e1bb2efbe); /* statement */ \nuint256[] memory amounts = uniswapRouter.swapExactTokensForTokens(\n            sumFund,\n            1,\n            path,\n            address(planterFundContract),\n            block.timestamp + 1800 // 30 * 60 (30 min)\n        );\n\nc_0xd7dd2f7a(0x8e300e648104d7093c9aa4026cb723fb22117cdcbc554354f62f5f0679c2e57d); /* line */ \n        c_0xd7dd2f7a(0x5a33075561e3ab8eef2e2942d6c61f34ae286f840d90f2b1ecaf57e54c6e7a84); /* statement */ \nplanterFundContract.setPlanterFunds(\n            _treeId,\n            (_planterFund * amounts[1]) / sumPercent,\n            (_referralFund * amounts[1]) / sumPercent\n        );\nc_0xd7dd2f7a(0x95c66ae485731b0f14a7861eba9ddf5f08e686ecae68159b066e7c78937e5658); /* line */ \n        c_0xd7dd2f7a(0x99b7a1ef4563b9e389a881af07606d8a692cb3a103ef78e68b95173878318e42); /* statement */ \nemit TreeFunded(_treeId, _amount, planterFund + referralFund);\n    }\n}\n",
  "sourcePath": "/home/smuggler/contract/.coverage_contracts/treasury/WethFunds.sol",
  "compiler": {
    "name": "solc",
    "version": "0.8.6+commit.11564f7e.Emscripten.clang"
  },
  "schemaVersion": "3.4.1",
  "updatedAt": "2021-08-31T13:33:31.699Z",
  "devdoc": {
    "kind": "dev",
    "methods": {
      "fundTree(uint256,uint256,uint16,uint16,uint16,uint16,uint16,uint16,uint16,uint16)": {
        "details": "fund a tree by IncrementalSell or Auction contract and based on distribution model of tree, shares divide beetwen (planter, referral, treeResearch, localDevelop, rescueFund, treejerDevelop, reserveFund1 and reserveFund2) and added to the totalFunds of each part,",
        "params": {
          "_treeId": "id of a tree to fund NOTE planterFund and referralFund share first swap to daiToken and then transfer to PlanterFund contract and add to totalFund section there"
        }
      },
      "initialize(address)": {
        "details": "initialize accessRestriction contract and set true for isWethFunds",
        "params": {
          "_accessRestrictionAddress": "set to the address of accessRestriction contract"
        }
      },
      "setDaiAddress(address)": {
        "details": "admin set DaiToken address",
        "params": {
          "_daiAddress": "set to the address of DaiToken"
        }
      },
      "setLocalDevelopAddress(address)": {
        "details": "admin set localDevelop  address to fund",
        "params": {
          "_address": "local develop address"
        }
      },
      "setPlanterFundContractAddress(address)": {
        "details": "admin set PlanterFund contract address",
        "params": {
          "_address": "set to the address of PlanterFund contract"
        }
      },
      "setRescueFundAddress(address)": {
        "details": "admin set rescue address to fund",
        "params": {
          "_address": "rescue fund address"
        }
      },
      "setReserveFund1Address(address)": {
        "details": "admin set reserveFund1  address to fund",
        "params": {
          "_address": "reserveFund1 address"
        }
      },
      "setReserveFund2Address(address)": {
        "details": "admin set reserveFund2  address to fund",
        "params": {
          "_address": "reserveFund2 address"
        }
      },
      "setTreeResearchAddress(address)": {
        "details": "admin set treeResearch  address to fund",
        "params": {
          "_address": "tree research address"
        }
      },
      "setTreejerDevelopAddress(address)": {
        "details": "admin set treejerDevelop  address to fund",
        "params": {
          "_address": "treejer develop address"
        }
      },
      "setUniswapRouterAddress(address)": {
        "details": "admin set UniswapRouter contract address",
        "params": {
          "_uniswapRouterAddress": "set to the address of UniswapRouter contract"
        }
      },
      "setWethTokenAddress(address)": {
        "details": "admin set WethToken contract address",
        "params": {
          "_wethTokenAddress": "set to the address of WethToken contract"
        }
      },
      "withdrawLocalDevelop(uint256,string)": {
        "details": "admin withdraw {_amount} from localDevelop totalFund in case of valid {_amount} and wethToken transfer to {localDevelopAddress}",
        "params": {
          "_amount": "amount to withdraw",
          "_reason": "reason to withdraw"
        }
      },
      "withdrawRescueFund(uint256,string)": {
        "details": "admin withdraw {_amount} from rescueFund totalFund in case of valid {_amount} and wethToken transfer to {rescueFundAddress}",
        "params": {
          "_amount": "amount to withdraw",
          "_reason": "reason to withdraw"
        }
      },
      "withdrawReserveFund1(uint256,string)": {
        "details": "admin withdraw {_amount} from reserveFund1 totalFund in case of valid {_amount} and wethToken transfer to {reserveFundAddress1}",
        "params": {
          "_amount": "amount to withdraw",
          "_reason": "reason to withdraw"
        }
      },
      "withdrawReserveFund2(uint256,string)": {
        "details": "admin withdraw {_amount} from reserveFund2 totalFund in case of valid {_amount} and wethToken transfer to {reserveFundAddress2}",
        "params": {
          "_amount": "amount to withdraw",
          "_reason": "reason to withdraw"
        }
      },
      "withdrawTreeResearch(uint256,string)": {
        "details": "admin withdraw {_amount} from treeResearch totalFund in case of valid {_amount}  and wethToken transfer to {treeResearchAddress}",
        "params": {
          "_amount": "amount to withdraw",
          "_reason": "reason to withdraw"
        }
      },
      "withdrawTreejerDevelop(uint256,string)": {
        "details": "admin withdraw {_amount} from treejerDevelop totalFund in case of valid {_amount} and wethToken transfer to {treejerDevelopAddress}",
        "params": {
          "_amount": "amount to withdraw",
          "_reason": "reason to withdraw"
        }
      }
    },
    "title": "WethFunds Contract ",
    "version": 1
  },
  "userdoc": {
    "kind": "user",
    "methods": {
      "daiAddress()": {
        "notice": "NOTE daiToken address "
      },
      "isWethFunds()": {
        "notice": "NOTE {isWethFunds} set inside the initialize to {true} "
      },
      "totalFunds()": {
        "notice": "NOTE {totalFunds} is struct of TotalFund that keep total share of treeResearch, localDevelop,rescueFund,treejerDeveop,reserveFund1 and reserveFund2"
      }
    },
    "version": 1
  }
}