{
  "contractName": "WhitelistPaymaster",
  "abi": [
    {
      "inputs": [
        {
          "internalType": "address",
          "name": "_accessRestrictionAddress",
          "type": "address"
        }
      ],
      "stateMutability": "nonpayable",
      "type": "constructor"
    },
    {
      "anonymous": false,
      "inputs": [
        {
          "indexed": true,
          "internalType": "address",
          "name": "previousOwner",
          "type": "address"
        },
        {
          "indexed": true,
          "internalType": "address",
          "name": "newOwner",
          "type": "address"
        }
      ],
      "name": "OwnershipTransferred",
      "type": "event"
    },
    {
      "inputs": [],
      "name": "CALLDATA_SIZE_LIMIT",
      "outputs": [
        {
          "internalType": "uint256",
          "name": "",
          "type": "uint256"
        }
      ],
      "stateMutability": "view",
      "type": "function"
    },
    {
      "inputs": [],
      "name": "FORWARDER_HUB_OVERHEAD",
      "outputs": [
        {
          "internalType": "uint256",
          "name": "",
          "type": "uint256"
        }
      ],
      "stateMutability": "view",
      "type": "function"
    },
    {
      "inputs": [],
      "name": "PAYMASTER_ACCEPTANCE_BUDGET",
      "outputs": [
        {
          "internalType": "uint256",
          "name": "",
          "type": "uint256"
        }
      ],
      "stateMutability": "view",
      "type": "function"
    },
    {
      "inputs": [],
      "name": "POST_RELAYED_CALL_GAS_LIMIT",
      "outputs": [
        {
          "internalType": "uint256",
          "name": "",
          "type": "uint256"
        }
      ],
      "stateMutability": "view",
      "type": "function"
    },
    {
      "inputs": [],
      "name": "PRE_RELAYED_CALL_GAS_LIMIT",
      "outputs": [
        {
          "internalType": "uint256",
          "name": "",
          "type": "uint256"
        }
      ],
      "stateMutability": "view",
      "type": "function"
    },
    {
      "inputs": [
        {
          "components": [
            {
              "components": [
                {
                  "internalType": "address",
                  "name": "from",
                  "type": "address"
                },
                {
                  "internalType": "address",
                  "name": "to",
                  "type": "address"
                },
                {
                  "internalType": "uint256",
                  "name": "value",
                  "type": "uint256"
                },
                {
                  "internalType": "uint256",
                  "name": "gas",
                  "type": "uint256"
                },
                {
                  "internalType": "uint256",
                  "name": "nonce",
                  "type": "uint256"
                },
                {
                  "internalType": "bytes",
                  "name": "data",
                  "type": "bytes"
                },
                {
                  "internalType": "uint256",
                  "name": "validUntil",
                  "type": "uint256"
                }
              ],
              "internalType": "struct IForwarder.ForwardRequest",
              "name": "request",
              "type": "tuple"
            },
            {
              "components": [
                {
                  "internalType": "uint256",
                  "name": "gasPrice",
                  "type": "uint256"
                },
                {
                  "internalType": "uint256",
                  "name": "pctRelayFee",
                  "type": "uint256"
                },
                {
                  "internalType": "uint256",
                  "name": "baseRelayFee",
                  "type": "uint256"
                },
                {
                  "internalType": "address",
                  "name": "relayWorker",
                  "type": "address"
                },
                {
                  "internalType": "address",
                  "name": "paymaster",
                  "type": "address"
                },
                {
                  "internalType": "address",
                  "name": "forwarder",
                  "type": "address"
                },
                {
                  "internalType": "bytes",
                  "name": "paymasterData",
                  "type": "bytes"
                },
                {
                  "internalType": "uint256",
                  "name": "clientId",
                  "type": "uint256"
                }
              ],
              "internalType": "struct GsnTypes.RelayData",
              "name": "relayData",
              "type": "tuple"
            }
          ],
          "internalType": "struct GsnTypes.RelayRequest",
          "name": "relayRequest",
          "type": "tuple"
        }
      ],
      "name": "_verifyForwarder",
      "outputs": [],
      "stateMutability": "view",
      "type": "function"
    },
    {
      "inputs": [],
      "name": "accessRestriction",
      "outputs": [
        {
          "internalType": "contract IAccessRestriction",
          "name": "",
          "type": "address"
        }
      ],
      "stateMutability": "view",
      "type": "function"
    },
    {
      "inputs": [
        {
          "internalType": "address",
          "name": "",
          "type": "address"
        }
      ],
      "name": "funderTargetWhitelist",
      "outputs": [
        {
          "internalType": "bool",
          "name": "",
          "type": "bool"
        }
      ],
      "stateMutability": "view",
      "type": "function"
    },
    {
      "inputs": [],
      "name": "getGasAndDataLimits",
      "outputs": [
        {
          "components": [
            {
              "internalType": "uint256",
              "name": "acceptanceBudget",
              "type": "uint256"
            },
            {
              "internalType": "uint256",
              "name": "preRelayedCallGasLimit",
              "type": "uint256"
            },
            {
              "internalType": "uint256",
              "name": "postRelayedCallGasLimit",
              "type": "uint256"
            },
            {
              "internalType": "uint256",
              "name": "calldataSizeLimit",
              "type": "uint256"
            }
          ],
          "internalType": "struct IPaymaster.GasAndDataLimits",
          "name": "limits",
          "type": "tuple"
        }
      ],
      "stateMutability": "view",
      "type": "function"
    },
    {
      "inputs": [],
      "name": "getHubAddr",
      "outputs": [
        {
          "internalType": "address",
          "name": "",
          "type": "address"
        }
      ],
      "stateMutability": "view",
      "type": "function"
    },
    {
      "inputs": [],
      "name": "getRelayHubDeposit",
      "outputs": [
        {
          "internalType": "uint256",
          "name": "",
          "type": "uint256"
        }
      ],
      "stateMutability": "view",
      "type": "function"
    },
    {
      "inputs": [],
      "name": "owner",
      "outputs": [
        {
          "internalType": "address",
          "name": "",
          "type": "address"
        }
      ],
      "stateMutability": "view",
      "type": "function"
    },
    {
      "inputs": [
        {
          "internalType": "address",
          "name": "",
          "type": "address"
        }
      ],
      "name": "planterTargetWhitelist",
      "outputs": [
        {
          "internalType": "bool",
          "name": "",
          "type": "bool"
        }
      ],
      "stateMutability": "view",
      "type": "function"
    },
    {
      "inputs": [],
      "name": "renounceOwnership",
      "outputs": [],
      "stateMutability": "nonpayable",
      "type": "function"
    },
    {
      "inputs": [
        {
          "internalType": "contract IRelayHub",
          "name": "hub",
          "type": "address"
        }
      ],
      "name": "setRelayHub",
      "outputs": [],
      "stateMutability": "nonpayable",
      "type": "function"
    },
    {
      "inputs": [
        {
          "internalType": "contract IForwarder",
          "name": "forwarder",
          "type": "address"
        }
      ],
      "name": "setTrustedForwarder",
      "outputs": [],
      "stateMutability": "nonpayable",
      "type": "function"
    },
    {
      "inputs": [
        {
          "internalType": "address",
          "name": "newOwner",
          "type": "address"
        }
      ],
      "name": "transferOwnership",
      "outputs": [],
      "stateMutability": "nonpayable",
      "type": "function"
    },
    {
      "inputs": [],
      "name": "trustedForwarder",
      "outputs": [
        {
          "internalType": "contract IForwarder",
          "name": "",
          "type": "address"
        }
      ],
      "stateMutability": "view",
      "type": "function"
    },
    {
      "inputs": [
        {
          "internalType": "uint256",
          "name": "amount",
          "type": "uint256"
        },
        {
          "internalType": "address payable",
          "name": "target",
          "type": "address"
        }
      ],
      "name": "withdrawRelayHubDepositTo",
      "outputs": [],
      "stateMutability": "nonpayable",
      "type": "function"
    },
    {
      "stateMutability": "payable",
      "type": "receive"
    },
    {
      "inputs": [
        {
          "internalType": "bytes32",
          "name": "c__0xd7468039",
          "type": "bytes32"
        }
      ],
      "name": "c_0xd7468039",
      "outputs": [],
      "stateMutability": "pure",
      "type": "function"
    },
    {
      "inputs": [
        {
          "internalType": "address",
          "name": "_target",
          "type": "address"
        }
      ],
      "name": "addPlanterWhitelistTarget",
      "outputs": [],
      "stateMutability": "nonpayable",
      "type": "function"
    },
    {
      "inputs": [
        {
          "internalType": "address",
          "name": "_target",
          "type": "address"
        }
      ],
      "name": "removePlanterWhitelistTarget",
      "outputs": [],
      "stateMutability": "nonpayable",
      "type": "function"
    },
    {
      "inputs": [
        {
          "internalType": "address",
          "name": "_target",
          "type": "address"
        }
      ],
      "name": "addFunderWhitelistTarget",
      "outputs": [],
      "stateMutability": "nonpayable",
      "type": "function"
    },
    {
      "inputs": [
        {
          "internalType": "address",
          "name": "_target",
          "type": "address"
        }
      ],
      "name": "removeFunderWhitelistTarget",
      "outputs": [],
      "stateMutability": "nonpayable",
      "type": "function"
    },
    {
      "inputs": [
        {
          "components": [
            {
              "components": [
                {
                  "internalType": "address",
                  "name": "from",
                  "type": "address"
                },
                {
                  "internalType": "address",
                  "name": "to",
                  "type": "address"
                },
                {
                  "internalType": "uint256",
                  "name": "value",
                  "type": "uint256"
                },
                {
                  "internalType": "uint256",
                  "name": "gas",
                  "type": "uint256"
                },
                {
                  "internalType": "uint256",
                  "name": "nonce",
                  "type": "uint256"
                },
                {
                  "internalType": "bytes",
                  "name": "data",
                  "type": "bytes"
                },
                {
                  "internalType": "uint256",
                  "name": "validUntil",
                  "type": "uint256"
                }
              ],
              "internalType": "struct IForwarder.ForwardRequest",
              "name": "request",
              "type": "tuple"
            },
            {
              "components": [
                {
                  "internalType": "uint256",
                  "name": "gasPrice",
                  "type": "uint256"
                },
                {
                  "internalType": "uint256",
                  "name": "pctRelayFee",
                  "type": "uint256"
                },
                {
                  "internalType": "uint256",
                  "name": "baseRelayFee",
                  "type": "uint256"
                },
                {
                  "internalType": "address",
                  "name": "relayWorker",
                  "type": "address"
                },
                {
                  "internalType": "address",
                  "name": "paymaster",
                  "type": "address"
                },
                {
                  "internalType": "address",
                  "name": "forwarder",
                  "type": "address"
                },
                {
                  "internalType": "bytes",
                  "name": "paymasterData",
                  "type": "bytes"
                },
                {
                  "internalType": "uint256",
                  "name": "clientId",
                  "type": "uint256"
                }
              ],
              "internalType": "struct GsnTypes.RelayData",
              "name": "relayData",
              "type": "tuple"
            }
          ],
          "internalType": "struct GsnTypes.RelayRequest",
          "name": "relayRequest",
          "type": "tuple"
        },
        {
          "internalType": "bytes",
          "name": "signature",
          "type": "bytes"
        },
        {
          "internalType": "bytes",
          "name": "approvalData",
          "type": "bytes"
        },
        {
          "internalType": "uint256",
          "name": "maxPossibleGas",
          "type": "uint256"
        }
      ],
      "name": "preRelayedCall",
      "outputs": [
        {
          "internalType": "bytes",
          "name": "context",
          "type": "bytes"
        },
        {
          "internalType": "bool",
          "name": "revertOnRecipientRevert",
          "type": "bool"
        }
      ],
      "stateMutability": "nonpayable",
      "type": "function"
    },
    {
      "inputs": [
        {
          "internalType": "bytes",
          "name": "context",
          "type": "bytes"
        },
        {
          "internalType": "bool",
          "name": "success",
          "type": "bool"
        },
        {
          "internalType": "uint256",
          "name": "gasUseWithoutPost",
          "type": "uint256"
        },
        {
          "components": [
            {
              "internalType": "uint256",
              "name": "gasPrice",
              "type": "uint256"
            },
            {
              "internalType": "uint256",
              "name": "pctRelayFee",
              "type": "uint256"
            },
            {
              "internalType": "uint256",
              "name": "baseRelayFee",
              "type": "uint256"
            },
            {
              "internalType": "address",
              "name": "relayWorker",
              "type": "address"
            },
            {
              "internalType": "address",
              "name": "paymaster",
              "type": "address"
            },
            {
              "internalType": "address",
              "name": "forwarder",
              "type": "address"
            },
            {
              "internalType": "bytes",
              "name": "paymasterData",
              "type": "bytes"
            },
            {
              "internalType": "uint256",
              "name": "clientId",
              "type": "uint256"
            }
          ],
          "internalType": "struct GsnTypes.RelayData",
          "name": "relayData",
          "type": "tuple"
        }
      ],
      "name": "postRelayedCall",
      "outputs": [],
      "stateMutability": "nonpayable",
      "type": "function"
    },
    {
      "inputs": [],
      "name": "versionPaymaster",
      "outputs": [
        {
          "internalType": "string",
          "name": "",
          "type": "string"
        }
      ],
      "stateMutability": "view",
      "type": "function"
    }
  ],
  "bytecode": "0x60806040523480156200001157600080fd5b506040516200386a3803806200386a833981810160405281019062000037919062000402565b620000576200004b6200030560201b60201c565b6200030d60201b60201c565b6200008b7fd8663dbc0f7989ad62b7f44e473609fde43fc99528d3109d82e1a2b353434bd560001b620003d160201b60201c565b620000bf7f2193b01793eab5df2a3beb37a7760e3bb8af7d281e9ae6338207aa0191a3da7060001b620003d160201b60201c565b620000f37fc880c22c94e7d4aa127179bc68a3d9aa75cfa81c8cb7e02c760ced14d83f35ff60001b620003d160201b60201c565b60008190506200012c7f0b02ca029ec126631e9bb786a4568fd6e9cf488ac15497d8786beaadf9a15c1460001b620003d160201b60201c565b620001607f42bb2a32d78c5ee124b1aad06e9291ca87515720c2ae317d4f46aed54761665460001b620003d160201b60201c565b620001947f1220d4c8d49e6f739e51dd7bcb19c224ffc5e9876642ff2141b21ed50e8c443a60001b620003d160201b60201c565b8073ffffffffffffffffffffffffffffffffffffffff1663ba84fd696040518163ffffffff1660e01b815260040160206040518083038186803b158015620001db57600080fd5b505afa158015620001f0573d6000803e3d6000fd5b505050506040513d601f19601f8201168201806040525081019062000216919062000434565b6200022057600080fd5b620002547fb6a037dc239cbf161f1e73c596bc25525c3cdf63b53a51ccb85211c37cb81fb960001b620003d160201b60201c565b620002887fe7086e261d740f19a7a6da97ef4641d9ab473ceaf8477fa7175e0cb651996df860001b620003d160201b60201c565b620002bc7f517d75a092d64c67c052fc6580e674287c48ae5908c834716ca7d22618112f4160001b620003d160201b60201c565b80600560006101000a81548173ffffffffffffffffffffffffffffffffffffffff021916908373ffffffffffffffffffffffffffffffffffffffff1602179055505050620004df565b600033905090565b60008060009054906101000a900473ffffffffffffffffffffffffffffffffffffffff169050816000806101000a81548173ffffffffffffffffffffffffffffffffffffffff021916908373ffffffffffffffffffffffffffffffffffffffff1602179055508173ffffffffffffffffffffffffffffffffffffffff168173ffffffffffffffffffffffffffffffffffffffff167f8be0079c531659141344cd1fd0a4f28419497f9722a3daafe3b4186f6b6457e060405160405180910390a35050565b50565b600081519050620003e581620004ab565b92915050565b600081519050620003fc81620004c5565b92915050565b6000602082840312156200041b576200041a620004a6565b5b60006200042b84828501620003d4565b91505092915050565b6000602082840312156200044d576200044c620004a6565b5b60006200045d84828501620003eb565b91505092915050565b6000620004738262000486565b9050919050565b60008115159050919050565b600073ffffffffffffffffffffffffffffffffffffffff82169050919050565b600080fd5b620004b68162000466565b8114620004c257600080fd5b50565b620004d0816200047a565b8114620004dc57600080fd5b50565b61337b80620004ef6000396000f3fe60806040526004361061019f5760003560e01c80637bb05264116100ec578063b90b41cf1161008a578063da74222811610064578063da742228146106b9578063df463a66146106e2578063f2fde38b1461070d578063f9c002f714610736576102c6565b8063b90b41cf14610638578063bbdaa3c914610663578063d6762c4a1461068e576102c6565b80638da5cb5b116100c65780638da5cb5b1461058e578063921276ea146105b9578063a5dcd07b146105e4578063b039a88f1461060d576102c6565b80637bb05264146105115780637da0a8771461053a5780638834b42c14610565576102c6565b8063562533ef116101595780636cf1a6ca116101335780636cf1a6ca1461047d578063715018a6146104a657806374e861d6146104bd57806376fa01c3146104e8576102c6565b8063562533ef146103ec5780635c5e3db11461042957806364c12e0214610454576102c6565b8062be5dd4146102cb57806320229821146103095780632afe31c1146103465780632d14c4b714610371578063324a7b511461039a5780634c68ffd2146103c3576102c6565b366102c657600073ffffffffffffffffffffffffffffffffffffffff16600160009054906101000a900473ffffffffffffffffffffffffffffffffffffffff1673ffffffffffffffffffffffffffffffffffffffff161415610236576040517f08c379a000000000000000000000000000000000000000000000000000000000815260040161022d90612d7c565b60405180910390fd5b600160009054906101000a900473ffffffffffffffffffffffffffffffffffffffff1673ffffffffffffffffffffffffffffffffffffffff1663aa67c91934306040518363ffffffff1660e01b81526004016102929190612c5e565b6000604051808303818588803b1580156102ab57600080fd5b505af11580156102bf573d6000803e3d6000fd5b5050505050005b600080fd5b3480156102d757600080fd5b506102f260048036038101906102ed919061287b565b610761565b604051610300929190612c94565b60405180910390f35b34801561031557600080fd5b50610330600480360381019061032b91906126ad565b610cbd565b60405161033d9190612c79565b60405180910390f35b34801561035257600080fd5b5061035b610cdd565b6040516103689190612e57565b60405180910390f35b34801561037d57600080fd5b506103986004803603810190610393919061296b565b610d8f565b005b3480156103a657600080fd5b506103c160048036038101906103bc9190612707565b610e9d565b005b3480156103cf57600080fd5b506103ea60048036038101906103e591906126ad565b610ea0565b005b3480156103f857600080fd5b50610413600480360381019061040e91906126ad565b6111f6565b6040516104209190612c79565b60405180910390f35b34801561043557600080fd5b5061043e611216565b60405161044b9190612e57565b60405180910390f35b34801561046057600080fd5b5061047b600480360381019061047691906126ad565b61121c565b005b34801561048957600080fd5b506104a4600480360381019061049f91906126ad565b611572565b005b3480156104b257600080fd5b506104bb611906565b005b3480156104c957600080fd5b506104d261198e565b6040516104df9190612c5e565b60405180910390f35b3480156104f457600080fd5b5061050f600480360381019061050a9190612734565b6119b8565b005b34801561051d57600080fd5b5061053860048036038101906105339190612805565b611a17565b005b34801561054657600080fd5b5061054f611ad7565b60405161055c9190612cdf565b60405180910390f35b34801561057157600080fd5b5061058c600480360381019061058791906126ad565b611afd565b005b34801561059a57600080fd5b506105a3611e91565b6040516105b09190612c5e565b60405180910390f35b3480156105c557600080fd5b506105ce611eba565b6040516105db9190612cfa565b60405180910390f35b3480156105f057600080fd5b5061060b60048036038101906106069190612832565b611f5e565b005b34801561061957600080fd5b5061062261201b565b60405161062f9190612e3c565b60405180910390f35b34801561064457600080fd5b5061064d612061565b60405161065a9190612e57565b60405180910390f35b34801561066f57600080fd5b50610678612067565b6040516106859190612e57565b60405180910390f35b34801561069a57600080fd5b506106a361206e565b6040516106b09190612cc4565b60405180910390f35b3480156106c557600080fd5b506106e060048036038101906106db91906127d8565b612094565b005b3480156106ee57600080fd5b506106f7612154565b6040516107049190612e57565b60405180910390f35b34801561071957600080fd5b50610734600480360381019061072f91906126ad565b612168565b005b34801561074257600080fd5b5061074b612260565b6040516107589190612e57565b60405180910390f35b606060006107917f4c5d4bca8eeee6b9f13e022934418c2974a33126ad71089e3db91eb8211b9d1c60001b610e9d565b6107bd7f800faedecb3d0cd2f38e3894f798a388b890703bbd26f26141ce49fb909dbf0b60001b610e9d565b6107e97f42a4374e115a3309bcdb622f6ce2e840ec97b230ea4361ac83a0d09d046390d860001b610e9d565b6108157f8727668aabce97ae68cd5e6d5894b1c3abdfed24492f462a069f0c77db71e71260001b610e9d565b61081e88611f5e565b61084a7fc5f9231cb76f894f47759c938c42e76fabb3c3017ec0a3b8fee515219bcf2f1560001b610e9d565b6108767f34bbd92abc227869e71c9c9140bff616ae5be4eda62f97ddae73146f893c044760001b610e9d565b6108a27f5f6dd0317d43ad66b637e89f262a697e7da94fd53a36058bc9e4b28738722c5160001b610e9d565b600460008980600001906108b69190612e9b565b60200160208101906108c891906126ad565b73ffffffffffffffffffffffffffffffffffffffff1673ffffffffffffffffffffffffffffffffffffffff16815260200190815260200160002060009054906101000a900460ff1615610ab9576109417feb40efe0c4204d6dcad19423fdbfc477532c951516f04cbb94f2495864e851bb60001b610e9d565b61096d7f4c74939c1495a172a71f58b63616d5ad8d9c80ca33b3fcb2472789f4e4edf9ab60001b610e9d565b6109997fbcb74717f4a727d1a2767c171933875d28d5c4d38c82d0049594a786d407938f60001b610e9d565b600560009054906101000a900473ffffffffffffffffffffffffffffffffffffffff1673ffffffffffffffffffffffffffffffffffffffff16636dc1ccab8980600001906109e79190612e9b565b60000160208101906109f991906126ad565b6040518263ffffffff1660e01b8152600401610a159190612c5e565b60006040518083038186803b158015610a2d57600080fd5b505afa158015610a41573d6000803e3d6000fd5b50505050610a717f09c70c003de7f526f4080367b1caceb0525420ef694a52f88091f7ceaa4d21f160001b610e9d565b610a9d7f4c6570db8b83b3c0983b365c1ed8c97855910c908b8a6a7d077347ea4b0635ba60001b610e9d565b6000604051806020016040528060008152509091509150610cb2565b610ae57f013923a5fd8f827cffc6e5999e0fc38a9ea928aed6f8757f02c5dfddff94ef2860001b610e9d565b610b117f92104a675de92a9135e411382fca8fa2d7568d9ba0908c8d1169b6abd787e77560001b610e9d565b610b3d7fad4be4f7f9c23e414cc4b153d94ac43ad9c824193efe20eebc8e45df0bd087bb60001b610e9d565b610b697f716a99fd329031b9708fc3c3f05ef03dc238aa30ba3bcfca66e3ed63efe6da4a60001b610e9d565b60036000898060000190610b7d9190612e9b565b6020016020810190610b8f91906126ad565b73ffffffffffffffffffffffffffffffffffffffff1673ffffffffffffffffffffffffffffffffffffffff16815260200190815260200160002060009054906101000a900460ff16610c16576040517f08c379a0000000000000000000000000000000000000000000000000000000008152600401610c0d90612d9c565b60405180910390fd5b610c427f8797ecb6621f5862ddadc919d429b0577414fdab09967e595adb828ff0f4c19260001b610e9d565b610c6e7fa544d4bc778fd0a89d76f0933442929dcdb2d0ce250d728cce9adfb20287406960001b610e9d565b610c9a7f797f71778464480e1269133e4d69137a9260ad9a728504247b4ee38a7d7a0ae260001b610e9d565b60006040518060200160405280600081525090915091505b965096945050505050565b60036020528060005260406000206000915054906101000a900460ff1681565b6000600160009054906101000a900473ffffffffffffffffffffffffffffffffffffffff1673ffffffffffffffffffffffffffffffffffffffff166370a08231306040518263ffffffff1660e01b8152600401610d3a9190612c5e565b60206040518083038186803b158015610d5257600080fd5b505afa158015610d66573d6000803e3d6000fd5b505050506040513d601f19601f82011682018060405250810190610d8a919061293e565b905090565b610d97612267565b73ffffffffffffffffffffffffffffffffffffffff16610db5611e91565b73ffffffffffffffffffffffffffffffffffffffff1614610e0b576040517f08c379a0000000000000000000000000000000000000000000000000000000008152600401610e0290612e1c565b60405180910390fd5b600160009054906101000a900473ffffffffffffffffffffffffffffffffffffffff1673ffffffffffffffffffffffffffffffffffffffff1662f714ce83836040518363ffffffff1660e01b8152600401610e67929190612e72565b600060405180830381600087803b158015610e8157600080fd5b505af1158015610e95573d6000803e3d6000fd5b505050505050565b50565b610ecc7f3e2cd78cc2aaf4e149db0b50d8480a9e8334574623c6f070898d907dd25c849860001b610e9d565b610ef87f0aaa0542a3be658cf51368cb1bbfc12e484cd19990cbe1139630c75bf4bb78b660001b610e9d565b610f247f78e1f579db513644211dbafe9836968a80d6d8663c36551ecb91d7ce13072a3160001b610e9d565b600560009054906101000a900473ffffffffffffffffffffffffffffffffffffffff1673ffffffffffffffffffffffffffffffffffffffff16638413ec14336040518263ffffffff1660e01b8152600401610f7f9190612c5e565b60006040518083038186803b158015610f9757600080fd5b505afa158015610fab573d6000803e3d6000fd5b50505050610fdb7f8b49ca584b2e39bad1dd51e4e10078b14089a5b446314ea2532b55bdaabfcca660001b610e9d565b6110077f5c513ee31e58ecd5692eb00365f8d581c1eb536063b767c039ffb28fdfb07a9660001b610e9d565b6110337ff1c490302ff6a063f343426e5a5028456f9811fcfe3d96e12c1308d2025c83ec60001b610e9d565b61105f7f431f95d758fd1023dbbd6a645c8e5463340fef30c6bd3f668d4d775c4fd9ba5460001b610e9d565b61108b7f0cf670de6b09e84992c91e8ef7bebdddf957cf71cc7caf170e798b35c3356f3360001b610e9d565b600360008273ffffffffffffffffffffffffffffffffffffffff1673ffffffffffffffffffffffffffffffffffffffff16815260200190815260200160002060009054906101000a900460ff16611117576040517f08c379a000000000000000000000000000000000000000000000000000000000815260040161110e90612d9c565b60405180910390fd5b6111437f592ff6ab2b7048067d20267c0099a225e20afa8441d758fa464be848c50c74c560001b610e9d565b61116f7fc5abde6cf715795b8982b70578779ebed533df00ad7a7d8405b193290ad93fa660001b610e9d565b61119b7fe15839e31ada7ce34451c2541c93b290907cf8afb6a28f83b29085c8ab4c723560001b610e9d565b6000600360008373ffffffffffffffffffffffffffffffffffffffff1673ffffffffffffffffffffffffffffffffffffffff16815260200190815260200160002060006101000a81548160ff02191690831515021790555050565b60046020528060005260406000206000915054906101000a900460ff1681565b61290481565b6112487f3e2cd78cc2aaf4e149db0b50d8480a9e8334574623c6f070898d907dd25c849860001b610e9d565b6112747f0aaa0542a3be658cf51368cb1bbfc12e484cd19990cbe1139630c75bf4bb78b660001b610e9d565b6112a07f78e1f579db513644211dbafe9836968a80d6d8663c36551ecb91d7ce13072a3160001b610e9d565b600560009054906101000a900473ffffffffffffffffffffffffffffffffffffffff1673ffffffffffffffffffffffffffffffffffffffff16638413ec14336040518263ffffffff1660e01b81526004016112fb9190612c5e565b60006040518083038186803b15801561131357600080fd5b505afa158015611327573d6000803e3d6000fd5b505050506113577f8b49ca584b2e39bad1dd51e4e10078b14089a5b446314ea2532b55bdaabfcca660001b610e9d565b6113837f01b80dbeece401aed3d787b96c463b931d763e7359e0dc44b7a5d5146614e70760001b610e9d565b6113af7fcded970474fe9ad90490ff7b38271c1b7099eb82d82e5ffc825430b3a764b3ef60001b610e9d565b6113db7fe7857bd656d96dd04a02f39ae431853d212fdef4c1e4f64fddd0d3b36157617860001b610e9d565b6114077f36e3290e31eddd0160e748d9a8918c3b377e5eba670ac1ad71bc89a615abbd2b60001b610e9d565b600460008273ffffffffffffffffffffffffffffffffffffffff1673ffffffffffffffffffffffffffffffffffffffff16815260200190815260200160002060009054906101000a900460ff16611493576040517f08c379a000000000000000000000000000000000000000000000000000000000815260040161148a90612d9c565b60405180910390fd5b6114bf7f7dc79e1043ee0e5ed7033791ce077f8783fd4c7abe9071abfa33c728396a764460001b610e9d565b6114eb7f379b3ea7e7632456c4c73798c3d3bf5b0be6b150deff2cfada3fe0b8bf704e5660001b610e9d565b6115177f3a9d9273b696ff988e63c54f6f019e0859c2d6e11e619e40e0f7a19febd9c14c60001b610e9d565b6000600460008373ffffffffffffffffffffffffffffffffffffffff1673ffffffffffffffffffffffffffffffffffffffff16815260200190815260200160002060006101000a81548160ff02191690831515021790555050565b61159e7f3e2cd78cc2aaf4e149db0b50d8480a9e8334574623c6f070898d907dd25c849860001b610e9d565b6115ca7f0aaa0542a3be658cf51368cb1bbfc12e484cd19990cbe1139630c75bf4bb78b660001b610e9d565b6115f67f78e1f579db513644211dbafe9836968a80d6d8663c36551ecb91d7ce13072a3160001b610e9d565b600560009054906101000a900473ffffffffffffffffffffffffffffffffffffffff1673ffffffffffffffffffffffffffffffffffffffff16638413ec14336040518263ffffffff1660e01b81526004016116519190612c5e565b60006040518083038186803b15801561166957600080fd5b505afa15801561167d573d6000803e3d6000fd5b505050506116ad7f8b49ca584b2e39bad1dd51e4e10078b14089a5b446314ea2532b55bdaabfcca660001b610e9d565b806116da7f43b6bea470474f45e26094e9f90f858c1d9232a02ae849dbd37ebe2731da4b0660001b610e9d565b6117067fdddc016e9e71746ce8303c0a14703980afc29bc9555afe8440585bf7dbac877460001b610e9d565b6117327fc48a42f9ea7128810ba7f94601ab774441565688111ddf4de3514ae16564fcc860001b610e9d565b61175e7f641532974d2cb2cc476fc8ad34f16b26574d6ced8e6b165d58350b5408dacbc460001b610e9d565b600073ffffffffffffffffffffffffffffffffffffffff168173ffffffffffffffffffffffffffffffffffffffff1614156117ce576040517f08c379a00000000000000000000000000000000000000000000000000000000081526004016117c590612ddc565b60405180910390fd5b6117fa7fc55878017a8ccc5b3da7bd37b75edfd0a848af025e4172efac98236796644be860001b610e9d565b6118267faad3bdc755dce251309d24e6d0f9d85c9a1fce0c55a87be45c5b0dc6fac929d260001b610e9d565b6118527f9bc62fe64b6b487560e121da42911091dbaa82398e040be75b701e29ec681a6a60001b610e9d565b61187e7fb1883a88628baa8cd3dcc11a6b08ac3f923bc071a638797543a88901165bc9d260001b610e9d565b6118aa7fde1e8bfe1889d6cc6f1d8a6a5a6bad02d9fa2d601a1f9fd2d2aecd088bf95fcf60001b610e9d565b6001600460008473ffffffffffffffffffffffffffffffffffffffff1673ffffffffffffffffffffffffffffffffffffffff16815260200190815260200160002060006101000a81548160ff0219169083151502179055505050565b61190e612267565b73ffffffffffffffffffffffffffffffffffffffff1661192c611e91565b73ffffffffffffffffffffffffffffffffffffffff1614611982576040517f08c379a000000000000000000000000000000000000000000000000000000000815260040161197990612e1c565b60405180910390fd5b61198c600061226f565b565b6000600160009054906101000a900473ffffffffffffffffffffffffffffffffffffffff16905090565b6119e47faa1766bd8e9498b85c110a33e4ee2384e3e9a66796596a87d84c43c440d5d26860001b610e9d565b611a107f90ee1778970289ac77f07fc2c561f4334d9c95baee8066e21366aa61b662943660001b610e9d565b5050505050565b611a1f612267565b73ffffffffffffffffffffffffffffffffffffffff16611a3d611e91565b73ffffffffffffffffffffffffffffffffffffffff1614611a93576040517f08c379a0000000000000000000000000000000000000000000000000000000008152600401611a8a90612e1c565b60405180910390fd5b80600160006101000a81548173ffffffffffffffffffffffffffffffffffffffff021916908373ffffffffffffffffffffffffffffffffffffffff16021790555050565b600260009054906101000a900473ffffffffffffffffffffffffffffffffffffffff1681565b611b297f3e2cd78cc2aaf4e149db0b50d8480a9e8334574623c6f070898d907dd25c849860001b610e9d565b611b557f0aaa0542a3be658cf51368cb1bbfc12e484cd19990cbe1139630c75bf4bb78b660001b610e9d565b611b817f78e1f579db513644211dbafe9836968a80d6d8663c36551ecb91d7ce13072a3160001b610e9d565b600560009054906101000a900473ffffffffffffffffffffffffffffffffffffffff1673ffffffffffffffffffffffffffffffffffffffff16638413ec14336040518263ffffffff1660e01b8152600401611bdc9190612c5e565b60006040518083038186803b158015611bf457600080fd5b505afa158015611c08573d6000803e3d6000fd5b50505050611c387f8b49ca584b2e39bad1dd51e4e10078b14089a5b446314ea2532b55bdaabfcca660001b610e9d565b80611c657f43b6bea470474f45e26094e9f90f858c1d9232a02ae849dbd37ebe2731da4b0660001b610e9d565b611c917fdddc016e9e71746ce8303c0a14703980afc29bc9555afe8440585bf7dbac877460001b610e9d565b611cbd7fc48a42f9ea7128810ba7f94601ab774441565688111ddf4de3514ae16564fcc860001b610e9d565b611ce97f641532974d2cb2cc476fc8ad34f16b26574d6ced8e6b165d58350b5408dacbc460001b610e9d565b600073ffffffffffffffffffffffffffffffffffffffff168173ffffffffffffffffffffffffffffffffffffffff161415611d59576040517f08c379a0000000000000000000000000000000000000000000000000000000008152600401611d5090612ddc565b60405180910390fd5b611d857fc55878017a8ccc5b3da7bd37b75edfd0a848af025e4172efac98236796644be860001b610e9d565b611db17faad3bdc755dce251309d24e6d0f9d85c9a1fce0c55a87be45c5b0dc6fac929d260001b610e9d565b611ddd7fffe5cff1f5f6cabf82f6d92ea48b46f73ec52f49d2a4e3a6be60fe59b58cab2460001b610e9d565b611e097f7a5c61512f49e53cee20354d2865a2d226db14cb768a81ae32b925016933bd7460001b610e9d565b611e357f6b9813435b5c82648e9d64f1ba0cbc6ea64ff3515292e29b62fe9abd91ca94b960001b610e9d565b6001600360008473ffffffffffffffffffffffffffffffffffffffff1673ffffffffffffffffffffffffffffffffffffffff16815260200190815260200160002060006101000a81548160ff0219169083151502179055505050565b60008060009054906101000a900473ffffffffffffffffffffffffffffffffffffffff16905090565b6060611ee87f2b0e44911b3d03074a74e62df6db8c08fd2182a80c06057d34e9e1be1f5bc3d160001b610e9d565b611f147fcc6d9897a4fbd5b9f9338ac73cdc0c00798e98e6c63cf5b349a7d6ea70729eee60001b610e9d565b611f407fb8d86e34f8a5b9167908a2dc3fc65a589c9d53c34de0c54337c7c7b6ea802cec60001b610e9d565b60405180606001604052806022815260200161332460229139905090565b808060200190611f6e9190612ec3565b60a0016020810190611f8091906126ad565b73ffffffffffffffffffffffffffffffffffffffff16600260009054906101000a900473ffffffffffffffffffffffffffffffffffffffff1673ffffffffffffffffffffffffffffffffffffffff161461200f576040517f08c379a000000000000000000000000000000000000000000000000000000000815260040161200690612dbc565b60405180910390fd5b61201881612333565b50565b612023612533565b604051806080016040528061c350620186a061203f9190612f2f565b8152602001620186a081526020016201adb08152602001612904815250905090565b61c35081565b6201adb081565b600560009054906101000a900473ffffffffffffffffffffffffffffffffffffffff1681565b61209c612267565b73ffffffffffffffffffffffffffffffffffffffff166120ba611e91565b73ffffffffffffffffffffffffffffffffffffffff1614612110576040517f08c379a000000000000000000000000000000000000000000000000000000000815260040161210790612e1c565b60405180910390fd5b80600260006101000a81548173ffffffffffffffffffffffffffffffffffffffff021916908373ffffffffffffffffffffffffffffffffffffffff16021790555050565b61c350620186a06121659190612f2f565b81565b612170612267565b73ffffffffffffffffffffffffffffffffffffffff1661218e611e91565b73ffffffffffffffffffffffffffffffffffffffff16146121e4576040517f08c379a00000000000000000000000000000000000000000000000000000000081526004016121db90612e1c565b60405180910390fd5b600073ffffffffffffffffffffffffffffffffffffffff168173ffffffffffffffffffffffffffffffffffffffff161415612254576040517f08c379a000000000000000000000000000000000000000000000000000000000815260040161224b90612d3c565b60405180910390fd5b61225d8161226f565b50565b620186a081565b600033905090565b60008060009054906101000a900473ffffffffffffffffffffffffffffffffffffffff169050816000806101000a81548173ffffffffffffffffffffffffffffffffffffffff021916908373ffffffffffffffffffffffffffffffffffffffff1602179055508173ffffffffffffffffffffffffffffffffffffffff168173ffffffffffffffffffffffffffffffffffffffff167f8be0079c531659141344cd1fd0a4f28419497f9722a3daafe3b4186f6b6457e060405160405180910390a35050565b6000808280600001906123469190612e9b565b602001602081019061235891906126ad565b73ffffffffffffffffffffffffffffffffffffffff1663572b6c0560e01b8480602001906123869190612ec3565b60a001602081019061239891906126ad565b6040516024016123a89190612c5e565b604051602081830303815290604052907bffffffffffffffffffffffffffffffffffffffffffffffffffffffff19166020820180517bffffffffffffffffffffffffffffffffffffffffffffffffffffffff83818316178352505050506040516124129190612c47565b600060405180830381855afa9150503d806000811461244d576040519150601f19603f3d011682016040523d82523d6000602084013e612452565b606091505b509150915081612497576040517f08c379a000000000000000000000000000000000000000000000000000000000815260040161248e90612d5c565b60405180910390fd5b60208151146124db576040517f08c379a00000000000000000000000000000000000000000000000000000000081526004016124d290612dfc565b60405180910390fd5b808060200190518101906124ef91906126da565b61252e576040517f08c379a000000000000000000000000000000000000000000000000000000000815260040161252590612d1c565b60405180910390fd5b505050565b6040518060800160405280600081526020016000815260200160008152602001600081525090565b60008135905061256a81613282565b92915050565b60008135905061257f81613299565b92915050565b600081359050612594816132b0565b92915050565b6000815190506125a9816132b0565b92915050565b6000813590506125be816132c7565b92915050565b60008083601f8401126125da576125d96130bc565b5b8235905067ffffffffffffffff8111156125f7576125f66130b7565b5b602083019150836001820283011115612613576126126130cb565b5b9250929050565b600081359050612629816132de565b92915050565b60008135905061263e816132f5565b92915050565b6000610100828403121561265b5761265a6130c1565b5b81905092915050565b60006040828403121561267a576126796130c1565b5b81905092915050565b6000813590506126928161330c565b92915050565b6000815190506126a78161330c565b92915050565b6000602082840312156126c3576126c26130d5565b5b60006126d18482850161255b565b91505092915050565b6000602082840312156126f0576126ef6130d5565b5b60006126fe8482850161259a565b91505092915050565b60006020828403121561271d5761271c6130d5565b5b600061272b848285016125af565b91505092915050565b6000806000806000608086880312156127505761274f6130d5565b5b600086013567ffffffffffffffff81111561276e5761276d6130d0565b5b61277a888289016125c4565b9550955050602061278d88828901612585565b935050604061279e88828901612683565b925050606086013567ffffffffffffffff8111156127bf576127be6130d0565b5b6127cb88828901612644565b9150509295509295909350565b6000602082840312156127ee576127ed6130d5565b5b60006127fc8482850161261a565b91505092915050565b60006020828403121561281b5761281a6130d5565b5b60006128298482850161262f565b91505092915050565b600060208284031215612848576128476130d5565b5b600082013567ffffffffffffffff811115612866576128656130d0565b5b61287284828501612664565b91505092915050565b60008060008060008060808789031215612898576128976130d5565b5b600087013567ffffffffffffffff8111156128b6576128b56130d0565b5b6128c289828a01612664565b965050602087013567ffffffffffffffff8111156128e3576128e26130d0565b5b6128ef89828a016125c4565b9550955050604087013567ffffffffffffffff811115612912576129116130d0565b5b61291e89828a016125c4565b9350935050606061293189828a01612683565b9150509295509295509295565b600060208284031215612954576129536130d5565b5b600061296284828501612698565b91505092915050565b60008060408385031215612982576129816130d5565b5b600061299085828601612683565b92505060206129a185828601612570565b9150509250929050565b6129b481612f97565b82525050565b6129c381612f85565b82525050565b6129d281612fa9565b82525050565b60006129e382612eec565b6129ed8185612f02565b93506129fd818560208601613055565b612a06816130da565b840191505092915050565b6000612a1c82612eec565b612a268185612f13565b9350612a36818560208601613055565b80840191505092915050565b612a4b8161300d565b82525050565b612a5a81613031565b82525050565b6000612a6b82612ef7565b612a758185612f1e565b9350612a85818560208601613055565b612a8e816130da565b840191505092915050565b6000612aa6601f83612f1e565b9150612ab1826130eb565b602082019050919050565b6000612ac9602683612f1e565b9150612ad482613114565b604082019050919050565b6000612aec601c83612f1e565b9150612af782613163565b602082019050919050565b6000612b0f601983612f1e565b9150612b1a8261318c565b602082019050919050565b6000612b32601f83612f1e565b9150612b3d826131b5565b602082019050919050565b6000612b55601883612f1e565b9150612b60826131de565b602082019050919050565b6000612b78600f83612f1e565b9150612b8382613207565b602082019050919050565b6000612b9b602083612f1e565b9150612ba682613230565b602082019050919050565b6000612bbe602083612f1e565b9150612bc982613259565b602082019050919050565b608082016000820151612bea6000850182612c29565b506020820151612bfd6020850182612c29565b506040820151612c106040850182612c29565b506060820151612c236060850182612c29565b50505050565b612c3281613003565b82525050565b612c4181613003565b82525050565b6000612c538284612a11565b915081905092915050565b6000602082019050612c7360008301846129ba565b92915050565b6000602082019050612c8e60008301846129c9565b92915050565b60006040820190508181036000830152612cae81856129d8565b9050612cbd60208301846129c9565b9392505050565b6000602082019050612cd96000830184612a42565b92915050565b6000602082019050612cf46000830184612a51565b92915050565b60006020820190508181036000830152612d148184612a60565b905092915050565b60006020820190508181036000830152612d3581612a99565b9050919050565b60006020820190508181036000830152612d5581612abc565b9050919050565b60006020820190508181036000830152612d7581612adf565b9050919050565b60006020820190508181036000830152612d9581612b02565b9050919050565b60006020820190508181036000830152612db581612b25565b9050919050565b60006020820190508181036000830152612dd581612b48565b9050919050565b60006020820190508181036000830152612df581612b6b565b9050919050565b60006020820190508181036000830152612e1581612b8e565b9050919050565b60006020820190508181036000830152612e3581612bb1565b9050919050565b6000608082019050612e516000830184612bd4565b92915050565b6000602082019050612e6c6000830184612c38565b92915050565b6000604082019050612e876000830185612c38565b612e9460208301846129ab565b9392505050565b60008235600160e003833603038112612eb757612eb66130c6565b5b80830191505092915050565b60008235600161010003833603038112612ee057612edf6130c6565b5b80830191505092915050565b600081519050919050565b600081519050919050565b600082825260208201905092915050565b600081905092915050565b600082825260208201905092915050565b6000612f3a82613003565b9150612f4583613003565b9250827fffffffffffffffffffffffffffffffffffffffffffffffffffffffffffffffff03821115612f7a57612f79613088565b5b828201905092915050565b6000612f9082612fe3565b9050919050565b6000612fa282612fe3565b9050919050565b60008115159050919050565b6000819050919050565b6000612fca82612f85565b9050919050565b6000612fdc82612f85565b9050919050565b600073ffffffffffffffffffffffffffffffffffffffff82169050919050565b6000819050919050565b60006130188261301f565b9050919050565b600061302a82612fe3565b9050919050565b600061303c82613043565b9050919050565b600061304e82612fe3565b9050919050565b60005b83811015613073578082015181840152602081019050613058565b83811115613082576000848401525b50505050565b7f4e487b7100000000000000000000000000000000000000000000000000000000600052601160045260246000fd5b600080fd5b600080fd5b600080fd5b600080fd5b600080fd5b600080fd5b600080fd5b6000601f19601f8301169050919050565b7f696e76616c696420666f7277617264657220666f7220726563697069656e7400600082015250565b7f4f776e61626c653a206e6577206f776e657220697320746865207a65726f206160008201527f6464726573730000000000000000000000000000000000000000000000000000602082015250565b7f697354727573746564466f727761726465723a20726576657274656400000000600082015250565b7f72656c6179206875622061646472657373206e6f742073657400000000000000600082015250565b7f546172676574206e6f742065786973747320696e207768697465206c69737400600082015250565b7f466f72776172646572206973206e6f7420747275737465640000000000000000600082015250565b7f696e76616c696420616464726573730000000000000000000000000000000000600082015250565b7f697354727573746564466f727761726465723a2062616420726573706f6e7365600082015250565b7f4f776e61626c653a2063616c6c6572206973206e6f7420746865206f776e6572600082015250565b61328b81612f85565b811461329657600080fd5b50565b6132a281612f97565b81146132ad57600080fd5b50565b6132b981612fa9565b81146132c457600080fd5b50565b6132d081612fb5565b81146132db57600080fd5b50565b6132e781612fbf565b81146132f257600080fd5b50565b6132fe81612fd1565b811461330957600080fd5b50565b61331581613003565b811461332057600080fd5b5056fe322e322e302b747265656a65722e77686974656c6973742e697061796d6173746572a26469706673582212204297387b07bda2c4a6909662e0c25e05fa81cb7c21961aefde7c52442ab75bb464736f6c63430008060033",
  "immutableReferences": {},
  "source": "// SPDX-License-Identifier: GPL-3.0\n\npragma solidity >=0.7.6;\nfunction c_0x9059aa55(bytes32 c__0x9059aa55) pure {}\n\npragma abicoder v2;\n\nimport \"./../external/gsn/forwarder/IForwarder.sol\";\nimport \"./../external/gsn/BasePaymaster.sol\";\n\nimport \"../access/IAccessRestriction.sol\";\n\ncontract WhitelistPaymaster is BasePaymaster {\nfunction c_0xd7468039(bytes32 c__0xd7468039) public pure {}\n\n    mapping(address => bool) public funderTargetWhitelist;\n    mapping(address => bool) public planterTargetWhitelist;\n\n    //related contracts\n    IAccessRestriction public accessRestriction;\n\n    /** NOTE modifier to check msg.sender has admin role */\n    modifier onlyAdmin() {c_0xd7468039(0x3e2cd78cc2aaf4e149db0b50d8480a9e8334574623c6f070898d907dd25c8498); /* function */ \n\nc_0xd7468039(0x0aaa0542a3be658cf51368cb1bbfc12e484cd19990cbe1139630c75bf4bb78b6); /* line */ \n        c_0xd7468039(0x78e1f579db513644211dbafe9836968a80d6d8663c36551ecb91d7ce13072a31); /* statement */ \naccessRestriction.ifAdmin(msg.sender);\nc_0xd7468039(0x8b49ca584b2e39bad1dd51e4e10078b14089a5b446314ea2532b55bdaabfcca6); /* line */ \n        _;\n    }\n\n    /** NOTE modifier for check valid address */\n    modifier validAddress(address _address) {c_0xd7468039(0x43b6bea470474f45e26094e9f90f858c1d9232a02ae849dbd37ebe2731da4b06); /* function */ \n\nc_0xd7468039(0xdddc016e9e71746ce8303c0a14703980afc29bc9555afe8440585bf7dbac8774); /* line */ \n        c_0xd7468039(0xc48a42f9ea7128810ba7f94601ab774441565688111ddf4de3514ae16564fcc8); /* requirePre */ \nc_0xd7468039(0x641532974d2cb2cc476fc8ad34f16b26574d6ced8e6b165d58350b5408dacbc4); /* statement */ \nrequire(_address != address(0), \"invalid address\");c_0xd7468039(0xc55878017a8ccc5b3da7bd37b75edfd0a848af025e4172efac98236796644be8); /* requirePost */ \n\nc_0xd7468039(0xaad3bdc755dce251309d24e6d0f9d85c9a1fce0c55a87be45c5b0dc6fac929d2); /* line */ \n        _;\n    }\n\n    constructor(address _accessRestrictionAddress) {c_0xd7468039(0xd8663dbc0f7989ad62b7f44e473609fde43fc99528d3109d82e1a2b353434bd5); /* function */ \n\nc_0xd7468039(0x2193b01793eab5df2a3beb37a7760e3bb8af7d281e9ae6338207aa0191a3da70); /* line */ \n        c_0xd7468039(0xc880c22c94e7d4aa127179bc68a3d9aa75cfa81c8cb7e02c760ced14d83f35ff); /* statement */ \nIAccessRestriction candidateContract = IAccessRestriction(\n            _accessRestrictionAddress\n        );\nc_0xd7468039(0x0b02ca029ec126631e9bb786a4568fd6e9cf488ac15497d8786beaadf9a15c14); /* line */ \n        c_0xd7468039(0x42bb2a32d78c5ee124b1aad06e9291ca87515720c2ae317d4f46aed547616654); /* requirePre */ \nc_0xd7468039(0x1220d4c8d49e6f739e51dd7bcb19c224ffc5e9876642ff2141b21ed50e8c443a); /* statement */ \nrequire(candidateContract.isAccessRestriction());c_0xd7468039(0xb6a037dc239cbf161f1e73c596bc25525c3cdf63b53a51ccb85211c37cb81fb9); /* requirePost */ \n\nc_0xd7468039(0xe7086e261d740f19a7a6da97ef4641d9ab473ceaf8477fa7175e0cb651996df8); /* line */ \n        c_0xd7468039(0x517d75a092d64c67c052fc6580e674287c48ae5908c834716ca7d22618112f41); /* statement */ \naccessRestriction = candidateContract;\n    }\n\n    function addPlanterWhitelistTarget(address _target)\n        external\n        onlyAdmin\n        validAddress(_target)\n    {c_0xd7468039(0x9bc62fe64b6b487560e121da42911091dbaa82398e040be75b701e29ec681a6a); /* function */ \n\nc_0xd7468039(0xb1883a88628baa8cd3dcc11a6b08ac3f923bc071a638797543a88901165bc9d2); /* line */ \n        c_0xd7468039(0xde1e8bfe1889d6cc6f1d8a6a5a6bad02d9fa2d601a1f9fd2d2aecd088bf95fcf); /* statement */ \nplanterTargetWhitelist[_target] = true;\n    }\n\n    function removePlanterWhitelistTarget(address _target) external onlyAdmin {c_0xd7468039(0x01b80dbeece401aed3d787b96c463b931d763e7359e0dc44b7a5d5146614e707); /* function */ \n\nc_0xd7468039(0xcded970474fe9ad90490ff7b38271c1b7099eb82d82e5ffc825430b3a764b3ef); /* line */ \n        c_0xd7468039(0xe7857bd656d96dd04a02f39ae431853d212fdef4c1e4f64fddd0d3b361576178); /* requirePre */ \nc_0xd7468039(0x36e3290e31eddd0160e748d9a8918c3b377e5eba670ac1ad71bc89a615abbd2b); /* statement */ \nrequire(\n            planterTargetWhitelist[_target],\n            \"Target not exists in white list\"\n        );c_0xd7468039(0x7dc79e1043ee0e5ed7033791ce077f8783fd4c7abe9071abfa33c728396a7644); /* requirePost */ \n\n\nc_0xd7468039(0x379b3ea7e7632456c4c73798c3d3bf5b0be6b150deff2cfada3fe0b8bf704e56); /* line */ \n        c_0xd7468039(0x3a9d9273b696ff988e63c54f6f019e0859c2d6e11e619e40e0f7a19febd9c14c); /* statement */ \nplanterTargetWhitelist[_target] = false;\n    }\n\n    function addFunderWhitelistTarget(address _target)\n        external\n        onlyAdmin\n        validAddress(_target)\n    {c_0xd7468039(0xffe5cff1f5f6cabf82f6d92ea48b46f73ec52f49d2a4e3a6be60fe59b58cab24); /* function */ \n\nc_0xd7468039(0x7a5c61512f49e53cee20354d2865a2d226db14cb768a81ae32b925016933bd74); /* line */ \n        c_0xd7468039(0x6b9813435b5c82648e9d64f1ba0cbc6ea64ff3515292e29b62fe9abd91ca94b9); /* statement */ \nfunderTargetWhitelist[_target] = true;\n    }\n\n    function removeFunderWhitelistTarget(address _target) external onlyAdmin {c_0xd7468039(0x5c513ee31e58ecd5692eb00365f8d581c1eb536063b767c039ffb28fdfb07a96); /* function */ \n\nc_0xd7468039(0xf1c490302ff6a063f343426e5a5028456f9811fcfe3d96e12c1308d2025c83ec); /* line */ \n        c_0xd7468039(0x431f95d758fd1023dbbd6a645c8e5463340fef30c6bd3f668d4d775c4fd9ba54); /* requirePre */ \nc_0xd7468039(0x0cf670de6b09e84992c91e8ef7bebdddf957cf71cc7caf170e798b35c3356f33); /* statement */ \nrequire(\n            funderTargetWhitelist[_target],\n            \"Target not exists in white list\"\n        );c_0xd7468039(0x592ff6ab2b7048067d20267c0099a225e20afa8441d758fa464be848c50c74c5); /* requirePost */ \n\n\nc_0xd7468039(0xc5abde6cf715795b8982b70578779ebed533df00ad7a7d8405b193290ad93fa6); /* line */ \n        c_0xd7468039(0xe15839e31ada7ce34451c2541c93b290907cf8afb6a28f83b29085c8ab4c7235); /* statement */ \nfunderTargetWhitelist[_target] = false;\n    }\n\n    function preRelayedCall(\n        GsnTypes.RelayRequest calldata relayRequest,\n        bytes calldata signature,\n        bytes calldata approvalData,\n        uint256 maxPossibleGas\n    )\n        external\n        virtual\n        override\n        returns (bytes memory context, bool revertOnRecipientRevert)\n    {c_0xd7468039(0x4c5d4bca8eeee6b9f13e022934418c2974a33126ad71089e3db91eb8211b9d1c); /* function */ \n\nc_0xd7468039(0x800faedecb3d0cd2f38e3894f798a388b890703bbd26f26141ce49fb909dbf0b); /* line */ \n        (relayRequest, signature, approvalData, maxPossibleGas);\n\nc_0xd7468039(0x42a4374e115a3309bcdb622f6ce2e840ec97b230ea4361ac83a0d09d046390d8); /* line */ \n        c_0xd7468039(0x8727668aabce97ae68cd5e6d5894b1c3abdfed24492f462a069f0c77db71e712); /* statement */ \n_verifyForwarder(relayRequest);\n\nc_0xd7468039(0xc5f9231cb76f894f47759c938c42e76fabb3c3017ec0a3b8fee515219bcf2f15); /* line */ \n        (relayRequest, signature, approvalData, maxPossibleGas);\n\nc_0xd7468039(0x34bbd92abc227869e71c9c9140bff616ae5be4eda62f97ddae73146f893c0447); /* line */ \n        c_0xd7468039(0x5f6dd0317d43ad66b637e89f262a697e7da94fd53a36058bc9e4b28738722c51); /* statement */ \nif (planterTargetWhitelist[relayRequest.request.to]) {c_0xd7468039(0xeb40efe0c4204d6dcad19423fdbfc477532c951516f04cbb94f2495864e851bb); /* branch */ \n\nc_0xd7468039(0x4c74939c1495a172a71f58b63616d5ad8d9c80ca33b3fcb2472789f4e4edf9ab); /* line */ \n            c_0xd7468039(0xbcb74717f4a727d1a2767c171933875d28d5c4d38c82d0049594a786d407938f); /* statement */ \naccessRestriction.ifPlanter(relayRequest.request.from);\n\nc_0xd7468039(0x09c70c003de7f526f4080367b1caceb0525420ef694a52f88091f7ceaa4d21f1); /* line */ \n            c_0xd7468039(0x4c6570db8b83b3c0983b365c1ed8c97855910c908b8a6a7d077347ea4b0635ba); /* statement */ \nreturn (\"\", false);\n        }else { c_0xd7468039(0x013923a5fd8f827cffc6e5999e0fc38a9ea928aed6f8757f02c5dfddff94ef28); /* branch */ \n}\n\nc_0xd7468039(0x92104a675de92a9135e411382fca8fa2d7568d9ba0908c8d1169b6abd787e775); /* line */ \n        c_0xd7468039(0xad4be4f7f9c23e414cc4b153d94ac43ad9c824193efe20eebc8e45df0bd087bb); /* requirePre */ \nc_0xd7468039(0x716a99fd329031b9708fc3c3f05ef03dc238aa30ba3bcfca66e3ed63efe6da4a); /* statement */ \nrequire(\n            funderTargetWhitelist[relayRequest.request.to],\n            \"Target not exists in white list\"\n        );c_0xd7468039(0x8797ecb6621f5862ddadc919d429b0577414fdab09967e595adb828ff0f4c192); /* requirePost */ \n\n\nc_0xd7468039(0xa544d4bc778fd0a89d76f0933442929dcdb2d0ce250d728cce9adfb202874069); /* line */ \n        c_0xd7468039(0x797f71778464480e1269133e4d69137a9260ad9a728504247b4ee38a7d7a0ae2); /* statement */ \nreturn (\"\", false);\n    }\n\n    function postRelayedCall(\n        bytes calldata context,\n        bool success,\n        uint256 gasUseWithoutPost,\n        GsnTypes.RelayData calldata relayData\n    ) external virtual override {c_0xd7468039(0xaa1766bd8e9498b85c110a33e4ee2384e3e9a66796596a87d84c43c440d5d268); /* function */ \n\nc_0xd7468039(0x90ee1778970289ac77f07fc2c561f4334d9c95baee8066e21366aa61b6629436); /* line */ \n        (context, success, gasUseWithoutPost, relayData);\n    }\n\n    function versionPaymaster()\n        external\n        view\n        virtual\n        override\n        returns (string memory)\n    {c_0xd7468039(0x2b0e44911b3d03074a74e62df6db8c08fd2182a80c06057d34e9e1be1f5bc3d1); /* function */ \n\nc_0xd7468039(0xcc6d9897a4fbd5b9f9338ac73cdc0c00798e98e6c63cf5b349a7d6ea70729eee); /* line */ \n        c_0xd7468039(0xb8d86e34f8a5b9167908a2dc3fc65a589c9d53c34de0c54337c7c7b6ea802cec); /* statement */ \nreturn \"2.2.0+treejer.whitelist.ipaymaster\";\n    }\n}\n",
  "sourcePath": "/home/smuggler/contract/.coverage_contracts/gsn/WhitelistPaymaster.sol",
  "compiler": {
    "name": "solc",
    "version": "0.8.6+commit.11564f7e.Emscripten.clang"
  },
  "schemaVersion": "3.4.1",
  "updatedAt": "2021-08-31T13:33:31.506Z",
  "devdoc": {
    "kind": "dev",
    "methods": {
      "owner()": {
        "details": "Returns the address of the current owner."
      },
      "postRelayedCall(bytes,bool,uint256,(uint256,uint256,uint256,address,address,address,bytes,uint256))": {
        "params": {
          "context": "- the call context, as returned by the preRelayedCall",
          "gasUseWithoutPost": "- the actual amount of gas used by the entire transaction, EXCEPT        the gas used by the postRelayedCall itself.",
          "relayData": "- the relay params of the request. can be used by relayHub.calculateCharge() Revert in this functions causes a revert of the client's relayed call (and preRelayedCall(), but the Paymaster is still committed to pay the relay for the entire transaction.",
          "success": "- true if the relayed call succeeded, false if it reverted"
        }
      },
      "preRelayedCall(((address,address,uint256,uint256,uint256,bytes,uint256),(uint256,uint256,uint256,address,address,address,bytes,uint256)),bytes,bytes,uint256)": {
        "params": {
          "approvalData": "- extra dapp-specific data (e.g. signature from trusted party)",
          "maxPossibleGas": "- based on values returned from {@link getGasAndDataLimits},         the RelayHub will calculate the maximum possible amount of gas the user may be charged for.         In order to convert this value to wei, the Paymaster has to call \"relayHub.calculateCharge()\"  return:      a context to be passed to postRelayedCall      rejectOnRecipientRevert - TRUE if paymaster want to reject the TX if the recipient reverts.          FALSE means that rejects by the recipient will be completed on chain, and paid by the paymaster.          (note that in the latter case, the preRelayedCall and postRelayedCall are not reverted).",
          "relayRequest": "- the full relay request structure",
          "signature": "- user's EIP712-compatible signature of the {@link relayRequest}.              Note that in most cases the paymaster shouldn't try use it at all. It is always checked              by the forwarder immediately after preRelayedCall returns."
        }
      },
      "renounceOwnership()": {
        "details": "Leaves the contract without owner. It will not be possible to call `onlyOwner` functions anymore. Can only be called by the current owner. NOTE: Renouncing ownership will leave the contract without an owner, thereby removing any functionality that is only available to the owner."
      },
      "transferOwnership(address)": {
        "details": "Transfers ownership of the contract to a new account (`newOwner`). Can only be called by the current owner."
      }
    },
    "version": 1
  },
  "userdoc": {
    "kind": "user",
    "methods": {
      "getGasAndDataLimits()": {
        "notice": "Return the Gas Limits and msg.data max size constants used by the Paymaster."
      },
      "getHubAddr()": {
        "notice": "return the relayHub of this contract."
      },
      "getRelayHubDeposit()": {
        "notice": "check current deposit on relay hub."
      },
      "postRelayedCall(bytes,bool,uint256,(uint256,uint256,uint256,address,address,address,bytes,uint256))": {
        "notice": "This method is called after the actual relayed function call. It may be used to record the transaction (e.g. charge the caller by some contract logic) for this call. MUST be protected with relayHubOnly() in case it modifies state."
      },
      "preRelayedCall(((address,address,uint256,uint256,uint256,bytes,uint256),(uint256,uint256,uint256,address,address,address,bytes,uint256)),bytes,bytes,uint256)": {
        "notice": "Called by Relay (and RelayHub), to validate if the paymaster agrees to pay for this call. MUST be protected with relayHubOnly() in case it modifies state. The Paymaster rejects by the following \"revert\" operations  - preRelayedCall() method reverts  - the forwarder reverts because of nonce or signature error  - the paymaster returned \"rejectOnRecipientRevert\", and the recipient contract reverted. In any of the above cases, all paymaster calls (and recipient call) are reverted. In any other case, the paymaster agrees to pay for the gas cost of the transaction (note  that this includes also postRelayedCall revert) The rejectOnRecipientRevert flag means the Paymaster \"delegate\" the rejection to the recipient  code.  It also means the Paymaster trust the recipient to reject fast: both preRelayedCall,  forwarder check and receipient checks must fit into the GasLimits.acceptanceBudget,  otherwise the TX is paid by the Paymaster."
      },
      "withdrawRelayHubDepositTo(uint256,address)": {
        "notice": "withdraw deposit from relayHub"
      }
    },
    "version": 1
  }
}